:100000000C94F3190C941B1A0C941B1A0C941B1AC5
:100010000C941B1A0C941B1A0C941B1A0C94D91CCC
:100020000C941B1A0C941B1A0C941B1A0C94281D6C
:100030000C941B1A0C941B1A0C94831D0C941B1A01
:100040000C948F1C0C941B1A0C945D1C0C94371C84
:100050000C941B1A0C941B1A0C941B1A0C941B1A4C
:100060000C941B1A0C941B1A0000000000000000E6
:100070000000000056000000560000005A0000007A
:100080005E00000063000000670000006B000000DD
:1000900070000000CF000000CF000000140100003D
:1000A00014010000140100001401000021010000EF
:1000B00025010000250100002501000029010000A4
:1000C00029010000290100002E0100002E0100007E
:1000D0002E01000032010000320100003201000058
:1000E0003601000036010000360100003B0100002F
:1000F0003B0100003B0100003F0100003F01000008
:100100003F010000430100004301000043010000E3
:10011000990100009E0100006D0200006D020000C8
:10012000380300003C0300000B0400000B04000037
:10013000D6040000DA040000A9050000A9050000AB
:100140007406000079060000480700004807000018
:100150001208000017080000E6080000E60800008A
:10016000B1090000B5090000840A0000840A0000FB
:100170004F0B0000530B0000220C0000220C00006B
:10018000220C0000ED0C0000ED0C0000F20C000051
:10019000C10D0000C10D00008C0E0000900E00008B
:1001A0005B0F00005F0F00002A1000002E100000FF
:1001B000FD100000FD100000C8110000CC1100006F
:1001C000971200009C120000661300006B130000E1
:1001D0003A1400003A14000005150000091500004B
:1001E000D8150000D8150000A3160000A7160000BF
:1001F000761700007617000041180000451800002F
:10020000DF190000E4190000B31A0000B31A00005F
:100210007E1B0000821B0000511C0000511C0000CE
:100220001C1D0000201D0000EF1D0000EF1D000040
:10023000BA1E0000BE1E00008E1F00008E1F0000B0
:10024000582000005D2000002C2100002C2100001F
:10025000F7210000FB210000CA220000CA22000092
:100260009523000099230000682400006824000002
:10027000332500003825000007260000072600006F
:10028000D1260000D6260000A5270000A5270000E3
:100290007028000074280000432900004329000052
:1002A0000E2A0000122A0000E12A0000E12A0000C4
:1002B000AC2B0000B12B0000802C0000802C000033
:1002C0004B2D00004F2D00001E2E00001E2E0000A2
:1002D000E92E0000ED2E0000BC2F0000BC2F000016
:1002E000873000008B300000563100005B31000089
:1002F000253200002A320000F4320000F9320000FA
:10030000F9320000C4330000C43300000437000099
:100310009E380000A33800006E39000072390000DA
:100320000C3B0000103B0000DB3B0000DF3B00000B
:10033000AA3C0000AE3C0000483E00004D3E0000DC
:10034000173F00001C3F0000E73F0000EB3F0000AC
:1003500085410000894100005442000058420000DD
:10036000F2430000F743000090450000954500006F
:100370006046000064460000FE470000024800009E
:10038000CD480000D14800009C490000A049000071
:100390003A4B00003F4B00000A4C00000E4C00009E
:1003A000D94C0000DD4C0000774E00007B4E000071
:1003B000464F00004A4F0000E4500000E9500000A2
:1003C0008352000087520000525300005653000031
:1003D000F0540000F4540000BF550000C355000065
:1003E0008E560000935600002D5800003158000032
:1003F000FC58000000590000CB590000CF59000004
:10040000695B00006D5B0000385C00003C5C000034
:10041000D65D0000DB5D0000755F0000795F0000C5
:100420004460000048600000E2610000E6610000F6
:10043000B1620000B66200008063000085630000C6
:100440001F65000023650000EE650000F2650000F6
:10045000BD660000C16600005B6800005F680000C8
:100460002A6900002F690000F9690000FE69000098
:10047000C96A0000CD6A0000986B00009C6B000008
:10048000676C00006B6C0000366D00003A6D000078
:10049000056E0000096E0000D46E0000D96E0000E9
:1004A000A36F0000A86F000072700000777000005A
:1004B00042710000467100001172000015720000C8
:1004C000E0720000E4720000AF730000B37300003C
:1004D0007E740000827400004D75000052750000AB
:1004E0001C76000021760000EC760000F07600001B
:1004F000BB770000BF7700008A7800008E7800008C
:10050000597900005D790000287A00002C7A0000FB
:10051000F77A0000FB7A0000C67B0000CB7B00006E
:10052000957C00009A7C0000657D0000697D0000DC
:10053000347E0000387E0000037F0000077F00004B
:10054000D27F0000D67F0000A1800000A5800000BF
:1005500070810000758100003F820000448200002D
:100560000E83000013830000DE830000E28300009E
:10057000AD840000B18400007C850000808500000F
:100580004B8600004F8600001A8700001E8700007F
:10059000E9870000EE870000B8880000BD880000F1
:1005A000888900008C890000578A00005B8A00005F
:1005B000268B00002A8B0000F58B0000F98B0000D1
:1005C000C48C0000C88C0000938D0000978D000043
:1005D000628E0000678E0000318F0000368F0000B1
:1005E0000190000005900000D0900000D490000021
:1005F0009F910000A39100006E9200007292000093
:100600003D930000419300000C9400001194000001
:10061000DB940000E0940000AA950000AF95000074
:100620007A9600007E960000499700004D970000E2
:10063000189800001C980000E7980000EB98000054
:10064000B6990000BA990000859A00008A9A0000C5
:10065000549B0000599B0000249C0000289C000033
:10066000F39C0000F79C0000C29D0000C69D0000A6
:10067000919E0000959E0000609F0000649F000016
:100680002FA0000034A00000FEA0000003A1000085
:10069000CDA10000D2A100009DA20000A1A20000F7
:1006A0006CA3000070A300003BA400003FA4000066
:1006B0000AA500000EA50000D9A50000DDA50000D8
:1006C000A8A60000ADA6000077A700007CA7000048
:1006D00047A800004BA8000016A900001AA90000B6
:1006E000E5A90000E9A90000B4AA0000B8AA00002A
:1006F00083AB000087AB000052AC000056AC00009A
:1007000021AD000026AD0000F0AD0000F5AD000009
:10071000C0AE0000C4AE00008FAF000093AF000079
:100720005EB0000062B000002DB1000031B10000E9
:10073000FCB1000000B20000CBB20000D0B200005B
:100740009AB300009FB3000069B400006EB40000CB
:1007500039B500003DB5000008B600000CB6000039
:10076000D7B60000DBB60000A6B70000AAB70000AD
:1007700075B8000079B8000044B9000049B900001C
:1007800013BA000018BA0000E3BA0000E7BA00008C
:10079000B2BB0000B6BB000081BC000085BC0000FD
:1007A00050BD000054BD00001FBE000023BE00006D
:1007B000EEBE0000F3BE0000BDBF0000C2BF0000DF
:1007C0008CC0000091C000005CC1000060C100004E
:1007D0002BC200002FC20000FAC20000FEC20000BF
:1007E000C9C30000CDC3000098C400009CC4000031
:1007F00067C500006CC5000036C600003BC600009F
:1008000006C700000AC70000D5C70000D9C700000E
:10081000A4C80000A8C8000073C9000077C9000080
:1008200042CA000046CA000011CB000015CB0000F0
:10083000E0CB0000E5CB0000AFCC0000B4CC000062
:100840007FCD000083CD00004ECE000052CE0000D0
:100850001DCF000021CF0000ECCF0000F0CF000042
:10086000BBD00000BFD000008AD100008FD10000B3
:1008700059D200005ED200002DD300002DD300001D
:10088000F8D30000FCD30000C7D40000CBD4000094
:1008900096D500009AD5000069D6000069D6000000
:1008A00034D7000038D7000003D8000008D8000073
:1008B000D2D80000D7D80000A6D90000A6D90000E1
:1008C00071DA000075DA000040DB000044DB000054
:1008D0000FDC000013DC0000E2DC0000E2DC0000C2
:1008E000ADDD0000B2DD000081DE000081DE000031
:1008F0004BDF000050DF00001FE000001FE00000A1
:10090000EAE00000EEE00000B9E10000BDE1000017
:1009100088E200008CE200005BE300005BE3000083
:1009200026E400002BE40000F5E40000FAE40000F7
:10093000C5E50000C9E5000098E6000098E6000063
:1009400063E7000067E7000032E8000036E80000D7
:1009500001E9000005E9000005E90000D4E9000014
:10096000D4E900009FEA00009FEA0000A4EA00002A
:10097000A4EA000073EB000073EB00003EEC000003
:100980003EEC000042EC000011ED000011ED000013
:10099000DCED0000E0ED0000ABEE0000AFEE00008B
:1009A0007AEF00007EEF00004EF000004EF00000F5
:1009B00018F100001DF10000E7F10000ECF100006B
:1009C000B7F20000BBF200008AF300008AF30000D7
:1009D00055F4000059F4000028F5000028F5000047
:1009E000F3F50000F7F50000C7F60000C7F60000B9
:1009F00091F7000096F7000065F8000065F8000028
:100A000030F9000034F9000003FA000003FA000096
:100A1000CEFA0000D2FA00009DFB0000A1FB00000E
:100A20006CFC000070FC000040FD000040FD000078
:100A30000AFE00000FFE0000DAFE0000DEFE0000ED
:100A4000A9FF000015000100780001007C000100F2
:100A5000DF000100E4000100470101004B0101003B
:100A6000B3010100B3010100160201001A020100E6
:100A70007E02010082020100E5020100EA0201009B
:100A8000220601009F0C0100761101007A1101007D
:100A900014130100181301008D19010091190100B0
:100AA000C91C0100CE1C0100062001000A20010023
:100AB0007F260100832601005A2B01005E2B0100D6
:100AC000F82C0100FC2C010071330100753301008A
:100AD000AE360100B2360100EA390100EE390100FC
:100AE000273D01002B3D0100FA3D0100FA3D0100C8
:100AF000C53E0100C93E0100983F0100983F01003A
:100B000063400100684001003741010037410100A6
:100B1000014201000642010006420100D1420100EB
:100B2000D5420100D5420100A0430100A4430100C9
:100B300073440100734401003E4501004245010039
:100B40001146010011460100DC460100E1460100AA
:100B5000B0470100B04701007B4801007F48010019
:100B60004E4901004E490100194A01001D4A010089
:100B70001D4A0100E84A0100EC4A0100B74B0100A0
:100B8000B74B0100BB4B01008B4C01008B4C0100AB
:100B9000554D01005A4D0100294E0100294E01001A
:100BA000F44E0100F84E0100F84E0100C34F010061
:100BB000C74F010092500100925001009650010071
:100BC00065510100655101003052010034520100AD
:100BD0000453010004530100CE530100D35301001C
:100BE000A2540100A25401006D550100715501008D
:100BF00040560100405601000B5701000F570100FD
:100C00000F570100DA570100DE570100DE570100DF
:100C1000A9580100AD5801007D5901007D5901001E
:100C2000475A01004C5A01001B5B01001B5B01008D
:100C3000E65B0100EA5B0100EA5B0100B55C0100D4
:100C4000B95C0100B95C0100845D0100885D0100B0
:100C5000575E0100575E0100225F0100275F01001F
:100C6000F65F0100F65F0100C0600100C560010091
:100C700094610100946101005F6201006362010000
:100C80003263010032630100FD6301000164010071
:100C900001640100CC640100D06401009B65010087
:100CA0009B650100A06501006F6601006F66010091
:100CB0003A6701003E6701000D6801000D68010000
:100CC000D8680100DC680100DC680100A769010048
:100CD000AB690100AB690100766A01007A6A010024
:100CE000496B0100496B0100146C0100196C010093
:100CF000E86C0100E86C0100B36D0100B76D010004
:100D0000866E0100866E0100516F0100556F010073
:100D10002470010024700100EF700100F3700100E5
:100D2000F3700100BE710100C37101008D720100FA
:100D30008D72010092720100617301006173010004
:100D40002C7401003074010030740100FF74010044
:100D5000FF740100CA7501009D76010068770100EB
:100D60003C78010006790100067901000B79010049
:100D70000B790100DA790100DA790100A57A010026
:100D8000A57A0100A97A0100A97A0100787B010007
:100D9000787B0100437C0100437C0100477C01001B
:100DA000167D0100167D0100E17D0100E67D010058
:100DB000B57E0100B57E01007F7F0100847F0100C8
:100DC000847F010053800100538001001E810100D7
:100DD0001E8101002281010022810100F1810100B8
:100DE000F1810100BC8201008F8301005A8401005F
:100DF0005A8401005F8401005F8401002E85010098
:100E00002E850100F9850100FD850100CC860100D9
:100E1000CC86010097870100978701009B8701001E
:100E20009B8701006A8801006A88010035890100FA
:100E30003589010039890100088A0100088A01000A
:100E4000D38A0100D88A0100A78B0100A78B01007B
:100E5000728C0100768C0100768C0100458D0100BA
:100E6000458D0100108E0100108E0100148E0100CE
:100E7000148E0100E38E0100E38E0100AE8F0100AD
:100E8000829001004C91010020920100EB92010040
:100E9000EB920100EF920100EF920100BE9301007E
:100EA000BE93010089940100899401008D94010092
:100EB0008D9401005C9501005C950100279601006E
:100EC000279601002B960100FB960100FB9601007E
:100ED000C5970100CA9701009998010099980100EF
:100EE000649901006899010068990100379A01002E
:100EF000379A0100029B0100029B0100069B010042
:100F0000069B0100D59B0100D59B0100A09C010020
:100F1000749D01003E9E0100439E0100439E01001E
:100F2000129F0100129F0100DD9F0100DD9F010063
:100F3000DD9F0100E19F0100B0A00100B0A0010011
:100F40007BA101007FA101007FA101004EA2010051
:100F50004EA2010019A301001EA30100EDA3010090
:100F6000EDA30100B8A40100BCA401008BA5010001
:100F70008BA5010056A6010056A601005AA6010045
:100F80005AA6010029A7010029A70100F4A7010022
:100F9000F4A70100F8A70100F8A70100C7A8010005
:100FA000C7A8010092A9010066AA010031AB0100A7
:100FB00004AC0100CFAC0100CFAC0100D3AC010008
:100FC000D3AC0100A2AD0100A2AD01006DAE0100E5
:100FD0006DAE010071AE010071AE010041AF0100C4
:100FE00041AF01000BB001000BB0010010B00100D7
:100FF000DFB00100DFB00100AAB10100AEB1010015
:101000007DB201007DB2010048B301004CB3010084
:101010004CB301001BB401001BB40100E6B4010095
:10102000E6B40100EAB40100EAB40100BAB5010077
:10103000BAB5010084B6010058B7010023B8010019
:1010400027B8010027B80100F6B80100F6B8010082
:10105000C1B90100C1B90100C5B9010094BA0100CC
:1010600094BA01005FBB01005FBB010064BB0100DB
:1010700064BB010033BC010033BC0100FDBC0100B6
:10108000FDBC010002BD0100D1BD0100D1BD0100C8
:101090009CBE0100A0BE01006FBF01006FBF010038
:1010A0003AC001003EC001003EC001000DC1010078
:1010B0000DC10100D8C10100D8C10100DDC101008E
:1010C000DDC10100ACC20100ACC2010077C3010068
:1010D0004AC4010015C50100E8C50100B3C60100FE
:1010E000B3C60100B7C60100B7C6010086C701003C
:1010F00086C7010051C8010051C8010056C801004F
:1011000056C8010025C9010025C90100F0C9010028
:10111000F4C90100C3CA0100C3CA01008ECB01009B
:1011200092CB010061CC010061CC01002CCD01000B
:101130002CCD010030CD010030CD010000CE0100EA
:1011400000CE0100CACE0100CACE0100CFCE010000
:10115000CFCE01009ECF01009ECF010069D00100DB
:101160003CD1010007D201000BD201000BD20100DB
:10117000DAD20100DAD20100A5D30100A5D3010023
:10118000A5D30100A9D3010079D4010079D40100CD
:1011900043D5010017D60100E2D60100E6D60100D2
:1011A000B5D70100B5D7010080D8010084D801006F
:1011B00053D9010053D901001EDA010023DA0100DE
:1011C000F2DA0100F2DA0100BCDB0100C1DB010050
:1011D00090DC010090DC01005BDD01005FDD0100BF
:1011E0002EDE01002EDE0100F9DE0100FDDE010031
:1011F000CCDF0100CCDF010097E001009CE00100A2
:101200006BE101006BE1010036E201003AE201000E
:1012100009E3010009E30100D4E30100D8E3010080
:10122000A7E40100A7E4010072E5010076E50100F2
:1012300045E6010045E6010010E7010015E7010061
:10124000E4E70100E4E70100AFE80100B3E80100D2
:1012500082E9010082E901004DEA010051EA010042
:1012600020EB010020EB0100EBEB0100EFEB0100B4
:10127000BFEC0100BFEC010089ED01008EED010023
:1012800028EF01002CEF0100FBEF0100FBEF010054
:10129000C6F00100CAF0010099F1010099F10100C6
:1012A00064F2010068F2010038F3010038F3010034
:1012B00002F4010007F40100A1F50100A5F5010009
:1012C00074F6010074F601003FF7010043F70100D6
:1012D00012F8010012F80100DDF80100E1F8010048
:1012E000B1F90100B1F901007BFA010080FA0100B7
:1012F0001AFC01001EFC0100EDFC0100EDFC0100E8
:10130000B8FD0100BCFD01008BFE01008BFE010059
:1013100056FF01005BFF01002A0002002A000200C4
:10132000F4000200F9000200C8010200C801020036
:1013300093020200970202006603020066030200A5
:101340003104020035040200040502000405020015
:10135000CF050200D4050200A3060200A306020086
:101360006E070200720702000C0902001009020059
:10137000DF090200DF090200AA0A0200AE0A020029
:101380007E0B02007E0B0200480C02004D0C020096
:101390001C0D02001C0D0200E70D0200EB0D020007
:1013A000BA0E0200BA0E0200850F0200890F020079
:1013B00058100200581002002311020027110200E9
:1013C000F7110200F7110200C1120200C61202005A
:1013D00095130200951302006014020064140200C9
:1013E0003315020033150200FE150200021602003A
:1013F000D1160200D11602009C170200A0170200AD
:1014000070180200701802003A1902003F19020019
:101410000E1A02000E1A0200D91A0200DD1A02008A
:10142000AC1B0200AC1B0200AC1B0200771C0200CC
:10143000771C02007B1C02004A1D02004A1D0200AC
:10144000151E02001A1E0200E41E0200E91E020020
:10145000B31F0200B81F020087200200872002008D
:101460005221020056210200212202002522020000
:10147000F0220200F4220200C3230200C323020070
:101480008E240200932402006225020062250200DD
:101490002D2602003126020000270200002702004C
:1014A000CB270200CF270200692902006D29020024
:1014B0003D2A02003D2A0200072B02000C2B0200ED
:1014C000DB2B0200DB2B0200A62C0200AA2C020060
:1014D000AA2C0200AA2C0200752D0200792D020010
:1014E000792D0200442E0200442E0200482E0200F4
:1014F000172F0200172F0200E22F0200E62F020032
:10150000B6300200B63002008031020085310200A0
:1015100054320200543202001F330200233302000F
:10152000F2330200F2330200BD340200C134020083
:1015300090350200903502005B3602005F360200F3
:101540002F3702002F370200F9370200FE37020062
:10155000CD380200CD380200983902009C390200D3
:101560006B3A02006B3A0200363B02003A3B020043
:10157000093C0200093C0200D43C0200D93C0200B4
:10158000A83D0200A83D0200723E0200773E020024
:10159000463F0200463F020015400200154002008F
:1015A000E4400200E4400200AF410200B341020007
:1015B00082420200824202004D43020000005700B6
:1015C0005700570057005700570057005700570063
:1015D000570000006700670067006700670067004A
:1015E00067006700670067006700670067006700C3
:1015F00067006700670067006700670067006700B3
:1016000067006700670067006700670067006700A2
:10161000000082000000AE00000082000000AE006A
:101620000000CF000000050100004D000000820016
:1016300000009B000000C30000000501000037010E
:101640000000E90000000501C300000000004500A3
:10165000000067000000AE000000CF0000004D0059
:10166000000074000000C3000000E9000000570003
:10167000000082000000CF000000050100005D01B5
:1016800000009F0100000B0200003A00000057001C
:10169000000074000000CF000000150100008A0067
:1016A0000000AE000000E900000041000000610001
:1016B000000082000000A4000000C300000005013B
:1016C000000049010000870100004500000067009C
:1016D0000000AE000000CF0000004D0000007400CC
:1016E00000009B000000E90000005700000082009D
:1016F0000000AE00000067000000CF000000050100
:1017000000005D01000005010B0200000000A400C4
:101710000000A40000009B0000009B00000074007B
:101720000000A4000000A40000007B0000009B005B
:1017300000009B00000074000000A4000000A40052
:1017400000009B0000009B00000074000000A4004B
:101750000000A40000007B0000009B0000009B0034
:10176000000074000000A4000000A40000009B0022
:1017700000009B00000074000000A4000000A40012
:1017800000007B0000009B0000009B000000740034
:101790000000A4000000A40000009B0000009B00CB
:1017A000000074000000A4000000A40000007B0002
:1017B0000000B8000000E9000000F600000015017C
:1017C00000009B0000009B0000009B0000009B00AD
:1017D00000009B0000009B0000009B0000009B009D
:1017E00000009B0000009B0000009B0000009B008D
:1017F00000009B0000009B0000009B0000009B007D
:1018000000007B0000007B0000007B0000007B00EC
:1018100000008A0000008A0000008A0000008A00A0
:1018200000009B0000009B0000009B0000009B004C
:1018300000009B0000009B0000009B0000009B003C
:1018400000006700000067000000670000006700FC
:1018500000006700000067000000670000006700EC
:1018600000007400000074000000740000007400A8
:101870000000740000007400000074000000740098
:1018800000007B0000007B0000007B0000007B006C
:1018900000008A0000008A0000008A0000008A0020
:1018A00000009B0000009B0000009B0000009B00CC
:1018B00000009B0000009B0000009B0000009B00BC
:1018C00000009B0000009B0000009B0000009B00AC
:1018D00000009B0000009B0000009B0000009B009C
:1018E00000009B0000009B0000009B0000009B008C
:1018F00000009B0000009B0000009B0000009B007C
:1019000000007B0000007B0000007B0000007B00EB
:1019100000008A0000008A0000008A0000008A009F
:1019200000009B0000009B0000009B0000009B004B
:1019300000009B0000009B0000009B0000009B003B
:1019400000006700000067000000670000006700FB
:1019500000006700000067000000670000006700EB
:1019600000007400000074000000740000007400A7
:101970000000740000007400000074000000740097
:1019800000007B0000007B0000007B0000007B006B
:1019900000008A0000008A0000008A0000008A001F
:1019A00000009B0000009B0000009B0000009B00CB
:1019B00000009B0000009B0000009B0000009B00BB
:1019C00000006100000092000000DC000000250122
:1019D00000006E000000A400000049010000DC00CF
:1019E00000007B000000B8000000F6000000B80016
:1019F00000007B000000B80000006E000000B8008E
:101A000000006100000092000000DC0000002501E1
:101A100000006E000000A400000049010000DC008E
:101A200000007B00000092000000B8000000F600FB
:101A3000000025017B000000B80000000000B80194
:101A40006E000000B800000000006100000092007D
:101A50000000DC000000250100006E000000A40072
:101A6000000049010000DC0000007B000000B8001D
:101A70000000F6000000B800000015010000B800EA
:101A8000000025010000B800000061000000920085
:101A90000000DC000000250100006E000000A40032
:101AA000000049010000DC000000740000008A0012
:101AB0000000B8000000E9000000150100007101FD
:101AC0000000D20100002A020000C3000000DC0078
:101AD0000000F6000000C3000000DC000000F6007B
:101AE0000000C3000000DC000000F6000000C3009E
:101AF0000000DC000000F6000000A4000000F6007A
:101B0000000092000000DC00000082000000F600EF
:101B10000000F600820000000000F60000008200D5
:101B20000000C300000092000000DC000000A400E0
:101B30000000F6000000A4000000F6000000A40071
:101B4000F6000000F6000000000092000000F60021
:101B5000000082000000F60000008200F600000095
:101B6000F6000000000092000000DC00000092007F
:101B70000000DC000000A4000000F6000000A4004B
:101B80000000F6000000F600A40000000000F600CF
:101B9000000092000000F600000082000000F60045
:101BA0000000F600820000000000F6000000820045
:101BB0000000C300000092000000DC000000A40050
:101BC0000000F6000000A4000000F6000000A400E1
:101BD000F6000000F6000000000092000000F60091
:101BE000000082000000F6000000F6008200000005
:101BF0000000F600000092000000DC0000009200EF
:101C00000000DC000000A4000000F6000000A400BA
:101C10000000F6000000A400F6000000F60000003E
:101C2000000092000000F60000008A002200000080
:101C3000CF000000CF000000CF0000000000260011
:101C40009B000000E90000000000AE002B00000037
:101C5000050100000000AE00000005010000AE001C
:101C600000000501000026009B000000E9000000C4
:101C700000008A0022000000CF000000CF0000001A
:101C8000000026009B000000E90000009B0000000F
:101C9000E90000000000AE002B000000050100007C
:101CA0000000AE00000005010000AE0000000501CC
:101CB00000009B0026000000E90000000000220058
:101CC0008A000000CF000000CF000000CF0000001D
:101CD00000009B0026000000E90000000000AE00AC
:101CE0002B000000050100000000AE00000005010F
:101CF0000000AE000000050100009B00260000006F
:101D0000E9000000000022008A000000CF0000006F
:101D1000CF0000009B0026000000E900000000004A
:101D200000009B000000E90000002B00AE00000056
:101D300005010000AE00000005010000AE0000003B
:101D40000501000000009B0026000000E9000000E3
:101D5000000022008A000000CF000000CF00000039
:101D6000CF000000000026009B000000E9000000FA
:101D70000000AE002B000000050100000000AE00D6
:101D8000000005010000AE00000005010000260073
:101D90009B000000E9000000000022008A00000013
:101DA000CF000000CF00000026009B000000E900EB
:101DB000000000009B000000E90000000000AE00F1
:101DC0002B000000050100000000AE00000005012E
:101DD0000000AE000000050100009B00260000008E
:101DE000E9000000000022008A000000CF0000008F
:101DF000CF000000CF00000000009B002600000084
:101E0000E900000000002B00AE000000050100000A
:101E1000AE00000005010000AE000000050100005A
:101E200000009B0026000000E900000000002200E6
:101E30008A000000CF000000CF0000009B002600B9
:101E40000000E9000000000000009B000000E90025
:101E5000000082000000AE00000067000000820069
:101E60000000AE000000CF000000050100005C0093
:101E700000008A000000B8000000DC0000008A00BA
:101E80000000B8000000DC00000015010000520056
:101E900000008A000000A4000000DC000000150122
:101EA0000000490100009F0100002A0200004900D3
:101EB00000006E000000B8000000DC0000005200CE
:101EC00000007B000000CF0000005C0000008A00E2
:101ED0000000DC0000001501000071010000B801E5
:101EE00000002A0200003D0000005C0000007B00B2
:101EF0000000B80000007B00000092000000B80065
:101F0000000045000000670000008A000000AE00ED
:101F10000000CF000000150100005D0100009F01DE
:101F20000000490000006E000000B8000000DC0066
:101F30000000520000007B000000CF0000005C00A9
:101F400000008A000000B8000000DC00000015015D
:101F50000000DC000000B80000008A0000005C0007
:101F600000006E0000008A000000B80000008A0037
:101F70000000B8000000DC00000015010000520065
:101F800000008A000000A4000000CF00000015013E
:101F9000000049010000F60000001501CF0000001C
:101FA0000000490000006E000000B8000000DC00E6
:101FB0000000520000007B000000CF000000F6008F
:101FC00000005C0000008A000000DC000000150139
:101FD000000071010000B80100002A0200003D006D
:101FE00000005C0000007B000000DC0000007B00C3
:101FF000F600250100000000920000000000B8007B
:102000000000F600000045000000670000008A00A4
:102010000000A4000000CF000000150100004901ED
:1020200000009F010000490000006E000000B800A1
:102030000000DC000000520000007B000000A40053
:102040000000F60000005C0000008A000000B800FC
:1020500000006E0000008A000000B8000000DC00F4
:10206000000015010000000000000000000000005A
:1020700000000000000008000000080000000C0044
:1020800000001100000015000000190000001E00F3
:102090000000220000009B0000009B0000009B004D
:1020A00000009B000000A8000000AC000000AC0095
:1020B0000000AC000000B0000000B0000000B00064
:1020C0000000B5000000B5000000B5000000B90038
:1020D0000000B9000000B9000000BD000000BD0014
:1020E0000000BD000000C2000000C2000000C200ED
:1020F0000000C6000000C6000000C6000000CA00C4
:102100000000CA000000CA000000690200006D0261
:102110000000D6040000DA0400007406000079060E
:102120000000E2080000E60800004F0B0000530B1F
:102130000000BA0C0000BE0C0000ED0C0000F20C18
:1021400000008C0E0000900E00002A1000002E10DF
:102150000000C8110000CC110000661300006B13D2
:102160000000DF190000E41900004D1C0000511CA4
:102170000000BA1E0000BE1E0000582000005D20B6
:102180000000C6220000CA220000332500003825C6
:102190000000D1260000D626000070280000742818
:1021A00000000E2A0000122A0000AC2B0000B12B08
:1021B00000004B2D00004F2D0000C43300000437F9
:1021C0000000CF370000D43700009E380000A3384D
:1021D00000006E390000723900003D3A0000413ABB
:1021E00000000C3B0000103B0000DB3B0000AE3C5D
:1021F0000000483E00004D3E0000173F00001C3F1D
:102200000000E73F0000EB3F0000B6400000BA408E
:10221000000085410000894100002343000027435E
:102220000000F2430000F7430000C1440000C64430
:10223000000090450000954500006046000064469F
:1022400000002F47000033470000FE47000002480F
:102250000000CD480000A04900003A4B00003F4B71
:1022600000000A4C00000E4C0000D94C0000DD4C70
:102270000000A84D0000AC4D0000774E00007B4EE2
:102280000000155000001A500000E4500000E95012
:102290000000B3510000B851000083520000875283
:1022A00000005253000056530000215400002554F2
:1022B0000000F0540000F45400008E5600009356C5
:1022C00000002D58000031580000FC580000005953
:1022D0000000CB590000CF5900009A5A00009E5AC6
:1022E0000000695B00006D5B0000075D00000C5D95
:1022F00000000C5D0000D65D0000D65D0000DB5DD7
:102300000000A65E0000AA5E0000755F0000795F15
:102310000000446000004860000013610000176185
:102320000000E2610000E661000080630000856358
:1023300000001F65000023650000EE650000F265E7
:102340000000BD660000C16600008C670000906759
:1023500000005B6800005F6800002A6900002F69C8
:102360000000F9690000FE690000C96A0000CD6A3A
:102370000000366D00003A6D0000A36F0000A86FEA
:1023800000004271000046710000AF730000B3739B
:1023900000001C76000021760000877700008B7714
:1023A0000000BB770000BF770000597900005D791D
:1023B0000000F77A0000FB7A0000957C00009A7C10
:1023C0000000347E0000387E0000AD840000B1843F
:1023D00000001A8700001E870000888900008C8991
:1023E0000000268B00002A8B0000938D0000978D43
:1023F000000001900000059000006B910000A39187
:1024000000003D93000041930000DB940000E09445
:1024100000007A9600007E960000189800001C9834
:102420000000289C0000289C0000F39C0000F79C02
:102430000000C29D0000C69D0000919E0000959E78
:102440000000FEA0000003A100006CA3000070A328
:1024500000000AA500000EA5000077A700007CA7D9
:102460000000E5A90000E9A900004FAB000054AB53
:10247000000083AB000087AB000021AD000026AD5B
:102480000000C0AE0000C4AE00005EB0000062B04C
:102490000000FCB1000000B2000075B8000079B87F
:1024A0000000E3BA0000E7BA000050BD000054BDD0
:1024B0000000EEBE0000F3BE00005CC1000060C181
:1024C0000000C9C30000CDC3000067C500006CC593
:1024D000000006C700000AC70000A4C80000A8C882
:1024E000000042CA000046CA0000E0CB0000E5CB75
:1024F000000059D200005ED20000F8D30000FCD3E7
:102500000000C7D40000CBD4000096D5000069D6E7
:10251000000034D7000038D7000003D8000008D8E6
:102520000000D2D80000D7D8000071DA000075DAB8
:1025300000000FDC000013DC0000ADDD0000B2DDA8
:1025400000004BDF000050DF0000EAE00000EEE09A
:102550000000B9E10000BDE1000088E200005BE39B
:10256000000026E400002BE40000F5E40000FAE49B
:1025700000003EEC000042EC0000DCED0000E0ED6D
:102580000000ABEE0000AFEE00007AEF00004EF06E
:10259000000018F100001DF10000E7F10000ECF16F
:1025A0000000B7F20000BBF2000055F4000059F43F
:1025B0000000F3F50000F7F5000091F7000096F732
:1025C000000030F9000034F90000CEFA0000D2FA21
:1025D00000009DFB0000A1FB00006CFC000040FD22
:1025E00000000AFE00000FFE0000DAFE0000DEFE22
:1025F0000000A9FF0000ADFF0000E5020100EA02B3
:1026000001001C04010020040100530501005705CE
:10261000010022060100320A0100FD0A0100010B3F
:102620000100CC0B0100D00B01009B0C01009F0CA2
:102630000100D70F0100AB100100761101007A11E3
:102640000100451201004912010014130100181382
:1026500001005016010024170100EF170100F317C5
:102660000100BE180100C21801008D190100911966
:1026700001005C1A0100601A01002B1B01002F1BD6
:102680000100FA1B0100FF1B0100C91C0100CE1C48
:102690000100991D01009D1D0100681E01006C1EB6
:1026A0000100371F01003B1F0100422301001624D7
:1026B0000100E1240100E5240100B0250100B4255A
:1026C00001007F26010083260100BC2901008F2A1A
:1026D00001005A2B01005E2B0100292C01002D2C3A
:1026E00001003530010008310100D3310100D7313C
:1026F0000100A2320100A63201004034010045343D
:1027000001000F35010014350100DF350100E3350C
:102710000100AE360100B23601007D37010081377D
:1027200001004C380100503801001B3901001F39ED
:102730000100273D0100FA3D0100C53E0100C93EF0
:102740000100943F0100983F010063400100684090
:102750000100A0430100734401003E4501004245D1
:1027600001000D46010011460100DC460100E14672
:102770000100194A0100EC4A0100B74B0100BB4BB4
:102780000100864C01008B4C0100554D01005A4D53
:102790000100244E0100294E0100F44E0100F84EC4
:1027A0000100C34F0100C74F010092500100965035
:1027B00001006151010065510100305201003452A5
:1027C0000100FF520100045301000B570100DE57C6
:1027D0000100A9580100AD580100785901007D5948
:1027E0000100475A01004C5A0100845D0100575E08
:1027F0000100225F0100275F0100F15F0100F65F29
:102800000100FD630100D06401009B650100A0652B
:1028100001006A6601006F660100096801000D6829
:102820000100D8680100DC680100A7690100AB69FC
:102830000100766A01007A6A0100456B0100496B6C
:102840000100146C0100196C0100E36C0100E86CDC
:102850000100EF700100C3710100267201002A72AD
:1028600001008D72010092720100F5720100F9728F
:1028700001005C73010061730100C4730100C8733F
:1028800001002C74010030740100067901000B79FD
:102890000100A57A0100A97A01007F7F0100847FF1
:1028A00001001E81010022810100BC820100C08262
:1028B00001008B8301008F830100298501002E8593
:1028C0000100F9850100FD850100C8860100CC8664
:1028D0000100978701009B87010035890100398934
:1028E0000100D38A0100D88A0100A28B0100A78BC6
:1028F0000100728C0100768C0100418D0100458D34
:102900000100108E0100148E01004C9101005191C4
:102910000100899401008D94010064990100689977
:102920000100339A0100379A0100029B0100069BC7
:102930000100A09C0100A59C01003E9E0100439E59
:102940000100DD9F0100E19F01007BA101007FA14B
:10295000010056A601005AA6010025A7010029A7DB
:102960000100F4A70100F8A70100CFAC0100D3AC2F
:1029700001009EAD0100A2AD01006DAE010071AE7F
:10298000010048B301004CB3010017B401001BB4AF
:102990000100E6B40100EAB4010084B6010089B682
:1029A000010054B7010058B70100F2B80100F6B8B1
:1029B0000100C1B90100C5B9010090BA010094BA83
:1029C00001005FBB010064BB0100FDBC010002BD52
:1029D00001009CBE0100A0BE01006BBF01006FBFE3
:1029E00001003AC001003EC0010009C101000DC153
:1029F0000100D8C10100DDC10100B3C60100B7C6A6
:102A0000010082C7010086C7010051C8010056C8F5
:102A100001002CCD010030CD010030CD0100FBCDF7
:102A20000100FBCD010000CE0100CACE0100CFCED7
:102A3000010069D001006DD0010038D101003CD106
:102A40000100D6D20100DAD20100A5D30100A9D33A
:102A5000010074D4010079D4010043D5010048D5A8
:102A60000100E2D6010090DC01005BDD01005FDDCA
:102A700001002ADE01002EDE0100F9DE0100FDDE8C
:102A80000100C8DF0100CCDF010097E001009CE0FD
:102A9000010066E101006BE1010036E2010009E39B
:102AA0000100D4E30100D8E30100A3E40100A7E49E
:102AB000010072E5010076E5010041E6010045E60E
:102AC000010010E7010015E70100DFE70100E4E77E
:102AD0000100AFE80100B3E801007EE9010082E9EE
:102AE00001004DEA010051EA01001CEB010020EB5E
:102AF0000100EBEB0100EFEB0100BAEC0100BFECD1
:102B0000010089ED01008EED010058EE01005DEE3F
:102B1000010028EF01002CEF0100F7EF0100FBEFAF
:102B20000100C6F00100CAF0010095F1010099F121
:102B30000100FDF1010001F2010064F2010068F200
:102B40000100CCF20100D0F2010033F3010038F3B0
:102B500001009BF301009FF3010002F4010007F460
:102B600001006AF401006EF40100D2F40100D6F411
:102B70000100A1F5010074F601003FF7010043F7E1
:102B800001000EF8010012F80100DDF80100E1F883
:102B90000100ACF90100B1F901007BFA010080FAF3
:102BA00001004BFB01004FFB01001AFC0100EDFC92
:102BB0000100B8FD0100BCFD010087FE01008BFE95
:102BC000010056FF01005BFF0100250002002A0002
:102BD0000200F4000200F9000200C8010200C8016E
:102BE00002009302020097020200620302006603E1
:102BF0000200310402003504020000050200040551
:102C00000200CF050200D40502009E060200A306C2
:102C100002006E070200720702003D080200410830
:102C200002000C09020010090200DF090200DF099E
:102C30000200AA0A0200AE0A02007E0B02007E0B0E
:102C40000200E10B0200E50B0200480C02004D0CF3
:102C50000200B00C0200B40C0200170D02001C0DA3
:102C600002007F0D0200830D0200E70D0200EB0D54
:102C70000200850F0200890F0200F2110200F71115
:102C800002006014020064140200FE150200021625
:102C900002006B18020070180200D91A0200DD1A37
:102CA0000200771C02007B1C0200151E02001A1E87
:102CB0000200B31F0200B81F020052210200562179
:102CC0000200F0220200F4220200692902006D29AC
:102CD0000200D62B0200DB2B0200442E0200482EFD
:102CE0000200E22F0200E62F0200503202005432AE
:102CF0000200BD340200C13402005B3602005F36C0
:102D00000200F9370200FE370200983902009C39B0
:102D10000200363B02003A3B0200D43C0200D93CA0
:102D200002004D43020000000B020B020B020B02DB
:102D30000B020B020B020B020B020B020B020B022B
:102D40000B020B020B020B020B020B020B020B021B
:102D50000B020B020B020B020B020B020B020B020B
:102D60000B020B020B020B020B020B020B020B02FB
:102D70000B020B020B020B020000BA0200000F0351
:102D800000000B020000BA0200000F0300000F0356
:102D900000003E030000BA0200000F0300006E02B4
:102DA0000000BA0200000B0200006E020000BA022E
:102DB0000000D20100006E020000BA0200009F0174
:102DC00000005D01000087010000370100005D0187
:102DD0000000DB0300003E03000093020000A40398
:102DE00000000F0300006E020000DB0300003E0342
:102DF000000093020000A40300000F0300006E0215
:102E0000000054040000DB0300003E0300009302B6
:102E10000000A40300000F0300006E020000DB03AB
:102E200000003E03000093020000A40300000F0313
:102E300000006E02000054040000DC040000DB030C
:102E400000003E03000054040000A40300000F0330
:102E50000000DC040000DB0300003E03000054041B
:102E60000000A40300000F030000930226050000E9
:102E70000000DC040000DB0300003E0300005404FB
:102E80000000A40300000F030000DC040000DB03CB
:102E900000003E0300002605000054040000D2019B
:102EA0000000ED0100002A0200006E0200003E0357
:102EB0000000A40300006E0200003E030000A40313
:102EC0000000A4030000DB0300003E030000A40395
:102ED0000000E30200003E0300006E020000E30277
:102EE00000003E0300002A020000E30200003E034F
:102EF0000000ED0100009F010000D20100007101FF
:102F000000009F010000D2010000ED0100002A0234
:102F100000006E0200003E030000A40300006E02E9
:102F200000003E030000A4030000A4030000DB0334
:102F3000000054040000DC040000C7050000DC04AD
:102F40000000DC0400003E030000DC040000DC04A0
:102F500000003E030000DC040000DB03000054041A
:102F60000000DC040000C70500007D060000ED0144
:102F70000000B8010000ED010000ED010000B80103
:102F80000000ED010000710100004B0200002A0268
:102F90000000ED010000ED010000B8010000ED01AE
:102FA0000000ED010000B8010000ED0100004B023F
:102FB00000002A0200004B0200004B0200002A021F
:102FC00000004B020000ED010000E302000093024C
:102FD00000004B0200004B0200002A0200004B02DE
:102FE00000004B0200002A0200004B020000D20148
:102FF0000000E3020000E3020000E3020000ED0134
:10300000000093020000E30200000F030000ED0146
:10301000000093020000E30200000F03000093028F
:103020000000E30200000F030000DB030000700358
:103030000000DB0300000F03000070030000930298
:103040000000E30200000F0300000F030000700304
:103050000000DB03000026050000DB030000C705BD
:1030600000001F06000026050000C70500001F061F
:10307000000026050000DB0300001F060000C70556
:1030800000009604000070030000DB030000ED0167
:10309000000093020000E30200000F030000ED01B6
:1030A000000093020000E30200000F0300009302FF
:1030B0000000E30200000F030000DB0300007003C8
:1030C0000000DB0300000F03000070030000930208
:1030D0000000E30200000F0300000F030000700374
:1030E0000000DB03000026050000DB030000C7052D
:1030F00000001F06000026050000C70500001F068F
:10310000000026050000DB0300001F060000C705C5
:1031100000009604000070030000DB03000087013C
:103120000000B8010000ED0100000B0200004B029E
:10313000000093020000BA0200006E020000BA0212
:1031400000006E020000BA0200006E020000BA0227
:1031500000006E020000BA0200006E0200003E0392
:1031600000000F030000BA0200006E0200000B0214
:1031700000006E020000BA020000160400000F03F7
:103180000000BA0200006E020000BA02000016043D
:103190000000A4030000DC04000074050000160415
:1031A0000000DC0400007405000016040000DC04CC
:1031B00000007405000016040000DC040000740523
:1031C0000000DC04000074050000DC04000074054D
:1031D0000000DC0400007D0600001F0600007405EE
:1031E0000000DC04000016040000DC04000074058C
:1031F000000016040000DC040000A40300003E03ED
:10320000BA02000000000F0300003E0300000F039D
:1032100000003E030000BA0200000F0300006E022F
:103220000000BA020000ED0100002A020000B8010F
:103230000000ED0100009F010000B80100007101D5
:103240000000ED0100002A020000B8010000ED01BD
:1032500000009F010000B801000071010000B801EA
:1032600000007101000015010000B80100009F017D
:10327000000049010000F6000000F6000000150102
:1032800000009F010000B801000049010000710129
:1032900000009F0100001501000071010000F60010
:1032A00000001501000049010000DC000000F600EC
:1032B00000001501000049010000F60000001501A2
:1032C000000049010000F6000000150100005D014A
:1032D00000009F010000150100005D0100009F013A
:1032E0000000150100002A020000B8010000710171
:1032F00000002A020000ED0100009F0100007101A2
:103300000000ED010000B80100007101000015018E
:1033100000009F010000B80100009F010000B801FB
:1033200000009F01000049010000F60000002A0291
:103330000000E30200003E0300002A020000E30256
:1033400000003E03000070030000DB030000540493
:103350000000260500005404000054040000E302AD
:1033600000005404000054040000E3020000540470
:103370000000E30200003E030000540400002605A4
:103380000000C705000000000000240027002A00FC
:1033900000000000250028002B00020100000000B2
:1033A0000023002600290004040404040404040289
:1033B00002020202020303030303030102040810D2
:1033C000204080010204081020010204081020009F
:1033D00000000800020100000304070000000000D4
:1033E000000000005D2211241FBECFEFD8E0DEBF39
:1033F000CDBF11E0A0E0B1E0E6EAF5E402C005903F
:103400000D92A633B107D9F722E0A6E3B1E001C0DF
:103410001D92A631B207E1F719E1C3EFD9E104C06B
:103420002197FE010E94CB22C23FD107C9F70E941B
:10343000DE1D0C94D1220C940000AF92BF92CF926B
:10344000DF92EF92FF920F931F93CF93DF936C0164
:103450007B018B01040F151FEB015E01AE18BF0845
:10346000C017D10759F06991D601ED91FC910190F7
:10347000F081E02DC6010995892B79F7C501DF910F
:10348000CF911F910F91FF90EF90DF90CF90BF9061
:10349000AF900895FC01538D448D252F30E0842F8B
:1034A00090E0821B930B541710F0CF96089501976C
:1034B0000895FC01918D828D981761F0A28DAE0F59
:1034C000BF2FB11D5D968C91928D9F5F9F73928FE0
:1034D00090E008958FEF9FEF0895FC01918D828D0C
:1034E000981731F0828DE80FF11D858D90E00895D9
:1034F0008FEF9FEF0895FC01918D228D892F90E031
:10350000805C9F4F821B91098F739927089589E7EB
:1035100091E00E947B1A21E0892B09F420E0822FA0
:10352000089580E090E0892B29F00E94871A81118C
:103530000C9400000895FC01A48DA80FB92FB11DB3
:10354000A35ABF4F2C91848D90E001968F739927D9
:10355000848FA689B7892C93A089B1898C918370B7
:1035600080648C93938D848D981306C00288F389B0
:10357000E02D80818F7D80830895EF92FF920F93DD
:103580001F93CF93DF93EC0181E0888F9B8D8C8D0F
:1035900098131AC0E889F989808185FF15C09FB703
:1035A000F894EE89FF896083E889F98980818370C6
:1035B000806480839FBF81E090E0DF91CF911F9175
:1035C0000F91FF90EF900895F62E0B8D10E00F5F96
:1035D0001F4F0F731127E02E8C8D8E110CC00FB66C
:1035E00007FCFACFE889F989808185FFF5CFCE0104
:1035F0000E949B1AF1CFEB8DEC0FFD2FF11DE35ACA
:10360000FF4FF0829FB7F8940B8FEA89FB89808186
:103610008062CFCFCF93DF93EC01888D8823B9F000
:10362000AA89BB89E889F9898C9185FD03C08081CD
:1036300086FD0DC00FB607FCF7CF8C9185FFF2CF4A
:10364000808185FFEDCFCE010E949B1AE9CFDF91EB
:10365000CF910895833081F028F4813099F0823041
:10366000A9F008958730A9F08830C9F08430B1F40A
:10367000809180008F7D03C0809180008F77809340
:103680008000089584B58F7784BD089584B58F7DBB
:10369000FBCF8091B0008F778093B0000895809128
:1036A000B0008F7DF9CFCF93DF93EFECF3E38491FC
:1036B000EBEBF3E3D491E7EAF3E3C491CC23A1F07D
:1036C00081110E942A1BEC2FF0E0EE0FFF1FE35642
:1036D000FC4CA591B491EC91ED2381E090E009F4CC
:1036E00080E0DF91CF91089580E090E0FACF1F93C2
:1036F000CF93DF93282F30E0F901E153FC4C849104
:10370000F901E554FC4CD491F901E955FC4CC49104
:10371000CC23A9F0162F81110E942A1BEC2FF0E078
:10372000EE0FFF1FE057FC4CA591B4918FB7F894B2
:10373000EC91111108C0D095DE23DC938FBFDF918F
:10374000CF911F910895DE2BF8CFCF93DF9390E0B8
:10375000FC01E554FC4C249189559C4CFC0184915E
:103760008823D1F090E0880F991FFC01EA57FC4CA8
:10377000A591B491FC01E057FC4CC591D491623005
:1037800071F49FB7F8943C91822F809583238C939A
:10379000E8812E2B28839FBFDF91CF9108958FB7AB
:1037A000F894EC912E2B2C938FBFF6CF3FB7F89463
:1037B0008091370190913801A0913901B0913A017F
:1037C00026B5A89B05C02F3F19F00196A11DB11D7C
:1037D0003FBFBA2FA92F982F8827BC01CD01620FB8
:1037E000711D811D911D42E0660F771F881F991F73
:1037F0004A95D1F708950C94D61BFC019181913024
:1038000069F0923089F0911105C090916E009D7F12
:1038100090936E0060E080810C94771B90916F0014
:103820009D7F90936F00F6CF909170009D7F909355
:103830007000F0CFCF93DF93FC0101900020E9F7F7
:103840003197AF01481B590BBC0189E791E00E94F9
:103850001D1AEC0142E050E062E271E089E791E07C
:103860000E941D1A8C0F9D1FDF91CF9108951F920A
:103870000F920FB60F9211242F933F934F935F93A4
:103880006F937F938F939F93AF93BF93EF93FF9328
:1038900089E791E00E949B1AFF91EF91BF91AF9150
:1038A0009F918F917F916F915F914F913F912F9158
:1038B0000F900FBE0F901F9018951F920F920FB68A
:1038C0000F9211242F938F939F93EF93FF93E09187
:1038D0008901F0918A018081E0918F01F09190013E
:1038E00082FD1BC09081809192018F5F8F73209128
:1038F0009301821741F0E0919201F0E0E758FE4F0A
:10390000958F80939201FF91EF919F918F912F91CD
:103910000F900FBE0F901F9018958081F4CF1F92CB
:103920000F920FB60F9211242F933F938F939F9373
:10393000AF93BF938091450190914601A0914701BB
:10394000B09148013091360123E0230F2D3758F50F
:103950000196A11DB11D20933601809345019093DE
:103960004601A0934701B09348018091370190919F
:103970003801A0913901B0913A010196A11DB11D04
:103980008093370190933801A0933901B0933A01A5
:10399000BF91AF919F918F913F912F910F900FBE4B
:1039A0000F901F90189526E8230F0296A11DB11DB8
:1039B000D2CF1F920F920FB60F9211242F933F93E5
:1039C0008F939F93AF93BF93EF93FF9380914901A0
:1039D00090914A01A0914B01B0914C010097A10533
:1039E000B10531F130913B01E0913C01F0913D0195
:1039F000208123272083181619061A061B061CF49B
:103A00000197A109B1098093490190934A01A093BC
:103A10004B01B0934C01FF91EF91BF91AF919F91FA
:103A20008F913F912F910F900FBE0F901F9018957F
:103A3000209170002D7F2093700020913B01E09138
:103A40003C01F0913D013081209523232083DBCF81
:103A50001F920F920FB60F9211248F939F93AF93E3
:103A6000BF93EF93FF9380914D0190914E01A091F0
:103A70004F01B0915001892B8A2B8B2BA1F1909192
:103A80003E01E0913F01F0914001808189278083D0
:103A900080914D0190914E01A0914F01B091500144
:103AA000181619061A061B069CF480914D01909178
:103AB0004E01A0914F01B09150010197A109B109A8
:103AC00080934D0190934E01A0934F01B09350010C
:103AD000FF91EF91BF91AF919F918F910F900FBE8A
:103AE0000F901F90189580916F008D7F80936F00CD
:103AF00080913E01E0913F01F091400190818095DD
:103B000089238083E5CF1F920F920FB60F92112465
:103B10008F939F93AF93BF93EF93FF938091510146
:103B200090915201A0915301B0915401892B8A2B9D
:103B30008B2BA1F190914101E0914201F091430161
:103B40008081892780838091510190915201A091B9
:103B50005301B0915401181619061A061B069CF45D
:103B60008091510190915201A0915301B091540163
:103B70000197A109B1098093510190935201A0933B
:103B80005301B0935401FF91EF91BF91AF919F9179
:103B90008F910F900FBE0F901F90189580916E001F
:103BA0008D7F80936E0080914101E0914201F09100
:103BB00043019081809589238083E5CFCF93DF9364
:103BC000CDB7DEB72A970FB6F894DEBF0FBECDBFD4
:103BD000789484B5826084BD84B5816084BD85B5E8
:103BE000826085BD85B5816085BD80916E008160F4
:103BF00080936E001092810080918100826080939A
:103C0000810080918100816080938100809180009B
:103C10008160809380008091B10084608093B100C6
:103C20008091B00081608093B00080917A008460C0
:103C300080937A0080917A00826080937A008091EC
:103C40007A00816080937A0080917A008068809306
:103C50007A001092C100E0918901F0918A0182E01E
:103C60008083E0918501F09186011082E0918701C7
:103C7000F09188018FEC808310929101E0918D0189
:103C8000F0918E0186E08083E0918B01F0918C01B0
:103C9000808180618083E0918B01F0918C01808133
:103CA00088608083E0918B01F0918C018081806835
:103CB0008083E0918B01F0918C0180818F7D8083E6
:103CC00062E080E00E94A51B61E08DE00E94A51BE0
:103CD00061E089E00E94A51B61E08AE00E94A51BCB
:103CE000A5E5B1E005E711E069E671E04DE651E0D8
:103CF00029E531E082E1282E81E0382EFF24FA9474
:103D0000F10186819781F90191838083FA011192F3
:103D1000119211921192AF01FB0111921192BF0108
:103D2000F801119211928F01F1019081809144016B
:103D3000833008F01FC19C93E82FF0E0E656FC4C5E
:103D4000E4911196EC9311978F5F80934401E130D9
:103D500009F4C4C008F4A2C0E23009F4E5C0F901D6
:103D600080819181FC01E150F04CCF01880F991FB7
:103D7000880F991FF101C480D580F601E80FF91F63
:103D8000459055906590749080905D0190905E0193
:103D9000A0905F01B090600184149504A604B7045C
:103DA00010F45301420180925D0190925E01A09255
:103DB0005F01B0926001F8E02F0E311C2E5F3F4F83
:103DC000129682E2281681E0380609F099CF0E9407
:103DD000FB1B60E08DE00E94771B00E010E00E947A
:103DE000531B9C838B83019711F00B831C830E94D0
:103DF000531B9A838983892B09F0C0C0AB81BC8196
:103E0000119709F0BBC061E08DE00E94771B85E24D
:103E100091E00E941A1C69E671E00DE6C02E01E0F7
:103E2000D02E45E751E0A2E1B1E01496ED90FC9070
:103E30001597FA0180819181FC01EE0FFF1FEE0FB3
:103E4000FF1FEE0DFF1D0591159125913491F6018F
:103E50000083118322833383FA0120813181890118
:103E60000F5F1F4FC801880F991F880F991F8E0D74
:103E70009F1DFC0185909590A590B490F60140801F
:103E8000518062807380481459046A047B0409F0ED
:103E900078C0FA0111830083FC01D5CF14BC15BC96
:103EA00084B5826084BD85B5816085BD8C9190E0CC
:103EB000FC01E955FC4CE491F0E0EE0FFF1FE057E8
:103EC000FC4CC590D490D0924301C0924201FC01B9
:103ED000E554FC4CE491E093410141CF1092800005
:103EE0001092810080918100886080938100809190
:103EF00081008160809381008C9190E0FC01E95504
:103F0000FC4CE491F0E0EE0FFF1FE057FC4CC59035
:103F1000D490D0924001C0923F01FC01E554FC4C8A
:103F2000E491E0933E011BCF1092B0001092B100DB
:103F30008091B00082608093B0008091B100816078
:103F40008093B1008C9190E0FC01E955FC4CE49128
:103F5000F0E0EE0FFF1FE057FC4CC590D490D092DC
:103F60003D01C0923C01FC01E554FC4CE491E0931E
:103F70003B01F5CE1196FC921197F1CE0B811C817D
:103F80002ECF90E080E01216130664F421503048E2
:103F9000220F331F1296ED91FC911397E20FF31F3E
:103FA00085919491FB0181939193BF0118964E5F87
:103FB0005F4FF4E0CF0ED11C81E0A232B80709F0C8
:103FC00034CF2FB7F8948091450190914601A0918C
:103FD0004701B09148012FBF80936501909366011E
:103FE000A0936701B09368011E821D824091610118
:103FF00050916201609163017091640180915D0153
:1040000090915E01A0915F01B091600184179507C6
:10401000A607B70708F42AC2AD81BE81119709F43B
:1040200025C22FB7F8948091450190914601A09147
:104030004701B09148012FBF409165015091660141
:104040006091670170916801841B950BA60BB70BFB
:104050008093610190936201A0936301B093640126
:10406000E5E5F1E0FA87E9877DE6272E71E0372E56
:1040700089E591E09C838B83E5E7CE2EE1E0DE2E9F
:10408000F12CE12CAB81BC818D919D91BC83AB83E4
:10409000F60120813181281739070CF0E2C10E9416
:1040A000531B019721F481E090E09A8389830E9459
:1040B000531B892B61F4A981BA81119741F480E3E4
:1040C00091E00E941A1CE1E0F0E0FE83ED83C7015D
:1040D00087599E4F98878F83DC018D909C90181490
:1040E00019040CF0B9C1E985FA85818187FD02C107
:1040F00061E080810E94A51BA985BA8511961C915B
:10410000092C000CAA08BB08812F8D7F09F052C131
:1041100060E072E18AE790E0A50194010E948A22A2
:1041200029013A01DA01C9010197A109B1098F3FBB
:104130009105A105B10509F00CF4B8C060E472E482
:104140008FE090E0A50194010E948A22215031095C
:1041500041095109123009F06AC082E02F3F310550
:104160004105510509F00CF45BC060E970ED83E096
:1041700090E0A50194010E948A2221503109410951
:10418000510983E02F3F31054105510509F00CF439
:1041900047C068E478EE81E090E0A50194010E94B8
:1041A0008A22215031094109510984E02F3F31050C
:1041B00041055105A9F1A4F164E274EF80E090E0BB
:1041C000A50194010E948A22215031094109510917
:1041D00085E02F3F31054105510511F108F162E1FC
:1041E0007AE780E090E0A50194010E948A222150A4
:1041F00031094109510986E02F3F3105410551053B
:1042000079F070F09AE075946794579447949A9572
:10421000D1F7A3019201215031094109510987E0E9
:104220009091B100987F892B8093B10047C02F3FB8
:1042300031054105510509F00CF4BAC068E478EE87
:1042400081E090E0A50194010E948A222150310969
:104250004109510984E01111BCCF83E02F3F3105A2
:104260004105510539F134F162E17AE780E090E0EF
:10427000A50194010E948A22215031094109510966
:1042800084E02F3F310541055105A1F098F08AE007
:1042900075946794579447948A95D1F7A301920136
:1042A000215031094109510985E004C09C0181E098
:1042B0001111B6CF95B5987F892B85BDE985FA8513
:1042C0008181813009F4A0C0823009F4B2C081112B
:1042D00011C027BD8FEF9FEFDC01809351019093B8
:1042E0005201A0935301B093540180916E008260FB
:1042F00080936E00D1014D915D916D917C91809183
:10430000610190916201A0916301B09164018417F1
:104310009507A607B70708F437C0F6012081318159
:10432000C901019691838083EB81FC8132974081A2
:1043300051818417950744F5D701AA0FBB1FAA0F17
:10434000BB1FAE5EBE4F220F331F1296ED91FC9144
:104350001397E20FF31F45915491EF81F885518334
:104360004083880F991F880F991F1496ED91FC9137
:10437000E80FF91F4591559165917491D1014D93C5
:104380005D936D937C931397B2E0CB0ED11CE4E068
:104390002E0E311C89859A8502969A87898792E02C
:1043A000E90EF11CA4E0EA16F10409F41FCE6ACE6E
:1043B00082E07ECF60E072E18AE790E0A50194019F
:1043C0000E948A22215031094109510991E02115A9
:1043D0003105B1E04B0751056CF068E478EE81E0FF
:1043E00090E0A50194010E948A22215031094109DF
:1043F000510993E0113009F061CF80918100887FED
:10440000892B809381005ACF3093890020938800B4
:104410008FEF9FEFDC0180934D0190934E01A093AD
:104420004F01B093500180916F00826080936F00C4
:1044300061CF2093B3008FEF9FEFDC0180934901A0
:1044400090934A01A0934B01B0934C01809170006E
:104450008260809370004ECF89859A850E94FD1BF3
:1044600049CF89859A850E94FD1B8ECF10926101EC
:104470001092620110926301109264011092760111
:104480001092750185E591E00E94FD1B1092780164
:104490001092770187E591E00E94FD1B0E94FB1BB3
:1044A00080E090E0892B09F494CC0E94871A88233D
:1044B00009F48FCC0E9400008CCCE9E7F1E0138274
:1044C000128288EE93E0A0E0B0E084839583A68317
:1044D000B78384E091E09183808385EC90E09587B9
:1044E000848784EC90E09787868780EC90E0918BBE
:1044F000808B81EC90E0938B828B82EC90E0958BAB
:10450000848B86EC90E0978B868B118E128E138EA7
:10451000148E0895052E97FB1EF400940E94A1228C
:1045200057FD07D00E94A92207FC03D04EF40C943B
:10453000A12250954095309521953F4F4F4F5F4FA9
:10454000089590958095709561957F4F8F4F9F4FFF
:104550000895A1E21A2EAA1BBB1BFD010DC0AA1FC4
:10456000BB1FEE1FFF1FA217B307E407F50720F0DC
:10457000A21BB30BE40BF50B661F771F881F991F57
:104580001A9469F760957095809590959B01AC01A0
:10459000BD01CF010895EE0FFF1F0590F491E02DAE
:0645A0000994F894FFCF1E
:1045A60000000000BD1A1D1A4A1A0A1B7B1A591A66
:1045B6006D1A0C00262D662030030900BC15680014
:1045C60055050D0A00506C6179696E672E2E2E0016
:0645D600736B6970000028
:00000001FF
