:100000000C946B1A0C94931A0C94931A0C94931AE4
:100010000C94931A0C94931A0C94931A0C94511DEB
:100020000C94931A0C94931A0C94931A0C94A01D8C
:100030000C94931A0C94931A0C94FB1D0C94931A21
:100040000C94071D0C94931A0C94D51C0C94AF1CA3
:100050000C94931A0C94931A0C94931A0C94931A6C
:100060000C94931A0C94931A00000000370E0000B1
:10007000620F00006B0F0000D3110000D3110000CD
:10008000FB12000004130000D3130000D313000080
:1000900037140000371400003C1400003C1400002A
:1000A0006D1500006D150000A0160000A2160000DE
:1000B0006B1B0000701B0000CC1D0000DC1D00004D
:1000C0005D1F00003F200000052200000A22000002
:1000D000D1230000D723000070240000702400000A
:1000E0000B2500000B250000A3250000A325000020
:1000F00042260000422600000928000011280000C6
:100100008F290000D9290000A12B0000A92B000095
:10011000CC2C0000DB2C0000742D0000742D00009E
:100120000F2E00000F2E0000DF2F0000DF2F000039
:10013000B4300000C3300000A8310000A831000036
:100140003B32000043320000DC320000DC320000B1
:10015000773300007733000057340000603400002C
:100160004335000043350000D3350000E235000080
:10017000E4350000E43500007236000079360000F6
:1001800008370000193700009F370000BA39000017
:10019000CF390000CF3900009A3E0000AD4000008A
:1001A0004E45000082450000E7450000E74500009D
:1001B0004E4600004E460000B6460000B64600001F
:1001C0001D4700001D4700008047000080470000D9
:1001D000E8470000E84700004F4800004F48000093
:1001E000B6480000B6480000084900001D4900005C
:1001F0008149000081490000EB490000EB49000003
:100200005F4A0000854B0000945000009E500000A3
:10021000DB500000E65000002B5100003A51000076
:100220007B51000080510000CA510000D1510000F4
:10023000115200001A520000615200006E5200007C
:1002400001530000055300004753000054530000C1
:10025000975300009C5300001D54000000008200D2
:100260000000820000004100000041000000610029
:1002700000008200000041000000740000006700E0
:1002800000006700000067000000610000006100DE
:1002900000006100000057000000610000004900FC
:1002A00000006100000061000000610000006100CA
:1002B0000000610000004900000061000000A4008F
:1002C0000000A40000004D0000009B0000004D0055
:1002D000000092000000920000008A0000008A00E6
:1002E00000004500000045000000820000004900B9
:1002F00000007B0000009B000000C30000002501FF
:100300000000B80100009B000000E90000005D0152
:10031000000092000000DC000000490100007400B1
:100320000000AE00000005010000920000009200F5
:100330000000920000009200000092000000920075
:100340000000920000009200000092000000920065
:1003500000009200000000000000340E0000680E53
:1003600000006A0F00006A0F000004100000041073
:1003700000009D1000009D100000D2110000D2115D
:100380000000091200001F120000FB1200006C1395
:100390000000D2130000D21300003A1400003A14F7
:1003A00000003A1400005E140000E41400006D1513
:1003B00000006D1500009F150000C1150000D51547
:1003C0000000D51500002F1600003B1600003B165C
:1003D00000009E160000A0160000A2160000A21643
:1003E00000001C170000BF170000711800007118F2
:1003F0000000BA180000BA1800000619000006191B
:10040000000020190000951900003C1A00003C1A59
:1004100000006D1A0000AD1A0000701B0000701B78
:100420000000A41B00000B1C0000A51C0000A51C64
:100430000000C91C0000371D00004B1D0000D31D2B
:100440000000D61D0000631E0000411F0000451F74
:1004500000003F20000079210000052200000A2250
:10046000000031220000D1230000D62300000B251C
:1004700000000B250000372700000D2800000D2884
:1004800000002B280000CB290000DA290000472BB0
:100490000000A12B0000A62B0000BB2B0000CC2CE1
:1004A0000000D82C00009F2D00001D2E00002B2ED8
:1004B0000000A82E0000A82E0000B72E0000D32FA9
:1004C0000000DD2F00000F310000AA310000AA312A
:1004D0000000BF31000045320000453200004E32BE
:1004E0000000DE320000DE32000079330000793394
:1004F00000008B330000FD3300004335000043351E
:10050000000053350000BF350000E2350000E23541
:10051000000079360000793600000C3700001137F2
:10052000000012370000E0370000E03700003E38DE
:100530000000463800007F380000AB380000033967
:100540000000153900006F3900007A3900007C394D
:1005500000007C390000ED3900001E3A0000483AE6
:100560000000483A0000923A0000AE3A0000063B14
:100570000000163B0000703B00007D3B0000D03BBC
:100580000000E23B0000D13C0000133D0000133DA1
:100590000000D53D0000E23D0000423E0000483E24
:1005A00000000B3F0000153F0000793F00007F3F37
:1005B0000000BF3F0000DC3F0000414000004C4015
:1005C0000000AF400000BE400000EA40000059417A
:1005D00000007E4100007E410000E3410000E34155
:1005E0000000AD420000B3420000B6420000B64237
:1005F00000001E4300001E430000E9430000E943E1
:1006000000004D4400004D4400004F45000050459F
:10061000000080450000E6450000E64500004D462C
:1006200000004D460000B5460000B54600001D47DD
:1006300000001D4700008047000080470000EB4796
:100640000000EB4700004F4800004F480000B6484C
:100650000000B6480000104900001C490000814914
:10066000000081490000E9490000E94900001D4AF5
:1006700000008A4A0000804B0000804B00009F4B26
:100680000000494C0000534C0000114D00001F4D6C
:100690000000E24D0000EA4D0000AB4E0000B84EF5
:1006A00000007C4F0000834F0000945000009E50DB
:1006B00000002B51000037510000CA510000D051FA
:1006C0000000615200006C520000F7520000055318
:1006D000000051530000975300009C530000205429
:1006E0000000A4C50100A7C50100A7C50100A8C559
:1006F0000100A8C50100AAC50100AAC50100B0C536
:100700000100B0C50100B0C5010025C6010025C625
:1007100001003AC601003DC601003DC601003DC6CC
:1007200001003EC601003EC601003FC601003FC6B3
:10073000010041C601009AC601001BC701002CC779
:1007400001004FC70100FEC70100FFC70100FFC73E
:100750000100FFC7010004C8010004C8010004C86B
:10076000010008C8010008C8010099C8010099C823
:100770000100A3C8010029C9010029C901002BC932
:1007800001002BC901002CC901002CC9010075C949
:10079000010075C90100C0C90100C0C90100C2C97A
:1007A0000100C2C90100C2C901000BCA01000FCA81
:1007B00001000FCA010056CA010056CA010079CAD9
:1007C0000100A2CA0100A2CA0100D6CA0100D7CA0C
:1007D0000100DCCA0100E5CA0100EBCA0100EBCA56
:1007E0000100ECCA0100ECCA0100ECCA0100ECCA2D
:1007F0000100EDCA0100EDCA010041CB01009ACB16
:100800000100C3CB0100C3CB0100C3CB0100CDCBA2
:100810000100CECB0100CECB0100CECB0100D0CB6E
:100820000100D0CB0100D0CB0100D0CB0100FCCB2C
:10083000010006CC01000CCC010031CC0100AECC93
:100840000100AECC0100AECC0100AECC0100B0CCBA
:100850000100B0CC0100B0CC010017CD01006ACE80
:1008600001006ACE010072CE010074CE010074CE88
:100870000100BBCE010029CF01008DCF01009BCF2D
:1008800001009BCF01009BCF01009BCF01009CCFBB
:1008900001009CCF0100A6CF0100A8CF0100AFCF7F
:1008A000010023D0010030D0010030D0010073D00E
:1008B0000100C7D00100C7D00100C8D00100C8D0D6
:1008C0000100C9D00100C9D0010002D1010002D14C
:1008D000010013D1010056D101005AD101005AD1B3
:1008E00001005CD101005CD101005ED101005ED14C
:1008F000010097D10100F2D10100F3D10100F3D141
:100900000100F3D10100F5D10100F5D101002ED293
:10091000010031D201008AD201008AD201008CD2BA
:1009200001008CD2010092D2010092D20100BCD20F
:100930000100C1D201001FD301001FD3010020D349
:10094000010020D3010021D3010021D3010052D3A3
:1009500001005CD30100B1D30100B2D30100B2D3D6
:100960000100B2D30100B5D30100B5D30100B6D365
:100970000100B6D30100EBD30100EED3010049D44E
:1009800001004CD401004CD401004DD401004DD4E1
:1009900001004DD401004DD401007ED40100BFD42C
:1009A0000100DDD40100E0D40100E1D40100E1D474
:1009B0000100E3D40100E3D40100E3D4010014D525
:1009C000010037D5010077D5010078D5010078D531
:1009D000010078D5010078D50100B2D50100B6D567
:1009E0000100E1D501000DD601000ED601000ED6A2
:1009F00001000ED601000FD601000FD6010040D62F
:100A0000010063D60100A3D60100A4D60100A4D63C
:100A10000100A4D60100A5D60100A5D60100A6D6E6
:100A20000100A6D60100D7D601000DD7010038D7A6
:100A3000010038D701003AD701003AD701003BD76F
:100A400001003BD7010099D70100CFD70100D1D7D2
:100A50000100D1D70100D3D70100D3D70100D7D7E8
:100A60000100D7D7010057D8010061D8010064D830
:100A7000010065D8010065D801006AD801006AD874
:100A800001006DD801006DD80100FBD80100FBD832
:100A90000100FCD80100FCD80100FCD8010037D9C6
:100AA000010064D9010092D9010092D9010094D9C2
:100AB000010094D9010097D9010097D90100C7D945
:100AC000010029DA01002ADA01002ADA01002FDA0E
:100AD00001002FDA010032DA010032DA010055DAC2
:100AE0000100AFDA0100B9DA0100BCDA0100BCDABA
:100AF0000100BFDA0100BFDA0100C1DA0100C1DA8A
:100B000001001CDB010053DB010053DB010054DB5F
:100B1000010054DB010054DB010087DB01008CDBAA
:100B2000010092DB0100EBDB0100EBDB0100F2DBFB
:100B30000100F2DB0100F2DB010018DC01001EDC29
:100B4000010021DC010080DC010080DC010081DC8F
:100B5000010081DC0100BCDC0100BDDC010012DD14
:100B6000010016DD010016DD010017DD010017DDB3
:100B700001001CDD01001CDD010050DD0100A7DDCE
:100B80000100ABDD0100ABDD0100ABDD0100ABDD41
:100B90000100AEDD0100AEDD0100E5DD0100ECDDB0
:100BA0000100F8DD01003EDE010040DE010040DE14
:100BB000010041DE010041DE010042DE010042DEB3
:100BC00001007CDE0100D8DE0100D8DE0100D8DEA5
:100BD0000100DBDE0100DBDE01000BDF010011DFC5
:100BE000010014DF01006BDF01006DDF01006DDF2C
:100BF00001006EDF01006EDF01006EDF0100A8DF83
:100C00000100AADF010002E0010002E0010004E0AF
:100C1000010004E0010004E0010004E0010008E03C
:100C2000010008E0010058E0010095E001009FE0AC
:100C3000010021E101002BE101002FE101002FE182
:100C4000010030E1010030E1010079E1010079E1CA
:100C500001007CE101007CE10100B7E10100C4E199
:100C60000100C4E10100C6E10100C6E10100C6E1E6
:100C700001000EE201000EE201005CE201005CE214
:100C800001005CE201005DE201005DE201005DE265
:100C900001005DE2010062E201006FE2010001E398
:100CA000010079E3010083E3010083E3010086E3AF
:100CB000010086E3010086E3010086E3010087E38B
:100CC000010087E3010089E3010089E301008DE36E
:100CD0000100ECE30100ECE3010040E4010050E41A
:100CE000010050E4010050E40100AFE40100B3E46E
:100CF0000100B3E40100B3E40100B4E40100B4E492
:100D00000100B4E40100B4E40100B4E40100BFE474
:100D1000010027E50100D1E50100D1E50100DAE598
:100D20000100E0E50100E0E50100E1E50100E1E5A9
:100D30000100E5E50100E5E5010043E6010043E6C9
:100D40000100A7E60100A7E60100A8E60100A8E669
:100D50000100FFE6010006E7010007E7010007E7E1
:100D6000010007E701000BE701000CE701000CE7B9
:100D700001000CE701000CE701000EE701000EE79F
:100D8000010013E7010013E70100BBE7010033E8AE
:100D9000010033E8010038E8010038E8010039E8D3
:100DA000010039E801003CE801003CE801009BE853
:100DB00001009BE80100F1E8010000E9010000E901
:100DC000010000E901005FE9010063E9010063E956
:100DD000010063E9010065E9010065E9010065E9D9
:100DE000010065E9010067E9010067E901006AE9BE
:100DF00001006AE901007DE90100FEE901008BEADA
:100E000001008BEA010091EA010091EA010093EAF6
:100E1000010093EA010094EA010094EA010098EAD3
:100E2000010098EA010099EA010099EA0100B8EB93
:100E30000100BDEB0100BDEB0100BDEB0100BEEB0D
:100E40000100BEEB0100C0EB0100C0EB0100C1EBF3
:100E50000100C1EB01005AEC01005AEC010089ECE1
:100E60000100EAEC0100EAEC0100EAEC0100EEEC22
:100E70000100EEEC01004DED01004DED010051EDE2
:100E8000010051ED0100AAED0100B1ED0100B1ED4D
:100E90000100B1ED010003EE010009EE01000CEECE
:100EA00001000FEE010014EE010016EE010016EE37
:100EB000010019EE010019EE01001AEE01001AEE10
:100EC00001007DEE0100B1EE0100B1EE01003FEF47
:100ED00001003FEF010041EF010041EF010045EF4C
:100EE000010045EF0100A5EF0100A5EF0100AAEF09
:100EF0000100AAEF010009F0010009F001000CF067
:100F000001000CF0010060F0010062F001006CF0E3
:100F100001006DF001006DF001006FF001006FF055
:100F2000010070F0010070F0010071F0010071F03B
:100F3000010074F0010074F00100C1F00100D0F074
:100F40000100D0F00100D0F00100D4F00100D4F095
:100F5000010035F1010035F1010036F1010036F1F3
:100F6000010039F1010039F1010099F1010099F115
:100F700001009CF101009CF101009EF101009EF135
:100F80000100A2F10100A2F10100FCF10100FCF15D
:100F90000100FDF10100FDF10100FDF101005BF236
:100FA000010060F2010063F2010063F2010068F2E7
:100FB000010068F20100BFF20100C4F20100C7F2B3
:100FC0000100C7F20100C7F20100CBF20100CBF231
:100FD0000100CEF20100CEF2010066F3010066F3DB
:100FE0000100F4F30100F4F3010057F4010057F499
:100FF0000100B3F40100B4F40100BAF40100BBF441
:101000000100C7F40100DAF40100F9F4010048F628
:10101000010048F6010049F6010049F6010049F6D1
:10102000010049F6010049F601004CF601004CF6BA
:10103000010061F601006EF7010075F7010075F718
:10104000010005F8010009F8010009F801000BF89A
:1010500001000BF801000BF801000BF801002FF85C
:1010600001002FF801009BF801009BF801009BF89C
:101070000100A3F80100A6F80100A6F80100A7F8F6
:101080000100A7F80100AAF80100AAF8010031F94F
:10109000010031F9010036F9010039F9010039F98F
:1010A00001003AF901003AF901003EF901003EF968
:1010B0000100CCF90100CEF90100CEF90100D0F910
:1010C0000100D0F90100D1F90100D1F90100D2F9F4
:1010D0000100D2F90100D4F90100D4F90100D4F9DA
:1010E0000100D6F9010017FA010039FA010039FAB6
:1010F000010039FA01003EFA010063FA010067FAC3
:10110000010098FA010098FA0100F3FA0100F9FAD7
:101110000100FBFA0100FBFA010056FB010063FB32
:10112000010063FB010090FB010090FB0100C0FB8C
:101130000100C0FB010023FC010023FC010024FC92
:10114000010024FC010024FC010025FC010025FC19
:1011500001002CFC01002CFC010074FC010074FC5B
:101160000100B9FC0100B9FC010005FD010005FD0D
:10117000010051FD010051FD010059FD010059FD23
:101180000100A0FD0100A0FD0100E7FD0100E7FD59
:101190000100E7FD01007BFE01007BFE01007CFEFB
:1011A00001007CFE01007CFE01007CFE01007EFE51
:1011B00001007EFE010080FE010080FE010083FE32
:1011C000010084FE010084FE010086FE010086FE0F
:1011D00001000DFF010098FF0100A7FF0100A7FF1C
:1011E0000100A8FF0100A8FF0100A9FF0100A9FF5D
:1011F0000100AEFF0100AEFF0100F6FF0100F6FFA7
:1012000001003E0002003E000200400002004000DB
:1012100002008C0002008C000200D3000200D30008
:101220000200D5000200D5000200D50002001C011A
:1012300002001C0102006C0102006C0102006C0142
:101240000200B6010200B601020000020200000224
:10125000020007020200070202000902020009025E
:1012600002001602020016020200280202002802F2
:101270000200910202009F0202009F0202002C0362
:1012800002002D0302002D0302002E0302002E0394
:101290000200310302003103020031030200350372
:1012A000020095030200C5030200C5030200C90342
:1012B0000200C9030200CA030200CA0302005B0461
:1012C00002005B0402006004020060040200620489
:1012D000020062040200EF040200EF040200F104C5
:1012E0000200F1040200F104020080050200800502
:1012F000020088050200890502008A0502008A05AD
:1013000002008E0502008E05020096050200960579
:10131000020018060200180602001B0602001B0647
:1013200002001F060200AF060200AF060200B6066A
:101330000200B6060200B7060200B7060200420726
:101340000200420702004E0702004E070200D307C8
:101350000200DC070200DD070200DD070200DD07F6
:101360000200DF070200DF070200E8070200E807CB
:101370000200E9070200E90702002A0802002A0821
:1013800002003B080200740802007408020076089C
:1013900002007608020076080200B3080200C108C5
:1013A00002000D0902000D0902000E0902000E09DB
:1013B0000200490902005709020057090200A30967
:1013C0000200A3090200A4090200A4090200A8095E
:1013D0000200A8090200EB090200EB090200330A2F
:1013E0000200330A0200360A0200380A0200380AF4
:1013F0000200400A0200400A02006B0A0200810A51
:101400000200810A0200CB0A0200CB0A0200CD0AC8
:101410000200CD0A0200CF0A0200CF0A02000B0B25
:101420000200180B0200620B0200620B0200640B48
:101430000200640B02006D0B02006D0B0200AB0B8F
:101440000200AB0B0200FA0B0200FA0B0200FD0BCC
:101450000200FD0B0200000C0200000C0200410C17
:101460000200410C02008B0C02008E0C02008E0C5C
:1014700002008F0C02008F0C0200960C0200960CEA
:101480000200DB0C0200DB0C0200080D0200210D43
:101490000200210D0200250D0200250D02006F0D36
:1014A00002006F0D0200B90D0200B90D0200BC0D63
:1014B0000200BC0D0200050E0200050E02004F0ED8
:1014C00002004F0E02004F0E0200980E0200980E0E
:1014D0000200E50E0200E50E0200E50E0200E60E37
:1014E0000200E60E0200330F0200330F0200770FF6
:1014F0000200770F0200790F0200790F0200C40F7B
:101500000200C40F0200101002001010020013109D
:101510000200131002005D1002005D100200A61010
:101520000200A6100200AD100200AD100200B410BF
:101530000200E7100200F41002003411020034111E
:10154000020038110200391102004011020040115E
:1015500002004F1102004F1102008B1102008B118B
:101560000200D3110200D3110200D9110200D911D7
:101570000200E11102001E1202001E120200661299
:101580000200661202006712020067120200B71220
:101590000200B7120200FE120200FE120200FE124A
:1015A00002004A1302004A1302008F130200921332
:1015B0000200931302009513020095130200981382
:1015C000020098130200991302009D1302009D135C
:1015D0000200D5130200E0130200E01302002B14F6
:1015E00002002B1402002F1402002F1402007714A3
:1015F000020077140200C0140200C0140200C114DB
:101600000200C11402000915020009150200571555
:10161000020057150200581502005815020059150E
:10162000020059150200A0150200A0150200DF15E6
:101630000200EC150200EC150200EE150200EE159A
:101640000200EF150200EF150200F0150200F01580
:101650000200411602004B160200511602005116FC
:101660000200B4160200B4160200B5160200B51648
:1016700002001717020017170200181702001817A8
:1016800002001A1702001A1702007B1702007B17CC
:101690000200E0170200E0170200E2170200E21762
:1016A00002003F18020043180200451802004518C6
:1016B00002004B1802004B1802004C180200A81838
:1016C0000200A8180200A9180200A9180200CB18ED
:1016D00002000D1902000D1902000D1902001B195C
:1016E00002006B1902006C1902006C1902006F19DC
:1016F00002006F19020070190200701902007119BE
:1017000002007119020071190200741902007419A3
:101710000200891902009719020097190200081A9D
:101720000200081A02009D1A02009D1A02009E1A69
:1017300002009E1A0200A11A0200A11A0200A11AB8
:101740000200A11A0200A11A0200A21A0200A21AA3
:101750000200A21A0200A51A0200A51A02002D1BFF
:101760000200311B0200331B0200331B0200341B3A
:101770000200B91B0200C71B0200C71B0200C81BE6
:101780000200C81B0200C81B0200F51B0200591C06
:1017900002005E1C02005E1C02005E1C02005E1C59
:1017A0000200671C0200671C0200F41C0200F41C0B
:1017B0000200F41C0200F51C0200F51C0200031DCF
:1017C00002007B1D02008A1D02008A1D02008A1D84
:1017D00002008B1D02008C1D02008F1D0200B61D31
:1017E0000200E91D02001B1E0200211E0200211E34
:1017F0000200221E0200221E0200231E0200231EDF
:101800000200261E0200261E0200B51E0200B51EA2
:101810000200B61E0200B61E0200B61E0200BA1E6C
:101820000200C01E02000B1F02004C1F02004C1FD2
:1018300002004C1F02004D1F02004D1F02004F1FEF
:1018400002004F1F0200511F0200511F0200551FCE
:101850000200551F0200EB1F0200F11F02007C2056
:1018600002007D2002007D2002007D2002007F20FA
:1018700002007F20020081200200812002008220DD
:101880000200822002001321020016210200A6217C
:101890000200A6210200A6210200A6210200A72123
:1018A0000200A7210200AC210200AC2102004C2260
:1018B00002007B2202008322020084220200842292
:1018C000020086220200862202008722020087226E
:1018D0000200D1220200D1220200D2220200D22232
:1018E0000200D5220200D52202004D230200662309
:1018F00002006623020066230200662302006F23B3
:101900000200BA230200BA230200FB230200FE23D6
:101910000200FE230200FE230200FF230200FF2339
:101920000200012402000124020003240200032417
:1019300002000624020006240200062402003C24C1
:1019400002009224020092240200D3240200DD242B
:101950000200DD240200232502002725020027259E
:10196000020028250200282502002825020029253A
:101970000200292502003625020076250200BF2537
:101980000200BF25020005260200052602004E26A1
:101990000200542602005426020056260200562653
:1019A0000200562602005B2602005B2602005B2630
:1019B00002009E2602009E260200E5260200EC267A
:1019C0000200EC260200FC26020032270200322729
:1019D00002007B2702008027020082270200822764
:1019E000020084270200842702008727020087273D
:1019F0000200872702008A2702008A270200CC27DC
:101A00000200CC270200CF270200CF2702001128B6
:101A1000020017280200172802006228020062282C
:101A20000200AB280200AB280200AC280200AC2860
:101A30000200AC280200AD280200AD280200AD284B
:101A40000200AE280200AE280200B5280200B52828
:101A50000200EF290200F02902000F2A02006E2A7C
:101A600002006E2A0200712A0200712A0200722A04
:101A70000200722A0200722A0200742A0200742AEA
:101A80000200752A0200752A02008A2B0200962B9A
:101A90000200962B02009F2B0200B42B0200E52BC4
:101AA0000200322C0200322C0200B72C0200C02CA3
:101AB0000200C12C0200C12C0200422D02005B2D4D
:101AC00002005C2D02005C2D02005C2D02005C2DEA
:101AD00002005E2D02005E2D0200622D0200622DCA
:101AE0000200632D0200632D0200E32D0200ED2DA4
:101AF0000200ED2D0200F12D0200F22D0200F22D68
:101B00000200F22D0200F52D0200F52D0200F72D46
:101B10000200FB2D0200FB2D0200882E0200882E01
:101B20000200882E02008A2E02008A2E02000F2F49
:101B300002000F2F0200182F02001E2F02001E2F7E
:101B400002001E2F02001F2F02001F2F02001F2F56
:101B50000200AF2F0200AF2F0200B52F0200B52FF9
:101B60000200B62F0200B62F02001D3002003B30EB
:101B7000020048300200483002004A3002004A3079
:101B800002004A300200D1300200D1300200DE30C3
:101B90000200DF300200DF300200E0300200E030FF
:101BA0000200E030020066310200663102006D3151
:101BB00002006D310200753102007531020075318D
:101BC00002000A3202000A3202000C3202000C3219
:101BD00002000C3202000C3202000C320200113200
:101BE00002001132020016320200223202002332B9
:101BF000020028320200933202009B320200A73218
:101C0000020029330200333302003333020037333A
:101C10000200383302003833020038330200383310
:101C200002003A3302003A3302003A3302005433DE
:101C3000020097330200CC330200CC330200CD33D4
:101C40000200CD330200543402005F3402006334DA
:101C5000020063340200643402006434020064341D
:101C6000020064340200643402003B350200413556
:101C7000020041350200433502004335020046357B
:101C8000020046350200483502004835020048355A
:101C90000200493502004935020077350200EE3571
:101CA00002002136020025360200253602002536C4
:101CB00002002536020026360200263602002836AB
:101CC000020028360200D1360200D7360200D9368B
:101CD0000200D9360200DA360200E83602006A3B1A
:101CE00002006B3B02006B3B02006B3B02006D3B52
:101CF00002006D3B02006D3B02006D3B02006E3B3B
:101D000002006E3B02006E3B02006F3B02006F3B25
:101D10000200713B0200713B0200713B02008F3BED
:101D200002004B3C02009D3C0200BB3C0200C43C54
:101D30000200CF3C02002F3D02002F3D0200303D4B
:101D40000200303D0200303D0200343D0200343DCF
:101D50000200373D0200373D02003A3D02003A3DA5
:101D600002003C3D02003C3D0200403D0200403D7F
:101D700002005B3D0200123E02001B3E0200233EB9
:101D80000200413E0200F03E0200F23E0200F23E3E
:101D90000200F23E0200F63E0200F63E02001D3F47
:101DA0000200D73F0200DB3F0200E03F0200B240EA
:101DB0000200B3400200B3400200B3400200B7404B
:101DC0000200B7400200F34002007F4102008F4151
:101DD0000200954102007442020074420200744203
:101DE000020078420200784202002D430200AD4416
:101DF0000200BD440200C7440200C7440200CA44B6
:101E00000200CC440200CC440200CC440200CE4488
:101E10000200CE440200CE440200CF440200CF4470
:101E20000200CF440200CF440200D0440200D0445C
:101E30000200D2440200D24402002145020035458E
:101E4000020053450200A3450200AE450200B04522
:101E50000200C14502008A4602008B4602008B4602
:101E600002008C4602008C4602008F4602008F461C
:101E700002008F4602009046020090460200924601
:101E80000200924602009746020097460200C446AE
:101E90000200744702008D4702008D4702004E4841
:101EA00002004F4802004F4802004F4802005048CD
:101EB00002005048020050480200504802005148B9
:101EC000020051480200544802005448020055489C
:101ED00002005548020040490200404902005849AA
:101EE0000200584902000B4A0200104A0200104A40
:101EF0000200114A0200114A0200134A0200134A6A
:101F00000200134A0200134A0200134A0200154A53
:101F10000200154A0200174A0200174A0200194A35
:101F20000200194A0200524A0200DF4A0200E64A51
:101F300002001B4B02002F4B02002F4B0200CB4B29
:101F40000200D44B0200D44B0200D54B0200D54B0B
:101F50000200D54B0200D64B0200D64B0200D64BF6
:101F60000200D94B0200D94B0200DE4B0200DE4BCF
:101F70000200E04B0200E04B02000B4C0200294C37
:101F800002006A4C02009F4C02009F4C0200CE4CA3
:101F90000200CE4C0200024D0200024D0200364DFE
:101FA0000200364D0200664D0200664D0200874D6C
:101FB0000200954D0200954D0200B84D0200C84D3B
:101FC0000200C84D0200F94D0200F94D0200084E12
:101FD00002001D4E0200264E02002D4E02002D4E24
:101FE0000200344E0200344E0200354E0200354EDF
:101FF0000200374E0200374E0200764E0200C34EFA
:102000000200C44E0200C44E0200EE4E0200594FC0
:1020100002005A4F02005A4F02005C4F02005C4F10
:102020000200A34F0200ED4F0200EF4F0200EF4FFE
:102030000200F04F0200F04F0200F34F0200F34F96
:1020400002001850020083500200845002008450A5
:102050000200845002008450020086500200865024
:102060000200B1500200B3500200BB5002001A51EE
:1020700002001A5102001D5102001D5102004D5173
:1020800002006F510200B1510200B2510200B25180
:102090000200B2510200DB510200FB510200465225
:1020A00002004752020047520200475202004752C4
:1020B00002006E5202007452020087520200DB528C
:1020C0000200DB520200DB520200DD520200DD5250
:1020D0000200DD52020005530200095302001353AF
:1020E00002007253020072530200745302007453D0
:1020F00002009F530200A3530200C753020008547A
:10210000020008540200095402000954020032542B
:102110000200495402009F5402009F540200C5541B
:102120000200CA54020034550200355502003555EC
:10213000020035550200355502005D5502005F551D
:10214000020060550200CB550200CF550200CF556A
:102150000200D0550200D0550200D0550200D255E1
:102160000200D2550200D95502000A5602006056FC
:1021700002006356020063560200635602008F5647
:102180000200C9560200F6560200F65602001E571B
:1021900002001E5702008D5702008D5702008E5715
:1021A00002008E5702009257020092570200AF576A
:1021B0000200D9570200D9570200135802001E58D6
:1021C00002001E5802002258020022580200225823
:1021D00002006B5802006B580200B9580200B9584F
:1021E0000200B958020005590200055902004D5974
:1021F00002004D5902009B5902009B590200DF5911
:102200000200E4590200E4590200E4590200E559D1
:102210000200E5590200E5590200305A0200305A26
:102220000200755A02007A5A02007A5A02007E5A57
:1022300002007E5A0200C05A0200C85A0200C85A60
:102240000200C95A0200C95A0200015B02000E5B7B
:1022500002000E5B0200105B0200105B0200115BCB
:102260000200115B0200335B0200515B02003A5C2A
:1022700002003C5C02003C5C02003C5C02003E5CF4
:1022800002003E5C02003E5C02003F5C02003F5CDC
:102290000200465C0200465C0200465C02004B5CA9
:1022A0000200695C0200CD5C0200D35C0200D55CD8
:1022B0000200045D0200045D0200095D02001C5D75
:1022C0000200455D0200FC5D0200FE5D0200FE5D55
:1022D0000200FF5D0200FF5D0200025E0200025E7E
:1022E0000200045E0200045E0200055E0200055E5C
:1022F0000200085E0200085E0200085E02000D5E39
:102300000200345E02008F5E0200955E02009C5E59
:102310000200C65E0200C65E0200075F0200BF5FE9
:102320000200C05F0200C05F0200C35F0200C35F23
:102330000200C55F0200C55F0200C85F0200C85FFF
:102340000200C95F0200C95F0200CB5F0200CB5FE1
:102350000200016002005B6002008A6002008A6085
:1023600002008B6002008B6002008B6002009060B4
:10237000020090600200926002009260020092608F
:1023800002009360020093600200D36002000A61C1
:1023900002004B6102004B6102004F6102004F617D
:1023A0000200526102005261020054610200546155
:1023B0000200566102005661020056610200586137
:1023C00002005861020062610200626102009F62C5
:1023D00002001A6302001A6302001C6302007264A6
:1023E000020072640200726402007264020073648C
:1023F000020073640200766402007664020077646F
:10240000020077640200156F0200166F0200196F58
:1024100002001A6F020000008701870100005D01C1
:102420000000D2010000B801000087018701870188
:1024300000000B0200004B0200000F039302930206
:10244000930200000B020B020B0200004B02000083
:1024500000000F030000BA02000016041604160460
:102460000000A40300003E0300000F030F030F034E
:102470000000BA02BA02BA0200006E026E026E02D8
:1024800000000F030F030F030F0300004B024B026A
:102490004B020000D201D2010000D201D2010000A3
:1024A000D20100000B020B0200004B024B020000A5
:1024B0004B024B0200004B024B020000BA02BA0270
:1024C000BA02BA0200002B00000000000F030F0345
:1024D0000000700370030000A403A4030000700355
:1024E0000000BA02BA02BA0200000F030F030F0382
:1024F00000003E0300000F03000000006E02000019
:1025000037010000E9000000AE000000820000007A
:1025100092000000BA02BA02BA0200005D01000097
:1025200005010000C3000000920000000F030F032C
:1025300000004B0200004B0200000F0300000F03DD
:1025400000009604960496040000960400002D08EE
:102550002D082D0800001F060000740500007405FA
:102560000000A40300000F030000BA0200000B02E9
:102570000B020000E006000048070000E006000033
:102580007405000016040000A4030000700300009E
:10259000A403000070030000BA0200000B02000058
:1025A000D2010000D20100000F030F0300000F034F
:1025B00000000F0300000F0300000F0300000F03D3
:1025C00000000F0300000F0300000F0300000F03C3
:1025D00000000F030F0300000F030000740500004C
:1025E0002D09000048070000960400003A0074001E
:1025F000000000002D090000740596040000480743
:1026000000006E00000000000000000000001F0637
:10261000000026052D0800001604370000006E009B
:1026200000002D082D080000370000008701000081
:102630006E0000000B020000BA0200006E0087016D
:10264000870100000B020000BA02BA0200000F036B
:1026500000000000000000000000BA0200000B02B1
:102660001604670000003300330033000000000050
:1026700000006700000016040B020000BA023300DD
:102680000F0300000000000000000B0216046700AA
:10269000BA0200000F03330033000000000067009F
:1026A0000000330033003300000000000B02610023
:1026B0004901000087010000000000000000000048
:1026C0006100000061000501000087010000490170
:1026D000000000000000610000000501000087010B
:1026E00000004901000061000000870105010000B1
:1026F00049010000000061000501000087010000A1
:102700004901000000000501870100006100000090
:102710004901000000000501000061000B020000FB
:1027200087010000490100000000DC000000870173
:1027300000006E0005015D0100000000000087013F
:1027400000006E0000000501490100000000870143
:1027500000006E0005015D0100000000000087011F
:1027600000006E00050100004901000000000B029E
:1027700000000501870100005D0100006E000000FF
:102780000000ED01870100006E000000050100005F
:1027900087010000050100006E0000005D010000DF
:1027A00000002501000005010000870100005D0117
:1027B00000006700000005018701000000000B0217
:1027C000870100006700000025010000670000008D
:1027D000870100002501000005010000000005013F
:1027E00000002501000067000000870100000501CE
:1027F00067000000250187010000000000000501BE
:10280000250100008701670000000000000067004C
:1028100087010000250100000000050100000B02F7
:1028200000002501000067000000C3000000050152
:102830008701610000004901000000000000610004
:102840000000050100008701000049010000870128
:102850006100050100004901000000000000610066
:102860000000050100008701490100000000C300CD
:1028700005010000250161008701000049014901AF
:102880000000490100000000000061000000250177
:1028900000009200000087010000000061000000BD
:1028A000C3000B0200004B0200000F030B020000EC
:1028B00057008200AE000000000000000000000091
:1028C0000000000092004B02570000008200000050
:1028D0000F03000000000B02000000000F034B027A
:1028E00000000000A4000B02000082000F03160489
:1028F00052005200520000000000000082000F034E
:1029000000004B020000520000000B0200004B02CE
:1029100000000F03000000000000000000000B0298
:10292000000016046100C30000000F0300009200C5
:102930009200000000004B020F0300006100000045
:10294000920000000B02000000004B020F03000089
:10295000000096044B0200000000DB036100000051
:10296000C3000000920092009200000000000000EE
:102970001F0600000F03000061000000DB030000E1
:10298000960400009B001F061F0600002D08000093
:1029900016040000670000002D082D0800001F0627
:1029A0009604000067000000160400002D080000D7
:1029B00000001F06960496040000000000009B0023
:1029C0000000160400002D080000670067000000EA
:1029D0002D0800001F06000096040000670000009C
:1029E000160400002D0800001F06000096040000D9
:1029F00000001F0600002D080000E900000016047A
:102A00000000AE0000007400740000000B02E9003A
:102A1000000087010000BA020000D201000074002B
:102A20000000DC040000A4030000D2010000E90063
:102A30000000740500001604740000001F0600006A
:102A400096040000740000002D0900004807960459
:102A5000000074000000E90000002D090000E900FA
:102A6000000074000000000074000000000000007E
:102A70000000DC047B0000006E02A4033D005C004B
:102A800000003E033E03000000003D000000000087
:102A90005C000000D201A403E30200003D0000003E
:102AA000000000007B000000DC0400006E0200005B
:102AB0003D000000000048070000A40300007B0068
:102AC00000003D003D0000007D0600008A0000007F
:102AD000DC040000670000003E0345000000000029
:102AE00000005404A9080000450045000000C70587
:102AF0000000C70500008A00000000005404000028
:102B000045000000C70500007405000067003E0393
:102B100000007D0600008A0000005404000045000B
:102B20000000C70500008A000000540400003E03B6
:102B300000007D06450000002A020000BA02740071
:102B40003E030000540400000000000000003A00B2
:102B50000000570057000000000074000000D20180
:102B600000006E0200003A0000003E0300003A0040
:102B70000000A4030000DC0400003A000000A403ED
:102B80006E020000DC0400003A007D0600004807E9
:102B90000000B9090000DC040000740000005700C8
:102BA0000000A908000000003A00000000009B009F
:102BB00000004D000000000074007400740000006C
:102BC000DC0400004D000000B9090000E90A000023
:102BD0004D0000009B000000DC0400004D00B9091E
:102BE00000008F0B8F0B0000000045000000670005
:102BF00000008A00000045000000C705C70500006E
:102C0000A90800008A0000007D06000045000000C1
:102C100054040000480700007D067D060000A40360
:102C200000003D0000007B000000DC04DC0400002C
:102C30003D000000A40348070000480700007B0097
:102C40000000DC0400000000A40300003D000000C0
:102C5000C70500005C000000A40300007D067D069F
:102C600000005C0000007B007B000000DC04000032
:102C7000A40300003D0000004807000048070000D2
:102C8000DC0400007B0000003D000000A403000005
:102C9000C70500005C0000003D000000A403A40381
:102CA00000007D0600006700000045000000DC0415
:102CB000DC04000045000000A403000048070000F9
:102CC000DC0400008A000000A4030000C7054500E2
:102CD0000000A40300007D068A00000067000000D9
:102CE000DC04000045000000A403000048070000C9
:102CF000DC0400008A000000A4030000450000007E
:102D00008F0B000000007D06000000000000E90AB3
:102D100000004D00000074000000A90800007D06BE
:102D200000004D004D000000C70500009B000000A2
:102D300074050000540400004D003E030000E3024F
:102D400000000000BA0200009F010000740074003F
:102D500000004D004D0000002A0200009F0100000D
:102D60004D000000710100009B0000005D010000AB
:102D7000150100004D000000CF000000E900000038
:102D8000B800B80000009B000000740000004D0077
:102D90000000E900E9000000E90037010000D2016D
:102DA0000000740000009B0000009F0100006E0204
:102DB0000000D20100004D0000006E0200004D0036
:102DC0000000A40300006E026E0200004D0000002F
:102DD000DC04DC04000048077400740000000000FC
:102DE00074050000E90A0000B90900004D009B00CD
:102DF0000000480748070000A9080000B9090000C2
:102E00008200000067000000000000009F019F0199
:102E1000000041006E020000370100009F01000029
:102E2000370100000000820041000000D20167006D
:102E30006700000000006E02D2019F010000000048
:102E40000000820067000000410041000000000017
:102E5000D2017101710100000000000000000000BB
:102E6000D2016E02000082000000670000004100F5
:102E70000000BA0200006E02A4030000000000007F
:102E800000003E032A0200007B0000006E020000EA
:102E90005C0000003D00000000007B0000003E03DD
:102EA0005C000000E3020000540400003D0000004C
:102EB0000000BA027B009F012A0200003D000000D2
:102EC0005C0000000000000000002A0200009F01DA
:102ED0000000E30200007B0000003D0000005C00F9
:102EE0005C000000BA029F012A022A0200000000D2
:102EF000B80000002A02710100009F010000740068
:102F00000000E30200005C003A00000000009F01A6
:102F1000000000002A02000000009F010000740071
:102F20005C00000015010000710100002A02000091
:102F3000710100000000740000002A02E30200009A
:102F40005C003A0000009F01000000002A0200001F
:102F50000000E3020000740000003A000000E302F9
:102F600000005404C70500005C0000007D0600005E
:102F70003E030000000054040000C7050000740573
:102F8000000037006E0000007003BA020000540415
:102F900000005C00000000000000DC04E302000010
:102FA000370000006E02540400005C0000006E0058
:102FB0006E000000370037000000000000006E00C7
:102FC00000006E000000370000006E020000670085
:102FD0009F01D2010000370100004D0000003300C6
:102FE000000000000000330000009F0167000000A7
:102FF0003701370100004D000000D20167000000DA
:10300000330000000000000067003300D201000020
:103010006E029F01000000000000670000004D00EC
:103020004D0000000000330000007101D2010000DB
:103030000000D20100006E020000670033000000B3
:103040000000330067000000E302A40300003E0319
:1030500000007400BA022A02570000003A003A0049
:1030600000000000000000003A003A0000000000EC
:1030700000003A0000009F012A0274000000E302F1
:103080007101710171010000740000003A0000003C
:1030900000000000BA020000A403570074002A02D6
:1030A00000000000740000003E030000BA020000AF
:1030B0000000540400003A000000000000003E033D
:1030C000BA02740554040000740000003A000000C5
:1030D000000000000000000000007B000000A908C4
:1030E000540400003E037D0674050000BA0245004A
:1030F00000003D00000000005C005C005C0000007F
:10310000000000000000DC046E020000E302A403E3
:1031100000005C0000003D0000007B0000004D004E
:1031200000008A008A0000000000000000005C002F
:1031300000008A007B0000003D003D000000000010
:1031400000005C0000008A007B0000003D003D00A4
:103150000000000000005C008A007B0000003D00D1
:103160003D003D000000000000008A0000009F01BB
:10317000B80000003D00370100007B005C004D00FE
:103180000000450000002A020000000000000000CE
:10319000000000000000B8000000710100003701CD
:1031A00000005C002A0200008A0000009F0100006D
:1031B0007B007B007B0000000000B80000003701AE
:1031C0008A0000009F015C002A02000067000000E6
:1031D0004D0000007B000000000000000000B8006F
:1031E0000000710100008A00000037019F015C00AF
:1031F0002A0200004D0000007B0000003D003D0061
:1032000000000000000000000000B80000003701CE
:1032100000002A028A0000009F015C0000007B0081
:1032200000004D0000003D003D000000A908000026
:103230007D060000C7050000540400003E030000A6
:10324000E302000000002A02000000009F010000CD
:10325000710171010000710100002A0200007B0071
:1032600000009F0100003D0000009F0100007B0066
:1032700000007B00000071010000F6000000150155
:1032800000009F0100007B000000710100002A0285
:103290000000F6007B009F010000710100000000AB
:1032A00000009F017B000000F6000000000071019B
:1032B00000007B00F60000000000150100007B000C
:1032C0009F017101000000000000F6002A027B004F
:1032D00000009F0171010000000000007B009F01C1
:1032E0000000F600000000000000F6007B00000077
:1032F00071010000000015017B00000000002A029F
:1033000000009F017B0071010000000000009F0190
:1033100000007B000000F6007101000015010000B4
:1033200000007B0000007101F600000000007B003F
:1033300015010000000071017B0000005C0000002E
:103340003D003D0000001501000000007B00000072
:103350003D0071010000ED0100007B00150100003F
:1033600071010000ED0100002A02000000005C0075
:103370007B000000ED01E3020000DB030000000021
:103380003D000000540454040000C7050000E3029F
:10339000000000005C0000007B0000003D00000019
:1033A0000000B80000002A02540400007B005C000A
:1033B0000000E30200003D003E03000000000000AA
:1033C00000003E030000E302000000000000B8001F
:1033D0000000540400002A020000E30200007B0009
:1033E00000005C0000003E033D0000000000000003
:1033F0003E033E030000E3020000B8000000540456
:1034000000002A020000E30200007B0000005C00D4
:1034100000003E033E033E030000B80000002A0205
:1034200054040000E30200005C007B0000003E0347
:103430003E033E03000000000000B80000005404FA
:1034400000002A020000E3027B0000005C00000094
:103450003E033E030000000000003E036E02A40392
:10346000DC04000067000000450000008A00000046
:1034700000000000000000000000240027002A00D7
:1034800000000000250028002B00020100000000C1
:103490000023002600290004040404040404040298
:1034A00002020202020303030303030102040810E1
:1034B00020408001020408102001020408102000AE
:1034C00000000800020100000304070000000000E3
:1034D00000000000D92211241FBECFEFD8E0DEBFCC
:1034E000CDBF11E0A0E0B1E0EEE9F6E402C0059046
:1034F0000D92AA33B107D9F722E0AAE3B1E001C0E7
:103500001D92AA31B207E1F71AE1CBE6DAE104C075
:103510002197FE010E944723CA36D107C9F70E94AE
:10352000561E0C944D230C940000AF92BF92CF9284
:10353000DF92EF92FF920F931F93CF93DF936C0173
:103540007B018B01040F151FEB015E01AE18BF0854
:10355000C017D10759F06991D601ED91FC91019006
:10356000F081E02DC6010995892B79F7C501DF911E
:10357000CF911F910F91FF90EF90DF90CF90BF9070
:10358000AF900895FC01538D448D252F30E0842F9A
:1035900090E0821B930B541710F0CF96089501977B
:1035A0000895FC01918D828D981761F0A28DAE0F68
:1035B000BF2FB11D5D968C91928D9F5F9F73928FEF
:1035C00090E008958FEF9FEF0895FC01918D828D1B
:1035D000981731F0828DE80FF11D858D90E00895E8
:1035E0008FEF9FEF0895FC01918D228D892F90E040
:1035F000805C9F4F821B91098F73992708958DE7F7
:1036000091E00E94F31A21E0892B09F420E0822F37
:10361000089580E090E0892B29F00E94FF1A811123
:103620000C9400000895FC01A48DA80FB92FB11DC2
:10363000A35ABF4F2C91848D90E001968F739927E8
:10364000848FA689B7892C93A089B1898C918370C6
:1036500080648C93938D848D981306C00288F389BF
:10366000E02D80818F7D80830895EF92FF920F93EC
:103670001F93CF93DF93EC0181E0888F9B8D8C8D1E
:1036800098131AC0E889F989808185FF15C09FB712
:10369000F894EE89FF896083E889F98980818370D5
:1036A000806480839FBF81E090E0DF91CF911F9184
:1036B0000F91FF90EF900895F62E0B8D10E00F5FA5
:1036C0001F4F0F731127E02E8C8D8E110CC00FB67B
:1036D00007FCFACFE889F989808185FFF5CFCE0113
:1036E0000E94131BF1CFEB8DEC0FFD2FF11DE35A60
:1036F000FF4FF0829FB7F8940B8FEA89FB89808196
:103700008062CFCFCF93DF93EC01888D8823B9F00F
:10371000AA89BB89E889F9898C9185FD03C08081DC
:1037200086FD0DC00FB607FCF7CF8C9185FFF2CF59
:10373000808185FFEDCFCE010E94131BE9CFDF9181
:10374000CF910895833081F028F4813099F0823050
:10375000A9F008958730A9F08830C9F08430B1F419
:10376000809180008F7D03C0809180008F7780934F
:103770008000089584B58F7784BD089584B58F7DCA
:10378000FBCF8091B0008F778093B0000895809137
:10379000B0008F7DF9CFCF93DF93EFEBF4E384910B
:1037A000EBEAF4E3D491E7E9F4E3C491CC23A1F08C
:1037B00081110E94A21BEC2FF0E0EE0FFF1FE357D8
:1037C000FB4CA591B491EC91ED2381E090E009F4DC
:1037D00080E0DF91CF91089580E090E0FACF1F93D1
:1037E000CF93DF93282F30E0F901E154FB4C849113
:1037F000F901E555FB4CD491F901E956FB4CC49114
:10380000CC23A9F0162F81110E94A21BEC2FF0E00F
:10381000EE0FFF1FE058FB4CA591B4918FB7F894C1
:10382000EC91111108C0D095DE23DC938FBFDF919E
:10383000CF911F910895DE2BF8CFCF93DF9390E0C7
:10384000FC01E555FB4C249189569B4CFC0184916D
:103850008823D1F090E0880F991FFC01EA58FB4CB7
:10386000A591B491FC01E058FB4CC591D491623014
:1038700071F49FB7F8943C91822F809583238C93A9
:10388000E8812E2B28839FBFDF91CF9108958FB7BA
:10389000F894EC912E2B2C938FBFF6CF3FB7F89472
:1038A00080913B0190913C01A0913D01B0913E017E
:1038B00026B5A89B05C02F3F19F00196A11DB11D8B
:1038C0003FBFBA2FA92F982F8827BC01CD01620FC7
:1038D000711D811D911D42E0660F771F881F991F82
:1038E0004A95D1F708950C944E1CFC0191819130BA
:1038F00069F0923089F0911105C090916E009D7F22
:1039000090936E0060E080810C94EF1B90916F00AB
:103910009D7F90936F00F6CF909170009D7F909364
:103920007000F0CFCF93DF93FC0101900020E9F706
:103930003197AF01481B590BBC018DE791E00E9404
:10394000951AEC0142E050E062E271E08DE791E00F
:103950000E94951A8C0F9D1FDF91CF9108951F92A1
:103960000F920FB60F9211242F933F934F935F93B3
:103970006F937F938F939F93AF93BF93EF93FF9337
:103980008DE791E00E94131BFF91EF91BF91AF91E2
:103990009F918F917F916F915F914F913F912F9167
:1039A0000F900FBE0F901F9018951F920F920FB699
:1039B0000F9211242F938F939F93EF93FF93E09196
:1039C0008D01F0918E018081E0919301F09194013D
:1039D00082FD1BC09081809196018F5F8F73209133
:1039E0009701821741F0E0919601F0E0E358FE4F15
:1039F000958F80939601FF91EF919F918F912F91D9
:103A00000F900FBE0F901F9018958081F4CF1F92DA
:103A10000F920FB60F9211242F933F938F939F9382
:103A2000AF93BF938091490190914A01A0914B01BE
:103A3000B0914C0130913A0123E0230F2D3758F516
:103A40000196A11DB11D20933A01809349019093E5
:103A50004A01A0934B01B0934C0180913B0190919E
:103A60003C01A0913D01B0913E010196A11DB11D07
:103A700080933B0190933C01A0933D01B0933E01A4
:103A8000BF91AF919F918F913F912F910F900FBE5A
:103A90000F901F90189526E8230F0296A11DB11DC7
:103AA000D2CF1F920F920FB60F9211242F933F93F4
:103AB0008F939F93AF93BF93EF93FF9380914D01AB
:103AC00090914E01A0914F01B09150010097A10536
:103AD000B10531F130913F01E0914001F091410198
:103AE000208123272083181619061A061B061CF4AA
:103AF0000197A109B10980934D0190934E01A093C4
:103B00004F01B0935001FF91EF91BF91AF919F9101
:103B10008F913F912F910F900FBE0F901F9018958E
:103B2000209170002D7F2093700020913F01E09143
:103B30004001F09141013081209523232083DBCF88
:103B40001F920F920FB60F9211248F939F93AF93F2
:103B5000BF93EF93FF938091510190915201A091F7
:103B60005301B0915401892B8A2B8B2BA1F1909199
:103B70004201E0914301F0914401808189278083D3
:103B80008091510190915201A0915301B091540143
:103B9000181619061A061B069CF480915101909183
:103BA0005201A0915301B09154010197A109B109AB
:103BB0008093510190935201A0935301B09354010B
:103BC000FF91EF91BF91AF919F918F910F900FBE99
:103BD0000F901F90189580916F008D7F80936F00DC
:103BE00080914201E0914301F091440190818095E0
:103BF00089238083E5CF1F920F920FB60F92112475
:103C00008F939F93AF93BF93EF93FF938091550151
:103C100090915601A0915701B0915801892B8A2BA0
:103C20008B2BA1F190914501E0914601F091470164
:103C30008081892780838091550190915601A091C0
:103C40005701B0915801181619061A061B069CF464
:103C50008091550190915601A0915701B091580162
:103C60000197A109B1098093550190935601A09342
:103C70005701B0935801FF91EF91BF91AF919F9180
:103C80008F910F900FBE0F901F90189580916E002E
:103C90008D7F80936E0080914501E0914601F09107
:103CA00047019081809589238083E5CFCF93DF936F
:103CB000CDB7DEB72A970FB6F894DEBF0FBECDBFE3
:103CC000789484B5826084BD84B5816084BD85B5F7
:103CD000826085BD85B5816085BD80916E00816003
:103CE00080936E00109281008091810082608093A9
:103CF00081008091810081608093810080918000AB
:103D00008160809380008091B10084608093B100D5
:103D10008091B00081608093B00080917A008460CF
:103D200080937A0080917A00826080937A008091FB
:103D30007A00816080937A0080917A008068809315
:103D40007A001092C100E0918D01F0918E0182E025
:103D50008083E0918901F0918A011082E0918B01CA
:103D6000F0918C018FEC808310929501E09191018C
:103D7000F091920186E08083E0918F01F0919001B3
:103D8000808180618083E0918F01F091900180813A
:103D900088608083E0918F01F0919001808180683C
:103DA0008083E0918F01F091900180818F7D8083ED
:103DB00062E080E00E941D1C61E084E00E941D1C06
:103DC00061E085E00E941D1C61E086E00E941D1CF0
:103DD000A9E5B1E009E711E06DE671E041E751E0E6
:103DE0002DE531E082E1282E81E0382EFF24FA947F
:103DF000F10186819781F90191838083FA01119203
:103E0000119211921192AF01FB0111921192BF0117
:103E1000F801119211928F01F10190818091480176
:103E2000833008F023C19C93E82FF0E0E657FB4C69
:103E3000E4911196EC9311978F5F80934801E130E4
:103E400009F4C8C008F4A6C0E23009F4E9C0F901D9
:103E500080819181FC01E150F04CCF01880F991FC6
:103E6000880F991FF101C480D580F601E80FF91F72
:103E7000459055906590749080906101909062019A
:103E8000A0906301B090640184149504A604B70463
:103E900010F4530142018092610190926201A0925C
:103EA0006301B0926401F8E02F0E311C2E5F3F4F8A
:103EB000129682E2281681E0380609F099CF0E9416
:103EC000731C60E084E00E94EF1B85E291E00E9499
:103ED000921C00E010E00E94CB1B9C838B83019717
:103EE00011F00B831C830E94CB1B9A838983892B3F
:103EF00009F0C0C0AB81BC81119709F0BBC061E083
:103F000084E00E94EF1B8AE291E00E94921C6DE621
:103F100071E001E7C02E01E0D02E49E751E0A2E1B7
:103F2000B1E01496ED90FC901597FA018081918193
:103F3000FC01EE0FFF1FEE0FFF1FEE0DFF1D0591A1
:103F4000159125913491F6010083118322833383E7
:103F5000FA012081318189010F5F1F4FC801880F4D
:103F6000991F880F991F8E0D9F1DFC0185909590BC
:103F7000A590B490F601408051806280738048140F
:103F800059046A047B0409F078C0FA0111830083A4
:103F9000FC01D5CF14BC15BC84B5826084BD85B549
:103FA000816085BD8C9190E0FC01E956FB4CE49169
:103FB000F0E0EE0FFF1FE058FB4CC590D490D0927C
:103FC0004701C0924601FC01E555FB4CE491E093AA
:103FD00045013DCF109280001092810080918100B8
:103FE000886080938100809181008160809381004E
:103FF0008C9190E0FC01E956FB4CE491F0E0EE0F6F
:10400000FF1FE058FB4CC590D490D0924401C09261
:104010004301FC01E555FB4CE491E093420117CFCD
:104020001092B0001092B1008091B0008260809335
:10403000B0008091B10081608093B1008C9190E0DC
:10404000FC01E956FB4CE491F0E0EE0FFF1FE05855
:10405000FB4CC590D490D0924101C0924001FC012C
:10406000E555FB4CE491E0933F01F1CE1196FC92B3
:104070001197EDCE0B811C812ECF90E080E01216BF
:10408000130664F421503048220F331F1296ED912D
:10409000FC911397E20FF31F85919491FB0181939B
:1040A0009193BF0118964E5F5F4FF4E0CF0ED11C85
:1040B00081E0A232B80709F034CF2FB7F89480918D
:1040C000490190914A01A0914B01B0914C012FBF41
:1040D0008093690190936A01A0936B01B0936C0186
:1040E0001E821D82409165015091660160916701B9
:1040F000709168018091610190916201A0916301CA
:10410000B091640184179507A607B70708F42AC27F
:10411000AD81BE81119709F425C22FB7F894809123
:10412000490190914A01A0914B01B0914C012FBFE0
:104130004091690150916A0160916B0170916C012D
:10414000841B950BA60BB70B8093650190936601BA
:10415000A0936701B0936801E9E5F1E0FA87E98788
:1041600071E7272E71E0372E8DE591E09C838B83DC
:10417000E9E7CE2EE1E0DE2EF12CE12CAB81BC8113
:104180008D919D91BC83AB83F601208131812817ED
:1041900039070CF0E2C10E94CB1B019721F481E0AA
:1041A00090E09A8389830E94CB1B892B61F4A981BB
:1041B000BA81119741F485E391E00E94921CE1E0FD
:1041C000F0E0FE83ED83C70183599E4F98878F836C
:1041D000DC018D909C90181419040CF0B9C1E9858C
:1041E000FA85818187FD02C161E080810E941D1CEA
:1041F000A985BA8511961C91092C000CAA08BB0848
:10420000812F8D7F09F052C160E072E18AE790E072
:10421000A50194010E94062329013A01DA01C9018E
:104220000197A109B1098F3F9105A105B10509F0D9
:104230000CF4B8C060E472E48FE090E0A501940152
:104240000E9406232150310941095109123009F019
:104250006AC082E02F3F31054105510509F00CF499
:104260005BC060E970ED83E090E0A50194010E94DD
:104270000623215031094109510983E02F3F3105BF
:104280004105510509F00CF447C068E478EE81E07F
:1042900090E0A50194010E940623215031094109B3
:1042A000510984E02F3F310541055105A9F1A4F1E1
:1042B00064E274EF80E090E0A50194010E9406237F
:1042C000215031094109510985E02F3F3105410550
:1042D000510511F108F162E17AE780E090E0A50173
:1042E00094010E940623215031094109510986E0B9
:1042F0002F3F31054105510579F070F09AE0759432
:104300006794579447949A95D1F7A301920121504D
:1043100031094109510987E09091B100987F892BBB
:104320008093B10047C02F3F31054105510509F089
:104330000CF4BAC068E478EE81E090E0A501940145
:104340000E940623215031094109510984E01111CD
:10435000BCCF83E02F3F31054105510539F134F1E0
:1043600062E17AE780E090E0A50194010E940623D3
:10437000215031094109510984E02F3F31054105A0
:104380005105A1F098F08AE075946794579447948A
:104390008A95D1F7A30192012150310941095109B0
:1043A00085E004C09C0181E01111B6CF95B5987FDE
:1043B000892B85BDE985FA858181813009F4A0C00A
:1043C000823009F4B2C0811111C027BD8FEF9FEF79
:1043D000DC018093550190935601A0935701B0934F
:1043E000580180916E00826080936E00D1014D91E2
:1043F0005D916D917C918091650190916601A09194
:104400006701B091680184179507A607B70708F4FC
:1044100037C0F60120813181C901019691838083E3
:10442000EB81FC813297408151818417950744F5D7
:10443000D701AA0FBB1FAA0FBB1FAE5EBE4F220F34
:10444000331F1296ED91FC911397E20FF31F4591E4
:104450005491EF81F88551834083880F991F880F0D
:10446000991F1496ED91FC91E80FF91F4591559114
:1044700065917491D1014D935D936D937C931397E6
:10448000B2E0CB0ED11CE4E02E0E311C89859A855A
:1044900002969A87898792E0E90EF11CA4E0EA1659
:1044A000F10409F41FCE6ACE82E07ECF60E072E1B3
:1044B0008AE790E0A50194010E940623215031096A
:1044C0004109510991E021153105B1E04B07510532
:1044D0006CF068E478EE81E090E0A50194010E9420
:1044E0000623215031094109510993E0113009F0A7
:1044F00061CF80918100887F892B809381005ACF82
:1045000030938900209388008FEF9FEFDC01809328
:10451000510190935201A0935301B09354018091A3
:104520006F00826080936F0061CF2093B3008FEFA4
:104530009FEFDC0180934D0190934E01A0934F01BA
:10454000B0935001809170008260809370004ECFD4
:1045500089859A850E94751C49CF89859A850E9414
:10456000751C8ECF10926501109266011092670142
:104570001092680110927A011092790189E591E018
:104580000E94751C10927C0110927B018BE591E0DA
:104590000E94751C0E94731C80E090E0892B09F436
:1045A00090CC0E94FF1A882309F48BCC0E94000053
:1045B00088CCEDE7F1E01382128288EE93E0A0E070
:1045C000B0E084839583A683B78384E091E09183F0
:1045D000808385EC90E09587848784EC90E09787D2
:1045E000868780EC90E0918B808B81EC90E0938BC0
:1045F000828B82EC90E0958B848B86EC90E0978B9D
:10460000868B118E128E138E148E0895052E97FBB5
:104610001EF400940E941D2357FD07D00E942523FD
:1046200007FC03D04EF40C941D2350954095309513
:1046300021953F4F4F4F5F4F08959095809570950E
:1046400061957F4F8F4F9F4F0895A1E21A2EAA1BAD
:10465000BB1BFD010DC0AA1FBB1FEE1FFF1FA21732
:10466000B307E407F50720F0A21BB30BE40BF50B2F
:10467000661F771F881F991F1A9469F760957095B8
:10468000809590959B01AC01BD01CF010895EE0F7F
:0E469000FF1F0590F491E02D0994F894FFCFE0
:10469E0000000000351B951AC21A821BF31AD11A9C
:1046AE00E51A050016245603300806005C02680061
:1046BE007D000D0A007761697400506C6179696E36
:0A46CE00672E2E2E00736B6970003A
:00000001FF
