:100000000C94B8150C94E0150C94E0150C94E015C4
:100010000C94E0150C94E0150C94E0150C949E18CB
:100020000C94E0150C94E0150C94E0150C94ED186C
:100030000C94E0150C94E0150C9448190C94E01500
:100040000C9454180C94E0150C9422180C94FC1782
:100050000C94E0150C94E0150C94E0150C94E0154C
:100060000C94E0150C94E01500000000F30D000066
:10007000670E0000A20E0000840F0000840F000035
:100080001C100000201000001811000018110000C2
:100090009311000099110000AE120000AE12000092
:1000A00075130000751300003914000039140000A6
:1000B000F8140000F8140000C8150000C81500006E
:1000C0007516000079160000321700005517000061
:1000D000C3180000D2180000631900006319000063
:1000E0001F1A0000671A0000DA1A0000151B000032
:1000F000F81B0000F81B0000901C0000941C00007E
:100100008B1D00008B1D0000071E00000C1E000050
:10011000221F0000221F0000E91F0000E91F00004D
:10012000AC200000AC2000006B2100006B2100001F
:100130003C2200003C220000E9220000ED220000E9
:10014000A6230000C9230000372500004525000034
:10015000D7250000D72500007E2600007E2600005F
:100160001727000017270000FC270000FC270000CD
:10017000862800008C280000632900006329000005
:10018000E1290000E1290000E72A0000E72A000039
:10019000AA2B0000AA2B0000822C0000822C000059
:1001A000032E0000122E0000892F0000972F000060
:1001B00056300000563000001B3100001B3100009B
:1001C000CD310000D8310000893200009A320000A1
:1001D0004F3300004F33000024340000243400006B
:1001E000E0340000E03400009E3500009E35000041
:1001F000573600005736000015370000153700004D
:100200008238000086380000403900004039000084
:10021000073A0000073A0000CA3C0000DC3C00003E
:10022000CE3E0000CE3E0000803F0000803F000038
:100230004A4000004A400000F04000000441000035
:10024000D0410000D04100007A4200007A42000014
:100250001F4300001F430000F3430000F34300006E
:10026000D8440000D844000097450000974500009E
:1002700068460000684600001B4700001B4700005E
:10028000C3470000DE47000099480000994800007D
:100290006A4900006A490000274A0000274A000016
:1002A000F04A0000F04A0000AD4B0000AD4B0000EA
:1002B0007E4C00007E4C0000384D0000384D0000A0
:1002C000FC4D0000FC4D0000A84E0000A84E0000B0
:1002D0004A4F00004A4F0000135000001350000026
:1002E000FF500000FF500000BC510000BC51000056
:1002F0008C5200008C5200003C5300003C53000024
:10030000EC53000018540000D1540000D1540000F8
:1003100094550000945500004456000044560000D7
:100320001157000011570000C0570000C0570000CF
:1003300091580000915800003F5900003F590000BB
:100340000E5A00000E5A0000BF5A0000BF5A0000AB
:10035000765B0000765B00003F5C00003F5C0000C5
:10036000115D0000115D0000BE5D0000BE5D00007B
:10037000995E0000995E00000760000007600000C1
:10038000D1600000D1600000906100009061000029
:100390004262000042620000266300002663000003
:1003A000D1630000D1630000AD640000AD640000C3
:1003B00078650000786500003F6600003F66000039
:1003C000F2660000F2660000B6670000B667000043
:1003D0006568000065680000346900003469000049
:1003E000DD690000DD690000516A0000516A00000B
:1003F000AD6A0000B36A00007A6B00007A6B0000FF
:100400003E6C00003E6C0000026D0000026D0000BA
:10041000C46D0000C46D00006D6E00006D6E0000C4
:10042000566F0000566F0000FF6F000063720000FF
:10043000E1730000E17300006A7500006A75000056
:1004400083780000837800008678000086780000BA
:100450003079000030790000F2790000F97900006D
:10046000747B0000877B0000B97C0000DF7D00000A
:10047000C97F00003D8000006F810000B481000052
:10048000098200000B8400000C8400000C84000032
:10049000A2850000A2850000098700001B870000DC
:1004A00076880000768800005D8900005D89000084
:1004B000B1890000248A00009F8B00009F8B000000
:1004C000208D00002F8D0000F38D0000F38D0000C3
:1004D000B08E0000B08E0000888F0000888F000072
:1004E0002890000028900000F4900000F490000094
:1004F000A2910000A2910000769200007692000086
:10050000FE930000FE930000BA940000BA9400002D
:100510008D9500008D950000E9950000399600004A
:10052000C4970000C4970000379900003799000075
:10053000A19A0000A19A0000739B0000739B000029
:100540003B9E00003B9E0000E39E0000289F0000B1
:100550002A9F00002A9F0000B8A0000061A10000AF
:1005600063A1000063A10000C5A20000D7A20000A3
:10057000DAA20000DAA20000C9A300005BA4000018
:10058000E7A50000E7A50000A6A60000A6A60000BB
:1005900084A7000084A7000039A8000039A8000043
:1005A00002A9000002A90000B6A90000B6A9000037
:1005B00081AA000081AA00005FAB00005FAB0000D1
:1005C000F7AB0000F7AB0000B8AC0000B8AC00001F
:1005D00088AD000088AD0000BBAD000031AE00006A
:1005E00003AF000003AF000048B1000056B10000A7
:1005F000CEB20000CEB2000094B3000094B300006D
:100600005DB400005DB400001CB500001CB5000026
:10061000E3B50000E3B500005DB7000067B7000078
:10062000D7B80000D7B800009EB900009EB90000FE
:1006300017BA000062BA00006BBB0000E0BB00000C
:100640004BBD000057BD00001FBE00001FBE0000D4
:10065000D7BE0000D7BE0000B0BF0000B0BF000092
:100660006DC000006DC000002DC100002DC1000054
:10067000D8C10000D8C100008CC200008CC20000AC
:1006800032C4000032C40000EBC40000EBC4000020
:10069000B5C50000B5C5000072C6000072C60000F6
:1006A0003DC700003DC7000081C9000081C90000AE
:1006B000DDCA0000DDCA00009CCB00009CCB00001E
:1006C00013CE000013CE000077CF000079CF0000DA
:1006D000E9D00000E9D0000087D10000A9D10000D6
:1006E00057D2000057D2000024D3000024D30000CA
:1006F00098D4000098D4000015D6000015D600004C
:100700002CDB000061DB00007BE100007BE10000EE
:10071000A0E60000A0E6000082E7000082E70000FB
:10072000E1E80000E1E80000C2E90000C2E90000E1
:100730002FEA00007AEA00000CEC00000CEC00004C
:10074000B4EC0000B4EC000078ED000078ED00009F
:1007500033EE000033EE0000FBEE0000FBEE000085
:10076000BEEF0000BEEF000072F0000072F000006B
:1007700039F1000039F100004EF100004EF10000A7
:10078000F5F10000F5F10000C0F20000C0F2000039
:10079000C4F20000C4F2000090F3000090F30000E7
:1007A000E8F40000E8F40000B8F50000B8F5000037
:1007B0003CF700003CF70000F5F70000F5F70000FB
:1007C000C0F80000C0F80000F9F90000F9F90000D5
:1007D00034FB000034FB0000F3FB0000F3FB0000DF
:1007E00079FD000079FD00002EFE00002EFE0000C5
:1007F000E3FE0000E3FE0000B4FF0000B4FF0000D1
:100800002001010020010100F1010100F1010100BE
:10081000A5020100A50201005A0301007B030100AB
:10082000EF040100F70401006F06010077060100E4
:10083000D90601000E070100F6070100F6070100C6
:1008400070080100700801006609010066090100D6
:10085000FC090100FC090100040B0100040B01006C
:10086000A50C0100A50C01005A0D01005A0D010054
:10087000220E0100220E0100BF0E0100BF0E01007A
:100880005C0F0100A80F010054100100541001007A
:100890002511010025110100DF110100DF11010008
:1008A000A3120100A31201004C1301004C1301001C
:1008B0002714010027140100D1140100D1140100F4
:1008C000AC150100AC15010019170100211701003A
:1008D000B0180100B0180100111A0100191A010026
:1008E000B41A0100B41A0100A51B0100A71B0100E6
:1008F000511C0100511C0100A71C0100311D010009
:10090000E21D0100E21D0100B31E0100B31E010043
:10091000711F0100711F01002E2001002E20010017
:1009200031200100312001003D200100BC200100E8
:1009300087210100932101002F2201002F220100B5
:100940001123010011230100E1230100E123010033
:10095000BA240100BA2401007E2501007E25010091
:100960004E2601004E260100DE260100DE26010093
:100970005E270100C6270100C9270100C927010021
:100980008328010083280100532901005329010015
:10099000082A0100082A0100DA2A0100DA2A0100E7
:1009A0008F2B01008F2B0100592C0100592C0100C5
:1009B000F52C0100F52C0100D92D0100D92D0100E5
:1009C000512F0100562F0100E2300100E2300100FA
:1009D000913101009131010060320100603201006B
:1009E000C6340100C63401007E3501007E350100A9
:1009F00033360100333601000337010003370100AD
:100A0000C3370100C33701008F3801008F38010060
:100A100047390100473901000B3A01000B3A010048
:100A2000BA3A0100BA3A0100673B0100673B010096
:100A3000483C0100483C01000E3D01000E3D010014
:100A4000CA3D0100CA3D01008E3E01008E3E0100FC
:100A5000483F0100483F01000A4001000A400100F0
:100A6000CC400100CC4001009E4101009E410100AC
:100A700057420100574201001D4301001D43010080
:100A8000DF430100DF430100BA440100BA44010022
:100A90005E4501005E4501002F4601002F46010022
:100AA000DE460100DE46010071470100714701008A
:100AB00063480100634801003A4901003A490100D6
:100AC000F9490100F9490100C54A0100C54A010080
:100AD0006E4B01006E4B0100414C0100414C010086
:100AE000F24C0100F24C0100CD4D0100CD4D010052
:100AF0007B4E01007B4E0100494F0100494F010030
:100B00001150010011500100D7500100D7500100D1
:100B100088510100885101004952010049520100E9
:100B2000F9520100F9520100AE530100AE53010029
:100B30007D5401007D5401004855010048550100D5
:100B4000F3550100F3550100C7560100C7560100D7
:100B500079570100795701003B5801003B580100CB
:100B6000F1580100F1580100C8590100C8590100AD
:100B70005E5A01005E5A01005B5B01005B5B010095
:100B80000E5C01000E5C0100E55C0100E55C01000B
:100B90006B5E01006B5E0100325F0100325F01009D
:100BA000F65F0100F65F0100A9600100A960010085
:100BB0007A6101007A6101000A6201000A620100A3
:100BC000FC620100FC620100BA630100BA6301002B
:100BD0008D6401008D6401004E6501004E650100C9
:100BE0001266010012660100B9660100B9660100D3
:100BF000A8670100A867010024680100C06A01001D
:100C0000B76D0100B76D0100676F0100676F0100EC
:100C10001471010014710100C87A010000005C0029
:100C200000008A000000B80000008A0000004900AF
:100C300000006E000000920000006E0000005200F4
:100C400000007B000000A40000007B000000DC002E
:100C50000000CF0000009B0000005C0000008A0044
:100C60000000B80000008A000000490000006E008B
:100C70000000920000006E000000520000007B00A7
:100C80000000A40000007B000000DC000000CF009A
:100C900000009B0000005C0000008A000000B8001B
:100CA00000008A000000490000006E000000920071
:100CB00000006E000000A4000000A4000000DC00A2
:100CC0000000A4000000CF0000009B0000005C00BA
:100CD00000008A000000B80000008A0000004900FF
:100CE00000006E00000092000000520000007B0037
:100CF0000000A40000007B0000005C0000008A00EF
:100D00000000B80000008A000000490000006E00EA
:100D10000000920000006E000000520000007B0006
:100D20000000A40000007B0000006E000000A40092
:100D30000000DC000000A40000005C0000008A004D
:100D40000000B80000008A000000490000006E00AA
:100D50000000920000006E000000520000007B00C6
:100D60000000A40000007B0000006E000000A40052
:100D70000000DC000000A40000005C0000008A000D
:100D80000000B80000008A000000490000006E006A
:100D90000000920000006E000000520000007B0086
:100DA0000000A40000006E000000A4000000DC00B1
:100DB0000000A4000000490000006E000000920046
:100DC00000006E00000045000000670000008A007F
:100DD000000067000000490000006E000000920063
:100DE0000000920000006E00000045000000670057
:100DF00000008A0000006700000092000000A400CC
:100E000000007B000000B8000000920000004900D4
:100E10000000DC000000DC000000A4000000DC009A
:100E20000000CF000000B800000092000000490060
:100E300000006E000000520000007B000000A400D3
:100E400000006E000000A4000000A40000005C0090
:100E500000008A000000B80000008A00000049007D
:100E600000006E00000092000000520000007B00B5
:100E70000000A40000006E000000A40000005C0060
:100E800000008A000000B80000008A000000920004
:100E9000000049000000A400000052000000DC0037
:100EA00000006E000000A40000005C0000008A004A
:100EB0000000B80000008A000000490000006E0039
:100EC0000000920000006E000000520000007B0055
:100ED0000000A40000006E000000A40000005C0000
:100EE00000008A000000B8000000490000006E0009
:100EF000000092000000520000007B000000A400EF
:100F000000006E000000A4000000A40000005C00CF
:100F100000008A000000B80000008A0000004900BC
:100F200000006E00000092000000520000007B00F4
:100F30000000A40000006E000000A40000005C009F
:100F400000008A000000B80000008A00000049008C
:100F500000006E000000520000007B0000006E00E8
:100F60000000A4000000920000008A000000B80009
:100F700000008A000000520000007B000000A40076
:100F80000000A40000007B000000520000007B0075
:100F90000000490000006E000000490000006E00E3
:100FA0000000DC000000490000006E000000490065
:100FB0000000DC00000045000000670000008A001F
:100FC00000006700000045000000670000005C00B2
:100FD00000008A000000B80000008A0000005C00E9
:100FE00000008A000000A40000007B000000A400B4
:100FF00000007B000000A4000000A4000000B80076
:1010000000008A000000B80000008A0000004900CB
:1010100000006E00000092000000A40000007B00B1
:101020000000A40000007B000000DC000000A40021
:101030000000CF0000009B000000B80000008A0004
:101040000000B80000008A0000009200000092003A
:101050000000A4000000A40000007B000000DC00F1
:101060000000A4000000CF0000009B000000B800BA
:1010700000008A000000B8000000A40000008A0000
:101080000000920000006E000000920000006E0060
:101090000000A40000007B000000A40000007B0012
:1010A0000000DC0000006E000000A4000000CF0083
:1010B00000009B000000B80000008A000000B8009B
:1010C00000008A0000009200000092000000520020
:1010D00000007B000000A40000007B000000520024
:1010E00000007B0000005C0000008A000000B800E7
:1010F00000008A000000490000006E00000092001D
:1011000000006E000000520000007B000000A40000
:1011100000007B0000006E000000A4000000DC0066
:101120000000A40000005C0000008A000000B8007D
:1011300000008A000000490000006E0000009200DC
:1011400000006E000000520000007B000000A400C0
:1011500000007B0000006E000000A4000000DC0026
:101160000000A40000005C0000008A000000B8003D
:1011700000008A000000490000006E00000092009C
:1011800000006E000000520000007B000000A40080
:1011900000007B0000006E000000A4000000DC00E6
:1011A0000000A4000000490000006E000000920052
:1011B000000045000000670000008A000000670092
:1011C0000000490000006E000000920000006E0068
:1011D000000045000000670000008A000000670072
:1011E000000092000000A4000000DC000000A40049
:1011F0000000DC0000000000000000000000000013
:1012000000001D0000004A010000E8010000E801A4
:101210000000BD020000BD020000520400005204A4
:101220000000EC050000EC050000BA060000BA065C
:1012300000004C0800004C080000740800009708EB
:101240000000DE090000DE090000A70A0000A70A6E
:101250000000540C0000540C0000EA0D0000EF0DDB
:1012600000009B0E0000A20E0000620F00006B0F3A
:1012700000003410000034100000991000009F108E
:10128000000003110000031100002411000083116D
:1012900000008311000093110000321200003B1285
:1012A00000006C1300006C130000351400003514AE
:1012B000000065140000DB140000F8140000F814AE
:1012C0000000C7150000C71500008616000086162E
:1012D000000021170000281700004F170000971783
:1012E00000001618000016180000BC180000CC18EA
:1012F0000000D21800006319000090190000901936
:101300000000E61A0000FC1A00000C1B0000381B4D
:101310000000CF1B0000DE1B0000521D0000521D0C
:1013200000006D1D0000081E0000081E0000171EB2
:1013300000008C1F00008C1F000061200000612055
:1013400000007C2000001821000018210000472127
:1013500000007E2100007E210000A3220000A322C5
:1013600000002223000024230000692300009523AD
:1013700000003924000042240000EA240000432534
:101380000000752600007526000095260000052740
:101390000000372700003C270000E1270000E82775
:1013A00000000928000081280000B9280000B928A1
:1013B0000000172900002129000058290000642995
:1013C000000064290000DA290000DA290000DE2983
:1013D0000000892A00008F2A0000BA2B0000BA2BD7
:1013E00000007D2C00007D2C0000A12C0000482D69
:1013F0000000482D00006C2D0000102E0000102E63
:101400000000532E0000CB2E0000D02E0000D02E66
:101410000000822F0000852F0000972F0000293048
:10142000000053300000533000000F3100001C3129
:10143000000072310000D3310000D3310000E131EF
:101440000000483300004833000053330000A2334B
:1014500000002834000028340000D9340000E534AE
:101460000000993500009935000009360000563615
:101470000000563600007D360000093700001237A4
:101480000000CD370000CD37000030380000303884
:1014900000007F38000057390000D33A0000DA3AE4
:1014A0000000A03B0000A03B0000443C0000443C86
:1014B0000000BC3C0000BC3C0000023E0000023EBC
:1014C0000000C73E0000C73E0000E53E00005A3F56
:1014D0000000813F0000813F0000CD3F0000CD3F74
:1014E00000004C4000004C40000005410000054158
:1014F0000000D4410000D4410000FD4100005D42E5
:1015000000007E4200007E420000EC420000EC42FF
:1015100000005143000051430000294400002944C9
:101520000000DC440000DE440000DE4400005545BD
:1015300000009E4500009E4500006746000067468B
:1015400000001F4700001F470000C5470000C847B4
:101550000000E24700002F480000A1480000A14819
:101560000000654900006B490000EC4A0000EC4AAD
:101570000000534B0000814B0000A54B0000A54B21
:101580000000104C0000104C00006D4C00006D4C31
:101590000000364D0000364D0000004E0000004EA9
:1015A0000000254E00008D4E0000B34E0000B34EEB
:1015B000000040500000405000000751000007515B
:1015C00000002051000099510000C0510000C0519E
:1015D00000008E5200008E5200005E5300005E53E9
:1015E0000000ED530000F05300001B5400004B546A
:1015F0000000D1540000D15400008F5500008F55D9
:1016000000000757000012570000165700007557DA
:101610000000C8570000C85700001A5800001A58A8
:1016200000009258000092580000435900004359AE
:101630000000125A0000125A0000355A00008B5A5E
:101640000000C25A0000C25A00002A5B00002A5B58
:101650000000805B0000805B00004A5C00004A5C88
:101660000000075D0000075D00002A5D00008D5D41
:101670000000C35D0000C35D0000985E0000985E3E
:1016800000005A5F00005A5F0000086000000C6014
:1016900000000C60000067600000CF600000CF60B9
:1016A00000008C6100008C610000E6610000E661D2
:1016B00000004962000049620000216300002163CC
:1016C00000006F630000E1630000EE630000EE6362
:1016D00000004364000043640000AA640000AA64A0
:1016E000000079650000796500003E6600003E66F6
:1016F00000004B660000C5660000306900003669D6
:101700000000366900008B690000FF690000FF6976
:101710000000566A0000566A0000B06A0000B06A15
:101720000000776B0000776B00003D6C00003D6CA3
:1017300000005F6C0000E66C0000496F0000516F14
:101740000000CE6F0000FF6F0000237000005E708D
:101750000000E37000009D7100009D710000D471D5
:10176000000063720000B9720000E9730000E973C1
:101770000000677500006775000077750000F77559
:1017800000002F7600002F76000071760000717641
:101790000000ED760000ED760000AF770000AF7737
:1017A00000008478000084780000B77800003C795D
:1017B00000003C790000A3790000A8790000A87916
:1017C0000000137A0000137A0000CC7A0000CC7A73
:1017D0000000727B0000747B0000877B0000417C6E
:1017E0000000597C0000597C0000BC7C0000C67CD5
:1017F0000000167D0000727D0000DE7D0000677E27
:101800000000617F00006B7F0000727F00003D8060
:1018100000003D800000A1800000FF800000FF80EC
:1018200000006B81000077810000138200006D8250
:10183000000088820000C882000045830000808389
:1018400000000A8400003884000088850000888534
:101850000000058700000C870000188700009E87A5
:101860000000A3880000A38800005E8900005E8954
:101870000000898900009E890000238A00008C8A6C
:101880000000698C0000698C0000F38D0000F38D6E
:1018900000000F8E00007F8E0000B58E0000B58E18
:1018A0000000128F0000128F00007A8F00007A8FE4
:1018B00000002790000027900000F9900000F990A8
:1018C000000028910000A6910000A6910000BD91A3
:1018D000000045920000459200007D9200007D923C
:1018E00000004993000049930000FD930000FE931F
:1018F00000000094000065940000BB940000BB94BD
:1019000000007D9500007D950000EA95000002969C
:1019100000003A96000081960000B7970000C0973B
:1019200000007598000075980000379900003799FD
:1019300000005F990000E7990000BF9A0000BF9A7D
:101940000000749B0000749B0000319C0000319CDF
:101950000000EB9C0000EB9C0000A49D0000A49DF7
:101960000000E29E0000EE9E0000239F00004B9FBF
:10197000000096A0000096A00000A3A0000063A1B4
:10198000000063A1000071A10000BCA20000BEA283
:101990000000D7A2000033A30000E9A50000E9A5DC
:1019A0000000ECA500005DA60000A8A60000A8A607
:1019B00000000CA700000CA700007CA700007CA77B
:1019C00000003AA800003AA8000000A9000000A901
:1019D00000001CA90000A5A90000B5A90000B5A938
:1019E00000001DAA00001DAA00007CAA00007CAA1D
:1019F000000031AB000031AB0000F6AB0000F6ABED
:101A00000000F7AB00007EAC0000BEAC0000BEAC36
:101A1000000085AD000085AD0000A1AD000005AE61
:101A2000000033AE000072AE0000BDAF0000C6AFD4
:101A300000008DB000008DB000004CB1000057B127
:101A4000000057B10000F7B10000C9B20000CEB2EB
:101A5000000093B3000093B300005BB400005BB4DC
:101A600000006AB400000CB50000E1B50000E1B56B
:101A700000005AB700005EB7000062B7000005B86A
:101A80000000DAB80000DAB800008FB900008FB9A2
:101A9000000019BA00001BBA00005CBA0000D5BAF9
:101AA0000000A3BC0000A3BC000021BE000021BEBA
:101AB00000003CBE0000BDBE0000DBBE0000DBBE7F
:101AC000000037BF000037BF0000AEBF0000AEBF50
:101AD000000067C0000067C000002FC100002FC1D8
:101AE000000054C10000F1C1000055C200005BC2FB
:101AF0000000B5C20000B5C2000062C3000062C3AE
:101B0000000031C4000031C400003EC40000CAC45B
:101B10000000EBC40000EBC40000B1C50000B1C57B
:101B200000006CC600006CC60000A6C600000FC70F
:101B30000000E1C70000E6C70000B4C80000B4C858
:101B4000000080C9000080C90000A6C9000043CA87
:101B50000000DECA0000DECA00009CCB00009CCB67
:101B6000000064CC000064CC00002BCD00002BCD25
:101B70000000ECCD0000ECCD000077CF00007ACF64
:101B800000007ACF0000E2CF0000F2D00000F2D0D7
:101B9000000030D10000AFD10000AFD10000CDD1A6
:101BA0000000F5D1000063D200001DD3000025D352
:101BB000000025D30000B7D300000FD600001CD6CC
:101BC00000001FD60000E1D60000A5D70000A5D771
:101BD00000005FD800005FD800002CD900002CD98D
:101BE00000008DDA000097DA00002CDB00002DDB0E
:101BF000000060DB0000AFDB0000DEDC0000DEDCAC
:101C00000000A6DD0000A6DD000066DE000066DE46
:101C10000000D3DF0000E0DF0000A1E00000A1E051
:101C2000000079E1000079E1000099E1000016E28E
:101C3000000005E3000005E30000C1E30000C1E38C
:101C400000007DE400007DE4000042E5000042E584
:101C500000007FE700007FE7000093E7000007E84F
:101C6000000008E9000008E90000BFE90000BFE942
:101C7000000031EA000033EA00007AEA0000AFEA2F
:101C8000000039ED0000A7ED00002AEE000037EE5D
:101C9000000037EE000083EE0000C1EF0000C1EF4E
:101CA000000070F0000070F0000034F100004DF111
:101CB00000006AF100008FF1000047F200008FF38E
:101CC000000092F3000023F4000003F5000003F588
:101CD0000000BCF50000BCF5000080F6000080F6B6
:101CE0000000F1F70000F1F7000055F900005BF982
:101CF0000000EFF90000EFF9000003FA000095FA88
:101D00000000E9FB0000F6FB0000ABFF0000B7FF9E
:101D10000000B7FF0000210001002A0101002A0194
:101D20000100F9010100F9010100A6020100A6026B
:101D300001005A0301005D0301007E030100C3039B
:101D40000100E3040100490501006C0601006E0674
:101D500001006F060100D90601000B070100110701
:101D60000100DD070100E3070100190801008608F2
:101D700001001F0901001F0901006809010088090D
:101D8000010088090100C70901000C0A01000C0AC2
:101D90000100AD0A0100B90A0100D90A01002F0BA8
:101DA0000100E20B0100E20B01009C0C01009C0C05
:101DB0000100AA0C0100190D01005A0D01005A0D75
:101DC0000100280E0100280E0100E80E0100E80EB7
:101DD00001005F0F0100A10F0100A10F0100D50F4D
:101DE000010059100100591001001F1101002411B8
:101DF0000100DF110100DF110100D21201004413C4
:101E000001004F1301005A1301002014010028148F
:101E10000100A3150100A3150100B01501000B1668
:101E200001005B16010061160100E4170100E417D0
:101E30000100B0180100B0180100CD1801003519DB
:101E400001006019010060190100B9190100B919F8
:101E50000100E71A0100E71A0100A01B0100A31B03
:101E60000100A31B0100F01B0100AD1C0100AE1C12
:101E700001002E1D0100BD1D0100B31E0100B31E97
:101E80000100BC1E01002F1F0100751F0100801FF3
:101E900001001F2001002520010051200100BF206A
:101EA0000100EC200100EC2001004B210100582131
:101EB00001007D2101009F2101009F210100EA21F5
:101EC00001001822010018220100D1220100D722AE
:101ED0000100092301007B230100012401000124EA
:101EE0000100B8240100B8240100C22401005125DA
:101EF00001007B2501007B2501004F2601004F26B4
:101F0000010004270100042701005D27010061276B
:101F10000100C92701000D2801008728010087283A
:101F20000100422901004A2901000C2A01000C2A63
:101F300001000E2B0100872B0100942B0100B92B0F
:101F400001004E2C01005E2C0100852C0100A82C04
:101F50000100212D0100282D0100DC2D0100DC2DC8
:101F60000100DC2D0100572E0100A12E0100A12E41
:101F70000100512F0100552F01005A2F0100A12F00
:101F800001000B3001000B3001008630010086306B
:101F90000100EA300100A93101001B3301002033A8
:101FA0000100CF330100CF330100883401008834B1
:101FB0000100F7340100F73401008A350100AF3524
:101FC00001003F3601003F360100063701000637A9
:101FD00001003237010085370100C5370100C537E0
:101FE00001001938010019380100893801008938C9
:101FF000010049390100493901000A3A01000A3A51
:1020000001003C3A0100873A0100BF3A0100BF3AA3
:1020100001002A3B01002A3B01008D3B01008D3B62
:1020200001004C3C01004C3C01000D3D01000D3D08
:102030000100173D01007F3D0100CE3D0100CE3D76
:102040000100883E0100883E01004E3F01004E3FE6
:1020500001000C40010010400100104001008140CF
:102060000100D3400100D34001008F4101009D4198
:10207000010019430100194301006E430100BE43F2
:102080000100DA430100DA43010029440100294438
:102090000100A0440100A04401005C4501005C4532
:1020A00001002B4601002B46010058460100CA469C
:1020B0000100E4460100E44601009D470100A447F9
:1020C00001008D4801008D4801003E4901003F4953
:1020D00001003F490100A5490100FB490100FB49FE
:1020E0000100BB4A0100BB4A0100954B0100954B22
:1020F0000100474C0100474C0100524C0100B14C1B
:102100000100094D0100094D0100CE4D0100CE4DE9
:1021100001003B4F0100484F01006B4F0100D04FC1
:1021200001001350010013500100515001005150A3
:102130000100CE500100CE500100875101008751AF
:1021400001004D5201004D52010074520100F15244
:102150000100FA520100FA5201005C5301005C5385
:102160000100B3530100B3530100815401008154B5
:102170000100445501004455010058550100CB555C
:102180000100F6550100F6550100B6560100B6569D
:1021900001007E5701007E5701003B5801003B586B
:1021A000010057580100B9580100F3580100F358D5
:1021B0000100C4590100C45901003A5A01003A5AB9
:1021C00001008A5A01008A5A0100535B0100535BE7
:1021D0000100AA5B01000A5C0100115C0100115CB6
:1021E00001007C5C01007C5C0100E15C0100E15CC1
:1021F0000100B65D0100B65D0100695E0100695E27
:102200000100795E0100035F0100736101007361E9
:1022100001008E610100046201003362010033623B
:1022200001008B6201008B620100FC620100FC6214
:102230000100BE630100BE6301008D6401008D6476
:102240000100A36401002E650100A5670100AB67D2
:102250000100ED6701006A6801006A680100986882
:1022600001003469010068690100F06901006B6ACE
:102270000100BF6A01003D6B01003E6C01003E6C35
:102280000100B76D0100B76D0100C96D0100166E48
:102290000100576F0100656F01000F71010014719B
:1022A00001008C71010049730100BE7A0100DD7AE2
:1022B0000100000000000000000070030000930215
:1022C0000000DB0300005404000070030000DB0387
:1022D0000000260526052605000070030000DB032C
:1022E000000070030000B8010000B8010000B80150
:1022F00000004901000049010000B801B8010000D8
:10230000ED01ED010000ED010000B8010000ED015C
:10231000ED01ED010000B8010000ED0100004B02ED
:10232000000000002A022A020000ED01ED01000079
:10233000ED01ED010000B801B8010000B801B801DD
:10234000000093020000B801B801000000009302F1
:102350000000B80100004B024B0200002A022A02D2
:102360000000ED010000B801B80100002A022A02B5
:102370002A020000ED01ED010000B801B801B8012A
:102380000000B8010000B801B801B801000049011F
:102390000000490149010000B8010000ED01ED0114
:1023A0000000ED010000B8010000ED01ED010000AA
:1023B000B801B8010000ED01ED01ED0100004B0294
:1023C0004B0200002A022A020000ED010000ED018C
:1023D000ED010000B801B80100000000B801B8012B
:1023E00000009302000093020000E302E3020000F9
:1023F000B801B8010000B80100002A020000ED0198
:10240000ED01ED010000ED0100004B0200002A0289
:102410000000ED0100002A020000B801B801B80177
:10242000000049010000B801000049010000B801A6
:102430000000ED01ED01ED010000B8010000ED012B
:102440000000B8010000ED01ED0100002A022A029F
:102450000000ED010000B8010000ED0100000000E7
:102460002A022A0200009302000093020000B80131
:10247000B801B801000049010000B801000049019D
:102480000000B8010000ED01ED01ED010000B80110
:102490000000ED0100002A022A022A020000ED01DC
:1024A0000000B8010000490149010000B801B8016D
:1024B0000000ED010000B8010000B801B801B8014A
:1024C000000049010000B801000049010000B80106
:1024D0000000ED01ED01ED010000B8010000ED018B
:1024E0000000B8010000ED0100002A022A022A02C1
:1024F0000000ED010000B8010000ED01ED01000059
:102500002A022A020000930200002A020000ED01C4
:102510000000B80100007101710171010000490162
:102520000000710100004901000071010000B801C4
:10253000B801B801B8010000710171010000490142
:102540000000710100004901000071010000B801A4
:10255000B801B8010000B801B8010000490100004D
:1025600071010000B80100002A022A020000ED01FA
:1025700000004901490149010000DC000000490157
:102580000000DC0000004901000071017101000041
:10259000DC00DC00000071010000DC0000007101C3
:1025A00000000000B801B80100009F019F01000079
:1025B00049010000B801B801B8010000B8010000ED
:1025C0009F019F0100004901490100000000000037
:1025D0004901000071010000490149010000DC00CF
:1025E000DC000000F600F6000000DC0000004901FD
:1025F00049010000150115010000DC00000049013F
:10260000490149010000DC00000049010000DC0034
:10261000000049010000710171010000DC00DC00D4
:10262000000071010000DC00000071010000B80131
:10263000B801B80100009F010000490149010000F4
:10264000B801B8010000B8010000ED0100002A0245
:102650002A022A0200004B0200002A0200004B025C
:1026600000002A020000B80100000000ED01ED01A9
:102670000000B801B80100009F019F0100000000A8
:10268000B801B80100004901490149010000DC001E
:10269000000049010000DC00000049010000710158
:1026A000710171010000DC00000071010000DC001C
:1026B000000071010000B801B801B80100009F01DD
:1026C0000000490149010000B801B8010000B8014B
:1026D00000009F019F0100004901490100004901DC
:1026E0000000710100004901490149010000DC00BE
:1026F000DC000000F600F6000000DC0000004901EC
:1027000049010000150115010000DC00000049012D
:10271000490149010000DC00000049010000DC0023
:102720000000490100007101710171010000710197
:102730000000DC00000071010000B801B801B80120
:1027400000009F01000049010000B801B801B80174
:102750000000B8010000ED0100002A022A022A024E
:1027600000004B0200002A0200004B0200002A0277
:102770000000B801B8010000ED01ED010000B80152
:10278000B80100009F019F019F019F019F01000070
:10279000B801B8010000B801B801B80100009F01FC
:1027A000000049010000DC000000DC00DC0000004B
:1027B000B801B80100009F01000049010000DC00E1
:1027C0000000DC000000F6000000150115011501F5
:1027D0000000250100001501000025010000150181
:1027E00000004901490149010000250100001501CF
:1027F0000000000049014901490149014901000067
:10280000B801B80100009F01000049014901000022
:10281000150115010000B801B801B80100009F01C1
:102820000000ED010000B80100004901000049016D
:10283000000071017101710100007101710100005E
:102840009F019F010000B80100009F010000B80136
:10285000000000009F019F019F019F010000B8013F
:10286000B801B8010000B8010000B801B801B80112
:102870000000490149010000B801B8010000ED0164
:102880000000ED01ED01ED010000B8010000ED01D7
:10289000ED01ED010000B8010000ED0100004B0268
:1028A0004B0200002A022A020000ED010000ED01A7
:1028B0000000B801B801B8010000B801000093029F
:1028C0000000B801B801B801000093020000B8018F
:1028D00000004B024B024B0200002A020000ED01F7
:1028E0000000B801B80100002A022A022A020000F2
:1028F000ED01ED010000B801B801B8010000B80118
:102900000000B801B801B801000049010000490108
:1029100049010000B801B8010000ED010000ED011F
:10292000ED01ED010000B8010000ED01ED01ED0148
:102930000000B8010000ED0100004B024B02000056
:102940002A022A020000ED010000ED010000B8019A
:10295000B8010000B801B80100009302930293028D
:10296000000093020000E302E302E3020000B8016A
:1029700000000000B801B80100002A020000ED01CB
:10298000ED01ED010000ED0100004B0200002A0204
:102990000000ED01ED01ED0100002A020000B80188
:1029A000B801B801000049010000B8010000490168
:1029B0000000B8010000ED01ED01ED010000B801DB
:1029C0000000ED010000B8010000ED0100002A0246
:1029D0002A022A020000ED010000B8010000ED010A
:1029E000ED0100002A022A02000093020000930277
:1029F0000000B801B801B801000049010000B801A9
:102A0000000049010000B8010000ED01ED01ED01F9
:102A10000000B8010000B8010000ED01ED01000068
:102A20002A022A020000ED010000B801000049015D
:102A30000000B801B801B8010000ED010000B801C4
:102A40000000B801B801B801000049010000B80158
:102A5000000049010000B8010000ED01ED01ED01A9
:102A60000000B8010000ED010000B8010000ED0118
:102A700000002A022A022A020000ED010000B8012B
:102A80000000ED0100002A022A022A02000093023F
:102A900000002A020000ED010000B80100007101F1
:102AA000710171010000490100007101000049013C
:102AB000000071010000B801B801B8010000710107
:102AC000710171010000490100007101000049011C
:102AD000000071010000B801B801B8010000B801A0
:102AE000B80100004901000071010000B8010000B8
:102AF0002A022A020000ED010000B801B801B80165
:102B00000000B8010000B801B801B801B801000028
:102B100000000000240027002A000000000025001B
:102B200028002B00020100000000002300260029DD
:102B30000004040404040404040202020202020366
:102B40000303030303010204081020408001020470
:102B500008102001020408102000000008000201F3
:102B60000000030407000000000000000000261E13
:102B700011241FBECFEFD8E0DEBFCDBF11E0A0E033
:102B8000B1E0E8E3FDE302C005900D92AA33B1077E
:102B9000D9F722E0AAE3B1E001C01D92AA31B20741
:102BA000E1F715E1C8EBD5E104C02197FE010E94D1
:102BB000941EC73BD107C9F70E94A3190C949A1E13
:102BC0000C940000AF92BF92CF92DF92EF92FF92EF
:102BD0000F931F93CF93DF936C017B018B01040F45
:102BE000151FEB015E01AE18BF08C017D10759F0E1
:102BF0006991D601ED91FC910190F081E02DC60123
:102C00000995892B79F7C501DF91CF911F910F911C
:102C1000FF90EF90DF90CF90BF90AF900895FC01B0
:102C2000538D448D252F30E0842F90E0821B930B31
:102C3000541710F0CF96089501970895FC01918DD7
:102C4000828D981761F0A28DAE0FBF2FB11D5D96DA
:102C50008C91928D9F5F9F73928F90E008958FEF7C
:102C60009FEF0895FC01918D828D981731F0828D30
:102C7000E80FF11D858D90E008958FEF9FEF089587
:102C8000FC01918D228D892F90E0805C9F4F821BEB
:102C900091098F73992708958DE791E00E9440165E
:102CA00021E0892B09F420E0822F089580E090E054
:102CB000892B29F00E944C1681110C940000089574
:102CC000FC01A48DA80FB92FB11DA35ABF4F2C91A1
:102CD000848D90E001968F739927848FA689B78998
:102CE0002C93A089B1898C91837080648C93938D8F
:102CF000848D981306C00288F389E02D80818F7D32
:102D000080830895EF92FF920F931F93CF93DF93E9
:102D1000EC0181E0888F9B8D8C8D98131AC0E88917
:102D2000F989808185FF15C09FB7F894EE89FF89E6
:102D30006083E889F98980818370806480839FBF84
:102D400081E090E0DF91CF911F910F91FF90EF9084
:102D50000895F62E0B8D10E00F5F1F4F0F73112794
:102D6000E02E8C8D8E110CC00FB607FCFACFE889CF
:102D7000F989808185FFF5CFCE010E946016F1CFE1
:102D8000EB8DEC0FFD2FF11DE35AFF4FF0829FB743
:102D9000F8940B8FEA89FB8980818062CFCFCF9333
:102DA000DF93EC01888D8823B9F0AA89BB89E88973
:102DB000F9898C9185FD03C0808186FD0DC00FB619
:102DC00007FCF7CF8C9185FFF2CF808185FFEDCF97
:102DD000CE010E946016E9CFDF91CF910895833034
:102DE00081F028F4813099F08230A9F0089587307D
:102DF000A9F08830C9F08430B1F4809180008F7DD3
:102E000003C0809180008F7780938000089584B5FF
:102E10008F7784BD089584B58F7DFBCF8091B000FE
:102E20008F778093B00008958091B0008F7DF9CFA7
:102E3000CF93DF93E9E5FBE28491E5E4FBE2D491F3
:102E4000E1E3FBE2C491CC23A1F081110E94EF16D3
:102E5000EC2FF0E0EE0FFF1FE95DF44DA591B4916A
:102E6000EC91ED2381E090E009F480E0DF91CF91D7
:102E7000089580E090E0FACF1F93CF93DF93282F3F
:102E800030E0F901E75AF44D8491F901EB5BF44D20
:102E9000D491F901EF5CF44DC491CC23A9F0162F25
:102EA00081110E94EF16EC2FF0E0EE0FFF1FE65E9F
:102EB000F44DA591B4918FB7F894EC91111108C01D
:102EC000D095DE23DC938FBFDF91CF911F910895C2
:102ED000DE2BF8CFCF93DF9390E0FC01EB5BF44D5A
:102EE00024918F5C944DFC0184918823D1F090E073
:102EF000880F991FFC01E05FF44DA591B491FC018E
:102F0000E65EF44DC591D491623071F49FB7F894A8
:102F10003C91822F809583238C93E8812E2B2883EC
:102F20009FBFDF91CF9108958FB7F894EC912E2B2E
:102F30002C938FBFF6CF3FB7F89480913B019091CF
:102F40003C01A0913D01B0913E0126B5A89B05C072
:102F50002F3F19F00196A11DB11D3FBFBA2FA92F18
:102F6000982F8827BC01CD01620F711D811D911D15
:102F700042E0660F771F881F991F4A95D1F7089581
:102F80000C949B17FC019181913069F0923089F08B
:102F9000911105C090916E009D7F90936E0060E04E
:102FA00080810C943C1790916F009D7F90936F00EF
:102FB000F6CF909170009D7F90937000F0CFCF93EB
:102FC000DF93FC0101900020E9F73197AF01481B26
:102FD000590BBC018DE791E00E94E215EC0142E043
:102FE00050E062E271E08DE791E00E94E2158C0F03
:102FF0009D1FDF91CF9108951F920F920FB60F92F0
:1030000011242F933F934F935F936F937F938F93ED
:103010009F93AF93BF93EF93FF938DE791E00E944F
:103020006016FF91EF91BF91AF919F918F917F912A
:103030006F915F914F913F912F910F900FBE0F9025
:103040001F9018951F920F920FB60F9211242F9375
:103050008F939F93EF93FF93E0918D01F0918E01F9
:103060008081E0919301F091940182FD1BC09081D9
:10307000809196018F5F8F7320919701821741F0A5
:10308000E0919601F0E0E358FE4F958F8093960112
:10309000FF91EF919F918F912F910F900FBE0F9005
:1030A0001F9018958081F4CF1F920F920FB60F9248
:1030B00011242F933F938F939F93AF93BF9380914E
:1030C000490190914A01A0914B01B0914C0130917E
:1030D0003A0123E0230F2D3758F50196A11DB11DAC
:1030E00020933A018093490190934A01A0934B01A8
:1030F000B0934C0180913B0190913C01A0913D0126
:10310000B0913E010196A11DB11D80933B019093AA
:103110003C01A0933D01B0933E01BF91AF919F91BF
:103120008F913F912F910F900FBE0F901F90189588
:1031300026E8230F0296A11DB11DD2CF1F920F9238
:103140000FB60F9211242F933F938F939F93AF93BA
:10315000BF93EF93FF9380914D0190914E01A09109
:103160004F01B09150010097A105B10531F13091A7
:103170003F01E0914001F09141012081232720830C
:10318000181619061A061B061CF40197A109B109A5
:1031900080934D0190934E01A0934F01B093500145
:1031A000FF91EF91BF91AF919F918F913F912F919F
:1031B0000F900FBE0F901F901895209170002D7FDB
:1031C0002093700020913F01E0914001F091410176
:1031D0003081209523232083DBCF1F920F920FB6DF
:1031E0000F9211248F939F93AF93BF93EF93FF930D
:1031F0008091510190915201A0915301B0915401DD
:10320000892B8A2B8B2BA1F190914201E0914301F4
:10321000F0914401808189278083809151019091B0
:103220005201A0915301B0915401181619061A06C3
:103230001B069CF48091510190915201A091530181
:10324000B09154010197A109B10980935101909364
:103250005201A0935301B0935401FF91EF91BF919C
:10326000AF919F918F910F900FBE0F901F90189567
:1032700080916F008D7F80936F0080914201E0917B
:103280004301F09144019081809589238083E5CFAB
:103290001F920F920FB60F9211248F939F93AF93AB
:1032A000BF93EF93FF938091550190915601A091A8
:1032B0005701B0915801892B8A2B8B2BA1F190914A
:1032C0004501E0914601F091470180818927808383
:1032D0008091550190915601A0915701B0915801EC
:1032E000181619061A061B069CF480915501909138
:1032F0005601A0915701B09158010197A109B10958
:103300008093550190935601A0935701B0935801B3
:10331000FF91EF91BF91AF919F918F910F900FBE51
:103320000F901F90189580916E008D7F80936E0096
:1033300080914501E0914601F0914701908180958F
:1033400089238083E5CFCF93DF93CDB7DEB72A976C
:103350000FB6F894DEBF0FBECDBF789484B58260FF
:1033600084BD84B5816084BD85B5826085BD85B529
:10337000816085BD80916E00816080936E001092A7
:103380008100809181008260809381008091810022
:1033900081608093810080918000816080938000B3
:1033A0008091B10084608093B1008091B000816011
:1033B0008093B00080917A00846080937A0080913D
:1033C0007A00826080937A0080917A008160809395
:1033D0007A0080917A00806880937A001092C10010
:1033E000E0918D01F0918E0182E08083E09189016E
:1033F000F0918A011082E0918B01F0918C018FECA9
:10340000808310929501E0919101F091920186E004
:103410008083E0918F01F0919001808180618083B1
:10342000E0918F01F0919001808188608083E0912C
:103430008F01F0919001808180688083E0918F01FD
:10344000F091900180818F7D808362E080E00E9416
:103450006A1761E084E00E946A1761E085E00E94DB
:103460006A1761E086E00E946A17A9E5B1E009E702
:1034700011E06DE671E041E751E02DE531E082E1D8
:10348000282E81E0382EFF24FA94F101868197815D
:10349000F90191838083FA01119211921192119294
:1034A000AF01FB0111921192BF01F801119211922B
:1034B0008F01F101908180914801833008F023C190
:1034C0009C93E82FF0E0EC5DF44DE4911196EC93C1
:1034D00011978F5F80934801E13009F4C8C008F468
:1034E000A6C0E23009F4E9C0F90180819181FC01B4
:1034F000E150F04CCF01880F991F880F991FF101FF
:10350000C480D580F601E80FF91F4590559065906D
:1035100074908090610190906201A0906301B090DE
:10352000640184149504A604B70410F45301420105
:103530008092610190926201A0926301B092640155
:10354000F8E02F0E311C2E5F3F4F129682E22816B4
:1035500081E0380609F099CF0E94C01760E084E04E
:103560000E943C1785E291E00E94DF1700E010E026
:103570000E9418179C838B83019711F00B831C8387
:103580000E9418179A838983892B09F0C0C0AB81E8
:10359000BC81119709F0BBC061E084E00E943C1738
:1035A0008AE291E00E94DF176DE671E001E7C02E2C
:1035B00001E0D02E49E751E0A2E1B1E01496ED9090
:1035C000FC901597FA0180819181FC01EE0FFF1F9D
:1035D000EE0FFF1FEE0DFF1D059115912591349102
:1035E000F6010083118322833383FA012081318124
:1035F00089010F5F1F4FC801880F991F880F991FFE
:103600008E0D9F1DFC0185909590A590B490F601BC
:103610004080518062807380481459046A047B049E
:1036200009F078C0FA0111830083FC01D5CF14BCE6
:1036300015BC84B5826084BD85B5816085BD8C91E3
:1036400090E0FC01EF5CF44DE491F0E0EE0FFF1F21
:10365000E65EF44DC590D490D0924701C0924601E9
:10366000FC01EB5BF44DE491E09345013DCF1092FA
:103670008000109281008091810088608093810099
:10368000809181008160809381008C9190E0FC01A9
:10369000EF5CF44DE491F0E0EE0FFF1FE65EF44DB9
:1036A000C590D490D0924401C0924301FC01EB5BE1
:1036B000F44DE491E093420117CF1092B0001092C4
:1036C000B1008091B00082608093B0008091B10021
:1036D00081608093B1008C9190E0FC01EF5CF44D2F
:1036E000E491F0E0EE0FFF1FE65EF44DC590D4903C
:1036F000D0924101C0924001FC01EB5BF44DE4919A
:10370000E0933F01F1CE1196FC921197EDCE0B8123
:103710001C812ECF90E080E01216130664F4215035
:103720003048220F331F1296ED91FC911397E20F50
:10373000F31F85919491FB0181939193BF0118969A
:103740004E5F5F4FF4E0CF0ED11C81E0A232B8078C
:1037500009F034CF2FB7F8948091490190914A0134
:10376000A0914B01B0914C012FBF809369019093C0
:103770006A01A0936B01B0936C011E821D8240917F
:1037800065015091660160916701709168018091B7
:10379000610190916201A0916301B091640184176D
:1037A0009507A607B70708F42AC2AD81BE81119715
:1037B00009F425C22FB7F8948091490190914A01EC
:1037C000A0914B01B0914C012FBF409169015091E4
:1037D0006A0160916B0170916C01841B950BA60BC3
:1037E000B70B8093650190936601A0936701B09336
:1037F0006801E9E5F1E0FA87E98771E7272E71E0D2
:10380000372E8DE591E09C838B83E9E7CE2EE1E0B6
:10381000DE2EF12CE12CAB81BC818D919D91BC837E
:10382000AB83F60120813181281739070CF0E2C102
:103830000E941817019721F481E090E09A83898310
:103840000E941817892B61F4A981BA81119741F45C
:1038500085E391E00E94DF17E1E0F0E0FE83ED8375
:10386000C70183599E4F98878F83DC018D909C9070
:10387000181419040CF0B9C1E985FA85818187FD16
:1038800002C161E080810E946A17A985BA851196FC
:103890001C91092C000CAA08BB08812F8D7F09F010
:1038A00052C160E072E18AE790E0A50194010E94B4
:1038B000531E29013A01DA01C9010197A109B10991
:1038C0008F3F9105A105B10509F00CF4B8C060E483
:1038D00072E48FE090E0A50194010E94531E2150F4
:1038E000310941095109123009F06AC082E02F3FC5
:1038F00031054105510509F00CF45BC060E970ED3C
:1039000083E090E0A50194010E94531E21503109EB
:103910004109510983E02F3F31054105510509F067
:103920000CF447C068E478EE81E090E0A5019401D2
:103930000E94531E215031094109510984E02F3F53
:10394000310541055105A9F1A4F164E274EF80E06D
:1039500090E0A50194010E94531E215031094109B4
:10396000510985E02F3F31054105510511F108F15D
:1039700062E17AE780E090E0A50194010E94531E85
:10398000215031094109510986E02F3F3105410598
:10399000510579F070F09AE07594679457944794C4
:1039A0009A95D1F7A301920121503109410951099A
:1039B00087E09091B100987F892B8093B10047C038
:1039C0002F3F31054105510509F00CF4BAC068E4F8
:1039D00078EE81E090E0A50194010E94531E2150F1
:1039E00031094109510984E01111BCCF83E02F3F17
:1039F00031054105510539F134F162E17AE780E0A2
:103A000090E0A50194010E94531E21503109410903
:103A1000510984E02F3F310541055105A1F098F08F
:103A20008AE075946794579447948A95D1F7A301D7
:103A30009201215031094109510985E004C09C01DE
:103A400081E01111B6CF95B5987F892B85BDE985A9
:103A5000FA858181813009F4A0C0823009F4B2C0B6
:103A6000811111C027BD8FEF9FEFDC0180935501BD
:103A700090935601A0935701B093580180916E0026
:103A8000826080936E00D1014D915D916D917C912A
:103A90008091650190916601A0916701B0916801E4
:103AA00084179507A607B70708F437C0F6012081E9
:103AB0003181C901019691838083EB81FC8132972A
:103AC000408151818417950744F5D701AA0FBB1F88
:103AD000AA0FBB1FAE5EBE4F220F331F1296ED9191
:103AE000FC911397E20FF31F45915491EF81F885F4
:103AF00051834083880F991F880F991F1496ED9169
:103B0000FC91E80FF91F4591559165917491D10190
:103B10004D935D936D937C931397B2E0CB0ED11CC4
:103B2000E4E02E0E311C89859A8502969A87898752
:103B300092E0E90EF11CA4E0EA16F10409F41FCEAC
:103B40006ACE82E07ECF60E072E18AE790E0A50174
:103B500094010E94531E215031094109510991E0FD
:103B600021153105B1E04B0751056CF068E478EEA2
:103B700081E090E0A50194010E94531E215031097B
:103B80004109510993E0113009F061CF8091810022
:103B9000887F892B809381005ACF309389002093AE
:103BA00088008FEF9FEFDC018093510190935201C9
:103BB000A0935301B093540180916F008260809371
:103BC0006F0061CF2093B3008FEF9FEFDC018093F4
:103BD0004D0190934E01A0934F01B09350018091FD
:103BE00070008260809370004ECF89859A850E9414
:103BF000C21749CF89859A850E94C2178ECF10922D
:103C0000650110926601109267011092680110928E
:103C10007A011092790189E591E00E94C217109211
:103C20007C0110927B018BE591E00E94C2170E94FB
:103C3000C01780E090E0892B09F490CC0E944C16CC
:103C4000882309F48BCC0E94000088CCEDE7F1E0DA
:103C50001382128288EE93E0A0E0B0E08483958323
:103C6000A683B78384E091E09183808385EC90E024
:103C70009587848784EC90E09787868780EC90E036
:103C8000918B808B81EC90E0938B828B82EC90E027
:103C9000958B848B86EC90E0978B868B118E128EA1
:103CA000138E148E0895052E97FB1EF400940E9427
:103CB0006A1E57FD07D00E94721E07FC03D04EF407
:103CC0000C946A1E50954095309521953F4F4F4F6B
:103CD0005F4F089590958095709561957F4F8F4FB8
:103CE0009F4F0895A1E21A2EAA1BBB1BFD010DC018
:103CF000AA1FBB1FEE1FFF1FA217B307E407F5079C
:103D000020F0A21BB30BE40BF50B661F771F881F77
:103D1000991F1A9469F760957095809590959B010D
:103D2000AC01BD01CF010895EE0FFF1F0590F49186
:083D3000E02D0994F894FFCF87
:103D3800000000008216E2150F16CF1640161E1658
:103D480032160900B222F6112F040A001C0C680072
:103D5800ED020D0A007761697400506C6179696E33
:0A3D6800672E2E2E00736B697000A9
:00000001FF
