:100000000C94A8250C94D0250C94D0250C94D025C4
:100010000C94D0250C94D0250C94D0250C948E28CB
:100020000C94D0250C94D0250C94D0250C94DD286C
:100030000C94D0250C94D0250C9438290C94D02500
:100040000C9444280C94D0250C9412280C94EC2782
:100050000C94D0250C94D0250C94D0250C94D0254C
:100060000C94D0250C94D025000000000000000066
:100070000000000000000000000000000000000080
:100080000000000000000000000000000000000070
:100090000000000000000000000000000000000060
:1000A0000000000000000000000000000000000050
:1000B0000000000000000000000000000000000040
:1000C0008A0100001503000015030000A0040000D1
:1000D000A00400002A0600002A060000B507000060
:1000E000B50700004009000040090000CB0A0000ED
:1000F000CB0A0000550C0000550C0000E00D00007C
:10010000E00D00006B0F00006B0F0000F610000008
:10011000F610000080120000801200000B14000096
:100120000B14000096150000961500002117000022
:1001300021170000AB180000361A00005E1B0000FB
:100140005E1B0000C11B0000C11B0000861C0000DC
:10015000861C00004C1D00004C1D0000111E0000FC
:10016000111E0000D61E0000D61E00009C1F0000BD
:100170009C1F000061200000612000008921000018
:1001800089210000EC210000EC210000B1220000D8
:10019000B122000076230000762300003C240000FA
:1001A0003C2400000125000001250000C7250000B7
:1001B000C72500008C2600008C260000B427000014
:1001C000B42700001728000017280000DC280000D2
:1001D000DC280000A1290000A1290000672A0000F6
:1001E000672A00002C2B00002C2B0000F22B0000B3
:1001F000F22B0000B72C0000B72C0000DF2D000010
:10020000DF2D0000422E0000422E0000072F0000CC
:10021000072F0000CC2F0000CC2F000092300000F0
:100220009230000057310000573100001C320000AE
:100230001C320000E2320000E23200000A3400000A
:100240000A3400006D3400006D34000032350000C7
:1002500032350000F7350000F7350000BD360000EC
:10026000BD360000823700008237000047380000AA
:10027000473800000D3900000D390000353A000004
:10028000353A0000983A0000983A00005D3B0000C3
:100290005D3B0000223C0000223C0000E83C0000E6
:1002A000E83C0000AD3D0000AD3D0000723E0000A6
:1002B000723E0000383F0000383F00006040000000
:1002C00060400000C2400000C240000088410000C1
:1002D000884100004D4200004D42000013430000E1
:1002E00013430000D8430000D84300009D440000A1
:1002F0009D44000063450000634500008B460000FC
:100300008B460000ED460000ED460000B3470000BC
:10031000B347000078480000784800003E490000DC
:100320003E490000034A0000034A0000C84A00009A
:10033000C84A00008E4B00008E4B0000B64C0000F7
:10034000B64C0000184D0000184D0000DE4D0000B6
:10035000DE4D0000A34E0000A34E00002E50000012
:100360002E500000B9510000B9510000E1520000C8
:10037000E1520000435300004353000009540000C1
:1003800009540000CE540000CE540000595600001D
:1003900059560000E4570000E45700000C590000D3
:1003A0000C5900006E5900006E590000345A0000CC
:1003B000345A0000F95A0000F95A0000845C000029
:1003C000845C00000E5E00000E5E0000375F0000DF
:1003D000375F0000995F0000995F00005F600000D8
:1003E0005F6000002461000024610000AF62000033
:1003F000AF620000396400003964000061650000EC
:1004000061650000C4650000C46500008A660000E4
:100410008A6600004F6700004F670000DA6800003E
:10042000DA680000646A0000646A00008C6B0000F7
:100430008C6B0000EF6B0000EF6B0000B46C0000F1
:10044000B46C00007A6D00007A6D00003F6E000011
:100450003F6E0000056F0000056F0000CA6F0000CE
:10046000CA6F00008F7000008F700000B77100002D
:10047000B77100001A7200001A720000DF720000EB
:10048000DF720000A5730000A57300006A7400000D
:100490006A7400003075000030750000F5750000CA
:1004A000F5750000BA760000BA760000E277000029
:1004B000E277000045780000457800000A790000E6
:1004C0000A790000D0790000D0790000957A000008
:1004D000957A00005A7B00005A7B0000BD7B00002B
:1004E000BD7B0000207C0000207C0000837C00009D
:1004F000837C0000E57C0000E57C0000E57C0000DA
:10050000AB7D00000D7E00000D7E0000707E0000BF
:10051000707E0000357F0000357F0000FB7F00000B
:10052000FB7F0000C0800000C080000085810000CB
:10053000858100004B8200004B8200001083000088
:100540001083000038840000388400009B84000081
:100550009B84000060850000608500002686000006
:1005600026860000EB860000EB860000B0870000C6
:10057000B087000076880000768800003B89000084
:100580003B890000638A0000638A0000C68A00007D
:10059000C68A00008B8B00008B8B0000518C000002
:1005A000518C0000168D0000168D0000DB8D0000C0
:1005B000DB8D0000A18E0000A18E0000668F000080
:1005C000668F00008E9000008E900000F190000079
:1005D000F1900000B6910000B69100007C920000FE
:1005E0007C920000419300004193000006940000BB
:1005F00006940000CC940000CC940000919500007B
:1006000091950000B9960000B99600001C97000073
:100610001C970000E1970000E1970000A6980000F9
:10062000A6980000319A0000319A0000BC9B00009F
:10063000BC9B0000E49C0000E49C0000479D00007F
:10064000479D00000C9E00000C9E0000D19E000003
:10065000D19E00005CA000005CA00000E7A10000AB
:10066000E7A100000FA300000FA3000072A3000089
:1006700072A3000037A40000FCA4000087A60000BD
:1006800087A60000EAA60000EAA600004CA700002A
:100690004CA7000012A8000012A800003AA9000010
:1006A0003AA900009DA900009DA9000062AA0000CF
:1006B00062AA000027AB000027AB0000B2AC00002C
:1006C000B2AC0000B2AC00003DAE00003DAE000098
:1006D0003DAE000065AF000065AF0000C8AF000090
:1006E000C8AF00008DB000008DB0000052B1000016
:1006F00052B10000DDB20000DDB2000068B40000BD
:1007000068B4000090B5000090B50000F2B500009C
:10071000F2B50000B8B60000B8B600007DB7000022
:100720007DB7000008B9000008B9000093BA0000C6
:1007300093BA0000BBBB0000BBBB00001DBC0000A7
:100740001DBC0000E3BC0000E3BC0000A8BD00002D
:10075000A8BD0000D0BE0000D0BE000033BF000026
:1007600033BF0000F8BF0000F8BF0000BEC00000AB
:10077000BEC00000E6C10000E6C1000048C20000A3
:1007800048C200000EC300000EC30000D3C3000027
:10079000D3C3000098C4000098C400005EC50000E8
:1007A0005EC50000C1C50000C1C5000023C6000031
:1007B00023C6000086C6000086C60000E9C6000009
:1007C000E9C60000AEC7000073C8000039C90000C8
:1007D000FEC90000C3CA000089CB00004ECC000057
:1007E00014CD0000D9CD00009ECE000064CF0000E3
:1007F00029D00000EED00000B4D1000079D2000072
:100800003ED3000004D4000004D40000C9D400008A
:10081000C9D400008FD500008FD5000054D6000049
:1008200054D6000019D7000019D70000DFD7000008
:10083000DFD70000A4D80000A4D8000069D90000C8
:1008400069D90000CCD90000CCD900002FDA000013
:100850002FDA000091DA000091DA0000F4DA0000EB
:10086000F4DA000057DB000057DB0000BADB0000C1
:10087000BADB00001CDC00001CDC00007FDC000098
:100880007FDC0000E2DC000044DD0000A7DD0000AA
:10089000A7DD00000ADE00000ADE00006CDE0000BA
:1008A00094DF0000BCE00000BCE000001FE100009D
:1008B0001FE10000E4E10000E4E10000AAE2000022
:1008C000AAE200006FE300006FE3000035E40000DF
:1008D00035E40000FAE40000FAE40000BFE500009F
:1008E000BFE50000E7E60000E7E600004AE7000099
:1008F0004AE700000FE800000FE80000D5E800001C
:10090000D5E800009AE900009AE9000060EA0000DA
:1009100060EA000025EB000025EB0000EAEB000098
:10092000EAEB000012ED000012ED000075ED000092
:1009300075ED00003AEE00003AEE000000EF000016
:1009400000EF000028F0000028F000008AF000000E
:100950008AF0000050F1000050F1000015F2000094
:1009600015F200003DF300003DF30000A0F300008D
:10097000A0F3000065F4000065F400002BF5000012
:10098000F0F50000B5F60000B5F600007BF70000BA
:100990007BF7000040F8000040F8000068F9000014
:1009A00068F90000CBF90000CBF9000090FA0000D4
:1009B00090FA000056FB000056FB00001BFC0000F4
:1009C0001BFC0000E0FC0000E0FC0000A6FD0000B5
:1009D000A6FD00006BFE00006BFE000093FF000010
:1009E00093FF0000F6FF0000F6FF00008101010008
:1009F0008101010046020100460201000B030100D3
:100A00000B030100D1030100D10301009604010092
:100A100096040100BE050100BE050100210601008B
:100A200021060100E6060100E6060100AC07010010
:100A3000AC070100710801007108010036090100CE
:100A400036090100FC090100FC090100C10A01008E
:100A5000C10A0100E90B0100E90B01004C0C010087
:100A60004C0C0100110D0100110D0100D60D01000B
:100A7000D60D01009C0E01009C0E0100610F0100CB
:100A8000610F01002710010027100100EC10010088
:100A9000EC10010014120100141201007712010081
:100AA000771201003C1301003C1301000114010006
:100AB00001140100C7140100C71401008C150100C6
:100AC0008C15010052160100521601001717010083
:100AD000171701003F1801003F180100A21801007C
:100AE000A218010067190100671901002C1A010002
:100AF0002C1A0100F21A0100F21A0100B71B0100C2
:100B0000B71B01007C1C01007C1C0100421D010080
:100B1000421D01006A1E01006A1E0100CD1E010077
:100B2000CD1E0100921F0100921F010057200100FD
:100B3000572001001D2101007F210100E221010059
:100B4000E2210100A7220100A72201006D2301007C
:100B50006D2301009524010095240100F824010073
:100B6000F8240100BD250100BD25010082260100F9
:100B70008226010048270100482701000D280100B6
:100B80000D280100D2280100D22801009829010077
:100B900098290100C02A0100C02A0100222B01006F
:100BA000222B0100E82B0100E82B0100AD2C0100F5
:100BB000AD2C0100732D0100732D0100382E0100B2
:100BC000382E0100FD2E0100FD2E0100C32F010073
:100BD000C32F0100EB300100EB3001004D3101006B
:100BE0004D310100D8320100D83201009E3301009E
:100BF0009E33010063340100633401002835010095
:100C000028350100EE350100EE35010016370100F0
:100C10001637010078370100783701003E380100AF
:100C20003E3801000339010003390100C8390100D1
:100C3000C83901008E3A01008E3A0100533B010091
:100C4000533B0100193C0100193C0100DE3C01004E
:100C5000DE3C0100A33D0100A33D0100693E01000F
:100C6000693E01002E3F01002E3F0100F33F0100CD
:100C7000F33F0100B9400100B94001001B410100F0
:100C80001B4101007E4101007E410100E141010064
:100C9000E141010044420100444201006C43010073
:100CA0006C430100CE430100CE4301009444010097
:100CB0009444010059450100594501001E460100B8
:100CC0001E460100E4460100E4460100A947010078
:100CD000A94701006E4801006E48010097490100D4
:100CE00097490100F9490100F9490100BF4A010093
:100CF000BF4A0100844B0100844B0100494C0100B4
:100D0000494C01000F4D01000F4D0100D44D010071
:100D1000D44D0100994E0100994E0100C14F0100D0
:100D2000C14F01002450010024500100EA5001008D
:100D3000EA500100AF510100AF51010074520100AF
:100D4000745201003A5301003A530100FF5301006D
:100D5000FF530100C4540100C4540100EC550100CC
:100D6000EC5501004F5601004F5601001457010089
:100D700014570100DA570100DA5701009F580100AB
:100D80009F580100655901002A5A0100EF5A0100DD
:100D9000EF5A0100175C0100175C01007A5C01004A
:100DA0007A5C01003F5D01003F5D0100055E0100CE
:100DB000055E0100CA5E0100CA5E0100905F01008D
:100DC000905F010055600100556001001A6101004B
:100DD0001A6101004262010042620100A562010045
:100DE000A56201006A6301006A63010030640100CA
:100DF00030640100F5640100F5640100BA6501008A
:100E0000BA65010080660100806601004567010047
:100E100045670100456701000B6801006D6801002E
:100E20006D680100D0680100D0680100956901007B
:100E3000956901005B6A01005B6A0100206B01009B
:100E4000206B0100E56B0100E56B0100AB6C01005C
:100E5000AB6C0100706D0100706D0100986E0100B7
:100E6000986E0100FB6E0100FB6E0100C06F010077
:100E7000C06F010086700100867001004B71010097
:100E80004B7101001072010010720100D672010056
:100E9000D67201009B7301009B730100C3740100B3
:100EA000C37401002675010026750100EB75010071
:100EB000EB750100B1760100B17601003B780100CD
:100EC0003B780100C6790100C6790100EE7A010085
:100ED000EE7A0100517B0100517B0100167C01007C
:100EE000167C0100DC7C0100DC7C0100667E0100D8
:100EF000667E0100F17F0100F17F01001981010090
:100F0000198101007C8101007C8101004182010086
:100F100041820100068301000683010091840100E3
:100F2000918401001C8601001C8601004487010099
:100F300044870100A7870100A78701006C88010092
:100F40006C8801003189010031890100BC8A0100EF
:100F5000BC8A0100478C0100478C01006F8D0100A5
:100F60006F8D0100D28D0100D28D0100978E01009E
:100F7000978E01005C8F01005C8F0100E7900100FB
:100F8000E790010072920100729201009A930100B1
:100F90009A930100FD930100FD930100C2940100AA
:100FA000C294010087950100879501001297010006
:100FB000129701009D9801009D980100C5990100BC
:100FC000C5990100289A0100289A0100ED9A0100B4
:100FD000ED9A0100B29B0100B29B01003D9D010012
:100FE0003D9D0100C89E0100C89E0100F09F0100C8
:100FF000F09F010052A0010052A0010018A10100C1
:1010000018A10100DDA10100DDA10100A3A20100E2
:10101000A3A2010005A3010005A3010068A301002C
:1010200068A30100CBA30100CBA301002DA4010004
:101030002DA4010090A4010090A40100F3A40100DC
:10104000F3A401001BA601001BA601007DA6010060
:101050007DA601007DA6010043A7010043A7010072
:1010600043A7010008A8010008A8010093A90100F6
:1010700093A901001EAB01001EAB010046AC0100AC
:1010800046AC0100A8AC0100A8AC01006EAD0100A7
:101090006EAD010033AE010033AE0100BEAF010002
:1010A000BEAF010049B1010049B1010071B20100B8
:1010B00071B20100D3B20100D3B2010099B30100B3
:1010C00099B301005EB401005EB40100E9B501000E
:1010D000E9B5010074B7010074B701009CB80100C4
:1010E0009CB80100FEB80100FEB80100C4B90100BF
:1010F000C4B9010089BA010089BA010014BC010019
:1011000014BC01009EBD01009EBD0100C7BE0100D0
:10111000C7BE010029BF010029BF0100EFBF0100C8
:10112000EFBF0100B4C00100B4C001003FC2010024
:101130003FC20100C9C30100C9C30100F1C40100DD
:10114000F1C4010054C5010054C501001AC60100D4
:10115000DFC60100A4C70100A4C701006AC80100DE
:101160006AC801002FC901002FC90100F4C901009C
:10117000F4C901001CCB01001CCB01007FCB010096
:101180007FCB010044CC010044CC01000ACD01001A
:101190000ACD010095CE010095CE01001FD00100BF
:1011A0001FD00100E5D00100E5D00100AAD1010067
:1011B000AAD101006FD201006FD2010035D3010026
:1011C00035D30100FAD30100FAD30100C0D40100E5
:1011D000C0D4010085D5010085D501004AD60100A3
:1011E0004AD6010010D70100D5D701009AD80100D6
:1011F00060D9010025DA0100EADA0100B0DB010064
:1012000075DC01003BDD010000DE0100C5DE0100F0
:101210008BDF010050E0010015E10100DBE101007E
:10122000A0E2010066E3010066E301002BE4010097
:101230002BE40100F0E40100F0E40100B6E5010058
:10124000B6E501007BE601007BE6010040E7010016
:1012500040E7010006E8010006E80100CBE80100D4
:10126000CBE801002EE901002EE9010090E9010020
:1012700090E90100F3E90100F3E9010056EA0100F9
:1012800056EA0100B9EA0100B9EA01001BEB0100CE
:101290001BEB01007EEB01007EEB0100E1EB0100A6
:1012A000E1EB01005CEC0100A6EC010009ED01009E
:1012B00009ED01006BED01006BED0100CEED0100C9
:1012C000F6EE01000CF201000CF2010021F5010024
:1012D00021F5010036F8010036F801004CFB010051
:1012E0004CFB010061FE010061FE0100770102007C
:1012F000770102008C0402008C040200A2070200A5
:10130000A20702002D0902002D090200B70A0200FF
:10131000B70A0200420C0200420C0200CD0D02008E
:10132000CD0D0200580F0200580F0200E21002001B
:10133000E21002006D1202006D120200F8130200AA
:10134000F813020083150200831502005D190200E4
:10135000E81A0200AD1B0200AD1B0200731C020064
:10136000381D02009B1D02009B1D0200FE1D020095
:10137000FE1D0200C31E0200C31E02004E2002001A
:101380004E2002004E2002001321020076210200AE
:1013900076210200D8210200D82102009E220200FC
:1013A0009E2202006323020063230200292402001C
:1013B00029240200EE240200EE240200B3250200DC
:1013C000B32502007926020079260200A127020037
:1013D000A12702000328020003280200C9280200F6
:1013E000C92802008E2902008E290200532A020019
:1013F000532A0200192B0200192B0200DE2B0200D7
:10140000DE2B0200A42C0200A42C0200CC2D020032
:10141000CC2D02002E2E02002E2E0200F42E0200F1
:10142000F42E0200B92F0200B92F02007E30020014
:10143000E13002004431020044310200093202006E
:1014400009320200CF320200CF320200F73302002D
:10145000F733020059340200593402001F350200EC
:101460001F350200E4350200E4350200A93602000F
:10147000A9360200A93602006F3702006F3702005A
:101480006F3702006F370200343802003438020030
:1014900034380200F9380200F9380200223A02001A
:1014A000223A0200843A0200843A02004A3B0200D7
:1014B0004A3B02000F3C02000F3C0200D43C0200F9
:1014C000D43C02009A3D02009A3D02005F3E0200B9
:1014D0005F3E0200243F0200243F02004C40020015
:1014E0004C400200AF400200AF4002003A4202000E
:1014F0003A420200FF420200FF420200C5430200DE
:10150000C54302008A4402008A4402004F4502009B
:101510004F4502007746020077460200DA46020095
:10152000DA4602009F4702009F470200654802001A
:10153000654802002A4902002A490200F0490200D7
:10154000F0490200B54A0200B54A02007A4B020097
:101550007A4B0200A24C0200A24C0200054D020090
:10156000054D0200CA4D0200CA4D0200904E020015
:10157000904E0200554F0200554F02001B500200D2
:101580001B500200E0500200E0500200A551020092
:10159000A5510200CD520200CD520200305302008C
:1015A00030530200F5530200F5530200BB54020011
:1015B000BB540200805502008055020045560200CF
:1015C000455602000B5702000B570200D05702008D
:1015D000D0570200F8580200F85802005B59020088
:1015E0005B590200205A0200205A0200E65A02000B
:1015F000E65A0200AB5B0200AB5B0200705C0200CB
:10160000705C0200365D0200365D0200FB5D020088
:10161000FB5D0200235F0200235F0200865F020081
:10162000865F02004B6002004B6002001161020005
:101630001161020039620200396202009B620200FD
:101640009B62020061630200616302002664020083
:10165000266402004E6502004E650200B16502007C
:10166000B165020076660200766602003C67020001
:101670003C6702000168020001680200C6680200BF
:10168000C66802008C6902008C690200516A02007F
:10169000516A0200796B0200796B0200DC6B020078
:1016A000DC6B0200A16C0200A16C0200676D0200FD
:1016B000676D02002C6E02002C6E0200F16E0200BB
:1016C000F16E0200B76F0200B76F02007C7002007B
:1016D0007C70020007720200077202009173020020
:1016E00091730200BA740200BA7402001C75020001
:1016F0001C750200E2750200E2750200A776020086
:10170000A7760200CF770200CF770200327802007E
:1017100032780200F7780200F7780200BC79020004
:10172000BC790200827A0200827A0200477B0200C2
:10173000477B02000D7C02000D7C0200D27C02007F
:10174000D27C0200977D0200977D02005D7E020040
:101750005D7E0200227F0200227F0200E77F0200FE
:10176000E77F02000F8102007281020037820200CF
:1017700037820200FD820200FD8202002584020001
:101780002584020088840200888402004D850200BE
:101790004D8502001286020012860200D8860200E1
:1017A000D88602009D8702009D87020062880200A1
:1017B000628802002889020028890200508A0200FB
:1017C000508A0200B38A0200B38A0200788B0200BA
:1017D000788B02003D8C02003D8C0200038D0200DC
:1017E000038D0200C88D0200C88D02008D8E02009C
:1017F0008D8E0200538F0200538F02007B900200F7
:101800007B900200DD900200DD900200A3910200B7
:10181000A391020068920200689202002E930200D7
:101820002E930200F3930200F3930200B894020097
:10183000B89402007E9502007E950200A6960200F2
:10184000A69602000897020008970200CE970200B1
:10185000CE970200939802009398020059990200D3
:10186000599902001E9A0200E39A0200A99B020005
:10187000A99B0200D19C0200D19C0200339D020072
:10188000339D0200F99D0200F99D0200BE9E0200F8
:10189000BE9E0200839F0200839F020049A00200B7
:1018A00049A002000EA102000EA10200D4A1020074
:1018B000D4A10200FCA20200FCA202005EA302006E
:1018C0005EA3020024A4020024A40200E9A40200F2
:1018D000E9A40200AEA50200AEA5020074A60200B3
:1018E00074A6020039A7020039A70200FFA7020070
:1018F000FFA7020027A9020027A9020089A9020068
:1019000089A902004FAA02004FAA020014AB0200EC
:1019100014AB0200D9AB0200D9AB02009FAC0200AD
:101920009FAC020064AD020064AD020029AE02006B
:1019300029AE020052AF020052AF0200B4AF020063
:10194000B4AF02007AB002007AB002003FB10200E8
:101950003FB1020004B2020004B20200CAB20200A7
:10196000CAB202008FB302008FB3020054B4020067
:101970002FB802002FB802002FB802002FB80200C3
:101980002FB802002FB8020037B8020037B80200A3
:1019900037B8020037B8020037B8020037B8020083
:1019A0000000000000000000000000000000000037
:1019B0000000000000000000000000000000000027
:1019C000000000000000000000000000D201000044
:1019D000D2010000D2010000D2010000D2010000BB
:1019E000D2010000D2010000D2010000D2010000AB
:1019F000D2010000D2010000D2010000D20100009B
:101A0000D2010000D20100007B0000007B0000003A
:101A1000F60000007B0000006E0000006E00000079
:101A2000DC0000006E0000006100000061000000AA
:101A3000C3000000610000005C0000005C000000CA
:101A4000B80000005C0000007B0000007B0000008C
:101A5000F60000007B0000006E0000006E00000039
:101A6000DC0000006E00000061000000610000006A
:101A7000C30000006100000074000000E9000000E5
:101A800074000000E90000007B0000007B00000003
:101A9000F60000007B0000006E0000006E000000F9
:101AA000DC0000006E00000061000000610000002A
:101AB000C3000000610000005C0000005C0000004A
:101AC000B80000005C0000007B0000007B0000000C
:101AD000F60000007B0000006E0000006E000000B9
:101AE000DC0000006E0000006100000061000000EA
:101AF0007B00000092000000A4000000C300000072
:101B0000A4000000920000003D0000003D00000025
:101B10007B000000370000003D0000007B0000005B
:101B200030000000300000006100000030000000C4
:101B30002E0000005C0000003D0000003D000000A1
:101B40007B000000370000003D0000007B0000002B
:101B50003000000030000000610000003000000094
:101B60002E0000005C0000003D0000003D00000071
:101B70007B000000370000003D0000007B000000FB
:101B80003000000030000000610000003000000064
:101B90005C000000450000007B0000005C000000CD
:101BA0003D0000003D0000007B0000003700000009
:101BB0003D0000005C0000007B0000003D000000D4
:101BC00037000000370000006E0000003700000002
:101BD0003D000000490000003D00000049000000F9
:101BE0003D000000490000007B003D0000000000B7
:101BF0007B000000F60000007B0000006E0000008B
:101C00006E000000DC0000006E00000061000000BB
:101C100061000000C3000000610000005C000000E3
:101C20005C000000B80000005C0000007B000000C9
:101C30007B000000F60000007B0000006E0000004A
:101C40006E000000DC0000006E000000610000007B
:101C500061000000C300000061000000740000008B
:101C6000E900000074000000E90000003D000000F1
:101C70003D0000007B000000370000003D00000038
:101C80007B00000030000000300000006100000018
:101C9000300000002E0000005C0000003D0000004D
:101CA0003D0000007B0000003D00000049000000F6
:101CB000520000005C000000300000003000000016
:101CC00061000000300000002E00000037005C00C2
:101CD000000000003D0000003D0000007B0000000F
:101CE000370000003D0000007B00000030000000D5
:101CF0003000000061000000300000005C000000C7
:101D00007B0000003D0000003D0000007B00000063
:101D1000370000003D0000003D0000007B00000097
:101D20003D00000037000000370000006E0000009A
:101D3000370000003D000000490000003D000000A9
:101D4000490000003D000000490000007400000050
:101D50007B000000740000005C00000074000000C4
:101D60007B000000740000005C00000074000000B4
:101D70007B000000740000007B0000007400000085
:101D80007B000000740000007B0000007400000075
:101D90007B000000740000007B0000007400000065
:101DA0007B000000740000007B0000007400000055
:101DB0002E000000240000001E0000007B00000038
:101DC0007B000000F60000007B0000006E000000B9
:101DD000DC0000006E000000DC000000610000007C
:101DE00061000000C30000006100000074000000FA
:101DF000E900000074000000E9000000610000003C
:101E000061000000C30000006100000092000000BB
:101E10009200000025010000920000008A000000EE
:101E20008A000000150100008A000000B8000000D0
:101E3000B80000005C0000006100000061000000CC
:101E4000C3000000610000006E000000DC00000024
:101E50006E000000DC0000005C0000005C00000080
:101E6000740000007B000000F60000007B00000012
:101E7000F60000006100000061000000C3000000E7
:101E80006100000061000000C3000000610000006C
:101E9000C30000007400000074000000E9000000AE
:101EA000740000008A000000150100008A00000094
:101EB000150100007B0000007B000000F600000020
:101EC0007B0000006E000000DC0000006E000000DF
:101ED000DC0000006100000061000000C3000000A1
:101EE0006100000074000000E900000074000000C0
:101EF000E90000006100000061000000C300000074
:101F0000610000004900000092000000250100006F
:101F1000920000008A0000008A000000B800000063
:101F20008A0000005C000000B8000000B80000005B
:101F30005C0000006100000061000000C3000000C0
:101F4000610000006E000000DC0000006E00000078
:101F5000DC0000005C0000005C0000007400000079
:101F60007B000000F60000007B000000F60000008F
:101F70006100000061000000C3000000610000007B
:101F800061000000C300000061000000C300000009
:101F900074000000E900000074000000E900000087
:101FA00074000000E900000074000000E900000077
:101FB00074000000E90000007B0000007B000000CE
:101FC000F60000007B0000006E0000006E000000C4
:101FD000DC0000006E0000006100000061000000F5
:101FE000C3000000610000005C0000005C00000015
:101FF000B80000005C0000007B0000007B000000D7
:10200000F60000007B0000006E0000006E00000083
:10201000DC0000006E0000006100000061000000B4
:10202000C3000000610000007400000074000000A4
:10203000740000007B0000007B000000F600000040
:102040007B0000006E0000006E000000DC0000005D
:102050006E0000006100000061000000C30000008D
:10206000610000005C0000005C000000B80000009F
:102070005C0000007B003D00000000007B000000D1
:10208000F60000007B0000006E0000006E00000003
:10209000DC0000006E000000610000006100000034
:1020A0007B00000092000000AE000000C3000000B2
:1020B00092000000740000003D0000003D000000A0
:1020C0007B000000370000003D0000007B000000A6
:1020D000300000003000000061000000300000000F
:1020E0002E0000005C0000003D0000003D000000EC
:1020F0007B000000370000003D0000007B00000076
:1021000030000000300000006100000030000000DE
:102110002E0000005C0000003D0000003D000000BB
:102120007B000000370000003D0000007B00000045
:1021300030000000300000006100000030000000AE
:102140002E0000005C0000003D0000003D0000008B
:102150007B000000370000003D0000007B00000015
:10216000300000003000000061000000300000007E
:102170002E0000005C00000052000000490000003A
:10218000450000003D000000370000007B0000001B
:102190003D0000005C007B00000000003D000000EE
:1021A000370000006E0000006100000030000000F9
:1021B00061000000300000002E0000005C00000004
:1021C0007B0000003D0000007B0000003D0000009F
:1021D000370000006E0000006100000030000000C9
:1021E00061000000300000002E0000005C000000D4
:1021F0007B0000003D0000007B0000003D0000006F
:10220000370000006E000000610000003000000098
:10221000610000005C0000006E0000007B00000018
:102220006E0000007B0000003D0000007B0000000D
:102230003D000000370000006E0000007B00000041
:102240006E0000005C000000520000004900000029
:102250003D000000370000003D0000007400000059
:102260007B000000740000005C00000074000000AF
:102270007B000000740000005C000000740000009F
:102280007B000000740000007B0000007400000070
:102290007B000000740000007B0000007400000060
:1022A0007B000000740000007B0000007400000050
:1022B0007B000000740000007B0000007400000040
:1022C0005C000000490000003D000000F600000036
:1022D000DC000000C3000000E9000000C3000000B3
:1022E0002501000015010000B8000000C300000037
:1022F000C3000000DC000000DC000000B8000000AB
:10230000E9000000F6000000F6000000C300000035
:10231000C30000003A0000003A0000003A0000004C
:102320003A0000003A0000003D0000007B003D0044
:10233000000000007B000000F60000007B000000B1
:102340006E000000DC0000006E000000DC000000F9
:102350006100000061000000C30000006100000097
:1023600074000000E900000074000000E9000000B3
:102370006100000061000000C30000006100000077
:1023800049000000920000002501000092000000BA
:102390008A0000008A000000150100008A00000089
:1023A0005C0000005C00B800000000005C00B800A9
:1023B000000000005C0000006100000061000000FF
:1023C000C3000000610000006E000000DC0000009F
:1023D0006E000000DC0000005C0000005C000000FB
:1023E000740000007B000000F60000007B0000008D
:1023F000F60000006100000061000000C300000062
:102400006100000061000000C300000061000000E6
:10241000C30000007400000074000000E900000028
:10242000740000008A000000150100008A0000000E
:10243000150100008200000082000000050100007C
:102440008200000074000000E90000007400000039
:10245000E90000006700000067000000CF000000F6
:10246000670000007B000000F60000007B00000019
:10247000F60000006700000067000000CF000000C9
:10248000670000009B0000009B0000003701000077
:102490009B0000009200000092000000C3000000BA
:1024A0009200000030000000C3000000C3000000E4
:1024B000610000006700000067000000CF0000001E
:1024C0006700000074000000E900000074000000D4
:1024D000E9000000610000007B00000082000000B5
:1024E000820000008200000005010000670000007B
:1024F00067000000CF0000006700000067000000D8
:10250000CF00000067000000CF0000007B0000004B
:10251000F60000007B000000F6000000F60000005E
:10252000F6000000F60000008200000082000000BB
:10253000050100008200000074000000740000002B
:10254000E900000074000000670000006700000060
:10255000CF00000067000000610000006100000083
:10256000C300000061000000820000008200000043
:1025700005010000820000007400000074000000EB
:10258000E900000074000000670000006700000020
:10259000CF000000670000007B0000007B0000000F
:1025A0007B000000820000008200000005010000A6
:1025B000820000007400000074000000E9000000C8
:1025C000740000006700000067000000CF000000FA
:1025D000670000006100000061000000C30000000F
:1025E0006100000082000000820000000501000080
:1025F000820000007400000074000000E900000088
:10260000740000006700000067000000CF000000B9
:10261000670000007B000000F60000007B00000067
:10262000F6000000000000000000000000000000B4
:10263000000000000000000000000000000000009A
:10264000000000000000000000000000000000008A
:10265000000000000000000000000000000000007A
:10266000000000000000000000000000000000006A
:10267000000000000000000000000000000000005A
:10268000000000000000000000000000000000004A
:10269000000000008A01000050020000500200000B
:1026A0001503000015030000DA030000DA03000040
:1026B000A0040000A00400006505000065050000FE
:1026C0002A0600002A060000F0060000F0060000BE
:1026D000B5070000B50700007B0800007B0800007C
:1026E0004009000040090000050A0000050A00003A
:1026F000CB0A0000CB0A0000900B0000900B0000FA
:10270000550C0000550C00001B0D00001B0D0000B7
:10271000E00D0000E00D0000A60E0000A60E000077
:102720006B0F00006B0F0000301000003010000035
:10273000F6100000F6100000BB110000BB110000F5
:1027400080120000801200004613000046130000B3
:102750000B1400000B140000D0140000D014000073
:1027600096150000961500005B1600005B16000031
:102770002117000021170000E6170000E6170000EF
:10278000AB180000AB180000361A0000361A000023
:10279000FB1A0000FB1A0000C11B0000C11B000057
:1027A000861C0000861C00004C1D00004C1D000013
:1027B000111E0000111E0000D61E0000D61E0000D3
:1027C0009C1F00009C1F0000612000006120000091
:1027D0002621000026210000EC210000EC21000051
:1027E000B1220000B1220000762300007623000011
:1027F0003C2400003C2400000125000001250000CD
:10280000C7250000C72500008C2600008C2600008C
:10281000512700005127000017280000172800004A
:10282000DC280000DC280000A1290000A12900000C
:10283000672A0000672A00002C2B00002C2B0000C8
:10284000F22B0000F22B0000B72C0000B72C000088
:102850007C2D00007C2D0000422E0000422E000046
:10286000072F0000072F0000CC2F0000CC2F000006
:1028700092300000923000005731000057310000C4
:102880001C3200001C320000E2320000E232000084
:10289000A7330000A73300006D3400006D34000042
:1028A0003235000032350000F7350000F735000002
:1028B000BD360000BD3600008237000082370000C0
:1028C00047380000473800000D3900000D3900007E
:1028D000D2390000D2390000983A0000983A00003E
:1028E0005D3B00005D3B0000223C0000223C0000FC
:1028F000E83C0000E83C0000AD3D0000AD3D0000BC
:10290000723E0000723E0000383F0000383F000079
:10291000FD3F0000FD3F0000C2400000C24000003B
:1029200088410000884100004D4200004D420000F7
:102930001343000013430000D8430000D8430000B5
:102940009D4400009D440000634500006345000075
:102950002846000028460000ED460000ED46000035
:10296000B3470000B34700007848000078480000F3
:102970003E4900003E490000034A0000034A0000AF
:10298000C84A0000C84A00008E4B00008E4B000071
:10299000184D0000DE4D0000A34E0000A34E0000C5
:1029A0002E500000F3500000B9510000B951000052
:1029B0007E5200007E52000043530000435300004B
:1029C0000954000009540000CE540000CE54000009
:1029D00093550000935500005956000059560000C9
:1029E0001E5700001E570000E4570000E457000087
:1029F0006E590000345A0000F95A0000F95A0000DC
:102A0000845C0000495D00000E5E00000E5E000068
:102A1000D45E0000D45E0000995F0000995F000062
:102A20005F6000005F60000024610000246100001E
:102A3000E9610000E9610000AF620000AF620000E0
:102A4000746300007463000039640000396400009E
:102A5000C46500008A6600004F6700004F670000F1
:102A6000DA6800009F690000646A0000646A000080
:102A70002A6B00002A6B0000EF6B0000EF6B000078
:102A8000B46C0000B46C00007A6D00007A6D000038
:102A90003F6E00003F6E0000056F0000056F0000F4
:102AA000CA6F0000CA6F00008F7000008F700000B6
:102AB0001A7200001A720000A5730000A5730000CE
:102AC0003075000030750000BA7600008077000095
:102AD00045780000457800000A7900000A79000076
:102AE000D0790000D0790000957A0000957A000036
:102AF0005A7B00005A7B0000207C0000207C0000F4
:102B0000E57C0000E57C0000AB7D0000AB7D0000B3
:102B1000707E0000707E0000357F0000357F000071
:102B2000FB7F0000FB7F0000C0800000C080000031
:102B300085810000858100004B8200004B820000EF
:102B40001083000010830000D6830000D6830000AD
:102B50009B8400009B84000060850000608500006D
:102B60002686000026860000EB860000EB8600002B
:102B7000B0870000B08700007688000076880000EB
:102B80003B8900003B890000008A0000008A0000A9
:102B9000C68A0000C68A00008B8B00008B8B000069
:102BA000518C0000518C0000168D0000168D000025
:102BB000DB8D0000DB8D0000A18E0000A18E0000E7
:102BC000668F0000668F00002B9000002B900000A5
:102BD000F1900000F1900000B6910000B691000065
:102BE0007C9200007C920000419300004193000021
:102BF000A49300000694000069940000CC940000A7
:102C00002E950000919500001C970000E1970000B0
:102C1000A6980000A6980000319A0000F79A0000DC
:102C2000BC9B0000BC9B0000819C0000819C0000BC
:102C3000E49C0000479D00000C9E00000C9E0000DC
:102C4000D19E0000D19E0000979F0000979F00003A
:102C5000F99F0000F99F00005CA000005CA000004C
:102C600022A1000022A10000E7A10000E7A10000CE
:102C700072A3000037A40000FCA40000FCA4000024
:102C800087A600004CA7000012A8000012A80000B0
:102C9000D7A80000D7A800009DA900009DA90000AA
:102CA00062AA000062AA000027AB000027AB000068
:102CB000EDAB0000EDAB00004FAC00004FAC0000EE
:102CC000B2AC0000B2AC000077AD000077AD000000
:102CD0003DAE00003DAE0000C8AF00008DB000006A
:102CE00052B1000052B10000DDB20000A2B30000FA
:102CF00068B4000068B400002DB500002DB50000D8
:102D0000F2B50000F2B50000B8B60000B8B6000099
:102D10007DB700007DB7000043B8000043B8000055
:102D200008B9000008B90000CDB90000CDB9000015
:102D300093BA000093BA00001DBC00001DBC000047
:102D4000A8BD0000A8BD000033BF000033BF0000D5
:102D5000BEC0000083C1000048C2000048C200009D
:102D60000EC300000EC30000D3C30000D3C3000095
:102D700098C4000098C400005EC500005EC5000055
:102D800023C6000023C60000E9C60000E9C6000013
:102D9000FEC90000FEC9000089CB000089CB0000FD
:102DA0004ECC000014CD0000D9CD00009ECE000016
:102DB00064CF000029D00000EED00000B4D10000A4
:102DC00079D200003ED3000004D4000004D40000F7
:102DD000C9D40000C9D400008FD500008FD50000F1
:102DE00054D6000054D6000019D7000019D70000AF
:102DF000DFD70000DFD70000A4D80000A4D800006F
:102E000069D9000069D90000CCD90000CCD90000F4
:102E10002FDA00002FDA000091DA000091DA0000CA
:102E2000F4DA0000F4DA000057DB000057DB0000A2
:102E3000BADB0000BADB00001CDC00001CDC000078
:102E40007FDC00007FDC0000E2DC000094DF00009B
:102E50001FE100001FE10000E4E10000E4E10000E8
:102E60006FE300006FE3000035E4000035E400008C
:102E7000FAE40000FAE40000BFE50000BFE500004E
:102E8000E7E60000E7E600004AE700004AE7000046
:102E90000FE800000FE80000D5E80000D5E80000CA
:102EA00060EA000025EB0000EAEB0000EAEB00001E
:102EB000B0EC0000B0EC000075ED000075ED000016
:102EC0003AEE00003AEE000000EF000000EF0000D4
:102ED0008AF000008AF0000015F2000015F20000F0
:102EE000DBF20000DBF20000A0F30000A0F3000022
:102EF00065F4000065F400002BF500002BF50000E0
:102F0000B5F600007BF7000040F8000040F8000034
:102F100006F9000006F90000CBF90000CBF900002B
:102F200056FB000056FB00001BFC00001BFC0000D1
:102F3000E0FC0000E0FC0000A6FD0000A6FD000093
:102F40006BFE00006BFE0000F6FF0000F6FF0000C5
:102F5000BB000100BB0001008101010081010100F3
:102F60000B030100D10301005B0501005B050100BB
:102F70002106010021060100E6060100E606010027
:102F8000AC070100AC0701007108010071080100E5
:102F90003609010036090100FC090100FC090100A5
:102FA000C10A0100860B01004C0C01004C0C010011
:102FB000110D0100D60D01009C0E01009C0E0100B8
:102FC000610F0100EC10010077120100771201007F
:102FD0003C1301003C130100C7140100C714010099
:102FE00029150100291501008C1501008C1501001F
:102FF00052160100521601001717010017170100A1
:103000003F1801003F180100A2180100A21801009A
:1030100067190100671901002C1A01002C1A010020
:10302000B71B01007C1C0100421D0100421D010074
:10303000071E0100071E0100CD1E0100CD1E01006C
:10304000921F0100921F010057200100572001002C
:103050001D2101001D210100E2210100E2210100EA
:10306000A7220100A72201006D2301006D230100AA
:103070003224010032240100F8240100F824010068
:10308000BD250100BD250100822601008226010028
:103090000D280100D228010098290100982901007B
:1030A000FA2901005D2A0100222B0100222B0100D8
:1030B000AD2C0100AD2C0100382E0100382E01008E
:1030C000C32F0100C32F01004D3101004D3101001C
:1030D000D8320100D83201006334010028350100E4
:1030E000EE350100EE350100B3360100B3360100C4
:1030F00078370100783701003E3801003E38010082
:103100000339010003390100C8390100C839010041
:103110008E3A01008E3A0100533B0100533B0100FF
:10312000193C0100DE3C0100A33D0100A33D01006C
:10313000693E01002E3F0100F33F0100F33F010013
:10314000B94001007E4101004442010044420100B7
:103150000943010009430100CE430100CE430100B1
:10316000944401009444010059450100594501006F
:103170001E4601001E460100E4460100E44601002F
:10318000A9470100A94701006E4801006E480100EF
:103190003449010034490100F9490100F9490100AD
:1031A000BF4A0100BF4A0100844B0100844B01006B
:1031B000494C0100494C01000F4D01000F4D010029
:1031C000D44D0100D44D0100994E0100994E0100EB
:1031D0005F4F01005F4F01002450010024500100A7
:1031E000EA500100EA500100AF510100AF51010067
:1031F00074520100745201003A5301003A53010025
:10320000FF530100FF530100C4540100C4540100E6
:103210008A5501008A5501004F5601004F560100A2
:103220001457010014570100DA570100DA57010062
:103230009F5801009F580100655901006559010020
:103240002A5A01002A5A0100EF5A0100EF5A0100E0
:10325000B55B0100B55B01007A5C01007A5C01009E
:103260003F5D01003F5D0100055E0100055E01005C
:10327000CA5E0100CA5E0100905F0100905F01001C
:1032800055600100556001001A6101001A610100DA
:10329000E0610100E0610100A5620100A56201009A
:1032A0006A6301006A630100306401003064010058
:1032B000F5640100F5640100BA650100BA6501001A
:1032C00080660100806601004567010045670100D6
:1032D0000B6801000B680100D0680100D068010094
:1032E00095690100956901005B6A01005B6A010054
:1032F000206B0100206B0100E56B0100E56B010014
:10330000AB6C0100AB6C0100706D0100706D0100D1
:10331000366E0100366E0100FB6E0100FB6E01008F
:10332000C06F0100C06F010086700100867001004F
:103330004B7101004B710100107201009B73010081
:10334000607401006074010026750100267501009B
:10335000EB750100B1760100767701007677010008
:103360003B7801003B78010001790100C67901003A
:10337000297A0100297A01008B7A01008B7A0100F9
:10338000517B0100517B0100B37B0100B37B010045
:10339000167C0100167C0100797C0100797C01001B
:1033A000DC7C0100DC7C0100A17D0100A17D01002D
:1033B000667E0100667E01002C7F0100F17F010026
:1033C000B6800100B68001007C8101007C81010093
:1033D0004182010006830100CC830100CC830100FF
:1033E0009184010091840100578501001C86010031
:1033F0007F8601007F860100E1860100E1860100F1
:103400004487010044870100A7870100A7870100C6
:1034100009880100098801006C8801006C8801009E
:1034200031890100318901009489010094890100EA
:10343000F7890100F7890100BC8A0100BC8A0100FC
:10344000828B0100478C01000C8D01000C8D010066
:10345000D28D0100D28D0100978E01005C8F01009A
:103460002290010022900100E7900100E790010006
:10347000AC91010072920100D5920100D592010039
:1034800037930100379301009A9301009A9301004A
:10349000FD930100FD9301005F9401005F94010022
:1034A000C2940100C29401002595010025950100F8
:1034B0008795010087950100EA950100EA950100D2
:1034C0004D9601004D9601001297010012970100E0
:1034D000D79701009D98010062990100629901004F
:1034E000289A0100289A0100ED9A0100ED9A010046
:1034F000509B0100509B0100B29B0100B29B010058
:10350000789C0100789C01003D9D01003D9D0100DB
:10351000029E0100C89E01008D9F01008D9F010049
:1035200052A0010052A0010018A1010018A1010041
:10353000DDA10100DDA10100A3A20100F3A40100AF
:103540007DA6010043A7010008A8010008A801000A
:1035500093A9010058AA01001EAB01001EAB010097
:10356000E3AB0100E3AB0100A8AC0100A8AC010093
:103570006EAD01006EAD010033AE010033AE01004F
:10358000F8AE0100F8AE0100BEAF0100BEAF010011
:1035900083B0010083B0010049B1010049B10100CD
:1035A000D3B2010099B301005EB401005EB4010022
:1035B000E9B50100AEB6010074B7010074B70100AF
:1035C00039B8010039B80100FEB80100FEB80100A9
:1035D000C4B90100C4B9010089BA010089BA010067
:1035E0004EBB01004EBB010014BC010014BC010025
:1035F000D9BC0100D9BC01009EBD01009EBD0100E7
:1036000029BF0100EFBF0100B4C00100B4C0010038
:103610003FC2010004C30100C9C30100C9C30100C6
:103620008FC401008FC4010054C5010054C50100BE
:103630001AC601001AC60100DFC60100DFC601007C
:10364000A4C70100A4C701006AC801006AC801003C
:103650002FC901002FC90100F4C90100F4C90100FC
:103660007FCB01007FCB01000ACD01000ACD010014
:1036700095CE010095CE01001FD00100E5D00100DC
:10368000AAD10100AAD101006FD201006FD20100BE
:1036900035D3010035D30100FAD30100FAD301007C
:1036A000C0D40100C0D4010085D5010085D501003A
:1036B0004AD601004AD60100D5D70100D5D701006E
:1036C0009AD8010060D9010025DA0100EADA010088
:1036D000B0DB010075DC01003BDD010000DE010014
:1036E000C5DE01008BDF010050E0010015E10100A3
:1036F000DBE10100A0E2010066E3010066E30100F6
:103700002BE401002BE40100F0E40100F0E40100EF
:10371000B6E50100B6E501007BE601007BE60100AD
:1037200040E7010040E7010006E8010006E801006B
:10373000CBE80100CBE801002EE901002EE90100F1
:1037400090E9010090E90100F3E90100F3E90100CB
:1037500056EA010056EA0100B9EA0100B9EA01009F
:103760001BEB01001BEB01007EEB01007EEB010077
:10377000E1EB0100E1EB01005CEC0100F6EE010081
:1037800081F0010081F0010046F1010046F10100E5
:10379000D1F20100D1F2010096F3010096F301008D
:1037A0005CF401005CF4010021F5010021F5010049
:1037B000ACF60100ACF6010071F7010071F70100F1
:1037C00036F8010036F80100C1F9010087FA01005E
:1037D0004CFB01004CFB010011FC010011FC01003D
:1037E000D7FC0100D7FC01009CFD01009CFD0100FD
:1037F00061FE010061FE0100ECFF0100ECFF010031
:1038000077010200770102003C0202003C02020044
:103810000203020002030200C7030200C703020002
:103820008C0402008C04020017060200DD06020070
:10383000A2070200A2070200670802006708020050
:103840002D0902002D090200B70A0200B70A020082
:103850007D0B02007D0B0200420C0200420C0200B4
:10386000CD0D0200CD0D0200580F0200580F0200CE
:103870001D1002001D100200E2100200E210020002
:103880006D12020032130200F8130200F813020056
:10389000BD140200BD14020083150200831502004E
:1038A00048160200481602000D1702000D1702000C
:1038B000D3170200D31702009818020098180200CC
:1038C0005D1902005D190200231A0200C31E0200E6
:1038D000DC1E0200DC1E0200F41E0200F41E0200C8
:1038E0000D1F02000D1F0200261F0200261F0200EE
:1038F0003E1F02003E1F0200571F0200571F02001A
:10390000701F0200701F0200881F0200881F020043
:10391000A11F0200A11F0200BA1F0200BA1F02006D
:10392000D21F0200D21F0200EB1F0200EB1F020099
:1039300004200200042002001C2002001C200200BF
:10394000352002004E200200D8210200D8210200BA
:103950009E2202009E220200292402002924020045
:103960008B2402008B240200EE240200EE240200CD
:10397000B3250200B3250200792602007926020051
:10398000A1270200A1270200032802000328020049
:10399000C9280200C92802008E2902008E290200CF
:1039A000192B0200DE2B0200A42C0200A42C020022
:1039B000692D0200692D02002E2E02002E2E02001B
:1039C000F42E0200F42E0200B92F0200B92F0200DB
:1039D0007E3002007E300200443102004431020099
:1039E0000932020009320200CF320200CF32020057
:1039F0009433020094330200593402005934020017
:103A00001F3502001F350200E4350200E4350200D4
:103A10006F37020034380200F9380200F93802002A
:103A2000BF390200BF390200843A0200843A020022
:103A30004A3B02004A3B02000F3C02000F3C0200DE
:103A4000D43C0200D43C02009A3D02009A3D0200A0
:103A50005F3E02005F3E0200243F0200243F02005E
:103A6000AF400200AF400200754102007541020004
:103A70003A4202003A420200C54302008A44020070
:103A80004F4502004F450200154602001546020050
:103A9000DA460200DA4602009F4702009F47020012
:103AA00065480200654802002A4902002A490200CE
:103AB000F0490200F0490200B54A0200B54A02008E
:103AC0007A4B0200404C0200054D0200054D0200F9
:103AD000CA4D0200904E0200554F0200554F0200A1
:103AE0001B500200A5510200305302003053020067
:103AF000F5530200F5530200805502008055020084
:103B0000E3550200E3550200455602004556020007
:103B10000B5702000B570200D0570200D05702008B
:103B2000F8580200F85802005B5902005B59020085
:103B3000205A0200205A0200E65A0200E65A020009
:103B4000705C0200365D0200FB5D0200FB5D02005E
:103B5000C15E0200C15E0200865F0200865F020055
:103B60004B6002004B600200116102001161020013
:103B7000D6610200D66102009B6202009B620200D5
:103B80006163020061630200266402002664020091
:103B9000EB640200EB640200B1650200B165020053
:103BA00076660200766602003C6702003C6702000F
:103BB000C66802008C690200516A0200516A020064
:103BC000B46A0200166B0200DC6B0200DC6B0200C0
:103BD000A16C0200A16C0200676D0200676D02001B
:103BE0002C6E02002C6E0200F16E0200F16E0200DB
:103BF000B76F0200B76F02007C7002007C70020099
:103C000007720200077202009173020091730200B2
:103C10001C750200E2750200A7760200A77602007A
:103C20006C7702006C770200327802003278020072
:103C3000F7780200F7780200BC790200BC79020034
:103C4000827A0200827A0200477B0200477B0200F0
:103C50000D7C02000D7C0200D27C0200977D0200E8
:103C60005D7E02005D7E0200227F0200E77F02008F
:103C7000AD800200AD800200728102003782020036
:103C8000FD820200FD820200C2830200C2830200A4
:103C900088840200888402004D8502004D85020060
:103CA0001286020012860200D8860200D886020020
:103CB0009D8702009D8702006288020062880200E0
:103CC0002889020028890200ED890200ED8902009E
:103CD000B38A0200B38A0200788B0200788B02005C
:103CE0003D8C02003D8C0200038D0200038D02001A
:103CF000C88D0200C88D02008D8E02008D8E0200DC
:103D0000538F0200538F0200189002001890020097
:103D1000DD900200DD900200A3910200A391020059
:103D200068920200689202002E9302002E93020015
:103D3000F3930200F3930200B8940200B8940200D7
:103D40007E9502007E950200439602004396020093
:103D50000897020008970200CE970200CE97020053
:103D60009398020093980200599902005999020011
:103D70001E9A02001E9A0200E39A0200E39A0200D1
:103D8000A99B0200A99B02006E9C02006E9C02008F
:103D9000339D0200339D0200F99D0200F99D02004F
:103DA000BE9E0200BE9E0200839F0200839F02000F
:103DB00049A0020049A002000EA102000EA10200CB
:103DC000D4A10200D4A1020099A2020099A202008B
:103DD0005EA302005EA3020024A4020024A4020049
:103DE000E9A40200E9A40200AEA50200AEA502000B
:103DF00074A6020074A6020039A7020039A70200C7
:103E0000FFA70200FFA70200C4A80200C4A8020086
:103E100089A9020089A902004FAA02004FAA020044
:103E200014AB020014AB0200D9AB0200D9AB020004
:103E30009FAC02009FAC020064AD020064AD0200C2
:103E400029AE020029AE0200EFAE0200EFAE020082
:103E5000B4AF0200B4AF02007AB002007AB0020040
:103E60003FB102003FB1020004B2020004B20200FE
:103E7000CAB20200CAB202008FB302008FB30200BE
:103E800054B402002FB802002FB802002FB802006D
:103E90002FB802002FB802002FB8020037B8020076
:103EA00037B8020037B8020037B8020037B802004E
:103EB00037B8020000000000000000000000000011
:103EC00000000000000000000000000000000000F2
:103ED00000000000000000000000000000000000E2
:103EE000E30200000F030000E30200000F030000E4
:103EF000E30200000F030000E30200000F030000D4
:103F0000E30200000F030000E30200000F030000C3
:103F1000E30200000F030000E30200000F030000B3
:103F2000E30200000F030000E30200000F030000A3
:103F3000E30200000F030000E30200000F03000093
:103F4000E30200000F030000E30200000F03000083
:103F5000E30200000F030000A4030000E3020000DE
:103F60000F030000E30200004B020000E302000028
:103F70000F030000E30200004B020000E302000018
:103F80000F030000E30200000F030000A403000081
:103F90000F030000E30200000F030000E302000033
:103FA0000F030000E30200004B020000E3020000E8
:103FB0000F030000E30200004B020000E3020000D8
:103FC0000F030000E30200004B0200002A02000081
:103FD0004B0200002A020000ED010000E302000095
:103FE0000F030000E30200004B020000E3020000A8
:103FF0000F030000E30200004B020000E302000098
:104000000F030000E30200000F030000A403000000
:104010000F030000E30200000F030000E3020000B2
:104020000F030000E30200004B020000E302000067
:104030000F030000E30200004B020000E302000057
:104040000F030000E30200004B0200002A02000000
:10405000ED010000ED010000B8010000ED010000DD
:10406000ED010000E30200004B020000930200009B
:10407000E302000093020000E3020000930200004C
:104080004B0200002A020000D2010000ED010000F6
:10409000ED010000E3020000E302000093020000D3
:1040A000E302000093020000E3020000700300003E
:1040B000E302000093020000E3020000ED010000B3
:1040C000ED010000E30200004B020000930200003B
:1040D000E302000093020000E302000093020000EC
:1040E0004B0200002A020000D2010000ED01000096
:1040F0002A0200004B020000930200004B02000065
:104100002A0200004B02000070030000E3020000DE
:10411000930200004B020000E30200000F030000C6
:10412000E30200004B020000E30200000F03000066
:10413000E30200004B020000E30200000F03000056
:10414000E30200000F030000A40300000F030000BF
:10415000E30200000F030000E30200000F03000071
:10416000E30200004B020000E30200000F03000026
:10417000E30200004B020000E30200000F03000016
:10418000E30200000F030000E302000071010000E1
:10419000ED010000ED010000ED010000ED01000067
:1041A000E30200004B020000930200004B020000FB
:1041B00093020000E3020000930200004B020000A3
:1041C000930200002A020000D2010000ED0100006D
:1041D000ED010000E30200004B020000930200002A
:1041E0004B02000093020000E30200007003000095
:1041F00093020000E302000093020000E3020000CB
:10420000ED010000ED010000E30200004B020000A0
:1042100093020000E302000093020000E3020000AA
:10422000930200004B0200002A020000D2010000AD
:10423000ED0100002A0200004B0200009302000082
:104240004B0200002A0200004B0200002A0200007C
:104250004B0200002A0200004B0200002A0200006C
:104260000B02000071010000D2010000ED0100000E
:10427000D201000071010000D2010000ED01000038
:10428000D201000071010000D2010000ED01000028
:10429000D201000071010000D2010000ED01000018
:1042A000D2010000ED010000D2010000ED0100008C
:1042B000D2010000ED010000D2010000ED0100007C
:1042C000B8010000ED010000E3020000E30200007D
:1042D000E302000093020000930200004B02000082
:1042E00093020000E3020000E302000093020000DA
:1042F000930200004B0200004B0200002A02000063
:10430000B8010000B8010000700300007003000055
:10431000DB030000E3020000E30200009302000060
:1043200093020000E30200000F0300000F030000EF
:10433000DB030000DB030000A4030000E302000035
:10434000930200004B020000ED010000E3020000B8
:10435000930200004B02000093020000E302000001
:1043600093020000E30200000F030000E3020000DC
:104370000F030000E3020000ED010000B80100009F
:10438000ED010000E3020000E3020000E302000090
:10439000E302000093020000930200004B020000C1
:1043A00093020000E3020000E30200009302000019
:1043B000930200004B0200004B0200002A020000A2
:1043C0002A020000B8010000B8010000B801000096
:1043D0007003000070030000DB030000E302000034
:1043E000E30200009302000093020000E3020000D9
:1043F0000F03000093020000E3020000A40300008A
:10440000DB030000ED010000ED010000E30200000D
:10441000930200004B02000093020000E302000040
:1044200093020000E30200000F030000E30200001B
:104430000F030000E3020000D2010000ED010000C4
:104440000F030000E30200004B020000E302000043
:104450000F030000E30200004B020000E302000033
:104460000F030000E30200000F030000A40300009C
:104470000F030000E30200000F030000E30200004E
:104480000F030000E30200004B020000E302000003
:104490000F030000E30200004B020000E3020000F3
:1044A0000F030000E30200004B0200002A0200009C
:1044B0004B0200002A020000ED010000E3020000B0
:1044C0000F030000E30200004B020000E3020000C3
:1044D0000F030000E30200004B020000E3020000B3
:1044E0000F030000E30200000F030000A40300001C
:1044F0000F030000E30200000F030000E3020000CE
:104500000F030000E30200004B020000E302000082
:104510000F030000E30200004B020000E302000072
:104520000F030000E30200004B0200002A0200001B
:104530004B020000ED010000ED010000ED01000064
:104540009F0100009F0100009F0100009F010000EB
:10455000ED010000ED0100004901000049010000EB
:1045600049010000490100009F0100009F01000077
:104570009F010000ED010000ED010000ED010000D1
:104580009F0100009F0100009F010000D201000078
:104590009F0100009F01000025010000250100008F
:1045A000710100004901000049010000ED01000017
:1045B000ED01000037010000ED010000ED010000F9
:1045C000ED0100009F0100009F0100009F0100001D
:1045D00049010000ED010000ED010000ED010000C7
:1045E00049010000490100004901000049010000A3
:1045F00037010000ED0100009F01000037010000BD
:10460000ED010000ED010000ED01000037010000A8
:10461000370100009F0100009F0100009F01000082
:10462000ED010000ED010000ED010000ED010000D2
:1046300037010000ED010000ED010000E302000081
:104640004B02000093020000E3020000930200000E
:10465000E3020000930200004B0200002A02000067
:10466000D2010000ED010000ED010000E3020000B6
:104670004B020000930200004B0200009302000076
:10468000E302000070030000E30200009302000058
:10469000E3020000ED010000ED010000E302000074
:1046A0004B020000930200004B0200009302000046
:1046B000E3020000930200004B0200002A02000007
:1046C000D2010000ED0100002A0200004B020000B0
:1046D000930200004B0200002A0200004B0200007F
:1046E0002A0200004B0200002A0200004B020000D8
:1046F00093020000ED010000D201000071010000F2
:10470000D2010000ED010000D201000071010000A3
:10471000D2010000ED010000D20100007101000093
:10472000D2010000ED010000D20100007101000083
:10473000D2010000ED010000D2010000ED010000F7
:10474000D2010000ED010000D2010000ED010000E7
:10475000D2010000ED010000B8010000ED010000F1
:10476000E3020000E3020000E30200009302000005
:104770004B02000093020000E3020000E30200008D
:1047800093020000930200004B0200004B02000065
:104790002A020000B8010000B80100007003000008
:1047A00070030000DB030000E3020000E3020000EE
:1047B0009302000093020000E30200000F030000D8
:1047C0000F030000DB030000A4030000E30200006D
:1047D000930200004B020000ED010000ED0100001B
:1047E000E3020000930200004B020000930200006D
:1047F000E302000093020000E30200001604000040
:10480000DB030000700300000F030000BA02000089
:10481000930200004B0200000B020000ED010000BB
:10482000B8010000870100005D010000490100009F
:104830002501000005010000ED010000B8010000A5
:10484000ED010000E3020000E3020000E3020000CB
:10485000E302000093020000930200004B020000FC
:1048600093020000E3020000E30200009302000054
:10487000930200004B0200004B0200002A020000DD
:104880002A020000B801000071010000B801000018
:104890007003000070030000DB030000E30200006F
:1048A000E30200009302000093020000E302000014
:1048B000E30200000F0300000F030000DB03000011
:1048C000DB030000A4030000E302000093020000E9
:1048D0004B020000ED010000ED010000E3020000CA
:1048E000930200004B02000093020000E30200006C
:1048F00093020000E30200000F030000E302000047
:104900000F030000E30200000B020000D2010000D0
:104910000B0200000F0300000F0300000F03000054
:104920000F030000BA020000BA0200006E0200008D
:10493000BA0200000F0300000F030000BA020000DB
:10494000BA0200006E0200006E0200004B0200007E
:104950004B020000D2010000D2010000D201000091
:10496000A4030000A4030000160400000F030000CD
:104970000F030000BA020000BA0200000F0300009B
:104980000F0300003E0300003E0300000F03000081
:10499000BA0200000F030000DB0300001604000051
:1049A0000B0200000B0200000F030000BA0200001F
:1049B0006E020000BA0200000F030000BA020000FD
:1049C0000F0300003E0300000F0300003E03000041
:1049D0000F030000ED0100000B0200003E03000089
:1049E0000F0300006E0200000F0300003E030000F2
:1049F0000F0300006E0200000F0300003E030000E2
:104A00000F0300003E030000DB0300003E03000034
:104A10000F0300003E0300000F0300003E030000F0
:104A20000F0300006E0200000F0300003E030000B1
:104A30000F0300006E0200000F0300003E030000A1
:104A40000F0300006E0200004B0200006E02000027
:104A50004B0200000B0200000F0300003E030000A9
:104A60000F0300006E0200000F0300003E03000071
:104A70000F0300006E0200000F0300003E03000061
:104A80000F0300003E030000DB0300003E030000B4
:104A90000F0300003E0300000F0300003E03000070
:104AA0000F0300006E0200000F0300003E03000031
:104AB0000F0300006E0200000F0300003E03000021
:104AC0000F0300006E0200004B0200006E020000A7
:104AD0004B0200000B02000000000000000000007C
:104AE00000000000000000000000000000000000C6
:104AF00000000000240027002A000000000025001C
:104B000028002B00020100000000002300260029DD
:104B10000004040404040404040202020202020366
:104B20000303030303010204081020408001020470
:104B300008102001020408102000000008000201F3
:104B40000000030407000000000000000000122E17
:104B500011241FBECFEFD8E0DEBFCDBF11E0A0E033
:104B6000B1E0E0E1FDE502C005900D92A633B1078A
:104B7000D9F722E0A6E3B1E001C01D92A631B20749
:104B8000E1F715E2C8EAD5E204C02197FE010E94D0
:104B9000802EC73AD107C9F70E9493290C94862E1C
:104BA0000C940000AF92BF92CF92DF92EF92FF92EF
:104BB0000F931F93CF93DF936C017B018B01040F45
:104BC000151FEB015E01AE18BF08C017D10759F0E1
:104BD0006991D601ED91FC910190F081E02DC60123
:104BE0000995892B79F7C501DF91CF911F910F911D
:104BF000FF90EF90DF90CF90BF90AF900895FC01B1
:104C0000538D448D252F30E0842F90E0821B930B31
:104C1000541710F0CF96089501970895FC01918DD7
:104C2000828D981761F0A28DAE0FBF2FB11D5D96DA
:104C30008C91928D9F5F9F73928F90E008958FEF7C
:104C40009FEF0895FC01918D828D981731F0828D30
:104C5000E80FF11D858D90E008958FEF9FEF089587
:104C6000FC01918D228D892F90E0805C9F4F821BEB
:104C700091098F739927089589E791E00E94302662
:104C800021E0892B09F420E0822F089580E090E054
:104C9000892B29F00E943C2681110C940000089574
:104CA000FC01A48DA80FB92FB11DA35ABF4F2C91A1
:104CB000848D90E001968F739927848FA689B78998
:104CC0002C93A089B1898C91837080648C93938D8F
:104CD000848D981306C00288F389E02D80818F7D32
:104CE00080830895EF92FF920F931F93CF93DF93EA
:104CF000EC0181E0888F9B8D8C8D98131AC0E88918
:104D0000F989808185FF15C09FB7F894EE89FF89E6
:104D10006083E889F98980818370806480839FBF84
:104D200081E090E0DF91CF911F910F91FF90EF9084
:104D30000895F62E0B8D10E00F5F1F4F0F73112794
:104D4000E02E8C8D8E110CC00FB607FCFACFE889CF
:104D5000F989808185FFF5CFCE010E945026F1CFE1
:104D6000EB8DEC0FFD2FF11DE35AFF4FF0829FB743
:104D7000F8940B8FEA89FB8980818062CFCFCF9333
:104D8000DF93EC01888D8823B9F0AA89BB89E88973
:104D9000F9898C9185FD03C0808186FD0DC00FB619
:104DA00007FCF7CF8C9185FFF2CF808185FFEDCF97
:104DB000CE010E945026E9CFDF91CF910895833034
:104DC00081F028F4813099F08230A9F0089587307D
:104DD000A9F08830C9F08430B1F4809180008F7DD3
:104DE00003C0809180008F7780938000089584B500
:104DF0008F7784BD089584B58F7DFBCF8091B000FF
:104E00008F778093B00008958091B0008F7DF9CFA7
:104E1000CF93DF93E9E3FBE48491E5E2FBE4D491F3
:104E2000E1E1FBE4C491CC23A1F081110E94DF26D3
:104E3000EC2FF0E0EE0FFF1FE95FF44BA591B4916A
:104E4000EC91ED2381E090E009F480E0DF91CF91D7
:104E5000089580E090E0FACF1F93CF93DF93282F3F
:104E600030E0F901E75CF44B8491F901EB5DF44B20
:104E7000D491F901EF5EF44BC491CC23A9F0162F25
:104E800081110E94DF26EC2FF0E0EE0FFF1FE650AD
:104E9000F54BA591B4918FB7F894EC91111108C01E
:104EA000D095DE23DC938FBFDF91CF911F910895C2
:104EB000DE2BF8CFCF93DF9390E0FC01EB5DF44B5A
:104EC00024918F5E944BFC0184918823D1F090E073
:104ED000880F991FFC01E051F54BA591B491FC019D
:104EE000E650F54BC591D491623071F49FB7F894B8
:104EF0003C91822F809583238C93E8812E2B2883ED
:104F00009FBFDF91CF9108958FB7F894EC912E2B2E
:104F10002C938FBFF6CF3FB7F894809137019091D3
:104F20003801A0913901B0913A0126B5A89B05C07E
:104F30002F3F19F00196A11DB11D3FBFBA2FA92F18
:104F4000982F8827BC01CD01620F711D811D911D15
:104F500042E0660F771F881F991F4A95D1F7089581
:104F60000C948B27FC019181913069F0923089F08B
:104F7000911105C090916E009D7F90936E0060E04E
:104F800080810C942C2790916F009D7F90936F00EF
:104F9000F6CF909170009D7F90937000F0CFCF93EB
:104FA000DF93FC0101900020E9F73197AF01481B26
:104FB000590BBC0189E791E00E94D225EC0142E047
:104FC00050E062E271E089E791E00E94D2258C0F07
:104FD0009D1FDF91CF9108951F920F920FB60F92F0
:104FE00011242F933F934F935F936F937F938F93EE
:104FF0009F93AF93BF93EF93FF9389E791E00E9454
:105000005026FF91EF91BF91AF919F918F917F912A
:105010006F915F914F913F912F910F900FBE0F9025
:105020001F9018951F920F920FB60F9211242F9375
:105030008F939F93EF93FF93E0918901F0918A0101
:105040008081E0918F01F091900182FD1BC09081E1
:10505000809192018F5F8F7320919301821741F0AD
:10506000E0919201F0E0E758FE4F958F8093920116
:10507000FF91EF919F918F912F910F900FBE0F9005
:105080001F9018958081F4CF1F920F920FB60F9248
:1050900011242F933F938F939F93AF93BF9380914E
:1050A000450190914601A0914701B091480130918E
:1050B000360123E0230F2D3758F50196A11DB11DB0
:1050C000209336018093450190934601A0934701B8
:1050D000B09348018091370190913801A091390136
:1050E000B0913A010196A11DB11D809337019093B3
:1050F0003801A0933901B0933A01BF91AF919F91CC
:105100008F913F912F910F900FBE0F901F90189588
:1051100026E8230F0296A11DB11DD2CF1F920F9238
:105120000FB60F9211242F933F938F939F93AF93BA
:10513000BF93EF93FF938091490190914A01A09111
:105140004B01B0914C010097A105B10531F13091AF
:105150003B01E0913C01F0913D0120812327208318
:10516000181619061A061B061CF40197A109B109A5
:105170008093490190934A01A0934B01B0934C0155
:10518000FF91EF91BF91AF919F918F913F912F919F
:105190000F900FBE0F901F901895209170002D7FDB
:1051A0002093700020913B01E0913C01F0913D0182
:1051B0003081209523232083DBCF1F920F920FB6DF
:1051C0000F9211248F939F93AF93BF93EF93FF930D
:1051D00080914D0190914E01A0914F01B0915001ED
:1051E000892B8A2B8B2BA1F190913E01E0913F01FD
:1051F000F091400180818927808380914D019091B9
:105200004E01A0914F01B0915001181619061A06CF
:105210001B069CF480914D0190914E01A0914F018D
:10522000B09150010197A109B10980934D0190936C
:105230004E01A0934F01B0935001FF91EF91BF91A8
:10524000AF919F918F910F900FBE0F901F90189567
:1052500080916F008D7F80936F0080913E01E0917F
:105260003F01F09140019081809589238083E5CFB3
:105270001F920F920FB60F9211248F939F93AF93AB
:10528000BF93EF93FF938091510190915201A091B0
:105290005301B0915401892B8A2B8B2BA1F1909152
:1052A0004101E0914201F09143018081892780838F
:1052B0008091510190915201A0915301B0915401FC
:1052C000181619061A061B069CF48091510190913C
:1052D0005201A0915301B09154010197A109B10964
:1052E0008093510190935201A0935301B0935401C4
:1052F000FF91EF91BF91AF919F918F910F900FBE52
:105300000F901F90189580916E008D7F80936E0096
:1053100080914101E0914201F0914301908180959B
:1053200089238083E5CFCF93DF93CDB7DEB72A976C
:105330000FB6F894DEBF0FBECDBF789484B58260FF
:1053400084BD84B5816084BD85B5826085BD85B529
:10535000816085BD80916E00816080936E001092A7
:105360008100809181008260809381008091810022
:1053700081608093810080918000816080938000B3
:105380008091B10084608093B1008091B000816011
:105390008093B00080917A00846080937A0080913D
:1053A0007A00826080937A0080917A008160809395
:1053B0007A0080917A00806880937A001092C10010
:1053C000E0918901F0918A0182E08083E09185017A
:1053D000F09186011082E0918701F09188018FECB5
:1053E000808310929101E0918D01F0918E0186E011
:1053F0008083E0918B01F0918C01808180618083BA
:10540000E0918B01F0918C01808188608083E09134
:105410008B01F0918C01808180688083E0918B0109
:10542000F0918C0180818F7D808362E080E00E941A
:105430005A2761E08DE00E945A2761E089E00E94CE
:105440005A2761E08AE00E945A27A5E5B1E005E706
:1054500011E069E671E04DE651E029E531E082E1D5
:10546000282E81E0382EFF24FA94F101868197815D
:10547000F90191838083FA01119211921192119294
:10548000AF01FB0111921192BF01F801119211922B
:105490008F01F101908180914401833008F01FC198
:1054A0009C93E82FF0E0EC5FF44BE4911196EC93C1
:1054B00011978F5F80934401E13009F4C4C008F470
:1054C000A2C0E23009F4E5C0F90180819181FC01BC
:1054D000E150F04CCF01880F991F880F991FF101FF
:1054E000C480D580F601E80FF91F4590559065906E
:1054F000749080905D0190905E01A0905F01B090EB
:10550000600184149504A604B70410F45301420109
:1055100080925D0190925E01A0925F01B092600165
:10552000F8E02F0E311C2E5F3F4F129682E22816B4
:1055300081E0380609F099CF0E94B02760E08DE045
:105540000E942C2700E010E00E9408279C838B8398
:10555000019711F00B831C830E9408279A8389838B
:10556000892B09F0C0C0AB81BC81119709F0BBC089
:1055700061E08DE00E942C2785E291E00E94CF2718
:1055800069E671E00DE6C02E01E0D02E45E751E05E
:10559000A2E1B1E01496ED90FC901597FA0180819C
:1055A0009181FC01EE0FFF1FEE0FFF1FEE0DFF1D9F
:1055B0000591159125913491F60100831183228381
:1055C0003383FA012081318189010F5F1F4FC801A8
:1055D000880F991F880F991F8E0D9F1DFC018590C4
:1055E0009590A590B490F6014080518062807380C0
:1055F000481459046A047B0409F078C0FA01118345
:105600000083FC01D5CF14BC15BC84B5826084BD79
:1056100085B5816085BD8C9190E0FC01EF5EF44B17
:10562000E491F0E0EE0FFF1FE650F54BC590D490EB
:10563000D0924301C0924201FC01EB5DF44BE49136
:10564000E093410141CF109280001092810080913F
:1056500081008860809381008091810081608093C7
:1056600081008C9190E0FC01EF5EF44BE491F0E05E
:10567000EE0FFF1FE650F54BC590D490D09240013D
:10568000C0923F01FC01EB5DF44BE491E0933E01DD
:105690001BCF1092B0001092B1008091B0008260D8
:1056A0008093B0008091B10081608093B1008C91B3
:1056B00090E0FC01EF5EF44BE491F0E0EE0FFF1F91
:1056C000E650F54BC590D490D0923D01C0923C017C
:1056D000FC01EB5DF44BE491E0933B01F5CE1196B8
:1056E000FC921197F1CE0B811C812ECF90E080E0CF
:1056F0001216130664F421503048220F331F1296FD
:10570000ED91FC911397E20FF31F85919491FB01AA
:1057100081939193BF0118964E5F5F4FF4E0CF0ED7
:10572000D11C81E0A232B80709F034CF2FB7F8942A
:105730008091450190914601A0914701B0914801A7
:105740002FBF8093650190936601A0936701B0938A
:1057500068011E821D824091610150916201609139
:1057600063017091640180915D0190915E01A0914F
:105770005F01B091600184179507A607B70708F489
:105780002AC2AD81BE81119709F425C22FB7F894C2
:105790008091450190914601A0914701B091480147
:1057A0002FBF409165015091660160916701709132
:1057B0006801841B950BA60BB70B80936101909336
:1057C0006201A0936301B0936401E5E5F1E0FA871B
:1057D000E9877DE6272E71E0372E89E591E09C83ED
:1057E0008B83E5E7CE2EE1E0DE2EF12CE12CAB81C0
:1057F000BC818D919D91BC83AB83F6012081318169
:10580000281739070CF0E2C10E940827019721F4FC
:1058100081E090E09A8389830E940827892B61F4B4
:10582000A981BA81119741F480E391E00E94CF27CA
:10583000E1E0F0E0FE83ED83C70187599E4F988732
:105840008F83DC018D909C90181419040CF0B9C161
:10585000E985FA85818187FD02C161E080810E942E
:105860005A27A985BA8511961C91092C000CAA0803
:10587000BB08812F8D7F09F052C160E072E18AE799
:1058800090E0A50194010E943F2E29013A01DA011E
:10589000C9010197A109B1098F3F9105A105B10582
:1058A00009F00CF4B8C060E472E48FE090E0A50168
:1058B00094010E943F2E21503109410951091230B3
:1058C00009F06AC082E02F3F31054105510509F01A
:1058D0000CF45BC060E970ED83E090E0A5019401F9
:1058E0000E943F2E215031094109510983E02F3F89
:1058F00031054105510509F00CF447C068E478EE24
:1059000081E090E0A50194010E943F2E21503109D1
:105910004109510984E02F3F310541055105A9F1A5
:10592000A4F164E274EF80E090E0A50194010E948C
:105930003F2E215031094109510985E02F3F3105A2
:105940004105510511F108F162E17AE780E090E04C
:10595000A50194010E943F2E2150310941095109AE
:1059600086E02F3F31054105510579F070F09AE04E
:1059700075946794579447949A95D1F7A30192012F
:10598000215031094109510987E09091B100987F78
:10599000892B8093B10047C02F3F31054105510548
:1059A00009F00CF4BAC068E478EE81E090E0A5015B
:1059B00094010E943F2E215031094109510984E090
:1059C0001111BCCF83E02F3F31054105510539F15D
:1059D00034F162E17AE780E090E0A50194010E9451
:1059E0003F2E215031094109510984E02F3F3105F3
:1059F00041055105A1F098F08AE075946794579499
:105A000047948A95D1F7A3019201215031094109A8
:105A1000510985E004C09C0181E01111B6CF95B514
:105A2000987F892B85BDE985FA858181813009F4CC
:105A3000A0C0823009F4B2C0811111C027BD8FEF20
:105A40009FEFDC018093510190935201A093530189
:105A5000B093540180916E00826080936E00D101FA
:105A60004D915D916D917C91809161019091620168
:105A7000A0916301B091640184179507A607B70749
:105A800008F437C0F60120813181C9010196918364
:105A90008083EB81FC813297408151818417950787
:105AA00044F5D701AA0FBB1FAA0FBB1FAE5EBE4FA6
:105AB000220F331F1296ED91FC911397E20FF31F03
:105AC00045915491EF81F88551834083880F991F48
:105AD000880F991F1496ED91FC91E80FF91F4591DD
