:100000000C94061C0C942E1C0C942E1C0C942E1C70
:100010000C942E1C0C942E1C0C942E1C0C94EC1E78
:100020000C942E1C0C942E1C0C942E1C0C943B1F18
:100030000C942E1C0C942E1C0C94961F0C942E1CAD
:100040000C94A21E0C942E1C0C94701E0C944A1E30
:100050000C942E1C0C942E1C0C942E1C0C942E1CF8
:100060000C942E1C0C942E1C7E010000AD0100008F
:10007000DD0100000D0200003D0200006D020000E5
:10008000F8050000B7060000B7060000760700007C
:10009000760700003508000035080000F40800006D
:1000A000F4080000B4090000B4090000730A00005D
:1000B000730A0000320B0000320B0000F10B00004D
:1000C000F10B0000B00C0000B00C00006F0D000040
:1000D0006F0D00002E0E00002E0E0000ED0E000031
:1000E000ED0E0000AC0F0000AC0F00006B10000024
:1000F0006B1000002A1100002A110000E911000015
:10010000E9110000A9120000A91200006813000004
:10011000681300002714000027140000E6140000F4
:10012000E6140000A5150000A515000064160000E7
:10013000641600002317000023170000E2170000D8
:10014000E2170000A1180000A118000060190000CB
:10015000601900001F1A00001F1A0000DE1A0000BC
:10016000DE1A00009E1B00009E1B00005D1C0000AC
:100170005D1C00001C1D00001C1D0000DB1D00009C
:10018000DB1D00009A1E00009A1E0000591F00008F
:10019000591F00001820000018200000D720000080
:1001A000D720000096210000962100005522000073
:1001B000552200001423000014230000D323000064
:1001C000D323000093240000932400005225000054
:1001D000522500001126000011260000D026000044
:1001E000D02600008F2700008F2700004E28000037
:1001F0004E2800000D2900000D290000CC29000028
:10020000CC2900008B2A00008B2A00004A2B00001A
:100210004A2B0000092C0000092C0000C82C00000B
:10022000C82C0000882D0000882D0000472E0000FB
:10023000472E0000062F0000062F0000C52F0000EB
:10024000C52F0000C52F000002320000023200005E
:1002500002320000023200003F3400003F34000050
:100260003F3400003F340000BD350000BD350000C4
:10027000BD3500007D3600007D3600003C370000B3
:100280003C370000FB370000FB370000BA380000A5
:10029000BA3800007939000079390000383A000096
:1002A000383A0000F73A0000F73A0000B63B000089
:1002B000B63B0000753C0000753C0000343D00007A
:1002C000343D0000F33D0000F33D0000B23E00006D
:1002D000B23E0000723F0000723F0000314000005B
:1002E00031400000AF410000AF4100006E4200000D
:1002F0006E4200002D4300002D430000EC4300003F
:10030000EC430000AB440000AB4400006A45000031
:100310006A4500002946000029460000E846000022
:10032000E8460000A7470000A74700006748000014
:10033000674800002649000026490000E549000002
:10034000E5490000A44A0000A44A0000634B0000F5
:10035000634B0000224C0000224C0000E14C0000E6
:10036000E14C0000A04D0000A04D00005F4E0000D9
:100370005F4E00001E4F00001E4F0000DD4F0000CA
:10038000DD4F00009C5000009C5000005B510000BD
:100390005B5100001B5200001B520000DA520000AB
:1003A000DA5200009953000099530000585400009D
:1003B000585400001755000017550000D65500008E
:1003C000D655000095560000955600005457000081
:1003D00054570000135800001358000091590000B2
:1003E00091590000505A0000505A0000105B000064
:1003F000105B0000CF5B0000CF5B00008E5C000054
:100400008E5C00004D5D00004D5D00000C5E000044
:100410000C5E0000CB5E0000CB5E00008A5F000037
:100420008A5F0000C7610000C7610000056400002A
:1004300005640000836500008365000042660000DB
:10044000426600000167000001670000C06700000D
:10045000C06700007F6800007F6800003E69000000
:100460003E690000FD690000FD690000BC6A0000F3
:10047000BC6A00007B6B00007B6B00003A6C0000E4
:100480003A6C0000FA6C0000FA6C0000B96D0000D4
:10049000B96D0000786E0000786E0000376F0000C4
:1004A000376F0000F66F0000F66F0000B5700000B7
:1004B000B5700000747100007471000033720000A8
:1004C00033720000F2720000F2720000B17300009B
:1004D000B173000070740000707400002F7500008C
:1004E0002F750000EF750000EF750000AE7600007C
:1004F000AE7600006D7700006D770000EB780000AD
:10050000EB780000697A0000697A0000287B00001F
:10051000287B0000A67C0000A67C0000657D000012
:10052000657D0000247E0000247E0000E47E000043
:10053000E47E0000A37F0000A37F00006280000033
:10054000628000002181000021810000E081000024
:10055000E08100009F8200009F8200005E83000017
:100560005E8300001D8400001D840000DC84000008
:10057000DC8400009B8500009B8500005A860000FB
:100580005A8600001987000019870000D9870000EB
:10059000D9870000988800009888000057890000DB
:1005A00057890000168A0000168A0000D58A0000CC
:1005B000D58A0000948B0000948B0000538C0000BF
:1005C000538C0000128D0000128D0000D18D0000B0
:1005D000D18D0000908E0000908E00004F8F0000A3
:1005E0004F8F0000CE900000CE9000004C92000093
:1005F0004C9200000B9300000B9300004895000004
:10060000489500000796000007960000C696000077
:10061000C69600008597000085970000449800006A
:10062000449800000399000003990000C29900005B
:10063000C2990000829A0000829A0000419B00004B
:10064000419B0000009C0000009C0000BF9C00003B
:10065000BF9C00007E9D00007E9D00003D9E00002E
:100660003D9E0000FC9E0000FC9E0000BB9F000021
:10067000BB9F00007AA000007AA0000039A1000012
:1006800039A10000F8A10000F8A10000B7A2000005
:10069000B7A2000077A3000077A3000036A40000F3
:1006A00036A40000F5A40000F5A40000B4A50000E5
:1006B000B4A5000073A6000073A6000032A70000D6
:1006C00032A70000F1A70000F1A70000B0A80000C9
:1006D000B0A800006FA900006FA900002EAA0000BA
:1006E0002EAA0000ACAB0000ACAB00002BAD0000AC
:1006F0002BAD0000EAAD0000EAAD0000A9AE00009D
:10070000A9AE000068AF000068AF000027B000008D
:1007100027B00000E6B00000E6B00000A5B1000080
:10072000A5B1000064B2000064B2000023B3000071
:1007300023B30000E2B30000E2B30000A1B4000064
:10074000A1B4000061B5000061B5000020B6000052
:1007500020B60000DFB60000DFB600009EB7000044
:100760009EB700005DB800005DB800001CB9000035
:100770001CB90000DBB90000DBB900009ABA000028
:100780009ABA000059BB000059BB000018BC000019
:1007900018BC0000D7BC0000D7BC000096BD00000C
:1007A00096BD000056BE000056BE000015BF0000FA
:1007B00015BF0000D4BF0000D4BF000093C00000EC
:1007C00093C0000052C1000052C1000011C20000DD
:1007D00011C20000D0C20000D0C200008FC30000D0
:1007E0008FC300004EC400004EC400000DC50000C1
:1007F0000DC500000AC8000088C9000006CB000033
:1008000006CB0000C5CB0000C5CB000084CC0000A7
:1008100084CC000043CD000043CD000002CE000098
:1008200002CE0000C1CE0000C1CE000080CF00008B
:1008300080CF000040D0000040D00000FFD000007A
:10084000FFD00000BED10000BED100007DD200006C
:100850007DD200003CD300003CD30000FBD300005D
:10086000FBD30000BAD40000BAD4000079D5000050
:1008700079D50000F7D60000F7D60000B6D7000003
:10088000B6D7000075D8000075D8000035D9000033
:1008900035D90000F4D90000F4D90000B3DA000023
:1008A000B3DA000072DB000072DB000031DC000014
:1008B00031DC0000F0DC0000F0DC0000AFDD000007
:1008C000AFDD00006EDE00006EDE00002DDF0000F8
:1008D0002DDF0000ECDF0000ECDF0000ABE00000EB
:1008E000ABE000006AE100006AE1000029E20000DC
:1008F00029E20000E9E20000E9E20000A8E30000CC
:10090000A8E3000067E4000067E4000026E50000BB
:1009100026E50000E5E50000E5E50000A4E60000AE
:10092000A4E6000063E7000063E7000022E800009F
:1009300022E80000E1E80000E1E80000A0E9000092
:10094000A0E900005FEA00005FEA00001EEB000083
:100950001EEB0000DEEB0000DEEB00009DEC000073
:100960009DEC00005CED00005CED00001BEE000063
:100970001BEE0000DAEE0000DAEE000099EF000056
:1009800099EF000058F0000058F0000017F1000047
:1009900017F10000D6F10000D6F1000095F200003A
:1009A00095F2000054F3000054F3000013F400002B
:1009B00013F40000D3F40000D3F4000092F500001B
:1009C00092F5000051F6000051F6000010F700000B
:1009D00010F70000CFF70000CFF700008EF80000FE
:1009E0008EF800004DF900004DF900000CFA0000EF
:1009F0000CFA0000CBFA0000CBFA00008AFB0000E2
:100A00008AFB000049FC000049FC000008FD0000D2
:100A100008FD0000C8FD0000C8FD000087FE0000C2
:100A200087FE000046FF000046FF000005000100B1
:100A300005000100C4000100C400010083010100A1
:100A40008301010042020100420201000103010092
:100A500001030100C0030100C00301007F04010085
:100A60007F0401003E0501003E050100FD05010077
:100A7000FD050100BD060100BD0601003B080100A7
:100A8000370B0100B50C0100B50C0100740D01001D
:100A9000740D0100330E0100330E0100F20E01004F
:100AA000F20E0100B20F0100B20F0100711001003F
:100AB000711001003011010030110100EF1101002F
:100AC000EF110100AE120100AE1201006D13010022
:100AD0006D1301002C1401002C140100EB14010013
:100AE000EB140100AA150100AA150100AA150100C6
:100AF00069160100691601006916010069160100F6
:100B000028170100281701002817010028170100E5
:100B1000A7180100A7180100A71801006619010015
:100B200066190100251A0100251A0100E41A0100C6
:100B3000E41A0100A31B0100A31B0100621C0100B9
:100B4000621C0100211D0100211D0100E01D0100AA
:100B5000E01D01009F1E01009F1E01005E1F01009D
:100B60005E1F01001D2001001D200100DC2001008E
:100B7000DC2001009C2101009C2101005B2201007E
:100B80005B2201001A2301001A230100D92301006E
:100B9000D923010098240100982401005725010061
:100BA000572501001626010016260100D526010052
:100BB000D526010094270100942701005328010045
:100BC000532801001229010012290100D129010036
:100BD000D1290100912A0100912A0100502B010026
:100BE000502B01000F2C01000F2C0100CE2C010016
:100BF000CE2C01008D2D01008D2D01004C2E010009
:100C00004C2E01000B2F01000B2F01008930010039
:100C100089300100483101004831010007320100EC
:100C200007320100C6320100C632010085330100DF
:100C300085330100453401004534010004350100CD
:100C400004350100C3350100C335010082360100BF
:100C500082360100BF380100BF380100FC3A0100B4
:100C6000FC3A01007A3C01007A3C0100B83E0100E8
:100C7000B83E0100364001003640010073420100D9
:100C800073420100B0440100B04401002F4601004E
:100C90002F460100AD470100AD4701006C4801003F
:100CA0006C480100A94A0100A94A0100E64C010074
:100CB000E64C0100644E0100644E0100A2500100A8
:100CC000A25001006151010061510100DF52010099
:100CD000DF5201005D5401005D5401001C5501000C
:100CE0001C550100DB550100DB5501009A5601003F
:100CF0009A5601005957010059570100195801002F
:100D000019580100D8580100D8580100975901001E
:100D100097590100565A0100565A0100155B01000F
:100D2000155B0100D45B0100D45B0100935C010002
:100D3000935C0100525D0100525D0100115E0100F3
:100D4000115E0100D05E0100D05E01008F5F0100E6
:100D50008F5F01004E6001004E6001000E610100D6
:100D60000E610100CD610100CD6101008C620100C6
:100D70008C6201004B6301004B6301000A640100B7
:100D80000A640100C9640100C964010088650100AA
:100D9000886501004766010047660100066701009B
:100DA00006670100C5670100C5670100846801008E
:100DB000846801004369010043690100036A01007E
:100DC000036A0100C26A0100C26A0100816B01006E
:100DD000816B0100406C0100406C0100BE6D0100A0
:100DE000BA7001003872010038720100F872010017
:100DF000F8720100B7730100B77301007674010047
:100E0000767401003575010035750100F475010037
:100E1000F4750100B3760100B3760100727701002A
:100E2000727701003178010031780100F07801001B
:100E3000F0780100AF790100AF7901006E7A01000E
:100E40006E7A01002D7B01002D7B0100EC7B0100FF
:100E5000EC7B0100AC7C0100AC7C01006B7D0100EF
:100E60006B7D01002A7E01002A7E0100E97E0100DF
:100E7000E97E0100A87F0100A87F010067800100D2
:100E8000678001002681010026810100E5810100C3
:100E9000E5810100A4820100A482010063830100B6
:100EA000638301002284010022840100E1840100A7
:100EB000E1840100A1850100A18501006086010097
:100EC000608601001F8701001F870100DE87010087
:100ED000DE8701009D8801009D8801005C8901007A
:100EE0005C8901001B8A01001B8A0100DA8A01006B
:100EF000DA8A0100998B0100998B0100588C01005E
:100F0000588C0100178D0100178D0100D68D01004E
:100F1000D68D0100968E0100968E0100558F01003E
:100F2000558F01001490010014900100D39001002E
:100F3000D390010092910100929101005192010021
:100F4000519201001093010010930100CF93010012
:100F5000CF9301008E9401008E9401004D95010005
:100F60004D9501000C9601000C9601008B97010035
:100F7000879A0100059C0100059C0100C49C0100AA
:100F8000C49C0100839D0100839D0100429E0100DD
:100F9000429E0100019F0100019F0100C09F0100CE
:100FA000C09F010080A0010080A001003FA10100BE
:100FB0003FA10100FEA10100FEA10100BDA20100B0
:100FC000BDA201007CA301007CA301003BA40100A1
:100FD0003BA40100FAA40100FAA40100B9A5010094
:100FE000B9A5010078A6010078A60100F6A70100C6
:100FF000F6A70100B5A80100B5A8010075A9010078
:1010000075A9010034AA010034AA0100F3AA010065
:10101000F3AA0100B2AB0100B2AB010071AC010058
:1010200071AC010030AD010030AD0100EFAD010049
:10103000EFAD0100AEAE0100AEAE01006DAF01003C
:101040006DAF01002CB001002CB00100EBB001002D
:10105000EBB00100AAB10100AAB101006AB201001F
:101060006AB2010029B3010029B30100E8B301000D
:10107000E8B30100A7B40100A7B4010066B5010000
:1010800066B5010025B6010025B60100E4B60100F1
:10109000E4B60100A3B70100A3B7010062B80100E4
:1010A00062B8010021B9010021B90100E0B90100D5
:1010B000E0B901009FBA01009FBA01005FBB0100C7
:1010C0005FBB01001EBC01001EBC0100DDBC0100B5
:1010D000DDBC0100DDBC01009CBD01009CBD010028
:1010E0009CBD01009CBD01005BBE01005BBE010018
:1010F0005BBE01005BBE0100D9BF0100D9BF01008A
:10110000D9BF010098C0010098C0010057C101007B
:1011100057C1010016C2010016C20100D5C201006C
:10112000D5C2010094C3010094C3010053C401005F
:1011300053C4010013C5010013C50100D2C501004D
:10114000D2C501000FC801000FC801004CCA010040
:101150004CCA0100CACB0100CACB0100C3D10100B7
:10116000000000000000000000000000450000003A
:101170008A000000450000008A00000045000000D1
:101180008A000000450000008A00000045000000C1
:101190008A000000450000008A00000045000000B1
:1011A0008A000000450000008A00000045000000A1
:1011B0008A000000450000008A0000004500000091
:1011C0008A000000450000008A0000004500000081
:1011D0008A000000450000008A0000004500000071
:1011E0008A000000450000008A0000004500000061
:1011F0008A000000450000008A0000004500000051
:101200008A000000450000008A0000004500000040
:101210008A000000450000008A0000004500000030
:101220008A000000450000008A0000004500000020
:101230008A000000450000008A0000004500000010
:101240008A000000450000008A0000008A00450076
:10125000000000008A0045000000000045008A00F0
:1012600000000000370000006E00000037000000A2
:101270006E0000003D0000007B0000003D0000000B
:101280007B000000450000008A0000004D000000C7
:101290009B0000008A000000A40000008A000000FB
:1012A000370000006E000000370000006E000000F4
:1012B0003D0000007B0000003D0000007B000000BE
:1012C0002900000052000000290000005200000028
:1012D00033000000670000003300000067000000DA
:1012E000370000006E000000370000006E000000B4
:1012F0003D0000007B0000003D0000007B0000007E
:10130000450000008A0000004D0000009B00000026
:101310008A000000A40000008A00000037000000DE
:101320006E000000370000006E0000003D0000006D
:101330007B0000003D0000007B0000005200000028
:101340006700000082000000450000008A000000E5
:10135000450000008A000000450000008A000000EF
:10136000450000008A00000052000000A4000000B8
:1013700052000000A40000003D0000007B000000BF
:101380003D0000007B000000450000008A000000D6
:10139000450000008A000000450000008A000000AF
:1013A000450000008A000000A4000000A400000026
:1013B000B8000000B8000000B800000045000000C0
:1013C0008A000000450000008A000000450000007F
:1013D0008A000000450000008A0000005200000062
:1013E000A400000052000000A40000003D00000026
:1013F0007B0000003D0000007B0000004500000075
:101400008A000000450000008A000000450000003E
:101410008A000000450000008A000000A4000000CF
:10142000A4000000B8000000B80000003700000071
:101430006E000000370000006E0000003700000062
:101440006E000000370000006E0000003700000052
:101450006E000000370000006E0000003700000042
:101460006E000000370000006E0000004500000024
:101470008A000000450000008A00000045000000CE
:101480008A000000450000008A00000045000000BE
:101490008A000000450000008A0000008A00000069
:1014A0007B0000002E0000005C0000002E00000009
:1014B0005C0000002E0000005C0000002E00000018
:1014C0005C000000330000006700000033000000F3
:1014D00067000000330000006700000033000000D8
:1014E00067000000370000006E00000037000000B9
:1014F0006E000000370000006E00000037000000A2
:101500006E0000003D0000007B0000003D00000078
:101510007B0000003D0000007B0000003D0000005B
:101520007B0000007B0000007B0000003700000013
:101530006E000000370000006E0000003D0000005B
:101540007B0000003D0000007B0000004500000023
:101550008A0000004D0000009B0000008A0000008F
:10156000A40000008A000000370000006E000000A8
:10157000370000006E0000003D0000007B0000000E
:101580003D0000007B000000290000005200000028
:101590002900000052000000330000006700000036
:1015A0003300000067000000370000006E000000FC
:1015B000370000006E0000003D0000007B000000CE
:1015C0003D0000007B000000450000008A00000094
:1015D0004D0000009B00000052000000A40000002D
:1015E000450000008A0000002E0000005C000000A2
:1015F0002E0000005C0000002E0000005C000000D7
:101600002E0000005C0000003300000067000000B6
:101610003300000067000000330000006700000096
:101620003300000067000000370000006E0000007B
:10163000370000006E000000370000006E00000060
:10164000370000006E0000003D0000007B0000003D
:101650003D0000007B0000003D0000007B0000001A
:101660003D0000007B0000007B0000007B000000CC
:10167000370000006E000000370000006E00000020
:101680003D0000007B0000003D0000007B000000EA
:10169000450000008A0000004D0000009B00000093
:1016A00045008A00000000005200A4000000000075
:1016B00045008A0000000000370000006E000000B6
:1016C000370000006E0000003D0000007B000000BD
:1016D0003D0000007B0000002900000052000000D7
:1016E00029000000520000003300000067000000E5
:1016F0003300000067000000370000006E000000AB
:10170000370000006E0000003D0000007B0000007C
:101710003D0000007B000000450000008A00000042
:101720004D0000009B0000008A000000A4000000A3
:101730008A000000370000006E0000003700000043
:101740006E0000003D0000007B0000003D00000036
:101750007B000000520000006700000082000000D3
:101760006E0000006E0000006E0000006E000000C1
:101770006E0000006E0000006E0000008A00000095
:101780008A0000008A0000008A0000008A00000031
:101790008A0000007B0000002E0000005C000000BA
:1017A0002E0000005C0000002E0000005C00000025
:1017B0002E0000005C000000330000006700000005
:1017C00033000000670000003300000067000000E5
:1017D0003300000067000000370000006E000000CA
:1017E000370000006E000000370000006E000000AF
:1017F000370000006E0000003D0000007B0000008C
:101800003D0000007B0000003D0000007B00000068
:101810003D0000007B0000007B0000007B0000001A
:10182000370000006E000000370000006E0000006E
:101830003D0000007B0000003D0000007B00000038
:10184000450000008A0000004D0000009B000000E1
:1018500052000000A4000000450000008A000000C3
:101860002E0000005C0000002E0000005C00000064
:101870002E0000005C0000002E0000005C00000054
:101880003300000067000000330000006700000024
:101890003300000067000000330000006700000014
:1018A000370000006E000000370000006E000000EE
:1018B000370000006E000000370000006E000000DE
:1018C0003D0000007B0000003D0000007B000000A8
:1018D0003D0000007B0000003D0000007B00000098
:1018E0007B0000007B000000370000006E0000005D
:1018F000370000006E0000003D0000007B0000008B
:101900003D0000007B000000450000008A00000050
:101910004D0000009B0000008A000000A4000000B1
:101920008A000000370000006E0000003700000051
:101930006E0000003D0000007B0000003D00000044
:101940007B00000029000000520000002900000078
:101950005200000033000000670000003300000068
:1019600067000000370000006E0000003700000034
:101970006E0000003D0000007B0000003D00000004
:101980007B000000450000008A0000004D000000C0
:101990009B00000045008A00000000005200A400E7
:1019A0000000000045008A00000000003700000031
:1019B0006E000000370000006E0000003D000000D7
:1019C0007B0000003D0000007B0000005200000092
:1019D00067000000820000008A0000007E01000015
:1019E000AD010000DD0100000D0200003D0200001D
:1019F0006D020000F8050000B7060000B706000001
:101A00007607000076070000350800003508000062
:101A1000F4080000F4080000B4090000B409000054
:101A2000730A0000730A0000320B0000320B000042
:101A3000F10B0000F10B0000B00C0000B00C000036
:101A40006F0D00006F0D00002E0E00002E0E000026
:101A5000ED0E0000ED0E0000AC0F0000AC0F00001A
:101A60006B1000006B1000002A1100002A1100000A
:101A7000E9110000E9110000A9120000A9120000FC
:101A800068130000681300002714000027140000EA
:101A9000E6140000E6140000A5150000A5150000DE
:101AA00064160000641600002317000023170000CE
:101AB000E2170000E2170000A1180000A1180000C2
:101AC00060190000601900001F1A00001F1A0000B2
:101AD000DE1A0000DE1A00009E1B00009E1B0000A4
:101AE0005D1C00005D1C00001C1D00001C1D000092
:101AF000DB1D0000DB1D00009A1E00009A1E000086
:101B0000591F0000591F0000182000001820000075
:101B1000D7200000D7200000962100009621000069
:101B20005522000055220000142300001423000059
:101B3000D3230000D323000093240000932400004B
:101B40005225000052250000112600001126000039
:101B5000D0260000D02600008F2700008F2700002D
:101B60004E2800004E2800000D2900000D2900001D
:101B7000CC290000CC2900008B2A00008B2A000011
:101B80004A2B00004A2B0000092C0000092C000001
:101B9000C82C0000C82C0000882D0000882D0000F3
:101BA000472E0000472E0000062F0000062F0000E1
:101BB000C52F0000C52F0000BD350000BD35000059
:101BC0001D3600001D3600007D3600007D36000009
:101BD000DC360000DC3600003C3700003C370000FB
:101BE0009B3700009B370000FB370000FB370000ED
:101BF000BA380000BA38000019390000193900005D
:101C0000D8390000D8390000383A0000383A0000CE
:101C1000973A0000973A0000F73A0000F73A0000C0
:101C2000573B0000573B0000B63B0000B63B0000AE
:101C3000163C0000163C0000753C0000753C00009E
:101C4000D53C0000D53C0000343D0000343D000090
:101C5000943D0000943D0000F33D0000F33D000082
:101C6000B23E0000B23E0000123F0000123F0000F2
:101C7000723F0000723F0000D13F0000D13F0000E2
:101C800031400000314000009040000090400000D2
:101C9000F0400000F04000004F4100004F410000C4
:101CA000AF410000AF4100000E4200000E420000B4
:101CB0006E4200006E420000CD420000CD420000A6
:101CC0002D4300002D4300008C4300008C43000096
:101CD000EC430000EC430000AB440000AB440000C8
:101CE0000B4500000B450000CA450000CA45000036
:101CF0002946000029460000894600008946000068
:101D0000E8460000E8460000484700004847000059
:101D1000A7470000A7470000074800000748000049
:101D20006748000067480000C6480000C648000039
:101D30002649000026490000E5490000E549000069
:101D4000444A0000444A0000A44A0000A44A00009B
:101D5000034B0000034B0000634B0000634B00008B
:101D6000224C0000224C0000814C0000814C0000FD
:101D7000E14C0000E14C0000414D0000414D0000ED
:101D8000A04D0000A04D0000004E0000004E0000DD
:101D90005F4E00005F4E0000BF4E0000BF4E0000CF
:101DA0001E4F00001E4F00007E4F00007E4F0000BF
:101DB000DD4F0000DD4F00009C5000009C500000F3
:101DC000FC500000FC500000BB510000BB51000063
:101DD0001B5200001B5200007A5200007A52000091
:101DE000DA520000DA520000395300003953000083
:101DF0009953000099530000F8530000F853000075
:101E00005854000058540000B7540000B754000064
:101E10001755000017550000765500007655000054
:101E2000D6550000D6550000955600009556000086
:101E3000F5560000F55600005457000054570000B6
:101E4000B4570000B45700001358000013580000A6
:101E50007358000073580000D2580000D258000098
:101E60003259000032590000915900009159000088
:101E7000F1590000F1590000505A0000505A00007A
:101E8000B05A0000B05A0000105B0000105B000068
:101E90006F5B00006F5B0000CF5B0000CF5B00005A
:101EA0008E5C00008E5C0000ED5C0000ED5C0000CC
:101EB000AC5D0000AC5D00000C5E00000C5E00003C
:101EC0006B5E00006B5E0000CB5E0000CB5E00002E
:101ED0002B5F00002B5F00008A5F00008A5F00001C
:101EE000EA5F0000EA5F000049600000496000000E
:101EF000A9600000A96000000861000008610000FE
:101F0000C7610000C761000027620000276200006F
:101F10008662000086620000E6620000E662000061
:101F2000456300004563000005640000056400008F
:101F30006464000064640000C4640000C4640000C1
:101F400023650000236500008365000083650000B1
:101F50004266000042660000016700000167000061
:101F6000C0670000C06700007F6800007F68000055
:101F70003E6900003E690000BC6A0000BC6A0000C7
:101F80003A6C00003A6C0000FA6C0000FA6C000039
:101F9000B96D0000B96D0000786E0000786E000029
:101FA000376F0000376F0000B5700000B57000009B
:101FB000747100007471000033720000337200000D
:101FC000F2720000F2720000B1730000B173000001
:101FD0001174000011740000D0740000D07400006F
:101FE0008F7500008F750000EF750000EF75000021
:101FF000AE760000AE7600006D7700006D770000D1
:10200000EB780000EB780000697A0000697A000044
:10201000287B0000287B0000A67C0000A67C000036
:10202000657D0000657D0000247E0000247E0000A8
:10203000E47E0000E47E0000A37F0000A37F000098
:102040006280000062800000218100002181000088
:102050009F8200009F8200001D8400001D840000FC
:10206000DC840000DC8400009B8500009B85000070
:102070005A8600005A860000198700001987000060
:102080009888000098880000578900005789000050
:10209000168A0000168A0000D58A0000D58A000042
:1020A000948B0000948B0000F38B0000F38B0000F6
:1020B000B38C0000B38C0000728D0000728D0000A4
:1020C000D18D0000D18D0000908E0000908E000018
:1020D0004F8F00004F8F0000CE900000CE90000088
:1020E0004C9200004C9200000B9300000B930000F8
:1020F000899400008994000007960000079600006C
:10210000C6960000C69600008597000085970000DF
:102110004498000044980000C2990000C299000051
:10212000829A0000829A0000009C0000009C00003F
:10213000BF9C0000BF9C00007E9D00007E9D0000B3
:102140003D9E00003D9E00007AA000007AA00000A5
:10215000F8A10000F8A10000B7A20000B7A200009B
:1021600077A3000077A3000036A4000036A4000087
:10217000B4A50000B4A5000073A6000073A600007B
:10218000F1A70000F1A70000B0A80000B0A800006F
:102190006FA900006FA900002EAA00002EAA00005F
:1021A000ACAB0000ACAB00006CAC00006CAC000051
:1021B000EAAD0000EAAD0000A9AE0000A9AE000043
:1021C00068AF000068AF000027B0000027B0000033
:1021D00064B2000064B20000E2B30000E2B30000A9
:1021E000A1B40000A1B4000061B5000061B5000019
:1021F00020B6000020B600005DB800005DB8000009
:102200001CB900001CB90000DBB90000DBB90000FC
:1022100059BB000059BB0000D7BC0000D7BC000070
:1022200056BE000056BE000015BF000015BF0000DE
:10223000D4BF0000D4BF000093C0000093C00000D2
:1022400052C1000052C10000D0C20000D0C2000044
:102250000DC500000DC500008BC600000AC80000B7
:10226000C9C80000C9C8000088C9000088C90000AA
:1022700047CA000047CA000006CB000006CB00009A
:1022800002CE000002CE0000C1CE0000C1CE000090
:1022900080CF000080CF000040D0000040D0000080
:1022A000BED10000BED10000FBD30000FBD3000074
:1022B000BAD40000BAD4000079D5000079D5000066
:1022C00038D6000038D60000F7D60000F7D6000058
:1022D000F4D90000F4D90000B3DA0000B3DA00004A
:1022E00072DB000072DB000031DC000031DC00003A
:1022F000AFDD0000AFDD00002DDF00002DDF0000AE
:10230000ABE00000ABE00000E9E20000E9E2000021
:1023100067E4000067E40000E5E50000E5E5000093
:10232000A4E60000A4E6000063E7000063E7000005
:1023300022E8000022E80000A0E90000A0E9000077
:102340001EEB00001EEB00009DEC00009DEC000069
:102350005CED00005CED00001BEE00001BEE0000D9
:1023600099EF000099EF000058F0000058F00000CD
:1023700017F1000017F1000095F2000095F200003F
:1023800054F3000054F3000013F4000013F40000B1
:1023900092F5000092F5000051F6000051F60000A1
:1023A00010F7000010F700008EF800008EF8000013
:1023B0004DF900004DF900000CFA00000CFA000085
:1023C0008AFB00008AFB000008FD000008FD0000F9
:1023D00087FE000087FE00000500010005000100E7
:1023E00083010100830101000103010001030100D9
:1023F000BD060100B9090100780A0100780A010050
:10240000370B0100370B0100F60B0100F60B010042
:10241000B50C0100B50C0100150D0100150D0100F2
:10242000740D0100740D0100D40D0100D40D0100E4
:10243000330E0100330E0100930E0100930E0100D4
:10244000F20E0100F20E0100B20F0100B20F010006
:102450001110010011100100D0100100D010010076
:1024600030110100301101008F1101008F110100A6
:10247000EF110100EF1101004E1201004E12010098
:10248000AE120100AE1201000D1301000D13010088
:102490006D1301006D130100CC130100CC1301007A
:1024A0002C1401002C1401008C1401008C14010068
:1024B000EB140100EB140100AA150100AA1501009C
:1024C0000A1601000A1601006916010069160100CA
:1024D000C9160100C91601002817010028170100BC
:1024E0008817010088170100E7170100E7170100AE
:1024F0004718010047180100A7180100A71801009C
:10250000061901000619010066190100661901008B
:10251000C5190100C5190100251A0100251A01007D
:10252000841A0100841A0100E41A0100E41A01006F
:10253000A31B0100A31B0100021C0100021C0100DF
:10254000C11C0100C11C0100211D0100211D010051
:10255000811D0100811D0100E01D0100E01D010041
:10256000401E0100401E01009F1E01009F1E010031
:10257000FF1E0100FF1E01005E1F01005E1F010023
:10258000BE1F0100BE1F01001D2001001D20010013
:10259000DC200100DC2001003C2101003C21010085
:1025A0009C2101009C210100FB210100FB21010075
:1025B0005B2201005B2201001A2301001A230100A3
:1025C0007923010079230100D9230100D9230100D7
:1025D00038240100382401009824010098240100C7
:1025E000F7240100F72401005725010057250100B9
:1025F000B6250100B62501001626010016260100A9
:102600007626010076260100D5260100D526010098
:102610009427010094270100F4270100F42701000A
:10262000B3280100B328010012290100122901007A
:102630007229010072290100D1290100D12901006C
:10264000312A0100312A0100912A0100912A01005A
:10265000F02A0100F02A0100502B0100502B01004C
:10266000AF2B0100AF2B01000F2C01000F2C01003C
:102670006E2C01006E2C0100CE2C0100CE2C01002E
:102680008D2D01008D2D0100EC2D0100EC2D0100A0
:102690004C2E01004C2E0100AB2E0100AB2E010090
:1026A0000B2F01000B2F01006B2F01006B2F01007E
:1026B000CA2F0100CA2F01002A3001002A30010070
:1026C0008930010089300100E9300100E930010062
:1026D0004831010048310100A8310100A831010052
:1026E0000732010007320100673201006732010042
:1026F000C6320100C6320100853301008533010076
:10270000E5330100E5330100A4340100A4340100E5
:102710000435010004350100633501006335010013
:10272000C3350100C3350100223601002236010005
:102730008236010082360100E1360100E1360100F7
:102740004137010041370100A0370100A0370100E7
:102750000038010000380100BF380100BF38010017
:102760001F3901001F3901007E3901007E39010047
:10277000DE390100DE3901003D3A01003D3A010039
:10278000FC3A0100FC3A01005C3B01005C3B0100AB
:10279000BB3B0100BB3B01001B3C01001B3C01009B
:1027A0007A3C01003A3D0100F93D0100F93D01008C
:1027B000B83E0100B83E0100773F0100773F0100BD
:1027C000F5400100F5400100B4410100B4410100B1
:1027D0003243010032430100F1430100F1430100A3
:1027E000B0440100B04401006F4501006F45010095
:1027F000AD470100AD4701002B4901002B49010005
:10280000EA490100EA490100A94A0100A94A010078
:10281000684B0100684B0100E64C0100E64C0100EA
:10282000A54D0100A54D0100244F0100244F0100DA
:10283000E34F0100E34F0100A2500100A25001004C
:102840006151010061510100DF520100DF520100BE
:102850009E5301009E5301001C5501001C550100B0
:10286000DB550100DB5501009A5601009A56010024
:102870005957010059570100975901009759010014
:10288000565A0100565A0100155B0100155B010004
:10289000D45B0100D45B0100935C0100935C0100F8
:1028A000525D0100525D01008F5F01008F5F0100EA
:1028B0004E6001004E6001004B6301004B6301005C
:1028C00088650100886501004766010047660100D0
:1028D0000667010006670100C5670100C5670100C2
:1028E0008468010084680100036A0100036A010032
:1028F000406C0100406C0100BE6D01003C6F0100A6
:10290000FB6F0100FB6F0100BA700100BA7001009B
:10291000797101007971010038720100387201008B
:102920003575010035750100F4750100F47501007D
:10293000B3760100B376010072770100727701006F
:10294000F0780100F07801002D7B0100EC7B0100A4
:10295000AC7C0100AC7C01006B7D01006B7D010053
:10296000E97E0100E97E0100A87F0100A87F010047
:102970006780010067800100E5810100E5810100B9
:10298000A4820100A482010063830100638301002B
:10299000E1840100E1840100A1850100A18501001D
:1029A0006086010060860100DE870100DE8701008D
:1029B0009D8801009D8801005C8901005C890100FF
:1029C000DA8A0100DA8A0100588C0100588C010073
:1029D000D68D0100D68D0100558F0100558F010065
:1029E000D3900100D3900100519201005192010057
:1029F0000C96010009990100C8990100C8990100CD
:102A0000879A0100879A0100469B0100469B0100BE
:102A1000059C0100059C0100659C0100659C01006E
:102A2000C49C0100C49C0100249D0100249D010060
:102A3000839D0100839D0100E39D0100E39D010052
:102A4000429E0100429E0100019F0100019F010082
:102A5000619F0100619F010020A0010020A00100F2
:102A600080A0010080A00100DFA00100DFA0010024
:102A70003FA101003FA101009EA101009EA1010014
:102A8000FEA10100FEA101005DA201005DA2010006
:102A9000BDA20100BDA201001CA301001CA30100F6
:102AA0007CA301007CA30100DBA30100DBA30100E8
:102AB0003BA401003BA40100FAA40100FAA4010018
:102AC0005AA501005AA50100B9A50100B9A5010048
:102AD00019A6010019A6010078A6010078A6010038
:102AE000D8A60100D8A6010037A7010037A701002A
:102AF00097A7010097A70100F6A70100F6A701001C
:102B000056A8010056A80100B5A80100B5A801000B
:102B100015A9010015A9010075A9010075A90100F9
:102B2000D4A90100D4A9010034AA010034AA0100EB
:102B3000F3AA0100F3AA010052AB010052AB01005D
:102B400011AC010011AC010071AC010071AC0100CD
:102B5000D0AC0100D0AC010030AD010030AD0100BF
:102B60008FAD01008FAD0100EFAD0100EFAD0100B1
:102B70004FAE01004FAE0100AEAE0100AEAE01009F
:102B80000EAF01000EAF01006DAF01006DAF01008F
:102B90002CB001002CB001008CB001008CB0010001
:102BA000EBB00100EBB001004BB101004BB10100F3
:102BB000AAB10100AAB101006AB201006AB2010023
:102BC000C9B20100C9B2010029B3010029B3010053
:102BD00088B3010088B30100E8B30100E8B3010045
:102BE00047B4010047B40100A7B40100A7B4010035
:102BF00006B5010006B5010066B5010066B5010025
:102C0000C5B50100C5B5010025B6010025B6010016
:102C1000E4B60100E4B6010044B7010044B7010086
:102C200003B8010003B8010062B8010062B80100F6
:102C3000C2B80100C2B8010021B9010021B90100E8
:102C400081B9010081B90100E0B90100E0B90100DA
:102C500040BA010040BA01009FBA01009FBA0100CA
:102C6000FFBA0100FFBA01005FBB01005FBB0100BA
:102C7000BEBB0100BEBB01001EBC01001EBC0100AA
:102C8000DDBC0100DDBC01003CBD01003CBD01001C
:102C90009CBD01009CBD0100FBBD0100FBBD01000E
:102CA0005BBE01005BBE0100BABE0100BABE0100FE
:102CB0001ABF01001ABF010079BF010079BF0100EE
:102CC000D9BF0100D9BF010039C0010039C00100DE
:102CD00098C0010098C00100F8C00100F8C00100D0
:102CE00057C1010057C10100B7C10100B7C10100C0
:102CF00016C2010016C20100D5C20100D5C20100F2
:102D000035C3010035C30100F4C30100F4C3010061
:102D100053C4010053C40100B3C40100B3C4010093
:102D200013C5010013C5010072C5010072C5010081
:102D3000D2C50100D2C5010031C6010031C6010073
:102D400091C6010091C60100F0C60100F0C6010065
:102D500050C7010050C701000FC801000FC8010093
:102D60006EC801006EC80100CEC80100CEC80100C7
:102D70002EC901002EC901008DC901008DC90100B5
:102D80004CCA01004CCA0100ACCA0100ACCA010027
:102D90000BCB01000BCB01006BCB01006BCB010017
:102DA000CACB0100CACB0100CACB0100CACB0100CB
:102DB000C3D10100C3D10100C3D101000000000054
:102DC0000000000000000000CF000000150100001E
:102DD000CF00000015010000CF0000002501000019
:102DE000CF00000049010000CF00000015010000E5
:102DF000CF00000015010000CF00000025010000F9
:102E0000CF00000049010000CF00000015010000C4
:102E1000CF00000015010000CF00000049010000B4
:102E2000CF00000025010000CF00000015010000C8
:102E300015010000CF000000150100001501000081
:102E4000CF00000015010000CF00000015010000B8
:102E5000CF00000015010000CF0000002501000098
:102E6000CF00000049010000CF0000001501000064
:102E7000CF00000015010000CF0000002501000078
:102E8000CF00000049010000CF0000001501000044
:102E9000CF00000015010000CF0000004901000034
:102EA000CF0000002501000015010000ED01000029
:102EB0002A0200006E02000093020000E3020000FC
:102EC000ED0100003E030000ED0100003E030000A4
:102ED000E302000093020000ED010000E3020000A5
:102EE000ED010000ED0100002A0200006E0200006A
:102EF00093020000E3020000ED0100003E03000029
:102F0000540400003E0300002A020000DB0300001E
:102F1000700300002A0200003E0300002A020000A5
:102F2000ED0100002A0200006E0200009302000082
:102F3000E3020000ED0100003E030000ED0100008F
:102F40003E030000E302000093020000ED010000D8
:102F5000E3020000ED010000ED0100006E02000040
:102F600093020000E30200003E030000ED010000B8
:102F70006E02000093020000E30200003E03000026
:102F80000B0200006E0200003E0300006E02000013
:102F9000ED0100002A0200006E0200009302000012
:102FA000E3020000ED0100003E030000ED0100001F
:102FB0003E030000E302000093020000ED01000068
:102FC000E3020000ED010000ED0100002A02000014
:102FD0006E02000093020000E3020000ED01000019
:102FE0003E030000540400003E0300002A020000DB
:102FF000DB030000700300002A0200003E03000013
:103000002A020000ED0100002A0200006E0200000A
:1030100093020000E3020000ED0100003E03000007
:10302000ED0100003E030000E302000093020000F7
:10303000ED010000E3020000ED010000ED010000E1
:103040006E02000093020000E30200003E03000055
:10305000ED0100006E02000093020000E302000098
:103060003E0300000B0200006E0200003E03000061
:103070006E0200001501000015010000490100006A
:103080001501000049010000490100007101000024
:1030900071010000490100004901000037010000F2
:1030A0004901000015010000150100001501000094
:1030B00049010000F6000000150100004901000070
:1030C000F600000015010000490100004901000060
:1030D0004901000071010000710100007101000050
:1030E0001501000015010000490100001501000054
:1030F0004901000049010000710100007101000058
:1031000049010000490100003701000049010000A9
:103110001501000015010000150100004901000023
:10312000F60000001501000049010000F600000053
:10313000150100004901000049010000490100009B
:103140007101000071010000490100004901000007
:103150003701000049010000490100004901000059
:103160007101000049010000370100004901000021
:10317000150100004901000049010000370100006D
:1031800049010000490100004901000071010000EF
:1031900049010000710100009F0100009F01000033
:1031A0009F010000490100004901000037010000B3
:1031B000490100001501000049010000490100001B
:1031C0003701000049010000F6000000CF000000B8
:1031D000CF0000009F010000150100009F010000CA
:1031E0009F010000150100009F0100001501000073
:1031F0009F01000071010000E302000015010000C2
:103200003701000049010000710100009F0100002A
:103210007101000049010000370100003701000082
:1032200049010000150100003701000049010000BC
:10323000710100009F010000710100007101000098
:103240007101000071010000ED0100009F0100000C
:10325000710100009F0100009F010000710100004A
:10326000490100003701000037010000490100005A
:1032700015010000150100003701000049010000A0
:103280002A0200006E0200009302000037010000D5
:1032900049010000710100006E020000930200006D
:1032A000E302000049010000710100009F010000DD
:1032B0009F0100009F0100009F010000ED01000040
:1032C000B80100009F010000370100001501000057
:1032D000F600000015010000ED0100002A020000C8
:1032E0006E02000093020000E3020000ED01000006
:1032F0003E030000ED0100003E030000E302000079
:1033000093020000ED010000E3020000ED01000067
:10331000ED0100002A0200006E020000930200008E
:10332000E3020000ED0100003E0300005404000031
:103330003E0300002A020000DB03000070030000CF
:103340002A0200003E0300002A020000ED010000F6
:103350002A0200006E02000093020000E302000057
:10336000ED0100003E030000ED0100003E030000FF
:10337000E302000093020000ED010000E302000000
:10338000ED010000ED0100006E020000930200005C
:10339000E30200003E030000ED0100006E020000A9
:1033A00093020000E30200003E0300000B02000055
:1033B0006E0200003E0300006E020000ED010000FE
:1033C0002A0200006E02000093020000E3020000E7
:1033D000ED0100003E030000ED0100003E0300008F
:1033E000E302000093020000ED010000E302000090
:1033F000ED010000ED0100002A0200006E02000055
:1034000093020000E3020000ED0100003E03000013
:10341000540400003E0300002A020000DB03000009
:10342000700300002A0200003E0300002A02000090
:10343000ED0100002A0200006E020000930200006D
:10344000E3020000ED0100003E030000ED0100007A
:103450003E030000E302000093020000ED010000C3
:10346000E3020000ED010000ED0100006E0200002B
:1034700093020000E30200003E030000ED010000A3
:103480006E02000093020000E30200003E03000011
:103490000B0200006E0200003E0300006E020000FE
:1034A000930200006E0200009302000093020000ED
:1034B00093020000E3020000930200006E0200008D
:1034C000930200002A020000930200009302000011
:1034D0006E020000930200009302000093020000BD
:1034E000E302000093020000E30200003E0300003C
:1034F0003E0300003E030000930200009302000020
:103500006E020000930200002A02000093020000F5
:103510006E020000930200006E02000093020000A1
:10352000ED010000B80100009F01000093020000BF
:103530006E0200002A0200003E0300002A02000082
:103540003E030000E3020000E3020000150100005A
:103550003701000049010000710100009F010000D7
:10356000710100004901000037010000370100002F
:103570004901000015010000370100004901000069
:103580002A0200006E0200009302000037010000D2
:1035900049010000710100006E020000930200006A
:1035A000E302000049010000710100009F010000DA
:1035B0009F0100009F0100009F010000ED0100003D
:1035C000B80100009F010000370100001501000054
:1035D000F600000015010000ED0100002A020000C5
:1035E0006E02000093020000E3020000ED01000003
:1035F0003E030000ED0100003E030000E302000076
:1036000093020000ED010000E3020000ED01000064
:10361000ED0100002A0200006E020000930200008B
:10362000E3020000ED0100003E030000540400002E
:103630003E0300002A020000DB03000070030000CC
:103640002A0200003E0300002A020000ED010000F3
:103650002A0200006E02000093020000E302000054
:10366000ED0100003E030000ED0100003E030000FC
:10367000E302000093020000ED010000E3020000FD
:10368000ED010000ED0100006E0200009302000059
:10369000E30200003E030000ED0100006E020000A6
:1036A00093020000E30200003E0300000B02000052
:1036B0006E0200003E0300006E020000ED010000FB
:1036C0002A0200006E02000093020000E3020000E4
:1036D000ED0100003E030000ED0100003E0300008C
:1036E000E302000093020000ED010000E30200008D
:1036F000ED010000ED0100002A0200006E02000052
:1037000093020000E3020000ED0100003E03000010
:10371000540400003E0300002A020000DB03000006
:10372000700300002A0200003E0300002A0200008D
:10373000ED0100002A0200006E020000930200006A
:10374000E3020000ED0100003E030000ED01000077
:103750003E030000E302000093020000ED010000C0
:10376000E3020000ED010000ED0100006E02000028
:1037700093020000E30200003E030000ED010000A0
:103780006E02000093020000E30200003E0300000E
:103790000B0200006E0200003E0300006E020000FB
:1037A0001501CF00A4000000000000000000000090
:1037B000240027002A0000000000250028002B001C
:1037C0000201000000000023002600290004040478
:1037D00004040404040202020202020303030303BA
:1037E0000301020408102040800102040810200197
:1037F0000204081020000000080002010000030479
:1038000007000000000000000000702411241FBE0B
:10381000CFEFD8E0DEBFCDBF11E0A0E0B1E0ECEC2F
:10382000F9E402C005900D92A633B107D9F722E062
:10383000A6E3B1E001C01D92A631B207E1F71CE199
:10384000C6E0DCE104C02197FE010E94DE24C53001
:10385000D107C9F70E94F11F0C94E4240C940000D6
:10386000AF92BF92CF92DF92EF92FF920F931F938E
:10387000CF93DF936C017B018B01040F151FEB01CC
:103880005E01AE18BF08C017D10759F06991D60183
:10389000ED91FC910190F081E02DC6010995892BF5
:1038A00079F7C501DF91CF911F910F91FF90EF90B4
:1038B000DF90CF90BF90AF900895FC01538D448D61
:1038C000252F30E0842F90E0821B930B541710F0CB
:1038D000CF96089501970895FC01918D828D9817D8
:1038E00061F0A28DAE0FBF2FB11D5D968C91928DB0
:1038F0009F5F9F73928F90E008958FEF9FEF0895E1
:10390000FC01918D828D981731F0828DE80FF11DA9
:10391000858D90E008958FEF9FEF0895FC01918DC4
:10392000228D892F90E0805C9F4F821B91098F73BD
:103930009927089589E791E00E948E1C21E0892B48
:1039400009F420E0822F089580E090E0892B29F08F
:103950000E949A1C81110C9400000895FC01A48D12
:10396000A80FB92FB11DA35ABF4F2C91848D90E0A1
:1039700001968F739927848FA689B7892C93A08984
:10398000B1898C91837080648C93938D848D98130E
:1039900006C00288F389E02D80818F7D80830895A1
:1039A000EF92FF920F931F93CF93DF93EC0181E08F
:1039B000888F9B8D8C8D98131AC0E889F989808136
:1039C00085FF15C09FB7F894EE89FF896083E88969
:1039D000F98980818370806480839FBF81E090E05B
:1039E000DF91CF911F910F91FF90EF900895F62EE8
:1039F0000B8D10E00F5F1F4F0F731127E02E8C8D82
:103A00008E110CC00FB607FCFACFE889F9898081C6
:103A100085FFF5CFCE010E94AE1CF1CFEB8DEC0FF0
:103A2000FD2FF11DE35AFF4FF0829FB7F8940B8FE3
:103A3000EA89FB8980818062CFCFCF93DF93EC014D
:103A4000888D8823B9F0AA89BB89E889F9898C9186
:103A500085FD03C0808186FD0DC00FB607FCF7CF42
:103A60008C9185FFF2CF808185FFEDCFCE010E9442
:103A7000AE1CE9CFDF91CF910895833081F028F417
:103A8000813099F08230A9F008958730A9F088300C
:103A9000C9F08430B1F4809180008F7D03C08091A3
:103AA00080008F7780938000089584B58F7784BDE0
:103AB000089584B58F7DFBCF8091B0008F77809380
:103AC000B00008958091B0008F7DF9CFCF93DF9340
:103AD000E5EFF7E38491E1EEF7E3D491EDECF7E362
:103AE000C491CC23A1F081110E943D1DEC2FF0E088
:103AF000EE0FFF1FED53F84CA591B491EC91ED231F
:103B000081E090E009F480E0DF91CF91089580E0BA
:103B100090E0FACF1F93CF93DF93282F30E0F90185
:103B2000EB50F84C8491F901EF51F84CD491F90124
:103B3000E353F84CC491CC23A9F0162F81110E94B5
:103B40003D1DEC2FF0E0EE0FFF1FEA54F84CA5915D
:103B5000B4918FB7F894EC91111108C0D095DE2381
:103B6000DC938FBFDF91CF911F910895DE2BF8CFAB
:103B7000CF93DF9390E0FC01EF51F84C24918353F5
:103B8000984CFC0184918823D1F090E0880F991F14
:103B9000FC01E455F84CA591B491FC01EA54F84CB1
:103BA000C591D491623071F49FB7F8943C91822F03
:103BB000809583238C93E8812E2B28839FBFDF91F0
:103BC000CF9108958FB7F894EC912E2B2C938FBF43
:103BD000F6CF3FB7F8948091370190913801A091CA
:103BE0003901B0913A0126B5A89B05C02F3F19F0C5
:103BF0000196A11DB11D3FBFBA2FA92F982F88276D
:103C0000BC01CD01620F711D811D911D42E0660F47
:103C1000771F881F991F4A95D1F708950C94E91DC5
:103C2000FC019181913069F0923089F0911105C0C9
:103C300090916E009D7F90936E0060E080810C9467
:103C40008A1D90916F009D7F90936F00F6CF9091A9
:103C500070009D7F90937000F0CFCF93DF93FC01B5
:103C600001900020E9F73197AF01481B590BBC01C7
:103C700089E791E00E94301CEC0142E050E062E2F2
:103C800071E089E791E00E94301C8C0F9D1FDF914D
:103C9000CF9108951F920F920FB60F9211242F9378
:103CA0003F934F935F936F937F938F939F93AF93C4
:103CB000BF93EF93FF9389E791E00E94AE1CFF91C1
:103CC000EF91BF91AF919F918F917F916F915F9194
:103CD0004F913F912F910F900FBE0F901F9018950D
:103CE0001F920F920FB60F9211242F938F939F93D1
:103CF000EF93FF93E0918901F0918A018081E09137
:103D00008F01F091900182FD1BC090818091920102
:103D10008F5F8F7320919301821741F0E0919201A0
:103D2000F0E0E758FE4F958F80939201FF91EF915D
:103D30009F918F912F910F900FBE0F901F9018950C
:103D40008081F4CF1F920F920FB60F9211242F9300
:103D50003F938F939F93AF93BF9380914501909131
:103D60004601A0914701B09148013091360123E00E
:103D7000230F2D3758F50196A11DB11D2093360153
:103D80008093450190934601A0934701B093480169
:103D90008091370190913801A0913901B0913A0199
:103DA0000196A11DB11D8093370190933801A09316
:103DB0003901B0933A01BF91AF919F918F913F919B
:103DC0002F910F900FBE0F901F90189526E8230F8C
:103DD0000296A11DB11DD2CF1F920F920FB60F9266
:103DE00011242F933F938F939F93AF93BF93EF93A0
:103DF000FF938091490190914A01A0914B01B091AC
:103E00004C010097A105B10531F130913B01E091E2
:103E10003C01F0913D0120812327208318161906CB
:103E20001A061B061CF40197A109B10980934901E8
:103E300090934A01A0934B01B0934C01FF91EF91F5
:103E4000BF91AF919F918F913F912F910F900FBE96
:103E50000F901F901895209170002D7F2093700077
:103E600020913B01E0913C01F0913D013081209592
:103E700023232083DBCF1F920F920FB60F921124C2
:103E80008F939F93AF93BF93EF93FF9380914D01D7
:103E900090914E01A0914F01B0915001892B8A2B36
:103EA0008B2BA1F190913E01E0913F01F0914001F7
:103EB00080818927808380914D0190914E01A0914E
:103EC0004F01B0915001181619061A061B069CF4F2
:103ED00080914D0190914E01A0914F01B091500100
:103EE0000197A109B10980934D0190934E01A093D0
:103EF0004F01B0935001FF91EF91BF91AF919F910E
:103F00008F910F900FBE0F901F90189580916F00AA
:103F10008D7F80936F0080913E01E0913F01F09191
:103F200040019081809589238083E5CF1F920F9275
:103F30000FB60F9211248F939F93AF93BF93EF937C
:103F4000FF938091510190915201A0915301B09142
:103F50005401892B8A2B8B2BA1F190914101E09187
:103F60004201F09143018081892780838091510132
:103F700090915201A0915301B09154011816190665
:103F80001A061B069CF48091510190915201A09158
:103F90005301B09154010197A109B10980935101D6
:103FA00090935201A0935301B0935401FF91EF916C
:103FB000BF91AF919F918F910F900FBE0F901F9067
:103FC000189580916E008D7F80936E0080914101E5
:103FD000E0914201F0914301908180958923808393
:103FE000E5CFCF93DF93CDB7DEB72A970FB6F8941E
:103FF000DEBF0FBECDBF789484B5826084BD84B52A
:10400000816084BD85B5826085BD85B5816085BDD3
:1040100080916E00816080936E001092810080918B
:104020008100826080938100809181008160809313
:104030008100809180008160809380008091B10038
:1040400084608093B1008091B00081608093B00063
:1040500080917A00846080937A0080917A008260F7
:1040600080937A0080917A00816080937A008091B9
:104070007A00806880937A001092C100E0918901F3
:10408000F0918A0182E08083E0918501F0918601C0
:104090001082E0918701F09188018FEC808310926B
:1040A0009101E0918D01F0918E0186E08083E09195
:1040B0008B01F0918C01808180618083E0918B0184
:1040C000F0918C01808188608083E0918B01F09178
:1040D0008C01808180688083E0918B01F0918C015C
:1040E00080818F7D808362E080E00E94B81D61E066
:1040F0008DE00E94B81D61E089E00E94B81D61E07A
:104100008AE00E94B81DA5E5B1E005E711E069E687
:1041100071E04DE651E029E531E082E1282E81E0B1
:10412000382EFF24FA94F10186819781F901918359
:104130008083FA011192119211921192AF01FB0149
:1041400011921192BF01F801119211928F01F101A8
:10415000908180914401833008F01FC19C93E82F27
:10416000F0E0E054F84CE4911196EC9311978F5FD6
:1041700080934401E13009F4C4C008F4A2C0E230E5
:1041800009F4E5C0F90180819181FC01E150F04C16
:10419000CF01880F991F880F991FF101C480D58026
:1041A000F601E80FF91F4590559065907490809046
:1041B0005D0190905E01A0905F01B0906001841459
:1041C0009504A604B70410F45301420180925D01E6
:1041D00090925E01A0925F01B0926001F8E02F0E14
:1041E000311C2E5F3F4F129682E2281681E038067E
:1041F00009F099CF0E940E1E60E08DE00E948A1D9A
:1042000000E010E00E94661D9C838B83019711F0F3
:104210000B831C830E94661D9A838983892B09F076
:10422000C0C0AB81BC81119709F0BBC061E08DE0DB
:104230000E948A1D85E291E00E942D1E69E671E0D0
:104240000DE6C02E01E0D02E45E751E0A2E1B1E03D
:104250001496ED90FC901597FA0180819181FC01F4
:10426000EE0FFF1FEE0FFF1FEE0DFF1D05911591C5
:1042700025913491F6010083118322833383FA015F
:104280002081318189010F5F1F4FC801880F991F5D
:10429000880F991F8E0D9F1DFC0185909590A5900C
:1042A000B490F601408051806280738048145904B4
:1042B0006A047B0409F078C0FA0111830083FC01D1
:1042C000D5CF14BC15BC84B5826084BD85B5816032
:1042D00085BD8C9190E0FC01E353F84CE491F0E053
:1042E000EE0FFF1FEA54F84CC590D490D0924301D2
:1042F000C0924201FC01EF51F84CE491E09341017E
:1043000041CF1092800010928100809181008860DE
:1043100080938100809181008160809381008C91E5
:1043200090E0FC01E353F84CE491F0E0EE0FFF1F46
:10433000EA54F84CC590D490D0924001C0923F010D
:10434000FC01EF51F84CE491E0933E011BCF109239
:10435000B0001092B1008091B00082608093B000F4
:104360008091B10081608093B1008C9190E0FC015C
:10437000E353F84CE491F0E0EE0FFF1FEA54F84CE1
:10438000C590D490D0923D01C0923C01FC01EF5108
:10439000F84CE491E0933B01F5CE1196FC92119715
:1043A000F1CE0B811C812ECF90E080E01216130617
:1043B00064F421503048220F331F1296ED91FC9186
:1043C0001397E20FF31F85919491FB0181939193D1
:1043D000BF0118964E5F5F4FF4E0CF0ED11C81E015
:1043E000A232B80709F034CF2FB7F8948091450175
:1043F00090914601A0914701B09148012FBF809351
:10440000650190936601A0936701B09368011E82D5
:104410001D82409161015091620160916301709130
:10442000640180915D0190915E01A0915F01B09166
:10443000600184179507A607B70708F42AC2AD8163
:10444000BE81119709F425C22FB7F89480914501D8
:1044500090914601A0914701B09148012FBF409132
:104460006501509166016091670170916801841B3C
:10447000950BA60BB70B8093610190936201A093FB
:104480006301B0936401E5E5F1E0FA87E9877DE631
:10449000272E71E0372E89E591E09C838B83E5E739
:1044A000CE2EE1E0DE2EF12CE12CAB81BC818D9192
:1044B0009D91BC83AB83F601208131812817390798
:1044C0000CF0E2C10E94661D019721F481E090E0AA
:1044D0009A8389830E94661D892B61F4A981BA8120
:1044E000119741F480E391E00E942D1EE1E0F0E09D
:1044F000FE83ED83C70187599E4F98878F83DC0128
:104500008D909C90181419040CF0B9C1E985FA85B6
:10451000818187FD02C161E080810E94B81DA9856B
:10452000BA8511961C91092C000CAA08BB08812F92
:104530008D7F09F052C160E072E18AE790E0A50149
:1045400094010E949D2429013A01DA01C9010197D1
:10455000A109B1098F3F9105A105B10509F00CF43E
:10456000B8C060E472E48FE090E0A50194010E947D
:104570009D242150310941095109123009F06AC0C6
:1045800082E02F3F31054105510509F00CF45BC075
:1045900060E970ED83E090E0A50194010E949D2404
:1045A000215031094109510983E02F3F310541056F
:1045B000510509F00CF447C068E478EE81E090E022
:1045C000A50194010E949D242150310941095109FE
:1045D00084E02F3F310541055105A9F1A4F164E2C2
:1045E00074EF80E090E0A50194010E949D24215089
:1045F00031094109510985E02F3F31054105510538
:1046000011F108F162E17AE780E090E0A501940100
:104610000E949D24215031094109510986E02F3F14
:1046200031054105510579F070F09AE07594679471
:10463000579447949A95D1F7A301920121503109DB
:104640004109510987E09091B100987F892B8093AF
:10465000B10047C02F3F31054105510509F00CF469
:10466000BAC068E478EE81E090E0A50194010E9470
:104670009D24215031094109510984E01111BCCF19
:1046800083E02F3F31054105510539F134F162E1F5
:104690007AE780E090E0A50194010E949D242150DA
:1046A00031094109510984E02F3F31054105510588
:1046B000A1F098F08AE075946794579447948A958E
:1046C000D1F7A3019201215031094109510985E037
:1046D00004C09C0181E01111B6CF95B5987F892B5C
:1046E00085BDE985FA858181813009F4A0C08230D9
:1046F00009F4B2C0811111C027BD8FEF9FEFDC011B
:104700008093510190935201A0935301B0935401AF
:1047100080916E00826080936E00D1014D915D9119
:104720006D917C918091610190916201A0916301F2
:10473000B091640184179507A607B70708F437C03E
:10474000F60120813181C901019691838083EB813B
:10475000FC813297408151818417950744F5D70138
:10476000AA0FBB1FAA0FBB1FAE5EBE4F220F331F87
:104770001296ED91FC911397E20FF31F459154911E
:10478000EF81F88551834083880F991F880F991F07
:104790001496ED91FC91E80FF91F459155916591A3
:1047A0007491D1014D935D936D937C931397B2E017
:1047B000CB0ED11CE4E02E0E311C89859A85029621
:1047C0009A87898792E0E90EF11CA4E0EA16F104C9
:1047D00009F41FCE6ACE82E07ECF60E072E18AE704
:1047E00090E0A50194010E949D24215031094109C6
:1047F000510991E021153105B1E04B0751056CF0ED
:1048000068E478EE81E090E0A50194010E949D2487
:10481000215031094109510993E0113009F061CF6C
:1048200080918100887F892B809381005ACF3093BB
:104830008900209388008FEF9FEFDC0180934D016A
:1048400090934E01A0934F01B093500180916F005F
:10485000826080936F0061CF2093B3008FEF9FEF52
:10486000DC018093490190934A01A0934B01B093DE
:104870004C01809170008260809370004ECF8985DA
:104880009A850E94101E49CF89859A850E94101E24
:104890008ECF10926101109262011092630110920A
:1048A0006401109276011092750185E591E00E94F5
:1048B000101E109278011092770187E591E00E9416
:1048C000101E0E940E1E80E090E0892B09F494CC0B
:1048D0000E949A1C882309F48FCC0E9400008CCC83
:1048E000E9E7F1E01382128288EE93E0A0E0B0E005
:1048F00084839583A683B78384E091E0918380834A
:1049000085EC90E09587848784EC90E09787868794
:1049100080EC90E0918B808B81EC90E0938B828B8C
:1049200082EC90E0958B848B86EC90E0978B868B65
:10493000118E128E138E148E0895052E97FB1EF481
:1049400000940E94B42457FD07D00E94BC2407FCA9
:1049500003D04EF40C94B424509540953095219595
:104960003F4F4F4F5F4F089590958095709561959B
:104970007F4F8F4F9F4F0895A1E21A2EAA1BBB1B9A
:10498000FD010DC0AA1FBB1FEE1FFF1FA217B3071B
:10499000E407F50720F0A21BB30BE40BF50B661F31
:1049A000771F881F991F1A9469F7609570958095F5
:1049B00090959B01AC01BD01CF010895EE0FFF1F43
:0C49C0000590F491E02D0994F894FFCFCD
:1049CC0000000000D01C301C5D1C1D1D8E1C6C1CBE
:1049DC00801C0C00BC2DDC19F80409006011680067
:1049EC003E040D0A00506C6179696E672E2E2E0004
:0649FC00736B69700000FE
:00000001FF
