:100000000C9492320C94BA320C94BA320C94BA32E8
:100010000C94BA320C94BA320C94BA320C947835EF
:100020000C94BA320C94BA320C94BA320C94C73590
:100030000C94BA320C94BA320C9422360C94BA3224
:100040000C942E350C94BA320C94FC340C94D634A7
:100050000C94BA320C94BA320C94BA320C94BA3270
:100060000C94BA320C94BA32000000000000000078
:100070005A0100006D0100001A0200002402000075
:1000800028030000370300003B040000490400007F
:10009000F604000000050000090700002507000025
:1000A0002D0900004A090000F7090000000A0000BD
:1000B0005B0B0000250C0000290D0000380D00002E
:1000C0003C0E00004A0E0000F70E0000010F000079
:1000D0005C100000261100002E1300000114000027
:1000E0000A16000026160000AF160000391700009F
:1000F000C11700004B180000A618000002190000EC
:100100005D1A0000701A00001D1B0000271B000074
:100110002F1D00004B1D0000F91D0000021E0000F5
:100120005D1F000027200000B02000003A210000E1
:10013000C22100004C220000A7220000032300007F
:100140005E240000712400001E2500002825000008
:100150008226000096260000432700004C2700005E
:10016000F927000003280000B0280000BA2800008A
:1001700067290000712900001E2A0000282A0000BB
:10018000D52A0000DF2A00008C2B0000962B0000EF
:10019000432C00004D2C0000FA2C0000042D000020
:1001A000B12D0000BB2D0000682E0000722E000053
:1001B0001F2F0000292F0000D62F0000E02F000085
:1001C0008D30000097300000443100004D310000B8
:1001D000FA31000004320000B1320000BB320000EE
:1001E00068330000723300001F340000293400001F
:1001F000D6340000E03400008D3500009735000053
:10020000443600004E360000FB3600000537000083
:10021000B2370000BC3700006938000073380000B6
:10022000203900002A390000D7390000E1390000E8
:100230008E3A0000973A0000443B00004E3B00001D
:10024000FB3B0000053C0000333C0000333C000059
:10025000613C0000733D0000203E00002A3E00008B
:10026000D73E0000E13E00008E3F0000983F0000B6
:10027000454000004F400000FC40000006410000E7
:10028000B3410000BD4100006A420000744200001A
:10029000214300002B430000D8430000E24300004C
:1002A0008F44000098440000454500004F45000081
:1002B000FC45000006460000B3460000BD460000B5
:1002C0006A47000074470000214800002B480000E6
:1002D000D8480000E24800008F490000994900001A
:1002E000464A0000504A0000FD4A0000074B00004B
:1002F000624C0000754C0000224D00002C4D0000A7
:10030000864E0000994E0000464F0000504F0000FE
:10031000FD4F000007500000B4500000BE50000028
:100320006B51000075510000D0520000E3520000F4
:10033000905300009A5300004754000051540000AD
:10034000AC550000BF5500006C560000765600000A
:10035000235700002D570000875800009A580000CE
:100360004759000051590000FE590000085A00008A
:10037000635B0000765B0000235C00002D5C0000E6
:10038000DA5C0000E45C00003F5E0000525E0000AA
:10039000FF5E0000095F0000B65F0000C05F000064
:1003A0001A6100002E610000DB610000E4610000C2
:1003B000916200009B620000F66300000964000087
:1003C000B6640000C06400006D6500007765000041
:1003D000D2660000E5660000926700009C6700009E
:1003E0004968000053680000AE690000C169000060
:1003F0006E6A0000786A0000256B00002E6B00001A
:10040000896C00009C6C0000496D0000536D000079
:10041000006E00000A6E0000656F0000786F00003B
:10042000257000002F700000DC700000E6700000F6
:100430004172000054720000017300000B73000051
:10044000B8730000C27300001C7500002F75000017
:10045000DC750000E6750000937600009D760000D4
:10046000F87700000B780000B8780000C278000030
:100470006F79000079790000D47A0000E77A0000F3
:10048000947B00009E7B00004B7C0000557C0000AC
:10049000B07D0000C37D00001D7F0000307F0000A4
:1004A000DD7F0000E77F0000EB800000FA800000A5
:1004B000FE8100000C820000B9820000C3820000AF
:1004C000CC840000E8840000F08600000D87000066
:1004D000BA870000C48700001E890000E889000078
:1004E000EC8A0000FB8A0000FF8B00000D8C0000EE
:1004F000BA8C0000C48C00001F8E0000328E0000F9
:10050000DF8E0000E98E0000F19000000E910000E7
:10051000BB910000C5910000CD930000E99300005D
:1005200072940000FC940000849500000E96000078
:1005300069960000C59600002098000033980000DE
:10054000E0980000EA980000F29A00000F9B00007B
:10055000BC9B0000C59B0000209D0000339D000057
:10056000E09D0000EA9D0000739E0000FD9E0000DB
:10057000859F00000FA000006AA00000C6A0000038
:1005800021A2000034A20000E1A20000EBA20000C2
:1005900046A4000059A4000006A5000010A5000014
:1005A000BDA50000C6A5000073A600007DA6000042
:1005B0002AA7000034A70000E1A70000EBA7000075
:1005C00098A80000A2A800004FA9000059A90000A7
:1005D00006AA000010AA0000BDAA0000C7AA0000D9
:1005E00074AB00007EAB00002BAC000035AC00000B
:1005F000E2AC0000ECAC000099AD0000A3AD00003F
:1006000050AE00005AAE000007AF000010AF00006F
:10061000BEAF0000C7AF000074B000007EB00000A5
:100620002BB1000035B10000E2B10000ECB10000D8
:1006300099B20000A3B2000050B300005AB300000A
:1006400007B4000011B40000BEB40000C8B400003C
:1006500075B500007FB500002CB6000036B600006E
:10066000E3B60000EDB600009AB70000A4B70000A2
:1006700051B800005BB8000008B9000011B90000D3
:10068000BEB90000C8B9000023BB000036BB0000A3
:10069000E3BB0000EDBB00009ABC0000A4BC00005E
:1006A00051BD00005BBD000008BE000012BE00008E
:1006B000BFBE0000C9BE000076BF000080BF0000C2
:1006C0002DC0000037C00000E4C00000EEC00000F4
:1006D0009BC10000A5C1000052C200005CC2000026
:1006E00009C3000012C30000BFC30000C9C300005B
:1006F00076C4000080C400002DC5000037C500008E
:10070000E4C50000EEC500009BC60000A5C60000C1
:1007100052C700005CC7000009C8000013C80000F1
:10072000C0C80000CAC8000025CA000038CA0000BE
:10073000E5CA0000EFCA000049CC00005CCC000014
:1007400009CD000013CD0000C0CD0000CACD0000CF
:1007500077CE000081CE00002ECF000038CF000001
:10076000E5CF0000EFCF00009CD00000A6D0000035
:1007700053D100005DD100000AD2000014D2000065
:10078000C1D20000CBD2000078D3000082D3000099
:100790002FD4000039D40000E6D40000F0D40000CB
:1007A0009DD50000A7D5000054D600005DD60000FE
:1007B0000AD7000014D70000C1D70000CBD7000033
:1007C00078D8000082D800002FD9000039D9000065
:1007D000E6D90000F0D900009DDA0000A7DA000099
:1007E00054DB00005EDB00000BDC000015DC0000C9
:1007F000C2DC0000CCDC000079DD000083DD0000FD
:1008000030DE00003ADE0000E7DE0000F1DE00002E
:100810009EDF0000A7DF000055E000005EE0000062
:100820000BE1000015E10000C2E10000CCE1000096
:1008300027E300003AE30000E7E30000F1E30000F3
:100840009EE40000A8E4000055E500005FE500001C
:100850000CE6000016E60000C3E60000CDE600004E
:100860007AE7000084E7000031E800003BE8000080
:10087000E8E80000F2E800009FE90000A8E90000B5
:1008800055EA00005FEA00000CEB000016EB0000E8
:10089000C3EB0000CDEB00007AEC000084EC00001C
:1008A00031ED00003BED0000E8ED0000F2ED00004E
:1008B0009FEE0000A9EE000056EF000060EF000080
:1008C0000DF0000017F00000C4F00000CEF00000B2
:1008D00029F200003CF20000E9F20000F3F200000F
:1008E0004DF4000060F400000DF5000017F5000065
:1008F000C4F50000CEF500007BF6000085F6000090
:1009000032F700003CF7000097F80000AAF800005A
:1009100057F9000061F900000EFA000018FA000013
:1009200073FB000086FB000033FC00003DFC000070
:10093000EAFC0000F3FC00004EFE000061FE000037
:100940000EFF000018FF0000C5FF0000CFFF0000F1
:100950002A0101003D010100EA010100F40101004A
:10096000A1020100AB02010006040100190401000C
:10097000C6040100D00401007D05010087050100C7
:10098000E1060100F4060100A1070100AB07010028
:100990005808010062080100BD090100D0090100EA
:1009A0007D0A0100870A0100340B01003E0B0100A3
:1009B000990C0100AC0C0100590D0100630D010000
:1009C000100E01001A0E0100750F0100880F0100C2
:1009D000351001003E100100EC100100F51001007F
:1009E0005012010063120100101301001A130100DC
:1009F000C7130100D11301002C1501003F150100A0
:100A0000EC150100F6150100A3160100AD1601005A
:100A1000081801001B180100C8180100D2180100B5
:100A20007F19010089190100E31A0100F61A01007B
:100A3000A31B0100AD1B01005A1C0100641C010036
:100A4000BF1D0100D21D01007F1E0100891E010093
:100A5000361F0100401F01009B200100AE20010055
:100A60005B21010065210100122201001C2201000E
:100A7000762301008A2301009B270100D327010070
:100A80002E29010041290100EE290100F829010069
:100A9000A52A0100AF2A01005C2B0100662B010092
:100AA000132C01001D2C0100D32E0100F82E010093
:100AB0000A330100423301009D340100B0340100CB
:100AC0005D35010067350100143601001E36010056
:100AD000CB360100D5360100823701008B3701008B
:100AE000423A0100673A0100793E0100B13E01003F
:100AF0000C4001001F400100CC400100D540010026
:100B0000834101008C410100394201004342010050
:100B1000F0420100FA420100B1450100D645010052
:100B2000E8490100204A01007A4B01008D4B010089
:100B30003A4C0100444C0100F14C0100FB4C010017
:100B4000A84D0100B24D01005F4E0100694E010049
:100B50001F51010045510100F2510100FC510100FB
:100B6000A9520100B3520100605301006A53010011
:100B70001754010021540100CE540100D754010044
:100B8000845501008E5501003B5601004556010079
:100B9000F2560100FC560100A9570100B3570100AD
:100BA000605801006A5801001759010021590100DD
:100BB000CE590100D8590100855A01008F5A010011
:100BC0003C5B0100465B0100F35B0100FD5B010043
:100BD000AA5C0100B45C0100615D01006B5D010075
:100BE000185E0100215E0100CF5E0100D85E0100A9
:100BF000855F01008F5F01003C60010046600100DD
:100C0000F3600100FD600100AA610100B461010010
:100C1000616201006B620100186301002263010040
:100C2000CF630100D9630100866401009064010074
:100C30003D65010047650100FD6701002268010074
:100C4000CF680100D9680100866901009069010040
:100C50003D6A0100476A0100F46A0100FE6A010072
:100C6000AB6B0100B56B0100626C01006C6C0100A4
:100C7000196D0100236D0100D06D0100DA6D0100D6
:100C8000876E0100916E01003E6F0100486F010008
:100C9000F56F0100FF6F0100AC700100B67001003C
:100CA0006C73010091730100487601006D760100BC
:100CB0002379010049790100FF7B0100247C0100B8
:100CC0007F7D0100927D0100ED7E0100007F01002B
:100CD000AD7F0100B77F0100648001006E800100DC
:100CE0001B81010025810100D2810100DC8101000E
:100CF0008982010093820100408301004A83010040
:100D0000F783010001840100AE840100B884010072
:100D10006E87010093870100EE88010001890100C0
:100D20005C8A01006F8A01001C8B0100268B010088
:100D3000D38B0100DD8B01008A8C0100948C0100B3
:100D4000418D01004B8D0100F88D0100028E0100E4
:100D5000AF8E0100B88E0100668F01006F8F010019
:100D60001C90010026900100D3900100DD9001004D
:100D70008A91010094910100419201004B9201007F
:100D8000F892010002930100AF930100B9930100B2
:100D90006694010070940100CB950100DE9501007E
:100DA0008B96010095960100429701004C97010037
:100DB000F997010003980100B0980100B99801006B
:100DC000B9980100669901006699010070990100C7
:100DD0001D9A0100279A0100D49A0100DE9A0100B1
:100DE0008B9B0100959B0100429C01004C9C0100E3
:100DF000F99C0100039D0100B09D0100BA9D010016
:100E0000679E0100719E01001E9F0100289F010046
:100E1000D59F0100DF9F01003AA101004DA1010013
:100E200055A3010071A301001EA4010028A4010024
:100E300031A601004DA60100FAA6010004A7010099
:100E40005FA8010072A801001FA9010029A90100E3
:100E5000D6A90100E0A901003AAB01004EAB0100A8
:100E6000A8AC0100BBAC010068AD010072AD01008F
:100E70001FAE010029AE0100D6AE0100E0AE0100B8
:100E80008DAF010097AF010044B001004EB00100EA
:100E9000FBB0010005B10100B2B10100BCB101001D
:100EA00069B2010073B20100CEB30100E1B30100E9
:100EB0008EB4010098B4010045B501004FB50100A2
:100EC000A9B60100BCB6010017B801002AB801009C
:100ED000D7B80100E1B801008EB9010098B901004E
:100EE00045BA01004FBA0100FCBA010006BB01007F
:100EF000B3BB0100BDBB01006ABC010074BC0100B2
:100F000021BD01002BBD0100D8BD0100E2BD0100E3
:100F10008FBE010099BE010046BF01004FBF010016
:100F2000FDBF010006C00100B3C00100BDC001004B
:100F30006AC1010074C1010021C201002BC201007D
:100F400086C3010099C3010046C4010050C40100DA
:100F5000FDC4010007C50100B4C50100BEC5010004
:100F60006BC6010075C6010022C701002CC7010035
:100F7000D9C70100E3C7010090C801009AC8010069
:100F800047C9010050C90100FDC9010007CA01009D
:100F9000B4CA0100BECA01006BCB010075CB0100D1
:100FA00022CC01002CCC0100D9CC0100E3CC010003
:100FB00090CD01009ACD0100F5CE010008CF0100CF
:100FC00010D101002DD10100DAD10100E4D10100DE
:100FD000ECD3010008D40100B5D40100BFD4010056
:100FE00076D701009BD70100F6D8010009D901008E
:100FF00064DA010077DA0100D1DB0100E5DB0100F2
:1010000092DC01009BDC01009FDD0100AEDD0100F0
:10101000B2DE0100C0DE01006DDF010077DF0100FC
:1010200080E101009CE10100A5E30100C1E30100B2
:101030006EE4010078E40100D2E50100E6E501007C
:1010400093E601009CE60100A0E70100AFE7010084
:10105000B3E80100C1E801006EE9010078E9010090
:10106000D3EA0100E6EA010093EB01009DEB0100E9
:10107000A6ED0100C2ED01006FEE010079EE010066
:1010800081F001009DF001009DF0010026F10100BA
:1010900026F10100B0F1010038F20100C2F20100B6
:1010A0001DF3010079F30100D4F40100E7F401001D
:1010B00094F501009EF50100A6F70100C3F70100B9
:1010C00070F801007AF80100D4F90100E7F9010095
:1010D00094FA01009EFA010027FB0100B1FB010018
:1010E00039FC0100C3FC01001EFD01007AFD010076
:1010F000D5FE0100E8FE010095FF01009FFF010001
:10110000FA0002000D010200BA010200C40102004F
:10111000710202007B020200280302003203020077
:10112000DF030200E8030200950402009F040200AE
:101130004C05020056050200030602000D060200DF
:10114000BA060200C4060200710702007B07020013
:101150002808020032080200DF080200E908020045
:1011600096090200A00902004D0A0200570A020077
:10117000040B02000E0B0200BB0B0200C50B0200A9
:10118000720C02007C0C0200290D0200320D0200DC
:10119000DF0D0200E90D0200960E0200A00E020013
:1011A0004D0F0200570F0200041002000E10020043
:1011B000BB100200C5100200721102007C11020077
:1011C0002912020033120200E0120200EA120200A9
:1011D00097130200A11302004E14020058140200DB
:1011E000051502000F150200BC150200C61502000D
:1011F000731602007D160200D7170200EA170200DC
:1012000097180200A11802004E1902005819020096
:10121000051A02000F1A0200BC1A0200C61A0200C8
:10122000731B02007D1B02002A1C0200341C0200FA
:10123000E11C0200EB1C0200981D0200A21D02002E
:101240004F1E0200591E0200061F0200101F02005E
:10125000BD1F0200C71F0200742002007D20020093
:101260002B21020034210200E1210200EB210200C7
:1012700098220200A22202004F23020059230200FA
:101280000624020010240200BD240200C72402002C
:10129000742502007E250200D9260200EC260200F9
:1012A00099270200A3270200FE280200112902004C
:1012B000BE290200C8290200752A02007E2A020007
:1012C0002B2B0200352B0200E22B0200EC2B02003C
:1012D000472D02005A2D0200072E0200112E020097
:1012E000BE2E0200C82E020023300200363002005B
:1012F000E3300200ED3002009A310200A431020016
:10130000FF32020012330200BF330200C933020071
:10131000763402007F340200DA350200ED35020037
:101320009A360200A4360200513702005B370200F1
:10133000B6380200C938020076390200803902004E
:101340002D3A0200373A0200923B0200A53B020010
:10135000523C02005C3C0200093D0200133D0200C9
:101360006D3E0200803E02002D3F0200373F02002A
:10137000E43F0200EE3F0200494102005C410200EE
:101380000942020013420200C0420200CA420200A7
:101390002544020038440200E5440200EF44020004
:1013A0009C450200A64502000047020014470200C7
:1013B000C1470200CA470200774802008148020084
:1013C000DC490200EF4902009C4A0200A64A0200E2
:1013D000534B02005D4B0200B84C0200CB4C0200A4
:1013E000784D0200824D02002F4E0200394E02005D
:1013F000944F0200A74F0200545002005E500200BA
:101400000B510200145102006F520200825202007E
:101410002F53020039530200E6530200F05302003A
:101420004B5502005E5502000B5602001556020095
:10143000C2560200CC560200275802003A58020059
:1014400095590200A8590200555A02005F5A02003D
:10145000625B0200715B0200755C0200835C02004B
:10146000305D02003A5D0200435F02005F5F0200F0
:101470006861020084610200316202003B62020086
:1014800096630200606402006365020072650200F8
:101490007666020084660200316702003B67020044
:1014A0009668020060690200696B0200856B0200A9
:1014B000326C02003C6C0200446E0200606E02005E
:1014C000E96E0200736F0200FB6F0200857002007C
:1014D000E07002003C71020097720200AA720200E2
:1014E00057730200617302006A750200867502007C
:1014F000337602003D76020097770200AB77020058
:101500005878020061780200EA78020074790200DB
:10151000FC790200867A0200E17A02003D7B02003B
:10152000987C0200AB7C0200587D0200627D0200C4
:10153000BD7E0200D07E02007D7F0200877F020018
:10154000348002003E800200EB800200F580020041
:10155000A2810200AB810200598202006282020075
:101560000F83020019830200C6830200D0830200A9
:101570007D84020087840200348502003E850200DB
:10158000EB850200F5850200A2860200AC8602000F
:101590005987020063870200108802001A8802003F
:1015A000C7880200D18802007E8902008889020073
:1015B000358A02003F8A0200EC8A0200F68A0200A5
:1015C000A38B0200AC8B0200598C0200638C0200DA
:1015D000108D02001A8D0200C78D0200D18D02000D
:1015E0007E8E0200888E0200358F02003F8F02003F
:1015F000EC8F0200F68F0200A3900200AD90020073
:101600005A91020064910200119202001B920200A2
:10161000C8920200D29202007F93020089930200D6
:1016200036940200409402009A950200AD950200A3
:101630005A96020064960200119702001B9702005E
:10164000C8970200D29702007F9802008998020092
:101650003699020040990200ED990200F7990200C4
:10166000A49A0200AE9A02005B9B0200659B0200F6
:10167000129C02001C9C0200C99C0200D39C020028
:10168000809D02008A9D0200379E0200419E02005A
:10169000EE9E0200F79E0200A59F0200AE9F020090
:1016A0005BA0020065A0020012A102001CA10200C2
:1016B000C9A10200D3A1020080A202008AA20200F6
:1016C00037A3020041A302009CA40200AFA40200C1
:1016D0005CA5020066A50200C1A60200D4A6020015
:1016E00081A702008BA7020038A8020042A80200CE
:1016F000EFA80200F8A80200A5A90200AFA9020005
:101700005CAA020066AA020013AB02001DAB020035
:10171000CAAB0200D4AB020081AC02008BAC020069
:1017200038AD020042AD0200EFAD0200F9AD02009B
:10173000A6AE0200B0AE02005DAF020067AF0200CD
:1017400014B002001EB00200CBB00200D5B00200FF
:1017500082B102008CB1020039B2020042B2020032
:10176000F0B20200F9B20200A6B30200B0B3020068
:101770005DB4020067B4020014B502001EB5020099
:10178000CBB50200D5B5020082B602008CB60200CD
:1017900039B7020043B70200F0B70200FAB70200FF
:1017A000A7B80200B1B802005EB9020068B9020031
:1017B00015BA02001FBA0200CCBA0200D6BA020063
:1017C00083BB02008DBB02003ABC020043BC020096
:1017D0009EBD0200B1BD02005EBE020068BE0200F6
:1017E00015BF02001FBF0200CCBF0200D6BF02001F
:1017F00083C002008DC002003AC1020044C1020051
:10180000F1C10200FBC10200A8C20200B2C2020084
:101810005FC3020069C3020016C4020020C40200B4
:10182000CDC40200D7C4020084C502008EC50200E8
:101830003BC6020044C60200F1C60200FBC602001D
:10184000A8C70200B2C702005FC8020069C8020050
:1018500016C9020020C90200CDC90200D7C9020082
:1018600084CA02008ECA02003BCB020045CB0200B4
:10187000A0CC0200B3CC020060CD02006ACD020011
:10188000C5CE0200D8CE020085CF02008ECF020066
:101890003CD0020045D00200F2D00200FCD0020091
:1018A000A9D10200B3D102000ED3020021D302005D
:1018B000CED30200D8D3020085D402008FD4020018
:1018C000EAD50200FDD50200AAD60200B4D6020075
:1018D00061D702006BD70200C5D80200D9D8020038
:1018E00086D902008FD902003CDA020046DA0200F3
:1018F000A1DB0200B4DB020061DC02006BDC020051
:1019000018DD020022DD02007DDE020090DE020012
:101910003DDF020047DF0200F4DF0200FEDF0200CD
:1019200059E102006CE1020019E2020023E2020028
:10193000D0E20200DAE2020034E4020047E40200EE
:10194000F4E40200FEE40200ABE50200B5E50200AB
:1019500010E7020023E70200D0E70200DAE7020006
:1019600087E8020091E80200ECE90200FFE90200CA
:10197000ACEA0200B6EA020063EB02006DEB020083
:10198000C7EC0200DAEC020087ED020091ED0200E4
:101990003EEE020048EE0200A3EF0200B6EF0200A6
:1019A00063F002006DF002001AF1020024F102005F
:1019B0007FF2020092F202003FF3020049F30200BC
:1019C000F6F3020000F402005BF502006EF502007F
:1019D0001BF6020025F60200D2F60200DBF602003A
:1019E00036F8020049F80200F6F8020000F9020099
:1019F000ADF90200B7F9020012FB020025FB02005C
:101A0000D2FB0200DCFB020089FC020093FC020016
:101A1000EEFD020001FE0200130203004A02030071
:101A2000A5030300B8030300650403006F0403006B
:101A30001C05030026050300D3050300DD05030094
:101A40008A060300940603004A0903007009030094
:101A5000810D0300B90D0300140F0300270F0300CD
:101A6000D40F0300DE0F03008B100300951003005A
:101A7000421103004C110300F9110300031203008B
:101A8000B9140300DE140300F01803002819030042
:101A9000831A0300961A0300431B03004D1B030027
:101AA000FA1B0300041C0300B11C0300BB1C030051
:101AB000681D0300711D0300282003004D20030052
:101AC0005F24030097240300F2250300052603008A
:101AD000B2260300BC260300692703007227030017
:101AE0001F28030029280300D6280300E02803004C
:101AF000972B0300BC2B0300692C0300732C0300FD
:101B0000202D03002A2D0300D72D0300E12D030013
:101B10008E2E0300982E0300452F03004F2F030045
:101B2000FC2F030006300300B3300300BC30030079
:101B30006A31030073310300203203002A320300AC
:101B4000D7320300E13203008E33030098330300E1
:101B5000453403004F340300FC3403000635030012
:101B6000B3350300BD3503006A3603007436030045
:101B7000213703002B370300D8370300E237030077
:101B80008F380300993803004639030050390300A9
:101B9000FD390300073A0300B43A0300BD3A0300DD
:101BA0006A3B0300743B0300213C03002B3C030011
:101BB000D83C0300E23C03008F3D0300993D030045
:101BC000463E0300503E0300FD3E0300073F030076
:101BD000B43F0300BE3F0300744203009A42030077
:101BE0004743030051430300FE430300084403003E
:101BF000B5440300BE4403006B4503007545030074
:101C0000224603002C460300D9460300E3460300A6
:101C1000904703009A4703004748030051480300D8
:101C2000FE48030008490300B5490300BF4903000B
:101C30006C4A0300764A0300234B03002D4B03003C
:101C4000E34D0300084E0300BF500300E4500300BF
:101C50009B530300C0530300765603009C560300B9
:101C6000F65703000958030064590300775903002D
:101C7000245A03002E5A0300DB5A0300E55A0300DE
:101C8000925B03009C5B0300495C0300535C030010
:101C9000005D03000A5D0300B75D0300C15D030042
:101CA0006E5E0300785E0300255F03002F5F030074
:101CB000E56103000A6203006563030078630300C3
:101CC000D3640300E6640300936503009D6503008D
:101CD0004A66030054660300016703000B670300B4
:101CE000B8670300C26703006F68030079680300E8
:101CF0002669030030690300DD690300E76903001A
:101D0000946A03009E6A03004B6B0300546B03004C
:101D1000016C03000B6C0300B86C0300C26C030081
:101D20006F6D0300796D0300266E0300306E0300B3
:101D3000DD6E0300E76E0300427003005570030080
:101D4000027103000C710300B9710300C371030039
:101D5000707203007A72030027730300317303006B
:101D6000DE730300E8730300957403009F7403009F
:101D70004C75030055750300027603000C760300D2
:101D8000B9760300C3760300707703007A77030007
:101D90002778030031780300DE780300E878030039
:101DA000957903009F7903004C7A0300567A03006B
:101DB000B17B0300C47B0300CC7D0300E97D0300FD
:101DC000967E03009F7E0300A8800300C48003006A
:101DD000718103007B810300D6820300E982030046
:101DE00096830300A08303004D84030057840300FF
:101DF000B2850300C58503002087030033870300F5
:101E0000E0870300EA87030097880300A0880300A7
:101E10004D89030057890300048A03000E8A0300DA
:101E2000BB8A0300C58A0300728B03007C8B03000E
:101E3000298C0300338C0300E08C0300EA8C030040
:101E4000458E0300588E0300058F03000F8F03009B
:101E5000BC8F0300C68F030021910300349103005F
:101E60008E920300A19203004E9303005893030047
:101E7000059403000F940300BC940300C694030070
:101E8000739503007D9503002A96030034960300A2
:101E9000E1960300EB96030098970300A2970300D6
:101EA0004F98030059980300069903001099030006
:101EB000BD990300C7990300749A03007E9A03003A
:101EC0002B9B0300359B0300E29B0300EB9B03006D
:101ED000989C0300A29C0300FD9D0300109E03003C
:101EE000BD9E0300C79E0300749F03007E9F0300F6
:101EF0002BA0030035A00300E2A00300ECA0030028
:101F000099A10300A3A1030050A203005AA2030059
:101F100007A3030011A30300BEA30300C8A303008B
:101F200075A403007FA403002CA5030036A50300BD
:101F3000E3A50300ECA5030099A60300A3A60300F4
:101F400050A703005AA7030007A8030011A8030025
:101F50006CA903007FA9030088AB0300A4AB0300B6
:101F600051AC03005BAC030063AE030080AE030022
:101F70002DAF030036AF0300EDB1030012B2030032
:101F80006DB3030080B30300DBB403000000520014
:101F900000003D0000005700000041000000570015
:101FA0000000520000004D0000004D0000005200F3
:101FB00000005700000041000000570000005200E0
:101FC00000004D000000410000008200000082007F
:101FD00000008200000082000000410000005C0060
:101FE000000041000000820000008200000082002A
:101FF00000008200000082000000410000005C0040
:1020000000005C0000005C000000520000003D0089
:102010000000520000002B000000410000005700AB
:1020200000006E000000290000003D00000052008A
:102030000000260000003D0000004D0000002600CA
:102040000000290000003D000000520000002B00AD
:10205000000041000000570000006E000000290051
:1020600000003D00000052000000260000003D007E
:1020700000004D0000002600000041000000490162
:10208000000041000000410000006E0000008200DE
:1020900000006E00000041000000610000008200AE
:1020A0000000260000002E0000004D000000260069
:1020B0000000410000006E000000820000004100AE
:1020C000000061000000820000006100000082004A
:1020D0000000410000004D0000004D0000004D00D8
:1020E0000000520000003D000000520000005700B8
:1020F00000003D00000057000000520000003D00BD
:10210000000052000000570000003D000000570092
:1021100000005C000000450000005C000000610061
:10212000000045000000610000005C000000450068
:1021300000005C000000610000004500000061003C
:102140000000520000003D00000052000000570057
:1021500000003D00000057000000520000003D005C
:10216000000052000000570000003D000000570032
:1021700000005C000000450000005C000000610001
:1021800000004500000061000000670000004500FD
:102190000000670000006E000000490000006E00B3
:1021A00000009B00000074000000A40000007B0001
:1021B0000000A40000009B000000920000009200BC
:1021C00000009B000000A40000007B000000A400B1
:1021D00000009B0000004D0000009200000049003C
:1021E00000007B0000007B0000007B0000007B0003
:1021F00000007B0000003D000000570000003D0093
:1022000000007B0000003D0000007B0000007B0020
:1022100000007B0000007B0000003D000000570034
:10222000000057000000570000004D0000003A0079
:1022300000004D000000290000003D000000520099
:10224000000067000000260000003A0000004D007A
:102250000000240000003A000000490000002400B3
:102260000000260000003A0000004D000000290098
:1022700000003D0000005200000067000000260042
:1022800000003A0000004D000000240000003A0069
:10229000000049000000240000003D0000003D0057
:1022A00000003D000000670000007B0000006700A8
:1022B00000003D0000005C0000007B0000002400E6
:1022C00000002B00000049000000240000003D0039
:1022D0000000670000007B0000003D0000005C0083
:1022E00000007B0000005C0000007B0000003D005F
:1022F00000004900000049000000490000009B0068
:102300000000740000009B000000520000007B00F1
:102310000000A4000000CF0000004D000000740089
:1023200000009B00000049000000740000009200C3
:102330000000490000004D000000740000009B00F8
:102340000000520000007B000000A4000000CF004D
:1023500000004D000000740000009B0000004900D8
:1023600000007400000092000000490000007B00A3
:1023700000007B0000007B000000CF000000F600A2
:102380000000CF0000007B000000B8000000F60055
:1023900000004900000057000000920000004900C2
:1023A00000007B000000CF000000F60000007B0072
:1023B0000000B8000000F6000000B8000000F600C1
:1023C00000007B00000092000000920000009200DC
:1023D00000004D0000003A0000004D0000005200D7
:1023E00000003A000000520000004D0000003A00DA
:1023F00000004D000000520000003A0000005200B2
:1024000000005700000041000000570000005C0081
:102410000000410000005C00000057000000410087
:102420000000570000005C000000410000005C005C
:1024300000004D0000003A0000004D000000520076
:1024400000003A000000520000004D0000003A0079
:1024500000004D000000520000003A000000520051
:1024600000005700000041000000570000005C0021
:102470000000410000005C0000006100000041001D
:1024800000006100000067000000450000006700D8
:102490000000570000006100000030000000520002
:1024A00000006E00000082000000A4000000DC00BC
:1024B0000000F60000006E000000A4000000DC0038
:1024C00000000501000049010000DC000000F600EA
:1024D00000006E000000A4000000DC000000050108
:1024E000000049010000DC000000F60000006E0062
:1024F0000000A4000000DC0000000501000049010C
:1025000000005700000082000000AE000000DC0068
:1025100000006100000092000000C3000000F6000F
:1025200000006E000000A4000000DC0000000501B7
:1025300000004901000005010000DC000000A400CB
:1025400000005700000082000000AE000000DC0028
:1025500000006100000092000000C3000000F600CF
:1025600000006E000000A4000000DC000000050177
:102570000000490100005700000082000000AE008A
:102580000000DC0000006100000092000000C300B9
:102590000000F60000006E000000A4000000DC0057
:1025A00000000501000049010000AE000000C3006A
:1025B0000000DC0000006E0000006E0000005C0007
:1025C0000000450000005C0000007400000067008F
:1025D00000004D0000006700000082000000740051
:1025E000000033000000670000005C0000004500B0
:1025F00000005C00000074000000670000004D0057
:102600000000670000008200000074000000570016
:10261000000074000000570000003A00000057005E
:102620000000670000005C000000450000005C0046
:1026300000007400000033006700000000004D003F
:10264000000067000000820000003A000000570010
:102650000000740000008A000000740000003A00CE
:102660000000670000005C0000005C0000006700E4
:1026700000006700000074000000740000005700B4
:10268000000074000000670000005C0000004500CE
:1026900000005C00000074000000670000004D00B6
:1026A0000000670000008200000074000000740059
:1026B00000003A00000074000000670000005C00A9
:1026C0000000450000005C0000007400000067008E
:1026D00000004D00000067000000820000003A008A
:1026E000000057000000740000008A000000740021
:1026F000000057000000670000005C00000045007B
:1027000000005C00000074000000670000004D0045
:10271000000067000000820000003A00000057003F
:102720000000740000008A000000740000005700E0
:102730000000670000005C0000005C000000670013
:1027400000006700000074000000740000007400C6
:102750000000520000003D00000057000000410052
:10276000000057000000520000004D0000004D0026
:102770000000520000002900000057000000410046
:1027800000005700000052000000290000004D002A
:10279000000026000000410000006E0082000000E2
:1027A0000000820000008200000082000000410062
:1027B00000005C00000041000000820000004100B9
:1027C0000000820000008200000082000000820001
:1027D0000000410000005C0000005C0000005C00A4
:1027E0000000520000003D000000520000002B00DD
:1027F000000041000000570000006E0000002900AA
:1028000000003D00000052000000260000003D00D6
:1028100000004D00000026000000290000003D00DF
:102820000000520000002B00000041000000570093
:1028300000006E000000290000003D000000520072
:102840000000260000003D0000004D0000002600B2
:1028500000004100000041000000410000006E0047
:102860000000820000006E000000410000006100D6
:10287000000082000000260000002E0000004D0035
:10288000000026000000410000006E0000008200F1
:1028900000004100000061000000820000006100B3
:1028A000000082000000410000004D0000004D00CB
:1028B00000004D000000520000003D0000005200EA
:1028C0000000570000003D000000570000005200CB
:1028D00000003D00000052000000570000003D00D5
:1028E0000000570000005C000000450000005C0094
:1028F00000006100000045000000610000005C0075
:102900000000450000005C00000061000000450080
:10291000000061000000520000003D000000520075
:102920000000570000003D0000005700000052006A
:1029300000003D00000052000000570000003D0074
:102940000000570000005C000000450000005C0033
:102950000000610000004500000061000000670009
:10296000000045000000670000006E000000490004
:1029700000006E0000009B00000074000000A40036
:1029800000007B000000A40000009B0000009200FB
:102990000000920000009B000000A40000007B00EB
:1029A0000000A40000009B0000009200000049000D
:1029B00000007B0000007B0000007B0000007B002B
:1029C00000007B0000003D000000570000003D00BB
:1029D00000007B0000003D0000007B0000007B0049
:1029E00000007B0000007B0000003D00000057005D
:1029F000000057000000570000004D0000003A00A2
:102A000000004D000000290000003D0000005200C1
:102A1000000067000000260000003A0000004D00A2
:102A20000000240000003A000000490000002400DB
:102A30000000260000003A0000004D0000002900C0
:102A400000003D000000520000006700000026006A
:102A500000003A0000004D000000240000003A0091
:102A6000000049000000240000003D0000003D007F
:102A700000003D000000670000007B0000006700D0
:102A800000003D0000005C0000007B00000024000E
:102A900000002B00000049000000240000003D0061
:102AA0000000670000007B0000003D0000005C00AB
:102AB00000007B0000005C0000007B0000003D0087
:102AC00000004900000049000000490000009B0090
:102AD0000000740000009B000000520000007B001A
:102AE0000000A4000000CF0000004D0000007400B2
:102AF00000009B00000049000000740000009200EC
:102B00000000490000004D000000740000009B0020
:102B10000000520000007B000000A4000000CF0075
:102B200000004D000000740000009B000000490000
:102B300000007400000092000000490000007B00CB
:102B400000007B0000007B000000CF000000F600CA
:102B50000000CF0000007B000000B8000000F6007D
:102B600000004900000057000000920000004900EA
:102B700000007B000000CF000000F60000007B009A
:102B80000000B8000000F6000000B8000000F600E9
:102B900000007B0000009200000092000000920004
:102BA00000004D0000003A0000004D0000005200FF
:102BB00000003A000000520000004D0000003A0002
:102BC00000004D000000520000003A0000005200DA
:102BD00000005700000041000000570000005C00AA
:102BE0000000410000005C000000570000004100B0
:102BF0000000570000005C000000410000005C0085
:102C000000004D0000003A0000004D00000052009E
:102C100000003A000000520000004D0000003A00A1
:102C200000004D000000520000003A000000520079
:102C300000005700000041000000570000005C0049
:102C40000000410000005C00000061000000410045
:102C50000000610000006700000045000000670000
:102C6000000057000000610000003000000052002A
:102C700000006E00000082000000A4000000DC00E4
:102C80000000F60000006E000000A4000000DC0060
:102C900000000501000049010000DC000000F60012
:102CA00000006E000000A4000000DC000000050130
:102CB000000049010000DC000000F60000006E008A
:102CC0000000A4000000DC00000005010000490134
:102CD00000005700000082000000AE000000DC0091
:102CE00000006100000092000000C3000000F60038
:102CF00000006E000000A4000000DC0000000501E0
:102D000000004901000005010000DC000000A400F3
:102D100000005700000082000000AE000000DC0050
:102D200000006100000092000000C3000000F600F7
:102D300000006E000000A4000000DC00000005019F
:102D40000000490100005700000082000000AE00B2
:102D50000000DC0000006100000092000000C300E1
:102D60000000F60000006E000000A4000000DC007F
:102D700000000501000049010000AE000000C30092
:102D80000000DC0000006E0000006E0000005C002F
:102D90000000450000005C000000740000006700B7
:102DA00000004D0000006700000082000000740079
:102DB000000033000000670000005C0000004500D8
:102DC00000005C00000074000000670000004D007F
:102DD000000067000000820000007400000057003F
:102DE000000074000000570000003A000000570087
:102DF0000000670000005C000000450000005C006F
:102E0000000074000000670000004D000000670033
:102E10000000820000003A0000005700000074002B
:102E200000008A000000740000003A000000670003
:102E300000005C0000005C0000006700000067000C
:102E400000007400000074000000570000007400CF
:102E50000000670000005C000000450000005C000E
:102E6000000074000000670000004D0000006700D3
:102E700000008200000074000000740000003A00AE
:102E8000000074000000670000005C0000004500C6
:102E900000005C00000074000000670000004D00AE
:102EA000000067000000820000003A0000005700A8
:102EB0000000740000008A00000074000000570049
:102EC0000000670000005C000000450000005C009E
:102ED000000074000000670000004D000000670063
:102EE0000000820000003A0000005700000074005B
:102EF00000008A0000007400000057000000670016
:102F000000005C0000005C0000006700000067003B
:102F10000000740000007400000074000000000055
:102F200000000000000000000000000000000000A1
:102F30000000000000000000000000000000AD00E4
:102F40000000B6000000630100006D0100001A02DD
:102F5000000024020000AD02000037030000BF03A0
:102F6000000049040000A404000000050000AD05B5
:102F70000000B7050000640600006E0600001B0795
:102F8000000025070000D2070000DC0700008908C8
:102F9000000093080000400900004A090000F709FA
:102FA0000000000A0000AD0A0000B70A0000640B30
:102FB00000006E0B00001B0C0000250C0000AE0C86
:102FC0000000380D0000C00D00004A0E0000A50EE4
:102FD0000000010F0000AE0F0000B80F00006510E8
:102FE00000006F1000001C11000026110000D3111A
:102FF0000000DD1100008A1200009412000041134D
:1030000000004B130000F813000001140000AE1480
:103010000000B8140000651500006F1500001C16B4
:10302000000026160000AF16000039170000C11777
:1030300000004B180000A618000002190000AF198C
:103040000000B9190000661A0000701A00001D1B6C
:103050000000271B0000D41B0000DE1B00008B1C9F
:103060000000951C0000421D00004B1D0000F91DD2
:103070000000021E0000AF1E0000B91E0000661F07
:103080000000701F00001D20000027200000B0205D
:1030900000003A210000C22100004C220000F92269
:1030A000000003230000B0230000BA2300006724BF
:1030B0000000712400001E25000028250000822643
:1030C000000096260000432700004C270000F92747
:1030D000000003280000B0280000BA28000067297B
:1030E0000000712900001E2A0000282A00002C2B55
:1030F00000003B2B0000C32B00004D2C0000FA2CDD
:103100000000042D0000B12D0000BB2D0000682E32
:103110000000722E00001F2F0000292F0000D62F64
:103120000000E02F00008D30000097300000443197
:1031300000004D310000FA31000004320000B132CD
:103140000000BB32000068330000723300001F34FF
:103150000000293400002D3500003C350000C43546
:1031600000004E360000FB36000005370000B23785
:103170000000BC37000069380000733800002039B7
:1031800000002A390000D7390000E13900008E3AEA
:103190000000973A0000443B00004E3B0000FB3B20
:1031A0000000053C0000B23C0000BC3C0000693D52
:1031B0000000733D0000203E00002A3E00002E3F2C
:1031C00000003C3F0000404000004F400000FC4039
:1031D000000006410000B3410000BD4100006A420A
:1031E000000074420000214300002B430000D8433C
:1031F0000000E24300008F44000098440000454571
:1032000000004F450000FC45000006460000B346A4
:103210000000BD4600006A470000744700002148D6
:1032200000002B4800002F4900003D490000414AA2
:103230000000504A0000FD4A0000074B0000B44B5C
:103240000000BE4B00006B4C0000754C0000224D8E
:1032500000002C4D0000864E0000994E0000464FA5
:103260000000504F0000FD4F000007500000B45018
:103270000000BE5000006B51000075510000D0529C
:103280000000E3520000905300009A53000047549E
:10329000000051540000AC550000BF5500006C56B2
:1032A000000076560000235700002D570000875875
:1032B00000009A5800004759000051590000FE597B
:1032C0000000085A0000635B0000765B0000235C8E
:1032D00000002D5C0000DA5C0000E45C00003F5E52
:1032E0000000525E0000FF5E0000095F0000B65F54
:1032F0000000C05F00001A6100002E610000DB6169
:103300000000E4610000916200009B620000F6632F
:10331000000009640000B6640000C06400006D6530
:10332000000077650000D2660000E5660000926745
:1033300000009C6700004968000053680000AE6907
:103340000000C16900006E6A0000786A0000256B09
:1033500000002E6B0000896C00009C6C0000496D21
:103360000000536D0000006E00000A6E0000656FE3
:103370000000786F0000257000002F700000DC70E6
:103380000000E670000041720000547200000173FA
:1033900000000B730000B8730000C27300001C75BE
:1033A00000002F750000DC750000E67500009376C4
:1033B00000009D760000F87700000B780000B878D8
:1033C0000000C27800006F79000079790000D47A9B
:1033D0000000E77A0000947B00009E7B00004B7C9D
:1033E0000000557C0000B07D0000C37D0000707EB1
:1033F0000000797E0000277F0000307F0000DD7F25
:103400000000E77F000070800000FA8000008281E9
:1034100000000C82000067820000C38200007083FD
:1034200000007A8300002784000031840000DE84DD
:103430000000E8840000958500009F8500004C8610
:10344000000056860000038700000D870000BA8741
:103450000000C4870000718800007A880000278976
:10346000000031890000DE890000E8890000718ACF
:103470000000FB8A0000838B00000D8C0000688C2C
:103480000000C48C0000718D00007B8D0000288E30
:103490000000328E0000DF8E0000E98E0000968F63
:1034A0000000A08F00004D90000057900000049194
:1034B00000000E910000BB910000C59100007292C7
:1034C00000007B9200002893000032930000DF93FD
:1034D0000000E993000072940000FC9400008495C1
:1034E00000000E96000069960000C59600007297D5
:1034F00000007C9700002998000033980000E098B5
:103500000000EA98000097990000A19900004E9AE7
:103510000000589A0000059B00000F9B0000BC9B18
:103520000000C59B0000729C00007C9C0000299D4F
:103530000000339D0000E09D0000EA9D0000739EA6
:103540000000FD9E0000859F00000FA00000BCA0B1
:103550000000C6A0000073A100007DA100002AA207
:10356000000034A20000E1A20000EBA2000046A48B
:10357000000059A4000006A5000010A50000BDA58C
:103580000000C6A5000073A600007DA600002AA7C3
:10359000000034A70000E1A70000EBA70000EFA89F
:1035A0000000FEA8000086A9000010AA0000BDAA25
:1035B0000000C7AA000074AB00007EAB00002BAC7B
:1035C000000035AC0000E2AC0000ECAC000099ADAE
:1035D0000000A3AD000050AE00005AAE000007AFDF
:1035E000000010AF0000BEAF0000C7AF000074B015
:1035F00000007EB000002BB1000035B10000E2B148
:103600000000ECB10000F0B20000FFB2000087B390
:10361000000011B40000BEB40000C8B4000075B5CD
:1036200000007FB500002CB6000036B60000E3B6FF
:103630000000EDB600009AB70000A4B7000051B832
:10364000000011B90000BEB90000C8B9000075BA89
:1036500000007FBA00002CBB000036BB0000E3BBBB
:103660000000EDBB0000F1BC000000BD000003BE87
:10367000000012BE0000BFBE0000C9BE000076BF41
:10368000000080BF00002DC0000037C00000E4C073
:103690000000EEC000009BC10000A5C1000052C2A6
:1036A00000005CC2000009C3000012C30000BFC3D9
:1036B0000000C9C30000C9C3000076C4000076C47E
:1036C000000080C400002DC5000037C50000E4C51F
:1036D0000000EEC50000F2C6000001C7000004C8EB
:1036E000000013C80000C0C80000CAC8000077C9A5
:1036F000000081C900002ECA000038CA0000E5CAD7
:103700000000EFCA000049CC00005CCC000009CDED
:10371000000013CD000013CD0000C0CD0000C0CDCF
:103720000000CACD000077CE000081CE00002ECF71
:10373000000038CF0000E5CF0000EFCF0000F3D04D
:10374000000002D100008AD1000014D20000C1D2D2
:103750000000CBD2000078D3000082D300002FD429
:10376000000039D40000E6D40000F0D400009DD55C
:103770000000A7D5000054D600005DD600000AD78F
:10378000000014D70000C1D70000CBD7000078D8C4
:10379000000082D800002FD9000039D90000E6D9F6
:1037A0000000F0D90000F4DA000002DB00008BDB3F
:1037B000000015DC0000C2DC0000CCDC000079DD7C
:1037C000000083DD000030DE00003ADE0000E7DEAE
:1037D0000000F1DE00009EDF0000A7DF000055E0E2
:1037E00000005EE000000BE1000015E10000C2E116
:1037F0000000CCE1000079E2000083E2000030E349
:1038000000003AE30000E7E30000F1E30000F5E424
:10381000000003E5000007E6000016E60000C3E62E
:103820000000CDE600007AE7000084E7000031E800
:1038300000003BE80000E8E80000F2E800009FE933
:103840000000A8E9000055EA00005FEA00000CEB68
:10385000000016EB0000C3EB0000CDEB00007AEC9B
:10386000000084EC000031ED00003BED0000E8EDCD
:103870000000F2ED0000F6EE000004EF000008F09A
:10388000000017F00000C4F00000CEF000007BF153
:10389000000085F1000032F200003CF20000E9F285
:1038A0000000F3F200004DF4000060F400000DF59C
:1038B000000017F50000C4F50000CEF500007BF60F
:1038C000000085F6000032F700003CF7000097F892
:1038D0000000AAF8000057F9000061F900000EFA94
:1038E000000018FA000073FB000086FB000033FCA8
:1038F00000003DFC0000EAFC0000F3FC00004EFE6E
:10390000000061FE00000EFF000018FF0000C5FF70
:103910000000CFFF00002A0101003D010100EA0183
:103920000100F4010100A1020100AB020100060444
:10393000010019040100C6040100D00401007D0546
:10394000010087050100E1060100F4060100A1075E
:103950000100AB0701005808010062080100BD0921
:103960000100D00901007D0A0100870A0100340B23
:1039700001003E0B0100990C0100AC0C0100590D37
:103980000100630D0100100E01001A0E0100750FF9
:103990000100880F0100351001003E100100EC10FD
:1039A0000100F51001005012010063120100101314
:1039B00001001A130100C7130100D11301002C15D7
:1039C00001003F150100EC150100F6150100A316DA
:1039D0000100AD160100081801001B180100C818ED
:1039E0000100D21801007F19010089190100E31AB2
:1039F0000100F61A0100A31B0100AD1B01005A1CB7
:103A00000100641C0100BF1D0100D21D01007F1ECA
:103A10000100891E0100361F0100401F01009B208C
:103A20000100AE2001005B2101006521010012228E
:103A300001001C220100762301008A2301003724A3
:103A4000010040240100ED240100F7240100A42519
:103A50000100AE2501005B2601006526010012274A
:103A600001001C270100C9270100D327010080287D
:103A700001008A280100E0280100E52801003C2916
:103A80000100412901009C2A0100AF2A01000A2CF3
:103A900001001D2C0100772D01008A2D0100E52E6B
:103AA0000100F82E0100A52F0100AF2F01005C30AE
:103AB000010066300100133101001D310100CA31DF
:103AC0000100D4310100813201008B320100383312
:103AD000010042330100EF330100F9330100A63445
:103AE0000100B03401000B3601001E3601007837AA
:103AF00001008B37010094390100B0390100063A0A
:103B000001000C3A0100623A0100673A0100143BDF
:103B100001001E3B0100CB3B0100D53B0100823C74
:103B200001008C3C0100393D0100433D0100F03DA6
:103B30000100FA3D0100A73E0100B13E01005E3FD9
:103B40000100683F0100154001001F400100CC400A
:103B50000100D5400100834101008C410100394240
:103B6000010043420100F0420100FA4201005544C5
:103B7000010068440100C3450100D64501008346A9
:103B800001008D4601003A47010044470100F1471A
:103B90000100FB470100A8480100B24801000849A4
:103BA00001000D4901006349010069490100BF4955
:103BB0000100C44901001A4A0100204A0100CD4A0F
:103BC0000100D64A0100834B01008D4B01003A4CA5
:103BD0000100444C0100F14C0100FB4C0100A84DD8
:103BE0000100B24D01005F4E0100694E01001F51FE
:103BF000010045510100F2510100FC510100A952A0
:103C00000100B3520100605301006A5301001754D0
:103C1000010021540100CE540100D7540100845505
:103C200001008E5501003B560100455601009B5690
:103C30000100A1560100F7560100FC56010057583B
:103C400001006A580100C5590100D8590100335BD1
:103C50000100465B0100A15C0100B45C0100615DF4
:103C600001006B5D0100185E0100215E0100CF5E66
:103C70000100D85E0100855F01008F5F01003C609C
:103C8000010046600100F3600100FD600100AA61CF
:103C90000100B4610100616201006B620100C66352
:103CA0000100D963010034650100476501004F67D9
:103CB00001006C670100C2670100C76701001D6851
:103CC000010022680100CF680100D96801008669FF
:103CD0000100906901003D6A0100476A0100F46A31
:103CE0000100FE6A0100AB6B0100B56B0100626C64
:103CF00001006C6C0100196D0100236D0100D06D95
:103D00000100DA6D0100DA6D0100876E0100876E37
:103D10000100916E01003E6F0100486F0100F56FD8
:103D20000100FF6F0100AC700100B670010010725D
:103D30000100237201007E730100917301003E7443
:103D4000010048740100F5740100FF740100AC75B6
:103D50000100B6750100637601006D7601001A77E7
:103D6000010024770100D1770100DB77010088781A
:103D70000100927801003F79010049790100F6794C
:103D80000100007A0100AD7A0100B77A0100647B7E
:103D900001006D7B01001A7C0100247C01007F7D05
:103DA0000100927D0100E87D0100EE7D0100447E6E
:103DB0000100497E01009F7E0100A57E0100FB7E7F
:103DC0000100007F0100AD7F0100B77F010064802A
:103DD00001006E8001001B81010025810100D2815C
:103DE0000100DC810100898201009382010040838F
:103DF00001004A830100F783010001840100578418
:103E000001005C840100B2840100B88401001286C4
:103E10000100258601008087010093870100EE885C
:103E20000100018901005C8A01006F8A01001C8B7E
:103E30000100268B0100D38B0100DD8B01008A8CF1
:103E40000100948C0100418D01004B8D0100F88D23
:103E50000100028E0100AF8E0100B88E0100668F56
:103E60000100269001008191010094910100EF92E0
:103E70000100029301000B950100279501007D953B
:103E8000010082950100D8950100DE9501008B9616
:103E9000010095960100429701004C970100F997A7
:103EA000010003980100B0980100B99801006699DB
:103EB0000100709901001D9A0100279A0100D49A0F
:103EC0000100DE9A01008B9B0100959B0100429C42
:103ED00001004C9C0100F99C0100039D0100B09D74
:103EE0000100BA9D0100679E0100719E0100CC9FF8
:103EF0000100DF9F01003AA101004DA10100FAA1DC
:103F0000010004A20100B1A20100BAA2010067A34E
:103F1000010071A301001EA4010028A40100D5A482
:103F20000100DFA401008CA5010096A5010043A6B5
:103F300001004DA60100FAA6010004A70100B1A7E7
:103F40000100BBA7010068A8010072A801001FA919
:103F5000010029A90100D6A90100E0A901003AAB9E
:103F600001004EAB0100A8AC0100BBAC010068AD84
:103F7000010072AD01001FAE010029AE0100D6AEF6
:103F80000100E0AE01008DAF010097AF010044B029
:103F900001004EB00100FBB0010005B10100B2B15B
:103FA0000100BCB1010012B2010017B201006DB2F4
:103FB000010073B20100CEB30100E1B301003BB5D3
:103FC00001004FB50100A9B60100BCB6010017B849
:103FD00001002AB80100D7B80100E1B801008EB98C
:103FE000010098B9010045BA01004FBA0100FCBABE
:103FF000010006BB0100B3BB0100BDBB01006ABCF0
:10400000010074BC010021BD01002BBD0100D8BD21
:104010000100E2BD01003CBF01004FBF0100AAC08A
:104020000100BDC00100C6C20100E2C2010038C3E8
:1040300001003EC3010094C3010099C3010046C4BE
:10404000010050C40100FDC4010007C50100B4C552
:104050000100BEC501006BC6010075C6010022C784
:1040600001002CC70100D9C70100E3C7010090C8B7
:1040700001009AC8010047C9010050C90100FDC9EB
:10408000010007CA0100B4CA0100BECA01006BCB1F
:10409000010075CB010022CC01002CCC010087CDA2
:1040A00001009ACD0100F5CE010008CF0100B5CF87
:1040B0000100BFCF01006CD0010076D0010023D1F8
:1040C00001002DD10100DAD10100E4D1010091D22B
:1040D00001009BD2010048D3010051D30100FED35F
:1040E000010008D40100B5D40100BFD401006CD593
:1040F000010076D5010023D601002DD60100DAD6C5
:104100000100E4D6010091D701009BD7010051DAEC
:10411000010077DA010024DB01002EDB0100DBDB8C
:104120000100E5DB010092DC01009BDC010024DDE5
:104130000100AEDD010036DE0100C0DE01001BDF44
:10414000010077DF010024E001002EE00100DBE048
:104150000100E5E0010092E101009CE1010049E27B
:10416000010053E2010000E301000AE30100B7E3AC
:104170000100C1E301006EE4010078E4010025E5DF
:1041800001002FE50100DCE50100E6E5010093E612
:1041900001009CE6010025E70100AFE7010037E8D8
:1041A0000100C1E801001CE9010078E9010025EAED
:1041B00001002FEA0100DCEA0100E6EA010093EBCE
:1041C00001009DEB01004AEC010054EC010001EDFF
:1041D00001000BED0100B8ED0100C2ED01006FEE32
:1041E000010079EE010026EF010030EF0100DDEF64
:1041F0000100E6EF010094F001009DF0010026F1BE
:104200000100B0F1010038F20100C2F201001DF31B
:10421000010079F3010026F4010030F40100DDF41F
:104220000100E7F4010094F501009EF501004BF652
:10423000010055F6010002F701000CF70100B9F783
:104240000100C3F7010070F801007AF8010027F9B6
:10425000010031F90100DEF90100E7F9010094FAEB
:1042600001009EFA010027FB0100B1FB010039FCAF
:104270000100C3FC010070FD01007AFD010027FE72
:10428000010031FE0100DEFE0100E8FE010095FFA5
:1042900001009FFF0100FA0002000D010200BA01B7
:1042A0000200C4010200710202007B020200280326
:1042B000020032030200DF030200E803020095045B
:1042C00002009F040200A3050200B20502003A06A4
:1042D0000200C4060200710702007B0702002808E2
:1042E000020032080200DF080200E9080200960915
:1042F0000200A00902004D0A0200570A0200040B46
:1043000002000E0B0200BB0B0200C50B0200720C78
:1043100002007C0C0200290D0200320D0200DF0DAC
:104320000200E90D0200960E0200A00E0200A40F8A
:104330000200B30F02003B100200C5100200721110
:1043400002007C1102002912020033120200E01266
:104350000200EA12020097130200A11302004E1499
:10436000020058140200051502000F150200BC15CA
:104370000200C6150200731602007D1602002A17FD
:10438000020033170200E0170200EA170200971834
:104390000200A1180200A5190200B4190200B81AFF
:1043A0000200C61A0200731B02007D1B02002A1CB9
:1043B0000200341C0200E11C0200EB1C0200981DEC
:1043C0000200A21D02004F1E0200591E0200061F1D
:1043D0000200101F0200BD1F0200C71F0200742050
:1043E00002007D2002002B21020034210200E12185
:1043F0000200EB21020098220200A2220200A62362
:104400000200B5230200B9240200C724020074256B
:1044100002007E2502002B26020035260200E2263D
:104420000200EC26020099270200A3270200FE28C2
:10443000020011290200BE290200C8290200752AC3
:1044400002007E2A02002B2B0200352B0200E22BF9
:104450000200EC2B0200472D02005A2D0200072E0D
:104460000200112E0200BE2E0200C82E02002330D0
:10447000020036300200E3300200ED3002009A31D3
:104480000200A4310200FF32020012330200BF33E7
:104490000200C9330200763402007F340200DA35AC
:1044A0000200ED3502009A360200A43602005137B0
:1044B00002005B370200B6380200C93802007639C4
:1044C0000200803902002D3A0200373A0200923B86
:1044D0000200A53B0200523C02005C3C0200093D88
:1044E0000200133D02006D3E0200803E02002D3F9F
:1044F0000200373F0200E43F0200EE3F0200494164
:1045000002005C4102000942020013420200C04264
:104510000200CA4202002544020038440200E54479
:104520000200EF4402009C450200A645020000473D
:10453000020014470200C1470200CA470200774840
:10454000020081480200DC490200EF4902009C4A57
:104550000200A64A0200534B02005D4B0200B84C19
:104560000200CB4C0200784D0200824D02002F4E1B
:104570000200394E0200944F0200A74F020054502F
:1045800002005E5002000B510200145102006F52F3
:104590000200825202002F53020039530200E653F8
:1045A0000200F05302004B5502005E5502000B560C
:1045B000020015560200C2560200CC5602002758CF
:1045C00002003A580200E7580200F15802009E59D2
:1045D0000200A8590200555A02005F5A0200E75A29
:1045E0000200715B0200F95B0200835C0200DE5C8A
:1045F00002003A5D0200E75D0200F15D02009E5E8E
:104600000200A85E0200555F02005F5F02000C60BE
:10461000020016600200C3600200CD6002007A61F1
:10462000020084610200316202003B620200E86223
:104630000200F26202009F630200A9630200566456
:10464000020060640200E864020072650200FA651C
:10465000020084660200DF6602003B670200E86732
:104660000200F26702009F680200A9680200566912
:104670000200606902000D6A0200176A0200C46A43
:104680000200CE6A02007B6B0200856B0200326C76
:1046900002003C6C0200E96C0200F36C0200A06DA9
:1046A0000200AA6D0200576E0200606E0200E96E01
:1046B0000200736F0200FB6F020085700200E07061
:1046C00002003C710200E9710200F3710200A07265
:1046D0000200AA72020057730200617302000E7496
:1046E000020018740200C5740200CF7402007C75C9
:1046F000020086750200337602003D760200EA76FB
:104700000200F4760200A1770200AB77020058782D
:10471000020061780200EA78020074790200FC79F4
:104720000200867A0200337B02003D7B0200EA7BB6
:104730000200F47B0200A17C0200AB7C0200587DE9
:104740000200627D0200BD7E0200D07E02007D7FFD
:104750000200877F0200348002003E800200EB806E
:104760000200F5800200A2810200AB8102005982A2
:104770000200628202006683020075830200FD83EC
:10478000020087840200348502003E850200EB852A
:104790000200F5850200A2860200AC86020059875D
:1047A000020063870200108802001A880200C7888E
:1047B0000200D18802007E89020088890200358AC1
:1047C00002003F8A0200EC8A0200F68A0200A38BF4
:1047D0000200AC8B0200598C0200638C0200678DD2
:1047E0000200768D0200FE8D0200888E0200358F59
:1047F00002003F8F0200EC8F0200F68F0200A390B0
:104800000200AD9002005A910200649102001192E0
:1048100002001B920200C8920200D29202007F9313
:104820000200899302003694020040940200ED9445
:104830000200F7940200A4950200AD9502005A967A
:1048400002006496020068970200779702007B9846
:104850000200899802003699020040990200ED9901
:104860000200F7990200A49A0200AE9A02005B9B34
:104870000200659B0200129C02001C9C0200C99C65
:104880000200D39C0200809D02008A9D0200379E98
:104890000200419E0200EE9E0200F79E0200A59FCC
:1048A0000200AE9F02005BA0020065A0020069A1A9
:1048B000020078A102007CA202008AA2020037A3B3
:1048C000020041A30200EEA30200F8A30200A5A487
:1048D0000200AFA402005CA5020066A50200C1A60A
:1048E0000200D4A6020081A702008BA7020038A80C
:1048F000020042A80200EFA80200F8A80200A5A941
:104900000200AFA902005CAA020066AA02006AAB1C
:10491000020079AB020001AC02008BAC020038ADA2
:10492000020042AD0200EFAD0200F9AD0200A6AEFA
:104930000200B0AE02005DAF020067AF020014B02B
:1049400002001EB00200CBB00200D5B0020082B15E
:1049500002008CB1020039B2020042B20200F0B291
:104960000200F9B20200A6B30200B0B302005DB4C7
:10497000020067B402006BB502007AB5020002B60D
:1049800002008CB6020039B7020043B70200F0B74C
:104990000200FAB70200A7B80200B1B802005EB97F
:1049A000020068B9020015BA02001FBA0200CCBAB0
:1049B0000200D6BA020083BB02008DBB02003ABCE3
:1049C000020043BC0200F0BC0200FABC0200A7BD1A
:1049D0000200B1BD02005EBE020068BE02006CBFF4
:1049E00002007BBF02007FC002008DC002003AC1FE
:1049F000020044C10200F1C10200FBC10200A8C2D2
:104A00000200B2C202005FC3020069C3020016C402
:104A1000020020C40200CDC40200D7C4020084C535
:104A200002008EC502003BC6020044C60200F1C669
:104A30000200FBC60200A8C70200B2C702005FC89E
:104A4000020069C802006DC902007CC9020080CA68
:104A500002008ECA02003BCB020045CB0200F2CB23
:104A60000200FCCB0200A9CC0200B3CC020060CD56
:104A700002006ACD0200C5CE0200D8CE020085CF6A
:104A800002008ECF02003CD0020045D00200F2D0DE
:104A90000200FCD00200A9D10200B3D102000ED363
:104AA000020021D30200CED30200D8D3020085D465
:104AB00002008FD40200EAD50200FDD50200AAD67A
:104AC0000200B4D6020061D702006BD70200C5D83D
:104AD0000200D9D8020086D902008FD902003CDA40
:104AE000020046DA0200A1DB0200B4DB020061DC56
:104AF00002006BDC020018DD020022DD02007DDE18
:104B0000020090DE02003DDF020047DF0200F4DF1A
:104B10000200FEDF020059E102006CE1020019E22E
:104B2000020023E20200D0E20200DAE2020034E4F2
:104B3000020047E40200F4E40200FEE40200ABE5F8
:104B40000200B5E5020010E7020023E70200D0E70B
:104B50000200DAE7020087E8020091E80200ECE9CF
:104B60000200FFE90200ACEA0200B6EA020063EBD1
:104B700002006DEB0200C7EC0200DAEC020087EDE8
:104B8000020091ED02003EEE020048EE0200A3EFAB
:104B90000200B6EF020063F002006DF002001AF1AD
:104BA000020024F102007FF2020092F202003FF3C1
:104BB000020049F30200F6F3020000F402005BF584
:104BC00002006EF502001BF6020025F60200D2F686
:104BD0000200DBF6020036F8020049F80200F6F89F
:104BE000020000F90200ADF90200B7F9020012FB61
:104BF000020025FB0200D2FB0200DCFB020089FC64
:104C0000020093FC0200EEFD020001FE0200AEFE77
:104C10000200B8FE020065FF02006FFF02001C00E8
:104C2000030025000300D3000300DC00030089011A
:104C3000030093010300400203004A020300F7024D
:104C4000030001030300570303005D030300B303E4
:104C50000300B803030013050300260503008106C3
:104C6000030094060300EF070300020803005C0939
:104C70000300700903001D0A0300260A0300D30A7B
:104C80000300DD0A03008A0B0300940B0300410CB0
:104C900003004B0C0300F80C0300020D0300AF0DE2
:104CA0000300B90D0300660E0300700E03001D0F14
:104CB0000300270F03008210030095100300F0117A
:104CC0000300031203000B140300271403007E14D7
:104CD000030083140300D9140300DE1403008B15B2
:104CE000030095150300421603004C160300F91645
:104CF000030003170300B0170300BA170300671877
:104D00000300711803001E19030028190300D519A8
:104D10000300DF1903008C1A0300961A0300431BDB
:104D200003004D1B0300FA1B0300041C0300B11C0D
:104D30000300BB1C0300681D0300711D0300CC1E93
:104D40000300DF1E03003A2003004D200300FA2079
:104D5000030004210300B1210300BB2103006822EA
:104D60000300722203001F230300292303007F2373
:104D7000030084230300DA230300E0230300362426
:104D800003003B24030091240300972403004425DF
:104D900003004E250300FB25030005260300B22671
:104DA0000300BC26030069270300722703001F28A5
:104DB000030029280300D6280300E0280300972BCE
:104DC0000300BC2B0300692C0300732C0300202D6F
:104DD00003002A2D0300D72D0300E12D03008E2EA2
:104DE0000300982E0300452F03004F2F0300FC2FD4
:104DF000030006300300B3300300BC30030013315E
:104E00000300183103006E31030073310300CE320A
:104E10000300E13203003C3403004F340300AA35A1
:104E20000300BD350300183703002B370300D837C4
:104E30000300E23703008F38030099380300463936
:104E4000030050390300FD390300073A0300B43A68
:104E50000300BD3A03006A3B0300743B0300213C9E
:104E600003002B3C0300D83C0300E23C03003D3E22
:104E70000300503E0300AB3F0300BE3F0300C741A9
:104E80000300E3410300394203003E420300944221
:104E900003009A4203004743030051430300FE43CB
:104EA000030008440300B5440300BE4403006B45FF
:104EB000030075450300224603002C460300D94633
:104EC0000300E3460300904703009A470300474866
:104ED000030051480300FE48030008490300B54998
:104EE0000300BF4903006C4A0300764A0300234BCA
:104EF00003002D4B0300884C03009B4C0300F54D31
:104F00000300084E0300B54E0300BF4E03006C4F74
:104F10000300764F0300235003002D500300DA50A6
:104F20000300E4500300915103009B5103004852D9
:104F3000030052520300FF52030009530300B6530B
:104F40000300C05303006D5403007754030024553D
:104F500003002E550300DB550300E5550300925670
:104F600003009C560300F6570300095803006058DD
:104F7000030065580300BB580300C05803001759CD
:104F800003001C5903007259030077590300245A87
:104F900003002E5A0300DB5A0300E55A0300925B1C
:104FA00003009C5B0300495C0300535C0300005D4D
:104FB00003000A5D0300B75D0300C15D03006E5E80
:104FC0000300785E0300CE5E0300D35E0300295F1A
:104FD00003002F5F03008A6003009D600300F761F8
:104FE00003000A6203006563030078630300D3646F
:104FF0000300E6640300936503009D6503004A66B1
:10500000030054660300016703000B670300B867E1
:105010000300C26703006F68030079680300266914
:10502000030030690300DD690300E7690300946A47
:1050300003009E6A0300F86B03000B6C0300666DAF
:105040000300796D0300826F03009E6F0300F46F0D
:105050000300F96F030050700300557003000271E4
:1050600003000C710300B9710300C3710300707277
:1050700003007A7203002773030031730300DE73A9
:105080000300E8730300957403009F7403004C75DC
:10509000030055750300027603000C760300B97611
:1050A0000300C3760300707703007A770300277844
:1050B000030031780300DE780300E8780300437AC8
:1050C0000300567A0300B17B0300C47B0300717CAC
:1050D00003007B7C0300287D0300327D0300DF7D1D
:1050E0000300E97D0300967E03009F7E03004C7F52
:1050F0000300567F0300038003000D800300BA8085
:105100000300C4800300718103007B8103002882B7
:10511000030032820300DF820300E98203009683EA
:105120000300A08303004D84030057840300B2856D
:105130000300C58503002087030033870300E08751
:105140000300EA87030097880300A08803004D89C5
:10515000030057890300048A03000E8A0300BB8AF8
:105160000300C58A0300728B03007C8B0300298C2B
:105170000300338C0300898C03008F8C0300E58CC3
:105180000300EA8C0300458E0300588E0300B38FA2
:105190000300C68F030021910300349103008E9217
:1051A0000300A19203004E9303005893030005945B
:1051B00003000F940300BC940300C694030073958E
:1051C00003007D9503002A96030034960300E196C0
:1051D0000300EB96030098970300A29703004F98F3
:1051E000030059980300B4990300C7990300219B59
:1051F0000300359B03003D9D0300599D0300AF9DB7
:105200000300B59D03000B9E0300109E0300BD9E8E
:105210000300C79E0300749F03007E9F03002BA022
:10522000030035A00300E2A00300ECA0030099A155
:105230000300A3A1030050A203005AA2030007A386
:10524000030011A30300BEA30300C8A3030075A4B9
:1052500003007FA403002CA5030036A50300E3A5EB
:105260000300ECA5030099A60300A3A60300FEA774
:10527000030011A803006CA903007FA903002CAA56
:10528000030036AA0300E3AA0300EDAA03009AABC9
:105290000300A4AB030051AC03005BAC030008ADFA
:1052A000030012AD0300BFAD0300C9AD030076AE2D
:1052B000030080AE03002DAF030036AF0300E3AF61
:1052C0000300EDAF03009AB00300A4B0030051B196
:1052D00003005BB1030008B2030012B20300C9B4BB
:1052E00003000000ED01ED01ED01ED01ED01ED0127
:1052F000ED01000087010000490100004B020000A1
:105300000B0200004B020000ED01000087010000CD
:1053100049010000D20100007101000037010000C6
:10532000D2010000ED0100008701000049010000EA
:105330004B0200000B0200004B020000ED010000D8
:105340008701000049010000D20100003701000080
:10535000E900000071010000870100004901000020
:1053600005010000ED010000B8010000ED010000A2
:105370008701000049010000F600000071010000F3
:1053800037010000F60000007101000087010000F5
:105390004901000005010000ED010000B801000016
:1053A000ED0100008701000049010000F600000047
:1053B00071010000ED0100006E020000ED0100002F
:1053C00087010000490100004B0200000B020000B1
:1053D0004B020000ED0100008701000049010000C0
:1053E000D20100007101000037010000D20100006D
:1053F000ED01000087010000490100004B020000A0
:105400000B0200004B020000ED01000087010000CC
:1054100049010000D201000037010000E90000004E
:105420007101000087010000490100000501000032
:10543000ED010000B8010000ED010000870100004F
:1054400049010000F6000000710100003701000072
:10545000F600000071010000870100004901000012
:1054600005010000ED010000B8010000ED010000A1
:105470008701000049010000F600000071010000F2
:10548000ED0100006E02000049010000ED01000086
:10549000930200005D010000ED010000BA0200006F
:1054A00049010000ED010000930200005D010000D1
:1054B000ED010000BA020000710100002A020000A4
:1054C000E3020000870100002A0200000F03000031
:1054D000710100002A020000E302000087010000C1
:1054E0002A0200000F03000049010000ED01000046
:1054F000930200005D010000ED010000BA0200000F
:1055000049010000ED010000930200005D01000070
:10551000ED010000BA020000710100002A02000043
:10552000E3020000870100002A0200000F030000D0
:105530009F0100002A0200003E030000B8010000A5
:105540004B02000070030000D20100007101000056
:10555000370100002A020000ED0100002A020000CD
:10556000D20100007101000037010000B801000005
:105570005D01000025010000B8010000D20100001B
:1055800071010000370100002A020000ED01000057
:105590002A020000D2010000710100003701000062
:1055A000B801000025010000DC0000005D010000E2
:1055B0007101000037010000F6000000D201000078
:1055C0009F010000D20100007101000037010000BE
:1055D000E90000005D01000025010000E900000075
:1055E0005D0100007101000037010000F6000000BD
:1055F000D20100009F010000D201000071010000F3
:1056000037010000E90000005D010000D201000048
:105610004B020000D20100007101000037010000C0
:105620002A020000ED0100002A020000D201000061
:105630007101000037010000B80100005D010000A9
:1056400025010000B8010000D20100007101000036
:10565000370100002A020000ED0100002A020000CC
:10566000D20100007101000037010000B801000004
:10567000250100005D0100007101000037010000FC
:10568000F6000000D20100009F010000D2010000DE
:105690007101000037010000E90000005D01000019
:1056A00025010000E90000005D010000F600710125
:1056B0000000000037010000F6000000D2010000E9
:1056C0009F010000D20100007101000037010000BD
:1056D000E90000005D010000B80100005D014B021F
:1056E00000000000A4030000E30200006E020000BE
:1056F00054040000DB03000054040000A403000075
:10570000E30200006E02000070030000BA02000015
:105710004B02000070030000A4030000E30200003D
:105720006E02000054040000DB030000540400007B
:10573000A4030000E30200006E02000070030000FA
:105740004B020000B8010000BA020000E3020000B2
:105750006E020000ED010000A40300003E03000003
:10576000A4030000E30200006E020000D20100006A
:10577000BA0200004B020000D2010000BA02000091
:10578000E30200006E020000ED010000A40300002F
:105790003E030000A4030000E30200006E020000CC
:1057A000D2010000BA020000A40300009604000029
:1057B00037010000D20100006E0200004901000024
:1057C000D20100009302000037010000D201000066
:1057D0006E02000049010000D201000093020000A7
:1057E0005D0100000B020000BA0200007101000020
:1057F0000B020000E30200005D0100000B0200004C
:10580000BA020000710100000B020000E302000078
:1058100037010000D20100006E02000049010000C3
:10582000D20100009302000037010000D201000005
:105830006E02000049010000D20100009302000046
:105840005D0100000B020000BA02000071010000BF
:105850000B020000E3020000870100000B020000C1
:105860000F0300009F0100002A0200003E03000019
:10587000700300000F03000070030000930200009B
:105880000B020000ED0100000B020000B801000057
:10589000ED0100000B02000016040000DB03000015
:1058A0000F03000070030000DB030000160400007B
:1058B0002605000016040000DB0300000F030000B3
:1058C000ED0100000B0200000F0300007003000058
:1058D000930200000F030000700300000F0300009C
:1058E00070030000DB03000016040000DB0300006F
:1058F00096040000DB03000016040000DB03000038
:10590000700300000F0300000B020000ED01000017
:10591000B8010000ED0100000B020000930200003E
:105920000B020000930200000B0200009302000033
:105930000B020000ED010000B8010000870100002B
:105940004901000087010000B80100007003000059
:105950000F03000070030000930200000B02000020
:10596000ED0100000B020000B8010000ED01000095
:105970000B02000016040000DB0300000F03000010
:1059800070030000DB030000160400002605000081
:1059900016040000DB0300000F030000ED0100000F
:1059A0000B0200000F0300007003000093020000D0
:1059B0000F030000700300000F03000070030000DD
:1059C000DB03000016040000DB0300009604000067
:1059D000DB0300009302160400000000DB0300005C
:1059E000700300000F0300000B020000ED01000037
:1059F000B8010000ED0100000B020000930200005E
:105A00000B02000093020000DB03000016040000FC
:105A1000700300000F030000930200000F0300005A
:105A20007003000070030000930200000B020000EE
:105A3000B8010000A40300003E030000A40300001E
:105A4000BA0200002A0200000B0200002A02000035
:105A5000D20100000B0200002A02000054040000E2
:105A6000160400003E030000A4030000160400001A
:105A700054040000740500005404000016040000E3
:105A80003E0300002A0200003E030000A4030000C1
:105A9000BA0200003E030000A40300003E03000021
:105AA000A4030000160400005404000016040000C3
:105AB000DC0400001604000054040000160400007A
:105AC000A40300003E0300002A0200000B020000B5
:105AD000D20100000B0200002A020000BA020000FE
