:100000000C94F7270C941F280C941F280C941F287D
:100010000C941F280C941F280C941F280C94DD2A84
:100020000C941F280C941F280C941F280C942C2B24
:100030000C941F280C941F280C94872B0C941F28B9
:100040000C94932A0C941F280C94612A0C943B2A3C
:100050000C941F280C941F280C941F280C941F2804
:100060000C941F280C941F2800000000DE090000DB
:10007000DE090000B60B0000B60B0000910D000079
:10008000910D00002E0E00002E0E0000BC1300008B
:10009000BC130000951500009515000070170000B6
:1000A000701700000C1800000C1800009A1D0000CA
:1000B0009A1D0000861E0000861E0000741F0000AE
:1000C000092000004E2100004E210000EA2100001E
:1000D000EA21000079270000512900002C2B0000A4
:1000E000C92B0000A42D0000CE2E0000E02E000041
:1000F0000A3000001B30000046310000573100007C
:100100004332000031330000C53300000A350000DF
:10011000A7350000353B00000E3D0000E93E000021
:10012000853F000014450000FF450000ED4600003B
:1001300082470000C748000064490000F24E0000FA
:10014000DE4F0000CC5000008C520000A552000091
:10015000425300001D55000048560000595600004B
:100160008357000095570000BF580000D05800008A
:10017000BC590000AA5A00003F5B0000845C0000EC
:10018000205D0000AF620000E963000062660000CD
:10019000FF660000C96D0000F36E0000056F0000EF
:1001A0002F700000407000006B7100007C71000037
:1001B000D3730000F47300004A7600006B760000F1
:1001C000A6770000E37800001D7A00005A7B00004B
:1001D000957C0000D27D00000D7F00004A80000069
:1001E00084810000C1820000FC830000398500008A
:1001F00073860000B0870000EB880000288A0000AA
:10020000628B0000A08C0000DA8D0000178F0000C8
:10021000529000008F9100008F910000C992000061
:10022000C992000006940000419500007E960000EF
:100230001A970000BA97000056980000319A000003
:10024000F89A0000049B0000669B0000409C0000A0
:10025000CE9D0000E59D00001F9F00005CA00000F7
:1002600097A10000D4A200000EA400004BA500003E
:1002700086A60000C3A70000FDA800003BAA00005E
:1002800075AB0000B2AC0000EDAD00002AAF00007D
:1002900064B00000A1B10000DCB2000019B400009D
:1002A00053B5000090B60000CBB7000008B90000BD
:1002B00042BA000080BB0000BABC0000F7BD0000DD
:1002C00094BE000033BF0000D0BF0000E6C20000B3
:1002D0003DC500005EC5000049C6000038C70000EB
:1002E000CCC7000011C90000AEC900003CCF00001F
:1002F00015D10000F0D200008CD3000067D50000BB
:1003000092D60000A3D60000CED70000DFD70000B1
:1003100009D900001BD9000006DA0000F4DA000059
:1003200089DB0000CEDC00006ADD0000F9E200009D
:10033000D1E40000ACE6000049E7000024E9000039
:10034000EAE90000F6E9000059EA000060EA00006E
:1003500026EB000032EB000095EB00009BEB000069
:10036000C6EC0000D7EC0000C3ED0000B1EE0000C9
:1003700046EF00008BF0000027F10000B5F600000A
:10038000A1F700008FF8000050FA000069FA0000A1
:1003900005FB0000940001007F0101006E020100D6
:1003A000020301004704010072050100720A010006
:1003B0004B0C0100260E0100C20E01009D10010031
:1003C000C8110100D91101003014010050140100BE
:1003D0008B150100C8160100031801004019010027
:1003E0007A1A0100B71B0100F21C01002F1E010048
:1003F000691F0100A6200100E12101001E23010068
:100400005824010096250100D02601000D28010086
:1004100048290100852A0100BF2B0100FC2C0100A6
:10042000372E0100742F0100AE300100EB310100C6
:1004300026330100633401009D350100DB360100E5
:1004400015380100523901008D3A0100CA3B010004
:10045000043D0100413E01007C3F0100B940010024
:10046000F3410100304301006B440100A845010045
:10047000E3460100204801005A490100974A010063
:10048000D24B01000F4D0100494E0100864F010083
:10049000C1500100FE5101003853010076540100A3
:1004A000B0550100ED5601002858010065590100C2
:1004B0009F5A0100DC5B0100175D0100545E0100E2
:1004C0008E5F01009E6101002D6301004363010006
:1004D000466301006E6401007F640100A9650100AC
:1004E000BB650100E5660100F666010021680100B8
:1004F00032680100B56B0100E66B0100106D010070
:10050000216D0100236D0100246D01004C6E01007E
:100510005D6E0100886F0100996F0100C4700100D9
:10052000D5700100FF71010010720100127201000C
:10053000137201003B7301004C73010077740100DA
:1005400088740100B3750100C4750100C575010010
:10055000EF76010000770100027701002A780100A0
:100560003B7801006679010077790100A27A0100E9
:10057000B37A0100DE7B0100EF7B0100727F010096
:10058000A27F0100CD800100DE800100DF8001003C
:10059000E1800100098201001A8201004483010008
:1005A000568301008084010091840100BC85010014
:1005B000CD850100CE850100D0850100F8860100BF
:1005C0000987010034880100458801009B8A0100E9
:1005D000BC8A0100BE8A0100BF8A0100E78B0100CE
:1005E000F88B0100238D0100348D01005F8E010026
:1005F000708E01009A8F0100AB8F01005A940100A8
:100600009B9401009C9401009D940100C5950100FC
:10061000D695010001970100129701003D98010055
:100620004E980100799901008A990100E09B010030
:10063000019C01002C9D01003D9D0100689E010070
:10064000799E01007A9E01007C9E0100A49F01001A
:10065000B59F0100DFA00100F1A0010047A3010048
:1006600068A3010069A301006BA3010093A401002A
:10067000A4A40100CFA50100E0A5010036A8010057
:1006800057A8010059A801005AA8010082A9010039
:1006900093A90100BEAA0100CFAA0100FAAB010094
:1006A0000BAC0100D1AC0100DDAC0100DDAC010000
:1006B000DDAC010010AD010010AD010010AD010076
:1006C00048AD0100BEAF010015B2010036B2010015
:1006D00038B2010060B3010071B301009CB40100A5
:1006E000ADB4010004B7010025B7010026B7010031
:1006F00027B701004FB8010061B801008BB90100B4
:100700009CB90100C7BA0100D8BA010003BC0100BE
:1007100014BC010015BC010017BC01003FBD010065
:1007200050BD01007ABE01008BBE0100E2C0010095
:1007300003C1010004C1010006C101002EC2010075
:100740003FC201006AC301007BC301007CC30100FA
:100750007DC30100A5C40100B6C40100E1C50100CC
:10076000F2C50100F4C50100F5C501001DC7010077
:100770002EC7010059C801006AC80100C0CA0100A3
:10078000E1CA0100E3CA0100E4CA01000CCC010087
:100790001DCC010048CD010059CD0100B0CF0100B2
:1007A000D1CF0100D2CF0100D3CF0100FBD0010097
:1007B0000CD1010037D2010048D201009FD40100C2
:1007C000C0D40100C1D40100C2D40100EAD50100A7
:1007D000FBD5010026D7010037D7010039D701002A
:1007E0003AD7010062D8010073D801009ED90100F8
:1007F000AFD90100B0D90100B1D90100DADA0100A6
:10080000EBDA010015DC010026DC010051DD0100FE
:1008100062DD01008DDE01009EDE01009FDE010031
:10082000A1DE0100C9DF0100DADF010004E10100FF
:1008300016E101006CE301008DE301008EE301008D
:1008400090E30100B8E40100C9E40100F4E501000F
:1008500005E601002FE7010041E701006BE8010018
:100860007CE801007EE801007FE80100A7E90100C3
:10087000B8E90100E3EA0100F4EA0100F5EA010049
:10088000F7EA01001FEC010030EC01005AED010015
:100890006BED01006DED01006EED010096EE0100C3
:1008A000A7EE0100D2EF0100E3EF01000EF101001D
:1008B0001FF101004AF201005BF201005CF201004D
:1008C0005DF2010085F3010096F30100C1F401001F
:1008D000D2F40100FDF501000EF6010039F7010028
:1008E0004AF701004BF701004CF7010075F80100D1
:1008F00086F80100B0F90100C1F90100ECFA01002D
:10090000FDFA0100FFFA010000FB010054FD0100A7
:1009100075FD01009FFE0100B1FE0100DBFF01003B
:10092000ECFF01001701020028010200290102006A
:1009300014020200020302004F030200DC04020062
:1009400078050200060B0200DF0C0200BA0E02005E
:10095000560F0200E5140200D0150200BE16020078
:10096000531702009818020035190200C31E020036
:100970009B2002007622020013230200EE240200D4
:10098000192602002A2602005527020066270200C7
:1009900090280200A12802008D2902007B2A020073
:1009A000102B0200552C0200F12C020080320200B4
:1009B0005834020033360200D03602005E3C02009A
:1009C000993D0200D63E0200104002004D41020057
:1009D00088420200C5430200FF4402003C46020078
:1009E00077470200B4480200EE4902002C4B020097
:1009F000664C0200A34D0200DE4E02001B500200B6
:100A00005551020092520200CD5302000A550200D5
:100A10004456020081570200BC580200F9590200F6
:100A2000335B0200715C0200AB5D0200E85E020015
:100A30002360020032620200C1630200D763020039
:100A4000DA63020002650200136502003E660200DE
:100A50004F6602007A6702008B670200B5680200E9
:100A6000C66802001D6B02007A6C0200A56D0200D0
:100A7000B66D0200B76D0200B86D0200E06E0200B4
:100A8000F16E02001C7002002D700200587102000D
:100A90006971020094720200A5720200A67202003F
:100AA000A7720200D0730200E17302000B7502000E
:100AB0001C75020047760200587602005A76020042
:100AC000837702009477020097770200BF780200D4
:100AD000D0780200FA7902000C7A0200367B02001C
:100AE000477B0200727C0200837C020006800200C9
:100AF000378002006181020072810200748102006D
:100B0000758102009D820200AE820200D98302003C
:100B1000EA83020015850200268502005086020045
:100B20006186020063860200648602008C870200F0
:100B30009D870200C8880200D9880200308B02001D
:100B4000518B0200528B0200538B02007B8C0200FF
:100B50008C8C0200B78D0200C88D0200F38E02005B
:100B6000048F02002F90020040900200EE940200D9
:100B70002F95020030950200329502005A9602002D
:100B80006B96020095970200A7970200D198020089
:100B9000E2980200A9990200B5990200709C020037
:100BA000969C0200C09D0200D19D0200FC9E0200A6
:100BB0000D9F02000F9F0200109F020038A002004C
:100BC00049A0020074A1020085A10200DCA302007A
:100BD000FCA30200FEA30200FFA3020027A502005F
:100BE00038A5020063A6020074A60200CBA802008A
:100BF000ECA80200EDA80200EEA8020016AA02006E
:100C000027AA020052AB020063AB02008EAC0200C6
:100C10009FAC020066AD020071AD020071AD020032
:100C200071AD0200A5AD0200A5AD0200A5AD0200A8
:100C3000DCAD020052B00200A9B20200CAB202004A
:100C4000CDB20200F5B3020006B4020030B50200D6
:100C500041B502006CB602007DB60200A8B70200E2
:100C6000B9B70200BAB70200BCB70200E4B802008C
:100C7000F5B8020020BA020031BA020087BC0200B7
:100C8000A8BC0200AABC0200ABBC0200D3BD02009B
:100C9000E4BD02000FBF020020BF02004AC00200F4
:100CA0005CC0020086C1020097C1020099C1020027
:100CB0009AC10200C2C20200D3C20200FEC30200F7
:100CC0000FC4020010C4020012C402003AC50200A0
:100CD0004BC5020075C6020087C6020088C6020026
:100CE00089C60200B1C70200C2C70200EDC80200F7
:100CF000FEC8020029CA02003ACA020065CB0200FF
:100D000076CB020077CB020078CB0200A0CC0200A9
:100D1000B1CC0200DCCD0200EDCD020018CF020004
:100D200029CF020054D0020065D0020066D0020034
:100D300067D0020090D10200A1D10200CBD2020004
:100D4000DCD2020007D4020018D402001AD4020038
:100D50001BD402006FD6020090D60200BAD7020060
:100D6000CCD70200CDD70200CED70200F6D80200C1
:100D700007D9020032DA020043DA020044DA020044
:100D800046DA02006EDB02007FDB0200AADC020012
:100D9000BBDC0200E5DD0200F7DD020034DF02000B
:100DA00035DF02004DE002006EE0020099E1020032
:100DB000AAE10200D5E20200E6E2020010E402002D
:100DC00021E4020023E4020024E402004CE50200D6
:100DD0005DE5020088E6020099E60200C4E7020031
:100DE000D5E7020012E9020013E902002CEA020032
:100DF0004CEA020077EB020088EB02008AEB02006B
:100E00008BEB02004FEC02005BEC0200E9ED02000C
:100E100000EE020001EE020002EE02002BEF0200E3
:100E20003CEF020066F0020077F00200A2F102003F
:100E3000B3F10200F0F20200F2F202000AF4020042
:100E40002BF4020055F5020067F5020091F602004E
:100E5000A2F60200CDF70200DEF70200DEF7020084
:100E6000DFF70200E1F7020009F9020009F90200C8
:100E70001AF9020045FA020056FA020080FB02004D
:100E800092FB020093FB020094FB0200E8FD0200CB
:100E900009FE020034FF020045FF0200A8FF020025
:100EA000AEFF020011000300170003007A000300E8
:100EB00081000300AB010300BC010300BE0103007D
:100EC000BF010300E7020300F80203005B03030015
:100ED00062030300C4030300CB0303002D040300DB
:100EE000340403005F05030070050300D30503000D
:100EF000D90503003C06030042060300A5060300D3
:100F0000AC060300D6070300E70703004A08030006
:100F100051080300B3080300BA0803001D090300C9
:100F2000230903004E0A03005F0A03008A0B030033
:100F30009B0B03009C0B03009D0B0300C50C0300DF
:100F4000D70C0300390D0300400D0300A30D03006F
:100F5000A90D03000C0E0300120E03003D0F030049
:100F60004E0F0300B10F0300B70F03001A10030068
:100F700021100300831003008A100300B511030041
:100F8000C6110300281203002F120300921203005F
:100F900098120300FB120300021303002C14030039
:100FA0003D14030068150300791503007A1503004A
:100FB0007C150300A4160300B516030018170300E0
:100FC0001E1703008117030087170300EA170300A9
:100FD000F11703001B1903002C1903008F190300DC
:100FE00096190300F8190300FF190300621A0300A1
:100FF000681A0300931B0300A41B0300071C0300D3
:101000000D1C0300701C0300771C0300D91C030097
:10101000E01C03000B1E03001C1E0300461F030000
:10102000571F0300591F03005A1F030082200300AB
:1010300093200300F6200300FC2003005F2103003F
:1010400066210300C8210300CF2103000B23030006
:101050000B2303006D23030074230300D723030035
:10106000DD23030048240300492403006C2503000A
:1010700082250300AD260300BE260300E9270300F6
:10108000FA27030025290300362903003729030026
:1010900038290300602A0300722A0300D42A0300BF
:1010A000DB2A03003D2B0300442B0300A72B030086
:1010B000AD2B0300D82C0300E92C0300142E0300F1
:1010C000612F0300C32F0300CA2F03002D3003003C
:1010D00033300300963003009C300300C731030017
:1010E000D831030003330300143303001533030026
:1010F000173303003F34030050340300B3340300BC
:10110000B93403001C350300223503008535030084
:101110008C350300B6360300C7360300F2370300F0
:101120003F390300A2390300A83903000B3A03003A
:10113000123A0300743A03007B3A0300A53B030014
:10114000B73B0300E13C0300F23C0300F43C030026
:10115000F53C03001D3E03002E3E0300913E0300BC
:10116000973E0300FA3E0300013F0300633F030084
:101170006A3F030095400300A6400300D0410300EE
:101180001D4303008043030087430300E94303003A
:10119000F043030053440300594403008445030013
:1011A00095450300C0460300D1460300D246030024
:1011B000D3460300FB4703000C4803006F480300BD
:1011C00076480300D8480300DF4803004249030083
:1011D00048490300734A0300844A0300AF4B0300ED
:1011E000C04B0300C14B0300C24B0300EB4C030098
:1011F000FC4C0300264E0300374E0300624F0300F1
:10120000734F03009E500300AF500300B050030023
:10121000B2500300DA510300EB5103004D520300BA
:1012200054520300B7520300BD5203002053030081
:101230002753030051540300625403008D550300EB
:10124000DA5603003D57030043570300A657030037
:10125000AC5703000F580300165803004059030011
:10126000525903007C5A03008D5A03008F5A030021
:10127000905A0300B85B0300C95B03002C5C0300B9
:10128000325C0300955C03009C5C0300FE5C030081
:10129000055D0300305E0300415E03006B5F0300E9
:1012A000B86003001B610300226103008461030036
:1012B0008B610300EE610300F46103001F63030010
:1012C000306303005B6403006C6403006D6403001F
:1012D0006E64030096650300A76503000A660300B9
:1012E00011660300736603007A660300DD6603007F
:1012F000E36603000E6803001F6803004A690300E9
:10130000976A0300F96A0300006B0300636B030034
:10131000696B0300CC6B0300D26B0300FD6C030010
:101320000E6D0300396E03004A6E03004B6E03001E
:101330004D6E0300756F0300866F0300E86F0300B6
:10134000EF6F03005270030058700300BB7003007E
:10135000C2700300EC710300FD71030060720300B2
:1013600067720300C9720300D07203003373030075
:10137000397303006474030075740300D8740300A8
:10138000DE7403004175030047750300AA7503006E
:10139000B1750300137603001A7603007D7603000F
:1013A00083760300E6760300ED7603004F770300B3
:1013B00056770300B8770300BF7703002278030055
:1013C00028780300EF780300FB7803005E790300C0
:1013D000377A0300997A0300A17A0300727B030035
:1013E000D57B0300AE7C0300117D0300EA7D030082
:1013F000797F03008F7F0300E681030007820300EB
:101400000982030031830300428303006D840300DB
:101410007E840300A9850300BA850300BB85030011
:10142000BD85030011880300328803005C89030036
:101430006D890300988A0300A98A0300D48B0300F6
:10144000E58B0300E68B0300E88B0300108D03009F
:10145000218D03004B8E03005D8E0300878F0300F8
:10146000988F03009A8F03009B8F0300EF91030076
:10147000109203003B9303004C9303004D93030031
:101480004E9303007694030087940300B295030003
:10149000C3950300C5950300C6950300EE960300AF
:1014A000FF9603002A9803003B9803006699030007
:1014B000779903007899030079990300CD9B030085
:1014C000EE9B0300199D03002A9D0300559E030017
:1014D000669E0300909F0300A29F0300A39F03004A
:1014E000A49F0300CCA00300DDA0030008A203001A
:1014F00019A2030044A3030055A3030056A303004D
:1015000058A30300ACA50300CDA50300F7A6030074
:1015100008A703000AA703000BA7030033A80300D2
:1015200044A803006FA9030080A9030081A9030058
:1015300083A90300ABAA0300BCAA0300E6AB030027
:10154000F7AB030022AD030033AD030035AD03005C
:1015500036AD03008AAF0300ABAF0300D6B0030083
:10156000E7B0030011B2030022B203004DB3030041
:101570005EB3030060B3030061B3030089B40300EA
:101580009AB40300C5B50300D6B5030000B7030045
:1015900012B7030013B7030014B7030068B90300C0
:1015A00089B90300B4BA0300C5BA03008CBB0300B9
:1015B00097BB030026BD03003DBD03003EBD0300F5
:1015C0003FBD030067BE030078BE0300A3BF030056
:1015D000B4BF0300DFC00300F0C00300F1C003008C
:1015E000F3C0030047C3030067C3030092C40300B2
:1015F000A3C40300CEC50300DFC503000AC7030070
:101600001BC703001CC703001DC7030046C8030017
:1016100057C8030081C9030092C90300BDCA030073
:10162000CECA0300D0CA0300D1CA030025CD0300EF
:1016300046CD030070CE030082CE0300ACCF030082
:10164000BDCF0300E8D00300F9D00300FAD00300B7
:10165000FCD0030024D2030035D2030060D3030082
:1016600071D30300ADD40300ADD40300D7D503007C
:10167000E8D50300EAD50300EBD5030013D7030038
:1016800024D703004FD8030060D803008BD9030090
:101690009CD90300C6DA0300D7DA0300D9DA0300C5
:1016A000DADA030002DC030013DC03003EDD030092
:1016B0004FDD03007ADE03008BDE0300C7DF03008B
:1016C000C7DF0300C8DF0300C9DF0300F1E0030048
:1016D00002E103003EE203003EE2030040E20300B9
:1016E00041E2030069E303007AE30300A5E4030099
:1016F000B6E40300B7E40300B8E40300E1E5030047
:10170000F2E503001CE703002DE7030058E803009F
:1017100069E803006BE803006CE8030094E9030048
:10172000A5E90300D0EA0300E1EA03000BEC0300A3
:101730001DEC030047ED030058ED030083EE0300AA
:1017400094EE030095EE030097EE0300BFEF030055
:10175000D0EF0300FBF003000CF1030036F20300AE
:1017600048F2030049F203004AF203009EF403002A
:10177000BFF40300EAF50300FBF50300FCF50300EA
:10178000FEF5030026F7030037F7030061F80300B6
:1017900072F8030074F8030075F803009DF9030064
:1017A000AEF90300D9FA0300EAFA030026FC0300AD
:1017B00026FC030051FD030062FD030063FD0300EE
:1017C00064FD03008CFE03009DFE0300C8FF0300C0
:1017D000D9FF0300040104001501040040020400C5
:1017E0005102040052020400530204007B0304006F
:1017F0008D030400B7040400C8040400F3050400CA
:1018000004060400400704004007040041070400E8
:10181000430704006B0804007C080400B8090400B6
:10182000B8090400B9090400BA090400E20A040076
:10183000F30A04001E0C04002F0C0400300C0400FA
:10184000320C04005A0D04006B0D0400960E0400C7
:10185000A70E0400D10F0400E20F0400E40F0400FF
:10186000E50F04000D1104001E11040049120400CC
:101870005A1204008513040096130400C1140400D6
:10188000D2140400FC1504000D1604000F16040009
:1018900010160400381704004917040074180400D7
:1018A00085180400B0190400FE1A0400381C040056
:1018B000631D0400741D04009F1E0400B01E04007C
:1018C000DB1F0400EC1F0400C42104009F2304005C
:1018D0003C240400CA290400A22B04007D2D04002E
:1018E0001A2E0400A8330400813504005C3704007C
:1018F000F8370400873D0400C13E04003A4104006B
:10190000D74104000000CF00490100000000DC00C6
:10191000710100000000F600370100000000150111
:10192000490100000000CF0049010000000049010A
:101930000000DC00710100000000370100004901D7
:101940000000F6000000490100007101000049019B
:101950000000F6000000710100003701000049019D
:1019600000004901000049010000710100007101FF
:1019700000003701000049010000F60000004901A5
:101980000000710100009F010000F6000000490105
:101990000000370100004901000049010000370143
:1019A000000015010000F60000007B00000052005E
:1019B0000000F60000005C000000DC000000670092
:1019C0000000F60000006E0000001501000052004B
:1019D0000000F60000005C000000B800DC00000021
:1019E00000007B0000003701000049010000A40056
:1019F0000000CF0000007B00000052000000F60055
:101A000000005C000000DC00000067000000F60041
:101A100000006E0000001501000052000000F600FA
:101A200000005C000000DC000000B800000037018E
:101A3000000049010000490100009F010000490128
:101A40000000710100003701000049010000F600AC
:101A5000000049010000710100009F0100004901E0
:101A600000007101000037010000490100007D06FF
:101A70000000E00600007D060000C7050000260506
:101A800000009F01000049010000710100003701C2
:101A9000000037010000490100009F0100004901DA
:101AA00000007101000037010000490100007101D0
:101AB00000004901000052000000F60000005C0038
:101AC0000000DC00000067000000F60000006E006F
:101AD00000001501000052000000F60000005C004C
:101AE0000000DC0000007B000000490100008A00CB
:101AF00000004901000052000000F60000005C00F8
:101B00000000DC00000067000000F60000006E002E
:101B100000001501000052000000F60000005C000B
:101B20000000DC0000007B000000490100001501FE
:101B30000000670000005200520000007B0000001F
:101B4000A4000000B8000000CF0000007B000000EF
:101B50004D004D004D0000007B0000009B00000088
:101B6000B800000052005200520000007B0000004C
:101B7000A40000004D004D0000004500450000009D
:101B8000670000008A0000009B000000A400000025
:101B9000670000003D003D003D0000005C000000CB
:101BA0007B0000009B000000520052005200000029
:101BB000A4000000670000006E006E006E000000D0
:101BC000A4000000DC000000F60000001501000089
:101BD0006700670067000000A4000000CF0000005D
:101BE000F600000049010000A400000067000000AA
:101BF0005C005C005C0000008A000000B80000008F
:101C000067006700670000009B000000CF00000035
:101C10007B007B007B0000009B000000B800000000
:101C2000DC0000007B00B800F600000000000000AF
:101C300000007B0000008A008A000000CF00000046
:101C4000490100006E006E006E000000A40000005C
:101C500015010000A40000007B007B007B00000059
:101C6000B800000037010000A400A400A400000098
:101C7000F60000009B009B009B000000F6000000A7
:101C80008A008A008A000000CF000000490100009D
:101C90006E006E006E000000A40000001501000040
:101CA0007B007B007B000000B800000037010000D3
:101CB000A400A400A4000000F60000009B009B000C
:101CC0009B000000F60000008A008A008A000000E5
:101CD000CF00000049010000CF0000006E006E0040
:101CE0006E000000A4000000150100007B007B00D6
:101CF0007B000000B800000037010000B8000000C1
:101D0000A400A400A4000000F60000009B009B00BB
:101D10009B000000F60000008A008A008A00000094
:101D2000CF00000049010000CF0000006E006E00EF
:101D30006E000000A4000000150100006E0000000D
:101D40007B007B007B000000B80000003701000032
:101D5000A400A400A4000000A4000000F6000000FD
:101D600037010000490149010000490100007101EB
:101D70000000F600000015010000490100004901C3
:101D80000000710100003701000049010000F60069
:101D900000004901000071010000490100004901F3
:101DA0000000710100003701000049010000A4009B
:101DB0000000F6000000B8000000DC000000CF00CA
:101DC0000000F6000000DC00000015010000A40087
:101DD0000000F6000000B8000000DC000000F60083
:101DE00000004901000015010000670000005200DA
:101DF000520000007B000000A4000000B8000000BA
:101E0000CF0000007B0000004D004D004D000000A1
:101E10007B0000009B000000B80000005200520050
:101E2000520000007B000000A40000004D004D00A7
:101E30000000450045000000670000008A00000027
:101E40009B000000A4000000670000003D003D0072
:101E50003D0000005C0000007B0000009B000000D3
:101E60005200520052000000A40000006700000071
:101E70006E006E006E000000A4000000DC00000098
:101E8000F600000015010000670067006700000011
:101E9000A4000000CF000000F6000000490100008F
:101EA000A4000000670000005C005C005C00000013
:101EB0008A000000B80000006700670067000000AB
:101EC0009B000000CF0000007B007B007B00000037
:101ED0009B000000B8000000DC0000007B00B800A0
:101EE000F60000000000000000007B0000008A00F7
:101EF0008A000000CF00000049010000CF00000070
:101F00006E006E006E000000A400000015010000CD
:101F10007B007B007B000000B80000003701000060
:101F2000B80000005200520052000000CF00000034
:101F30004D004D004D000000B80000008A008A00EE
:101F40008A000000CF00000049010000CF0000001F
:101F50006E006E006E000000A4000000150100007D
:101F60006E0000007B007B007B000000B8000000DA
:101F700037010000A400A400A4000000CF0000006E
:101F80004D004D004D000000B80000008A008A009E
:101F90008A000000CF000000490100006E006E00C2
:101FA0006E000000A40000001501000037000000D2
:101FB0007B007B007B000000B800000037010000C0
:101FC000520052005200000049010000490149013D
:101FD00049010000490100008A008A008A000000CF
:101FE000CF000000490100006E006E006E0000008E
:101FF000A400000015010000370000003D007B0038
:102000007B007B0000000000B800000037010000EA
:10201000A400A400A400000052000000B8000000CA
:10202000F600000015010000370100006E006E0090
:102030006E000000DC000000F6000000150100004A
:1020400049010000DC000000F6000000150100005E
:1020500049010000DC000000F6000000150100004E
:1020600049010000DC000000670067006700000015
:10207000CF000000F6000000370100004901000019
:10208000CF000000F6000000370100004901000009
:10209000CF000000F60000003701000049010000F9
:1020A000A40000005C005C005C000000B8000000C0
:1020B000DC0000001501000049010000B80000002C
:1020C000DC0000001501000037010000B80000002E
:1020D000DC0000001501000049010000B80000000C
:1020E0008A008A008A000000CF000000150100006D
:1020F0003701000049010000CF0000001501000079
:102100003701370137010000B80000001501000059
:102110008A0000003700370037000000DC000000B4
:10212000F60000001501000049010000DC0000007D
:10213000DC000000F600000015010000490100006D
:10214000DC0000003300330033000000CF0000004B
:10215000F60000003701000049010000CF00000038
:10216000CF000000F6000000370100004901000028
:10217000A40000003D003D003D000000B80000004C
:10218000F60000003701000049010000B80000001F
:10219000B8000000F600000037010000490100000F
:1021A000B80000004500450045000000CF000000D9
:1021B000150100003701000049010000CF000000B8
:1021C0003701370137010000B80000001501000099
:1021D0008A0000003700370037000000DC000000F4
:1021E000F60000001501000049010000DC000000BD
:1021F000DC000000F60000001501000049010000AD
:10220000DC0000003300330033000000CF0000008A
:10221000F60000003701000049010000CF00000077
:10222000CF000000F6000000370100004901000067
:10223000A40000005C005C005C000000B80000002E
:10224000DC0000001501000049010000B80000009A
:10225000B8000000DC00000015010000490100008A
:10226000B800000033003300330000004D000000D0
:1022700067000000820000009B0000008200000058
:102280009B000000CF00000005010000CF0000000F
:102290009B000000820000009B0000008200000004
:1022A0006700000082000000670000004D00000091
:1022B0006700000067000000670000000000670082
:1022C000000067000000CF000000670000008A00E7
:1022D0008A000000CF0000004901000037003700ED
:1022E00037000000A400000015010000A400000059
:1022F0007B007B007B000000B8000000370100007D
:102300005200520052000000F60000004D004D0047
:102310004D000000F60000008A008A008A000000DC
:10232000CF000000490100006E006E006E0000004A
:10233000A4000000150100006E0000007B007B007F
:102340007B000000B800000037010000A400A400DA
:10235000A4000000490100009B009B009B000000BE
:10236000370100008A008A008A000000CF000000C8
:10237000490100006E006E006E000000A400000025
:1023800015010000370000007B007B007B0000008F
:10239000B800000037010000520052005200000057
:1023A0004901000049010000490100008A008A003B
:1023B0008A000000CF000000490100006E006E009E
:1023C0006E0000006E000000A4000000DC000000B1
:1023D0007B007B007B000000B8000000370100009C
:1023E000A400A400A4000000520000007B00000034
:1023F0009B00000045004500450000008A000000E9
:10240000150100008A000000370037003700000087
:102410006E000000DC0000006E0000003D003D008A
:102420003D0000007B000000B8000000F600000046
:10243000A400A400A4000000CF0000004D004D0047
:102440004D0000009B0000004500450045000000D5
:102450008A000000CF0000008A008A008A00000085
:10246000370000006E000000DC0000006E0000007D
:102470003D003D003D0000007B000000F600000034
:1024800052005200520000007B0000004D004D0041
:102490004D0000009B000000450045004500000085
:1024A0008A000000150100008A0000003700370094
:1024B000370000006E000000DC0000006E0000002D
:1024C0003D003D003D0000007B000000B800000022
:1024D000F6000000A400A400A4000000CF0000004B
:1024E0004D004D004D0000009B00000045004500E0
:1024F000450000008A000000CF0000008A008A002A
:102500008A000000370000006E000000DC000000C0
:102510006E0000007B007B007B000000B800000024
:10252000370100000000F60000001501000037012F
:10253000000049010000710100003701000049015D
:10254000000049010000710100006E0200009302CA
:10255000000000000000000000000000000000007B
:102560000000000000000000000040090000D50944
:102570000000DE090000C90A0000B80B0000160DBB
:102580000000910D00002E0E0000BC130000A814E6
:10259000000096150000F4160000701700000C18DB
:1025A0000000231B00007A1D00009A1D0000861EFB
:1025B0000000741F000009200000122000003D21CF
:1025C00000004E210000792200008A220000F02243
:1025D0000000C52300002C24000001250000682510
:1025E0000000DB26000070270000792700000D287E
:1025F000000017280000AB280000B528000049297A
:10260000000052290000E7290000F02900008D2A6F
:1026100000002C2B0000C92B0000682C0000A22D0C
:102620000000E02E00000A3000001B3000004631A0
:102630000000573100004332000031330000C53341
:102640000000CF330000F93400000A350000713576
:10265000000046360000AD36000082370000E93742
:102660000000BE3800007F3A0000983A00002C3B82
:102670000000353B00009C3B0000713C0000D83C52
:102680000000AD3D0000143E0000E93E0000853F23
:1026900000009C420000F344000014450000FF4588
:1026A0000000ED460000824700008B470000B6485E
:1026B0000000C7480000F2490000034A00006A4ACF
:1026C00000003F4B0000A54B00007A4C0000E14C9D
:1026D0000000544E0000E94E0000F24E0000874F0B
:1026E0000000904F0000255000002E500000C35005
:1026F0000000CC500000605100006A510000D05131
:102700000000A55200000C530000E1530000B0543B
:10271000000059560000AF580000D0580000D058B3
:102720000000D2580000BC590000AA5A00003F5BCC
:102730000000485B0000735C0000845C0000AE5D3C
:102740000000C05D0000EA5E0000FB5E0000625F0A
:102750000000376000009E60000073610000DA61D5
:102760000000AF6200006F640000886400004966EA
:102770000000626600008D670000DA680000046AED
:102780000000156A0000406B0000516B0000186CDF
:102790000000246C000036710000F47300003674F1
:1027A0000000367400007774000077740000BA747B
:1027B0000000BA74000069760000E37800003A7BFC
:1027C00000005A7B0000857C0000967C0000C17DE3
:1027D00000000E7F0000398000004A8000007481F4
:1027E000000085810000B0820000C1820000EC83FF
:1027F0000000FD830000F08500000B8600006E865F
:10280000000075860000F7890000648B00008E8C44
:102810000000A08C0000F68E0000178F0000429090
:102820000000539000007E910000CB920000919335
:1028300000009D9300000094000006940000319574
:102840000000429500006D9600007E960000A9975A
:102850000000BA970000E49800006D9B0000C49D42
:1028600000005CA00000B3A20000D4A20000FEA300
:10287000000010A400003AA5000087A60000B2A73F
:102880000000C3A70000EEA80000FFA8000029AACE
:1028900000003BAA000065AB000076AB000069AD0C
:1028A000000085AD0000E7AD0000EEAD000019AFFF
:1028B0000000DDB2000008B4000019B4000070B6DA
:1028C000000090B60000BBB70000CCB70000F7B81E
:1028D000000044BA00000ABB000016BB000079BB30
:1028E000000080BB0000AABC0000BBBC0000E6BD2D
:1028F0000000F7BD000022BF000033BF00005EC033
:102900000000E6C200003DC500005EC5000049C6EB
:10291000000038C70000CCC70000D5C7000000C9C0
:10292000000011C900003CCA00004DCA0000B4CA32
:10293000000089CB0000EFCB0000C5CC00005FCDCC
:1029400000009ECE000033CF00003CCF000003D03B
:1029500000000FD0000071D0000078D000003FD1FF
:1029600000004BD10000ADD10000B4D1000050D226
:102970000000F0D20000B6D30000C2D300007DD624
:102980000000A3D60000CED70000DFD7000009D991
:1029900000001BD9000006DA0000F4DA000089DB31
:1029A000000092DB0000BDDC0000CEDC000035DD65
:1029B00000000ADE000070DE000045DF0000ACDF32
:1029C000000081E00000ACE10000BDE1000084E215
:1029D000000090E20000F2E20000F9E200005FE394
:1029E000000035E40000FBE4000007E5000032E6EB
:1029F000000043E60000A6E60000ACE6000049E760
:102A0000000060EA0000B6EC0000D7EC0000C3ED67
:102A10000000B1EE000046EF00004FEF000015F09F
:102A2000000021F0000084F000008BF0000051F164
:102A300000005DF10000C0F10000C6F100008DF261
:102A4000000099F20000C4F30000D5F30000FFF489
:102A5000000010F500009FF60000B5F600007CF7BE
:102A6000000088F70000EBF70000F1F70000B8F86D
:102A70000000C4F8000027F900002DF90000F4F967
:102A8000000000FA0000C6FA0000D2FA000099FB2C
:102A90000000A5FB000073FC00001CFE000073009A
:102AA00001009400010094000100950001007F01E5
:102AB00001006E020100020301000B030100360455
:102AC00001004704010047040100490401007205A8
:102AD000010083050100AE060100BF0601002507C5
:102AE0000100FB0701006108010036090100FD0932
:102AF0000100090A01006C0A0100720A01009D0B25
:102B00000100AE0B0100D90C0100EA0C0100140E0B
:102B10000100260E0100500F01009D100100C81198
:102B20000100D911010004130100E71301004A1448
:102B3000010050140100171501002315010086152E
:102B400001008C150100531601005F160100C1162B
:102B50000100C81601008F1701009B170100C5185E
:102B60000100D6180100011A0100121A01003D1BD4
:102B700001004E1B0100B11B01008A1C0100EC1C6E
:102B80000100C61D0100281E01002F1E0100F51EB8
:102B90000100011F0100641F01006B1F01003120B3
:102BA00001003D200100A0200100A62001006D21B0
:102BB000010079210100A4220100B52201001723A0
:102BC00001001E230100E5230100F023010053242E
:102BD00001005A240100202501002C2501008F2529
:102BE0000100962501005C26010068260100682688
:102BF0000100CB260100CB2601000D280100CE29C3
:102C00000100E72901007B2A0100852A0100AF2B82
:102C10000100C02B0100EB2C0100FC2C0100272E31
:102C20000100382E0100632F0100742F01009F3036
:102C30000100B0300100DA310100EB310100423413
:102C40000100633401008E3501009F350100C93653
:102C50000100DB36010031390100523901007D3AB3
:102C600001008E3A0100B93B0100063D0100CC3D58
:102C70000100D83D01003B3E0100413E0100083FFC
:102C80000100143F01003F40010050400100B240EC
:102C90000100B9400100E4410100F54101001F437A
:102CA0000100304301005B4401003F450100A145A4
:102CB0000100A84501006F4601007B460100DD468A
:102CC0000100E4460100AB470100B6470100194886
:102CD000010020480100E6480100F2480100554982
:102CE00001005B490100224A01002E4A0100914A7D
:102CF0000100974A01005E4B01006A4B0100CC4B7A
:102D00000100D34B0100FE4C01000F4D0100D54DD9
:102D10000100E14D0100444E01004B4E0100754F92
:102D20000100C25001008951010095510100F75185
:102D30000100FE510100295301003A53010064547F
:102D4000010076540100A0550100B1550100DC5688
:102D50000100ED560100185801002958010054598E
:102D60000100655901002B5A0100375A01009A5A97
:102D70000100A05A0100F75C0100185D01009B6092
:102D80000100CB60010022630100436301006E6417
:102D900001007F640100A9650100BB6501001168A5
:102DA0000100326801005D6901006E690100996AE5
:102DB0000100AA6A01009C6C0100B86C01001B6D47
:102DC0000100216D01004C6E01005D6E0100B470C8
:102DD0000100D5700100FF710100107201003B730A
:102DE00001004C7301007774010088740100DF76E4
:102DF0000100007701002A7801003B780100667924
:102E0000010077790100CE7B0100EF7B01001A7D84
:102E100001002B7D0100557E0100667E0100917F3F
:102E20000100A27F0100CD800100DE800100098247
:102E300001001A820100448301005683010080844E
:102E4000010091840100BC850100CD85010024882A
:102E50000100458801006F89010081890100AB8A6A
:102E60000100BC8A0100E78B0100F88B0100238D73
:102E70000100348D01005F8E0100708E01009A8F79
:102E80000100AB8F0100D6900100BA9101001C92A5
:102E90000100239201004E9301005F9301008A9488
:102EA00001009B940100C5950100D6950100019792
:102EB0000100129701003D9801004E980100799998
:102EC00001008A990100E09B0100109E0100729EA2
:102ED0000100799E0100A49F0100B59F0100DFA0C1
:102EE0000100F1A001001BA20100FFA2010062A3EA
:102EF000010068A3010093A40100A4A40100CFA5D0
:102F00000100E0A501000AA701001BA7010046A8D7
:102F1000010057A8010082A9010093A90100BEAADF
:102F20000100CFAA0100FAAB01000BAC0100D1AC4B
:102F30000100DDAC010010AD0100BEAF0100E9B041
:102F40000100FAB0010024B2010036B20100FCB267
:102F5000010008B301006BB3010071B3010038B484
:102F6000010044B40100A7B40100ADB4010074B580
:102F7000010080B50100E2B50100E9B50100B0B67D
:102F80000100BBB601001EB7010025B701004FB814
:102F9000010061B801008BB901006FBA0100D2BA1B
:102FA0000100ABBB01000DBC010014BC0100DBBC87
:102FB0000100E6BC010049BD010050BD010016BE84
:102FC000010022BE010085BE01008BBE010052BF80
:102FD00001005EBF0100C1BF0100C7BF01008EC07C
:102FE00001009AC00100FCC0010003C101002EC213
:102FF00001003FC201006AC301004DC40100B0C41A
:10300000010089C50100ECC50100F2C50100B9C687
:103010000100C5C6010027C701002EC70100F5C782
:10302000010001C8010063C801006AC8010030C97D
:1030300001003CC901009FC90100A6C901006CCA7A
:10304000010078CA0100DBCA0100E1CA0100A8CB77
:103050000100B4CB0100DFCC0100F0CC010052CD67
:1030600001002BCE01008ECE010067CF0100CACF38
:103070000100D1CF0100FBD001000CD1010037D2FB
:10308000010048D2010073D3010084D30100AFD402
:103090000100CED6010031D7010037D70100FED79D
:1030A00001000AD8010034D9010046D90100A8D98D
:1030B0000100AFD9010076DA010081DA0100E4DA1B
:1030C0000100EBDA0100B1DB0100BDDB010020DC17
:1030D000010026DC0100EDDC0100F9DC01005CDD13
:1030E000010062DD010029DE010035DE010097DE0E
:1030F00001009EDE010065DF010071DF01009BE041
:103100000100ACE001000FE10100E8E101004BE249
:10311000010024E3010087E301008DE3010054E492
:10312000010060E40100C2E40100C9E4010090E58F
:1031300001009BE50100FEE5010005E60100CBE68C
:103140000100D7E601003AE7010041E7010007E886
:10315000010013E8010076E801007CE8010043E982
:1031600001004FE901007AEA01008BEA0100EDEA73
:103170000100C6EB010029EC010030EC0100F6EC87
:10318000010002ED010065ED01006BED010032EE82
:1031900001003EEE0100A1EE0100A7EE01006EEF7E
:1031A00001007AEF0100DDEF0100E3EF0100AAF07A
:1031B0000100B6F0010018F101001FF10100E6F175
:1031C0000100F1F1010054F201005BF2010021F372
:1031D00001002DF3010090F3010096F301005DF46E
:1031E000010069F40100CCF40100A5F5010007F627
:1031F0000100E1F6010043F701004AF7010075F80C
:10320000010086F80100B0F90100C1F90100ECFAF3
:103210000100FDFA010080FE0100B1FE010007017E
:1032200002002801020001030200DC04020078050C
:103230000200060B0200F20B0200E00C02003E0E40
:103240000200BA0E0200560F0200A9130200D414A5
:103250000200E5140200D7160200F316020056170A
:1032600002005C170200231802002F1802009218B7
:103270000200981802005F1902006B190200CD19B4
:103280000200D41902009B1A0200A61A0200091BB0
:103290000200101B0200D61B0200E21B0200451CAC
:1032A00002004C1C0200121D02001E1D02001E1D09
:1032B0000200811D0200811D0200C31E0200EE1FDC
:1032C0000200FF1F02002A2102003B2102006522AA
:1032D000020076220200A1230200B2230200792418
:1032E000020085240200E7240200EE240200B52536
:1032F0000200C1250200232602002A260200F12630
:103300000200FC260200FC2602005F2702005F2765
:103310000200A1280200622A02007B2A0200102B70
:103320000200192B0200442C0200552C02007F2DB4
:103330000200912D0200BB2E0200CC2E0200F72FBE
:1033400002000830020033310200443102006F32C3
:10335000020080320200D6340200F7340200223626
:103360000200333602005E3702006F370200C639B2
:103370000200E6390200113B0200223B02004D3CF4
:1033800002009A3D0200613E02006C3E0200CF3E08
:103390000200D63E02009C3F0200A83F0200D3403C
:1033A0000200E4400200474102004D410200144285
:1033B0000200204202008242020089420200504381
:1033C00002005C4302008644020097440200264645
:1033D00002003C46020067470200784702003F486F
:1033E00002004B480200AD480200B4480200DF4929
:1033F0000200F04902001A4B02002C4B0200F24B73
:103400000200FE4B0200614C0200674C02002E4D90
:1034100002003A4D02009D4D0200A34D02006A4E8B
:103420000200764E020004500200565102001D5266
:103430000200295202008C52020092520200BD5337
:103440000200CE530200F95402000A55020035561C
:103450000200465602007057020081570200AC5825
:103460000200BD5802008459020090590200F2592E
:103470000200F9590200245B0200355B0200FB5B8D
:103480000200075C02006A5C0200435D0200A65D68
:103490000200AC5D02002F61020060610200B663B1
:1034A0000200D763020002650200136502003E6657
:1034B00002004F660200A6680200C6680200F169B9
:1034C0000200026A02002D6B02003E6B0200316DA9
:1034D00002004C6D0200AF6D0200B66D0200E06E9E
:1034E0000200F16E02001C7002002D700200587183
:1034F000020069710200307202003C7202009E728A
:103500000200A5720200D0730200E17302000B7585
:1035100002001C7502007377020094770200BF78E6
:103520000200D0780200FA7902000C7A0200627C74
:103530000200837C0200AE7D0200BF7D0200EA7EB5
:103540000200FB7E02002580020037800200FD8021
:103550000200098102006C810200728102009D82DA
:103560000200AE820200D9830200EA8302001585C0
:103570000200268502005086020061860200B8889B
:103580000200D9880200048A0200158A0200408BDA
:103590000200518B02007B8C02008C8C0200B78DE4
:1035A0000200C88D0200F38E0200048F02002F90EB
:1035B0000200409002006A910200B7920200E2937A
:1035C0000200F39302001E9502002F9502005A9606
:1035D00002006B960200319702003D970200A0970F
:1035E0000200A7970200D1980200E2980200A99970
:1035F0000200B5990200709C0200A49E0200079F81
:1036000002000D9F020038A0020049A0020074A130
:10361000020085A10200B0A2020093A30200F6A35B
:103620000200FCA3020027A5020038A5020063A641
:10363000020074A602009FA70200B0A70200DAA849
:103640000200ECA8020016AA020027AA020052AB50
:10365000020063AB02008EAC02009FAC020066ADBC
:10366000020071AD0200A5AD020052B002007DB1B2
:1036700002008EB10200B9B20200CAB2020091B3D8
:1036800002009CB30200C7B40200D8B402003BB5EC
:10369000020041B5020008B6020014B6020077B677
:1036A00002007DB6020044B7020050B70200B2B774
:1036B0000200B9B70200E4B80200F5B8020020BA6F
:1036C000020003BB020066BB02006CBB020033BCFD
:1036D00002003FBC0200A2BC0200A8BC02006FBDF9
:1036E00002007BBD0200DDBD0200E4BD0200ABBEF6
:1036F0000200B7BE020019BF020020BF0200E6BFF1
:103700000200F2BF020055C002005CC0020022C1EC
:1037100002002EC1020091C1020097C10200C2C284
:103720000200D3C20200FEC30200E1C4020044C58D
:1037300002004BC5020011C602001DC6020080C671
:10374000020087C602004DC7020059C70200BCC76D
:103750000200C2C7020089C8020095C80200F8C86A
:103760000200FEC80200C5C90200D1C9020033CA66
:1037700002003ACA020001CB02000CCB02006FCB60
:10378000020076CB02003CCC020048CC020073CD94
:10379000020084CD0200E7CD0200C0CE020022CF9D
:1037A0000200FCCF02005ED0020065D0020090D182
:1037B0000200A1D10200CBD20200DCD2020007D469
:1037C000020018D4020043D5020062D70200C5D718
:1037D0000200CCD7020092D802009ED80200C9D9BC
:1037E0000200DAD902003DDA020043DA02000ADB05
:1037F000020016DB020078DB02007FDB020046DC01
:10380000020051DC0200B4DC0200BBDC020081DDFE
:1038100002008DDD0200F0DD0200F7DD0200BDDEFA
:103820000200C9DE02002CDF020032DF0200F9DFF5
:10383000020005E0020030E1020041E10200A3E1E4
:1038400002007CE20200DFE20200B8E302001BE4B7
:10385000020021E40200E8E40200F4E4020057E57B
:1038600002005DE5020024E6020030E6020093E675
:10387000020099E6020060E702006CE70200CEE772
:103880000200D5E702009CE80200A7E802000AE96E
:10389000020011E90200D7E90200E3E902000EEBA1
:1038A00002001FEB020082EB02005BEC0200BDECA9
:1038B0000200C4EC02008BED020097ED0200F9ED6E
:1038C000020000EE0200C7EE0200D2EE020035EF69
:1038D00002003CEF020002F002000EF0020071F064
:1038E000020077F002003EF102004AF10200ADF161
:1038F0000200B3F102007AF2020086F20200E8F25E
:103900000200EFF20200B6F30200C2F3020024F458
:1039100002002BF40200F1F40200FDF4020060F555
:10392000020039F602009CF6020075F70200D8F793
:103930000200DEF7020009F902001AF9020045FA56
:10394000020056FA020080FB020092FB0200BCFC5F
:10395000020045FF02009C010300BC010300340487
:10396000030034040300420603004206030042063B
:103970000300A5060300A50603007E0703007E07DB
:103980000300E1070300E1070300230903005F0AC6
:1039900003005F0A0300260B0300320B0300940BA5
:1039A00003009B0B0300120E0300120E03002110F4
:1039B0000300211003005C1103005C1103000213DB
:1039C0000300021303003D1403003D1403006815B7
:1039D000030079150300B5160300B5160300E017C0
:1039E0000300F11703001B1903002C190300571AD9
:1039F0000300681A0300A41B0300A41B0300CF1CD0
:103A00000300E01C03000B1E03001C1E0300461FE6
:103A10000300571F030006240300472403008225E8
:103A20000300822503004926030055260300B8261B
:103A30000300BE2603008527030091270300F32718
:103A40000300FA2703002529030036290300602A12
:103A50000300442B0300A72B0300AD2B0300D82C3D
:103A60000300E92C0300142E0300252E0300502F21
:103A70000300612F03008B3003009C300300C7312B
:103A80000300D831030003330300143303003F3431
:103A90000300503403007B3503008C350300B63639
:103AA0000300C7360300F23703007B3A0300D13C22
:103AB0000300F23C03001D3E0300013F0300633F8F
:103AC00003006A3F030095400300A6400300D04175
:103AD0000300E24103000C4303001D43030048447C
:103AE0000300594403008445030095450300C04684
:103AF0000300D1460300FB4703000C48030037498D
:103B0000030048490300734A0300844A0300074E38
:103B10000300374E03008E500300AF500300DA510C
:103B20000300BD52030020530300275303005154E8
:103B30000300625403008D5503009E550300C956CF
:103B40000300DA56030005580300165803004059D5
:103B50000300525903007C5A03008D5A0300B85BDE
:103B60000300C95B0300F45C0300055D0300305EE5
:103B70000300415E03006B5F03006C640300326569
:103B800003003E650300A1650300A76503006E66A0
:103B900003007A660300DD660300E3660300AA679C
:103BA0000300B6670300186803001F680300E66897
:103BB0000300F2680300546903005B690300226A92
:103BC00003002D6A0300906A0300976A03005D6B8F
:103BD0000300696B0300CC6B0300D26B0300996C8C
:103BE0000300A56C0300086D03000E6D0300D56D86
:103BF0000300E16D0300436E03004A6E0300116F82
:103C000003001D6F03007F6F0300866F03004C707D
:103C1000030058700300BB700300C270030088717A
:103C2000030094710300F7710300FD710300C47277
:103C30000300D072030033730300397303009075DF
:103C40000300B17503000778030028780300EF78BC
:103C50000300FB780300267A0300377A0300617BB8
:103C60000300727B03009D7C0300AE7C0300697F30
:103C700003008F7F0300BA800300CB800300F6812E
:103C8000030007820300CD820300D98203003C8336
:103C90000300428303000984030015840300788431
:103CA00003007E8403004585030051850300B3852E
:103CB0000300BA850300818603008D860300EF862A
:103CC0000300F686030020880300328803005C8925
:103CD0000300408A0300A38A03007C8B0300DE8B71
:103CE0000300E58B0300AC8C0300B78C03001A8D36
:103CF0000300218D0300E78D0300F38D0300568E32
:103D000003005D8E0300238F03002F8F0300928F2B
:103D10000300988F03005F9003006B900300CE9028
:103D20000300D4900300FF910300109203003B9323
:103D300003001E940300819403005A950300BD956F
:103D40000300C39503008A96030096960300F89635
:103D50000300FF960300C6970300D2970300349830
:103D600003003B980300029903000D99030070992A
:103D70000300779903003D9A0300499A0300AC9A27
:103D80000300B29A0300799B0300859B0300B09C5B
:103D90000300C19C0300239D0300FD9D03005F9E63
:103DA0000300389F03009B9F0300A29F0300CCA049
:103DB0000300DDA0030008A2030019A2030044A32E
:103DC000030055A3030080A403009FA6030002A7DD
:103DD000030008A70300CFA70300DBA7030006A981
:103DE000030017A9030079A9030080A9030047AACB
:103DF000030052AA0300B5AA0300BCAA030082ABC9
:103E000003008EAB0300F1AB0300F7AB0300BEACC5
:103E10000300CAAC03002DAD030033AD0300FAADBF
:103E2000030006AE030068AE03006FAE030036AFBA
:103E3000030042AF03006CB003007DB00300E0B0AC
:103E40000300B9B103001CB20300F5B2030058B37C
:103E500003005EB3030025B4030031B4030093B440
:103E600003009AB4030061B503006DB50300CFB53C
:103E70000300D6B503009CB60300A8B603000BB739
:103E8000030012B70300D8B70300E4B7030047B834
:103E900003004DB8030014B9030020B903004BBA66
:103EA00003005CBA0300BEBA030097BB0300FABB71
:103EB000030001BC0300C7BC0300D3BC030036BD34
:103EC00003003DBD030003BE03000FBE030072BE2E
:103ED000030078BE03003FBF03004BBF0300AEBF2B
:103EE0000300B4BF03007BC0030087C00300E9C028
:103EF0000300F0C00300B7C10300C2C1030025C224
:103F000003002CC20300F2C20300FEC2030061C31F
:103F1000030067C303002EC403003AC403009DC41A
:103F2000030076C50300D8C50300B2C6030014C75A
:103F300003001BC7030046C8030057C8030081C91C
:103F4000030092C90300BDCA0300CECA0300F9CB27
:103F5000030082CE0300D8D00300F9D0030050D371
:103F6000030071D30300E8D50300E8D5030013D79D
:103F7000030024D703007BD903009CD90300C6DAD1
:103F80000300D7DA030002DC030013DC03003EDD8C
:103F900003004FDD03007ADE03008BDE03008CDEBE
:103FA000030099E00300FCE0030002E1030004E1E8
:103FB00003002DE7030084E90300A5E90300D0EA2C
:103FC0000300E1EA030037ED030058ED03001FEEA4
:103FD00003002BEE03008EEE030094EE0300BFEF10
:103FE0000300D0EF0300FBF003000CF103000CF121
:103FF000030036F2030036F2030048F2030072F3C6
:10400000030083F30300AEF40300BFF40300EAF5FA
:104010000300FBF50300C2F60300CDF603005CF8D5
:104020000300EAFA0300EBFA030062FD03008CFED2
:1040300003009DFE0300F40004001501040040028B
:104040000400510204007B0304008D030400B70444
:104050000400C8040400F305040004060400050677
:10406000040012080400750804007C0804007D08A0
:104070000400A70E0400FD1004001E1104004912E4
:1040800004005A120400B1140400D214040098155C
:104090000400A4150400071604000D1604003817C8
:1040A00004004917040074180400851804008518DA
:1040B0000400B0190400B0190400C11904009B1FCA
:1040C0000400EC1F04004222040063220400BA240E
:1040D0000400DB2404000626040017260400412700
:1040E00004008E280400B9290400CA290400F52A16
:1040F0000400062B0400312C0400422C04006C2D1B
:1041000004007D2D0400A82E04008C2F0400EE2F47
:104110000400F52F040078330400E43404000F3663
:104120000400203604007738040098380400C239AF
:104130000400D3390400FE3A04004B3C0400123D55
:1041400004001D3D0400803D0400873D0400B13E95
:104150000400C23E0400ED3F0400FE3F0400FE3FA9
:10416000040029410400294104003A4104003A4175
:104170000400D7410400D741040000000000000003
:1041800000000000000093020000DB030000930227
:104190000000930200006E020000E30200009302A0
:1041A000000054040000DB030000930200009302AF
:1041B0000000ED010000ED010000930200009302F9
:1041C000000093020000E302000093020000E302FB
:1041D000000093020000E3020000700300003E03B1
:1041E00000009302000054040000DB03000093026F
:1041F000000093020000ED010000ED0100009302B9
:1042000000009302000093020000E302000093020A
:1042100000006E0200009302000054040000DB0363
:1042200000009302000093020000ED010000ED0188
:104230000000930200009302000093020000E302DA
:10424000000093020000E302000093020000E3027A
:104250000000700300003E030000E30200009F0125
:10426000930200000000ED010000ED010000930248
:10427000000093020000ED010000930200003E03E5
:104280000000E302000093020000930200006E02AF
:1042900000006E0200009302000093020000B909C2
:1042A00000008F0B0000C00D00006F0F00002A02FD
:1042B0000000ED01000093020000930200006E0276
:1042C00000002A020000ED010000ED010000B8012D
:1042D00000009F0100009F0100002A020000ED0184
:1042E00000009302000093020000E30200003E037E
:1042F000000093020000E302000093020000370177
:1043000000002A020000ED01000093020000930269
:1043100000006E0200002A020000ED010000ED0125
:104320000000B80100009F0100009F0100002A0268
:104330000000ED0100009302000093020000E30280
:1043400000003E03000093020000E302000093021D
:10435000000054040000DB030000930200009302FD
:104360000000ED010000ED01000093020000930247
:10437000000093020000E302000093020000E30249
:10438000000093020000E3020000700300003E03FF
:1043900000009302000054040000DB0300003E0311
:1043A00000003E030000DB0300003E030000930218
:1043B00000002A020000930200002A020000E3022B
:1043C00000003E030000E30200009302000093029D
:1043D000000054040000DB0300009302000093027D
:1043E0000000ED010000ED010000ED010000E3021E
:1043F00000003E030000E302000093020000E3021D
:10440000000093020000E302000093020000E302B8
:1044100000003E030000700300003E030000E302C2
:1044200000009F01930200000000ED010000ED017B
:104430000000710193020000000093020000ED01F2
:104440000000930200003E0300003E030000E30270
:104450000000930200006E02000093020000E302DD
:1044600000009302000093020000930200009302F8
:1044700000009302000093020000930200009302E8
:10448000000093020000E302000093020000E30238
:1044900000003E030000DB030000930200009302D3
:1044A00000009302000093020000ED010000ED0106
:1044B0000000E302000093020000E3020000930208
:1044C0000000E3020000B801930200000000930224
:1044D000000093020000930200003E030000E3028C
:1044E00000009302000093020000ED0100003E0373
:1044F0000000E3020000E3020000700300003E033E
:104500000000E3020000DB030000DB030000DB032C
:1045100000003E0300003E030000DB0300005404E3
:10452000000093020000ED010000E302000093028E
:104530000000E302000093020000E3020000930287
:104540000000E302000093020000E3020000E30227
:1045500000003E030000E30200009302000093020B
:104560000000930200009302000093020000ED019E
:10457000000093020000ED010000930200003E03E2
:104580000000E3020000E302000093020000930237
:1045900000004901000093020000E30200003E0316
:1045A000000093020000E30200003E0300003E030F
:1045B0000000E3020000930200006E0200006E02A1
:1045C0000000930200009302000093020000E30247
:1045D00000003E03000093020000E30200003E03DF
:1045E00000003E030000E302000093020000E3022B
:1045F0000000700300003E0300003E030000700353
:104600000000DB030000DB030000DB03000093027B
:104610000000930200009302000093020000E302F6
:1046200000003E03000093020000E302000070035C
:1046300000003E030000ED010000ED0100009302C8
:10464000000093020000ED010000ED010000930264
:104650000000930200003E030000E302000093020A
:104660000000E3020000700300003E0300003E0370
:10467000000070030000DB030000DB030000DB032D
:104680000000DB030000DB030000DB030000DB03B2
:10469000000054040000DB03000093020000ED0161
:1046A0000000ED010000E302000093020000E302BD
:1046B000000093020000E302000093020000E30206
:1046C0000000700300003E03000093020000ED01B3
:1046D0000000ED010000DB030000DB030000DB0352
:1046E0000000DB030000DB030000DB030000DB0352
:1046F000000054040000DB0300009302000093025A
:104700000000ED010000ED010000E30200003E03A7
:104710000000E3020000930200003E0300003E039D
:1047200000007003000070030000DB030000DB03E7
:104730000000DB030000DB030000DB030000DB0301
:104740000000DB03000054040000DB0300009302C0
:10475000000093020000ED010000ED010000E30203
:10476000000093020000E302000093020000E30255
:10477000000093020000E3020000700300003E030B
:10478000000093020000930200003E0300003E037D
:10479000000070030000DB030000DB030000DB030C
:1047A0000000DB030000DB030000DB030000DB0391
:1047B000000054040000DB03000093020000930299
:1047C000000093020000ED010000ED010000E30293
:1047D00000003E030000E302000093020000E30239
:1047E000000093020000E30200006E020000E302FA
:1047F000000093020000ED0100009302000093020C
:10480000000093020000ED010000930200009302FB
:104810000000930200009302000093020000930244
:104820000000E302000093023E03000000003E038C
:1048300000003E0300003E0300003E030000E302D0
:10484000000093020000E302000093020000E30274
:1048500000002A029302000000009302000093026D
:104860000000930200003E030000E30200009302F8
:10487000000093020000ED0100003E030000E3028F
:104880000000E3020000700300003E030000E302AA
:104890000000DB0300003E030000DB0300003E03DA
:1048A00000003E030000DB030000DB0300005404B3
:1048B00000009302000093020000E3020000E30204
:1048C0000000E30200009302000093020000E302F4
:1048D000000093020000E30200003E030000E30238
:1048E000000093020000ED010000ED0100009302C2
:1048F0000000ED01000093020000ED0100009302B2
:1049000000003E0300003E030000E30200009302AB
:104910000000930200006E020000930200004901B3
:10492000000093020000E30200003E030000930237
:104930000000E30200003E0300003E030000E3022B
:10494000000093020000930200006E0200006E025D
:1049500000006E0200009302000093020000930228
:104960000000E30200003E03000093020000E302A7
:1049700000003E0300003E0300003E030000E3028F
:10498000000093020000E3020000700300003E03F9
:1049900000003E03000070030000DB030000DB03A7
:1049A0000000DB030000930200009302000093026A
:1049B0000000E30200003E030000930200009302A7
:1049C0000000E3020000700300003E030000ED0160
:1049D0000000ED0100009302000093020000ED01D1
:1049E0000000ED01000093020000930200003E036E
:1049F0000000E302000093020000E30200007003E5
:104A000000003E0300003E03000070030000DB03D3
:104A10000000DB030000DB030000DB030000DB031E
:104A20000000DB03000054040000DB0300009302DD
:104A30000000ED010000ED010000ED010000E302C7
:104A4000000093020000E302000093020000E30272
:104A5000000093020000E3020000700300003E0328
:104A60000000930200003E0300003E0300007003BC
:104A70000000DB030000DB030000DB030000ED01AE
:104A80000000DB030000DB030000DB030000540434
:104A90000000DB0300009302000093020000ED0120
:104AA0000000ED010000E30200003E030000E3020D
:104AB0000000930200003E0300003E03000070036C
:104AC000000070030000DB030000DB030000DB03D9
:104AD0000000ED010000DB030000DB030000DB034E
:104AE000000054040000DB03000093020000930266
:104AF0000000ED010000ED010000E3020000930260
:104B00000000E302000093020000E30200009302B1
:104B10000000E3020000700300003E030000930267
:104B20000000930200003E0300003E0300007003FB
:104B30000000DB030000DB030000DB030000ED01ED
:104B40000000DB030000DB030000DB030000540473
:104B50000000DB03000093020000930200009302B8
:104B60000000ED010000ED010000E30200003E0343
:104B70000000E30200009302000054040000DB0385
:104B8000000093020000B8012A0200000000B801F2
:104B90002A020000000093020000700300003E03A0
:104BA000000093020000ED010000ED010000ED01A6
:104BB0000000ED0100003E030000E302000071016F
:104BC0000000B8010000710100006E0200007101D8
:104BD0000000B80100007101000093020000E30230
:104BE00000009F010000B80100009F01000071015A
:104BF000000049010000DB03000093020000930263
:104C00000000ED010000ED0100009302000093029E
:104C100000003E030000E3020000930200006E0269
:104C200000009302000054040000DB030000930224
:104C3000000093020000ED010000ED01000093026E
:104C40000000930200003E030000E3020000930214
:104C50000000700300003E03000054040000DB036A
:104C600000003E0300003E03000070030000DB0371
:104C700000009302000093020000ED010000E30237
:104C80000000930200006E02000093020000E302A5
:104C9000000093020000E302000093020000E30220
:104CA000000093020000E302000093020000E30210
:104CB000000093020000E302000093020000E30200
:104CC000000093020000E302000093020000E302F0
:104CD000000093020000E302000093020000E302E0
:104CE000000093020000E30200003E030000700396
:104CF00000003E030000710100007101000071011D
:104D0000000071010000ED0100003E03000070038F
:104D10000000DB030000DB030000DB030000ED010B
:104D20000000DB030000DB030000DB030000540491
:104D30000000DB03000093020000ED010000ED0124
:104D40000000E302000093020000E302000093026F
:104D50000000E302000093020000E3020000700381
:104D600000003E03000093020000ED010000ED0191
:104D70000000DB030000DB030000DB030000ED01AB
:104D80000000DB030000DB030000DB030000540431
:104D90000000DB0300009302000093020000ED011D
:104DA0000000ED010000E30200003E030000E3020A
:104DB0000000930200003E0300003E030000700369
:104DC000000070030000DB030000DB030000DB03D6
:104DD0000000ED010000DB030000DB030000DB034B
:104DE000000054040000DB03000093020000930263
:104DF0000000ED010000ED010000E302000093025D
:104E00000000E302000093020000E30200009302AE
:104E10000000E3020000700300003E030000930264
:104E20000000930200003E0300003E0300007003F8
:104E30000000DB030000DB030000DB030000DB03FA
:104E40000000DB030000DB030000DB03000026059D
:104E50000000DC04000054040000DB030000DB035E
:104E600000009302000093020000E30200003E03F2
:104E70000000E302000093020000E302000093023E
:104E8000000015010000F600000049010000490182
:104E900000003701000015010000F6000000F600D8
:104EA0000000DC000000CF00000015010000F6004B
:104EB00000004901000049010000710100009F014C
:104EC0000000490100007101ED0100000000B8017F
:104ED00000009F0100004901000049010000490154
:104EE000000015010000F600000049010000490122
:104EF00000003701000015010000F6000000F60078
:104F00000000DC000000CF00000015010000F600EA
:104F100000004901000049010000710100009F01EB
:104F20000000490100007101ED010000000049018D
:104F300000009302000054040000DB03000026057B
:104F4000000026050000DC04000054040000DB0320
:104F50000000DB030000700300003E0300003E037E
:104F6000000054040000DB030000260500002605B5
:104F70000000C70500007D06000026050000DC04D7
:104F8000C70500000000DB0326050000000000004C
:104F90000000240027002A0000000000250028004F
:104FA0002B0002010000000000230026002900045D
:104FB00004040404040404020202020202030303C0
:104FC00003030301020408102040800102040810BA
:104FD0002001020408102000000008000201000067
:104FE00003040700000000000000000061301124ED
:104FF0001FBECFEFD8E0DEBFCDBF11E0A0E0B1E033
:10500000EEEAF1E602C005900D92A633B107D9F79A
:1050100022E0A6E3B1E001C01D92A631B207E1F79C
:1050200017E2C7EFD7E204C02197FE010E94CF30FC
:10503000C63FD107C9F70E94E22B0C94D5300C94DF
:105040000000AF92BF92CF92DF92EF92FF920F9348
:105050001F93CF93DF936C017B018B01040F151F0E
:10506000EB015E01AE18BF08C017D10759F0699176
:10507000D601ED91FC910190F081E02DC6010995DA
:10508000892B79F7C501DF91CF911F910F91FF9087
:10509000EF90DF90CF90BF90AF900895FC01538DBB
:1050A000448D252F30E0842F90E0821B930B541702
:1050B00010F0CF96089501970895FC01918D828D8F
:1050C000981761F0A28DAE0FBF2FB11D5D968C9128
:1050D000928D9F5F9F73928F90E008958FEF9FEF67
:1050E0000895FC01918D828D981731F0828DE80F23
:1050F000F11D858D90E008958FEF9FEF0895FC01DD
:10510000918D228D892F90E0805C9F4F821B9109A9
:105110008F739927089589E791E00E947F2821E005
:10512000892B09F420E0822F089580E090E0892BFC
:1051300029F00E948B2881110C9400000895FC0135
:10514000A48DA80FB92FB11DA35ABF4F2C91848DE8
:1051500090E001968F739927848FA689B7892C9345
:10516000A089B1898C91837080648C93938D848D98
:10517000981306C00288F389E02D80818F7D80839B
:105180000895EF92FF920F931F93CF93DF93EC015B
:1051900081E0888F9B8D8C8D98131AC0E889F989DE
:1051A000808185FF15C09FB7F894EE89FF896083E1
:1051B000E889F98980818370806480839FBF81E062
:1051C00090E0DF91CF911F910F91FF90EF900895A4
:1051D000F62E0B8D10E00F5F1F4F0F731127E02E7F
:1051E0008C8D8E110CC00FB607FCFACFE889F989B7
:1051F000808185FFF5CFCE010E949F28F1CFEB8DF6
:10520000EC0FFD2FF11DE35AFF4FF0829FB7F8948A
:105210000B8FEA89FB8980818062CFCFCF93DF93A8
:10522000EC01888D8823B9F0AA89BB89E889F989BE
:105230008C9185FD03C0808186FD0DC00FB607FCF3
:10524000F7CF8C9185FFF2CF808185FFEDCFCE0126
:105250000E949F28E9CFDF91CF910895833081F09C
:1052600028F4813099F08230A9F008958730A9F0B0
:105270008830C9F08430B1F4809180008F7D03C004
:10528000809180008F7780938000089584B58F7718
:1052900084BD089584B58F7DFBCF8091B0008F775A
:1052A0008093B00008958091B0008F7DF9CFCF93A7
:1052B000DF93E7EDFFE48491E3ECFFE4D491EFEAC0
:1052C000FFE4C491CC23A1F081110E942E29EC2F80
:1052D000F0E0EE0FFF1FEB55F04BA591B491EC9170
:1052E000ED2381E090E009F480E0DF91CF91089513
:1052F00080E090E0FACF1F93CF93DF93282F30E028
:10530000F901E952F04B8491F901ED53F04BD4913E
:10531000F901E155F04BC491CC23A9F0162F81116E
:105320000E942E29EC2FF0E0EE0FFF1FE856F04B05
:10533000A591B4918FB7F894EC91111108C0D09554
:10534000DE23DC938FBFDF91CF911F910895DE2B79
:10535000F8CFCF93DF9390E0FC01ED53F04B249115
:105360008155904BFC0184918823D1F090E0880F07
:10537000991FFC01E257F04BA591B491FC01E8564E
:10538000F04BC591D491623071F49FB7F8943C9181
:10539000822F809583238C93E8812E2B28839FBFB7
:1053A000DF91CF9108958FB7F894EC912E2B2C9329
:1053B0008FBFF6CF3FB7F8948091370190913801B5
:1053C000A0913901B0913A0126B5A89B05C02F3FA5
:1053D00019F00196A11DB11D3FBFBA2FA92F982F1B
:1053E0008827BC01CD01620F711D811D911D42E016
:1053F000660F771F881F991F4A95D1F708950C945F
:10540000DA29FC019181913069F0923089F0911193
:1054100005C090916E009D7F90936E0060E080814A
:105420000C947B2990916F009D7F90936F00F6CF35
:10543000909170009D7F90937000F0CFCF93DF9399
:10544000FC0101900020E9F73197AF01481B590B8F
:10545000BC0189E791E00E942128EC0142E050E084
:1054600062E271E089E791E00E9421288C0F9D1F84
:10547000DF91CF9108951F920F920FB60F921124D2
:105480002F933F934F935F936F937F938F939F934C
:10549000AF93BF93EF93FF9389E791E00E949F281A
:1054A000FF91EF91BF91AF919F918F917F916F91FC
:1054B0005F914F913F912F910F900FBE0F901F90D2
:1054C00018951F920F920FB60F9211242F938F935E
:1054D0009F93EF93FF93E0918901F0918A0180817E
:1054E000E0918F01F091900182FD1BC0908180912D
:1054F00092018F5F8F7320919301821741F0E091A9
:105500009201F0E0E758FE4F958F80939201FF9152
:10551000EF919F918F912F910F900FBE0F901F9041
:1055200018958081F4CF1F920F920FB60F9211241D
:105530002F933F938F939F93AF93BF938091450198
:1055400090914601A0914701B091480130913601F8
:1055500023E0230F2D3758F50196A11DB11D20938F
:1055600036018093450190934601A0934701B09383
:1055700048018091370190913801A0913901B09193
:105580003A010196A11DB11D809337019093380116
:10559000A0933901B0933A01BF91AF919F918F9140
:1055A0003F912F910F900FBE0F901F90189526E8F6
:1055B000230F0296A11DB11DD2CF1F920F920FB6DD
:1055C0000F9211242F933F938F939F93AF93BF9389
:1055D000EF93FF938091490190914A01A0914B0173
:1055E000B0914C010097A105B10531F130913B011B
:1055F000E0913C01F0913D01208123272083181682
:1056000019061A061B061CF40197A109B10980931B
:10561000490190934A01A0934B01B0934C01FF9133
:10562000EF91BF91AF919F918F913F912F910F90EB
:105630000FBE0F901F901895209170002D7F209322
:10564000700020913B01E0913C01F0913D013081DF
:10565000209523232083DBCF1F920F920FB60F924A
:1056600011248F939F93AF93BF93EF93FF938091F8
:105670004D0190914E01A0914F01B0915001892BA5
:105680008A2B8B2BA1F190913E01E0913F01F0918B
:10569000400180818927808380914D0190914E0146
:1056A000A0914F01B0915001181619061A061B0659
:1056B0009CF480914D0190914E01A0914F01B091C9
:1056C00050010197A109B10980934D0190934E01BA
:1056D000A0934F01B0935001FF91EF91BF91AF9113
:1056E0009F918F910F900FBE0F901F9018958091F2
:1056F0006F008D7F80936F0080913E01E0913F01AC
:10570000F09140019081809589238083E5CF1F929D
:105710000F920FB60F9211248F939F93AF93BF9365
:10572000EF93FF938091510190915201A091530109
:10573000B0915401892B8A2B8B2BA1F190914101BF
:10574000E0914201F091430180818927808380911B
:10575000510190915201A0915301B091540118163A
:1057600019061A061B069CF4809151019091520172
:10577000A0915301B09154010197A109B1098093FF
:10578000510190935201A0935301B0935401FF91A2
:10579000EF91BF91AF919F918F910F900FBE0F909E
:1057A0001F90189580916E008D7F80936E00809180
:1057B0004101E0914201F09143019081809589235C
:1057C0008083E5CFCF93DF93CDB7DEB72A970FB6AF
:1057D000F894DEBF0FBECDBF789484B5826084BDDF
:1057E00084B5816084BD85B5826085BD85B58160E5
:1057F00085BD80916E00816080936E001092810063
:10580000809181008260809381008091810081601D
:1058100080938100809180008160809380008091DE
:10582000B10084608093B1008091B000816080936A
:10583000B00080917A00846080937A0080917A0031
:10584000826080937A0080917A00816080937A00F0
:1058500080917A00806880937A001092C100E09174
:105860008901F0918A0182E08083E0918501F091C5
:1058700086011082E0918701F09188018FEC80838E
:1058800010929101E0918D01F0918E0186E080836C
:10589000E0918B01F0918C01808180618083E091A7
:1058A0008B01F0918C01808188608083E0918B0175
:1058B000F0918C01808180688083E0918B01F09170
:1058C0008C0180818F7D808362E080E00E94A92925
:1058D00061E08DE00E94A92961E089E00E94A92988
:1058E00061E08AE00E94A929A5E5B1E005E711E0A1
:1058F00069E671E04DE651E029E531E082E1282ECC
:1059000081E0382EFF24FA94F10186819781F90114
:1059100091838083FA011192119211921192AF0139
:10592000FB0111921192BF01F801119211928F01A6
:10593000F101908180914401833008F01FC19C9354
:10594000E82FF0E0EE55F04BE4911196EC931197AF
:105950008F5F80934401E13009F4C4C008F4A2C011
:10596000E23009F4E5C0F90180819181FC01E15048
:10597000F04CCF01880F991F880F991FF101C48047
:10598000D580F601E80FF91F459055906590749009
:1059900080905D0190905E01A0905F01B0906001E9
:1059A00084149504A604B70410F4530142018092B4
:1059B0005D0190925E01A0925F01B0926001F8E0FB
:1059C0002F0E311C2E5F3F4F129682E2281681E087
:1059D000380609F099CF0E94FF2960E08DE00E940F
:1059E0007B2900E010E00E9457299C838B8301975C
:1059F00011F00B831C830E9457299A838983892B7A
:105A000009F0C0C0AB81BC81119709F0BBC061E057
:105A10008DE00E947B2985E291E00E941E2A69E6C2
:105A200071E00DE6C02E01E0D02E45E751E0A2E185
:105A3000B1E01496ED90FC901597FA018081918168
:105A4000FC01EE0FFF1FEE0FFF1FEE0DFF1D059176
:105A5000159125913491F6010083118322833383BC
:105A6000FA012081318189010F5F1F4FC801880F22
:105A7000991F880F991F8E0D9F1DFC018590959091
:105A8000A590B490F60140805180628073804814E4
:105A900059046A047B0409F078C0FA011183008379
:105AA000FC01D5CF14BC15BC84B5826084BD85B51E
:105AB000816085BD8C9190E0FC01E155F04BE49153
:105AC000F0E0EE0FFF1FE856F04BC590D490D09257
:105AD0004301C0924201FC01ED53F04BE491E0938D
