:100000000C9492200C94BA200C94BA200C94BA2030
:100010000C94BA200C94BA200C94BA200C94782337
:100020000C94BA200C94BA200C94BA200C94C723D8
:100030000C94BA200C94BA200C9422240C94BA206C
:100040000C942E230C94BA200C94FC220C94D622EF
:100050000C94BA200C94BA200C94BA200C94BA20B8
:100060000C94BA200C94BA2000000000000000009C
:100070000000000002000000040000000600000074
:1000800008000000E7030000D6050000DB050000C3
:10009000D0060000D5060000CA070000CF07000008
:1000A000470800004C080000C4080000C908000010
:1000B000BE090000C3090000B80A0000BD0A000024
:1000C000B20B0000B70B0000A60D0000AB0D000046
:1000D000A00E0000A50E00001D0F0000220F000062
:1000E0009A0F00009F0F000094100000991000006C
:1000F0008E11000093110000881200008D12000084
:100100008213000081140000761500007B150000AA
:1001100070160000751600006A1700006F170000C7
:1001200064180000691800005E19000063190000DF
:10013000581A00005D1A0000521B0000571B0000F7
:10014000461D00004B1D0000401E0000451E000023
:10015000BD1E0000C21E00003A1F00003F1F00002D
:10016000B71F0000BC1F0000342000003920000031
:100170002E21000033210000AB210000B02100003F
:10018000282200002D220000A5220000AA22000043
:1001900022230000272300001C240000212400004B
:1001A000162500001B250000102600001526000063
:1001B0000A2700000F27000004280000092800007B
:1001C000FE28000003290000F8290000FD29000096
:1001D000F22A0000F72A0000EC2B0000F12B0000AF
:1001E000E62C0000EB2C0000E02D0000E52D0000C7
:1001F000DA2E0000DF2E0000D42F0000D92F0000DF
:10020000CE300000D3300000C8310000CD310000F6
:10021000C2320000C1330000B6340000BB3400001D
:10022000B0350000B5350000AA360000AF3600003A
:10023000A4370000A93700009E380000A338000052
:10024000983900009D390000923A0000973A00006A
:100250000F3B0000143B00008C3B0000913B000072
:10026000093C00000E3C0000863C00008B3C000076
:10027000033D0000083D0000803D0000853D00007A
:10028000FD3D0000023E00007A3E00007F3E00007F
:10029000F73E0000FC3E0000743F0000793F000084
:1002A000F13F0000F63F00006E4000007340000088
:1002B000EB400000F0400000684100006D4100008C
:1002C000E5410000EA410000624200004F460000A4
:1002D00044470000494700003E48000043480000F2
:1002E000384900003D490000324A0000374A00000A
:1002F0002C4B0000314B0000264C00002B4C000022
:10030000204D0000254D00001A4E00001F4E000039
:10031000144F0000194F00000E5000001350000051
:10032000085100000D510000025200000752000069
:10033000FC52000001530000F6530000FB53000084
:10034000F0540000F5540000EA550000EF5500009D
:10035000E4560000E9560000DE570000E3570000B5
:10036000D8580000DD580000D2590000D7590000CD
:10037000CC5A0000D15A0000C65B0000CB5B0000E5
:10038000C05C0000C55C0000BA5D0000BF5D0000FD
:10039000B45E0000B95E0000AE5F0000B35F000015
:1003A000A8600000AD600000A2610000A76100002D
:1003B0009C620000A1620000966300009B63000045
:1003C00090640000956400008A6500008F6500005D
:1003D00084660000896600007E6700008367000075
:1003E000786800007D68000072690000776900008D
:1003F0006C6A0000716A0000666B00006B6B0000A5
:10040000606C0000656C00005A6D00005F6D0000BC
:10041000546E0000596E00004E6F0000536F0000D4
:10042000487000004D7000004271000047710000EC
:100430003C72000041720000367300003B73000004
:1004400030740000357400002A7500002F7500001C
:1004500024760000297600001E7700002377000034
:10046000187800001D78000012790000177900004C
:100470000C7A0000117A0000067B00000B7B000064
:10048000007C0000057C0000FA7C0000FF7C00007E
:10049000F47D0000F97D0000EE7E0000F37E000098
:1004A000E87F0000ED7F0000E2800000E7800000B0
:1004B000DC810000E1810000D6820000DB820000C8
:1004C000D0830000D5830000CA840000CF840000E0
:1004D000C4850000C9850000BE860000C3860000F8
:1004E000B8870000BD870000B2880000B788000010
:1004F000AC890000B1890000A68A0000AB8A000028
:10050000A08B0000A58B00009A8C00009F8C00003F
:10051000948D0000998D00008E8E0000938E000057
:10052000888F00008D8F000082900000879000006F
:100530007C91000081910000769200007B92000087
:1005400070930000759300006A9400006F9400009F
:1005500064950000699500005E96000063960000B7
:10056000589700005D9700005298000057980000CF
:100570004C99000051990000469A00004B9A0000E7
:10058000409B0000459B00003A9C00003F9C0000FF
:10059000349D0000399D00002E9E0000339E000017
:1005A000289F00002D9F000022A0000027A000002F
:1005B0001CA1000021A1000016A200001BA2000047
:1005C00010A3000015A300000AA400000FA400005F
:1005D00004A5000009A50000FEA5000003A6000078
:1005E000F8A60000FDA60000F2A70000F7A7000093
:1005F000ECA80000F1A80000E6A90000EBA90000AB
:10060000E0AA0000E5AA0000DAAB0000DFAB0000C2
:10061000D4AC0000D9AC0000CEAD0000D3AD0000DA
:10062000C8AE0000CDAE0000C2AF0000C7AF0000F2
:10063000BCB00000C1B00000B6B10000BBB100000A
:10064000B0B20000B5B20000AAB30000AFB3000022
:10065000A4B40000A9B400009EB50000A3B500003A
:1006600098B600009DB6000092B7000097B7000052
:100670008CB8000091B8000086B900008BB900006A
:1006800080BA000085BA00007ABB00007FBB000082
:1006900074BC000079BC00006EBD000073BD00009A
:1006A00068BE00006DBE000062BF000067BF0000B2
:1006B0005CC0000061C0000056C100005BC10000CA
:1006C00050C2000055C200004AC300004FC30000E2
:1006D00044C4000049C400003EC5000043C50000FA
:1006E00038C600003DC6000032C7000037C7000012
:1006F0002CC8000031C8000026C900002BC900002A
:1007000020CA000025CA00001ACB00001FCB000041
:1007100014CC000019CC00000ECD000013CD000059
:1007200008CE00000DCE000002CF000007CF000071
:10073000FCCF000001D00000F6D00000FBD000008C
:10074000F0D10000F5D10000EAD20000EFD20000A5
:10075000E4D30000E9D30000DED40000E3D40000BD
:10076000D8D50000DDD50000D2D60000D7D60000D5
:10077000CCD70000D1D70000C6D80000CBD80000ED
:10078000C0D90000C5D90000BADA0000BFDA000005
:10079000B4DB0000B9DB0000AEDC0000B3DC00001D
:1007A000A8DD0000ADDD0000A2DE0000A7DE000035
:1007B0009CDF0000A1DF000096E000009BE000004D
:1007C00090E1000095E100008AE200008FE2000065
:1007D00084E3000089E300007EE4000083E400007D
:1007E00078E500007DE5000072E6000077E6000095
:1007F0006CE7000071E7000066E800006BE80000AD
:1008000060E9000065E900005AEA00005FEA0000C4
:1008100054EB000059EB00004EEC000053EC0000DC
:1008200048ED00004DED000042EE000047EE0000F4
:100830003CEF000041EF000036F000003BF000000C
:1008400030F1000035F100002AF200002FF2000024
:1008500024F3000029F300001EF4000023F400003C
:1008600018F500001DF5000012F6000017F6000054
:100870000CF7000011F7000006F800000BF800006C
:1008800000F9000005F90000FAF90000FFF9000086
:10089000F4FA0000F9FA0000EEFB0000F3FB0000A0
:1008A000E8FC0000EDFC0000E2FD0000E7FD0000B8
:1008B000DCFE0000E1FE0000D6FF0000DBFF0000D0
:1008C000D0000100D5000100CA010100CF010100E4
:1008D0004503010046030100BC040100BD04010002
:1008E00035050100B70501002D0701002E070100A5
:1008F000A4080100A50801001D0901009F090100CD
:10090000150B0100160B01008C0C01008D0C010071
:10091000050D0100870D0100FD0E0100FE0E010016
:100920007410010075100100ED1001006F1101003D
:10093000E5120100E61201005C1401005D140100E3
:10094000D514010057150100CD160100CE16010087
:100950004418010045180100BD1801003F190100AD
:10096000B51A0100B61A01002C1C01002D1C010053
:10097000A51C0100271D01000E2101000F2101000F
:100980008522010086220100FC230100FD230100D5
:1009900075240100F72401006D2601006E26010078
:1009A000E4270100E52701005D280100DF280100A0
:1009B000552A0100562A0100CC2B0100CD2B010045
:1009C000452C0100C72C01003D2E01003E2E0100E8
:1009D000B42F0100B52F01002D300100AF30010010
:1009E00025320100263201009C3301009D330100B5
:1009F00015340100973401000D3601000E36010058
:100A00008437010085370100FD3701007F38010080
:100A1000F5390100F63901006C3B01006D3B010026
:100A2000E53B0100673C01004E4001004F400100E2
:100A30004841010049410100424201004342010096
:100A40003C4301003D4301003644010037440100AE
:100A500030450100314501002A4601002B460100C6
:100A600024470100254701001E4801001F480100DE
:100A70001849010019490100124A0100134A0100F6
:100A80000C4B01000D4B0100064C0100074C01000E
:100A9000004D0100014D0100FA4D0100FB4D010028
:100AA000F44E0100F54E0100EE4F0100EF4F010042
:100AB000E8500100E9500100E2510100E35101005A
:100AC000DC520100DD520100D6530100D753010072
:100AD000D0540100D1540100CA550100CB5501008A
:100AE000C4560100C5560100BE570100BF570100A2
:100AF000B8580100B9580100B2590100B3590100BA
:100B0000AC5A0100AD5A0100A65B0100A75B0100D1
:100B1000A05C0100A15C01009A5D01009B5D0100E9
:100B2000945E0100955E01008E5F01008F5F010001
:100B30008860010089600100826101008361010019
:100B40007C6201007D620100766301007763010031
:100B500070640100716401006A6501006B65010049
:100B600064660100656601005E6701005F67010061
:100B70005868010059680100526901005369010079
:100B80004C6A01004D6A0100466B0100476B010091
:100B9000406C0100416C01003A6D01003B6D0100A9
:100BA000346E0100356E01002E6F01002F6F0100C1
:100BB00028700100297001002271010023710100D9
:100BC0001C7201001D7201001673010017730100F1
:100BD00010740100117401000A7501000B75010009
:100BE0000476010005760100FE760100FF76010023
:100BF000F8770100F9770100F2780100F37801003D
:100C0000EC790100ED790100E67A0100E77A010054
:100C1000E07B0100E17B0100DA7C0100DB7C01006C
:100C2000D47D0100D57D0100CE7E0100CF7E010084
:100C3000C87F0100C97F0100C2800100C38001009C
:100C4000BC810100BD810100B6820100B7820100B4
:100C5000B0830100B1830100AA840100AB840100CC
:100C6000A4850100A58501009E8601009F860100E4
:100C700098870100998701009288010093880100FC
:100C80008C8901008D890100868A0100878A010014
:100C9000808B0100818B01007A8C01007B8C01002C
:100CA000748D0100758D01006E8E01006F8E010044
:100CB000688F0100698F010062900100639001005C
:100CC0005C9101005D910100569201005792010074
:100CD00050930100519301004A9401004B9401008C
:100CE00044950100459501003E9601003F960100A4
:100CF00038970100399701003298010033980100BC
:100D00002C9901002D990100269A0100279A0100D3
:100D1000209B0100219B01001A9C01001B9C0100EB
:100D2000149D0100159D01000E9E01000F9E010003
:100D3000089F0100099F010002A0010003A001001B
:100D4000FCA00100FDA00100F6A10100F7A1010037
:100D5000F0A20100F1A20100EAA30100EBA301004F
:100D6000E4A40100E5A40100DEA50100DFA5010067
:100D7000D8A60100D9A60100D2A70100D3A701007F
:100D8000CCA80100CDA80100C6A90100C7A9010097
:100D9000C0AA0100C1AA0100BAAB0100BBAB0100AF
:100DA000B4AC0100B5AC0100AEAD0100AFAD0100C7
:100DB000A8AE0100A9AE0100A2AF0100A3AF0100DF
:100DC0009CB001009DB0010096B1010097B10100F7
:100DD00090B2010091B201008AB301008BB301000F
:100DE00084B4010085B401007EB501007FB5010027
:100DF00078B6010079B6010072B7010073B701003F
:100E00006CB801006DB8010066B9010067B9010056
:100E100060BA010061BA01005ABB01005BBB01006E
:100E200054BC010055BC01004EBD01004FBD010086
:100E300044BE010049BE01003EBF010043BF0100A6
:100E400038C001003DC0010032C1010037C10100BE
:100E50002CC2010031C2010026C301002BC30100D6
:100E600020C4010025C401001AC501001FC50100EE
:100E700014C6010019C601000EC7010013C7010006
:100E800008C801000DC8010002C9010007C901001E
:100E9000FCC9010001CA0100F6CA0100FBCA010039
:100EA000F0CB0100F5CB0100EACC0100EFCC010052
:100EB000E4CD0100E9CD0100DECE0100E3CE01006A
:100EC000D8CF0100DDCF0100D2D00100D7D0010082
:100ED000CCD10100D1D10100C6D20100CBD201009A
:100EE000C0D30100C5D30100BAD40100BFD40100B2
:100EF000B4D50100B9D50100AED60100B3D60100CA
:100F0000A8D70100ADD70100A2D80100A7D80100E1
:100F10009CD90100A1D9010096DA01009BDA0100F9
:100F200090DB010095DB01008ADC01008FDC010011
:100F300084DD010089DD01007EDE010083DE010029
:100F400078DF01007DDF010072E0010077E0010041
:100F50006CE1010071E1010066E201006BE2010059
:100F600060E3010065E301005AE401005FE4010071
:100F700054E5010059E501004EE6010053E6010089
:100F800048E701004DE7010042E8010047E80100A1
:100F90003CE9010041E9010036EA01003BEA0100B9
:100FA00030EB010035EB01002AEC01002FEC0100D1
:100FB00024ED010029ED01001EEE010023EE0100E9
:100FC00018EF01001DEF010012F0010017F0010001
:100FD0000CF1010011F1010006F201000BF2010019
:100FE00000F3010005F30100FAF30100FFF3010033
:100FF000F4F40100F9F40100EEF50100F3F501004D
:10100000E8F60100EDF60100E2F70100E7F7010064
:10101000DCF80100E1F80100D6F90100DBF901007C
:10102000D0FA0100D5FA0100CAFB0100CFFB010094
:10103000C4FC0100C9FC0100BEFD0100C3FD0100AC
:10104000B8FE0100BDFE0100B2FF0100B7FF0100C4
:10105000AC000200B1000200A6010200AB010200D8
:10106000A0020200A50202009A0302009F030200F0
:1010700094040200990402008E0502009305020008
:10108000880602008D060200820702008707020020
:101090007C08020081080200760902007B09020038
:1010A000700A0200750A02006A0B02006F0B020050
:1010B000640C0200690C02005E0D0200630D020068
:1010C000580E02005D0E0200520F0200570F020080
:1010D0004C10020051100200461102004B11020098
:1010E00040120200451202003A1302003F130200B0
:1010F00034140200391402002E15020033150200C8
:10110000281602002D1602002217020027170200DF
:101110001C18020021180200161902001B190200F7
:10112000101A0200151A02000A1B02000F1B02000F
:10113000041C0200091C0200FE1C0200031D020028
:10114000F81D0200FD1D0200F21E0200F71E020043
:10115000EC1F0200F11F0200E6200200EB2002005B
:10116000E0210200E5210200DA220200DF22020073
:10117000D4230200D9230200CE240200D32402008B
:10118000C8250200CD250200C2260200C7260200A3
:10119000BC270200C1270200B6280200BB280200BB
:1011A000B0290200B5290200AA2A0200AF2A0200D3
:1011B000A42B0200A92B02009E2C0200A32C0200EB
:1011C000982D02009D2D0200922E0200972E020003
:1011D0008C2F0200912F0200863002008B3002001B
:1011E00080310200853102007A3202007F32020033
:1011F00074330200793302006E340200733402004B
:10120000683502006D350200623602006736020062
:101210005C37020061370200563802005B3802007A
:1012200050390200553902004A3A02004F3A020092
:10123000443B0200493B02003E3C0200433C0200AA
:10124000383D02003D3D0200323E0200373E0200C2
:101250002C3F0200313F0200264002002B400200DA
:1012600020410200254102001A4202001F420200F2
:1012700014430200194302000E440200134402000A
:10128000084502000D450200024602000746020022
:10129000FC46020001470200F6470200FB4702003D
:1012A000F0480200F5480200EA490200EF49020056
:1012B000E44A0200E94A0200DE4B0200E34B02006E
:1012C000D84C0200DD4C0200D24D0200D74D020086
:1012D000CC4E0200D14E0200C64F0200CB4F02009E
:1012E000C0500200C5500200BA510200BF510200B6
:1012F000B4520200B9520200AE530200B3530200CE
:10130000A8540200AD540200A2550200A7550200E5
:101310009C560200A1560200965702009B570200FD
:1013200090580200955802008A5902008F59020015
:10133000845A0200895A02007E5B0200835B02002D
:10134000785C02007D5C0200725D0200775D020045
:101350006C5E0200715E0200665F02006B5F02005D
:1013600060600200656002005A6102005F61020075
:1013700054620200596202004E630200536302008D
:10138000486402004D6402004265020047650200A5
:101390003C66020041660200366702003B670200BD
:1013A00030680200356802002A6902002F690200D5
:1013B000246A0200296A02001E6B0200236B0200ED
:1013C000186C02001D6C0200126D0200176D020005
:1013D0000C6E0200116E0200066F02000B6F02001D
:1013E0000070020005700200FA700200FF70020037
:1013F000F4710200F9710200EE720200F372020051
:10140000E8730200ED730200E2740200E774020068
:10141000DC750200E1750200D6760200DB76020080
:10142000D0770200D5770200CA780200CF78020098
:10143000457A0200467A0200BC7B0200BD7B0200B6
:10144000357C0200B77C02002D7E02002E7E020059
:10145000A47F0200A57F02001D8002009F80020081
:1014600015820200168202008C8302008D83020026
:101470000584020087840200FD850200FE850200CB
:101480007487020075870200ED8702006F880200F2
:10149000E5890200E68902005C8B02005D8B020098
:1014A000D58B0200578C0200CD8D0200CE8D02003C
:1014B000448F0200458F0200BD8F02003F90020062
:1014C000B5910200B69102002C9302002D93020008
:1014D000A5930200279402000E9802000F980200C4
:1014E0008599020086990200FC9A0200FD9A02008A
:1014F000759B0200F79B02006D9D02006E9D02002D
:10150000E49E0200E59E02005D9F0200DF9F020054
:1015100055A1020056A10200CCA20200CDA20200F9
:1015200045A30200C7A302003DA502003EA502009C
:10153000B4A60200B5A602002DA70200AFA70200C4
:1015400025A9020026A902009CAA02009DAA020069
:1015500015AB020097AB02000DAD02000EAD02000C
:1015600084AE020085AE0200FDAE02007FAF020035
:1015700072B1020073B1020062B3020067B30200ED
:1015800060B4020061B4020056B502005BB502000F
:1015900050B6020055B602004AB702004FB702002B
:1015A00048B8020049B8020042B9020043B902003B
:1015B0003CBA02003DBA020036BB020037BB020053
:1015C00030BC020031BC02002ABD02002BBD02006B
:1015D00024BE020025BE02001EBF02001FBF020083
:1015E00018C0020019C0020012C1020013C102009B
:1015F0000CC202000DC2020006C3020007C30200B3
:1016000000C4020001C40200FAC40200FBC40200CC
:10161000F4C50200F5C50200EEC60200EFC60200E6
:10162000E8C70200E9C70200E2C80200E3C80200FE
:10163000DCC90200DDC90200D6CA0200D7CA020016
:10164000D0CB0200D1CB0200CACC0200CBCC02002E
:10165000C4CD0200C5CD0200BECE0200BFCE020046
:10166000B8CF0200B9CF0200B2D00200B3D002005E
:10167000ACD10200ADD10200A6D20200A7D2020076
:10168000A0D30200A1D302009AD402009BD402008E
:1016900094D5020095D502008ED602008FD60200A6
:1016A00088D7020089D7020082D8020083D80200BE
:1016B0007CD902007DD9020076DA020077DA0200D6
:1016C00070DB020071DB02006ADC02006BDC0200EE
:1016D00064DD020065DD02005EDE02005FDE020006
:1016E00058DF020059DF020052E0020053E002001E
:1016F0004CE102004DE1020046E2020047E2020036
:1017000040E3020041E302003AE402003BE402004D
:1017100034E5020035E502002EE602002FE6020065
:1017200028E7020029E7020022E8020023E802007D
:101730001CE902001DE9020016EA020017EA020095
:1017400010EB020011EB02000AEC02000BEC0200AD
:1017500004ED020005ED0200FEED0200FFED0200C7
:10176000F8EE0200F9EE0200F2EF0200F3EF0200E1
:10177000ECF00200EDF00200E6F10200E7F10200F9
:10178000E0F20200E1F20200DAF30200DBF3020011
:10179000D4F40200D5F40200CEF50200CFF5020029
:1017A000C8F60200C9F60200C2F70200C3F7020041
:1017B000BCF80200BDF80200B6F90200B7F9020059
:1017C000B0FA0200B1FA0200AAFB0200ABFB020071
:1017D000A4FC0200A5FC02009EFD02009FFD020089
:1017E00098FE020099FE020092FF020093FF0200A1
:1017F0008C0003008D0003008601030087010300B5
:1018000080020300810203007A0303007B030300CC
:1018100074040300750403006E0503006F050300E4
:1018200068060300690603006207030063070300FC
:101830005C0803005D080300560903005709030014
:10184000500A0300510A03004A0B03004B0B03002C
:10185000440C0300450C03003E0D03003F0D030044
:10186000380E0300390E0300320F0300330F03005C
:101870002C1003002D100300261103002711030074
:1018800020120300211203001A1303001B1303008C
:1018900014140300151403000E1503000F150300A4
:1018A00008160300091603000217030003170300BC
:1018B000FC170300FD170300F6180300F7180300D8
:1018C000F0190300F1190300EA1A0300EB1A0300F0
:1018D000E41B0300E51B0300DE1C0300DF1C030008
:1018E000D81D0300D91D0300D21E0300D31E030020
:1018F000CC1F0300CD1F0300C6200300C720030038
:10190000C0210300C1210300BA220300BB2203004F
:10191000B4230300B5230300AE240300AF24030067
:10192000A8250300A9250300A2260300A32603007F
:101930009C2703009D270300962803009728030097
:1019400090290300912903008A2A03008B2A0300AF
:10195000842B0300852B03007E2C03007F2C0300C7
:10196000782D0300792D0300722E0300732E0300DF
:101970006C2F03006D2F03006630030067300300F7
:1019800060310300613103005A3203005B3203000F
:1019900054330300553303004E3403004F34030027
:1019A0003638030037380300AD390300AE39030081
:1019B000243B0300253B03001E3C03001F3C0300A7
:1019C000FA410300000000000000000000000000D9
:1019D0000000AE000000E900000025010000E90061
:1019E0000000AE00000092000000AE000000E90020
:1019F000000082000000AE000000DC0000000501D5
:101A000000005D010000DC000000AE000000DC0012
:101A1000000092000000AE000000E900000082001B
:101A20000000A4000000C3000000050100009200B7
:101A30000000B8000000250100004901000071010C
:101A40000000DC00000025010000710100002501FC
:101A50000000B8000000DC000000AE00000025011E
:101A60000000AE00000025010000AE0000002501CE
:101A70000000AE00000025010000AE0000000501DE
:101A80000000AE00000005010000AE0000000501EE
:101A90000000AE00000005010000C3000000E900E6
:101AA0000000250100008A000000A4000000C3001F
:101AB00000001501000092000000B8000000DC00EA
:101AC00000002501000071010000B801000025019F
:101AD000000071010000B801000071010000250143
:101AE00000004901000025010000DC000000B800F2
:101AF0000000DC0000009B000000E90000009B00EB
:101B00000000E90000009B000000E90000009B00CD
:101B10000000E90000009B000000E90000009B00BD
:101B20000000E9000000AE00000005010000AE006A
:101B3000000005010000C300000025010000C300F3
:101B4000000025010000C300000025010000C300C3
:101B5000000025010000C300000025010000C300B3
:101B6000000025010000AE00000005010000AE00ED
:101B70000000050100009B000000E90000009B0040
:101B80000000E90000009B000000E90000009B004D
:101B90000000E9000000AE00000005010000AE00FA
:101BA000000005010000AE00000005010000AE00CD
:101BB000000005010000C300000025010000C30073
:101BC000000025010000C300000025010000C30043
:101BD000000025010000C300000025010000C30033
:101BE000000025010000AE00000005010000AE006D
:101BF0000000050100009B000000E90000009B00C0
:101C00000000E90000009B000000E90000009B00CC
:101C10000000E9000000AE00000005010000AE0079
:101C2000000005010000AE00000005010000AE004C
:101C3000000005010000C300000025010000C300F2
:101C4000000025010000C300000025010000C300C2
:101C5000000025010000C300000025010000C300B2
:101C6000000025010000AE00000005010000AE00EC
:101C70000000050100009B000000E90000009B003F
:101C80000000E90000009B000000E90000009B004C
:101C90000000E9000000AE00000005010000AE00F9
:101CA000000005010000AE00000005010000AE00CC
:101CB000000005010000C300000025010000C30072
:101CC000000025010000C300000025010000C30042
:101CD000000025010000C300000025010000C30032
:101CE000000025010000C300000025010000C30022
:101CF00000002501000092000000DC0000009200BE
:101D00000000DC00000092000000DC0000009200F7
:101D10000000DC00000082000000C3000000820020
:101D20000000C300000082000000C3000000820029
:101D30000000C300000074000000AE00000074004A
:101D40000000AE00000074000000AE00000074004F
:101D50000000AE00000074000000AE00000074003F
:101D60000000AE00000082000000C30000008200FE
:101D70000000C300000092000000DC0000009200A0
:101D80000000DC00000092000000DC000000920077
:101D90000000DC0000006E000000A40000006E00E7
:101DA0000000A40000006E000000A40000006E000F
:101DB0000000A4000000570000008200000057004F
:101DC0000000820000005700000082000000570061
:101DD000000082000000610000009200000061002D
:101DE0000000920000006E000000A40000006E00E1
:101DF0000000A400000074000000740000007400E3
:101E000000008200000082000000820000009200BA
:101E1000000092000000920000008200000082009A
:101E200000008200000074000000740000007400D4
:101E300000008200000082000000820000006E00AE
:101E400000006E0000006E0000006E0000007400D4
:101E50000000740000007400000082000000820096
:101E6000000082000000920000009200000092003A
:101E70000000820000008200000082000000570085
:101E800000005700000057000000610000006100E2
:101E90000000610000006E0000006E0000006E0097
:101EA00000006E000000AE000000E9000000AE007F
:101EB0000000E9000000AE000000E9000000AE00F4
:101EC0000000E9000000AE000000DC000000AE00F1
:101ED0000000DC000000AE000000DC000000AE00EE
:101EE0000000DC00000092000000C300000092002F
:101EF0000000C3000000A4000000DC000000A400FB
:101F00000000DC00000092000000DC0000009200F5
:101F10000000DC00000092000000DC0000009200E5
:101F20000000DC000000AE000000E9000000AE0090
:101F30000000E9000000AE000000E9000000AE0073
:101F40000000E9000000AE000000DC000000AE0070
:101F50000000DC000000AE000000DC000000AE006D
:101F60000000DC00000092000000C30000009200AE
:101F70000000C300000092000000C30000009200B7
:101F80000000C3000000A4000000DC000000A4006A
:101F90000000DC000000A4000000DC000000A40041
:101FA0000000DC000000AE000000E9000000AE0010
:101FB0000000E9000000AE000000E9000000AE00F3
:101FC0000000E9000000AE000000DC000000AE00F0
:101FD0000000DC000000AE000000DC000000AE00ED
:101FE0000000DC00000092000000C300000092002E
:101FF0000000C3000000A4000000DC000000A400FA
:102000000000DC00000092000000DC0000009200F4
:102010000000DC00000092000000DC0000009200E4
:102020000000DC000000AE000000E9000000AE008F
:102030000000E9000000AE000000E9000000AE0072
:102040000000E9000000AE000000DC000000AE006F
:102050000000DC000000AE000000DC000000AE006C
:102060000000DC00000092000000C30000009200AD
:102070000000C3000000A4000000DC000000A40079
:102080000000DC00000092000000DC000000920074
:102090000000DC00000092000000DC000000920064
:1020A0000000DC0000009B000000E90000009B0035
:1020B0000000E90000009B000000E90000009B0018
:1020C0000000E9000000AE00000005010000AE00C5
:1020D000000005010000AE00000005010000AE0098
:1020E000000005010000C300000025010000C3003E
:1020F000000025010000C300000025010000C3000E
:10210000000025010000C300000025010000C300FD
:10211000000025010000AE00000005010000AE0037
:102120000000050100009B000000E90000009B008A
:102130000000E90000009B000000E90000009B0097
:102140000000E9000000AE00000005010000AE0044
:10215000000005010000AE00000005010000AE0017
:10216000000005010000C300000025010000C300BD
:10217000000025010000C300000025010000C3008D
:10218000000025010000C300000025010000C3007D
:10219000000025010000AE00000005010000AE00B7
:1021A0000000050100009B000000E90000009B000A
:1021B0000000E90000009B000000E90000009B0017
:1021C0000000E9000000AE00000005010000AE00C4
:1021D000000005010000AE00000005010000AE0097
:1021E000000005010000C300000025010000C3003D
:1021F000000025010000C300000025010000C3000D
:10220000000025010000C300000025010000C300FC
:10221000000025010000AE00000005010000AE0036
:102220000000050100009B000000E90000009B0089
:102230000000E90000009B000000E90000009B0096
:102240000000E9000000AE00000005010000AE0043
:10225000000005010000AE00000005010000AE0016
:10226000000005010000C300000025010000C300BC
:10227000000025010000C300000025010000C3008C
:10228000000025010000C300000025010000C3007C
:10229000000025010000C300000025010000C3006C
:1022A0000000250100009B000000E90000009B00E9
:1022B0000000E90000009B000000E90000009B0016
:1022C0000000E90000008A000000CF0000008A0042
:1022D0000000CF0000008A000000CF0000008A004C
:1022E0000000CF0000007B000000B80000007B0071
:1022F0000000B80000007B000000B80000007B0078
:102300000000B80000007B000000B80000007B0067
:102310000000B80000008A000000CF0000008A0022
:102320000000CF0000009B000000E90000009B00BF
:102330000000E90000009B000000E90000009B0095
:102340000000E900000074000000AE00000074000E
:102350000000AE00000074000000AE000000740039
:102360000000AE0000005C0000008A0000005C007D
:1023700000008A0000005C0000008A0000005C0091
:1023800000008A000000670000009B00000067005A
:1023900000009B00000074000000AE00000074000C
:1023A0000000AE0000007B0000007B0000007B000E
:1023B00000008A0000008A0000008A0000009B00E4
:1023C00000009B0000009B0000008A0000008A00C3
:1023D00000008A0000005C0000005C0000005C005F
:1023E0000000670000006700000067000000740044
:1023F00000007400000074000000E90000007B0091
:1024000000007B0000007B0000008A0000008A00C2
:1024100000008A0000009B0000009B0000009B0061
:1024200000008A0000008A0000008A0000005C00B2
:1024300000005C0000005C00000067000000670016
:102440000000670000004B0200006E020000BA02AC
:102450000000E3020000E3020000A4030000B80053
:102460000000F6000000B8000000F6000000B80010
:102470000000F6000000B8000000F6000000B80000
:102480000000E9000000B8000000E9000000B8000A
:102490000000E9000000B8000000E90000009B0017
:1024A0000000CF0000009B000000CF000000AE0045
:1024B0000000E9000000AE000000E90000009B0001
:1024C0000000E90000009B000000E90000009B0004
:1024D0000000E90000009B000000E9000000B800D7
:1024E0000000F6000000B8000000F6000000B80090
:1024F0000000F6000000B8000000F6000000B80080
:102500000000E9000000B8000000E9000000B80089
:102510000000E9000000B8000000E90000009B0096
:102520000000CF0000009B000000CF0000009B00D7
:102530000000CF0000009B000000CF000000AE00B4
:102540000000E9000000AE000000E9000000AE005D
:102550000000E9000000AE000000E9000000B80043
:102560000000F6000000B8000000F6000000B8000F
:102570000000F6000000B8000000F6000000B800FF
:102580000000E9000000B8000000E9000000B80009
:102590000000E9000000B8000000E90000009B0016
:1025A0000000CF0000009B000000CF000000AE0044
:1025B0000000E9000000AE000000E90000009B0000
:1025C0000000E90000009B000000E90000009B0003
:1025D0000000E90000009B000000E9000000B800D6
:1025E0000000F6000000B8000000F6000000B8008F
:1025F0000000F6000000B8000000F6000000B8007F
:102600000000E9000000B8000000E9000000B80088
:102610000000E9000000B8000000E90000009B0095
:102620000000CF0000009B000000CF000000AE00C3
:102630000000E9000000AE000000E90000009B007F
:102640000000E90000009B000000E90000009B0082
:102650000000E90000009B000000E9000000F60017
:1026600000001501000015010000150100003701F0
:102670000000000000000000000000000000020058
:102680000000040000000600000008000000F9003F
:102690000000EE010000F3010000E8020000ED027E
:1026A0000000E2030000E7030000D4060000D506A6
:1026B00000004D07000052070000CA070000CF07C6
:1026C0000000C4080000C9080000BE090000C309DA
:1026D0000000B80A0000BD0A0000B20B0000B70BF2
:1026E00000009211000093110000881200008D126A
:1026F0000000821300008713000074160000751696
:102700000000ED160000F21600006A1700006F17B7
:10271000000064180000691800005E1900006319C9
:102720000000581A00005D1A0000521B0000571BE1
:1027300000003A1F000039200000B1200000B62040
:1027400000002E21000033210000282200002D224D
:10275000000022230000272300000A270000092888
:1027600000008128000086280000FE2800000329C0
:102770000000F8290000FD290000F22A0000F72AD5
:102780000000DE2E0000D3300000C8310000CD3143
:102790000000C2320000C7320000B4350000B53579
:1027A0000000AA360000AF3600009C3900009D39B9
:1027B0000000923A0000973A0000724000004F4635
:1027C00000001E4E00001F4E00000652000007527F
:1027D0000000EE550000EF550000CA5B0000CB5B27
:1027E0000000BE5D0000BF5D0000AC600000AD6099
:1027F00000009A6300009B6300008E6500008F65F7
:10280000000076690000776900005E6D00005F6D72
:102810000000526F0000536F0000467100004771C6
:1028200000003A7300003B7300002E7500002F7506
:1028300000001C7800001D7800000A7B00000B7B64
:102840000000DA820000CF8400009A8C00009F8C88
:10285000000082900000879000006A9400006F944E
:1028600000004A9A00004B9A00003A9C00003F9CEE
:1028700000002C9F00002D9F00001AA200001BA248
:1028800000000AA400000FA40000FEA5000003A69B
:102890000000FCA60000FDA60000F0A80000F1A8C2
:1028A0000000EAA90000EBA90000DAAB0000DFABF2
:1028B0000000C2AF0000C7AF0000B6B10000BBB15E
:1028C0000000AAB30000AFB300004EC300004FC326
:1028D000000032C7000037C70000ADC80000AEC816
:1028E000000024CA000025CA00001ACB00001FCB3C
:1028F000000000D0000001D00000F6D00000FBD0A6
:102900000000EAD20000EFD20000E3D40000E3D4DC
:102910000000D2D60000D7D60000C6D80000CBD821
:102920000000C0D90000C5D90000B8DB0000B9DB49
:102930000000AEDC0000B3DC0000A8DD0000ADDD6F
:102940000000A2DE0000A7DE00009CDF0000A1DF87
:10295000000096E000009BE0000090E1000095E19F
:1029600000008FE200008FE2000072E6000077E6D0
:102970000000EDE70000EEE7000064E9000065E913
:1029800000005AEA00005FEA000042EE000047EE55
:102990000000BDEF0000BEEF000034F1000035F193
:1029A00000002AF200002FF200001EF4000023F4C1
:1029B000000016F6000017F6000006F800000BF8FD
:1029C0000000FAF90000FFF90000E2FD0000E7FD59
:1029D000000064FE000064FE0000DCFE0000E1FE7A
:1029E000000059FF00005EFF0000D6FF0000DBFF83
:1029F00000005300010058000100D0000100D50084
:102A000001004D01010052010100CE010100CF0182
:102A100001004503010046030100BC040100BD04A0
:102A20000100B2050100B70501002D0701002E07C6
:102A30000100A4080100A50801009A0901009F09EE
:102A400001008C0C0100870D0100FD0E0100FE0E3F
:102A500001007410010075100100ED1001006F11EC
:102A600001005E13010063130100521501005715A8
:102A70000100461701004B1701003A1901003F19E8
:102A80000100221D0100271D010014200100152056
:102A900001008D200100922001000A2101000F2178
:102AA00001008522010086220100FC230100FD2394
:102AB0000100F2240100F72401006D2601006E26BA
:102AC0000100E4270100E5270100DA280100DF28E2
:102AD0000100CC2B0100C72C01003D2E01003E2E31
:102AE0000100B42F0100B52F0100AE300100AF305E
:102AF000010025320100263201009C3301009D3384
:102B0000010015340100973401000D3601000E3626
:102B100001008437010085370100FD3701007F384F
:102B20000100723A0100733A0100623C0100673C07
:102B300001005C3D0100613D0100563E01005B3E2D
:102B40000100503F0100553F01004A4001004F4045
:102B500001003C4301003D430100B5430100BA437D
:102B6000010032440100374401002C450100314589
:102B70000100264601002B460100204701002547A1
:102B800001001A4801001F480100FA4D0100FB4DE9
:102B90000100F04E0100F54E0100EA4F0100EF4F39
:102BA0000100DC520100DD520100555301005A536F
:102BB0000100D2530100D7530100CC540100D1547D
:102BC0000100C6550100CB550100C0560100C55695
:102BD0000100BA570100BF570100A25B0100A15CD0
:102BE0000100195D01001E5D0100965D01009B5D05
:102BF0000100905E0100955E01008A5F01008F5F19
:102C000001007263010071640100E9640100EE6477
:102C10000100666501006B65010060660100656684
:102C200001005A6701005F6701003A6D01003B6DCA
:102C30000100306E0100356E01002A6F01002F6F18
:102C400001001273010011740100067501000B757B
:102C500001000076010005760100FA760100FF769A
:102C60000100E67A0100E17B0100D67C0100DB7CFB
:102C70000100D07D0100D57D0100CA7E0100CF7E1C
:102C80000100BC810100BD810100358201003A8252
:102C90000100B2820100B7820100AC830100B18360
:102CA0000100A6840100AB840100A0850100A58578
:102CB00001009A8601009F8601007A8C01007B8CBE
:102CC0000100708D0100758D01006A8E01006F8E0C
:102CD00001005C9101005D910100D5910100DA9144
:102CE000010052920100579201004C930100519350
:102CF0000100469401004B94010040950100459568
:102D000001003A9601003F960100229A0100219BA2
:102D10000100999B01009E9B0100169C01001B9CD9
:102D20000100109D0100159D01000A9E01000F9EEB
:102D30000100F2A10100F1A2010069A301006EA34C
:102D40000100E6A30100EBA30100E0A40100E5A45B
:102D50000100DAA50100DFA50100C6A90100BBAB97
:102D60000100B0AC0100B5AC0100AAAD0100AFADEF
:102D700001009CB001009DB0010092B1010097B12B
:102D8000010084B4010085B401007AB501007FB56B
:102D900001005ABB01004FBD01003EBF010043BF0F
:102DA0000100BBBF0100C0BF010038C001003DC031
:102DB0000100B5C00100BAC0010032C1010037C135
:102DC0000100AFC10100B4C101002CC2010031C239
:102DD0000100A9C20100AEC2010026C301002BC33D
:102DE0000100A3C30100A8C3010020C4010025C441
:102DF00001009DC40100A2C401001AC501001FC545
:102E0000010097C501009CC5010014C6010019C648
:102E1000010091C6010096C601000EC7010013C74C
:102E2000010008C801000DC8010002C9010007C95E
:102E30000100FCC9010001CA010079CA01007ECA73
:102E40000100F6CA0100FBCA0100A1CB0100A2CB20
:102E5000010048CC010049CC0100EECC0100EFCCD0
:102E60000100DCCF0100DDCF010055D001005AD0B8
:102E70000100D6D00100D7D001004FD1010054D1BC
:102E80000100CCD10100D1D1010049D201004ED2C4
:102E90000100C6D20100CBD2010043D3010048D3C8
:102EA0000100C0D30100C5D301003DD4010042D4CC
:102EB0000100BAD40100BFD4010065D5010066D578
:102EC00001000CD601000DD60100B2D60100B3D628
:102ED000010059D701005AD7010000D8010001D8DC
:102EE0000100A6D80100A7D801004DD901004ED994
:102EF0000100F4D90100F5D901009ADA01009BDA4A
:102F0000010041DB010042DB0100E8DB0100E9DBFD
:102F100001008EDC01008FDC01007EDE010083DE1B
:102F20000100FBDE010000DF010078DF01007DDF32
:102F30000100F5DF0100FADF010072E0010077E037
:102F40000100EFE00100F4E001006CE1010071E13B
:102F50000100E9E10100EEE1010066E201006BE23F
:102F60000100E3E20100E8E2010060E3010065E343
:102F70000100DDE30100E2E301005AE401005FE447
:102F8000010052E6010053E60100CBE60100D0E665
:102F9000010048E701004DE70100C5E70100CAE76D
:102FA000010042E8010047E80100BFE80100C4E871
:102FB00001003CE9010041E90100B9E90100BEE975
:102FC000010036EA01003BEA010075EA01007AEAF5
:102FD0000100B3EA0100B8EA0100F2EA0100F7EAF1
:102FE000010030EB010035EB01006FEB010074EBE9
:102FF0000100ADEB0100B2EB0100ECEB0100F1EBE5
:1030000001002AEC01002FEC01000AF2010005F397
:1030100001007DF3010082F30100FAF30100FFF3E8
:10302000010077F401007CF40100F4F40100F9F4EC
:10303000010071F5010076F50100EEF50100F3F5F0
:1030400001006BF6010070F60100E8F60100EDF6F4
:10305000010065F701006AF70100E2F70100E7F7F8
:1030600001005FF8010064F80100DCF80100E1F8FC
:10307000010059F901005EF90100D6F90100DBF900
:10308000010053FA010058FA0100D0FA0100D5FA04
:1030900001004DFB010052FB0100CAFB0100CFFB08
:1030A0000100BEFD0100C3FD01003BFE010040FE2A
:1030B0000100B8FE0100BDFE010035FF01003AFF2E
:1030C0000100B2FF0100B7FF01002F000200340031
:1030D0000200AC000200B1000200290102002E0132
:1030E0000200A6010200AB01020023020200280236
:1030F0000200A0020200A50202001D03020022033A
:1031000002009A0302009F030200170402001C043D
:103110000200940402009904020011050200160541
:1031200002008E05020093050200880602008D064B
:10313000020082070200870702007C080200810863
:103140000200F9080200FE080200760902007B096D
:103150000200210A0200220A0200C80A0200C90A6B
:1031600002006E0B02006F0B02005C0E02005D0E8F
:103170000200D50E0200DA0E0200560F0200570FB1
:103180000200CF0F0200D40F02004C1002005110B9
:103190000200C9100200CE100200461102004B11BD
:1031A0000200C3110200C8110200401202004512C1
:1031B0000200BD120200C21202003A1302003F13C5
:1031C0000200E5130200E61302008C1402008D14C5
:1031D00002003215020033150200D9150200DA157B
:1031E000020080160200811602002617020027172F
:1031F0000200CD170200CE170200741802007518E5
:1032000002001A1902001B190200C1190200C2199A
:103210000200681A0200691A02000E1B02000F1B4E
:103220000200FE1C0200031D02007B1D0200801D27
:103230000200F81D0200FD1D0200751E02007A1E2C
:103240000200F21E0200F71E02006F1F0200741F30
:103250000200EC1F0200F11F0200692002006E2034
:103260000200E6200200EB20020063210200682138
:103270000200E0210200E52102005D22020062223C
:103280000200DA220200DF220200572302005C2340
:103290000200D4230200D923020051240200562444
:1032A0000200CE240200D3240200C8250200CD254E
:1032B0000200C2260200C7260200BC270200C12766
:1032C0000200392802003E280200B6280200BB286E
:1032D00002007629020077290200312A0200322AF0
:1032E0000200AA2A0200AF2A02007E3202004F3AF0
:1032F0000200323E0200373E0200AD3F0200AE3F08
:10330000020024410200254102001A4202001F422D
:1033100002000047020001470200F6470200FB4797
:103320000200EA490200EF490200E34B0200E34BCE
:103330000200D24D0200D74D0200C64F0200CB4F13
:103340000200C0500200C5500200B8520200B9523B
:103350000200AE530200B3530200AD540200AD545C
:103360000200A2550200A75502009C560200A15679
:103370000200965702009B57020090580200955891
:1033800002008A5902008F590200725D0200775DC7
:103390000200ED5E0200EE5E020064600200656005
:1033A00002005A6102005F61020042650200476547
:1033B0000200BD660200BE66020034680200356885
:1033C00002002A6902002F6902001E6B0200236BB3
:1033D0000200166D0200176D0200066F02000B6FEF
:1033E0000200FA700200FF700200E2740200E7744B
:1033F00002006475020064750200DC750200E1756C
:103400000200597602005E760200D6760200DB7674
:1034100002005377020058770200D0770200D57778
:1034200002004D78020052780200CE780200CF7878
:103430000200457A0200467A0200BC7B0200BD7B96
:103440000200B27C0200B77C02002D7E02002E7EBC
:103450000200A47F0200A57F02009A8002009F80E4
:1034600002008C83020087840200FD850200FE8535
:1034700002007487020075870200ED8702006F88E2
:1034800002005E8A0200638A0200528C0200578C9E
:103490000200468E02004B8E02003A9002003F90DE
:1034A000020022940200279402001497020015974C
:1034B00002008D970200929702000A9802000F986E
:1034C00002008599020086990200FC9A0200FD9A8A
:1034D0000200F29B0200F79B02006D9D02006E9DB0
:1034E0000200E49E0200E59E0200DA9F0200DF9FD8
:1034F0000200CCA20200C7A302003DA502003EA527
:103500000200B4A60200B5A60200AEA70200AFA753
:10351000020025A9020026A902009CAA02009DAA79
:10352000020015AB020097AB02000DAD02000EAD1C
:10353000020084AE020085AE0200FDAE02007FAF45
:10354000020072B1020073B1020062B3020067B3FD
:1035500002005CB4020061B4020056B502005BB523
:10356000020050B6020055B602004AB702004FB73B
:1035700002003CBA02003DBA0200B5BA0200BABA73
:10358000020032BB020037BB02002CBC020031BC7F
:10359000020026BD02002BBD020020BE020025BE97
:1035A00002001ABF02001FBF0200FAC40200FBC4DF
:1035B0000200F0C50200F5C50200EAC60200EFC62F
:1035C0000200DCC90200DDC9020055CA02005ACA65
:1035D0000200D2CA0200D7CA0200CCCB0200D1CB73
:1035E0000200C6CC0200CBCC0200C0CD0200C5CD8B
:1035F0000200BACE0200BFCE0200A2D20200A1D3C6
:10360000020019D402001ED4020096D402009BD4FA
:10361000020090D5020095D502008AD602008FD60E
:10362000020072DA020071DB0200E9DB0200EEDB6D
:10363000020066DC02006BDC020060DD020065DD7A
:1036400002005ADE02005FDE02003AE402003BE4C0
:10365000020030E5020035E502002AE602002FE60E
:10366000020012EA020011EB020006EC02000BEC71
:10367000020000ED020005ED0200FAED0200FFED90
:103680000200E6F10200E1F20200D6F30200DBF3F1
:103690000200D0F40200D5F40200CAF50200CFF512
:1036A0000200BCF80200BDF8020035F902003AF948
:1036B0000200B2F90200B7F90200ACFA0200B1FA56
:1036C0000200A6FB0200ABFB0200A0FC0200A5FC6E
:1036D00002009AFD02009FFD02007A0303007B03B3
:1036E000030070040300750403006A0503006F05FE
:1036F00003005C0803005D080300D5080300DA0836
:10370000030052090300570903004C0A0300510A41
:103710000300460B03004B0B0300400C0300450C59
:1037200003003A0D03003F0D030022110300211294
:103730000300991203009E120300161303001B13CB
:10374000030010140300151403000A1503000F15DD
:103750000300F2180300F1190300691A03006E1A3E
:103760000300E61A0300EB1A0300E01B0300E51B4D
:103770000300DA1C0300DF1C0300C6200300BB2289
:103780000300B0230300B5230300AA240300AF24E1
:1037900003009C2703009D2703009228030097281D
:1037A0000300842B0300852B03007A2C03007F2C5D
:1037B000030066300300613103005A3203005B32BC
:1037C000030054330300553303004E3403004F34D9
:1037D00003003C3703003D37030036380300373819
:1037E0000300AD390300AE390300243B0300253B41
:1037F00003001E3C03001F3C0300FA4103000000CD
:103800000000000000000000000000007003000045
:103810007003000016040000960400001604000067
:103820009604000016040000700300000F0300005F
:10383000160400007003000070030000160400006E
:1038400096040000160400009604000074050000B1
:1038500026050000960400001604000096040000EF
:103860001604000096040000160400007003000017
:103870000F03000016040000960400001604000068
:103880000F030000BA0200004B0200009302000088
:10389000BA0200000F030000930200004B02000078
:1038A0004B0200000F0300000F030000BA020000EB
:1038B0000F030000A4030000700300000F030000CA
:1038C000BA0200000F03000016040000A403000069
:1038D000700300000F03000070030000A403000049
:1038E00016040000960400000F0300000F03000000
:1038F000BA0200000F030000A403000070030000E0
:103900000F030000BA0200000F0300004B0200008A
:10391000BA0200000F0300004B0200000B0200007F
:103920004B020000BA0200000F0300004B0200002F
:10393000700300000F030000BA02000093020000B1
:103940000B020000B80100004B02000070030000F1
:103950000F030000BA0200004B020000B801000093
:103960004B020000BA020000930200008701000031
:103970000B020000B8010000BA020000BA02000009
:103980000F030000700300007003000070030000CC
:10399000DB0300001604000016040000DB03000037
:1039A0007003000016040000960400005404000098
:1039B0001501000049010000B80100002A020000C2
:1039C00093020000700300005404000096040000FD
:1039D000700300000F0300000F030000BA02000094
:1039E0000F0300004B0200004B0200009302000096
:1039F000BA020000BA020000930200004B0200006D
:103A00000B0200004B020000930200007003000054
:103A10001604000096040000700300000F0300006D
:103A20000F030000BA0200000F0300004B02000069
:103A30004B02000093020000BA020000BA0200002C
:103A40000F0300007003000070030000DB030000A0
:103A5000160400005404000096040000260500002F
:103A600070030000700300001604000096040000BC
:103A70001604000096040000160400007003000005
:103A80000F03000016040000700300007003000024
:103A900016040000960400001604000096040000BE
:103AA00074050000260500009604000016040000BE
:103AB000960400001604000096040000160400009E
:103AC000700300000F0300001604000096040000BD
:103AD000160400000F030000BA0200004B020000B1
:103AE00093020000BA0200000F0300007003000000
:103AF000A4030000700300007003000070030000C6
:103B0000160400009604000016040000960400004D
:103B100016040000700300000F03000016040000EC
:103B200070030000700300001604000096040000FB
:103B3000160400009604000074050000260500002D
:103B4000960400001604000096040000160400000D
:103B50009604000016040000700300000F0300002C
:103B60001604000096040000160400000F03000075
:103B7000BA0200004B02000093020000BA020000EB
:103B80000F030000930200004B0200004B020000F4
:103B90004B0200000F03000070030000A4030000AC
:103BA00016040000A403000070030000A40300003A
:103BB0004B02000070030000A40300000B02000091
:103BC0000F03000070030000D2010000BA020000E1
:103BD0000F030000B801000087010000B8010000D9
:103BE000D20100000B0200004B0200000B0200009B
:103BF0004B02000087010000870100002501000042
:103C0000C3000000DC000000E90000000501000026
:103C1000DC000000E9000000050100005D0100007B
:103C200025010000D201000025010000B8010000BC
:103C300005010000B8010000E90000008701000054
:103C4000E90000005D010000050100005D010000C9
:103C5000870100002501000087010000B801000075
:103C6000D20100000B020000D2010000B8010000E8
:103C7000D20100004B0200000F030000700300009F
:103C8000A40300001604000096040000A403000032
:103C9000700300000F0300004B020000D20100007F
:103CA000B8010000870100004B0200000B02000079
:103CB000D2010000B80100008701000025010000CA
:103CC000E9000000DC0000002501000025010000E3
:103CD00087010000B80100000B0200004B02000049
:103CE0000F0300004B020000700300004B020000B5
:103CF000A40300001604000096040000160400004F
:103D0000A403000070030000A4030000700300007F
:103D10000F0300004B0200000F03000070030000BF
:103D2000A403000016040000A403000070030000B8
:103D3000A40300004B02000070030000A403000075
:103D40000B0200000F03000070030000D20100000E
:103D5000BA0200000F030000B80100008701000054
:103D6000B8010000D20100000B0200004B0200006D
:103D70000B0200004B0200008701000087010000D9
:103D800025010000C3000000DC000000E900000085
:103D900005010000DC000000E90000000501000052
:103DA0005D01000025010000D20100002501000096
:103DB000B801000005010000B8010000E9000000A2
:103DC00087010000E90000005D010000050100001E
:103DD0005D0100002501000087010000B80100001E
:103DE000D20100000B020000D2010000B801000067
:103DF000D201000025010000B8010000D20100003E
:103E00000501000087010000B8010000E900000082
:103E10005D01000087010000DC000000C30000001D
:103E2000DC000000E90000000501000025010000A1
:103E30000501000025010000C30000006E02000023
:103E4000A40300003E030000E3020000BA020000E9
:103E50002A020000D20100006E020000A40300004C
:103E60003E030000E3020000D2010000D201000086
:103E70006E020000E3020000BA0200009F01000091
:103E80002A020000D2010000E3020000E302000069
:103E90003E030000A4030000A4030000A4030000EC
:103EA000160400005404000054040000160400002E
:103EB000A403000054040000DC0400009604000089
:103EC000250100005D010000D20100004B0200004E
:103ED000BA020000A403000096040000DC04000005
:103EE000A40300003E0300003E030000E3020000C4
:103EF0003E0300006E0200006E020000BA020000E5
:103F0000E3020000E3020000BA0200006E020000BB
:103F10002A0200006E020000BA020000A4030000A2
:103F200054040000DC040000A40300003E03000071
:103F30003E030000E30200003E0300006E020000AA
:103F40006E020000BA020000E3020000E30200007B
:103F50003E030000A4030000A403000016040000B8
:103F60005404000096040000DC0400007405000006
:103F7000A4030000A403000054040000DC040000BB
:103F800054040000DC04000054040000A4030000FA
:103F90003E03000054040000A4030000A40300003A
:103FA00054040000DC04000054040000DC040000A1
:103FB000C705000074050000DC0400005404000084
:103FC000DC04000054040000DC0400005404000081
:103FD000A40300003E03000054040000DC040000C1
:103FE000540400003E030000E30200006E020000E3
:103FF000BA020000E30200003E030000A403000038
:10400000DB030000A4030000A4030000A4030000DD
:1040100054040000DC04000054040000DC04000030
:1040200054040000A40300003E03000054040000F8
:10403000A4030000A403000054040000DC040000FA
:1040400054040000DC040000C705000074050000F3
:10405000DC04000054040000DC04000054040000F0
:10406000DC04000054040000A40300003E03000030
:1040700054040000DC040000540400003E0300006F
:10408000E30200006E020000BA020000E30200003A
:104090003E030000BA0200006E0200006E02000043
:1040A0006E0200006E020000BA020000E30200008F
:1040B0003E030000BA0200003E030000540400006A
:1040C000DC04000000000000240027002A0000009B
:1040D0000000250028002B00020100000000002342
:1040E000002600290004040404040404040202025B
:1040F0000202020303030303030102040810204029
:1041000080010204081020010204081020000000B1
:104110000800020100000304070000000000000086
:104120000000FC2811241FBECFEFD8E0DEBFCDBFBA
:1041300011E0A0E0B1E0E4EEF2E502C005900D92DE
:10414000A633B107D9F722E0A6E3B1E001C01D9282
:10415000A631B207E1F710E2C2E9D0E204C021972C
:10416000FE010E946A29C139D107C9F70E947D2446
:104170000C9470290C940000AF92BF92CF92DF9202
:10418000EF92FF920F931F93CF93DF936C017B010C
:104190008B01040F151FEB015E01AE18BF08C0179D
:1041A000D10759F06991D601ED91FC910190F08110
:1041B000E02DC6010995892B79F7C501DF91CF91D3
:1041C0001F910F91FF90EF90DF90CF90BF90AF9035
:1041D0000895FC01538D448D252F30E0842F90E00D
:1041E000821B930B541710F0CF96089501970895F2
:1041F000FC01918D828D981761F0A28DAE0FBF2FBB
:10420000B11D5D968C91928D9F5F9F73928F90E010
:1042100008958FEF9FEF0895FC01918D828D98177F
:1042200031F0828DE80FF11D858D90E008958FEFBC
:104230009FEF0895FC01918D228D892F90E0805C85
:104240009F4F821B91098F739927089589E791E009
:104250000E941A2121E0892B09F420E0822F089581
:1042600080E090E0892B29F00E94262181110C9496
:1042700000000895FC01A48DA80FB92FB11DA35A09
:10428000BF4F2C91848D90E001968F739927848F76
:10429000A689B7892C93A089B1898C918370806499
:1042A0008C93938D848D981306C00288F389E02D3A
:1042B00080818F7D80830895EF92FF920F931F93EB
:1042C000CF93DF93EC0181E0888F9B8D8C8D9813C9
:1042D0001AC0E889F989808185FF15C09FB7F894D5
:1042E000EE89FF896083E889F98980818370806421
:1042F00080839FBF81E090E0DF91CF911F910F916C
:10430000FF90EF900895F62E0B8D10E00F5F1F4F7A
:104310000F731127E02E8C8D8E110CC00FB607FC89
:10432000FACFE889F989808185FFF5CFCE010E9417
:104330003A21F1CFEB8DEC0FFD2FF11DE35AFF4F2A
:10434000F0829FB7F8940B8FEA89FB8980818062A5
:10435000CFCFCF93DF93EC01888D8823B9F0AA8962
:10436000BB89E889F9898C9185FD03C0808186FD30
:104370000DC00FB607FCF7CF8C9185FFF2CF80817F
:1043800085FFEDCFCE010E943A21E9CFDF91CF9199
:104390000895833081F028F4813099F08230A9F0BB
:1043A00008958730A9F08830C9F08430B1F4809145
:1043B00080008F7D03C0809180008F778093800084
:1043C000089584B58F7784BD089584B58F7DFBCF24
:1043D0008091B0008F778093B00008958091B000F5
:1043E0008F7DF9CFCF93DF93EDE0F1E48491E9EF96
:1043F000F0E4D491E5EEF0E4C491CC23A1F0811176
:104400000E94C921EC2FF0E0EE0FFF1FE552FF4B99
:10441000A591B491EC91ED2381E090E009F480E066
:10442000DF91CF91089580E090E0FACF1F93CF9372
:10443000DF93282F30E0F901E35FFE4B8491F9010F
:10444000E750FF4BD491F901EB51FF4BC491CC23C2
:10445000A9F0162F81110E94C921EC2FF0E0EE0F78
:10446000FF1FE253FF4BA591B4918FB7F894EC91E5
:10447000111108C0D095DE23DC938FBFDF91CF915F
:104480001F910895DE2BF8CFCF93DF9390E0FC01CE
:10449000E750FF4B24918B519F4BFC018491882363
:1044A000D1F090E0880F991FFC01EC53FF4BA591D0
:1044B000B491FC01E253FF4BC591D491623071F489
:1044C0009FB7F8943C91822F809583238C93E88149
:1044D0002E2B28839FBFDF91CF9108958FB7F8943B
:1044E000EC912E2B2C938FBFF6CF3FB7F894809191
:1044F000370190913801A0913901B0913A0126B568
:10450000A89B05C02F3F19F00196A11DB11D3FBF0B
:10451000BA2FA92F982F8827BC01CD01620F711DDA
:10452000811D911D42E0660F771F881F991F4A95D4
:10453000D1F708950C947522FC019181913069F0B6
:10454000923089F0911105C090916E009D7F9093FB
:104550006E0060E080810C94162290916F009D7F28
:1045600090936F00F6CF909170009D7F90937000B4
:10457000F0CFCF93DF93FC0101900020E9F7319752
:10458000AF01481B590BBC0189E791E00E94BC2098
:10459000EC0142E050E062E271E089E791E00E94C4
:1045A000BC208C0F9D1FDF91CF9108951F920F9219
:1045B0000FB60F9211242F933F934F935F936F93F6
:1045C0007F938F939F93AF93BF93EF93FF9389E76D
:1045D00091E00E943A21FF91EF91BF91AF919F919D
:1045E0008F917F916F915F914F913F912F910F909C
:1045F0000FBE0F901F9018951F920F920FB60F923B
:1046000011242F938F939F93EF93FF93E091890150
:10461000F0918A018081E0918F01F091900182FDFB
:104620001BC09081809192018F5F8F7320919301C5
:10463000821741F0E0919201F0E0E758FE4F958F2C
:1046400080939201FF91EF919F918F912F910F9005
:104650000FBE0F901F9018958081F4CF1F920F927C
:104660000FB60F9211242F933F938F939F93AF9385
:10467000BF938091450190914601A0914701B0916F
:1046800048013091360123E0230F2D3758F501966C
:10469000A11DB11D209336018093450190934601E1
:1046A000A0934701B0934801809137019091380160
:1046B000A0913901B0913A010196A11DB11D8093DD
:1046C000370190933801A0933901B0933A01BF911B
:1046D000AF919F918F913F912F910F900FBE0F90AF
:1046E0001F90189526E8230F0296A11DB11DD2CF69
:1046F0001F920F920FB60F9211242F933F938F9317
:104700009F93AF93BF93EF93FF9380914901909153
:104710004A01A0914B01B0914C010097A105B10550
:1047200031F130913B01E0913C01F0913D0120815C
:1047300023272083181619061A061B061CF4019756
:10474000A109B1098093490190934A01A0934B01BB
:10475000B0934C01FF91EF91BF91AF919F918F91D9
:104760003F912F910F900FBE0F901F9018952091A1
:1047700070002D7F2093700020913B01E0913C015F
:10478000F0913D013081209523232083DBCF1F92C0
:104790000F920FB60F9211248F939F93AF93BF93F5
:1047A000EF93FF9380914D0190914E01A0914F01A5
:1047B000B0915001892B8A2B8B2BA1F190913E0156
:1047C000E0913F01F09140018081892780838091B1
:1047D0004D0190914E01A0914F01B09150011816DA
:1047E00019061A061B069CF480914D0190914E010A
:1047F000A0914F01B09150010197A109B109809397
:104800004D0190934E01A0934F01B0935001FF9141
:10481000EF91BF91AF919F918F910F900FBE0F902D
:104820001F90189580916F008D7F80936F0080910D
:104830003E01E0913F01F0914001908180958923F4
:104840008083E5CF1F920F920FB60F9211248F93A2
:104850009F93AF93BF93EF93FF93809151019091FA
:104860005201A0915301B0915401892B8A2B8B2BBB
:10487000A1F190914101E0914201F09143018081C9
:10488000892780838091510190915201A091530119
:10489000B0915401181619061A061B069CF4809153
:1048A000510190915201A0915301B091540101978F
:1048B000A109B1098093510190935201A093530132
:1048C000B0935401FF91EF91BF91AF919F918F9160
:1048D0000F900FBE0F901F90189580916E008D7FE6
:1048E00080936E0080914101E0914201F09143017B
:1048F0009081809589238083E5CFCF93DF93CDB7D7
:10490000DEB72A970FB6F894DEBF0FBECDBF7894FE
:1049100084B5826084BD84B5816084BD85B58260C4
:1049200085BD85B5816085BD80916E008160809375
:104930006E001092810080918100826080938100DE
:1049400080918100816080938100809180008160EE
:10495000809380008091B10084608093B100809149
:10496000B00081608093B00080917A008460809371
:104970007A0080917A00826080937A0080917A0038
:10498000816080937A0080917A00806880937A00B9
:104990001092C100E0918901F0918A0182E0808348
:1049A000E0918501F09186011082E0918701F091FC
:1049B00088018FEC808310929101E0918D01F0913C
:1049C0008E0186E08083E0918B01F0918C018081E3
:1049D00080618083E0918B01F0918C0180818860FF
:1049E0008083E0918B01F0918C01808180688083CD
:1049F000E0918B01F0918C0180818F7D808362E05A
:104A000080E00E94442261E08DE00E94442261E047
:104A100089E00E94442261E08AE00E944422A5E5E8
:104A2000B1E005E711E069E671E04DE651E029E506
:104A300031E082E1282E81E0382EFF24FA94F10142
:104A400086819781F90191838083FA0111921192F5
:104A500011921192AF01FB0111921192BF01F80165
:104A6000119211928F01F101908180914401833064
:104A700008F01FC19C93E82FF0E0E852FF4BE4914F
:104A80001196EC9311978F5F80934401E13009F404
:104A9000C4C008F4A2C0E23009F4E5C0F901808185
:104AA0009181FC01E150F04CCF01880F991F880FD4
:104AB000991FF101C480D580F601E80FF91F4590D8
:104AC00055906590749080905D0190905E01A090EB
:104AD0005F01B090600184149504A604B70410F43B
:104AE0005301420180925D0190925E01A0925F01AC
:104AF000B0926001F8E02F0E311C2E5F3F4F1296EE
:104B000082E2281681E0380609F099CF0E949A22A5
:104B100060E08DE00E94162200E010E00E94F22189
:104B20009C838B83019711F00B831C830E94F221DD
:104B30009A838983892B09F0C0C0AB81BC8111970E
:104B400009F0BBC061E08DE00E94162285E291E091
:104B50000E94B92269E671E00DE6C02E01E0D02E78
:104B600045E751E0A2E1B1E01496ED90FC90159775
:104B7000FA0180819181FC01EE0FFF1FEE0FFF1FF4
:104B8000EE0DFF1D0591159125913491F6010083DD
:104B9000118322833383FA012081318189010F5FE0
:104BA0001F4FC801880F991F880F991F8E0D9F1DD9
:104BB000FC0185909590A590B490F60140805180BD
:104BC00062807380481459046A047B0409F078C039
:104BD000FA0111830083FC01D5CF14BC15BC84B548
:104BE000826084BD85B5816085BD8C9190E0FC01BB
:104BF000EB51FF4BE491F0E0EE0FFF1FE253FF4B50
:104C0000C590D490D0924301C0924201FC01E7507C
:104C1000FF4BE491E093410141CF1092800010924C
:104C20008100809181008860809381008091810063
:104C30008160809381008C9190E0FC01EB51FF4BEF
:104C4000E491F0E0EE0FFF1FE253FF4BC590D490CC
:104C5000D0924001C0923F01FC01E750FF4BE4912C
:104C6000E0933E011BCF1092B0001092B1008091F2
:104C7000B00082608093B0008091B1008160809329
:104C8000B1008C9190E0FC01EB51FF4BE491F0E01E
:104C9000EE0FFF1FE253FF4BC590D490D0923D0121
:104CA000C0923C01FC01E750FF4BE491E0933B01D3
:104CB000F5CE1196FC921197F1CE0B811C812ECF6F
:104CC00090E080E01216130664F421503048220F61
:104CD000331F1296ED91FC911397E20FF31F85910C
:104CE0009491FB0181939193BF0118964E5F5F4FA2
:104CF000F4E0CF0ED11C81E0A232B80709F034CF26
:104D00002FB7F8948091450190914601A0914701F9
:104D1000B09148012FBF8093650190936601A093E5
:104D20006701B09368011E821D824091610150911C
:104D30006201609163017091640180915D019091C5
:104D40005E01A0915F01B091600184179507A607ED
:104D5000B70708F42AC2AD81BE81119709F425C2B4
:104D60002FB7F8948091450190914601A091470199
:104D7000B09148012FBF409165015091660160914B
:104D8000670170916801841B950BA60BB70B80938C
:104D9000610190936201A0936301B0936401E5E522
:104DA000F1E0FA87E9877DE6272E71E0372E89E565
:104DB00091E09C838B83E5E7CE2EE1E0DE2EF12CA3
:104DC000E12CAB81BC818D919D91BC83AB83F601BD
:104DD00020813181281739070CF0E2C10E94F221AD
:104DE000019721F481E090E09A8389830E94F22167
:104DF000892B61F4A981BA81119741F480E391E094
:104E00000E94B922E1E0F0E0FE83ED83C7018759FB
:104E10009E4F98878F83DC018D909C901814190405
:104E20000CF0B9C1E985FA85818187FD02C161E095
:104E300080810E944422A985BA8511961C91092C73
:104E4000000CAA08BB08812F8D7F09F052C160E0D9
:104E500072E18AE790E0A50194010E9429292901C5
:104E60003A01DA01C9010197A109B1098F3F910502
:104E7000A105B10509F00CF4B8C060E472E48FE05C
:104E800090E0A50194010E9429292150310941098E
:104E90005109123009F06AC082E02F3F3105410507
:104EA000510509F00CF45BC060E970ED83E090E01F
:104EB000A50194010E942929215031094109510974
:104EC00083E02F3F31054105510509F00CF447C03F
:104ED00068E478EE81E090E0A50194010E94292920
:104EE000215031094109510984E02F3F3105410525
:104EF0005105A9F1A4F164E274EF80E090E0A5010E
:104F000094010E942929215031094109510985E064
:104F10002F3F31054105510511F108F162E17AE7B2
:104F200080E090E0A50194010E94292921503109D7
:104F30004109510986E02F3F31054105510579F0BE
:104F400070F09AE075946794579447949A95D1F7C6
:104F5000A3019201215031094109510987E0909143
:104F6000B100987F892B8093B10047C02F3F310556
:104F70004105510509F00CF4BAC068E478EE81E00F
:104F800090E0A50194010E9429292150310941098D
:104F9000510984E01111BCCF83E02F3F3105410559
:104FA000510539F134F162E17AE780E090E0A50142
:104FB00094010E942929215031094109510984E0B5
:104FC0002F3F310541055105A1F098F08AE0759415
:104FD0006794579447948A95D1F7A3019201215081
:104FE00031094109510985E004C09C0181E011119A
:104FF000B6CF95B5987F892B85BDE985FA858181E6
:10500000813009F4A0C0823009F4B2C0811111C00E
:1050100027BD8FEF9FEFDC018093510190935201E8
:10502000A0935301B093540180916E0082608093ED
:105030006E00D1014D915D916D917C9180916101E6
:1050400090916201A0916301B0916401841795076A
:10505000A607B70708F437C0F60120813181C901DE
:10506000019691838083EB81FC813297408151814D
:105070008417950744F5D701AA0FBB1FAA0FBB1FC2
:10508000AE5EBE4F220F331F1296ED91FC91139727
:10509000E20FF31F45915491EF81F88551834083CE
:1050A000880F991F880F991F1496ED91FC91E80FB6
:1050B000F91F4591559165917491D1014D935D937F
:1050C0006D937C931397B2E0CB0ED11CE4E02E0ECF
:1050D000311C89859A8502969A87898792E0E90E24
:1050E000F11CA4E0EA16F10409F41FCE6ACE82E0B6
:1050F0007ECF60E072E18AE790E0A50194010E9412
:105100002929215031094109510991E02115310521
:10511000B1E04B0751056CF068E478EE81E090E077
:10512000A50194010E942929215031094109510901
:1051300093E0113009F061CF80918100887F892B45
:10514000809381005ACF30938900209388008FEF9D
:105150009FEFDC0180934D0190934E01A0934F018E
:10516000B093500180916F00826080936F0061CF97
:105170002093B3008FEF9FEFDC0180934901909360
:105180004A01A0934B01B0934C0180917000826062
:10519000809370004ECF89859A850E949C2249CFCA
:1051A00089859A850E949C228ECF1092610110926F
:1051B00062011092630110926401109276011092C4
:1051C000750185E591E00E949C2210927801109271
:1051D000770187E591E00E949C220E949A2280E05C
:1051E00090E0892B09F494CC0E942621882309F4AD
:1051F0008FCC0E9400008CCCE9E7F1E01382128290
:1052000088EE93E0A0E0B0E084839583A683B78323
:1052100084E091E09183808385EC90E0958784879A
:1052200084EC90E09787868780EC90E0918B808B70
:1052300081EC90E0938B828B82EC90E0958B848B59
:1052400086EC90E0978B868B118E128E138E148EC7
:105250000895052E97FB1EF400940E94402957FDE7
:1052600007D00E94482907FC03D04EF40C94402933
:1052700050954095309521953F4F4F4F5F4F089582
:1052800090958095709561957F4F8F4F9F4F0895B2
:10529000A1E21A2EAA1BBB1BFD010DC0AA1FBB1F3A
:1052A000EE1FFF1FA217B307E407F50720F0A21BAC
:1052B000B30BE40BF50B661F771F881F991F1A9419
:1052C00069F760957095809590959B01AC01BD0143
:1052D000CF010895EE0FFF1F0590F491E02D099482
:0452E000F894FFCF70
:1052E400000000005C21BC20E920A9211A21F8203B
:1052F4000C210C00FE37722663040900C4196800EF
:1053040057060D0A00506C6179696E672E2E2E00C7
:06531400736B69700000DC
:00000001FF
