:100000000C944B160C9473160C9473160C94731674
:100010000C9473160C9473160C9473160C9431197B
:100020000C9473160C9473160C9473160C9480191C
:100030000C9473160C9473160C94DB190C947316B1
:100040000C94E7180C9473160C94B5180C948F1834
:100050000C9473160C9473160C9473160C947316FC
:100060000C9473160C94731600000000E407000053
:100070002409000035090000740A0000860A000007
:10008000C50B0000D70B0000760C00007F0C0000B1
:100090001E0D0000270D0000670E0000780E000006
:1000A000B70F0000C90F0000481200006B120000DB
:1000B00012130000BB130000FB1400000C1500001D
:1000C000B41500005D16000005170000AE17000013
:1000D000ED180000FF18000052190000A7190000D9
:1000E000461A00004F1A0000F71A0000A01B00007B
:1000F000DF1C0000F11C0000441D0000991D0000E1
:10010000391E0000421E0000E91E0000931F00007F
:10011000D2200000E320000023220000342200004F
:100120007323000085230000C4240000D6240000AF
:10013000152600002726000066270000772700000C
:10014000B7280000C8280000072A0000192A00006C
:10015000582B00006A2B0000A92C0000BB2C0000CB
:10016000FA2D00000B2E00004B2F00005C2F00002A
:100170009B300000AD300000EC310000FE3100008B
:100180003D3300004E3300008E3400009F340000E9
:10019000DF350000F03500002F3700004137000048
:1001A000C0390000E23900008A3A0000333B000009
:1001B000733C0000843C0000C33D0000D53D0000BE
:1001C000143F0000263F000065400000764000001C
:1001D000B6410000C741000006430000184300007C
:1001E0005744000069440000A8450000BA450000DB
:1001F000F94600000A4700004A4800005B4800003A
:100200009A490000AC490000EB4A0000FD4A00009A
:100210003C4C00004E4C00008D4D00009E4D0000F7
:10022000DE4E0000EF4E00002E5000004050000057
:100230007F51000091510000D0520000E2520000B6
:100240002154000032540000725500008355000014
:10025000C2560000D45600005359000076590000E1
:100260001D5A0000C65A0000065C0000175C000022
:10027000565D0000685D0000A75E0000B95E0000EA
:10028000605F0000615F0000096000000A6000001C
:10029000B1600000B26000005A6100005A610000C5
:1002A0000262000003620000A2620000AB62000074
:1002B0005363000054630000FB630000FC63000014
:1002C000A4640000A46400004C6500004D650000BB
:1002D000F4650000F5650000946600009D6600006E
:1002E0004567000046670000EE670000EE6700000B
:1002F00096680000976800003E6900003F690000B2
:10030000E7690000E7690000876A0000906A000062
:10031000386B0000386B0000E06B0000E16B000000
:10032000886C0000896C0000316D0000316D0000A8
:10033000D96D0000DA6D0000796E0000826E000059
:100340002A6F00002B6F0000D26F0000D36F0000F7
:100350007B7000007B70000023710000247100009E
:10036000CC710000CC7100006C720000757200004E
:100370001C7300001D730000C5730000C5730000EE
:100380006D7400006E740000167500001675000094
:10039000BE750000BF7500005E7600006776000045
:1003A0000F7700000F770000B7770000B8770000E4
:1003B000607800006078000008790000097900008A
:1003C000B0790000B1790000507A0000597A00003D
:1003D000997B0000AA7B0000497C0000537C000050
:1003E000F27C0000FB7C00003A7E00004C7E0000A6
:1003F0008B7F00009D7F00003C8000004580000056
:10040000E4800000ED8000002D8200003E820000AC
:100410007D8300008F8300002E840000378400005D
:10042000D7840000E08400001F86000031860000B1
:100430007087000081870000218800002A88000062
:10044000C9880000D2880000118A0000238A0000B9
:10045000028C00001C8C0000FB8D0000158E00003B
:10046000F58F00000F900000EE9100000892000050
:100470007792000078920000E8920000E892000075
:100480005893000059930000C8930000C9930000DE
:100490003894000039940000A9940000A994000049
:1004A000199500001A950000899500008A950000B2
:1004B000F4950000EC9900003D9B00003D9B00007E
:1004C0008D9C00008E9C0000CD9D0000DF9D0000F3
:1004D0002F9F0000309F000080A0000080A000003F
:1004E000C0A10000D1A1000021A3000022A30000B0
:1004F00072A4000073A40000B2A50000C4A500000F
:1005000014A7000014A7000065A8000065A800005B
:10051000A4A90000B6A9000006AB000007AB0000CC
:1005200057AC000058AC000097AD0000A8AD00002B
:10053000F9AE0000F9AE000049B000004AB000007A
:1005400089B100009BB10000EBB20000ECB20000EA
:100550003CB400003CB400007CB500008DB5000048
:10056000DDB60000DEB600002EB800002FB8000097
:100570006EB9000080B90000D0BA0000D0BA000007
:1005800020BC000021BC000060BD000072BD000066
:10059000C2BE0000C3BE000013C0000014C00000B3
:1005A00053C1000064C10000B4C20000B5C2000025
:1005B00005C4000006C4000045C5000057C5000082
:1005C000A7C60000A8C60000F8C70000F8C70000D2
:1005D00038C9000049C9000099CA00009ACA000041
:1005E000EACB0000EBCB00002ACD00003BCD0000A1
:1005F0008CCE00008CCE0000DCCF0000DDCF0000F0
:100600001CD100002ED100006DD200007FD200006E
:100610001ED3000027D30000C6D30000CFD30000B4
:100620000FD5000020D5000060D6000071D6000074
:1006300010D7000019D70000B9D70000C2D70000BA
:1006400061D800006AD800000AD9000013D9000060
:10065000BAD90000BBD9000063DA000063DA0000F9
:100660000BDB00000CDB0000B4DB0000B4DB00009F
:100670005CDC00005DDC0000FCDC000005DD00004F
:10068000ADDD0000ADDD000055DE000056DE0000EF
:10069000FEDE0000FEDE0000A6DF0000A7DF000097
:1006A0004EE000004FE00000EEE00000F7E0000048
:1006B0009FE10000A0E1000048E2000048E20000E5
:1006C000F0E20000F1E2000098E3000099E300008E
:1006D00041E4000041E40000E1E40000EAE400003D
:1006E00091E5000092E500003AE600003BE60000DC
:1006F000E2E60000E3E600008BE700008BE7000085
:1007000033E8000034E80000D3E80000DCE8000033
:1007100084E9000085E900002CEA00002DEA0000D1
:10072000D5EA0000D5EA00007DEB00007EEB00007A
:1007300025EC000026EC0000C5EC0000CFEC00002A
:1007400076ED000077ED00001FEE00001FEE0000C8
:10075000C7EE0000C8EE00006FEF000070EF000071
:1007600018F0000019F00000B8F00000C1F000001F
:1007700069F1000069F1000011F2000012F20000BE
:10078000B9F20000BAF2000062F3000063F3000067
:100790000AF400000BF40000AAF40000B3F4000017
:1007A0005BF500005CF5000003F6000004F60000B5
:1007B000ACF60000ADF6000054F7000055F700005D
:1007C000FDF70000FDF700009DF80000A6F800000E
:1007D000E5F90000F7F9000096FA00009FFA000022
:1007E0003EFB000047FB000087FC000098FC000077
:1007F000D7FD0000E9FD000088FE000091FE00002A
:1008000031FF00003AFF0000790001008A0001007A
:10081000CA010100DB0101007B020100840201002A
:10082000230301002C0301006B0401007D0401007F
:10083000BC050100CE0501006D0601007606010031
:10084000150701001E0701005E0801006F08010086
:10085000AF090100C00901005F0A0100680A010038
:10086000080B0100110B0100500C0100620C01008B
:10087000A10D0100B20D0100520E01005B0E01003E
:10088000FA0E0100030F0100421001005410010094
:1008900093110100A5110100441201004D12010045
:1008A000EC120100F6120100951301009E130100E5
:1008B0003D14010046140100861501009715010042
:1008C0003616010040160100DF160100E81601008F
:1008D0008717010090170100301801003918010036
:1008E000781901008A190100291A0100321A010041
:1008F000D11A0100DA1A01001A1C01002B1C010098
:100900000A1E0100241E0100042001001E20010017
:10091000BD200100C620010005220100BF22010008
:100920005E23010068230100072401001024010058
:100930004F25010061250100002601000926010064
:10094000A8260100B2260100F127010002280100BB
:10095000E2290100FC290100DB2B0100F52B01003D
:10096000D42D0100EE2D0100CD2F0100E72F010055
:100970006632010089320100C8330100D933010019
:10098000193501002A350100CA350100D3350100AF
:10099000723601007B360100BA370100CC37010006
:1009A0000B3901001D390100BC390100C5390100B6
:1009B000643A01006D3A0100AD3B0100BE3B01000D
:1009C0009D3D0100B73D0100973F0100B13F01008F
:1009D000504001005940010098410100AA41010026
:1009E0004942010052420100F2420100FB42010073
:1009F0009A430100A3430100E2440100F4440100D2
:100A0000934501009C4501003B460100454601001D
:100A10008447010095470100754901008F49010095
:100A20006E4B0100884B0100674D0100814D0100B4
:100A3000604F01007A4F0100F95101001C52010082
:100A40005B5301006D530100AC540100BD54010023
:100A50005D55010066550100055601000E56010066
:100A60004D5701005F570100AF580100B058010019
:100A70005759010058590100005A0100015A01005C
:100A8000A85A0100A95A0100485B0100515B01000E
:100A9000A15C0100A25C01004A5D01004B5D010008
:100AA000F25D0100F35D0100325F0100445F01006F
:100AB0008360010095600100346101003D61010027
:100AC000DC610100E561010025630100366301007E
:100AD0007564010087640100266501002F6501002F
:100AE000CF650100D8650100176701002867010084
:100AF0000869010022690100016B01001B6B010004
:100B0000FA6C0100146D0100F36E01000D6F01001D
:100B10004D7001005E700100FD7001000671010062
:100B2000A6710100AF710100EE72010000730100B7
:100B30003F74010050740100F0740100F974010069
:100B400098750100A1750100E0760100F2760100C0
:100B50003178010043780100E2780100EB78010070
:100B60008A79010094790100D37A0100E47A0100C6
:100B7000247C0100357C0100D47C0100DE7C010076
:100B80007D7D0100867D0100C57E0100D77E0100CC
:100B9000B6800100D0800100AF820100C98201004F
:100BA000A8840100C2840100A2860100BC86010065
:100BB0009B880100B5880100948A0100AE8A01007B
:100BC000FE8B0100FF8B0100A68C0100A78C0100A9
:100BD0004F8D0100508D01008F8E0100A08E01000D
:100BE000E08F0100F18F0100909001009A900100C8
:100BF0003991010042910100E1910100EA91010067
:100C00008A92010093920100D2930100E4930100C3
:100C1000239501003495010074960100859601002A
:100C2000C4970100D697010015990100279901008A
:100C3000669A0100779A0100B79B0100C89B0100EA
:100C4000089D0100199D0100589E01006A9E010047
:100C5000A99F0100BB9F0100FAA001000BA10100A8
:100C60004BA201005CA201009CA30100ADA3010006
:100C7000ECA40100FEA401003DA601004FA6010066
:100C80008EA701009FA70100DFA80100F0A80100C6
:100C90002FAA010041AA010080AB010092AB010024
:100CA000D1AC0100E3AC010022AE010033AE010083
:100CB00073AF010084AF0100C3B00100D5B00100E3
:100CC00014B2010026B2010065B3010077B3010040
:100CD000B6B40100C7B4010007B6010018B60100A0
:100CE00057B7010069B70100A8B80100BAB8010000
:100CF000F9B901000BBA01004ABB01005BBB01005E
:100D00009BBC0100ACBC0100EBBD0100FDBD0100BE
:100D10003CBF01004EBF01008DC001009FC001001B
:100D2000DEC10100EFC101002FC3010040C301007B
:100D3000DFC30100E9C3010088C4010091C40100C0
:100D4000D0C50100E2C5010021C7010033C7010081
:100D5000D2C70100DBC7010083C8010083C80100BE
:100D600023C901002CC90100CBC90100D4C901006D
:100D700025CB010025CB0100C4CB0100CDCB010068
:100D80006DCC010076CC0100B5CD0100C6CD0100CF
:100D9000C6CD010006CF010006CF010017CF01002C
:100DA000B7CF0100C0CF01005FD0010068D00100C3
:100DB00007D1010010D10100B0D10100B9D101006B
:100DC000F8D201000AD30100A9D30100B2D3010077
:100DD00051D401005AD401009AD50100ABD50100CD
:100DE000EBD60100FCD601009BD70100A4D701007F
:100DF00044D801004DD801008CD901009ED90100D2
:100E0000DDDA0100EEDA01008EDB010097DB010084
:100E100036DC01003FDC01007EDD010090DD0100D9
:100E2000CFDE0100E1DE010080DF010089DF01008B
:100E300028E0010032E0010071E1010082E10100DF
:100E400002E4010024E4010063E5010075E501000E
:100E5000B4E60100C6E6010065E701006EE70100A7
:100E60000DE8010016E8010056E9010067E90100FC
:100E7000A6EA0100B8EA010057EB010060EB0100AF
:100E800000EC010009EC010048ED01005AED010001
:100E900099EE0100AAEE01004AEF010053EF0100B4
:100EA000F2EF0100FBEF01003AF101004CF101000B
:100EB000CBF30100EEF301008DF401003EF50100DB
:100EC0007EF601008FF60100CEF70100E0F7010089
:100ED0001FF9010031F90100D0F90100D9F9010031
:100EE00078FA010082FA010021FB01002AFB0100CF
:100EF000C9FB0100D2FB010012FD010023FD01002E
:100F0000C2FD0100CBFD01006BFE010074FE01007B
:100F100013FF01001CFF0100BCFF0100C5FF010021
:100F200004010200150102005801020058010200EC
:100F30009B0102009B010200060502000805020059
:100F40004B0502004B0502008D0502008D050200D5
:100F5000F9080200FA0802003A0A02004B0A0200ED
:100F6000EA0A0200F30A0200930B02009C0B020043
:100F7000DB0C0200ED0C0200020D0200020D02006B
:100F8000170D0200170D02005D1802000000A400FA
:100F90000000B8000000CF000000CF000000CF002C
:100FA00000000501000037010000A4000000B800A7
:100FB0000000CF0000008A0000008A000000450009
:100FC00000006700000045000000670000004500C9
:100FD00000006700000045000000670000004900B5
:100FE000000092000000920000004100000082001A
:100FF0000000820000003A0000007400000074004D
:101000000000370000006E0000006E00000030009D
:1010100000006100000061000000370000006E0069
:1010200000006E0000007400000082000000490013
:1010300000009200000092000000490000009200B1
:1010400000009200000041000000820000008200C9
:1010500000003A0000007400000074000000370037
:1010600000006E0000006E00000030000000610013
:10107000000061000000370000006E0000006E00FC
:10108000000074000000820000004900000092008F
:1010900000009200000074000000AE000000E900B3
:1010A0000000AE000000E9000000AE0000006E008D
:1010B0000000AE000000DC000000AE000000DC001C
:1010C0000000AE00000074000000AE000000E90067
:1010D0000000AE000000E9000000AE0000006E005D
:1010E0000000AE000000DC000000AE000000DC00EC
:1010F0000000AE00000074000000AE000000E90037
:101100000000AE000000E9000000AE000000820018
:101110000000C300000005010000C300000005013D
:101120000000C300000092000000DC000000250168
:101130000000DC00000025010000DC00000074005D
:1011400000003A000000740000003A0000006E0049
:101150000000370000006E0000003700000074003F
:1011600000003A000000740000003A0000006E0029
:101170000000370000006E0000003700000074001F
:10118000000074000000820000008200000049009E
:1011900000005C0000006E00000092000000B8003B
:1011A0000000DC0000002501000071010000B80112
:1011B00000009B000000E900000037010000AE00C5
:1011C0000000050100005D010000C30000002501D2
:1011D000000087010000AE000000050100005D0175
:1011E0000000B80000001501000071010000CF00F0
:1011F0000000370100009F010000AE000000050163
:1012000000005D010000AE000000050100005D016E
:1012100000009B000000E900000037010000AE0064
:101220000000050100005D010000C3000000250171
:10123000000087010000AE000000050100005D0114
:1012400000004D000000740000009B0000005700EB
:10125000000082000000AE000000C300000030006B
:1012600000006100000030000000C30000003000FA
:1012700000006100000030000000610000004D002F
:101280000000740000009B000000740000004D008E
:101290000000740000005700000082000000AE0053
:1012A0000000820000005700000082000000610082
:1012B000000092000000C3000000920000006100E6
:1012C0000000920000006100000092000000C300D6
:1012D00000009200000061000000920000005C002D
:1012E00000008A000000B80000008A0000005C00D6
:1012F00000008A000000670000009B000000CF0093
:1013000000009B000000670000009B0000005700E9
:10131000000082000000AE000000820000005700C4
:101320000000820000005700000082000000AE00B4
:1013300000008200000057000000820000004D0005
:1013400000004D0000009B0000004D000000570011
:10135000000057000000AE000000570000006100D0
:10136000000061000000C3000000610000005700A1
:10137000000057000000AE000000570000009B0076
:1013800000004D0000009B0000004D0000005700D1
:10139000000057000000AE00000057000000610090
:1013A000000061000000C300000092000000610026
:1013B00000006100000061000000C3000000610047
:1013C0000000C300000092000000490000009200ED
:1013D000000049000000820000008200000074004C
:1013E000000074000000740000003A0000006E006D
:1013F0000000370000006E000000370000006100B0
:101400000000610000006E0000006E00000074002B
:1014100000008200000092000000490000009200DD
:101420000000490000009200000049000000920006
:1014300000004900000082000000820000007400EB
:101440000000740000003A000000740000003A0040
:1014500000006E000000370000006E000000370042
:10146000000061000000610000006E0000006E00DE
:10147000000074000000820000009200000049009B
:101480000000920000004900000074000000740099
:101490000000AE000000E9000000AE0000006E0099
:1014A00000006E000000DC0000006E000000740010
:1014B00000003A000000740000003A0000006E00D6
:1014C0000000370000006E000000370000007400CC
:1014D0000000740000008200000082000000920002
:1014E0000000490000009200000049000000740064
:1014F00000003A000000740000003A0000006E0096
:101500000000A4000000A4000000DC000000740043
:1015100000003A000000740000003A0000006E0075
:1015200000006E00000074000000740000008200E3
:1015300000008200000092000000B8000000DC0003
:101540000000250100009200000024000000490076
:10155000000024000000490000004D0000009B0036
:1015600000009B00000057000000AE000000AE002D
:10157000000061000000C3000000C300000057002D
:101580000000AE000000AE0000005C000000B800EB
:101590000000B800000067000000CF000000CF008E
:1015A000000057000000AE000000AE000000570031
:1015B0000000AE000000AE0000004D0000009B00E7
:1015C00000009B00000057000000AE000000AE00CD
:1015D000000061000000C3000000C30000005700CD
:1015E0000000AE000000AE0000009B0000004D00B7
:1015F00000009B0000004D000000AE0000005700FE
:101600000000AE00000057000000AE000000C30064
:1016100000003000000061000000300000006100A8
:10162000C300000000003000000061000000300036
:101630000000610000009B0000004D0000009B00C6
:1016400000004D000000AE00000057000000AE009A
:10165000000057000000C300000061000000C3004C
:10166000000061000000AE00000057000000AE0066
:10167000000057000000B8000000B8000000CF00D4
:10168000000067000000CF00000067000000AE000F
:10169000000057000000AE00000057000000AE0040
:1016A000000057000000AE000000570000009B0043
:1016B00000009B000000AE000000AE000000AE0085
:1016C00000006100000092000000C30000009200D2
:1016D0000000610000005700000082000000AE0022
:1016E000000082000000570000004D000000740060
:1016F00000009B0000005700000082000000AE00C8
:101700000000C30000003000000061000000300055
:1017100000006100000092000000C3000000000013
:1017200000000000000000000000000000000000B9
:101730000000000000000000000053000000540002
:101740000000A7000000A8000000FB000000FC0053
:1017500000005001000050010000A4010000A4019D
:101760000000F8010000F90100004C0200004D02E9
:101770000000A0020000A1020000F5020000F50236
:10178000000049030000490300009D0300009E0380
:101790000000ED030000F2030000450400004604D1
:1017A00000009A0400009A040000EE040000EE0419
:1017B0000000420500004305000096050000970563
:1017C0000000EA050000EB0500003F0600003F06B0
:1017D00000009306000093060000E7060000E806FC
:1017E00000003B0700003C0700008B070000E407F7
:1017F00000003409000035090000850A0000860A4F
:101800000000D60B0000D70B0000270D0000270DAD
:101810000000780E0000780E0000B70F0000C90F1E
:101820000000481200006B12000012130000BB13EE
:1018300000003B160000931F0000E3200000E3209F
:10184000000033220000342200008423000085239E
:101850000000D5240000D6240000262600002726FC
:1018600000006627000077270000182A0000192AC8
:101870000000B82A00006A2B0000E92D00000B2EA2
:1018800000004B2F00005C2F0000AC300000AD309A
:101890000000FD310000FE3100004E3300004E33E9
:1018A00000009F3400009F340000EF350000F03549
:1018B00000002F37000041370000E2390000E23914
:1018C0000000363A0000333B0000F23E0000263FA5
:1018D00000007640000076400000C7410000C7418C
:1018E00000001743000018430000684400006944EA
:1018F0000000B9450000BA450000F94600000A475B
:101900000000AB490000AC4900004B4A0000FD4A12
:1019100000007C4D00009E4D0000DE4E0000EF4EAA
:1019200000003F50000040500000905100009151D5
:101930000000E1520000E252000032540000325434
:1019400000008255000083550000C2560000D456A6
:1019500000007559000076590000C9590000C65AA8
:101960000000865E0000B95E00005A6100005A6106
:101970000000AA620000AB6200004C6500004D65EB
:1019800000008C6600009D660000EE670000EE67B8
:1019900000003E6900003F6900007E6A0000906A16
:1019A0000000CF6B0000E16B0000206D0000316D86
:1019B0000000D16D0000DA6D0000D26F0000D36F1F
:1019C0000000237100002471000063720000757232
:1019D0000000C5730000C573000016750000167581
:1019E00000006676000067760000E678000009795E
:1019F000000030790000337900005A7900005D79E9
:101A000000008479000087790000AE790000B17988
:101A10000000D8790000DB790000027A0000057A26
:101A200000002D7A00002F7A0000577A0000597AC2
:101A30000000D97C0000FB7C00003A7E00004C7E58
:101A40000000CB800000ED8000002D8200003E826F
:101A500000008E8300008F830000DF840000E0849C
:101A600000001F860000318600008187000081870A
:101A70000000D1880000D28800007A8900007B89AC
:101A800000006B8B0000748B0000C48C0000C58CC0
:101A90000000048E0000158E0000658F0000668F28
:101AA0000000B6900000B790000007920000089276
:101AB0000000C7950000FA9500003D9600003D9695
:101AC00000007F9600007F960000C3960000C3963A
:101AD0000000EB990000EC9900003D9B00003D9B4D
:101AE0000000E59B0000E69B00008D9C00008E9CA2
:101AF0000000CD9D0000DF9D00002F9F0000309F63
:101B00000000D79F0000D89F000080A0000080A0A8
:101B10000000C0A10000D1A1000012A2000013A289
:101B2000000021A3000022A3000072A4000073A4FF
:101B300000001BA500001BA50000C3A50000C4A554
:101B40000000EDA50000EEA5000017A6000018A6F5
:101B5000000014A7000014A7000065A8000065A8F5
:101B60000000A4A90000B6A9000006AB000007AB66
:101B70000000AFAB0000AFAB000057AC000058ACAA
:101B8000000097AD0000A8AD0000D2AD0000D3ADBD
:101B90000000FCAD0000FDAD0000F9AE0000F9AEA4
:101BA000000049B000004AB000009AB100009BB1AB
:101BB0000000DAB200003CB400007CB500008DB536
:101BC0000000CCB60000DEB600001DB800002FB843
:101BD00000006EB9000080B90000D0BA0000D0BA91
:101BE000000078BB000079BB000020BC000021BCD5
:101BF000000060BD000072BD0000C2BE0000C3BE98
:101C000000006ABF00006BBF000013C0000014C0DA
:101C10000000BBC00000BCC000005BC1000064C18C
:101C20000000A5C10000A6C100000BC200000DC24B
:101C30000000B4C20000B5C200005DC300005EC376
:101C4000000005C4000006C40000A5C4000057C57C
:101C5000000097C5000098C50000FEC50000FFC544
:101C60000000A7C60000A8C600004FC7000050C76C
:101C70000000F8C70000F8C7000098C8000049C974
:101C8000000099CA00009ACA000042CB000042CB73
:101C90000000EACB0000EBCB00002ACD00003BCDDA
:101CA000000065CD000066CD00008FCD000090CD16
:101CB00000008CCE00008CCE0000DCCF0000DDCF19
:101CC00000002DD100002ED10000EDD4000020D561
:101CD000000063D5000063D50000A6D50000A6D59E
:101CE0000000E9D50000E9D5000011D9000013D9A2
:101CF000000063DA000063DA000063DA00000BDB47
:101D000000000BDB00000CDB0000B4DB0000B4DBE8
:101D10000000F3DC000005DD000055DE000056DEAB
:101D20000000FEDE0000FEDE0000A6DF0000A7DFF0
:101D30000000E6E00000F7E0000097E10000A0E10D
:101D400000003FE2000048E20000E7E20000F1E2AC
:101D5000000090E3000099E3000038E4000041E453
:101D60000000E1E40000EAE4000010E5000014E5F2
:101D700000003AE500003EE500002DE600003BE6ED
:101D800000007AE700008BE700002BE80000DCE8A9
:101D900000002CEA00002DEA0000D5EA0000D5EA98
:101DA00000007DEB00007EEB0000BDEC0000CFECFE
:101DB00000001FEE00001FEE00006FEF000070EF4C
:101DC0000000C0F00000C1F0000000F2000063F36A
:101DD0000000A2F40000B3F40000F3F5000004F6E4
:101DE000000043F7000055F7000094F80000A6F843
:101DF0000000F6F90000F7F900009EFA00009FFAD3
:101E0000000047FB000047FB000087FC000098FC37
:101E10000000E8FD0000E9FD000091FE000091FED9
:101E2000000039FF00003AFF0000E1FF0000E2FF80
:101E30000000810001008A0001002A010100330135
:101E40000100D2010100DB0101007B0201008402DC
:101E50000100230301002C030100CB0301007D04DA
:101E600001001C05010025050100C5050100CE0586
:101E700001006D06010076060100150701001E072E
:101E80000100BE0701006F080100BF090100C00981
:101E90000100680A0100680A0100100B0100110B23
:101EA0000100500C0100620C0100B20D0100B20DE6
:101EB0000100030F0100030F010053100100541033
:101EC0000100131401004614010089140100891453
:101ED0000100CC140100CC1401000F1501000F15F6
:101EE00001003718010039180100891901008A1909
:101EF0000100DA1A0100DA1A01002A1C01002B1C69
:101F000001007B1D01007C1D0100CC1E0100CD1EC7
:101F100001006C1F01001E200100BE220100BF2233
:101F200001000F240100102401008F260100B226B9
:101F30000100F12701000228010052290100532964
:101F40000100A32A0100A42A0100F42B0100F52BB3
:101F500001009C2C01009D2C0100452D0100462D07
:101F60000100962E0100962E0100362F0100E72F6A
:101F700001003731010089320100C8330100D93333
:101F8000010099370100CC3701001C3901001D39CF
:101F900001006D3A01006D3A0100BE3B0100BE3BFD
:101FA00001000E3D01000F3D01005F3E0100603E5B
:101FB0000100FF3E0100B13F0100524201005242C8
:101FC0000100A2430100A34301002246010045464F
:101FD00001008447010095470100E6480100E648FA
:101FE0000100364A0100374A0100874B0100884B47
:101FF00001002F4C0100304C0100D84C0100D94C9D
:102000000100294E0100294E0100C94E01007A4FFE
:102010000100CA5001001C5201005B5301006D53C6
:1020200001002C5701005F570100005A0100015ABE
:102030000100A05A0100515B0100D15D0100F35D78
:102040000100325F0100445F01009460010095606F
:102050000100E5610100E5610100256301003663CF
:1020600001007564010087640100C6650100D86540
:1020700001007F66010080660100706801007968D8
:102080000100C9690100CA690100096B01001B6BED
:1020900001006B6C01006C6C0100BC6D0100BC6D3B
:1020A00001000D6F01000D6F01008C710100AF7117
:1020B0000100D8710100D9710100027201000372A0
:1020C00001002C7201002D7201005772010057723D
:1020D00001008172010081720100AB720100AB72DC
:1020E0000100D5720100D6720100FD72010000737B
:1020F0000100A1750100A1750100F1760100F276E1
:1021000001007179010094790100337A0100E47AC9
:102110000100357C0100357C0100857D0100867D54
:102120000100C57E0100D77E0100168001002880D5
:10213000010067810100788101001882010021827D
:102140000100118401001A8401006A8501006B8579
:102150000100AA860100BC86010063870100648734
:1021600001000C8801000C8801005C8901005D8978
:102170000100058A0100AE8A01006D8E0100A08E6B
:1021800001005F92010093920100E3930100E49348
:1021900001008B9401008C9401003495010034956A
:1021A0000100D495010085960100D5970100D697CE
:1021B00001007E9801007E98010026990100279970
:1021C0000100669A0100779A0100C89B0100C89B34
:1021D0000100189D0100199D0100C19D0100C19DD4
:1021E0000100699E01006A9E0100BA9F0100BB9F29
:1021F00001000BA101000BA101004BA201005CA298
:102200000100ACA30100ADA3010055A4010055A439
:102210000100FDA40100FEA401003DA601004FA69F
:1022200001009FA701009FA70100F0A80100F0A8EE
:10223000010040AA010041AA010080AB0100E3AC0B
:10224000010033AE010033AE010083AF010084AF63
:102250000100D4B00100D5B0010074B1010026B274
:10226000010076B3010077B301001EB401001FB472
:102270000100C7B40100C7B4010007B6010018B6D9
:10228000010068B7010069B7010011B8010011B879
:102290000100B9B80100BAB8010061B9010062B922
:1022A000010001BA01000BBA0100B2BA0100B3BAD1
:1022B00001005BBB01005BBB010003BC010004BC6F
:1022C0000100ABBC0100ACBC0100FCBD0100FDBDC8
:1022D0000100A5BE0100A5BE01004DBF01004EBF1B
:1022E0000100F5BF0100F6BF01009EC001009FC0C4
:1022F0000100DEC10100EFC101003FC3010040C386
:102300000100E8C30100E9C3010090C4010091C4C9
:102310000100D0C50100E2C5010032C7010033C78A
:10232000010083C8010083C80100D3C90100D4C9DA
:102330000100D4C90100D5C9010093CD0100C6CD6B
:10234000010009CE010009CE01004CCE01004CCEA7
:1023500001008FCE01008FCE0100B7D10100B9D1AD
:10236000010009D301000AD30100B1D30100B2D3A7
:1023700001005AD401005AD40100FAD40100ABD5AF
:102380000100FBD60100FCD60100A4D70100A4D7B0
:1023900001004CD801004DD801008CD901009ED914
:1023A0000100EEDA0100EEDA01003FDC01003FDC63
:1023B0000100E7DC0100E8DC01008FDD010090DDB9
:1023C0000100E0DE0100E1DE010031E0010032E069
:1023D000010071E1010082E10100D2E20100D3E2DB
:1023E00001007BE301007CE3010023E4010024E41D
:1023F000010063E5010075E50100C5E60100C6E6E0
:10240000010016E8010016E8010066E9010067E92D
:102410000100A6EA010009EC010059ED01005AEDA6
:102420000100AAEE0100AAEE0100FAEF0100FBEFA5
:1024300001009AF001004CF101009CF201009DF2B4
:10244000010044F3010045F30100EDF30100EEF358
:1024500001002DF501003EF501008EF601008FF61A
:10246000010037F7010038F70100DFF70100E0F75E
:10247000010088F8010088F8010028F9010031F90D
:102480000100D8F90100D9F9010081FA010082FAAE
:10249000010029FB01002AFB0100D2FB0100D2FB55
:1024A000010022FD010023FD0100CBFD0100CBFD59
:1024B000010073FE010074FE01001CFF01001CFFFF
:1024C0000100C4FF0100C5FF010004010200150165
:1024D00002005502020066020200060302000F031A
:1024E0000200AE030200B7030200F6040200080572
:1024F0000200470602005906020098070200A907D9
:102500000200E9080200FA080200B90C0200ED0C12
:102510000200020D0200020D0200170D0200170D4D
:1025200002002F0D02002F0D02005D1802000000B6
:10253000ED01ED01ED01ED01ED01ED010000930272
:102540000000E302000070030000ED0100009302B0
:102550000000E302000070030000ED0100009302A0
:102560000000E302000070030000ED010000930290
:102570000000E302000070030000DB0300002605FA
:102580000000C7050000B7070000C70500002605CA
:102590000000DB03000015010000370100004901C5
:1025A00000006E02000016040000DC040000540469
:1025B0000000DB030000540400004B020000930203
:1025C0000000BA02000070030000BA02000093028B
:1025D00000004B0200000B020000B8010000B8012F
:1025E00000004B02000093020000BA0200000F033B
:1025F0000000BA020000930200004B0200000B0230
:1026000000004B0200004B02000093020000BA02DF
:10261000000070030000BA020000930200004B02A9
:1026200000000B020000B8010000B80100004B02DE
:10263000000093020000BA0200000F030000BA027B
:102640000000930200004B0200000B0200004B024E
:102650000000D20100000B020000B8010000B80128
:102660000000D20100000B0200004B0200002A0211
:102670000000D2010000B8010000D20100000B02EE
:1026800000004B0200000B0200004B02000093020E
:102690000000BA0200000F030000700300000F03E7
:1026A0000000700300000F030000BA020000930254
:1026B00000000B020000BA0200000F0300009302AA
:1026C000000093020000BA0200000F030000700334
:1026D00000000F030000BA02000093020000BA02DB
:1026E00000000F030000700300000F030000160439
:1026F000000026050000960400004B020000E302E3
:10270000000070030000960400004B0200000F035D
:10271000000070030000A40300004B0200000F0340
:10272000000070030000A4030000A40300001604CE
:102730000000A403000070030000A4030000700365
:102740000000A403000070030000BA0200000B02A6
:102750000000BA020000A4030000160400005404A4
:1027600000001604000096040000160400003E035A
:1027700000006E020000BA020000A4030000700313
:102780000000DC04000016040000A40300000F0396
:10279000000070030000A403000016040000700392
:1027A0000000A403000016040000960400000F03BC
:1027B0000000A40300000F0300004B020000A4036C
:1027C0000000700300000F03000070030000BA0255
:1027D00000000B020000BA0200000B020000D20150
:1027E000000087010000B8010000D2010000B8011C
:1027F0000000D2010000B80100005D010000B80136
:1028000000008701000087010000ED0100004B027D
:1028100000000F0300004B0200004B020F030000FA
:10282000000070030000A40300004B0200000F032F
:10283000000070030000A4030000160400004B0217
:102840000000A40300004B02000070030000A4037A
:10285000000070030000A403000070030000BA022F
:1028600000000B020000BA020000A40300001604DE
:10287000000054040000160400003E0300006E0235
:102880000000BA020000A403000070030000DC0492
:10289000000016040000A40300000F0300007003F2
:1028A0000000A40300001604000070030000A4034D
:1028B00000001604000096040000A40300000F03AB
:1028C00000004B020000A40300007003000070032E
:1028D0000000BA0200000B020000BA0200000B0266
:1028E0000000D201000087010000B8010000D20101
:1028F0000000B80100005D010000B8010000870180
:10290000000087010000ED0100004B0200000F03F2
:1029100000004B02000093020000BA0200007003A6
:102920000000BA020000930200004B0200000B02FC
:102930000000B8010000B80100004B020000930243
:102940000000BA0200000F0300000F030000BA02EB
:102950000000930200004B0200000B0200004B023B
:1029600000004B02000093020000BA020000700356
:102970000000BA020000930200004B0200000B02AC
:102980000000B8010000B80100004B0200009302F3
:102990000000BA0200000F0300000F030000BA029B
:1029A0000000930200004B0200000B0200004B02EB
:1029B0000000D20100000B020000B8010000B801C5
:1029C0000000D20100000B0200004B0200002A02AE
:1029D0000000D2010000B8010000D20100000B028B
:1029E00000004B0200000B0200004B0200009302AB
:1029F0000000BA0200000F030000700300000F0384
:102A00000000700300000F030000BA0200009302F0
:102A100000000B020000BA0200000F030000930246
:102A2000000093020000BA0200000F0300007003D0
:102A300000000F030000BA02000093020000BA0277
:102A400000000F030000700300000F0300000F03DD
:102A500000001604000026050000960400009604FD
:102A600000004B0200000F03000070030000A403ED
:102A700000004B0200000F03000070030000A403DD
:102A8000000016040000A403000070030000A4036B
:102A9000000070030000BA0200000B020000BA023E
:102AA0000000A403000016040000540400001604F3
:102AB00000003E0300006E020000BA020000A40302
:102AC000000070030000DC04000016040000A403F2
:102AD00000000F03000070030000A40300001604B0
:102AE000000070030000A403000016040000960418
:102AF0000000A40300000F0300004B020000A40329
:102B000000007003000070030000BA0200000B0216
:102B10000000BA0200000B020000D2010000870191
:102B20000000B8010000D2010000B80100005D0102
:102B30000000B8010000C300870100000000870109
:102B40000000ED0100004B0200000F03000096049E
:102B500000001F060000E006000048070000960481
:102B600000001F060000E0060000480700002D08D6
:102B7000000048070000E006000048070000E006EB
:102B800000007405000016040000740500004807EA
:102B900000002D080000A90800002D0800007D0697
:102BA0000000DC0400007405000048070000E00697
:102BB0000000B90900002D080000480700001F06AA
:102BC0000000E0060000480700002D080000E006B5
:102BD0000000480700002D0800002D0900004807EC
:102BE00000001F0600009604000048070000E006F1
:102BF0000000E006000074050000160400007405E3
:102C0000000016040000A40300000F03000070037E
:102C10000000A403000070030000BA02000070036B
:102C200000000F0300000F030000DB030000960408
:102C300000001F06000000000000240027002A00FA
:102C400000000000250028002B0002010000000009
:102C500000230026002900040404040404040402E0
:102C60000202020202030303030303010204081029
:102C700020408001020408102001020408102000F6
:102C8000000008000201000003040700000000002B
:102C900000000000B51E11241FBECFEFD8E0DEBF3C
:102CA000CDBF11E0A0E0B1E0E6E5FEE302C0059093
:102CB0000D92A633B107D9F722E0A6E3B1E001C037
:102CC0001D92A631B207E1F716E1CBE4D6E104C0CC
:102CD0002197FE010E94231FCA34D107C9F70E9421
:102CE000361A0C94291F0C940000AF92BF92CF9219
:102CF000DF92EF92FF920F931F93CF93DF936C01BC
:102D00007B018B01040F151FEB015E01AE18BF089C
:102D1000C017D10759F06991D601ED91FC9101904E
:102D2000F081E02DC6010995892B79F7C501DF9166
:102D3000CF911F910F91FF90EF90DF90CF90BF90B8
:102D4000AF900895FC01538D448D252F30E0842FE2
:102D500090E0821B930B541710F0CF9608950197C3
:102D60000895FC01918D828D981761F0A28DAE0FB0
:102D7000BF2FB11D5D968C91928D9F5F9F73928F37
:102D800090E008958FEF9FEF0895FC01918D828D63
:102D9000981731F0828DE80FF11D858D90E0089530
:102DA0008FEF9FEF0895FC01918D228D892F90E088
:102DB000805C9F4F821B91098F739927089589E743
:102DC00091E00E94D31621E0892B09F420E0822FA4
:102DD000089580E090E0892B29F00E94DF16811190
:102DE0000C9400000895FC01A48DA80FB92FB11D0B
:102DF000A35ABF4F2C91848D90E001968F73992731
:102E0000848FA689B7892C93A089B1898C9183700E
:102E100080648C93938D848D981306C00288F38907
:102E2000E02D80818F7D80830895EF92FF920F9334
:102E30001F93CF93DF93EC0181E0888F9B8D8C8D66
:102E400098131AC0E889F989808185FF15C09FB75A
:102E5000F894EE89FF896083E889F989808183701D
:102E6000806480839FBF81E090E0DF91CF911F91CC
:102E70000F91FF90EF900895F62E0B8D10E00F5FED
:102E80001F4F0F731127E02E8C8D8E110CC00FB6C3
:102E900007FCFACFE889F989808185FFF5CFCE015B
:102EA0000E94F316F1CFEB8DEC0FFD2FF11DE35ACD
:102EB000FF4FF0829FB7F8940B8FEA89FB898081DE
:102EC0008062CFCFCF93DF93EC01888D8823B9F058
:102ED000AA89BB89E889F9898C9185FD03C0808125
:102EE00086FD0DC00FB607FCF7CF8C9185FFF2CFA2
:102EF000808185FFEDCFCE010E94F316E9CFDF91EF
:102F0000CF910895833081F028F4813099F0823098
:102F1000A9F008958730A9F08830C9F08430B1F461
:102F2000809180008F7D03C0809180008F77809397
:102F30008000089584B58F7784BD089584B58F7D12
:102F4000FBCF8091B0008F778093B000089580917F
:102F5000B0008F7DF9CFCF93DF93EFE7FCE2849150
:102F6000EBE6FCE2D491E7E5FCE2C491CC23A1F0CE
:102F700081110E948217EC2FF0E0EE0FFF1FE35B40
:102F8000F34DA591B491EC91ED2381E090E009F42B
:102F900080E0DF91CF91089580E090E0FACF1F9319
:102FA000CF93DF93282F30E0F901E158F34D84915E
:102FB000F901E559F34DD491F901E95AF34DC49162
:102FC000CC23A9F0162F81110E948217EC2FF0E07C
:102FD000EE0FFF1FE05CF34DA591B4918FB7F8940D
:102FE000EC91111108C0D095DE23DC938FBFDF91E7
:102FF000CF911F910895DE2BF8CFCF93DF9390E010
:10300000FC01E559F34D2491895A934DFC018491BB
:103010008823D1F090E0880F991FFC01EA5CF34D02
:10302000A591B491FC01E05CF34DC591D49162305F
:1030300071F49FB7F8943C91822F809583238C93F1
:10304000E8812E2B28839FBFDF91CF9108958FB702
:10305000F894EC912E2B2C938FBFF6CF3FB7F894BA
:103060008091370190913801A0913901B0913A01D6
:1030700026B5A89B05C02F3F19F00196A11DB11DD3
:103080003FBFBA2FA92F982F8827BC01CD01620F0F
:10309000711D811D911D42E0660F771F881F991FCA
:1030A0004A95D1F708950C942E18FC019181913026
:1030B00069F0923089F0911105C090916E009D7F6A
:1030C00090936E0060E080810C94CF1790916F0018
:1030D0009D7F90936F00F6CF909170009D7F9093AD
:1030E0007000F0CFCF93DF93FC0101900020E9F74F
:1030F0003197AF01481B590BBC0189E791E00E9451
:103100007516EC0142E050E062E271E089E791E07F
:103110000E9475168C0F9D1FDF91CF9108951F920D
:103120000F920FB60F9211242F933F934F935F93FB
:103130006F937F938F939F93AF93BF93EF93FF937F
:1031400089E791E00E94F316FF91EF91BF91AF9153
:103150009F918F917F916F915F914F913F912F91AF
:103160000F900FBE0F901F9018951F920F920FB6E1
:103170000F9211242F938F939F93EF93FF93E091DE
:103180008901F0918A018081E0918F01F091900195
:1031900082FD1BC09081809192018F5F8F7320917F
:1031A0009301821741F0E0919201F0E0E758FE4F61
:1031B000958F80939201FF91EF919F918F912F9125
:1031C0000F900FBE0F901F9018958081F4CF1F9223
:1031D0000F920FB60F9211242F933F938F939F93CB
:1031E000AF93BF938091450190914601A091470113
:1031F000B09148013091360123E0230F2D3758F567
:103200000196A11DB11D2093360180934501909335
:103210004601A0934701B0934801809137019091F6
:103220003801A0913901B0913A010196A11DB11D5B
:103230008093370190933801A0933901B0933A01FC
:10324000BF91AF919F918F913F912F910F900FBEA2
:103250000F901F90189526E8230F0296A11DB11D0F
:10326000D2CF1F920F920FB60F9211242F933F933C
:103270008F939F93AF93BF93EF93FF9380914901F7
:1032800090914A01A0914B01B0914C010097A1058A
:10329000B10531F130913B01E0913C01F0913D01EC
:1032A000208123272083181619061A061B061CF4F2
:1032B0000197A109B1098093490190934A01A09314
:1032C0004B01B0934C01FF91EF91BF91AF919F9152
:1032D0008F913F912F910F900FBE0F901F901895D7
:1032E000209170002D7F2093700020913B01E09190
:1032F0003C01F0913D013081209523232083DBCFD9
:103300001F920F920FB60F9211248F939F93AF933A
:10331000BF93EF93FF9380914D0190914E01A09147
:103320004F01B0915001892B8A2B8B2BA1F19091E9
:103330003E01E0913F01F091400180818927808327
:1033400080914D0190914E01A0914F01B09150019B
:10335000181619061A061B069CF480914D019091CF
:103360004E01A0914F01B09150010197A109B109FF
:1033700080934D0190934E01A0934F01B093500163
:10338000FF91EF91BF91AF919F918F910F900FBEE1
:103390000F901F90189580916F008D7F80936F0024
:1033A00080913E01E0913F01F09140019081809534
:1033B00089238083E5CF1F920F920FB60F921124BD
:1033C0008F939F93AF93BF93EF93FF93809151019E
:1033D00090915201A0915301B0915401892B8A2BF5
:1033E0008B2BA1F190914101E0914201F0914301B9
:1033F0008081892780838091510190915201A09111
:103400005301B0915401181619061A061B069CF4B4
:103410008091510190915201A0915301B0915401BA
:103420000197A109B1098093510190935201A09392
:103430005301B0935401FF91EF91BF91AF919F91D0
:103440008F910F900FBE0F901F90189580916E0076
:103450008D7F80936E0080914101E0914201F09157
:1034600043019081809589238083E5CFCF93DF93BB
:10347000CDB7DEB72A970FB6F894DEBF0FBECDBF2B
:10348000789484B5826084BD84B5816084BD85B53F
:10349000826085BD85B5816085BD80916E0081604B
:1034A00080936E00109281008091810082608093F1
:1034B00081008091810081608093810080918000F3
:1034C0008160809380008091B10084608093B1001E
:1034D0008091B00081608093B00080917A00846018
:1034E00080937A0080917A00826080937A00809144
:1034F0007A00816080937A0080917A00806880935E
:103500007A001092C100E0918901F0918A0182E075
:103510008083E0918501F09186011082E09187011E
:10352000F09188018FEC808310929101E0918D01E0
:10353000F0918E0186E08083E0918B01F0918C0107
:10354000808180618083E0918B01F0918C0180818A
:1035500088608083E0918B01F0918C01808180688C
:103560008083E0918B01F0918C0180818F7D80833D
:1035700062E080E00E94FD1761E08DE00E94FD178F
:1035800061E089E00E94FD1761E08AE00E94FD177A
:10359000A5E5B1E005E711E069E671E04DE651E02F
:1035A00029E531E082E1282E81E0382EFF24FA94CB
:1035B000F10186819781F90191838083FA0111924B
:1035C000119211921192AF01FB0111921192BF0160
:1035D000F801119211928F01F101908180914401C3
:1035E000833008F01FC19C93E82FF0E0E65BF34DB9
:1035F000E4911196EC9311978F5F80934401E13031
:1036000009F4C4C008F4A2C0E23009F4E5C0F9012D
:1036100080819181FC01E150F04CCF01880F991F0E
:10362000880F991FF101C480D580F601E80FF91FBA
:10363000459055906590749080905D0190905E01EA
:10364000A0905F01B090600184149504A604B704B3
:1036500010F45301420180925D0190925E01A092AC
:103660005F01B0926001F8E02F0E311C2E5F3F4FDA
:10367000129682E2281681E0380609F099CF0E945E
:10368000531860E08DE00E94CF1700E010E00E9428
:10369000AB179C838B83019711F00B831C830E94D3
:1036A000AB179A838983892B09F0C0C0AB81BC8199
:1036B000119709F0BBC061E08DE00E94CF1785E251
:1036C00091E00E94721869E671E00DE6C02E01E0FB
:1036D000D02E45E751E0A2E1B1E01496ED90FC90C8
:1036E0001597FA0180819181FC01EE0FFF1FEE0F0B
:1036F000FF1FEE0DFF1D0591159125913491F601E7
:103700000083118322833383FA012081318189016F
:103710000F5F1F4FC801880F991F880F991F8E0DCB
:103720009F1DFC0185909590A590B490F601408076
:10373000518062807380481459046A047B0409F044
:1037400078C0FA0111830083FC01D5CF14BC15BCED
:1037500084B5826084BD85B5816085BD8C9190E023
:10376000FC01E95AF34DE491F0E0EE0FFF1FE05C3D
:10377000F34DC590D490D0924301C0924201FC0118
:10378000E559F34DE491E093410141CF109280005F
:1037900010928100809181008860809381008091E7
:1037A00081008160809381008C9190E0FC01E95A56
:1037B000F34DE491F0E0EE0FFF1FE05CF34DC59098
:1037C000D490D0924001C0923F01FC01E559F34DE5
:1037D000E491E0933E011BCF1092B0001092B10033
:1037E0008091B00082608093B0008091B1008160D0
:1037F0008093B1008C9190E0FC01E95AF34DE49183
:10380000F0E0EE0FFF1FE05CF34DC590D490D09236
:103810003D01C0923C01FC01E559F34DE491E09378
:103820003B01F5CE1196FC921197F1CE0B811C81D4
:103830002ECF90E080E01216130664F42150304839
:10384000220F331F1296ED91FC911397E20FF31F95
:1038500085919491FB0181939193BF0118964E5FDE
:103860005F4FF4E0CF0ED11C81E0A232B80709F01F
:1038700034CF2FB7F8948091450190914601A091E3
:103880004701B09148012FBF809365019093660175
:10389000A0936701B09368011E821D82409161016F
:1038A00050916201609163017091640180915D01AA
:1038B00090915E01A0915F01B0916001841795071E
:1038C000A607B70708F42AC2AD81BE81119709F493
:1038D00025C22FB7F8948091450190914601A0919F
:1038E0004701B09148012FBF409165015091660199
:1038F0006091670170916801841B950BA60BB70B53
:103900008093610190936201A0936301B09364017D
:10391000E5E5F1E0FA87E9877DE6272E71E0372EAD
:1039200089E591E09C838B83E5E7CE2EE1E0DE2EF6
:10393000F12CE12CAB81BC818D919D91BC83AB833B
:10394000F60120813181281739070CF0E2C10E946D
:10395000AB17019721F481E090E09A8389830E945C
:10396000AB17892B61F4A981BA81119741F480E3E7
:1039700091E00E947218E1E0F0E0FE83ED83C70160
:1039800087599E4F98878F83DC018D909C901814E7
:1039900019040CF0B9C1E985FA85818187FD02C15E
:1039A00061E080810E94FD17A985BA8511961C915E
:1039B000092C000CAA08BB08812F8D7F09F052C189
:1039C00060E072E18AE790E0A50194010E94E21EA6
:1039D00029013A01DA01C9010197A109B1098F3F13
:1039E0009105A105B10509F00CF4B8C060E472E4DA
:1039F0008FE090E0A50194010E94E21E2150310960
:103A000041095109123009F06AC082E02F3F3105A7
:103A10004105510509F00CF45BC060E970ED83E0ED
:103A200090E0A50194010E94E21E21503109410954
:103A3000510983E02F3F31054105510509F00CF490
:103A400047C068E478EE81E090E0A50194010E940F
:103A5000E21E215031094109510984E02F3F31050F
:103A600041055105A9F1A4F164E274EF80E090E012
:103A7000A50194010E94E21E21503109410951091A
:103A800085E02F3F31054105510511F108F162E153
:103A90007AE780E090E0A50194010E94E21E2150A7
:103AA00031094109510986E02F3F31054105510592
:103AB00079F070F09AE075946794579447949A95CA
:103AC000D1F7A3019201215031094109510987E041
:103AD0009091B100987F892B8093B10047C02F3F10
:103AE00031054105510509F00CF4BAC068E478EEDF
:103AF00081E090E0A50194010E94E21E215031096D
:103B00004109510984E01111BCCF83E02F3F3105F9
:103B10004105510539F134F162E17AE780E090E046
:103B2000A50194010E94E21E215031094109510969
:103B300084E02F3F310541055105A1F098F08AE05E
:103B400075946794579447948A95D1F7A30192018D
:103B5000215031094109510985E004C09C0181E0EF
:103B60001111B6CF95B5987F892B85BDE985FA856A
:103B70008181813009F4A0C0823009F4B2C0811182
:103B800011C027BD8FEF9FEFDC018093510190930F
:103B90005201A0935301B093540180916E00826052
:103BA00080936E00D1014D915D916D917C918091DA
:103BB000610190916201A0916301B0916401841749
:103BC0009507A607B70708F437C0F60120813181B1
:103BD000C901019691838083EB81FC8132974081FA
:103BE00051818417950744F5D701AA0FBB1FAA0F6F
:103BF000BB1FAE5EBE4F220F331F1296ED91FC919C
:103C00001397E20FF31F45915491EF81F88551838B
:103C10004083880F991F880F991F1496ED91FC918E
:103C2000E80FF91F4591559165917491D1014D931C
:103C30005D936D937C931397B2E0CB0ED11CE4E0BF
:103C40002E0E311C89859A8502969A87898792E083
:103C5000E90EF11CA4E0EA16F10409F41FCE6ACEC5
:103C600082E07ECF60E072E18AE790E0A5019401F6
:103C70000E94E21E215031094109510991E02115AC
:103C80003105B1E04B0751056CF068E478EE81E056
:103C900090E0A50194010E94E21E215031094109E2
:103CA000510993E0113009F061CF80918100887F44
:103CB000892B809381005ACF30938900209388000C
:103CC0008FEF9FEFDC0180934D0190934E01A09305
:103CD0004F01B093500180916F00826080936F001C
:103CE00061CF2093B3008FEF9FEFDC0180934901F8
:103CF00090934A01A0934B01B0934C0180917000C6
:103D00008260809370004ECF89859A850E945518F5
:103D100049CF89859A850E9455188ECF10926101EE
:103D20001092620110926301109264011092760168
:103D30001092750185E591E00E9455181092780166
:103D40001092770187E591E00E9455180E94531860
:103D500080E090E0892B09F494CC0E94DF16882340
:103D600009F48FCC0E9400008CCCE9E7F1E01382CB
:103D7000128288EE93E0A0E0B0E084839583A6836E
:103D8000B78384E091E09183808385EC90E0958710
:103D9000848784EC90E09787868780EC90E0918B15
:103DA000808B81EC90E0938B828B82EC90E0958B02
:103DB000848B86EC90E0978B868B118E128E138EFF
:103DC000148E0895052E97FB1EF400940E94F91E90
:103DD00057FD07D00E94011F07FC03D04EF40C943E
:103DE000F91E50954095309521953F4F4F4F5F4FAD
:103DF000089590958095709561957F4F8F4F9F4F57
:103E00000895A1E21A2EAA1BBB1BFD010DC0AA1F1B
:103E1000BB1FEE1FFF1FA217B307E407F50720F033
:103E2000A21BB30BE40BF50B661F771F881F991FAE
:103E30001A9469F760957095809590959B01AC01F7
:103E4000BD01CF010895EE0FFF1F0590F491E02D05
:063E50000994F894FFCF75
:103E56000000000015177516A2166217D316B116C4
:103E6600C5160C002E251E17840309008C0F68004A
:103E7600C9030D0A00506C6179696E672E2E2E00FB
:063E8600736B697000007F
:00000001FF
