:100000000C94C8260C94F0260C94F0260C94F02640
:100010000C94F0260C94F0260C94F0260C94AE2947
:100020000C94F0260C94F0260C94F0260C94FD29E8
:100030000C94F0260C94F0260C94582A0C94F0267C
:100040000C9464290C94F0260C9432290C940C29FD
:100050000C94F0260C94F0260C94F0260C94F026C8
:100060000C94F0260C94F026000000005F010000C4
:10007000BF060000BF0600001F070000BF08000009
:100080009F0900009F0900007F0A00007F0A00000E
:100090005F0B00005F0B00005F0C00005F0C0000B6
:1000A0001F0E00001F0E0000DF0E0000DF0E00001C
:1000B000FF0F0000FF0F0000BF100000BF10000086
:1000C000DF110000DF1100009F1200009F120000EE
:1000D0007F1300007F1300003F1400003F14000056
:1000E0007F1500007F1500003F1600003F1600003E
:1000F0005F1700005F1700003F1800003F18000066
:100100003F1900003F190000FF190000FF1900000F
:10011000FF1A0000FF1A0000BF1B0000BF1B0000F9
:10012000DF1C0000DF1C00009F1D00009F1D000061
:100130009F1E00009F1E00005F1F00005F1F000049
:100140007F2000007F2000005F2100005F21000071
:100150003F2200003F2200003E2300003F2300001A
:100160001F2400001F2400001F2500001F25000081
:10017000DF250000DF2500009F2600009F260000ED
:10018000BF270000BF2700009F2800009F28000015
:100190007F2900007F2900003F2A00003F2A00003D
:1001A0005F2B00005F2B00001F2D00001F2D0000A3
:1001B000FF2D0000FF2D0000FF2E0000FF2E00008D
:1001C000DF2F0000DF2F0000BF300000BF30000035
:1001D0009F3100009F310000BF320000BF3200009D
:1001E0005F3300005F3300003F3400007F340000C5
:1001F0003F3500003F3500005F3600005F360000ED
:100200001F3700001F370000FF3700001F380000B5
:10021000DF380000DF380000FF390000FF39000040
:10022000BF3A0000BF3A00009F3B00009F3B000028
:100230009F3C00009F3C0000BF3D0000BF3D000010
:100240007F3E00007F3E00003F3F00005F3F000018
:100250003F4000003F4000003F4100003F410000A0
:100260001F4200001F4200009F420000FF420000AA
:100270003F430000FF430000BF440000BF440000B4
:10028000BF450000BF4500009F4600009F4600009C
:100290003F4700009F4700005F4900005F490000A2
:1002A0003F4A00003F4A00003F4B00003F4B000028
:1002B0001F4C00001F4C0000FF4C0000FF4C0000D2
:1002C000DF4D0000DF4D00003F4E0000DF4E00001C
:1002D000BF4F0000BF4F00007F5000007F50000064
:1002E0007F5100007F5100007F5200007F520000CC
:1002F0005F5300005F5300003F5400003F54000074
:100300001F5500001F550000FF550000FF5500005D
:10031000FF560000FF560000DF570000DF570000C7
:10032000BF580000BF5800009F5900009F590000AF
:100330009F5A00009F5A00009F5A00005F5B000018
:100340005F5B00005F5C00005F5C00007F5C0000A2
:100350003F5D00003F5D00003F5E00003F5E00002B
:100360001F5F00001F5F0000FF5F0000FF5F0000D5
:10037000DF600000DF600000DF610000DF6100007F
:100380009F6200009F6200009F6300009F63000067
:100390007F6400007F6400007E6500007E650000D1
:1003A0003F6600003F6600001F6700001F670000F7
:1003B000FE670000FE670000BF690000BF69000023
:1003C000BE6A0000BE6A0000BF6B0000BF6B000089
:1003D0007F6C00007F6C00007F6C00005F6D000090
:1003E0005F6D00005F6D00005F6E00005F6E0000DB
:1003F0003F6F00003F6F00003F7000003F70000043
:10040000FF700000FF700000DF710000DF7100006E
:10041000BF720000BF7200007F7400007F74000094
:100420007F7500007F7500003F7600003F7600007A
:100430003F7700003F7700001F7800001F78000022
:10044000FF780000FF780000DF790000DF7900000E
:10045000DF7A0000DF7A0000BF7B0000BF7B000076
:10046000BE7C0000BE7C0000BE7C00009F7D0000C2
:100470009F7D00007F7E00007F7E00005E7F000089
:100480005E7F00003F8000003F8000005F80000032
:10049000FF800000FF8000001E8200001E8200001E
:1004A000DF820000DF820000BF830000BF83000006
:1004B0009E8400009E8400009F8500009F850000B0
:1004C0005F8600005F8600005E8700005E87000098
:1004D0001F8800001F8800001F8900001F8900007E
:1004E000FE890000FE890000DF8A0000FF8A00000C
:1004F000DF8B0000DF8B0000BF8C0000BF8C000092
:100500007F8D00007F8D00007F8E00007F8E0000B9
:100510003F8F00003F8F00005F9000005F90000061
:100520001F9100001F9100001F9200001F92000009
:10053000DF920000DF920000DF930000DF930000F5
:10054000BF940000BF9400009F9500009F9500009D
:100550007F9600007F9600005F9700005F97000085
:100560001F9800001F9800001F9900001F990000AD
:10057000FF990000FF990000FF9A0000FF9A000019
:10058000BE9B0000BE9B0000BF9C0000BF9C000003
:100590007F9D00007F9D00007E9E00007E9E0000EB
:1005A0003F9F00003F9F00003FA000003FA00000D1
:1005B0001EA100001EA100001FA200001FA200003B
:1005C000DFA20000DFA20000BEA30000BEA3000067
:1005D0007FA400007FA400007FA500007FA500008D
:1005E0003EA600003EA600003FA700003FA7000077
:1005F0001FA800001FA80000FEA80000FEA8000021
:10060000DFA90000DFA90000BFAA0000BFAA000008
:100610007EAB00007EAB00009FAC00009FAC0000F2
:100620005FAD00005FAD00005EAE00005EAE00009A
:100630001FAF00001FAF00001FB000001FB0000080
:10064000DEB00000DEB00000BFB10000BFB10000AE
:100650009FB200009FB200007EB300007EB3000096
:100660003FB400003FB400001FB500005FB50000BC
:100670003EB600003EB600001FB700001FB70000E6
:10068000FFB80000FFB80000BFB90000BFB900000C
:10069000BFBA0000BFBA00009FBB00009FBB0000B4
:1006A0007FBC00007FBC00003FBD00003FBD0000DC
:1006B0003FBE00003FBE0000FFBE0000FFBE0000C6
:1006C000FFBF0000FFBF0000BFC00000BFC00000B0
:1006D000BFC10000BFC100009EC200009EC200005A
:1006E0001EC300001EC300007FC300007FC30000C4
:1006F0005FC400005FC400003EC500003EC50000AE
:100700001FC600001FC60000FFC60000FFC6000095
:10071000DEC70000DEC70000DFC80000DFC8000041
:10072000BFC90000BFC900009ECA00009ECA0000E9
:100730005FCB00005FCB00003FCC00003FCC00004F
:10074000FECC0000FECC0000FFCD0000FFCD00007D
:10075000DFCE0000DFCE0000BECF0000BECF000025
:100760009FD000009FD000007FD100007FD100000B
:100770009FD100009FD100007ED200007ED20000F9
:100780005FD300005FD300001FD400001FD400001F
:10079000FED40000FED40000DFD50000DFD500004D
:1007A000DFD60000DFD600009ED700009ED70000F5
:1007B0009FD800009FD800007FD900007FD900009B
:1007C0005EDA00005EDA00001FDB00001FDB0000C5
:1007D0001FDC00001FDC00001FDC00005FDC0000ED
:1007E000FEDC0000DFDD0000DFDD00009FDE00003A
:1007F0009FDE00009EDF00009EDF00009EDF000005
:100800005FE000005FE000005FE100005FE10000EA
:100810003EE200003EE20000FFE20000FFE20000D6
:10082000DFE30000DFE30000DEE40000DEE40000C0
:100830009FE600009FE600005EE700005EE7000024
:100840005FE800005FE800005FE80000FFE80000EC
:10085000FFE80000FEE90000FEE90000FEE90000FC
:100860003EEA0000BFEB00009FED00009FED00009E
:100870005FEE00005FEE00005EEF00005EEF000044
:100880003FF000003FF00000FFF000001FF100000B
:10089000DEF10000DEF10000DFF20000DFF2000018
:1008A000BFF30000BFF300007EF400009EF40000E0
:1008B0007FF500007FF500005FF600005FF60000A6
:1008C0003EF700003EF70000DFF700003FF80000B1
:1008D000FFF80000FFF800009EF90000FFF900009B
:1008E000BFFA0000BFFA00009FFB0000BEFB000043
:1008F0007EFC00007EFC00007FFD00007FFD00000C
:100900003EFE00003EFE00001EFF00001EFF000035
:10091000FFFF0000FFFF0000DE000100DE0001001D
:100920009E0101009E0101003F0201009F020100A3
:100930005F0301005F030100FE0301003E040100AC
:10094000DF050100FF050100DE060100DE060100F3
:100950009F070100BF0701007F0801007F08010019
:100960007E0901009F0901005F0A01005F0A010082
:100970005E0B01005E0B01005E0B01003F0C0100ED
:100980003F0C01003F0C01001F0D01001F0D010075
:10099000FE0D0100FE0D0100DF0E0100DF0E010063
:1009A000BF0F0100BF0F01007E1001009E1001006B
:1009B0007F1101007F1101005F1201005F12010031
:1009C0003E1301003E1301009E1301001F1401009D
:1009D000FF140100FF1401009E150100DE15010047
:1009E000BF160100BF1601009F170100BF170100CD
:1009F0007E1801007E1801003F1A01003F1A010015
:100A00001E1B01001E1B01001F1C01001F1C0100FA
:100A1000FF1C0100FF1C0100BE1D0100BE1D0100E6
:100A20005E1E01009F1E01007F1F01007F1F01004D
:100A30007E2001007E2001003F2101003F210100B6
:100A40001F2201001F2201009E2201001E2301001F
:100A5000DF230100FF230100DF240100DF24010068
:100A60009E250100BE2501009F2601009F26010052
:100A70007F2701007F2701005E2801005E2801001A
:100A80003F2901003F2901001F2A01001F2A010000
:100A9000FE2A0100FE2A01003E2B0100DF2B01008F
:100AA000BF2C0100BF2C01009E2D01009E2D0100D6
:100AB0009F2E01009F2E01005F2F01005F2F01007C
:100AC000DE2F01005E3001001F3101001F310100E7
:100AD0009F3101001E320100DE320100DE320100D2
:100AE000BF330100DF3301009F3401009F34010058
:100AF0007F3601007F3601003F3701005E3701007D
:100B00003E3801003E3801001F3901001F39010045
:100B1000FE390100FE3901007E3A0100DE3A010093
:100B20009F3B01009F3B01003F3C01009E3C0100B8
:100B30007E3D01007E3D01001F3E01005F3E010041
:100B40001E3F01001E3F0100DE3F01001E4001006C
:100B5000DF400100DF400100BE410100DE41010035
:100B60009E4201009E4201009F4301009F430100FD
:100B70007E4401007E4401003E4501005E450100C7
:100B80005E4501001F4601001F4601001E4701008F
:100B90001E470100FE470100FE470100BF4801005B
:100BA000DF480100DF480100BE490100BE490100E5
:100BB0009E4A01009E4A01005F4B01005F4B01000D
:100BC000FF4B01005E4C01005F4D01005F4D0100D5
:100BD000BF4D01003F4E0100FE4E0100FE4E0100E0
:100BE000DE4F0100DE4F0100BF500100BF50010089
:100BF0009E5101009E5101007E5201007E52010073
:100C00001F5301003F5301001E5401001E540100F8
:100C10001E5501001E550100DF550100DF55010082
:100C20007E560100DE560100BF570100BF5701008C
:100C30009F5801009F5801005E5901005E59010054
:100C4000FE590100595A0100595A0100795A010010
:100C5000795A0100395B0100195C0100395C01001F
:100C6000195D0100195D0100B95D0100F95D010028
:100C7000D95E0100D95E0100996001009960010010
:100C800079610100996101007962010079620100D6
:100C9000196401001964010019650100196501005A
:100CA000F9650100F9650100F8660100F8660100C8
:100CB000B9670100B967010099680100B9680100CE
:100CC000B8690100B8690100596B0100596B010056
:100CD000386C0100586C0100996C0100196D01001D
:100CE000D86E0100D86E0100D96F0100D96F0100E4
:100CF000B9700100B97001007972010079720100C8
:100D0000597301007973010058740100587401008F
:100D1000F9750100F9750100F9760100F976010015
:100D2000D9770100D97701009979010099790100FB
:100D3000997A0100997A0100B97A0100797B010062
:100D4000397D0100397D0100397E0100397E0100C5
:100D5000197F0100197F0100B9800100B9800100ED
:100D6000B9810100B98101009982010099820100D5
:100D70003984010039840100398501003985010079
:100D80001886010018860100F9860100F986010025
:100D9000D9870100D9870100D8880100D8880100CF
:100DA0001889010099890100998A0100998A010036
:100DB000788B0100788B0100598C0100598C01005F
:100DC000198D0100198D0100188E0100188E010087
:100DD000F98E0100F98E0100D98F0100D98F010031
:100DE000B8900100B890010099910100999101001B
:100DF00079920100799201007893010078930100C3
:100E00005994010059940100399501003995010068
:100E1000F8950100F8950100F9960100F996010096
:100E2000D9970100D9970100B8980100B89801003E
:100E30009999010099990100999A0100999A0100E4
:100E4000389B0100389B0100399C0100399C01004E
:100E5000199D0100199D0100D89D0100F89D010018
:100E6000B99E0100B99E0100B99F0100B99F010020
:100E700098A0010098A0010079A1010079A10100CA
:100E800039A2010039A2010038A3010038A30100F2
:100E9000F9A30100F9A30100D9A40100F9A40100FC
:100EA000B8A50100B8A5010099A6010099A6010006
:100EB00079A7010079A7010058A8010058A80100EE
:100EC00019A9010019A9010019AA010019AA010014
:100ED000D8AA0100D8AA0100B9AB0100D9AB010022
:100EE00099AC010099AC010098AD010098AD0100EA
:100EF00079AE010079AE010059AF010059AF010090
:100F000018B0010018B0010019B1010019B10100B9
:100F1000D9B10100D9B10100D8B20100D8B20100A5
:100F2000B9B30100B9B3010099B4010099B401004B
:100F300079B5010079B5010059B6010059B6010033
:100F400019B7010019B7010019B8010019B801005B
:100F5000D9B80100D9B80100D9B90100D9B9010047
:100F6000B9BA0100B9BA010099BB010099BB0100EF
:100F700079BC010079BC010059BD010059BD0100D7
:100F800019BE010019BE010018BF010018BF010001
:100F9000D8BF0100D8BF0100D9C00100D9C00100ED
:100FA000B8C10100B8C1010099C2010099C2010095
:100FB00079C3010079C3010058C4010058C401007D
:100FC00019C5010019C5010019C6010019C60100A3
:100FD000D9C60100D9C60100D9C70100D9C701008F
:100FE000B9C80100B9C8010098C9010098C9010039
:100FF0005FCA01005FCA01005ECB01005ECB010049
:10100000BECB01003ECC01001FCD01001FCD010071
:10101000DECD0100DECD0100BECE0100DECE01003E
:10102000BFCF0100BFCF01009ED001009ED00100C4
:101030007FD201007FD201003ED301003ED30100E8
:101040001ED401001ED40100FFD40100FFD4010012
:10105000DED50100DED50100BED60100BED60100FE
:101060009FD701009FD701005ED801005ED8010024
:101070005ED901005ED901003FDA01003FDA0100CC
:101080001EDB01001EDB0100DEDB0100DEDB0100F8
:10109000DFDC0100DFDC0100BEDD0100BEDD0100A0
:1010A0009EDE01009EDE01005EE001005EE00100C8
:1010B0003EE101003EE101001FE201001FE20100EC
:1010C000FEE20100FEE20100DEE30100DEE30100DA
:1010D000BFE40100BFE401009EE501009EE50100C0
:1010E0005EE601005EE601005FE701005FE70100E8
:1010F0003EE801003EE801001EE901001EE9010092
:10110000DFE90100DFE90100DEEA0100DEEA0100BB
:10111000BEEB0100BEEB01009FEC01009FEC010063
:101120005EED01005EED01005EEE01005EEE01008D
:101130003FEF01003FEF01001EF001001EF0010033
:10114000DEF00100DEF00100DFF10100DFF101005F
:10115000BEF20100BEF201009EF301009EF3010009
:101160005EF501005EF501001EF601001EF60100AD
:10117000FFF60100FFF60100BEF70100BEF7010017
:10118000FEF801009FF901007EFA01007EFA0100DD
:101190003FFC01003FFC0100FEFC0100FEFC0100E1
:1011A000DEFD0100DEFD01009FFE01009FFE01004B
:1011B0007EFF01009EFF01005E0002005E00020053
:1011C0005F0102005F0102001E0202001E02020017
:1011D0001E0302001E0302003E030200DE040200A2
:1011E0009F0602009F0602005E0702005E070200E3
:1011F0005E0802005E0802005E0802003F0902006D
:101200003F0902003F0902001E0A02001E0A0200F6
:10121000FE0A0200FE0A0200DF0B0200DF0B0200E2
:10122000BE0C0200BE0C02009E0D0200BE0D0200AC
:10123000FE0D02007E0E02005E0F02005E0F020035
:101240007E0F02007E0F02001E1002001E10020020
:10125000DF1002001E110200DE110200DE1102008A
:101260007E120200DE120200BE130200BE13020054
:101270007E1402007E1402005E1502005E1502005C
:101280005E1602005E1602001E1702001E17020004
:10129000FE170200FE170200DE180200DE18020030
:1012A0009E1902009E1902007E1A02007E1A020098
:1012B0001F1B02005F1B02001E1C02001E1C0200FE
:1012C000BE1C02001E1D0200FF1D0200FF1D0200C9
:1012D0007E1E0200DE1E0200BE1F0200BE1F0200B4
:1012E0003E2002009F2002005E2102005E210200DB
:1012F0001E2202005E2202001F2302001F230200A2
:101300001E2402001E240200DE240200DE2402004D
:10131000BF250200DE2502009E2602009E26020056
:101320009E2702009E2702005F2802005F2802001D
:101330003E2902005E2902001E2A02001E2A020027
:101340001E2B02001E2B02001E2B02007E2C020010
:101350007E2C0200DE2C0200BE2D0200BE2D0200FB
:101360005E2E02009E2E02007E2F02007E2F0200C3
:101370005E3002005E3002003E3102003E3102006B
:101380001E3202001E320200DE320200DE32020095
:10139000DE330200DE330200BE340200BE3402003F
:1013A0009E3502009E3502007E3602007E36020027
:1013B000FE3602003E3702003E3802003E38020090
:1013C0003E3902003E390200DE390200DE390200F9
:1013D000DE3A0200DE3A0200BE3B0200BE3B0200E3
:1013E0009E3C02009E3C02007E3D02007E3D0200CB
:1013F0005E3E02005E3E02003E3F02003E3F0200B3
:101400001E4002001E400200FE400200FE4002009C
:10141000DE410200DE410200BE420200BE42020086
:101420009E4302009E4302007E4402007E4402006E
:101430005E4502005E4502001E4602001E46020096
:101440001E4702001E4702001E470200FE47020020
:10145000FE4702009E4802009E480200DE4802004D
:101460009E4902009E4902009E4A02009E4A0200D6
:101470007E4B02007E4B02005E4C02005E4C02007E
:101480003E4D02003E4D02001E4E02001E4E020066
:10149000FE4E0200FE4E0200BE4F0200BE4F020092
:1014A000BE500200BE5002007E5102007E5102007A
:1014B000DE5202003E5302003E5302001E54020060
:1014C0001E5402009E5402009E540200FE5402006C
:1014D000BE550200BE5502007E560200BE560200F6
:1014E0007E5702007E5702003E5802007E580200DE
:1014F0003E5902003E5902003E5A02003E5A020086
:10150000FE5A0200FE5A0200FE5B0200FE5B020071
:10151000DE5C0200DE5C0200BE5D0200BE5D020019
:101520007E5E02007E5E02007E5F02007E5F020041
:101530003E6002003E6002001E6102003E61020049
:101540003E6102005F610200FE610200FE62020075
:10155000FE620200FE620200FE6202009E63020062
:101560009E6302005E6402005E640200BE640200CC
:101570007E6502007E6502003E6602007E66020015
:101580005E6702005E6702003E6802005E6802005D
:101590001E6902001E6902001E6A02001E6A020025
:1015A000FE6A0200FE6A0200DE6B0200DE6B0200D1
:1015B000DE6C0200DE6C0200DE6D0200DE6D0200F9
:1015C000DE6E0200DE6E0200DE6F0200DE6F0200E1
:1015D000DE700200DE700200FE710200FE71020089
:1015E0001E7302001E7302001E7402001E740200AD
:1015F0003E7502003E7502003E760200BE76020095
:101600005E8002000000F6000000F60000007B0093
:101610000000B8000000F6000000B8000000610003
:101620000000C3000000920000008A000000CF000C
:10163000000015010000CF0000005C0000008A00DF
:101640000000B80000008A0000007B000000B80025
:101650000000F6000000B8000000610000009200E9
:101660000000C3000000920000006E000000A40013
:101670000000DC000000A4000000F6000000E9000B
:101680000000F6000000B80000007B000000B80079
:101690000000F6000000B8000000610000009200A9
:1016A0000000C30000008A000000CF000000150108
:1016B0000000CF0000005C0000008A000000B800BD
:1016C00000008A0000007B000000B8000000F60067
:1016D0000000B80000006100000092000000C3009C
:1016E0000000920000006E000000A4000000DC007A
:1016F0000000A4000000F6000000E9000000F60071
:101700000000B80000007B000000F6000000F600BA
:101710000000F600000074000000E9000000E9008D
:1017200000008A000000CF000000CF000000CF00C2
:10173000000082000000C3000000C300000005019B
:1017400000007B000000B8000000B8000000B800F6
:10175000000074000000AE000000AE000000AE000B
:1017600000008A000000CF000000CF00150100003B
:1017700015010000820000000000C3000000C3004B
:101780000000C30000007B000000F6000000F6002F
:101790000000F600000074000000E9000000E9000D
:1017A0000000E90000008A0000001501000015019A
:1017B00000008200000005010000C30005010000D8
:1017C0000000C30000007B000000F6000000F600EF
:1017D0000000F600000074000000E9000000E900CD
:1017E00000008A000000CF000000CF0000001501BB
:1017F00000008200000005010000C3000000050198
:1018000000007B00F6000000B8000000F6000000B9
:10181000B8000000740000000000AE000000E90005
:101820000000AE0000008A000000CF00000015019B
:101830000000CF00000082000000C300000005018E
:101840000000C30000007B000000B8000000F600AC
:101850000000B800000074000000AE000000E900C5
:101860000000AE0000008A000000CF00000015015B
:101870000000CF00000082000000C300000005014E
:101880000000C30000007B000000B8000000F6006C
:101890000000B800000074000000AE000000E90085
:1018A0000000AE0000008A000000CF00000015011B
:1018B0000000CF00000082000000C300000005010E
:1018C0000000C30000007B000000B8000000F6002C
:1018D0000000B800000074000000AE000000E90045
:1018E0000000AE0000008A000000CF0000001501DB
:1018F0000000CF0000005C0000008A000000B8007B
:1019000000008A0000006100000092000000C30097
:1019100000006100000092000000C300000092007F
:1019200000007B000000B8000000F6000000B800D6
:1019300000007B000000B8000000F6000000B800C6
:101940000000B80000006100000092000000C30029
:101950000000920000006100000092000000C3003F
:101960000000920000007B000000B8000000F600BC
:101970000000B80000007B000000B8000000F60086
:101980000000B8000000A4000000520000007B002E
:101990000000A40000007B000000520000007B005B
:1019A0000000A40000007B0000007B000000B800E5
:1019B0000000F6000000B80000007B00F600000008
:1019C000B8000000F6000000B8000000000052005F
:1019D00000007B000000A40000007B000000490024
:1019E00000006E000000920000005C0000008A0011
:1019F00000005C00B80000008A0000000000B80091
:101A00000000B80000006100000092000000C30068
:101A1000000092000000DC000000A4000000DC00D8
:101A20000000DC0000005C0000008A000000B8003C
:101A300000008A0000007B000000B80000006E007B
:101A40000000A40000006100000092000000C3003C
:101A50000000920000006E000000A4000000DC0006
:101A60000000A40000008A000000B800000074001C
:101A70000000DC000000A400000067000000A400DB
:101A80000000C3000000920000009200C3000000AC
:101A90000000920000006E000000A4000000DC00C6
:101AA0000000A4000000B80000008A000000B80098
:101AB00000008A0000007B000000B80000006E00FB
:101AC0000000A400000061000000920000009200ED
:101AD00000006E000000A4000000DC000000A40074
:101AE00000007B000000B8000000F6000000B80015
:101AF0000000F6000000E9000000F6000000B80059
:101B000000006100000092000000C300000092008D
:101B100000006E000000A4000000DC000000A40033
:101B200000005C0000008A000000B80000008A008D
:101B300000007B000000B8000000DC000000A400F2
:101B400000006100000092000000920000006E00A2
:101B50000000A4000000DC000000A40000007B00E6
:101B60000000B8000000E9000000B8000000DC0040
:101B70000000A400000067000000A4000000610055
:101B8000000092000000C3000000920000006E0000
:101B9000DC000000A4000000DC000000A400000045
:101BA0000000B80000008A000000B80000008A00B1
:101BB00000007B000000B8000000DC000000A40072
:101BC00000006100000092000000C30000009200CD
:101BD00000006E000000A4000000DC000000A40073
:101BE00000007B000000B8000000F6000000B80014
:101BF00000007B00F60000000000E9000000F60095
:101C00000000B80000007B000000F6000000F600B5
:101C1000000074000000E9000000E90000008A00F4
:101C20000000CF000000CF0000001501000082007E
:101C3000000005010000050100007B000000F60027
:101C40000000F600000074000000E9000000E90058
:101C500000008A000000150100001501000082004C
:101C6000000005010000050100007B000000F600F7
:101C70000000F600000074000000E9000000E90028
:101C800000008A000000150100001501000082001C
:101C9000000005010000C3000000050100007B00FA
:101CA0000000F6000000F6000000F60000007400DE
:101CB0000000AE000000AE000000E90000008A0055
:101CC0000000CF000000CF000000150100008200DE
:101CD00000000501000005010000050100007B0077
:101CE0000000B8000000F6000000B800000074001A
:101CF0000000AE000000E9000000AE0000008A0015
:101D00000000CF00000015010000CF000000050119
:101D10000000C300000005010000C3000000F60041
:101D20000000B8000000F6000000B80000007400D9
:101D30000000AE000000E9000000AE0000008A00D4
:101D40000000CF00000015010000CF00000082005D
:101D50000000C300000005010000C3000000F60001
:101D60000000B8000000F6000000B8000000740099
:101D70000000AE000000E9000000AE0000008A0094
:101D80000000CF00000015010000CF00000082001D
:101D90000000C300000005010000C30000007B003C
:101DA0000000B8000000F6000000B8000000740059
:101DB0000000AE000000E9000000AE0000008A0054
:101DC0000000CF00000015010000CF0000005C0003
:101DD00000008A000000B80000008A0000006100D6
:101DE000000092000000C3000000610000009200AB
:101DF0000000C3000000920000007B000000B8005B
:101E00000000F6000000B80000007B000000B800F1
:101E10000000F6000000B800000061000000920021
:101E20000000C30000006100000092000000C30039
:101E30000000920000007B000000B8000000F600E7
:101E40000000B80000007B000000B8000000F600B1
:101E50000000B8000000A40000007B000000A40007
:101E600000007B000000A4000000F6000000A400B9
:101E700000007B000000F6000000B8000000F60043
:101E800000007B000000B8000000F6000000B80071
:101E900000007B000000A4000000920000006E0023
:101EA0000000920000006E000000B80000008A00F0
:101EB0000000B80000008A000000B8000000B80070
:101EC0000000C3000000920000009200C300000068
:101ED0000000920000006E000000A4000000DC0082
:101EE0000000A40000005C0000008A000000B800B0
:101EF00000005C0000008A0000007B000000B800C9
:101F000000006E000000A4000000610000009200CC
:101F10000000C3000000C3000000DC000000A400BB
:101F20000000DC000000A40000007B000000B800FE
:101F3000000074000000B80000006E000000A40063
:101F4000000067000000A400000061000000920093
:101F50000000C3000000920000006E000000A4001A
:101F60000000DC000000A40000005C0000008A000B
:101F700000005C00B800000000007B000000B8001A
:101F80000000DC000000A4000000610000009200DE
:101F90000000C3000000920000006E000000A400DA
:101FA0000000DC000000A40000007B000000B8007E
:101FB0000000F6000000B8000000F6000000E90094
:101FC0000000F6000000B800000061000000920070
:101FD0000000C3000000920000006E000000A4009A
:101FE0000000DC000000A40000005C0000008A008B
:101FF00000005C00B80000008A00000000007B00C8
:102000000000B80000006E000000A40000006100A5
:10201000000092000000C3000000920000006E006B
:102020000000A4000000DC0000007B00F6000000BF
:10203000B8000000000074000000B80000006E004E
:102040000000A400000067000000A4000000C3001E
:10205000000092000000C3000000920000006E002B
:102060000000A4000000DC000000A40000005C00F0
:10207000B80000008A00000000005C00B80000000A
:102080008A00000000007B000000B80000006E0025
:102090000000A40000006100000092000000C300E6
:1020A0000000920000006E000000A4000000DC00B0
:1020B0000000A40000007B000000B8000000F60053
:1020C0000000B8000000F6000000E9000000F60083
:1020D0000000000000009F010000BF010000BF06DB
:1020E0000000DF0600003F080000FF0800001F0995
:1020F00000001F0900001F0900009F0900009F0940
:1021000000007F0A00007F0A00005F0B00005F0BE9
:102110000000BF0B0000BF0B0000DF0C0000DF0C55
:102120000000DF0C0000FF0C00005F0D00005F0DE1
:1021300000005F0D00007F0D00003F0E00003F0E0D
:102140000000FF0E0000FF0E00007F0F00007F0F59
:1021500000003F1000003F1000005F1000007F10E3
:102160000000BF100000DF100000FF100000FF1093
:102170000000DF110000DF110000BF120000BF12DD
:1021800000003F1300003F130000BF130000BF1307
:102190000000DF130000FF1300001F1400001F14D5
:1021A00000009F1400009F1400007F1500007F15A1
:1021B0000000DF160000DF1600005F1700007F1729
:1021C00000007F170000DF170000DF170000FF1777
:1021D00000003F1800003F1800001F1900001F19E1
:1021E0000000FF190000FF1900007F1A00007F1A8D
:1021F0000000FF1A00001F1B00001F1B00007F1BB8
:1022000000009F1B0000BF1B0000DF1B0000DF1B46
:102210000000DF1C0000DF1C0000BF1D0000BF1D10
:1022200000009F1E00009F1E0000BF1E0000BF1E7A
:102230000000DF1E00001F1F00001F1F00003F1FC7
:1022400000009F1F00009F1F00007F2000007F20D4
:1022500000005F2100005F2100003F2200003F22BC
:1022600000003F2200005F220000BF220000DF22AA
:1022700000003F2300003F2300001F2400001F2414
:1022800000001F2400003F2400009F240000BF2402
:1022900000007F2500007F250000FF2500001F268D
:1022A00000005F2600007F2600007F2600007F26BA
:1022B0000000DF260000DF260000BF270000BF2748
:1022C00000009F2800009F2800001F2900001F29F0
:1022D00000009F2900009F290000BF290000FF295E
:1022E00000001F2A00003F2A00007F2A00007F2AEA
:1022F00000005F2B00005F2B00003E2C00003E2CF6
:102300000000BF2C0000BF2C00003F2D00003F2D1F
:1023100000005F2D00009F2D0000BF2D0000DF2D6D
:1023200000001F2E00001F2E0000FF2E0000FF2EB9
:102330000000DF2F0000DF2F00005F3000005F3063
:102340000000DF300000DF300000FF3000001F31F0
:1023500000003F3100005F310000BF310000BF319D
:1023600000009F3200009F320000FF330000FF3367
:1023700000003F3400005F340000BF340000DF3451
:102380000000DF340000DF3400005F3500005F35FF
:1023900000003F3600003F3600001F3700001F37A7
:1023A00000009F3700009F370000FF3700001F38F4
:1023B00000001F3800007F380000DF380000FF38C1
:1023C0000000FF380000FF380000DF390000DF396F
:1023D0000000BF3A0000BF3A00009F3B00009F3B57
:1023E0000000BF3B0000DE3B0000DE3B00001F3C66
:1023F00000003F3C00005F3C00009F3C00009F3C11
:1024000000009F3D00009F3D00007F3E00007F3E9A
:1024100000003F3F00003F3F00005F3F00005F3F84
:102420000000BF3F0000DF3F00003F4000003F4092
:1024300000003F4100003F4100003F4100005F417C
:102440000000BF410000DF410000BF420000BF426A
:102450000000DF4200001F4300007F4300009E4356
:102460000000BF440000BF4400009F4600009F469C
:102470000000BF460000DF4600007F4800007F48A4
:1024800000007F4800009F4800005F4A00005F4A4C
:1024900000005F4A00007F4A0000FF4A00001F4B17
:1024A00000001F4C00001F4C0000DF4D0000DF4DFE
:1024B0000000DF4D0000FE4D00007F4E00009F4EEB
:1024C0000000BF4F0000BF4F0000DF4F0000FF4F74
:1024D00000001F5000003F5000009F5100009F511E
:1024E00000009F510000BF5100003F5200005F52AA
:1024F00000005F5300005F5300001F5500001F5590
:1025000000003F5500005F550000DE550000FF55FC
:102510000000FF560000FF560000BF580000BF58E3
:102520000000DF580000FF5800007F5900009F594D
:1025300000009F5A00009F5A00005F5C00005F5C33
:1025400000005F5C00007F5C0000DF5C0000FF5C5F
:1025500000003F5E00005F5E00007F5E00009F5E47
:102560000000FF5F0000FF5F0000FF5F00001E60D3
:1025700000009F600000BF600000BF610000BF61FD
:1025800000009F6300009F630000BF630000DF63E3
:1025900000001F6400003F6400005E6500005E658F
:1025A00000003F6700003F6700003F6700005F6773
:1025B0000000BF670000DE670000FF680000FF68E2
:1025C0000000BE6A0000BE6A0000DF6A0000FF6A09
:1025D00000005F6B00007F6B00007F6C00007F6C71
:1025E00000005F6E00005F6E00005F6E00007F6E97
:1025F0000000BF6E0000DF6E00001F7000001F7043
:102600000000DF710000DF710000FF7100001F7229
:1026100000009F720000BF7200009F7300009F7354
:1026200000007F7500007F7500007F7500009F75BA
:1026300000001F7600003F7600003F7700003F77E4
:102640000000FF780000FF7800001F7900003F794C
:1026500000007F7900009F7900009E7C00009E7C36
:102660000000DE7C0000FF7C00005F7D00007F7DBD
:1026700000007F7E00007F7E00003F8000003F80E2
:1026800000005F8000007F800000BF800000DF80CE
:102690000000FE810000FE810000BF830000BF83B8
:1026A0000000DF830000FF8300007E8400009E8422
:1026B00000009F8500009F8500005E8700005E8708
:1026C00000007F8700009F870000DF870000FF87F2
:1026D00000001F8900001F890000DF8A0000DF8AD8
:1026E0000000FF8A0000FF8A00005F8B00007F8BE4
:1026F00000009F8C00009F8C00007F8E00007F8E6A
:1027000000009F8E0000BF8E00003F8F00005F8F93
:1027100000003F9000003F9000001F9200001F92B9
:1027200000001F9200003F9200009F920000BF92A5
:102730000000DF930000DF9300009F9500009F954D
:102740000000BF950000DF9500003F9600005F96F7
:1027500000001F9900001F9900001F9900003E997A
:1027600000009E990000BF990000DF9A0000DF9AE8
:102770000000BF9C0000BF9C0000BF9C0000DF9CCD
:1027800000001F9D00003F9D00007E9E00007E9E79
:1027900000003FA000003FA000005FA000007FA05D
:1027A0000000DFA00000FEA00000FFA10000FFA1CC
:1027B0000000BEA30000BEA30000DEA30000DEA355
:1027C00000003FA400005FA400007FA500007FA5DB
:1027D00000001FA700003FA700003FA700003FA781
:1027E00000005FA70000BFA70000DFA70000FEA851
:1027F0000000FEA80000BFAA0000BFAA0000DFAAD8
:102800000000FFAA00005EAB00007EAB00009FACA2
:1028100000009FAC00003EAE00003EAE00005EAE89
:1028200000007FAE0000DFAE0000FFAE0000FFAF93
:102830000000FFAF0000BFB10000BFB10000FFB15A
:1028400000001FB200005FB200007FB20000DFB4E2
:102850000000DFB400003FB500003FB500005FB5E9
:1028600000005FB500003EB600003EB600003EB678
:1028700000005FB600001FB700001FB70000FFB7E1
:102880000000FFB70000DEB80000DEB800001FB98E
:1028900000003FB900005FB900007FB90000BFB978
:1028A0000000BFB900009FBA00009FBA00007FBBC4
:1028B00000007FBB00005FBC00005FBC00007FBC6D
:1028C00000009FBC0000FFBC00001FBD00003FBD1A
:1028D00000003FBD00003FBE00003FBE0000FFBE45
:1028E0000000FFBE0000FFBF0000FFBF00001EC0D1
:1028F00000003EC000009EC00000BFC000009EC29D
:1029000000009EC200001EC300001EC300007FC363
:1029100000007FC300007FC300009FC30000FFC30F
:1029200000001FC400005FC400005FC400003EC57B
:1029300000003EC500005EC500009EC500001FC629
:1029400000001FC60000DFC60000DFC600001FC772
:1029500000003FC700007FC700009FC70000BFC73F
:102960000000BFC70000BFC80000BFC80000DFC82C
:1029700000001FC900009FC900009FC900007ECA57
:1029800000007ECA00009ECA0000BECA00001FCB25
:1029900000003FCB00005FCB00005FCB00003FCCCE
:1029A00000003FCC00001ECD00001ECD0000FFCD7A
:1029B0000000FFCD00003FCE00005FCE00009FCEA4
:1029C0000000BFCE00009FD000009FD00000FFD0CD
:1029D0000000FFD000007FD100007FD100009FD118
:1029E0000000BFD10000FFD100001FD200007ED246
:1029F00000007ED200003FD300003FD30000FED491
:102A00000000FED400005ED500007ED500007ED51B
:102A10000000BFD50000DFD50000DFD50000BFD625
:102A20000000BFD600009FD800009FD80000BFD88C
:102A30000000DFD800001FD900003FD900005FD997
:102A400000005FD900005EDA00005EDA00001FDBE4
:102A500000001FDB00001FDC00001FDC00005FDC4B
:102A600000007FDC0000DEDC0000FEDC00009FDEFA
:102A700000009FDE0000FFDE0000FFDE00007EDFC2
:102A800000007EDF0000BEDF0000DEDF00003FE070
:102A900000005FE000005FE000005FE000005FE139
:102AA00000005FE100001EE200001EE20000FFE205
:102AB0000000FFE200003FE300005FE300009FE34F
:102AC0000000BFE30000DFE30000DFE30000BEE43E
:102AD0000000BEE400009FE500009FE500009FE6C7
:102AE00000009FE600009FE60000BFE600001EE732
:102AF00000003EE700005FE800005FE80000FEE93C
:102B00000000FEE900001EEA00003EEA0000FFEBC4
:102B100000001EEC00007FED00007FED00009FED47
:102B20000000BFED00001FEE00003FEE00005EEF72
:102B300000005EEF0000FFF00000FFF000001FF15A
:102B400000001FF100007EF100009EF10000DFF2A6
:102B50000000DFF20000FFF200003FF300007EF40F
:102B600000007EF400009EF400009EF40000FFF4DC
:102B700000001FF500005FF600005FF600001EF782
:102B800000001EF70000DFF70000FFF700001FF84D
:102B900000001FF800005FF800007FF800009EF9B9
:102BA0000000BEF90000DEF90000DEF900003FFA87
:102BB00000005FFA00009FFB00009FFB00009FFBEE
:102BC0000000BEFB00001EFC00005EFC00007EFC5E
:102BD00000009FFC00005FFD00005FFD00001FFE85
:102BE00000001FFE0000FEFE0000FEFE00001EFFB3
:102BF00000003FFF00007FFF00009FFF0000DFFF9D
:102C00000000DFFF00005F0001005F000100BF0067
:102C10000100BF0001009E0101009E010100FF01B3
:102C20000100FF0101003F0201005F0201005F029D
:102C300001007F0201007F020100BF020100DF02EC
:102C400001005F0301005F030100FE030100FE03BA
:102C500001001E0401003E0401007F0401009F04E6
:102C600001001F0501001F050100DF050100DF0550
:102C70000100FF050100FF0501005E0601007E0660
:102C80000100BE060100BE0601009F0701009F076C
:102C90000100BF070100BF0701001F0801003F0836
:102CA00001007E0901007E0901007E0901009F09E3
:102CB0000100FF0901001F0A01005E0B01005E0B0D
:102CC00001001F0D01001F0D01003F0D01005F0DF0
:102CD0000100BF0D0100DE0D0100FE0D0100DF0E41
:102CE0000100DF0E0100FF0E01001F0F01005F0F4A
:102CF00001007F0F01009E1001009E1001009E1038
:102D00000100BE1001001E1101003E1101005F1202
:102D100001005F1201003E1301003E1301009E13EB
:102D20000100BE130100BE1301001F1401007F1437
:102D300001009F1401009E1501009E150100BE15A3
:102D40000100DE1501003E1601005E1601009F170E
:102D500001009F1701009F170100BF1701005E18B7
:102D600001007E1801009E1801009E1801005F19E5
:102D700001005F1901003F1A01003F1A0100FE1A0D
:102D80000100FE1A01001E1B01003E1B01009E1BDC
:102D90000100BE1B0100FF1B0100FF1B01005F1CA7
:102DA00001005F1C0100DF1C0100DF1C0100BE1DD3
:102DB0000100BE1D0100FE1D0100FE1D01007F1E61
:102DC00001009F1E01009F1E01009F1E0100FF1EAB
:102DD00001001F1F01007F1F01007F1F01005E20F7
:102DE00001005E2001003F2101003F2101001F2260
:102DF00001001F220100BE220100BE220100DE22CE
:102E00000100FE2201001E2301003E230100DF23FA
:102E10000100DF230100FF230100FF2301005F24E5
:102E200001007F240100BE250100BE250100BE2552
:102E30000100DE2501003E2601005F2601007F27FC
:102E400001007F2701003F2901003F2901003F29A0
:102E500001005F290100BF290100DF290100FE2ACE
:102E60000100FE2A01005E2B01009F2B0100BF2CF8
:102E70000100BF2C0100BF2C0100DF2C01003E2D02
:102E800001005E2D01009F2E01009F2E01007F2F6B
:102E900001007F2F0100DE2F0100FE2F01001E30F8
:102EA00001005E3001009E300100BF3001009F3103
:102EB0000100BF310100DF310100FF3101005E324E
:102EC00001007E3201009F3301009F330100BF33B8
:102ED0000100DF3301003F3401005F340100BE34E4
:102EE0000100BE3401009E3501009E3501005F36B1
:102EF00001005F3601003F3701003F3701005E37B8
:102F000001005E370100DE370100FE3701003E3868
:102F100001003E3801009F3801009F3801001F3931
:102F200001001F390100DF390100DF390100FE39DE
:102F300001003E3A01003E3A01003E3A01009E3A4D
:102F40000100BE3A0100DE3A0100DE3A01001F3BFB
:102F500001003F3B01009F3B01009F3B01003F3CC4
:102F600001005F3C01009E3C01009E3C0100DE3CF4
:102F70000100FE3C01007E3D01007E3D01001F3E40
:102F800001001F3E01003F3E01005F3E01009F3EE9
:102F90000100BF3E01001E3F01001E3F0100DE3F59
:102FA0000100DE3F0100FE3F01001E4001005F40C6
:102FB00001007F400100BE410100DE410100DE4111
:102FC0000100DE410100FE4101005E4201007E423F
:102FD00001009F4301009F430100BF430100DF4305
:102FE0000100FF4301001F4401003E4501005E4512
:102FF00001005E4501007E450100DF450100FF45FF
:1030000001001E4701001E4701001E4701005E47E8
:103010000100BF480100BF480100DF480100DF4850
:1030200001003F4901005F4901009E4A01009E4A9C
:1030300001004B4B01004B4B0100FF4B01001E4CAC
:1030400001005E4C01005E4C01009E4C0100BE4C34
:103050000100BF4D0100DF4D0100FF4D01001F4E7B
:1030600001007F4E01009E4E0100DE4F0100DE4F49
:103070000100DE4F0100FF4F01007F5001009F5013
:103080000100BF500100BF5001007E5101007E5180
:1030900001005E5201005E5201001F5301001F53E8
:1030A00001003F5301003F530100BF530100DE53B5
:1030B00001003E5401003E5401009E5401009E5404
:1030C0000100DE540100FE540100FE540100FE54D4
:1030D00001001E5501003F550100DF5501001F563C
:1030E00001007E5601007E5601009E560100DE560C
:1030F0000100FE5601001E570100BF570100BF57D7
:1031000001009F5801009F5801007E5901007E591F
:103110000100FE5901001E5A01003E5A01005F5A8B
:1031200001009F5A0100BF5A01001F5B01001F5B95
:1031300001001E5C01001E5C01003E5C01005E5C43
:1031400001009E5C0100BE5C0100DF5D0100FF5DCF
:103150000100FF5D0100FF5D01003E5E01005E5E5B
:103160000100BF5F0100BF5F01007E6101007E6161
:1031700001009E610100BE610100FE6101001E624E
:1031800001005E6301005E6301001F6501001F65B1
:1031900001001F6501003F6501009F650100BF65DB
:1031A0000100FE660100FE6601009E6801009E6847
:1031B0000100BE680100BE6801001E6901003E6991
:1031C00001009F6A01009F6A01003E6C01003E6C95
:1031D00001005E6C01005E6C0100BF6C0100DF6CE1
:1031E00001001E6E01001E6E0100DF6F0100DF6F27
:1031F0000100DF6F0100FF6F01007E7001009E7013
:103200000100BE710100BE7101005E7301007E739A
:1032100001007E7301009E730100FE7301001E74A5
:1032200001003F7501003F750100FF760100FF7648
:1032300001001F7701003F7701007F7701009F7732
:1032400001009F7A01009F7A01009F7A0100BE7AF7
:103250000100FE7A01001E7B01005F7C01005F7CA3
:1032600001003E7E01003E7E01003E7E01005E7E4A
:103270000100BE7E0100DF7E0100FE7F0100FE7FB7
:103280000100BF810100DF810100DF810100FF81BA
:1032900001003F8201005F8201007E8301007E8386
:1032A00001007E830100BE8301003E8501003E8552
:1032B00001003E8501005E850100BE850100DE85BE
:1032C0000100FF860100FF860100FF8601001F87C5
:1032D00001005F8701007F870100DE880100DE8832
:1032E0000100DE880100FE8801005F8901007F89FE
:1032F00001009E8A01009E8A01007E8B0100BE8B28
:1033000001005F8C01005F8C01005F8C01007F8CED
:103310000100DE8C0100FE8C01001E8E01001E8E5D
:103320000100DE8F0100DE8F0100FE8F01001E9084
:1033300001005E9001007E9001009F9101009F912D
:1033400001005E9301005E9301007E9301009E9355
:103350000100FF9301001F940100FF960100FF96FA
:1033600001001F9701003E970100BE970100DE9704
:103370000100BE980100BE9801007E9A01007E9A6D
:1033800001009E9A0100BE9A01001E9B01003E9B17
:1033900001003F9C01003F9C0100DE9D0100DE9D7D
:1033A0000100FE9D0100FE9D01005F9E01007F9EC9
:1033B0000100BE9F0100BE9F01007FA101007FA10F
:1033C00001009EA10100BEA10100FEA101001EA2FC
:1033D00001003EA301003EA30100DEA40100DEA423
:1033E0000100DEA40100FEA401005EA501007EA58F
:1033F00001009EA501009FA601009FA601005EA8F6
:1034000001005EA801005EA801007FA80100FFA8DE
:1034100001001FA901001EAA01001EAA0100BFABE6
:103420000100DFAB0100DFAB0100FEAB01003EACF1
:1034300001005EAC01009EAD01009EAD01005EAFDB
:1034400001005EAF01005EAF01007EAF01009EAFE4
:103450000100DEAF0100FEAF0100DEB20100DEB20E
:103460000100DEB20100FFB201005FB301007FB3D3
:1034700001009EB401009EB401005EB601005EB67C
:1034800001007EB601009EB60100DEB60100FEB668
:1034900001001FB801001FB80100DEB90100DEB94C
:1034A0000100FEB901001EBA01007EBA01009EBAF9
:1034B00001009EBB01009EBB01005FBD01005FBD1E
:1034C00001007FBD01007FBD0100DFBD0100FFBD28
:1034D00001001EBF01001EBF0100DEC00100DEC0F2
:1034E0000100FEC001001EC101009EC10100BEC15D
:1034F00001009FC201009FC201005EC401005EC4C2
:1035000001007EC401009EC40100FEC401001FC56D
:1035100001001EC601001EC60100DFC70100DFC793
:1035200001001FC801003FC801007EC801009EC8FD
:1035300001009EC901009EC901005ECB01005ECB67
:1035400001007ECB01009ECB0100BECB0100FECB73
:1035500001001ECC01007ECE01007ECE0100BECE59
:103560000100BECE0100DECE0100DECE01005ECF46
:1035700001007ECF0100BFCF0100BFCF01009ED070
:1035800001009ED001007ED101007ED101005FD2FA
:1035900001005FD201007FD201009FD20100DED284
:1035A0000100FED201003ED301003ED301001ED433
:1035B00001001ED40100FFD40100FFD40100DED5BC
:1035C0000100DED50100DED50100FED501007ED66A
:1035D00001009ED60100BED60100BED601009FD7D5
:1035E00001009FD701007ED801007ED801005ED97E
:1035F00001005ED901007ED901009ED90100FFD9EA
:1036000001001FDA01007EDC01007EDC0100DFDC4E
:103610000100DFDC0100DFDC0100FFDC01005EDD1A
:1036200001007EDD01009EDD0100BEDD0100BEDD8A
:1036300001009EDE01009EDE01007FDF01007FDFD2
:1036400001005EE001005EE001007EE001009EE01E
:1036500001001EE101003EE101003EE101003EE10A
:1036600001001FE201001FE20100FEE20100FEE294
:1036700001001EE301005EE30100DEE30100DEE382
:103680000100FEE301001EE401005FE401007FE4AD
:103690000100BFE40100BFE401009EE501009EE5DA
:1036A00001007EE601007EE601005FE701005FE7C2
:1036B00001009EE70100BEE701001EE801003EE8B0
:1036C0000100FFE90100FFE901003EEA01003EEAD6
:1036D0000100DEEA0100DEEA0100FEEA01001EEB65
:1036E00001005EEB01007EEB0100BEEB0100BEEBD2
:1036F00001009FEC01009FEC01005EEE01005EEE18
:1037000001009EEE0100BEEE0100DFEE01001FEFA2
:1037100001003FEF01003FEF0100FEEF0100FEEF6F
:103720000100DFF10100DFF10100FEF101001EF2F6
:1037300001007EF201009EF201009EF201009EF265
:1037400001007EF301007EF301007FF401007FF4AD
:1037500001003EF501003EF501007EF501009EF5F9
:103760000100FEF501001EF60100DEF70100DEF7A4
:1037700001003EF801003EF80100BEF80100BEF86D
:103780000100BEF80100FEF801001EF901003FF93A
:1037900001007FF901009FF901009FF901009FF9E5
:1037A00001007EFA01007EFA01003EFB01003EFBB3
:1037B00001003FFC01003FFC01003FFC01005EFCFA
:1037C0000100BEFC0100DEFC0100FEFC0100FEFC6D
:1037D0000100DEFD0100DEFD01009FFE01009FFEF5
:1037E00001009EFF01009EFF01009EFF0100BEFF41
:1037F00001001E0002003E0002005F0102005F01A6
:1038000002001E0302001E0302003E0302005E03CC
:103810000200FF0302001E0402007E0402009E0458
:103820000200DE040200FE0402009F0602009F0662
:103830000200BE060200DE0602001E0702003E076E
:1038400002005E0802005E0802007E0802009E0878
:103850000200BE080200DF0802001E0A02001E0A63
:1038600002001E0A02003E0A02009E0A0200BE0A70
:103870000200DF0B0200FE0B02009E0D02009E0DF7
:1038800002009E0D0200BE0D02001F0E02003F0E40
:1038900002005E0F02005E0F02003E1002003E10AA
:1038A0000200FF1002001E1102001E1102001E1174
:1038B00002007E1102009E1102009E1202009E1262
:1038C0000200BE120200DE1202001E1302003F13AD
:1038D00002007E1402007E1402009E140200BE1438
:1038E00002001E1502003E1502005E1502005E1564
:1038F00002003F1602003F160200FE160200FE16EE
:103900000200DE170200DE1702001E1802003E1839
:1039100002007F1802009F180200FE180200FE1825
:1039200002003E1902003E1902009E1902009E1973
:1039300002007E1A02007E1A0200FE1A0200FE1A1F
:1039400002001F1B02003F1B02005F1B02005F1BE7
:1039500002005F1B02009E1B0200BE1B02003E1CF9
:1039600002003E1C02005E1C02005E1C0200DE1C07
:103970000200DE1C0200FE1C02001E1D02005E1D75
:1039800002007E1D0200FF1D0200FF1D02007E1EC0
:1039900002009E1E0200BE1E0200DE1E02001E1F4E
:1039A00002003E1F0200BE1F0200BE1F02005F2079
:1039B00002005F2002007F2002009F200200BE2044
:1039C0000200DE2002003E2202005E2202005E2291
:1039D00002005E220200DF220200FF2202001E24FB
:1039E00002001E2402003E2402005E2402009E24E7
:1039F0000200BE240200BF250200DE250200DE25F3
:103A00000200FE2502005E2602007E2602009E279E
:103A100002009E2702003E2902003E2902005E2984
:103A200002005E2902007E290200BE290200DE2972
:103A300002001E2B02001E2B0200FE2B0200FE2B9A
:103A400002007E2C02007E2C02009E2C0200DE2C46
:103A500002001E2D02003E2D02005E2E02005E2E90
:103A600002007E2E02009E2E0200DE2E0200FE2E9E
:103A700002005E3002005E3002005E3002007E30E6
:103A80000200DE300200FE3002003E3102003E3114
:103A900002001E3202001E320200DE320200DE325E
:103AA00002009E330200BE330200BE330200DE334A
:103AB00002005E3402007E3402009E3402009E3416
:103AC00002001F3502001F3502007E3502007E35E0
:103AD00002005E3602005E360200BE360200BE36CE
:103AE0000200FE3602001E3702003E3702003E375B
:103AF00002007E3702009E3702001E3802001E3888
:103B00000200FE380200FE380200DE390200DE3913
:103B10000200DE3A0200DE3A0200DE3A0200FE3A1D
:103B200002003E3B02005E3B02009E3B02009E3BC9
:103B300002009E3C02009E3C0200BE3C0200DE3CB5
:103B400002001F3D02003E3D02005E3E02005E3E5E
:103B500002005E3E02007E3E0200FE3E02001E3F6C
:103B600002003E4002003E400200DE410200DE4113
:103B70000200FE4102001F4202007E4202009E42FD
:103B800002009E4302009E4302005E4502005E4525
:103B900002005E4502007E450200DE450200FE4551
:103BA00002001E4702001E470200DE470200DE47F9
:103BB00002009E480200BE480200DE480200DE48C5
:103BC00002001E4902003E4902009E4A02009E4A2F
:103BD0000200DE4A02001E4B02005E4C02005E4CF8
:103BE00002005E4C02007E4C0200DE4C0200FE4CE5
:103BF00002001E4D02001E4D0200FE4D0200FE4D51
:103C00000200DE4E0200DE4E0200FE4E02003F4F7A
:103C10000200DE4F0200DE4F0200E14F0200FE4FC5
:103C200002003E5002005E5002009E5002009E5074
:103C30000200FE500200FE5002007E5102007E5142
:103C400002005E5202005E520200BE520200BE52EC
:103C50000200DE520200FE5202003E5302003E53BA
:103C600002005E5302007E5302001E5402001E54E6
:103C70000200BE540200BE540200DE540200FE5494
:103C800002003E5502005E550200BE550200BE55C0
:103C900002007E5602009E560200BE560200BE562C
:103CA00002001E5702003E5702007E5702007E5758
:103CB00002003E5802003E5802005E5802007E5844
:103CC0000200BE580200DE5802003E5A02003E5A70
:103CD00002003E5A02005E5A0200BE5A0200DE5A3C
:103CE0000200FE5B0200FE5B02003F5C02005E5CC5
:103CF00002009E5C0200BE5C0200BE5D0200BE5D72
:103D00000200BE5D0200DE5D02005E5E02007E5EBD
:103D100002007E5F02007E5F02001E6102003E61C3
:103D200002003E6102005F6102009E610200BE610E
:103D30000200DE620200DE620200BE630200BE63B9
:103D400002005E6402005E6402007E6402009E6403
:103D50000200DE640200FE6402003E6602003E666F
:103D600002005E6602007E660200BE660200DE663B
:103D70000200FE6602003E6802003E6802003E68E5
:103D800002005E680200BE680200DE6802001E6972
:103D900002001E690200FE690200FE690200DE6A7E
:103DA0000200DE6A0200BE6B0200DE6B0200DE6B08
:103DB0000200FE6B02003E6C02005E6C02007E6C34
:103DC0000200BE6C0200BE6C02003E6D02003E6D41
:103DD0000200DE6D0200DE6D0200BE6E0200BE6EED
:103DE00002003E6F02003E6F0200DE6F0200DE6FD7
:103DF0000200DE6F0200FE6F02003E7002005E7085
:103E00000200DE700200DE700200FE710200FE7130
:103E10000200FE720200FE7202001E7402001E7496
:103E200002003E7402005E7402007E7402009E7402
:103E300002001E7502001E7502007E750200BE752E
:103E400002003E7602003E7602005E760200BE76FA
:103E50000200FE7602001E7702005E8002005E8095
:103E600002007E8002000000000000000000000050
:103E7000F600F6000000F600F600000087010000E2
:103E80007101000049010000250100002501250104
:103E9000250100007101710171010000490100005C
:103EA00025010000150100000000000015011501AA
:103EB000150100005D010000150100005D0100001A
:103EC000710100000000000000007101710100009C
:103ED0008701000071010000F600F60000000000FC
:103EE000F600F600F60000008701000071010000F6
:103EF00049010000250125010000000025012501E0
:103F000025010000710100004901000025010000A9
:103F10001501000000000000150115011501000049
:103F2000490100002501000015010000F600F6001F
:103F3000F600F600F6000000E9000000F600F600CA
:103F4000F600F600F6000000F600F600F600F600B7
:103F50000000F600F600000087010000710100007B
:103F60004901000025010000000000002501250195
:103F70002501000071010000490100002501000039
:103F800015010000000000001501150115010000D9
:103F90005D010000150100005D01000071010000DD
:103FA0000000000071017101710100008701000033
:103FB00071010000F600F600F600F6000000F600C1
:103FC000F6000000870100007101000049010000B7
:103FD00025012501000000002501250100007101D7
:103FE00071010000490100002501000015011501C3
:103FF0000000000015011501150100004901000035
:1040000025010000150100000000F600F600F60092
:10401000F6000000E9000000F600F600F600F600E9
:10402000F600000000000000710171017101000044
:10403000250100005D015D015D0100001501150114
:10404000150100009F019F019F019F019F0100003A
:104050005D01000049014901490149014901000090
:1040600087018701870187018701000071017101C4
:104070007101710171010000250100005D015D0108
:104080005D015D015D010000150100009F019F01C0
:104090009F019F019F0100005D010000490149014E
:1040A000490149014901490149014901490100000A
:1040B00071017101710171017101000025010000A0
:1040C0005D015D015D015D015D0100001501000004
:1040D0009F019F019F019F019F0100005D01000062
:1040E00049014901490149014901000087010000D6
:1040F0007101710171017101710100002501000060
:104100005D015D015D015D015D01000015010000C3
:104110009F019F019F019F019F0100005D01000021
:104120004901490149014901490100007101710139
:104130007101710171010000250100005D015D0147
:104140005D015D015D010000150100009F019F01FF
:104150009F019F019F0100005D010000490149018D
:104160004901490149010000870100000000710177
:104170007101710171010000250100005D015D0107
:104180005D015D015D010000150100009F019F01BF
:104190009F019F019F0100005D010000490149014D
:1041A0004901490149010000710171017101710169
:1041B00071010000250100005D015D015D015D01EF
:1041C0005D010000150100009F019F019F019F01FB
:1041D0009F0100005D010000000049014901490103
:1041E000490100008701870100007101710171011F
:1041F000710171010000250100005D015D015D019B
:104200005D015D010000150100009F019F019F01FC
:104210009F019F010000B8010000ED01ED01ED01DB
:10422000ED01ED010000B80000000000C300C30074
:104230000000DC00DC00DC000000F60000001501DE
:10424000000025012501250125012501000015019A
:10425000000049010000150100002501250125018C
:1042600025012501000015010000F6000000E9000D
:104270000000F600F600F600F600F6000000B800B8
:104280000000B8000000C300C300C300C300C300A7
:104290000000DC000000F600F600F600000015014A
:1042A000000025012501250125012501000015013A
:1042B0000000490149014901000015010000F60014
:1042C000F600F600F600F6000000150100002501DA
:1042D000000049010000710171017101710171015A
:1042E000000049010000710100008701870187017A
:1042F000870187010000870100004901000071016A
:104300007101000000000000710171010000250131
:1043100000004901490149014901490100004901E1
:1043200000002501000049010000710171017101C7
:10433000710171010000F600000015010000250167
:1043400025012501250100004901490100007101F5
:1043500000009F010000B801B801B801B801B80120
:1043600000009F0100002A020000ED010000D201C0
:10437000D201D201D201D2010000ED010000D20130
:10438000D201D201D201D2010000F600F600F600FF
:10439000F600F60000007101000000001501150193
:1043A000150115010000710171017101000000008B
:1043B00025012501250125010000490100007101A9
:1043C00000000000490149014901490100000000C5
:1043D000B801B801B801B8010000ED01ED01ED012F
:1043E000000071017101710100002A0200004B02FE
:1043F00000002A022A022A022A022A0200004B0294
:1044000000002A020000ED010000ED0100002A0278
:104410002A02000000004B024B024B024B0200003C
:104420002A02000000000000ED01ED01ED01000096
:10443000B8010000000071017101710171010000FB
:10444000B80100000000250125012501250100001B
:10445000F600F600F600F600F6000000710100001C
:104460001501150115011501150115010000710156
:104470007101710171017101000025012501250102
:1044800025012501000049010000710171010000B2
:104490000000490149014901000000000000B80185
:1044A000B801B8010000ED01ED01ED01ED01ED01F4
:1044B0000000710100002A0200004B0200002A02E5
:1044C0002A022A022A022A0200004B0200002A02C3
:1044D0000000ED010000ED0100002A022A020000A8
:1044E0004B024B024B024B0200002A020000ED017E
:1044F0000000B8010000ED01000000000000D20142
:10450000D201D20100000000ED01ED01ED01ED014D
:104510000000F600F600F600F600F600000071015B
:1045200000001501150115011501150100007101AB
:1045300071017101000025012501250125012501D9
:104540000000490100007101000000000000490165
:1045500049014901000000000000B801B801B8019C
:10456000000000000000ED01ED01ED01000071010F
:1045700000002A0200004B02000000002A022A026A
:104580002A022A0200004B0200002A020000ED016C
:104590000000ED01ED0100002A022A022A022A028F
:1045A00000004B024B024B0200002A022A022A02A0
:1045B0000000ED01ED01ED010000B8010000000078
:1045C00000007101710171010000B80100000000DC
:1045D000000025012501250125010000F600F60057
:1045E000F600F600F6000000710171017101710121
:1045F00071010000150115011501150115010000DB
:1046000071017101710100000000250125012501E2
:1046100025010000490100007101710171010000D4
:10462000490149014901000000000000B801B8013A
:10463000B8010000ED01ED01ED01ED01ED0100001B
:10464000710100002A0200004B02000000002A0253
:104650002A022A022A0200004B0200002A022A0231
:104660000000ED01ED01ED01ED0100002A02000066
:10467000000000004B024B024B0200002A02000027
:10468000ED010000B801000000000000ED01ED01A7
:10469000ED010000D2010000ED01ED01ED01ED01A1
:1046A000ED01ED0100007101710171017101000066
:1046B000250100005D015D015D015D015D010000FE
:1046C000150100009F019F019F019F019F010000B4
:1046D0005D01000000004901490149014901000054
:1046E000870100000000710171017101710100007A
:1046F000250100005D015D015D015D015D010000BE
:10470000150100009F019F019F019F019F01000073
:104710005D010000490149014901490149010000C9
:104720007101710171017101710100002501000029
:104730005D015D015D015D015D010000150100008D
:104740009F019F019F019F019F0100005D015D018D
:104750005D01000049014901490149014901000089
:1047600087018701870187018701000071017101BD
:104770007101710171010000250125012501000071
:104780005D015D015D015D015D010000150100003D
:104790009F019F019F019F019F0100005D0100009B
:1047A00049014901490149014901000071017101B3
:1047B0007101710171010000250100005D015D01C1
:1047C0005D015D015D0100001501000000009F0119
:1047D0009F019F019F0100005D0100004901490107
:1047E000490149014901000087010000710171017F
:1047F00071017101710171010000250100005D016D
:104800005D015D015D015D010000150100009F017A
:104810009F019F019F019F0100005D010000490170
:104820004901490149014901490100007101710132
:104830007101710171010000250100005D015D0140
:104840005D015D015D010000150100009F019F01F8
:104850009F019F019F0100005D01000000004901D0
:1048600049014901490100008701000071017101FE
:104870007101710171010000250100005D015D0100
:104880005D015D015D010000150100009F019F01B8
:104890009F019F019F010000B8010000ED01ED01A3
:1048A000ED01ED01ED01ED010000B8000000000098
:1048B000C300C300C300C3000000DC000000F6001A
:1048C0000000150100002501250125012501250114
:1048D000000015010000490100001501000025013C
:1048E0002501250125012501000015010000F60024
:1048F0000000E9000000F600F600F600F600F60001
:104900000000B8000000C300C300C300C300C30020
:10491000C3000000DC000000F600000015010000EC
:1049200025012501250125010000150115010000C3
:10493000490100001501150115010000F600F600FF
:10494000F600F600F6000000150100002501000049
:1049500049010000710171017101710171010000D3
:10496000490100007101000087018701870187016B
:1049700087010000870100004901000071017101F9
:1049800071010000000071017101000025010000AB
:10499000490149014901490100004901490100005B
:1049A00025010000490100007101710171017101CF
:1049B00071010000F600000015010000250125012D
:1049C00025012501250125010000490149010000BB
:1049D000710100009F010000B801B801B801B801E1
:1049E000B80100009F0100002A020000ED01000054
:1049F000D201D201D201D201D2010000ED010000AA
:104A0000D201D201D201D201D201D201D201D2010E
:104A1000D2010000F600F600F600F600F6000000F5
:104A20007101710171017101710100001501150120
:104A30001501150115010000710100002501250176
:104A400025012501250100004901000071017101C6
:104A5000000049014901490149010000000000002E
:104A6000B801B801B8010000ED01ED01ED01ED0163
:104A7000ED010000710100002A0200004B0200005D
:104A80002A022A022A022A022A0200004B020000FD
:104A90002A020000ED010000ED0100002A022A02B6
:104AA0002A0200004B024B024B024B0200002A027A
:104AB0000000B801000000000000ED01ED01ED0173
:104AC0000000B801000000000000710171017101D7
:104AD0000000B801000000000000250125012501AB
:104AE00025010000F600F600F600F6000000710156
:104AF00071017101710171010000150115011501AC
:104B000015011501000071010000000025012501BB
:104B10002501250125010000490100007101000067
:104B200000000000490149014901000000000000A7
:104B3000B801B801B8010000ED01ED01ED01ED0192
:104B4000ED010000710100002A0200004B0200008C
:104B50002A022A022A022A022A0200004B0200002C
:104B60002A020000ED010000ED0100002A022A02E5
:104B70002A0200004B024B024B0200002A020000F6
:104B8000ED010000B8010000ED01ED01ED01ED01C6
:104B9000ED010000D2010000ED01ED01ED01ED019C
:104BA000ED010000F600F600F600F600F600000049
:104BB0007101000015011501150115011501000015
:104BC00071010000250125012501250125010000B5
:104BD000490100007101000000004901490149013B
:104BE00049010000B801B801B8010000ED01ED0174
:104BF000ED01ED01ED010000710100002A0200004D
:104C00004B024B024B02000000002A022A022A0239
:104C10002A0200004B0200002A020000ED01000001
:104C2000ED0100002A022A022A0200004B024B0278
:104C30004B0200002A02000000000000ED01ED011F
:104C4000ED010000B8010000000071017101710167
:104C500071010000B80100000000000025012501DD
:104C600025010000F600F600F600F600F600000050
:104C700071017101710171017101000015011501CE
:104C80001501150115010000710100002501250124
:104C900025012501250100004901000071010000E6
:104CA0000000000049014901490100000000000026
:104CB000B801B801B801B8010000ED01ED01ED0146
:104CC000ED01ED010000710100002A0200004B021D
:104CD00000002A022A022A022A022A022A020000CC
:104CE0004B0200002A020000ED010000ED0100006F
:104CF0002A0200004B024B024B024B024B02000007
:104D00002A020000ED010000B8010000ED01ED01F4
:104D1000ED01ED01ED010000D201D201D201000050
:104D200000000000ED01ED01ED01000000000000B9
:104D300000000000240027002A00000000002500D9
:104D400028002B000201000000000023002600299B
:104D50000004040404040404040202020202020324
:104D6000030303030301020408102040800102042E
:104D700008102001020408102000000008000201B1
:104D80000000030407000000000000000000322FB4
:104D900011241FBECFEFD8E0DEBFCDBF11E0A0E0F1
:104DA000B1E0E0E5FFE502C005900D92A633B10742
:104DB000D9F722E0A6E3B1E001C01D92A631B20707
:104DC000E1F716E2C8ECD6E204C02197FE010E948A
:104DD000A02FC73CD107C9F70E94B32A0C94A62F75
:104DE0000C940000AF92BF92CF92DF92EF92FF92AD
:104DF0000F931F93CF93DF936C017B018B01040F03
:104E0000151FEB015E01AE18BF08C017D10759F09E
:104E10006991D601ED91FC910190F081E02DC601E0
:104E20000995892B79F7C501DF91CF911F910F91DA
:104E3000FF90EF90DF90CF90BF90AF900895FC016E
:104E4000538D448D252F30E0842F90E0821B930BEF
:104E5000541710F0CF96089501970895FC01918D95
:104E6000828D981761F0A28DAE0FBF2FB11D5D9698
:104E70008C91928D9F5F9F73928F90E008958FEF3A
:104E80009FEF0895FC01918D828D981731F0828DEE
:104E9000E80FF11D858D90E008958FEF9FEF089545
:104EA000FC01918D228D892F90E0805C9F4F821BA9
:104EB00091098F739927089589E791E00E945027FF
:104EC00021E0892B09F420E0822F089580E090E012
:104ED000892B29F00E945C2781110C940000089511
:104EE000FC01A48DA80FB92FB11DA35ABF4F2C915F
:104EF000848D90E001968F739927848FA689B78956
:104F00002C93A089B1898C91837080648C93938D4C
:104F1000848D981306C00288F389E02D80818F7DEF
:104F200080830895EF92FF920F931F93CF93DF93A7
:104F3000EC0181E0888F9B8D8C8D98131AC0E889D5
:104F4000F989808185FF15C09FB7F894EE89FF89A4
:104F50006083E889F98980818370806480839FBF42
:104F600081E090E0DF91CF911F910F91FF90EF9042
:104F70000895F62E0B8D10E00F5F1F4F0F73112752
:104F8000E02E8C8D8E110CC00FB607FCFACFE8898D
:104F9000F989808185FFF5CFCE010E947027F1CF7E
:104FA000EB8DEC0FFD2FF11DE35AFF4FF0829FB701
:104FB000F8940B8FEA89FB8980818062CFCFCF93F1
:104FC000DF93EC01888D8823B9F0AA89BB89E88931
:104FD000F9898C9185FD03C0808186FD0DC00FB6D7
:104FE00007FCF7CF8C9185FFF2CF808185FFEDCF55
:104FF000CE010E947027E9CFDF91CF9108958330D1
:1050000081F028F4813099F08230A9F0089587303A
:10501000A9F08830C9F08430B1F4809180008F7D90
:1050200003C0809180008F7780938000089584B5BD
:105030008F7784BD089584B58F7DFBCF8091B000BC
:105040008F778093B00008958091B0008F7DF9CF65
:10505000CF93DF93E9E7FDE48491E5E6FDE4D491A5
:10506000E1E5FDE4C491CC23A1F081110E94FF276A
:10507000EC2FF0E0EE0FFF1FE95BF24BA591B4912E
:10508000EC91ED2381E090E009F480E0DF91CF9195
:10509000089580E090E0FACF1F93CF93DF93282FFD
:1050A00030E0F901E758F24B8491F901EB59F24BEA
:1050B000D491F901EF5AF24BC491CC23A9F0162FE9
:1050C00081110E94FF27EC2FF0E0EE0FFF1FE65C3E
:1050D000F24BA591B4918FB7F894EC91111108C0DF
:1050E000D095DE23DC938FBFDF91CF911F91089580
:1050F000DE2BF8CFCF93DF9390E0FC01EB59F24B1E
:1051000024918F5A924BFC0184918823D1F090E036
:10511000880F991FFC01E05DF24BA591B491FC0151
:10512000E65CF24BC591D491623071F49FB7F8946C
:105130003C91822F809583238C93E8812E2B2883AA
:105140009FBFDF91CF9108958FB7F894EC912E2BEC
:105150002C938FBFF6CF3FB7F89480913701909191
:105160003801A0913901B0913A0126B5A89B05C03C
:105170002F3F19F00196A11DB11D3FBFBA2FA92FD6
:10518000982F8827BC01CD01620F711D811D911DD3
:1051900042E0660F771F881F991F4A95D1F708953F
:1051A0000C94AB28FC019181913069F0923089F028
:1051B000911105C090916E009D7F90936E0060E00C
:1051C00080810C944C2890916F009D7F90936F008C
:1051D000F6CF909170009D7F90937000F0CFCF93A9
:1051E000DF93FC0101900020E9F73197AF01481BE4
:1051F000590BBC0189E791E00E94F226EC0142E0E4
:1052000050E062E271E089E791E00E94F2268C0FA3
:105210009D1FDF91CF9108951F920F920FB60F92AD
:1052200011242F933F934F935F936F937F938F93AB
:105230009F93AF93BF93EF93FF9389E791E00E9411
:105240007027FF91EF91BF91AF919F918F917F91C7
:105250006F915F914F913F912F910F900FBE0F90E3
:105260001F9018951F920F920FB60F9211242F9333
:105270008F939F93EF93FF93E0918901F0918A01BF
:105280008081E0918F01F091900182FD1BC090819F
:10529000809192018F5F8F7320919301821741F06B
:1052A000E0919201F0E0E758FE4F958F80939201D4
:1052B000FF91EF919F918F912F910F900FBE0F90C3
:1052C0001F9018958081F4CF1F920F920FB60F9206
:1052D00011242F933F938F939F93AF93BF9380910C
:1052E000450190914601A0914701B091480130914C
:1052F000360123E0230F2D3758F50196A11DB11D6E
:10530000209336018093450190934601A093470175
:10531000B09348018091370190913801A0913901F3
:10532000B0913A010196A11DB11D80933701909370
:105330003801A0933901B0933A01BF91AF919F9189
:105340008F913F912F910F900FBE0F901F90189546
:1053500026E8230F0296A11DB11DD2CF1F920F92F6
:105360000FB60F9211242F933F938F939F93AF9378
:10537000BF93EF93FF938091490190914A01A091CF
:105380004B01B0914C010097A105B10531F130916D
:105390003B01E0913C01F0913D01208123272083D6
:1053A000181619061A061B061CF40197A109B10963
:1053B0008093490190934A01A0934B01B0934C0113
:1053C000FF91EF91BF91AF919F918F913F912F915D
:1053D0000F900FBE0F901F901895209170002D7F99
:1053E0002093700020913B01E0913C01F0913D0140
:1053F0003081209523232083DBCF1F920F920FB69D
:105400000F9211248F939F93AF93BF93EF93FF93CA
:1054100080914D0190914E01A0914F01B0915001AA
:10542000892B8A2B8B2BA1F190913E01E0913F01BA
:10543000F091400180818927808380914D01909176
:105440004E01A0914F01B0915001181619061A068D
:105450001B069CF480914D0190914E01A0914F014B
:10546000B09150010197A109B10980934D0190932A
:105470004E01A0934F01B0935001FF91EF91BF9166
:10548000AF919F918F910F900FBE0F901F90189525
:1054900080916F008D7F80936F0080913E01E0913D
:1054A0003F01F09140019081809589238083E5CF71
:1054B0001F920F920FB60F9211248F939F93AF9369
:1054C000BF93EF93FF938091510190915201A0916E
:1054D0005301B0915401892B8A2B8B2BA1F1909110
:1054E0004101E0914201F09143018081892780834D
:1054F0008091510190915201A0915301B0915401BA
:10550000181619061A061B069CF4809151019091F9
:105510005201A0915301B09154010197A109B10921
:105520008093510190935201A0935301B093540181
:10553000FF91EF91BF91AF919F918F910F900FBE0F
:105540000F901F90189580916E008D7F80936E0054
:1055500080914101E0914201F09143019081809559
:1055600089238083E5CFCF93DF93CDB7DEB72A972A
:105570000FB6F894DEBF0FBECDBF789484B58260BD
:1055800084BD84B5816084BD85B5826085BD85B5E7
:10559000816085BD80916E00816080936E00109265
:1055A00081008091810082608093810080918100E0
:1055B0008160809381008091800081608093800071
:1055C0008091B10084608093B1008091B0008160CF
:1055D0008093B00080917A00846080937A008091FB
:1055E0007A00826080937A0080917A008160809353
:1055F0007A0080917A00806880937A001092C100CE
:10560000E0918901F0918A0182E08083E091850137
:10561000F09186011082E0918701F09188018FEC72
:10562000808310929101E0918D01F0918E0186E0CE
:105630008083E0918B01F0918C0180818061808377
:10564000E0918B01F0918C01808188608083E091F2
:105650008B01F0918C01808180688083E0918B01C7
:10566000F0918C0180818F7D808362E080E00E94D8
:105670007A2861E08DE00E947A2861E089E00E944A
:105680007A2861E08AE00E947A28A5E5B1E005E782
:1056900011E069E671E04DE651E029E531E082E193
:1056A000282E81E0382EFF24FA94F101868197811B
:1056B000F90191838083FA01119211921192119252
:1056C000AF01FB0111921192BF01F80111921192E9
:1056D0008F01F101908180914401833008F01FC156
:1056E0009C93E82FF0E0EC5BF24BE4911196EC9385
:1056F00011978F5F80934401E13009F4C4C008F42E
:10570000A2C0E23009F4E5C0F90180819181FC0179
:10571000E150F04CCF01880F991F880F991FF101BC
:10572000C480D580F601E80FF91F4590559065902B
:10573000749080905D0190905E01A0905F01B090A8
:10574000600184149504A604B70410F453014201C7
:1057500080925D0190925E01A0925F01B092600123
:10576000F8E02F0E311C2E5F3F4F129682E2281672
:1057700081E0380609F099CF0E94D02860E08DE0E2
:105780000E944C2800E010E00E9428289C838B8314
:10579000019711F00B831C830E9428289A83898328
:1057A000892B09F0C0C0AB81BC81119709F0BBC047
:1057B00061E08DE00E944C2885E291E00E94EF2894
:1057C00069E671E00DE6C02E01E0D02E45E751E01C
:1057D000A2E1B1E01496ED90FC901597FA0180815A
:1057E0009181FC01EE0FFF1FEE0FFF1FEE0DFF1D5D
:1057F0000591159125913491F6010083118322833F
:105800003383FA012081318189010F5F1F4FC80165
:10581000880F991F880F991F8E0D9F1DFC01859081
:105820009590A590B490F60140805180628073807D
:10583000481459046A047B0409F078C0FA01118302
:105840000083FC01D5CF14BC15BC84B5826084BD37
:1058500085B5816085BD8C9190E0FC01EF5AF24BDB
:10586000E491F0E0EE0FFF1FE65CF24BC590D490A0
:10587000D0924301C0924201FC01EB59F24BE491FA
:10588000E093410141CF10928000109281008091FD
:105890008100886080938100809181008160809385
:1058A00081008C9190E0FC01EF5AF24BE491F0E022
:1058B000EE0FFF1FE65CF24BC590D490D0924001F2
:1058C000C0923F01FC01EB59F24BE491E0933E01A1
:1058D0001BCF1092B0001092B1008091B000826096
:1058E0008093B0008091B10081608093B1008C9171
:1058F00090E0FC01EF5AF24BE491F0E0EE0FFF1F55
:10590000E65CF24BC590D490D0923D01C0923C0130
:10591000FC01EB59F24BE491E0933B01F5CE11967B
:10592000FC921197F1CE0B811C812ECF90E080E08C
:105930001216130664F421503048220F331F1296BA
:10594000ED91FC911397E20FF31F85919491FB0168
:1059500081939193BF0118964E5F5F4FF4E0CF0E95
:10596000D11C81E0A232B80709F034CF2FB7F894E8
:105970008091450190914601A0914701B091480165
:105980002FBF8093650190936601A0936701B09348
:1059900068011E821D8240916101509162016091F7
:1059A00063017091640180915D0190915E01A0910D
:1059B0005F01B091600184179507A607B70708F447
:1059C0002AC2AD81BE81119709F425C22FB7F89480
:1059D0008091450190914601A0914701B091480105
:1059E0002FBF4091650150916601609167017091F0
:1059F0006801841B950BA60BB70B809361019093F4
:105A00006201A0936301B0936401E5E5F1E0FA87D8
:105A1000E9877DE6272E71E0372E89E591E09C83AA
:105A20008B83E5E7CE2EE1E0DE2EF12CE12CAB817D
:105A3000BC818D919D91BC83AB83F6012081318126
:105A4000281739070CF0E2C10E942828019721F499
:105A500081E090E09A8389830E942828892B61F451
:105A6000A981BA81119741F480E391E00E94EF2867
:105A7000E1E0F0E0FE83ED83C70187599E4F9887F0
:105A80008F83DC018D909C90181419040CF0B9C11F
:105A9000E985FA85818187FD02C161E080810E94EC
:105AA0007A28A985BA8511961C91092C000CAA08A0
:105AB000BB08812F8D7F09F052C160E072E18AE757
:105AC00090E0A50194010E945F2F29013A01DA01BB
:105AD000C9010197A109B1098F3F9105A105B10540
