:100000000C94E8270C9410280C9410280C941028B9
:100010000C9410280C9410280C9410280C94CE2AC0
:100020000C9410280C9410280C9410280C941D2B60
:100030000C9410280C9410280C94782B0C941028F5
:100040000C94842A0C9410280C94522A0C942C2A78
:100050000C9410280C9410280C9410280C94102840
:100060000C9410280C941028000000008B00000055
:100070008C0000008C0000008E0000008F0000004B
:100080008F0000009000000091000000920000002E
:100090009200000092000000920000009500000015
:1000A00095000000950000009700000097000000F8
:1000B00097000000990000009A0000009A000000DC
:1000C000410600009A0600009A060000F3060000B0
:1000D000F30600004C0700004C070000A5070000D5
:1000E000A5070000FE070000FE07000057080000FB
:1000F00057080000B0080000B0080000090900001F
:10010000090900006209000062090000BB09000043
:10011000BB090000140A0000140A00006D0A000068
:100120006D0A0000C60A0000C60A00001F0B00008E
:100130001F0B0000770B0000770B0000D00B0000B6
:10014000D00B0000290C0000290C0000820C0000DC
:10015000820C0000DB0C0000DB0C0000340D000002
:10016000340D00008D0D00008D0D0000E60D000027
:10017000E60D00003F0E00003F0E0000980E00004C
:10018000980E0000F10E0000F10E00004A0F000072
:100190004A0F0000A30F0000A30F0000FC0F000097
:1001A000FC0F00005510000055100000AE100000BC
:1001B000AE100000071100000711000060110000E0
:1001C00060110000B9110000B91100001212000006
:1001D000121200006B1200006B120000C41200002B
:1001E000C41200001D1300001D1300007613000050
:1001F00076130000CF130000CF1300002814000076
:10020000281400008114000081140000DA1400009A
:10021000DA14000033150000331500008C150000BF
:100220008C150000E5150000E51500003E160000E5
:100230003E1600009616000096160000EF1600000D
:10024000EF1600004817000048170000A117000033
:10025000A1170000FA170000FA1700005318000059
:1002600053180000AC180000AC180000051900007D
:10027000051900005E1900005E190000B7190000A2
:10028000B7190000101A0000101A0000691A0000C7
:10029000691A0000C21A0000C21A00001B1B0000ED
:1002A0001B1B0000741B0000741B0000CD1B000012
:1002B000CD1B0000261C0000261C00007F1C000037
:1002C0007F1C0000D81C0000D81C0000311D00005D
:1002D000311D00008A1D00008A1D0000E31D000082
:1002E000E31D00003C1E00003C1E0000951E0000A7
:1002F000951E0000EE1E0000EE1E0000471F0000CD
:10030000471F0000A01F0000A01F0000F91F0000F1
:10031000F91F00005220000052200000AB20000016
:10032000AB20000004210000042100005D2100003A
:100330005D210000B6210000B62100000E22000061
:100340000E2200006722000067220000C022000089
:10035000C0220000192300001923000072230000AE
:1003600072230000CB230000CB23000024240000D4
:10037000242400007D2400007D240000D6240000F9
:10038000D62400002F2500002F250000882500001E
:1003900088250000E1250000E12500003A26000044
:1003A0003A2600009326000093260000EC26000069
:1003B000EC26000045270000452700009E2700008E
:1003C0009E270000F7270000F727000050280000B4
:1003D00050280000A9280000A928000002290000D8
:1003E000022900005B2900005B290000B4290000FD
:1003F000B42900000D2A00000D2A0000662A000022
:10040000662A0000BF2A0000BF2A0000182B000047
:10041000182B0000712B0000712B0000CA2B00006C
:10042000CA2B0000232C0000232C00007C2C000091
:100430007C2C0000D52C0000D52C00002D2D0000B8
:100440002D2D0000862D0000862D0000DF2D0000E0
:10045000DF2D0000382E0000382E0000912E000005
:10046000912E0000EA2E0000EA2E0000432F00002B
:10047000432F00009C2F00009C2F0000F52F000050
:10048000F52F00004E3000004E300000A730000075
:10049000A730000000310000003100005931000099
:1004A00059310000B2310000B23100000B320000BF
:1004B0000B3200006432000064320000BD320000E4
:1004C000BD3200006F3300006F33000021340000A4
:1004D00021340000D3340000D334000085350000FF
:1004E000853500003736000037360000E936000059
:1004F000E93600009B3700009B3700004C380000B5
:100500004C380000FE380000FE380000B039000012
:10051000B0390000623A0000623A0000143B00006B
:10052000143B0000C63B0000C63B0000783C0000C6
:10053000783C00002A3D00002A3D0000DC3D000020
:10054000DC3D00008E3E00008E3E0000403F00007B
:10055000403F0000F23F0000F23F0000A4400000D6
:10056000A44000005641000056410000084200002F
:1005700008420000BA420000BA4200006C4300008A
:100580006C4300001D4400001D440000CF440000E7
:10059000CF44000081450000814500003346000043
:1005A00033460000E5460000E5460000E546000051
:1005B0003E4700003E470000974700009747000075
:1005C00097470000F0470000F0470000494800004E
:1005D0004948000049480000A2480000A248000025
:1005E000A2480000FB480000FB480000AD490000A5
:1005F000AD4900005F4A00005F4A0000114B000057
:10060000114B0000C34B0000C34B0000754C0000B1
:10061000754C0000274D0000274D0000D94D00000B
:10062000D94D00008B4E00008B4E00003C4F000067
:100630003C4F0000EE4F0000EE4F0000A0500000C5
:10064000A05000005251000052510000045200001E
:1006500004520000B6520000B65200006853000079
:10066000685300001A5400001A540000CC540000D3
:10067000CC5400007E5500007E550000305600002E
:1006800030560000E2560000E25600009457000089
:10069000945700004658000046580000F8580000E3
:1006A000F8580000AA590000AA5900005B5A00003F
:1006B0005B5A00000D5B00000D5B0000BF5B00009B
:1006C000BF5B0000715C0000715C0000235D0000F6
:1006D000235D0000235D00007C5D00007C5D000068
:1006E000D55D0000D55D0000D55D00002E5E0000E8
:1006F0002E5E0000875E0000875E0000875E0000BF
:10070000E05E0000E05E0000E05E0000395F000097
:10071000395F0000EB5F0000EB5F00009D600000B0
:100720009D6000004F6100004F6100000162000009
:1007300001620000B3620000B36200006563000064
:10074000656300001764000017640000C9640000BE
:10075000C96400007A6500007A6500002C6600001C
:100760002C660000DE660000DE6600009067000078
:10077000906700004268000042680000F4680000D2
:10078000F4680000A6690000A6690000586A00002D
:10079000586A00000A6B00000A6B0000BC6B000086
:1007A000BC6B00006E6C00006E6C0000206D0000E1
:1007B000206D0000D26D0000D26D0000846E00003C
:1007C000846E0000366F0000366F0000E86F000096
:1007D000E86F000099700000997000004B710000F4
:1007E0004B710000FD710000FD710000AF72000050
:1007F000AF7200006173000061730000617300005C
:10080000BA730000BA730000137400001374000080
:10081000137400006C7400006C740000C574000058
:10082000C5740000C57400001E7500001E75000030
:100830001E750000777500007775000029760000AE
:1008400029760000DB760000DB7600008D77000063
:100850008D7700003F7800003F780000F1780000BD
:10086000F1780000A3790000A3790000557A000018
:10087000557A0000077B0000077B0000B97B000071
:10088000B97B00006A7C00006A7C00001C7D0000CF
:100890001C7D0000CE7D0000CE7D0000807E00002B
:1008A000807E0000327F0000327F0000E47F000085
:1008B000E47F0000968000009680000048810000E0
:1008C00048810000FA810000FA810000AC8200003B
:1008D000AC8200005E8300005E8300001084000094
:1008E00010840000C2840000C284000074850000EF
:1008F000748500002686000026860000D886000049
:10090000D886000089870000898700003B880000A6
:100910003B880000ED880000ED880000468900005B
:10092000468900009F8900009F890000F889000027
:10093000F8890000518A0000518A0000518A0000A5
:10094000AA8A0000AA8A0000AA8A0000038B00007D
:10095000038B00005C8B00005C8B0000B58B0000FB
:10096000B58B00000E8C00000E8C0000678C000020
:10097000678C0000C08C0000C08C0000198D000046
:10098000198D0000728D0000728D0000CB8D00006B
:10099000CB8D0000248E0000248E00007D8E000090
:1009A0007D8E0000D68E0000D68E00002F8F0000B6
:1009B0002F8F0000888F0000888F0000E18F0000DB
:1009C000E18F00003A9000003A9000009390000000
:1009D00093900000EC900000EC9000004591000026
:1009E000459100009E9100009E910000F79100004B
:1009F000F79100005092000050920000A892000071
:100A0000A892000001930000019300005A93000097
:100A10005A930000B3930000B39300000C940000BD
:100A20000C9400006594000065940000BE940000E2
:100A3000BE94000017950000179500007095000007
:100A400070950000C9950000C9950000229600002D
:100A5000229600007B9600007B960000D496000052
:100A6000D49600002D9700002D9700008697000077
:100A700086970000DF970000DF970000389800009D
:100A8000389800009198000091980000EA980000C2
:100A9000EA98000043990000439900009C990000E7
:100AA0009C990000F5990000F59900004E9A00000D
:100AB0004E9A0000A79A0000A79A0000009B000031
:100AC000009B0000599B0000599B0000B29B000056
:100AD000B29B00000B9C00000B9C0000649C00007B
:100AE000649C0000BD9C0000BD9C0000169D0000A1
:100AF000169D00006F9D00006F9D0000C79D0000C7
:100B0000C79D0000209E0000209E0000799E0000EE
:100B1000799E0000D29E0000D29E00002B9F000014
:100B20002B9F0000849F0000849F0000DD9F000039
:100B3000DD9F000036A0000036A000008FA000005E
:100B40008FA00000E8A00000E8A0000041A1000084
:100B500041A100009AA100009AA10000F3A10000A9
:100B6000F3A100004CA200004CA20000A5A20000CE
:100B7000A5A20000FEA20000FEA2000057A30000F4
:100B800057A30000B0A30000B0A3000009A4000018
:100B900009A4000062A4000062A40000BBA400003D
:100BA000BBA4000014A5000014A500006DA5000062
:100BB0006DA50000C6A50000C6A500001FA6000088
:100BC0001FA6000078A6000078A60000D1A60000AD
:100BD000D1A600002AA700002AA7000083A70000D2
:100BE00083A70000DCA70000DCA7000035A80000F8
:100BF00035A800008EA800008EA80000E6A800001E
:100C0000E6A800003FA900003FA9000098A9000045
:100C100098A90000F1A90000F1A900004AAA00006B
:100C20004AAA0000A3AA0000A3AA0000FCAA000090
:100C3000FCAA000055AB000055AB0000AEAB0000B5
:100C4000AEAB000007AC000007AC000060AC0000D9
:100C500060AC0000B9AC0000B9AC000012AD0000FF
:100C600012AD00006BAD00006BAD0000C4AD000024
:100C7000C4AD00001DAE00001DAE000076AE000049
:100C800076AE0000CFAE0000CFAE000028AF00006F
:100C900028AF000081AF000081AF0000DAAF000094
:100CA000DAAF000033B0000033B000008CB00000B9
:100CB0008CB00000E5B00000E5B000003EB10000DF
:100CC0003EB1000097B1000097B10000F0B1000004
:100CD000F0B1000049B2000049B20000A2B2000029
:100CE000A2B20000FBB20000FBB2000054B300004F
:100CF00054B30000ADB30000ADB3000006B4000073
:100D000006B400005EB400005EB40000B7B400009A
:100D1000B7B4000010B5000010B5000069B50000C0
:100D200069B50000C2B50000C2B500001BB60000E6
:100D30001BB6000074B6000074B60000CDB600000B
:100D4000CDB6000026B7000026B700007FB7000030
:100D50007FB70000D8B70000D8B7000031B8000056
:100D600031B800008AB800008AB80000E3B800007B
:100D7000E3B800003CB900003CB9000095B90000A0
:100D800095B90000EEB90000EEB9000047BA0000C6
:100D900047BA0000A0BA0000A0BA0000F9BA0000EB
:100DA000F9BA000052BB000052BB0000ABBB000010
:100DB000ABBB000004BC000004BC00005DBC000034
:100DC0005DBC0000B6BC0000B6BC00000FBD00005A
:100DD0000FBD000068BD000068BD0000C1BD00007F
:100DE000C1BD00001ABE00001ABE000073BE0000A4
:100DF00073BE0000CCBE0000CCBE000025BF0000CA
:100E000025BF00007DBF00007DBF0000D6BF0000F1
:100E1000D6BF00002FC000002FC0000088C0000017
:100E200088C00000E1C00000E1C000003AC100003D
:100E30003AC1000093C1000093C10000ECC1000062
:100E4000ECC1000045C2000045C200009EC2000087
:100E50009EC20000F7C20000F7C2000050C30000AD
:100E600050C30000A9C30000A9C3000002C40000D1
:100E700002C400005BC400005BC40000B4C40000F6
:100E8000B4C400000DC500000DC5000066C500001B
:100E900066C50000BFC50000BFC5000018C6000041
:100EA00018C6000071C6000071C60000CAC6000066
:100EB000CAC6000023C7000023C700007CC700008B
:100EC0007CC70000D5C70000D5C700002EC80000B1
:100ED0002EC8000087C8000087C80000E0C80000D6
:100EE000E0C8000039C9000039C9000092C90000FB
:100EF00092C90000EBC90000EBC9000044CA000021
:100F000044CA00009DCA00009DCA0000F5CA000046
:100F1000F5CA00004ECB00004ECB0000A7CB00006E
:100F2000A7CB000000CC000000CC000059CC000092
:100F300059CC0000B2CC0000B2CC00000BCD0000B8
:100F40000BCD000064CD000064CD0000BDCD0000DD
:100F5000BDCD000016CE000016CE00006FCE000002
:100F60006FCE0000AACE0000AACE0000E6CE0000A0
:100F7000E6CE000021CF000021CF00005CCF0000B2
:100F80005CCF000098CF000098CF0000D3CF0000C6
:100F9000D3CF00004AD000004AD00000FCD00000AF
:100FA00037D1000072D1000072D10000AED1000034
:100FB000AED10000E9D10000E9D1000024D2000048
:100FC00024D200005FD200005FD200009BD200005C
:100FD0009BD20000D6D20000D6D2000011D3000070
:100FE00011D30000C3D30000FFD3000058D4000089
:100FF00058D40000B1D40000B1D400000AD50000DC
:101000000AD5000063D5000063D50000BCD5000000
:10101000BCD5000014D6000014D600006DD6000028
:101020006DD60000C6D60000C6D600001FD700004F
:101030001FD7000078D7000078D70000D1D7000074
:10104000D1D700002AD800002AD8000083D8000099
:1010500083D80000DCD80000DCD8000035D90000BF
:1010600035D900008ED900008ED90000E7D90000E4
:10107000E7D9000040DA000040DA000099DA000009
:1010800099DA0000F2DA0000F2DA00004BDB00002F
:101090004BDB0000A4DB0000A4DB0000FDDB000054
:1010A000FDDB000056DC000056DC0000AFDC000079
:1010B000AFDC000008DD000008DD000061DD00009D
:1010C00061DD0000BADD0000BADD000013DE0000C3
:1010D00013DE00006CDE00006CDE0000C5DE0000E8
:1010E000C5DE00001EDF00001EDF000077DF00000D
:1010F00077DF0000D0DF0000D0DF000029E0000033
:1011000029E0000082E0000082E00000DBE0000057
:10111000DBE0000033E1000033E100008CE100007F
:101120008CE10000E5E10000E5E100003EE20000A6
:101130003EE2000097E2000097E20000F0E20000CB
:10114000F0E2000049E3000049E30000A2E30000F0
:10115000A2E30000FBE30000FBE3000054E4000016
:1011600054E40000ADE40000ADE4000006E500003A
:1011700006E500005FE500005FE50000B8E500005F
:10118000B8E5000011E6000011E600006AE6000084
:101190006AE60000C3E60000C3E600001CE70000AA
:1011A0001CE7000075E7000075E70000CEE70000CF
:1011B000CEE7000027E8000027E8000080E80000F4
:1011C00080E80000D9E80000D9E8000032E900001A
:1011D00032E900008BE900008BE90000E4E900003F
:1011E000E4E900003DEA00003DEA000096EA000064
:1011F00096EA0000EFEA0000EFEA000048EB00008A
:1012000048EB0000A1EB0000A1EB0000FAEB0000AE
:10121000FAEB000053EC000053EC0000ABEC0000D4
:10122000ABEC000004ED000004ED00005DED0000FB
:101230005DED0000B6ED0000B6ED00000FEE000021
:101240000FEE000068EE000068EE0000C1EE000046
:10125000C1EE00001AEF00001AEF000073EF00006B
:1012600073EF0000CCEF0000CCEF000025F0000091
:1012700025F000007EF000007EF00000D7F00000B6
:10128000D7F0000030F1000030F1000089F10000DB
:1012900089F10000E2F10000E2F100003BF2000001
:1012A0003BF2000094F2000094F20000EDF2000026
:1012B000EDF2000046F3000046F300009FF300004B
:1012C0009FF30000F8F30000F8F3000051F4000071
:1012D00051F40000AAF40000AAF4000003F5000095
:1012E00003F500005CF500005CF50000B5F50000BA
:1012F000B5F500000EF600000EF6000067F60000DF
:1013000067F60000C0F60000C0F6000019F7000004
:1013100019F7000072F7000072F70000CAF700002A
:10132000CAF7000023F8000023F800007CF8000052
:101330007CF80000D5F80000D5F800002EF9000078
:101340002EF9000087F9000087F90000E0F900009D
:10135000E0F9000039FA000039FA000092FA0000C2
:1013600092FA0000EBFA0000EBFA000044FB0000E8
:1013700044FB00009DFB00009DFB0000F6FB00000D
:10138000F6FB00004FFC00004FFC0000A8FC000032
:10139000A8FC000001FD000001FD00005AFD000056
:1013A0005AFD0000B3FD0000B3FD00000CFE00007C
:1013B0000CFE000065FE000065FE0000BEFE0000A1
:1013C000BEFE000017FF000017FF000070FF0000C6
:1013D00070FF0000C9FF0000C9FF000022000100EB
:1013E000220001007B0001007B000100D40001000D
:1013F000D40001002D0101002D0101008601010032
:1014000086010100DF010100DF0101003802010057
:10141000380201009102010091020100EA0201007C
:10142000EA02010042030100420301009B030100A4
:101430009B030100F4030100F40301004D040100CB
:101440004D040100A6040100A6040100FF040100F0
:10145000FF0401005805010058050100B105010015
:10146000B10501000A0601000A0601006306010039
:1014700063060100BC060100BC060100150701005F
:10148000150701006E0701006E070100C707010084
:10149000C7070100200801002008010079080100A9
:1014A00079080100D2080100D20801002B090100CF
:1014B0002B0901008409010084090100DD090100F4
:1014C000DD090100360A0100360A01008F0A010019
:1014D0008F0A0100E80A0100E80A0100410B01003F
:1014E000410B01009A0B01009A0B0100F30B010064
:1014F000F30B01004C0C01004C0C0100A50C010089
:10150000A50C0100FE0C0100FE0C0100570D0100AE
:10151000570D0100B00D0100B00D0100090E0100D2
:10152000090E0100610E0100610E0100BA0E0100FA
:10153000BA0E0100130F0100130F01006C0F010020
:101540006C0F0100C50F0100C50F01001E10010046
:101550001E1001007710010077100100D01001006B
:10156000D010010029110100291101008211010090
:1015700082110100DB110100DB11010034120100B6
:10158000341201008D1201008D120100E6120100DB
:10159000E61201003F1301003F1301009813010000
:1015A00098130100F1130100F11301004A14010026
:1015B0004A140100A3140100A3140100FC1401004B
:1015C000FC1401005515010055150100AE15010070
:1015D000AE15010007160100071601006016010094
:1015E00060160100B9160100B916010012170100BA
:1015F000121701006B1701006B170100C4170100DF
:10160000C41701001D1801001D1801007618010003
:1016100076180100CF180100CF1801002819010029
:10162000281901008019010080190100D919010051
:10163000D9190100321A0100321A01008B1A010077
:101640008B1A0100E41A0100E41A01003D1B01009D
:101650003D1B0100961B0100961B0100EF1B0100C2
:10166000EF1B0100481C0100481C0100A11C0100E7
:10167000A11C0100FA1C0100FA1C0100531D01000D
:10168000531D0100AC1D0100AC1D0100051E010031
:10169000051E01005E1E01005E1E0100B71E010056
:1016A000B71E0100101F0100101F0100691F01007B
:1016B000691F0100C21F0100C21F01001B200100A1
:1016C0001B2001007420010074200100CD200100C6
:1016D000CD20010026210100262101007F210100EB
:1016E0007F210100D8210100D82101003122010011
:1016F000312201008A2201008A220100E322010036
:10170000E32201003C2301003C230100952301005A
:1017100095230100EE230100EE2301004724010080
:1017200047240100A0240100A0240100F8240100A6
:10173000F82401005125010051250100AA250100CE
:10174000AA25010003260100032601005C260100F2
:101750005C260100B5260100B52601000E27010018
:101760000E2701006727010067270100C02701003D
:10177000C027010019280100192801007228010062
:1017800072280100CB280100CB2801002429010088
:10179000242901007D2901007D290100D6290100AD
:1017A000D62901002F2A01002F2A0100882A0100D2
:1017B000882A0100E12A0100E12A01003A2B0100F8
:1017C0003A2B0100932B0100932B0100EC2B01001D
:1017D000EC2B0100452C0100452C01009E2C010042
:1017E0009E2C0100F72C0100F72C0100502D010068
:1017F000502D0100A92D0100A92D0100022E01008C
:10180000022E01005B2E01005B2E0100B42E0100B0
:10181000B42E01000D2F01000D2F0100662F0100D5
:10182000662F0100BF2F0100BF2F010017300100FC
:10183000173001007030010070300100C930010024
:10184000C930010022310100223101007B31010049
:101850007B310100D4310100D43101002D3201006F
:101860002D320100DF320100163801006F3801000F
:101870006F380100C8380100C83801002139010063
:10188000213901007A3901007A390100D339010088
:10189000D33901002C3A01002C3A0100853A0100AD
:1018A000853A0100DE3A0100DE3A0100373B0100D3
:1018B000373B01008F3B01008F3B0100E83B0100FB
:1018C000E83B0100413C0100413C01009A3C010021
:1018D0009A3C0100F33C0100F33C01004C3D010047
:1018E0004C3D0100A53D0100A53D0100FE3D01006C
:1018F000FE3D0100573E0100573E0100B03E010091
:10190000B03E0100093F0100093F0100623F0100B4
:10191000623F0100BB3F0100BB3F010014400100DA
:10192000144001006D4001006D400100C6400100FF
:10193000C64001001F4101001F4101007841010024
:1019400078410100D1410100D14101002A4201004A
:101950002A4201008342010083420100DC4201006F
:10196000DC42010035430100354301008E43010094
:101970008E430100E7430100E743010040440100BA
:10198000404401009944010099440100F2440100DF
:10199000F24401004B4501004B450100A445010004
:1019A000A4450100FD450100FD450100564601002A
:1019B00056460100AE460100AE4601000747010051
:1019C000074701006047010060470100B947010077
:1019D000B947010012480100124801006B4801009C
:1019E0006B480100C4480100C44801001D490100C2
:1019F0001D4901007649010076490100CF490100E7
:101A0000CF490100284A0100284A0100814A01000B
:101A1000814A0100DA4A0100DA4A0100334B010031
:101A2000334B01008C4B01008C4B0100E54B010056
:101A3000E54B01003E4C01003E4C0100974C01007B
:101A4000974C0100F04C0100F04C0100494D0100A1
:101A5000494D0100A24D0100A24D0100FB4D0100C6
:101A6000FB4D0100544E0100544E0100AD4E0100EB
:101A7000AD4E0100064F0100064F01005F4F01000F
:101A80005F4F0100B84F0100B84F01001150010035
:101A9000115001006A5001006A500100C35001005A
:101AA000C35001001C5101001C510100755101007F
:101AB00075510100CD510100CD51010026520100A8
:101AC000265201007F5201007F520100D8520100CE
:101AD000D852010031530100315301008A530100F3
:101AE0008A530100E3530100E35301003C54010019
:101AF0003C5401009554010095540100EE5401003E
:101B0000EE5401004755010047550100A055010062
:101B1000A0550100F9550100F95501005256010088
:101B200052560100AB560100AB56010004570100AC
:101B3000045701005D5701005D570100B6570100D1
:101B4000B65701000F5801000F58010068580100F6
:101B500068580100C1580100C15801001A5901001C
:101B60001A5901007359010073590100CC59010041
:101B7000CC590100255A0100255A01007E5A010066
:101B80007E5A0100D75A0100D75A0100305B01008C
:101B9000305B0100895B0100895B0100E25B0100B1
:101BA000E25B01003B5C01003B5C0100945C0100D6
:101BB000945C0100ED5C0100ED5C0100455D0100FD
:101BC000455D01009E5D01009E5D0100F75D010025
:101BD000F75D0100505E0100505E0100A95E01004A
:101BE000A95E0100025F0100025F01005B5F01006E
:101BF0005B5F0100B45F0100B45F01000D60010094
:101C00000D6001006660010066600100BF600100B8
:101C1000BF600100186101001861010071610100DD
:101C200071610100CA610100CA6101002362010003
:101C3000236201007C6201007C620100D562010028
:101C4000D56201002E6301002E630100876301004D
:101C500087630100E0630100E06301003964010073
:101C6000396401009264010092640100EB64010098
:101C7000EB64010044650100446501009D650100BD
:101C80009D650100F6650100F66501004F660100E3
:101C90004F660100A8660100A86601000167010007
:101CA000016701005A6701005A670100B36701002C
:101CB000B36701000C6801000C6801006468010052
:101CC00064680100BD680100BD680100166901007B
:101CD000166901006F6901006F690100C8690100A0
:101CE000C8690100216A0100216A01007A6A0100C5
:101CF0007A6A0100D36A0100D36A01002C6B0100EB
:101D00002C6B0100856B0100856B0100DE6B01000F
:101D1000DE6B0100376C0100376C0100906C010034
:101D2000906C0100E96C0100E96C0100426D01005A
:101D3000426D01009B6D01009B6D0100F46D01007F
:101D4000F46D01004D6E01004D6E0100A66E0100A4
:101D5000A66E0100FF6E0100FF6E0100586F0100CA
:101D6000586F0100B16F0100B16F01000A700100EE
:101D70000A7001006370010063700100BC70010013
:101D8000BC70010015710100157101006E71010038
:101D90006E710100C7710100C7710100207201005E
:101DA000207201007972010079720100D272010083
:101DB000D27201002B7301002B73010084730100A8
:101DC00084730100DC730100DC73010035740100D1
:101DD000357401008E7401008E740100E7740100F7
:101DE000E77401004075010040750100997501001C
:101DF00099750100F2750100F27501004B76010042
:101E00004B760100A4760100A4760100FD76010066
:101E1000FD7601005677010056770100AF7701008B
:101E2000AF770100087801000878010061780100AF
:101E300061780100BA780100BA78010013790100D5
:101E4000137901006C7901006C790100C5790100FA
:101E5000C57901001E7A01001E7A0100777A01001F
:101E6000777A0100D07A0100D07A0100D07A01009F
:101E7000827B0100827B0100347C0100347C010004
:101E8000E67C0100987D01004A7E01004A7E010047
:101E9000FB7E0100AD7F01005F8001005F800100DB
:101EA0005F8001005F80010011810100118101004C
:101EB000C3810100C38101007582010027830100F5
:101EC000D9830100D98301008B8401003D85010085
:101ED000EF850100EF850100EF850100EF8501002E
:101EE000A1860100A18601005387010053870100EC
:101EF00005880100B788010069890100698901002E
:101F00001A8A0100CC8A01007E8B01007E8B0100C1
:101F10007E8B01007E8B0100308C0100308C010033
:101F2000E28C0100E28C0100948D0100468E0100DC
:101F3000F88E0100F88E0100AA8F01005C9001006C
:101F40000E9101000E9101000E9101000E91010011
:101F5000C0910100C09101007292010072920100D3
:101F600024930100D6930100889401008894010015
:101F70003A950100EB9501009D9601009D960100A8
:101F80009D9601009D9601004F9701004F9701001B
:101F90000198010001980100B398010065990100C2
:101FA000179A0100179A0100C99A01007B9B010052
:101FB0002D9C01002D9C01002D9C01002D9C0100F9
:101FC000DF9C0100DF9C0100919D0100919D0100BB
:101FD000439E0100F59E0100A79F0100A79F0100FD
:101FE00059A001000AA10100BCA10100BCA101008F
:101FF000BCA10100BCA101006EA201006EA2010003
:1020000020A3010020A30100D2A3010084A40100A9
:1020100036A5010036A50100E8A501009AA6010039
:102020004CA701004CA701004CA701004CA70100E0
:10203000FEA70100FEA70100B0A80100B0A80100A2
:1020400062A9010014AA0100C6AA0100C6AA0100E3
:1020500078AB010029AC0100DBAC0100DBAC010076
:10206000DBAC0100DBAC01008DAD01008DAD0100EA
:102070003FAE01003FAE0100F1AE0100A3AF010091
:1020800055B0010055B0010007B10100B9B1010020
:102090006BB201006BB201006BB201006BB20100C8
:1020A0001DB301001DB30100CFB30100CFB3010088
:1020B00081B4010033B50100E5B50100E5B50100CB
:1020C00097B6010048B70100A1B70100A1B7010010
:1020D000FAB70100FAB70100FAB7010053B80100DE
:1020E00053B80100ACB80100ACB8010005B901005B
:1020F00005B901005EB901005EB90100B7B9010080
:10210000B7B9010010BA010010BA010069BA0100A4
:1021100069BA0100C2BA0100C2BA01001BBB0100CA
:102120001BBB010074BB010074BB0100CDBB0100EF
:10213000CDBB010026BC010026BC01007FBC010014
:102140007FBC0100D8BC0100D8BC010031BD01003A
:1021500031BD01008ABD01008ABD0100C5BD01007D
:10216000C5BD010001BE010001BE01003CBE010071
:102170003CBE010077BE010077BE0100B2BE010087
:10218000B2BE0100EEBE0100EEBE010064BF010060
:1021900064BF010016C0010052C001008DC00100E3
:1021A0008DC00100C8C00100C8C0010004C1010009
:1021B00004C101003FC101003FC101007AC101001B
:1021C0007AC10100B6C10100B6C10100F1C1010030
:1021D000F1C101002CC201002CC20100DEC20100CD
:1021E00019C3010072C3010072C30100CBC3010017
:1021F000CBC3010024C4010024C401007DC401003C
:102200007DC40100D6C40100D6C401002FC5010061
:102210002FC5010088C5010088C50100E1C5010086
:10222000E1C501003AC601003AC6010093C60100AB
:1022300093C60100ECC60100ECC6010045C70100D1
:1022400045C701009EC701009EC70100F7C70100F6
:10225000F7C7010050C8010050C80100A9C801001B
:10226000A9C8010002C9010002C901005BC901003F
:102270005BC90100B4C90100B4C901000DCA010065
:102280000DCA010066CA010066CA0100BFCA01008A
:10229000BFCA010018CB010018CB010071CB0100AF
:1022A00071CB0100CACB0100CACB010023CC0100D5
:1022B00023CC01007CCC01007CCC0100D5CC0100FA
:1022C000D5CC01002ECD01002ECD010087CD01001F
:1022D00087CD0100DFCD0100DFCD010038CE010048
:1022E00038CE010091CE010091CE0100EACE01006E
:1022F000EACE010043CF010043CF01009CCF010093
:102300009CCF0100F5CF0100F5CF01004ED00100B8
:102310004ED00100A7D00100A7D0010000D10100DC
:1023200000D1010059D1010059D10100B2D1010001
:10233000B2D101000BD201000BD2010064D2010026
:1023400064D20100BDD20100BDD2010016D301004C
:1023500016D301006FD301006FD30100C8D3010071
:10236000C8D3010021D4010021D401007AD4010096
:102370007AD40100D3D40100D3D401002CD50100BC
:102380002CD5010085D5010085D50100DED50100E1
:10239000DED5010037D6010037D6010090D6010006
:1023A00090D60100E9D60100E9D6010042D701002C
:1023B00042D701009BD701009BD70100F4D7010051
:1023C000F4D701004DD801004DD80100A6D8010076
:1023D000A6D80100FED80100FED8010057D901009F
:1023E00057D90100B0D90100B0D9010009DA0100C4
:1023F00009DA010062DA010062DA0100BBDA0100E9
:10240000BBDA010014DB010014DB01006DDB01000D
:102410006DDB0100C6DB0100C6DB01001FDC010033
:102420001FDC010078DC010078DC0100D1DC010058
:10243000D1DC01002ADD01002ADD010083DD01007D
:1024400083DD0100DCDD0100DCDD010035DE0100A3
:1024500035DE01008EDE01008EDE0100E7DE0100C8
:10246000E7DE010040DF010040DF010099DF0100ED
:1024700099DF0100F2DF0100F2DF01004BE0010013
:102480004BE00100A4E00100A4E00100FDE0010038
:10249000FDE0010056E1010056E10100AFE101005D
:1024A000AFE1010008E2010008E2010061E2010081
:1024B00061E20100BAE20100BAE2010013E30100A7
:1024C00013E301006CE301006CE30100C5E30100CC
:1024D000C5E301001EE401001EE4010076E40100F2
:1024E00076E40100CFE40100CFE4010028E501001B
:1024F00028E5010081E5010081E50100DAE5010040
:10250000DAE5010033E6010033E601008CE6010064
:102510008CE60100E5E60100E5E601003EE701008A
:102520003EE7010097E7010097E70100F0E70100AF
:10253000F0E7010049E8010049E80100A2E80100D4
:10254000A2E80100FBE80100FBE8010054E90100FA
:1025500054E90100ADE90100ADE9010006EA01001E
:1025600006EA01005FEA01005FEA0100B8EA010043
:10257000B8EA010011EB010011EB01006AEB010068
:102580006AEB0100C3EB0100C3EB01001CEC01008E
:102590001CEC010075EC010075EC0100CEEC0100B3
:1025A000CEEC010027ED010027ED010080ED0100D8
:1025B00080ED0100D9ED0100D9ED010032EE0100FE
:1025C00032EE01008BEE01008BEE0100E4EE010023
:1025D000E4EE01003DEF01003DEF010095EF010049
:1025E00095EF0100EEEF0100EEEF010047F0010072
:1025F00047F00100A0F00100A0F00100F9F0010097
:10260000F9F0010052F1010052F10100ABF10100BB
:10261000ABF1010004F2010004F201005DF20100DF
:102620005DF20100B6F20100B6F201000FF3010005
:102630000FF3010068F3010068F30100C1F301002A
:10264000C1F301001AF401001AF4010073F401004F
:1026500073F40100CCF40100CCF4010025F5010075
:1026600025F50100D7F50100D7F5010089F6010035
:1026700089F601003BF701003BF70100EDF701008F
:10268000EDF701009FF801009FF8010051F90100EA
:1026900051F9010003FA010003FA0100B4FA010044
:1026A000B4FA010066FB010066FB010018FC0100A2
:1026B00018FC0100CAFC0100CAFC01007CFD0100FD
:1026C0007CFD01002EFE01002EFE0100E0FE010057
:1026D000E0FE010092FF010092FF010044000200B1
:1026E00044000200F6000200F6000200A801020009
:1026F000A80102005A0202005A0202000C03020062
:102700000C030200BE030200BE03020070040200BC
:10271000700402002205020022050200D405020016
:10272000D405020085060200850602003707020074
:1027300037070200E9070200E90702009B080200D0
:102740009B0802004D0902004D0902004D090200DC
:10275000A6090200A6090200FF090200FF09020003
:10276000FF090200580A0200580A0200B10A0200DA
:10277000B10A0200B10A02000A0B02000A0B0200B1
:102780000A0B0200630B0200630B0200F31002004D
:102790000000000000000000000000000000000039
:1027A0000000000000000000000000000000000029
:1027B000000000000000000000000000AE0000006B
:1027C000CF000000050100005D010000CF00000007
:1027D000050100005D0100009F0100005D01000097
:1027E00005010000CF000000AE0000000501000060
:1027F000CF000000AE000000050100008A000000CC
:10280000AE000000CF0000008A000000AE00000013
:10281000CF0000008A000000AE0000009B00000016
:10282000C3000000E90000009B000000C30000009E
:10283000E90000009B000000C3000000AE000000A3
:10284000CF000000050100005D010000CF00000086
:10285000050100005D0100009F0100005D01000016
:1028600005010000CF000000AE00000005010000DF
:10287000CF000000AE000000050100008A0000004B
:10288000AE000000CF0000008A000000AE00000093
:10289000CF0000008A000000AE0000009B00000096
:1028A000C3000000E90000009B000000C30000001E
:1028B000E90000009B000000C3000000AE00000023
:1028C000CF000000050100005D010000CF00000006
:1028D000050100005D0100009F0100005D01000096
:1028E00005010000CF000000AE000000050100005F
:1028F000CF000000AE000000050100008A000000CB
:10290000AE000000CF0000008A000000AE00000012
:10291000CF0000008A000000AE0000009B00000015
:10292000C3000000E90000009B000000C30000009D
:10293000E90000009B000000C3000000AE000000A2
:10294000CF000000050100005D010000CF00000085
:10295000050100005D0100009F0100005D01000015
:1029600005010000CF000000AE00000005010000DE
:10297000CF000000AE000000050100008A0000004A
:10298000AE000000CF0000008A000000AE00000092
:10299000CF0000008A000000AE0000009B00000095
:1029A000C3000000E90000009B000000C30000001D
:1029B000E90000009B000000C3000000AE00000022
:1029C00005010000AE00000005010000AE0000009F
:1029D00005010000AE000000050100008A000000B3
:1029E000CF0000008A000000CF0000008A00000035
:1029F000CF0000008A000000CF0000009B00000014
:102A0000E90000009B000000E90000009B000000BE
:102A1000E90000009B000000E9000000AE0000009B
:102A200005010000AE00000005010000AE0000003E
:102A3000AE0005010000CF0000000000AE00000065
:102A4000AE000000C300050100000000E900000026
:102A5000AE00000005010000AE000000050100000E
:102A6000AE00000005010000AE00000005010000FE
:102A70008A000000CF0000008A000000CF000000A4
:102A80008A000000CF0000008A000000CF00000094
:102A90009B000000E90000009B000000E90000002E
:102AA0009B000000E90000009B000000E90000001E
:102AB000AE00000005010000AE00000005010000AE
:102AC000AE000000AE0005010000CF0000000000D5
:102AD000AE000000AE000000C300050100000000D1
:102AE000E9000000AE00000005010000AE0000009B
:102AF00005010000AE00000005010000AE0000006E
:102B0000050100008A000000CF0000008A000000DC
:102B1000CF0000008A000000CF0000008A00000003
:102B2000CF0000009B000000E90000009B000000B7
:102B3000E90000009B000000E90000009B0000008D
:102B4000E9000000AE00000005010000AE0000003A
:102B500005010000AE000000AE0005010000CF003E
:102B600000000000AE000000AE000000C300050140
:102B700000000000E9000000AE00000005010000B8
:102B8000AE00000005010000AE00000005010000DD
:102B9000AE000000050100008A000000CF00000028
:102BA0008A000000CF0000008A000000CF00000073
:102BB0008A000000CF0000009B000000E900000038
:102BC0009B000000E90000009B000000E9000000FD
:102BD0009B000000E9000000A4000000E9000000E4
:102BE000A4000000E9000000A4000000C3000000F1
:102BF000E9000000490100008701A4000000000076
:102C000049010000E9000000C3000000B800000016
:102C1000DC0000001501000071010000150100003A
:102C2000DC000000B8000000DC000000150100001E
:102C30007101000015010000DC000000B800000078
:102C4000DC0000001501000071010000150100000A
:102C5000DC000000B800000015010000DC000000EE
:102C60007101000015010000B8010000150100000D
:102C70009F01000015010000710100001501000016
:102C8000DC00000015010000DC00000092000000E4
:102C9000B8000000DC00000025010000DC0000009E
:102CA000B800000092000000B8000000DC00000046
:102CB00025010000DC000000B800000092000000C8
:102CC000B8000000DC0000002501000071010000D8
:102CD00025010000B8010000250100009F0100004F
:102CE000250100007101000025010000DC0000004A
:102CF000CF000000B8000000DC000000A4000000CD
:102D0000DC00000092000000DC000000A4000000D5
:102D1000CF000000F600000049010000F6000000AE
:102D2000CF000000A4000000CF000000F60000006B
:102D300049010000F6000000CF000000A4000000E0
:102D4000CF000000F6000000490100009F010000D4
:102D5000B8010000ED0100009F01000049010000E2
:102D60009F01000049010000F60000004901000039
:102D7000F6000000CF000000F6000000490100004E
:102D80009F010000B8010000ED010000B800000044
:102D9000DC000000150100007101000015010000B9
:102DA000DC000000B8000000DC000000150100009D
:102DB0007101000015010000DC000000B8000000F7
:102DC000DC00000015010000710100001501000089
:102DD000DC000000B800000015010000DC0000006D
:102DE0007101000015010000B8010000150100008C
:102DF0009F01000015010000710100001501000095
:102E0000DC00000015010000DC0000009200000062
:102E1000B8000000DC00000025010000DC0000001C
:102E2000B800000092000000B8000000DC000000C4
:102E300025010000DC000000B80000009200000046
:102E4000B8000000DC000000250100007101000056
:102E500025010000B8010000250100009F010000CD
:102E6000250100007101000025010000DC000000C8
:102E7000CF000000B8000000DC000000A40000004B
:102E8000DC00000092000000DC000000A400000054
:102E9000CF000000F600000049010000F60000002D
:102EA000CF000000A4000000CF000000F6000000EA
:102EB00049010000F6000000CF000000A40000005F
:102EC000CF000000F6000000490100009F01000053
:102ED000B8010000ED0100009F0100004901000061
:102EE0009F01000049010000F600000049010000B8
:102EF000F6000000CF000000F600000049010000CD
:102F00009F010000B8010000ED01000092000000E8
:102F1000B8000000DC000000250100007101000085
:102F2000B80100004B020000E3020000A400000012
:102F3000CF000000F6000000490100009F010000E2
:102F4000ED010000930200003E030000DB030000DF
:102F5000B8000000DC000000150100007101000055
:102F6000B80100002A020000E30200007003000024
:102F70005404000070030000E30200002A02000075
:102F8000B80100007101000015010000DC00000024
:102F9000B8000000DC000000150100007101000015
:102FA000DC0000001501000071010000B801000004
:102FB0007101000015010000DC000000B8000000F5
:102FC00015010000DC000000B80000001501000041
:102FD00092000000B8000000DC0000009200000039
:102FE000B8000000DC00000092000000B800000003
:102FF000A4000000CF000000F6000000A4000000C4
:10300000CF000000F6000000A4000000CF00000088
:10301000B8000000DC000000150100007101000094
:10302000DC0000001501000071010000B801000083
:103030007101000015010000DC000000B800000074
:1030400015010000DC000000B800000015010000C0
:1030500092000000B8000000DC00000092000000B8
:10306000B8000000DC00000092000000B800000082
:10307000A4000000CF000000F6000000A400000043
:10308000CF000000F6000000A4000000CF00000008
:10309000B8000000DC000000150100007101000014
:1030A000DC0000001501000071010000B801000003
:1030B0007101000015010000DC000000B8000000F4
:1030C00015010000DC000000B80000001501000040
:1030D00092000000B8000000DC0000009200000038
:1030E000B8000000DC00000092000000B800000002
:1030F000A4000000CF000000F6000000A4000000C3
:10310000CF000000F6000000A4000000CF00000087
:10311000B8000000DC000000150100007101000093
:10312000DC0000001501000071010000B801000082
:103130007101000015010000DC000000B800000073
:1031400015010000DC000000B800000015010000BF
:1031500092000000B8000000DC00000092000000B7
:10316000B8000000DC00000092000000B800000081
:10317000A4000000CF000000F6000000A400000042
:10318000CF000000F6000000A4000000CF00000007
:10319000B8000000DC000000150100007101000013
:1031A000DC0000001501000071010000B801000002
:1031B0007101000015010000DC000000B8000000F3
:1031C00015010000DC000000B8000000150100003F
:1031D00092000000B8000000DC0000009200000037
:1031E000B8000000DC00000092000000B800000001
:1031F000A4000000CF000000F6000000A4000000C2
:10320000CF000000F6000000A4000000CF00000086
:10321000B8000000DC000000150100007101000092
:10322000DC0000001501000071010000B801000081
:103230007101000015010000DC000000B800000072
:1032400015010000DC000000B800000015010000BE
:1032500092000000B8000000DC00000092000000B6
:10326000B8000000DC00000092000000B800000080
:10327000A4000000CF000000F6000000A400000041
:10328000CF000000F6000000A4000000CF00000006
:10329000B8000000DC000000150100007101000012
:1032A000DC0000001501000071010000B801000001
:1032B0007101000015010000DC000000B8000000F2
:1032C00015010000DC000000B8000000150100003E
:1032D00092000000B8000000DC0000009200000036
:1032E000B8000000DC00000092000000B800000000
:1032F000A4000000CF000000F6000000A4000000C1
:10330000CF000000F6000000A4000000CF00000085
:10331000B8000000DC000000150100007101000091
:10332000DC0000001501000071010000B801000080
:103330007101000015010000DC000000B800000071
:1033400015010000DC000000B800000015010000BD
:1033500092000000B8000000DC00000092000000B5
:10336000B8000000DC00000092000000B80000007F
:10337000A4000000CF000000F6000000A400000040
:10338000CF000000F6000000A4000000CF00000005
:10339000C3000000E90000002501000087010000D3
:1033A00025010000E9000000C3000000E900000062
:1033B000250100008701000025010000E900000050
:1033C000C3000000E90000002501000087010000A3
:1033D00025010000E9000000C300000025010000F5
:1033E000E90000008701000025010000D201000073
:1033F00025010000B8010000250100008701000040
:1034000025010000E900000025010000E90000009E
:103410009B000000C3000000E9000000370100002D
:10342000E9000000C30000009B000000C300000092
:10343000E900000037010000E9000000C3000000BF
:103440009B000000C3000000E900000037010000FD
:103450008701000037010000D201000037010000A1
:10346000B8010000370100008701000037010000AB
:10347000E9000000DC000000C3000000E9000000DB
:10348000AE000000E90000009B000000E900000021
:10349000AE000000DC000000050100005D0100003E
:1034A00005010000DC000000AE000000DC000000B0
:1034B000050100005D01000005010000DC000000C6
:1034C000AE000000DC000000050100005D0100000E
:1034D000B8010000D20100000B020000B80100009A
:1034E0005D010000B80100005D0100000501000061
:1034F0005D01000005010000DC0000000501000086
:103500005D010000B8010000D20100000B020000C4
:10351000C3000000E9000000250100008701000051
:1035200025010000E9000000C3000000E9000000E0
:10353000250100008701000025010000E9000000CE
:10354000C3000000E9000000250100008701000021
:1035500025010000E9000000C30000002501000073
:10356000E90000008701000025010000D2010000F1
:1035700025010000B80100002501000087010000BE
:1035800025010000E900000025010000E90000001D
:103590009B000000C3000000E900000037010000AC
:1035A000E9000000C30000009B000000C300000011
:1035B000E900000037010000E9000000C30000003E
:1035C0009B000000C3000000E9000000370100007C
:1035D0008701000037010000D20100003701000020
:1035E000B80100003701000087010000370100002A
:1035F000E9000000DC000000C3000000E90000005A
:10360000AE000000E90000009B000000E90000009F
:10361000AE000000DC000000050100005D010000BC
:1036200005010000DC000000AE000000DC0000002E
:10363000050100005D01000005010000DC00000044
:10364000AE000000DC000000050100005D0100008C
:10365000B8010000D20100000B020000B801000018
:103660005D010000B80100005D01000005010000DF
:103670005D01000005010000DC0000000501000004
:103680005D010000B8010000D20100000B02000043
:10369000610030000000C3000000C3000000C30050
:1036A0000000C3000000C300000000006100300003
:1036B0000000C3000000C3000000C3000000C300FE
:1036C0000000C300000000009B004D000000370117
:1036D000000037010000370100003701000037010A
:1036E000000000009B004D00000037010000370182
:1036F0000000370100003701000037010000000022
:1037000057002B000000AE000000AE000000AE002D
:103710000000AE000000AE000000000057002B00CB
:103720000000AE000000AE000000AE000000AE00E1
:103730000000AE0000000000610030000000C30087
:103740000000C3000000C3000000C3000000C3006D
:1037500000000000610030000000C3000000C30052
:103760000000C3000000C3000000C3000000000010
:103770009B004D00000037010000370100003701B9
:103780000000370100003701000000009B004D00E1
:103790000000370100003701000037010000370149
:1037A0000000370100000000AE00570000005D017E
:1037B00000005D0100005D0100005D0100005D0191
:1037C00000005D0100000000B8010000D20100000F
:1037D0000B020000B80100005D010000B80100000C
:1037E0005D010000050100005D0100000501000011
:1037F000DC000000050100005D010000B8010000D0
:10380000D20100000B0200009B000000C30000007A
:10381000E90000003701000087010000D20100002C
:103820006E0200000F030000AE000000DC0000008C
:10383000050100005D010000B80100000B0200005E
:10384000BA0200007003000016040000C30000006C
:10385000E90000002501000087010000D2010000FE
:103860004B0200000F030000A403000096040000B8
:10387000A40300000F0300004B020000D20100006F
:103880008701000025010000E9000000AE000000F3
:10389000CF000000050100005D010000CF00000026
:1038A000050100005D0100009F0100005D010000B6
:1038B00005010000CF000000AE000000050100007F
:1038C000CF000000AE000000050100008A000000EB
:1038D000AE000000CF0000008A000000AE00000033
:1038E000CF0000008A000000AE0000009B00000036
:1038F000C3000000E90000009B000000C3000000BE
:10390000E90000009B000000C3000000AE000000C2
:10391000CF000000050100005D010000CF000000A5
:10392000050100005D0100009F0100005D01000035
:1039300005010000CF000000AE00000005010000FE
:10394000CF000000AE000000050100008A0000006A
:10395000AE000000CF0000008A000000AE000000B2
:10396000CF0000008A000000AE0000009B000000B5
:10397000C3000000E90000009B000000C30000003D
:10398000E90000009B000000C3000000AE00000042
:10399000CF000000050100005D010000CF00000025
:1039A000050100005D0100009F0100005D010000B5
:1039B00005010000CF000000AE000000050100007E
:1039C000CF000000AE000000050100008A000000EA
:1039D000AE000000CF0000008A000000AE00000032
:1039E000CF0000008A000000AE0000009B00000035
:1039F000C3000000E90000009B000000C3000000BD
:103A0000E90000009B000000C3000000AE000000C1
:103A1000CF000000050100005D010000CF000000A4
:103A2000050100005D0100009F0100005D01000034
:103A300005010000CF000000AE00000005010000FD
:103A4000CF000000AE000000050100008A00000069
:103A5000AE000000CF0000008A000000AE000000B1
:103A6000CF0000008A000000AE0000009B000000B4
:103A7000C3000000E90000009B000000C30000003C
:103A8000E90000009B000000C3000000AE00000041
:103A900005010000AE00000005010000AE000000BE
:103AA00005010000AE000000050100008A000000D2
:103AB000CF0000008A000000CF0000008A00000054
:103AC000CF0000008A000000CF0000009B00000033
:103AD000E90000009B000000E90000009B000000DE
:103AE000E90000009B000000E9000000AE000000BB
:103AF00005010000AE00000005010000AE0000005E
:103B0000AE0005010000CF0000000000AE00000084
:103B1000AE000000C300050100000000E900000045
:103B2000AE000000000000008B0000008C000000D0
:103B30008C0000008E0000008F0000008F0000004D
:103B40009000000091000000920000009200000030
:103B50009200000092000000950000009500000017
:103B600095000000970000009700000097000000FB
:103B7000990000009A0000009A0000004106000031
:103B8000D00B0000D00B0000340D0000340D0000FD
:103B9000980E0000980E0000FC0F0000FC0F0000C3
:103BA0006011000060110000EF160000EF16000029
:103BB0005318000053180000B7190000B71900008F
:103BC0001B1B00001B1B00007F1C00007F1C000053
:103BD0000E2200000E22000072230000722300005B
:103BE000D6240000D62400003A2600003A26000021
:103BF0009E2700009E2700002D2D00002D2D000087
:103C0000912E0000912E0000F52F0000F52F0000EE
:103C10005931000059310000BD320000BD320000B2
:103C20006F3300006F3300002134000021340000A6
:103C3000D3340000853500003736000037360000E9
:103C4000E9360000E93600009B3700004C380000E0
:103C5000FE380000FE380000B0390000B039000026
:103C6000623A0000623A0000143B0000143B00007E
:103C7000C63B0000C63B0000F33B0000F33B0000E6
:103C80001F3C00001F3C0000783C0000783C000016
:103C90002A3D00002A3D0000DC3D0000DC3D000024
:103CA0008E3E00008E3E0000403F0000403F00007E
:103CB000F23F0000A44000005641000056410000C1
:103CC0000842000008420000BA4200006C430000B5
:103CD0001D4400001D440000CF440000CF440000FC
:103CE0008145000081450000334600003346000056
:103CF000E5460000E54600001247000012470000BC
:103D00003E4700003E4700009747000097470000ED
:103D10004948000049480000FB480000FB480000FB
:103D2000AD490000AD4900005F4A00005F4A000055
:103D3000114B0000C34B0000754C0000754C000097
:103D4000274D0000274D0000D94D00008B4E00008C
:103D50003C4F00003C4F0000EE4F0000EE4F0000D3
:103D6000A0500000A050000052510000525100002D
:103D70000452000004520000315200003152000091
:103D80005D5200005D520000B6520000B6520000C5
:103D900068530000685300001A5400001A540000D1
:103DA000CC540000CC5400007E5500007E5500002D
:103DB000E2560000E2560000465800004658000057
:103DC000AA590000AA5900000D5B00000D5B00001D
:103DD000715C0000715C0000D55D0000D55D0000E5
:103DE000875E0000875E0000395F0000395F0000D9
:103DF00091630000916300001764000017640000E5
:103E0000C9640000C9640000426800004268000004
:103E1000F4680000F4680000A6690000A6690000CC
:103E2000586A0000586A0000206D0000206D0000F4
:103E3000846E0000846E0000E86F0000E86F0000F0
:103E40001374000013740000C5740000C5740000F2
:103E50007775000077750000A3790000A379000052
:103E6000557A0000557A0000077B0000077B0000B0
:103E7000807E0000807E0000327F0000327F0000E4
:103E8000E47F0000E47F0000968000009680000040
:103E90005E8300005E830000C2840000C2840000D4
:103EA0002686000026860000ED880000ED880000D0
:103EB0009F8900009F890000518A0000518A0000FC
:103EC000038B0000038B0000B58B0000B58B000056
:103ED000678C0000678C0000198D0000198D0000B0
:103EE000CB8D00007D8E00002F8F00002F8F0000F3
:103EF000E18F0000E18F000093900000939000009C
:103F0000BE940000BE940000709500007095000003
:103F10002296000022960000D4960000D49600005D
:103F200086970000869700003898000038980000B7
:103F3000EA9800009C9900004E9A00004E9A0000FA
:103F4000009B0000009B0000B29B0000B29B0000A1
:103F5000DD9F0000DD9F00008FA000008FA000000B
:103F600041A1000041A10000F3A10000F3A1000065
:103F7000A5A20000A5A2000057A3000057A30000BF
:103F800009A40000BBA400006DA500006DA5000001
:103F90001FA600001FA60000D1A60000D1A60000A9
:103FA00035A8000035A80000E6A80000E6A800003B
:103FB00098A9000098A900004AAA00004AAA000097
:103FC000FCAA0000FCAA0000AEAB0000AEAB0000F3
:103FD00060AC000060AC000012AD000012AD00004B
:103FE000C4AD0000C4AD000076AE000076AE0000A7
:103FF00028AF0000DAAF00008CB000008CB00000E9
:104000003EB100003EB10000F0B10000F0B1000090
:104010001BB600001BB60000CDB60000CDB60000F8
:104020007FB700007FB7000031B8000031B8000052
:10403000E3B80000E3B8000095B9000095B90000AE
:1040400047BA0000F9BA0000ABBB0000ABBB0000F0
:104050005DBC00005DBC00000FBD00000FBD000096
:104060003AC100003AC10000ECC10000ECC1000000
:104070009EC200009EC2000050C3000050C300005A
:1040800002C4000002C40000B4C40000B4C40000B4
:1040900066C5000018C60000CAC60000CAC60000F7
:1040A0007CC700007CC700002EC800002EC800009E
:1040B00092C9000092C9000044CA000044CA00002E
:1040C000F5CA0000F5CA0000A7CB0000A7CB00008E
:1040D00059CC000059CC00000BCD00000BCD0000E6
:1040E000BDCD0000BDCD00006FCE00006FCE000042
:1040F00021CF000021CF0000D3CF0000D3CF00009C
:1041000085D0000037D10000E9D10000E9D10000DE
:104110009BD200009BD200004DD300004DD3000085
:104120008ED900008ED900001EDF00001EDF0000C7
:1041300082E0000082E00000E5E10000E5E100002F
:1041400049E3000049E3000049E30000ADE400005A
:10415000ADE40000ADE400003DEA00003DEA0000EF
:10416000A1EB0000A1EB000004ED000004ED000055
:1041700068EE000068EE00001AEF00001AEF000081
:10418000CCEF0000CCEF00005CF500005CF5000017
:10419000C0F60000C0F6000023F8000023F800007D
:1041A00087F9000087F90000EBFA0000EBFA000045
:1041B0007B0001007B000100DF010100DF01010045
:1041C0004203010042030100A6040100A60401000D
:1041D0000A0601000A0601009A0B01009A0B010071
:1041E000FE0C0100FE0C0100610E0100610E0100D9
:1041F000C50F0100C50F010029110100291101009F
:10420000B9160100B91601001D1801001D180100A2
:104210008019010080190100E41A0100E41A01006C
:10422000481C0100481C0100D8210100D8210100D0
:104230003C2301003C230100A0240100A024010034
:1042400003260100032601006727010067270100FC
:10425000F72C0100F72C01005B2E01005B2E010002
:10426000662F0100662F01007030010070300100E0
:104270002231010022310100D4310100D43101008A
:104280008632010016380100C8380100C838010024
:104290007A3901007A3901002C3A0100DE3A010036
:1042A0008F3B01008F3B0100413C0100413C01007C
:1042B000F33C0100F33C01001F4101001F410100DC
:1042C000D1410100D141010083420100834201003C
:1042D0003543010035430100E7430100E743010096
:1042E00099440100994401004B450100FD4501003E
:1042F000AE460100AE460100604701006047010084
:1043000012480100124801003E4C01003E4C0100E1
:10431000F04C0100F04C0100A24D0100A24D010043
:10432000544E0100544E0100064F0100064F01009B
:10433000B84F0100B84F01006A5001001C51010044
:10434000CD510100CD5101007F5201007F5201008B
:10435000315301003153010095540100955401007F
:104360004755010047550100F9550100F955010075
:10437000AB560100AB5601005D5701005D570100CF
:104380000F5801000F580100C1580100C158010029
:104390007359010073590100255A0100255A010083
:1043A000D75A0100D75A0100895B01003B5C01002C
:1043B000ED5C0100ED5C01009E5D01009E5D010071
:1043C000505E0100505E01007C6201007C620100D1
:1043D0002E6301002E630100E0630100E063010031
:1043E000926401009264010044650100446501008B
:1043F000F6650100F6650100A86601005A67010034
:104400000C6801000C680100BD680100BD68010076
:104410006F6901006F6901009B6D01009B6D0100D8
:104420004D6E01004D6E0100FF6E0100FF6E010038
:10443000B16F0100B16F0100637001006370010092
:104440001571010015710100C77101007972010039
:104450002B7301002B730100DC730100DC7301007E
:104460008E7401008E740100F2750100F275010076
:10447000A4760100A476010056770100567701006A
:104480000878010008780100BA780100BA780100C4
:104490006C7901006C7901001E7A01001E7A01001E
:1044A000D07A0100D07A0100827B0100827B01007A
:1044B000347C0100347C0100E67C0100987D010021
:1044C0004A7E01004A7E0100FB7E0100FB7E010066
:1044D000AD7F0100AD7F0100D9830100D9830100C8
:1044E0008B8401008B8401003D8501003D85010026
:1044F000EF850100EF850100A1860100A186010082
:10450000538701005387010005880100B788010027
:1045100069890100698901001A8A01001A8A01006B
:10452000CC8A0100CC8A0100F88E0100F88E0100CF
:10453000AA8F0100AA8F01005C9001005C9001002D
:104540000E9101000E910100C0910100C091010087
:10455000729201007292010024930100D69301002F
:1045600088940100889401003A9501003A95010071
:10457000EB950100EB9501004F9701004F9701006B
:104580000198010001980100B3980100B39801005F
:104590006599010065990100179A0100179A0100B9
:1045A000C99A0100C99A01007B9B01007B9B010015
:1045B0002D9C01002D9C0100DF9C0100DF9C01006F
:1045C000919D0100919D0100439E0100F59E010017
:1045D000A79F0100A79F010059A0010059A0010059
:1045E0000AA101000AA1010036A5010036A50100BB
:1045F000E8A50100E8A501009AA601009AA601001D
:104600004CA701004CA70100FEA70100FEA7010076
:10461000B0A80100B0A8010062A9010014AA01001D
:10462000C6AA0100C6AA010078AB010078AB010060
:1046300029AC010029AC010055B0010055B00100C2
:1046400007B1010007B10100B9B10100B9B1010022
:104650006BB201006BB201001DB301001DB301007C
:10466000CFB30100CFB3010081B4010033B5010025
:10467000E5B50100E5B5010097B6010097B6010068
:1046800048B7010048B70100ACB80100ACB8010060
:104690005EB901005EB9010010BA010010BA010054
:1046A000C2BA0100C2BA010074BB010074BB0100B0
:1046B00026BC010026BC0100D8BC0100D8BC01000A
:1046C0008ABD01008ABD01003CBE01003CBE010064
:1046D000EEBE0100EEBE0100A0BF010052C001000D
:1046E00004C1010004C10100B6C10100B6C101004E
:1046F00067C2010067C20100A9C80100A9C8010082
:1047000038CE010038CE01009CCF01009CCF0100C3
:1047100000D1010000D1010064D2010064D2010087
:10472000C8D30100C8D3010057D9010057D90100EF
:10473000BBDA0100BBDA01001FDC01001FDC010055
:1047400083DD010083DD0100E7DE0100E7DE01001B
:1047500076E4010076E40100DAE50100DAE5010023
:104760003EE701003EE70100A2E80100A2E80100E7
:1047700006EA010006EA010095EF010095EF01004D
:10478000F9F00100F9F001005DF201005DF20100B5
:10479000C1F30100C1F3010073F4010073F40100DF
:1047A00025F5010025F50100D7F50100D7F5010039
:1047B00089F6010089F601003BF70100EDF70100E1
:1047C0009FF801009FF8010051F9010051F9010023
:1047D00003FA0100B4FA010066FB010066FB010068
:1047E00018FC010018FC0100CAFC0100CAFC010011
:1047F0007CFD01007CFD01002EFE01002EFE01006B
:104800005BFE01005BFE010087FE010087FE0100E8
:10481000E0FE0100E0FE010092FF010092FF0100B6
:104820004400020044000200F6000200F60002000C
:10483000A8010200A80102005A0202000C030200B3
:10484000BE030200BE0302007004020070040200F6
:1048500022050200D405020085060200850602003A
:104860003707020037070200E9070200E9070200E4
:104870009B0802009B0802004D0902004D0902003E
:104880007A0902007A090200A6090200A6090200BC
:10489000FF090200FF090200B10A0200B10A02008A
:1048A000630B0200630B0200F31002000000000023
:1048B00000000000000000000000000000000000F8
:1048C00000000000000000000000000000000000E8
:1048D00000000000000000000B0200000B020000BE
:1048E000BA0200000F0300003E0300000B020000AC
:1048F0000B020000BA0200000F0300003E0300009C
:104900000B0200000B020000BA0200000F030000BF
:104910003E0300000B0200000B020000BA02000080
:104920000F0300003E0300000B0200006E020000B7
:10493000BA0200000B0200006E020000BA02000082
:104940000B0200006E020000BA0200000B02000021
:104950003E0300000F0300003E0300000F030000B1
:10496000BA0200006E020000D20100000B0200003B
:104970006E020000D20100000B0200006E02000077
:104980000B0200006E020000BA0200000B020000E1
:1049900016040000A403000016040000A403000095
:1049A0003E0300000F0300000B0200006E02000037
:1049B000BA0200000B0200006E020000BA02000002
:1049C0000B0200006E020000BA0200000B020000A1
:1049D0003E0300000F0300003E0300000F03000031
:1049E000BA0200006E020000D20100000B020000BB
:1049F0009F01000087010000370100005D010000F9
:104A0000870100009F0100009F010000D20100000B
:104A10000B020000D20100006E020000BA0200008A
:104A20000B0200000F0300003E0300000F03000014
:104A30006E020000BA0200000B0200000B02000030
:104A40006E020000BA0200000B0200006E020000BD
:104A5000BA0200000B0200000F0300003E0300003A
:104A60000F0300003E030000A40300001604000032
:104A700016040000A40300003E0300000F03000022
:104A8000E30200003E030000700300003E0300004C
:104A9000E302000093020000E30200002A0200008B
:104AA000E30200002A020000E30200003E030000CF
:104AB000700300003E030000E302000093020000C8
:104AC00054040000DB030000700300003E030000FC
:104AD000E30200003E030000700300003E030000FC
:104AE000E30200009302000054040000DB03000016
:104AF00070030000DB030000700300003E030000B1
:104B0000E302000093020000E30200003E03000005
:104B1000700300003E030000E30200009302000067
:104B2000E30200002A020000E30200002A02000063
:104B3000E30200003E030000700300003E0300009B
:104B4000E30200009302000054040000DB030000B5
:104B5000700300003E030000E30200003E0300007B
:104B6000700300003E030000E30200009302000017
:104B700054040000DB03000070030000DB030000AE
:104B8000700300003E030000E302000093020000F7
:104B900070030000DB03000054040000DB0300008E
:104BA0005404000026050000C70500002A0200008A
:104BB0002A020000E30200003E03000070032A0204
:104BC000000000002A0200002A020000E3020000A8
:104BD0003E030000700300004B0200002A020000A8
:104BE0002A020000E30200003E0300007003000000
:104BF0002A0200002A020000E30200003E03000037
:104C0000700300002A0200002A020000E3020000F4
:104C10003E030000700300002A0200002A02000088
:104C2000E30200003E030000700300007003000078
:104C30007003000070030000DB0300005404000058
:104C400070030000E302000070030000DB030000BB
:104C5000700300003E030000960400000F030000F4
:104C600070030000A4030000700300000F030000A5
:104C7000BA0200000F0300004B0200000F03000007
:104C80004B0200000F03000070030000A4030000AB
:104C9000700300000F030000BA0200009604000039
:104CA00016040000A4030000700300000F030000BE
:104CB00070030000A4030000700300000F03000055
:104CC000BA0200009604000016040000A4030000CD
:104CD00016040000A4030000700300000F0300008E
:104CE000BA0200000F03000070030000A4030000DC
:104CF000700300000F030000BA0200000F03000061
:104D00004B0200000F0300004B0200000F030000E5
:104D100070030000A4030000700300000F030000F4
:104D2000BA0200009604000016040000A40300006C
:104D3000700300000F03000070030000A4030000D4
:104D4000700300000F030000BA0200009604000088
:104D500016040000A403000016040000A4030000D1
:104D6000700300000F030000BA0200000F030000F0
:104D700070030000A4030000700300000F03000094
:104D8000BA0200000F0300004B0200000F030000F6
:104D90004B0200000F03000070030000A40300009A
:104DA000700300000F030000BA0200009604000028
:104DB00016040000A4030000700300000F030000AD
:104DC00070030000A4030000700300000F03000044
:104DD000BA0200009604000016040000A4030000BC
:104DE00016040000A4030000700300000F0300007D
:104DF000BA0200000F03000070030000A4030000CB
:104E0000700300000F030000BA0200000F0300004F
:104E10004B0200000F0300004B0200000F030000D4
:104E200070030000A4030000700300000F030000E3
:104E3000BA0200009604000016040000A40300005B
:104E4000700300000F03000070030000A4030000C3
:104E5000700300000F030000BA0200009604000077
:104E600016040000A403000016040000A4030000C0
:104E7000700300000F030000BA020000A40300004A
:104E800016040000960400001604000096040000BA
:104E9000740500001F0600000B0200000B0200005A
:104EA000BA0200000F0300003E0300000B020000E6
:104EB0000B020000BA0200000F0300003E030000D6
:104EC0000B0200000B020000BA0200000F030000FA
:104ED0003E0300000B0200000B020000BA020000BB
:104EE0000F0300003E0300002A0200000B02000036
:104EF0006E020000BA0200000B0200006E02000009
:104F0000BA0200000B0200006E020000BA020000AC
:104F10000B0200003E0300000F0300003E030000F0
:104F20000F030000BA0200006E020000D201000070
:104F30000B0200006E020000D20100000B02000014
:104F40006E0200000B0200006E020000BA020000B8
:104F50000B02000016040000A40300001604000069
:104F6000A40300003E0300000F030000BA0200008B
:104F700000000000240027002A0000000000250097
:104F800028002B0002010000000000230026002959
:104F900000040404040404040402020202020203E2
:104FA00003030303030102040810204080010204EC
:104FB000081020010204081020000000080002016F
:104FC0000000030407000000000000000000523051
:104FD00011241FBECFEFD8E0DEBFCDBF11E0A0E0AF
:104FE000B1E0E0E9F1E602C005900D92A633B10709
:104FF000D9F722E0A6E3B1E001C01D92A631B207C5
:10500000E1F717E2C8EED7E204C02197FE010E9443
:10501000C030C73ED107C9F70E94D32B0C94C630CD
:105020000C940000AF92BF92CF92DF92EF92FF926A
:105030000F931F93CF93DF936C017B018B01040FC0
:10504000151FEB015E01AE18BF08C017D10759F05C
:105050006991D601ED91FC910190F081E02DC6019E
:105060000995892B79F7C501DF91CF911F910F9198
:10507000FF90EF90DF90CF90BF90AF900895FC012C
:10508000538D448D252F30E0842F90E0821B930BAD
:10509000541710F0CF96089501970895FC01918D53
:1050A000828D981761F0A28DAE0FBF2FB11D5D9656
:1050B0008C91928D9F5F9F73928F90E008958FEFF8
:1050C0009FEF0895FC01918D828D981731F0828DAC
:1050D000E80FF11D858D90E008958FEF9FEF089503
:1050E000FC01918D228D892F90E0805C9F4F821B67
:1050F00091098F739927089589E791E00E9470289C
:1051000021E0892B09F420E0822F089580E090E0CF
:10511000892B29F00E947C2881110C9400000895AD
:10512000FC01A48DA80FB92FB11DA35ABF4F2C911C
:10513000848D90E001968F739927848FA689B78913
:105140002C93A089B1898C91837080648C93938D0A
:10515000848D981306C00288F389E02D80818F7DAD
:1051600080830895EF92FF920F931F93CF93DF9365
:10517000EC0181E0888F9B8D8C8D98131AC0E88993
:10518000F989808185FF15C09FB7F894EE89FF8962
:105190006083E889F98980818370806480839FBF00
:1051A00081E090E0DF91CF911F910F91FF90EF9000
:1051B0000895F62E0B8D10E00F5F1F4F0F73112710
:1051C000E02E8C8D8E110CC00FB607FCFACFE8894B
:1051D000F989808185FFF5CFCE010E949028F1CF1B
:1051E000EB8DEC0FFD2FF11DE35AFF4FF0829FB7BF
:1051F000F8940B8FEA89FB8980818062CFCFCF93AF
:10520000DF93EC01888D8823B9F0AA89BB89E889EE
:10521000F9898C9185FD03C0808186FD0DC00FB694
:1052200007FCF7CF8C9185FFF2CF808185FFEDCF12
:10523000CE010E949028E9CFDF91CF91089583306D
:1052400081F028F4813099F08230A9F008958730F8
:10525000A9F08830C9F08430B1F4809180008F7D4E
:1052600003C0809180008F7780938000089584B57B
:105270008F7784BD089584B58F7DFBCF8091B0007A
:105280008F778093B00008958091B0008F7DF9CF23
:10529000CF93DF93E9EBFFE48491E5EAFFE4D49157
:1052A000E1E9FFE4C491CC23A1F081110E941F2900
:1052B000EC2FF0E0EE0FFF1FE957F04BA591B491F2
:1052C000EC91ED2381E090E009F480E0DF91CF9153
:1052D000089580E090E0FACF1F93CF93DF93282FBB
:1052E00030E0F901E754F04B8491F901EB55F04BB4
:1052F000D491F901EF56F04BC491CC23A9F0162FAD
:1053000081110E941F29EC2FF0E0EE0FFF1FE658DD
:10531000F04BA591B4918FB7F894EC91111108C09E
:10532000D095DE23DC938FBFDF91CF911F9108953D
:10533000DE2BF8CFCF93DF9390E0FC01EB55F04BE1
:1053400024918F56904BFC0184918823D1F090E0FA
:10535000880F991FFC01E059F04BA591B491FC0115
:10536000E658F04BC591D491623071F49FB7F89430
:105370003C91822F809583238C93E8812E2B288368
:105380009FBFDF91CF9108958FB7F894EC912E2BAA
:105390002C938FBFF6CF3FB7F8948091370190914F
:1053A0003801A0913901B0913A0126B5A89B05C0FA
:1053B0002F3F19F00196A11DB11D3FBFBA2FA92F94
:1053C000982F8827BC01CD01620F711D811D911D91
:1053D00042E0660F771F881F991F4A95D1F70895FD
:1053E0000C94CB29FC019181913069F0923089F0C5
:1053F000911105C090916E009D7F90936E0060E0CA
:1054000080810C946C2990916F009D7F90936F0028
:10541000F6CF909170009D7F90937000F0CFCF9366
:10542000DF93FC0101900020E9F73197AF01481BA1
:10543000590BBC0189E791E00E941228EC0142E07F
:1054400050E062E271E089E791E00E9412288C0F3F
:105450009D1FDF91CF9108951F920F920FB60F926B
:1054600011242F933F934F935F936F937F938F9369
:105470009F93AF93BF93EF93FF9389E791E00E94CF
:105480009028FF91EF91BF91AF919F918F917F9164
:105490006F915F914F913F912F910F900FBE0F90A1
:1054A0001F9018951F920F920FB60F9211242F93F1
:1054B0008F939F93EF93FF93E0918901F0918A017D
:1054C0008081E0918F01F091900182FD1BC090815D
:1054D000809192018F5F8F7320919301821741F029
:1054E000E0919201F0E0E758FE4F958F8093920192
:1054F000FF91EF919F918F912F910F900FBE0F9081
:105500001F9018958081F4CF1F920F920FB60F92C3
:1055100011242F933F938F939F93AF93BF938091C9
:10552000450190914601A0914701B0914801309109
:10553000360123E0230F2D3758F50196A11DB11D2B
:10554000209336018093450190934601A093470133
:10555000B09348018091370190913801A0913901B1
:10556000B0913A010196A11DB11D8093370190932E
:105570003801A0933901B0933A01BF91AF919F9147
:105580008F913F912F910F900FBE0F901F90189504
:1055900026E8230F0296A11DB11DD2CF1F920F92B4
:1055A0000FB60F9211242F933F938F939F93AF9336
:1055B000BF93EF93FF938091490190914A01A0918D
:1055C0004B01B0914C010097A105B10531F130912B
:1055D0003B01E0913C01F0913D0120812327208394
:1055E000181619061A061B061CF40197A109B10921
:1055F0008093490190934A01A0934B01B0934C01D1
:10560000FF91EF91BF91AF919F918F913F912F911A
:105610000F900FBE0F901F901895209170002D7F56
:105620002093700020913B01E0913C01F0913D01FD
:105630003081209523232083DBCF1F920F920FB65A
:105640000F9211248F939F93AF93BF93EF93FF9388
:1056500080914D0190914E01A0914F01B091500168
:10566000892B8A2B8B2BA1F190913E01E0913F0178
:10567000F091400180818927808380914D01909134
:105680004E01A0914F01B0915001181619061A064B
:105690001B069CF480914D0190914E01A0914F0109
:1056A000B09150010197A109B10980934D019093E8
:1056B0004E01A0934F01B0935001FF91EF91BF9124
:1056C000AF919F918F910F900FBE0F901F901895E3
:1056D00080916F008D7F80936F0080913E01E091FB
:1056E0003F01F09140019081809589238083E5CF2F
:1056F0001F920F920FB60F9211248F939F93AF9327
:10570000BF93EF93FF938091510190915201A0912B
:105710005301B0915401892B8A2B8B2BA1F19091CD
:105720004101E0914201F09143018081892780830A
:105730008091510190915201A0915301B091540177
:10574000181619061A061B069CF4809151019091B7
:105750005201A0915301B09154010197A109B109DF
:105760008093510190935201A0935301B09354013F
:10577000FF91EF91BF91AF919F918F910F900FBECD
:105780000F901F90189580916E008D7F80936E0012
:1057900080914101E0914201F09143019081809517
:1057A00089238083E5CFCF93DF93CDB7DEB72A97E8
:1057B0000FB6F894DEBF0FBECDBF789484B582607B
:1057C00084BD84B5816084BD85B5826085BD85B5A5
:1057D000816085BD80916E00816080936E00109223
:1057E000810080918100826080938100809181009E
:1057F000816080938100809180008160809380002F
:105800008091B10084608093B1008091B00081608C
:105810008093B00080917A00846080937A008091B8
:105820007A00826080937A0080917A008160809310
:105830007A0080917A00806880937A001092C1008B
:10584000E0918901F0918A0182E08083E0918501F5
:10585000F09186011082E0918701F09188018FEC30
:10586000808310929101E0918D01F0918E0186E08C
:105870008083E0918B01F0918C0180818061808335
:10588000E0918B01F0918C01808188608083E091B0
:105890008B01F0918C01808180688083E0918B0185
:1058A000F0918C0180818F7D808362E080E00E9496
:1058B0009A2961E08DE00E949A2961E089E00E94C6
:1058C0009A2961E08AE00E949A29A5E5B1E005E7FE
:1058D00011E069E671E04DE651E029E531E082E151
:1058E000282E81E0382EFF24FA94F10186819781D9
:1058F000F90191838083FA01119211921192119210
:10590000AF01FB0111921192BF01F80111921192A6
:105910008F01F101908180914401833008F01FC113
:105920009C93E82FF0E0EC57F04BE4911196EC9348
:1059300011978F5F80934401E13009F4C4C008F4EB
:10594000A2C0E23009F4E5C0F90180819181FC0137
:10595000E150F04CCF01880F991F880F991FF1017A
:10596000C480D580F601E80FF91F459055906590E9
:10597000749080905D0190905E01A0905F01B09066
:10598000600184149504A604B70410F45301420185
:1059900080925D0190925E01A0925F01B0926001E1
:1059A000F8E02F0E311C2E5F3F4F129682E2281630
:1059B00081E0380609F099CF0E94F02960E08DE07F
:1059C0000E946C2900E010E00E9448299C838B8390
:1059D000019711F00B831C830E9448299A838983C5
:1059E000892B09F0C0C0AB81BC81119709F0BBC005
:1059F00061E08DE00E946C2985E291E00E940F2A0F
:105A000069E671E00DE6C02E01E0D02E45E751E0D9
:105A1000A2E1B1E01496ED90FC901597FA01808117
:105A20009181FC01EE0FFF1FEE0FFF1FEE0DFF1D1A
:105A30000591159125913491F601008311832283FC
:105A40003383FA012081318189010F5F1F4FC80123
:105A5000880F991F880F991F8E0D9F1DFC0185903F
:105A60009590A590B490F60140805180628073803B
:105A7000481459046A047B0409F078C0FA011183C0
:105A80000083FC01D5CF14BC15BC84B5826084BDF5
:105A900085B5816085BD8C9190E0FC01EF56F04B9F
:105AA000E491F0E0EE0FFF1FE658F04BC590D49064
:105AB000D0924301C0924201FC01EB55F04BE491BE
:105AC000E093410141CF10928000109281008091BB
:105AD0008100886080938100809181008160809343
