:100000000C9407240C942F240C942F240C942F244C
:100010000C942F240C942F240C942F240C94ED2654
:100020000C942F240C942F240C942F240C943C27F4
:100030000C942F240C942F240C9497270C942F2489
:100040000C94A3260C942F240C9471260C944B260C
:100050000C942F240C942F240C942F240C942F24D4
:100060000C942F240C942F240000000000000000AA
:1000700001000000B1000000BB0000006C010000A6
:1000800076010000DA020000ED02000051040000D9
:1000900064040000C8050000DB050000DC0500006A
:1000A000DD0500003F07000052070000B608000011
:1000B000C90800007B09000085090000360A00001D
:1000C000400A0000A40B0000B70B0000B80B0000B2
:1000D000B90B0000690C0000730C0000240D000037
:1000E000EA0D00004D0F0000610F0000C410000079
:1000F000D8100000D9100000DA1000003D150000F3
:100100006F17000070170000711700002118000021
:100110002B180000DC180000E61800004A1A000046
:100120005D1A00000F1B0000191B0000CA1B000015
:10013000D41B0000381D00004B1D00004C1D0000AA
:100140004D1D0000FD1D0000071E0000B81E000030
:10015000C21E00002620000039200000EB20000015
:10016000F5200000A6210000B021000014230000AB
:10017000272300002823000029230000D9230000A2
:10018000E3230000942400005A250000BD2600004F
:10019000D12600003428000048280000492800002B
:1001A000AB290000682D00006A2D0000CC2E000055
:1001B000DF2E0000E02E0000E12E000043300000A2
:1001C00056300000BA310000CD310000313300005C
:1001D00044330000F6330000003400000134000016
:1001E0000234000016360000323600009637000058
:1001F000A93700000D39000020390000843A0000C2
:10020000973A0000983A0000993A0000FB3B000042
:100210000E3C0000723D0000853D0000E93E0000FC
:10022000FC3E0000AE3F0000B83F0000B93F0000B8
:10023000BA3F0000CE410000EA4100004E430000FA
:10024000614300006243000063430000C5440000B6
:10025000D84400003C4600004F46000050460000D5
:1002600051460000B3470000C64700002A4900007D
:100270003D490000A14A0000B44A0000664B00005E
:10028000704B0000714B0000724B0000864D000067
:10029000A24D0000064F0000194F00007D500000E5
:1002A00090500000F4510000075200000852000076
:1002B000095200006B5300007E530000E25400001E
:1002C000F5540000A7550000B15500001457000078
:1002D00028570000295700002A570000F059000055
:1002E000165A0000175A0000185A0000795B0000E7
:1002F0008D5B00003E5C0000485C0000BF5D0000BC
:10030000BF5D0000C05D0000C15D0000235F000014
:10031000365F0000E85F0000F25F00000862000046
:1003200024620000886300009B6300009C6300005F
:100330009D630000FF640000126500007666000007
:1003400089660000ED670000006800006469000035
:10035000776900007869000079690000DB6A0000B5
:10036000EE6A0000A06B0000AA6B0000726E000035
:10037000986E0000996E00009A6E000012720000E4
:1003800041720000097500002F75000030750000F3
:100390003175000093760000A676000058770000C3
:1003A00062770000C5780000D9780000EF7A00007D
:1003B0000B7B00000C7B00000D7B00006F7C0000BD
:1003C000827C0000E67D0000F97D00005D7F00007A
:1003D000707F0000D4800000E7800000E88000000B
:1003E000998100005E820000108300001C830000E1
:1003F000D5830000398500004C850000B0860000E0
:10040000C3860000C4860000758700003A8800009B
:100410009E8900009F8C0000A18C0000038E0000CC
:10042000168E0000388F0000388F00008D8F00007E
:100430008D8F00008E8F00008F8F00003F90000096
:1004400049900000FA9000000491000068920000BA
:100450007B9200007C9200007D920000DF93000000
:10046000F293000056950000699500001B9600006D
:1004700025960000D6960000E096000092970000B6
:100480009C9700004D980000579800005898000075
:1004900059980000BB990000CE990000329B0000E3
:1004A000459B0000469B0000479B0000F79B000017
:1004B000019C0000B29C0000BC9C0000209E00003B
:1004C000339E0000349E0000359E0000979F000080
:1004D000AA9F00000EA1000021A10000D3A10000EE
:1004E000DDA100008EA2000098A20000FCA3000085
:1004F0000FA4000010A4000011A4000073A50000C8
:1005000086A50000EAA60000FDA60000FEA60000E9
:10051000FFA60000AFA70000B9A700006AA800006E
:1005200074A80000D8A90000EBA90000ECA9000005
:10053000EDA900004FAB000062AB0000C6AC0000AC
:10054000D9AC0000DAAC0000DBAC00008BAD0000E1
:1005500095AD000046AE000050AE000002AF0000B6
:100560000CAF0000BDAF0000C7AF0000C8AF000077
:100570002BB100003EB10000A2B20000B5B20000F5
:1005800019B40000A3B50000A3B50000A5B5000094
:1005900007B7000007B700001AB70000CCB700008B
:1005A000D6B7000087B8000091B80000F5B9000088
:1005B00008BA00006CBB00007FBB000080BB0000DD
:1005C00081BB0000E3BC0000F6BC00005ABE000086
:1005D0006DBE00006EBE00006FBE00001FBF0000B9
:1005E00029BF0000DABF0000E4BF000048C10000DE
:1005F0005BC100005CC100005DC10000BFC2000023
:10060000D2C2000036C4000049C40000FBC4000090
:1006100005C50000B6C50000C0C5000072C60000D8
:100620007CC600002DC7000037C7000038C7000097
:1006300039C700009BC80000AEC80000AEC800006B
:1006400012CA000012CA000025CA000026CA000013
:1006500027CA0000D7CA0000E1CA000092CB000000
:100660009CCB000000CD000013CD000014CD000095
:1006700015CD000077CE00008ACE0000EECF00003E
:1006800001D00000B3D00000BDD000006ED100004A
:1006900078D10000DCD20000EFD20000EFD20000E1
:1006A000F0D20000F1D2000053D4000053D4000077
:1006B00066D4000066D40000CAD50000CAD5000088
:1006C000DDD50000DED50000DFD500008FD60000AC
:1006D00099D600004AD7000054D70000B8D80000CF
:1006E000CBD80000CCD80000CDD800007DD90000C8
:1006F00087D9000038DA000042DA0000F4DA00009E
:10070000FEDA0000AFDB0000B9DB0000BADB00005E
:10071000BBDB00006BDC000075DC000026DD0000A8
:1007200030DD0000E2DD0000ECDD00009DDE0000B9
:10073000A7DE0000A8DE0000A9DE000059DF0000EF
:1007400063DF000014E000001EE00000D0E00000C5
:10075000DAE000008BE1000095E1000096E1000086
:1007600097E10000F9E200000CE3000070E40000F3
:1007700083E4000084E4000085E40000E7E5000075
:10078000FAE50000ACE60000B6E6000067E700000E
:1007900071E70000D5E80000E8E800004CEA00003E
:1007A0005FEA000060EA000061EA0000C3EB0000BD
:1007B000D6EB00003AED00004DED0000B1EE000078
:1007C000C4EE000028F000003BF000003CF0000008
:1007D0003DF000009FF10000B2F1000016F30000B0
:1007E00029F300008DF40000A0F4000004F60000DE
:1007F00017F6000018F6000019F600007BF700005D
:100800008EF70000F2F8000005F9000069FA000018
:100810007CFA0000E0FB0000F3FB0000F4FB0000AA
:10082000F5FB000084010100CF010100D0010100AF
:10083000D10101003303010046030100AA040100B5
:10084000BD040100210601003406010098070100E3
:10085000AB070100AC070100AD0701000F09010063
:1008600022090100860A0100990A0100FD0B01001E
:10087000100C0100740D0100870D0100880D0100AE
:10088000890D0100EB0E0100FE0E01006210010057
:1008900075100100D9110100EC1101005013010085
:1008A0006313010064130100C7140100C81701009D
:1008B000CA1701002C1901003F190100401901005D
:1008C00041190100A31A0100B61A01001A1C010007
:1008D0002D1C0100911D0100A41D0100561E0100E8
:1008E000601E0100611E0100621E010076200100F1
:1008F00092200100F6210100092201006D23010070
:1009000080230100E4240100F7240100F824010001
:10091000F92401005B2601006E260100D2270100A8
:10092000E5270100492901005C2901000E2A010088
:10093000182A0100192A01001A2A01002E2C010090
:100940004A2C0100AE2D0100C12D0100C22D010075
:10095000C32D0100252F0100382F01009C3001001C
:10096000AF300100B0300100B1300100133201009E
:10097000263201008A3301009D3301000135010058
:1009800014350100C6350100D0350100D135010014
:10099000D2350100E6370100023801006639010056
:1009A00079390100DD3A0100F03A0100543C0100C0
:1009B000673C0100683C0100693C0100CB3D01003F
:1009C000DE3D0100423F0100553F010007400100AC
:1009D000114001007441010088410100894101007A
:1009E0008A4101005044010076440100774401002F
:1009F00078440100D9450100ED4501009E46010003
:100A0000A84601001F4801001F48010020480100BE
:100A1000214801008349010096490100484A01002C
:100A2000524A0100684C0100844C0100E84D01006D
:100A3000FB4D0100FC4D0100FD4D01005F4F010029
:100A4000724F0100D6500100E95001004D520100E3
:100A500060520100C4530100D7530100D853010074
:100A6000D95301003B5501004E55010000560100CD
:100A70000A560100D2580100F8580100F958010047
:100A8000FA580100725C0100A15C0100695F01007D
:100A90008F5F0100905F0100915F0100F360010032
:100AA00006610100B8610100C26101002563010017
:100AB000396301004F6501006B6501006C65010041
:100AC0006D650100CF660100E26601004668010025
:100AD00059680100BD690100D0690100346B010053
:100AE000476B0100486B0100F96B0100BE6C01000F
:100AF000706D01007C6D0100356E0100996F010081
:100B0000AC6F01001071010023710100247101001C
:100B1000D57101009A720100FE730100FF76010099
:100B2000017701006378010076780100DA7901002D
:100B3000ED790100EE790100EF7901009F7A010063
:100B4000A97A01005A7B0100647B0100C87C010086
:100B5000DB7C0100DC7C0100DD7C01003F7E0100CC
:100B6000527E0100B67F0100C97F01007B80010039
:100B7000858001003681010040810100F281010081
:100B8000FC810100AD820100B7820100B882010042
:100B9000B98201001B8401002E84010092850100AE
:100BA000A5850100A6850100A785010057860100E3
:100BB00061860100128701001C8701008088010006
:100BC000938801009488010095880100F78901004D
:100BD0000A8A01006E8B0100818B0100338C0100B9
:100BE0003D8C0100EE8C0100F88C01005C8E010050
:100BF0006F8E0100708E0100718E0100D38F010095
:100C0000E68F01004A9101005D9101005E910100B3
:100C10005F9101000F92010019920100CA92010038
:100C2000D4920100389401004B9401004C940100CF
:100C30004D940100AF950100C29501002697010077
:100C4000399701003A9701003B970100EB970100AB
:100C5000F5970100A6980100B09801006299010083
:100C60006C9901001D9A0100279A0100289A010041
:100C70008B9B01009E9B0100029D0100159D0100C0
:100C8000799E010003A0010003A0010005A001005E
:100C900067A1010067A101007AA101002CA2010057
:100CA00036A20100E7A20100F1A2010055A4010053
:100CB00068A40100CCA50100DFA50100E0A50100AA
:100CC000E1A5010043A7010056A70100BAA8010051
:100CD000CDA80100CEA80100CFA801007FA9010086
:100CE00089A901003AAA010044AA0100A8AB0100A9
:100CF000BBAB0100BCAB0100BDAB01001FAD0100EF
:100D000032AD010096AE0100A9AE01005BAF01005B
:100D100065AF010016B0010020B00100D2B00100A3
:100D2000DCB001008DB1010097B1010098B1010064
:100D300099B10100FBB201000EB3010072B40100D1
:100D400085B4010086B4010087B4010037B5010005
:100D500041B50100F2B50100FCB5010060B701002A
:100D600073B7010074B7010075B70100D7B801006F
:100D7000EAB801004EBA010061BA010013BB0100DC
:100D80001DBB0100CEBB0100D8BB01003CBD010072
:100D90004FBD010050BD010051BD0100B3BE0100B7
:100DA000C6BE01002AC001003DC001003EC00100D6
:100DB0003FC00100EFC00100F9C00100AAC101005D
:100DC000B4C1010018C301002BC301002CC30100F2
:100DD0002DC30100DDC30100E7C3010098C4010079
:100DE000A2C4010054C501005EC501000FC6010088
:100DF00019C601001AC601001BC60100CBC60100BE
:100E0000D5C6010086C7010090C7010042C8010095
:100E10004CC80100FDC8010007C9010008C9010054
:100E200009C90100B9C90100C3C9010074CA0100A0
:100E30007ECA010030CB01003ACB0100EBCB0100B0
:100E4000F5CB0100F6CB0100F7CB010059CD010035
:100E50006CCD0100D0CE0100E3CE0100E4CE010054
:100E6000E5CE010047D001005AD001000CD10100AD
:100E700016D10100C7D10100D1D1010035D3010045
:100E800048D30100ACD40100BFD40100C0D401009C
:100E9000C1D4010023D6010036D60100E8D60100F6
:100EA000F2D60100C7D801009BDA01009CDA0100EC
:100EB0009DDA01004DDB010057DB010008DC010079
:100EC00012DC0100C4DC0100CEDC0100E4DE010024
:100ED00000DF010064E0010077E0010078E001003C
:100EE00079E0010033E1010033E1010096E2010005
:100EF000AAE201000DE4010021E4010084E5010003
:100F000098E5010054E6010055E60100FBE601000A
:100F10000FE70100C0E70100CAE701007CE801001B
:100F200086E8010037E9010041E90100F3E9010029
:100F3000FDE90100AEEA0100B8EA01006AEB010038
:100F400074EB010025EC01002FEC010030EC0100F6
:100F500031EC010093ED0100A6ED010058EE010017
:100F600062EE010037F001000BF201000CF201000B
:100F70000DF20100BDF20100C7F2010078F301009B
:100F800082F3010034F401003EF4010054F6010044
:100F900070F60100D4F70100E7F70100E8F701005F
:100FA000E9F7010099F80100A3F8010006FA010031
:100FB0001AFA01007DFB010091FB010008FD010010
:100FC000C3FD0100C4FD0100C5FD010075FE010067
:100FD0007FFE010030FF01003AFF0100ECFF01003D
:100FE000F6FF0100A7000200B10002006301020049
:100FF0006D0102001E02020028020200DA02020055
:10100000E4020200950302009F030200A003020015
:10101000A1030200510402005B0402000C0502005F
:1010200016050200C8050200D20502008306020070
:101030008D0602003F07020049070200FA0702007E
:1010400004080200B6080200C0080200710902008C
:101050007B0902007C0902007D0902002D0A0200C2
:10106000370A0200E80A0200F20A0200A40B02009A
:10107000AE0B02005F0C0200690C02001B0D0200A7
:10108000250D0200D60D0200E00D0200920E0200B6
:101090009C0E02004D0F0200570F0200580F020075
:1010A000590F02000910020013100200761102000D
:1010B0008A110200ED120200011302006414020002
:1010C00078140200791402007A1402008E160200CD
:1010D000AA1602000E18020021180200851902004B
:1010E00098190200FC1A02000F1B0200101B0200DC
:1010F000111B0200C11B0200CB1B02007C1C020062
:10110000861C0200381D0200421D0200F31D020071
:10111000FD1D0200AF1E0200B91E02006A1F020080
:10112000741F02002620020030200200E12002008D
:10113000EB200200EC200200ED2002009D210200C5
:10114000A72102005822020062220200142302009A
:101150001E230200CF230200D92302008B240200A9
:1011600095240200462502005025020002260200B6
:101170000C260200BD260200C7260200C826020077
:10118000C92602007927020083270200992902005C
:10119000B5290200672A0200712A0200D42B02003E
:1011A000E82B0200E92B0200EA2B0200B02E02001D
:1011B000D62E0200D72E0200D82E020039300200AF
:1011C0004D300200FE300200083102007F32020082
:1011D0007F3202008032020081320200E3330200DB
:1011E000F6330200A8340200B2340200C83602000E
:1011F000E4360200483802005B3802005C38020026
:101200005D380200BF390200D2390200363B0200CD
:10121000493B0200AD3C0200C03C0200243E0200FB
:10122000373E0200383E0200393E02009B3F02007A
:10123000AE3F0200604002006A40020032430200FA
:1012400058430200594302005A430200D2460200AA
:1012500001470200C9490200EF490200F0490200BB
:10126000F1490200534B0200664B0200184C020089
:10127000224C0200854D0200994D0200AF4F020042
:10128000CB4F0200CC4F0200CD4F02002F51020085
:1012900042510200A6520200B95202001D5402003F
:1012A0003054020094550200A7550200A8550200D0
:1012B000595602001E570200D0570200DC570200A8
:1012C00095580200F95902000C5A0200705B0200A6
:1012D000835B0200845B0200355C0200FA5C020062
:1012E0005E5E02005F61020061610200C362020093
:1012F000D66202003A6402004D6402004E640200AD
:101300004F640200FF64020009650200BA65020032
:10131000C4650200286702003B6702003C670200C8
:101320003D670200ED670200F7670200A86802004F
:10133000B2680200646902006E6902001F6A02005E
:10134000296A0200DB6A0200E56A0200966B02006D
:10135000A06B0200526C02005C6C02000D6D02007A
:10136000176D0200186D0200196D02007B6E0200FD
:101370008E6E0200F26F020005700200067002001D
:1013800007700200B7700200C170020072710200A3
:101390007C710200E0720200F3720200F47202003B
:1013A000F5720200A5730200AF73020060740200C0
:1013B0006A7402001C75020026750200D7750200CF
:1013C000E1750200937602009D7602004E770200DE
:1013D000587702000A78020014780200C5780200EB
:1013E000CF780200D0780200D1780200337A020070
:1013F000467A0200AA7B0200BD7B0200BE7B02008F
:10140000BF7B02006F7C0200797C02002A7D020013
:10141000347D0200987E0200AB7E0200AC7E0200AA
:10142000AD7E02000F800200228002008681020051
:10143000998102009A8102009B8102004B82020086
:10144000558202000683020010830200C28302005C
:10145000CC8302007D84020087840200888402001D
:10146000EB850200FE85020062870200758702009C
:10147000D9880200638A0200658A0200C78B0200D5
:10148000DA8B0200DA8B02008C8C02008C8C02005A
:10149000968C0200478D0200518D0200B58E02002D
:1014A000C88E02002C9002003F9002004090020083
:1014B00041900200A3910200B69102001A9302002B
:1014C0002D9302002E9302002F930200DF9302005F
:1014D000E99302009A940200A49402000896020084
:1014E0001B9602001C9602001D960200CD9602007B
:1014F000D796020088970200929702004498020053
:101500004E980200FF98020009990200BB99020060
:10151000C5990200769A0200809A0200329B02006E
:101520003C9B0200ED9B0200F79B0200F89B02002F
:10153000F99B02005B9D02006E9D0200D29E02009C
:10154000E59E0200E69E0200E79E0200979F0200D1
:10155000A19F020052A002005CA00200C0A10200F4
:10156000D3A10200D4A10200D5A1020085A20200ED
:101570008FA2020040A302004AA30200FCA30200C3
:1015800006A40200B7A40200C1A4020073A50200D1
:101590007DA502002EA6020038A60200EAA60200DF
:1015A000F4A60200A5A70200AFA70200B0A70200A0
:1015B000B1A7020013A9020026A902008AAA02000C
:1015C0009DAA02009EAA02009FAA02004FAB020041
:1015D00059AB02000AAC020014AC020078AD020064
:1015E0008BAD02008CAD02008DAD02003DAE02005D
:1015F00047AE0200F8AE020002AF0200B4AF020034
:10160000BEAF02006FB0020079B002007AB00200F3
:101610007BB002002BB1020035B10200E6B102003E
:10162000F0B10200A2B20200ACB202005DB302004F
:1016300067B3020068B3020069B3020019B4020084
:1016400023B40200D4B40200DEB4020090B502005C
:101650009AB502004BB6020055B6020056B602001B
:1016600057B60200B9B70200CCB7020030B9020089
:1016700043B9020044B9020045B90200A7BA02000A
:10168000BABA02006CBB020076BB020027BC0200A3
:1016900031BC020095BD0200A8BD02000CBF0200D3
:1016A0001FBF020020BF020021BF020083C0020052
:1016B00096C00200FAC102000DC2020071C302000E
:1016C00084C30200E8C40200FBC40200FCC40200A0
:1016D000FDC402005FC6020072C60200D6C7020047
:1016E000E9C702004DC9020060C90200C4CA020075
:1016F000D7CA0200D8CA0200D9CA02003BCC0200F5
:101700004ECC0200B2CD0200C5CD020029CF0200AE
:101710003CCF0200A0D00200B3D00200B4D002003F
:10172000B5D0020017D202002AD202008ED30200E6
:10173000A1D3020053D402005DD402000ED50200F2
:1017400018D50200CAD50200D4D5020085D6020001
:101750008FD6020090D6020091D60200F3D7020085
:1017600006D802006AD902007DD90200E1DA02003F
:10177000F4DA020058DC02006BDC02006CDC0200D0
:101780006DDC0200CFDD0200E2DD020046DF020078
:1017900059DF0200BDE00200D0E0020034E20200A6
:1017A00047E2020048E2020049E20200ABE3020025
:1017B000BEE3020022E5020035E5020099E60200E0
:1017C000ACE6020010E8020023E8020024E8020070
:1017D00087E9020088EC02008AEC0200ECED0200CE
:1017E000FFED020000EE020021F902000000E90016
:1017F000E90000005D0100004B020000E90000006C
:101800004B02000005010501050100006E02000009
:1018100005010000870100006E020000370137015A
:1018200037010000D20100004B0200004B02000013
:101830000B020B020B020000740074007400000025
:10184000AE0000002501000074000000AE000000A2
:10185000250100008200820082000000C300000019
:101860003701000082000000C300000037010000C3
:101870009B009B009B000000E90000002501000088
:101880002501000005010501000057005700000078
:101890007400740074000000250100007400000052
:1018A000250100005700570057000000DC00000031
:1018B00057000000DC0000006100610061000000D2
:1018C000E900000061000000E90000005700570037
:1018D00057000000CF000000740074007400000086
:1018E000CF0000009B009B009B0000003701000020
:1018F0009B0000003701000092009200920000005F
:1019000025010000920000002501000082008200F5
:101910008200000005010000820000009B00000022
:10192000AE00AE00AE000000AE00AE00AE000000A3
:10193000AE0000003701000092009200920000000B
:1019400092000000DC000000DC0000008200820049
:101950008200000082000000C3000000AE00000012
:101960007B007B007B0000003D0000007B0000004E
:101970007400740074000000E900000092009200FE
:101980009200000092000000DC000000DC0000007B
:101990006100610061000000610000009200000031
:1019A000C3000000820082000000820000000000EE
:1019B0008200000082000000AE00AE000000AE0019
:1019C00000004D004D000000AE000000AE00000021
:1019D000570057005700000082000000DC000000A4
:1019E0007400740074000000AE0000007400000079
:1019F000AE00000005010000AE0000004D004D00EB
:101A00004D000000AE0000005700570057000000D6
:101A100082000000DC00000074007400740000000C
:101A2000AE00000005010000E9000000CF0000004A
:101A30004D004D004D000000AE0000005700570063
:101A40005700000082000000DC000000490049004F
:101A50004900000092000000610061006100000088
:101A600092000000C300000092000000820082008B
:101A70000000820000009B0000003A007400740027
:101A800000000000E9000000740000003A000000BF
:101A9000740000004D004D004D000000AE0000003D
:101AA000570057005700000082000000DC000000D3
:101AB0007400740074000000AE00000074000000A8
:101AC000AE00000005010000AE0000004D004D001A
:101AD0004D0000007400AE000000000057005700E9
:101AE0005700000082000000DC0000007400740059
:101AF00074000000AE00000005010000E9000000D5
:101B0000CF0000004D009B009B009B0000000000E8
:101B10007400C30000000000570057005700000089
:101B200082000000DC00000049004900490000007C
:101B30006E000000920000006E0000006100610075
:101B40006100000092000000C3000000920000004D
:101B50004100410041000000610000009B000000C6
:101B6000610000009B009B009B0000009B000000A8
:101B70007400740074000000E900000074000000AC
:101B80003A0000007400000074007400740000004B
:101B9000E900000074000000E900000082008200FB
:101BA0008200000005010000820000000501000025
:101BB0009B009B009B000000E90000009B000000D0
:101BC000E9000000AE00AE00AE000000740074003A
:101BD00074000000E900000074000000E90000004B
:101BE00082008200820000000501000082000000E7
:101BF000050100009B009B009B000000E900000025
:101C00009B000000E9000000AE00AE00000057009D
:101C100057000000740074007400000025010000EB
:101C20007400000025010000570057005700000015
:101C3000DC00000057000000DC00000061006100D3
:101C400061000000E900000061000000E900000000
:101C50005700570057000000CF00000074007400C8
:101C600074000000CF0000009B009B009B00000060
:101C7000370100009B000000370100009200920035
:101C800092000000250100009200000025010000E4
:101C90008200820082000000050100008200000036
:101CA0009B000000AE00AE00AE000000AE00AE0033
:101CB000AE000000AE00000037010000920092006C
:101CC0009200000092000000DC000000DC00000038
:101CD000820082008200000082000000C300000039
:101CE000AE0000007B007B007B0000003D00000098
:101CF0007B0000007400740074000000E900000024
:101D0000920092009200000092000000DC000000AF
:101D1000DC00000061006100610000006100000063
:101D200092000000C30000008200820000008200D8
:101D3000000000008200000082000000AE00AE0043
:101D40000000AE0000004D004D000000AE0000009D
:101D5000570057005700000082000000DC00000020
:101D60007400740074000000AE00000074000000F5
:101D7000AE00000005010000AE0000004D004D0067
:101D80004D000000AE000000570057005700000053
:101D900082000000DC000000740074007400000089
:101DA000AE00000005010000E9000000CF000000C7
:101DB0004D004D004D000000AE00000057005700E0
:101DC0005700000082000000DC00000049004900CC
:101DD0004900000092000000610061006100000005
:101DE00092000000C3000000920000008200820008
:101DF0000000820000009B0000003A0074007400A4
:101E000000000000E9000000740000003A0000003B
:101E1000740000004D004D004D000000AE000000B9
:101E2000570057005700000082000000DC0000004F
:101E30007400740074000000AE0000007400000024
:101E4000AE00000005010000AE0000004D004D0096
:101E50004D000000AE000000570057005700000082
:101E600082000000DC0000007400740074000000B8
:101E7000AE00000005010000E9000000CF000000F6
:101E80009B009B009B000000C30000005700570010
:101E90005700000082000000DC00000049004900FB
:101EA000490000006E000000920000006E0000007B
:101EB000610061006100000092000000C3000000AA
:101EC000920000004100410041000000610000005C
:101ED0009B000000610000009B009B009B00000035
:101EE0009B0000007400740074000000E900000012
:101EF000740000003A00000074000000D201D2011A
:101F0000D2010000BA020000A40300000B020B0281
:101F10000B020000BA020000BA020000A403000095
:101F20000F030000A403A403A40300009604000010
:101F30009604000096040000BA02BA02BA02000039
:101F4000370100005D010000D20100004B020000DB
:101F50000B020000D20100000B0200005D015D01D8
:101F60005D0100005D010000D201000005010501D6
:101F7000050100005D0100005D010000D2010000CC
:101F800087010000D201D201D20100004B02000003
:101F90004B0200004B0200005D015D015D0100008D
:101FA0009B000000AE000000E900000025010000D9
:101FB00005010000E9000000050100007400740044
:101FC00074000000AE000000E9000000AE00000058
:101FD00005010000AE000000E9000000AE000000B6
:101FE0008200820082000000C3000000E9000000BF
:101FF000C300000005010000C3000000E90000006C
:10200000C30000009B009B009B000000E900000053
:10201000250100002501000057005700570000006F
:1020200082000000AE000000820000007400740016
:1020300074000000AE000000E9000000AE000000E7
:1020400005010000AE000000E9000000AE00000045
:102050008200820082000000C3000000E90000004E
:10206000C300000005010000C3000000E9000000FB
:10207000C30000009B009B009B000000E9000000E3
:102080009B0000009B000000AE00AE00AE00000010
:10209000AE00AE00AE000000AE0000003701000050
:1020A000920092009200000092000000DC0000000C
:1020B000DC0000008200820082000000820000003C
:1020C000C3000000AE0000007B007B007B0000002E
:1020D0003D0000007B0000007400740074000000EC
:1020E000E9000000920092009200000092000000BF
:1020F000DC000000DC000000610061006100000005
:102100006100000092000000C30000008200820015
:102110000000820000000000820000008200000039
:10212000AE00AE000000AE0000009B009B0000006F
:10213000AE0000005700570057000000820000006A
:10214000DC0000007400740074000000AE000000A9
:10215000E9000000AE00000005010000AE00000034
:10216000E9000000AE0000009B009B009B00000007
:10217000AE0000005700570057000000820000002A
:10218000DC0000007400740074000000AE00000069
:10219000E9000000AE00000005010000AE000000F4
:1021A000CF000000AE0000009B009B009B000000E1
:1021B000AE000000570057005700000082000000EA
:1021C000DC000000490049004900000092000000C6
:1021D000610061006100000092000000C300000087
:1021E00092000000820082000000820000009B003C
:1021F0000000740074000000AE00E9000000000060
:10220000740000003A000000740000009B009B0076
:102210009B000000AE000000570057005700000070
:1022200082000000DC0000007400740074000000F4
:10223000AE000000E9000000AE0000000501000053
:10224000AE000000E9000000AE0000009B009B0013
:102250009B000000AE000000570057005700000030
:1022600082000000DC0000007400740074000000B4
:10227000AE000000E9000000AE0000000501000013
:10228000AE000000CF000000AE0000009B009B00ED
:102290009B000000C30000005700570057000000DB
:1022A00082000000DC0000004900490049000000F5
:1022B0006E000000920000006E00000061006100EE
:1022C0006100000092000000C300000092000000C6
:1022D0004100410041000000610000009B0000003F
:1022E000610000009B009B009B0000009B00000021
:1022F0007400740074000000E90000007400000025
:102300003A000000740000007400740074000000C3
:10231000E900000074000000E90000008200820073
:10232000820000000501000082000000050100009D
:102330009B009B009B000000E90000009B00000048
:10234000E9000000AE00AE00AE0000000501000094
:10235000AE00000005010000E9000000DC00000004
:102360007400740074000000E900000074000000B4
:10237000E9000000820082008200000005010000E8
:1023800082000000050100009B009B009B000000F4
:10239000E90000009B000000E9000000AE00AE0074
:1023A0000000570057000000740074000000000097
:1023B000000000000000000000000000000000001D
:1023C0000000000000000000000063010000760132
:1023D00000002802000032020000E3020000ED02CB
:1023E0000000F803000007040000110500002005AC
:1023F000000083060000970600004807000052070F
:102400000000040800000E080000BF080000C90812
:1024100000002D0A0000400A0000A40B0000B70BCA
:1024200000001B0D00002E0D0000920E0000A50EF6
:102430000000BB100000D8100000D81000003B12B4
:1024400000003B1200004F120000001300000A13AE
:102450000000C6130000C6130000771400008114AA
:102460000000331500003D150000F8150000F815B8
:102470000000AA160000B4160000651700006F17D0
:102480000000D3180000E618000098190000A219F7
:102490000000531A00005D1A0000681B0000771B43
:1024A0000000811C0000901C0000F31D0000071EAE
:1024B0000000B81E0000C21E0000741F00007E1F36
:1024C00000002F200000392000009D210000B021D5
:1024D000000014230000272300008B2400009E240A
:1024E000000002260000152600002B2800004828C6
:1024F0000000AB2900007A2A0000D72A0000362B02
:102500000000932B0000F12B00004E2C0000AD2C9E
:1025100000000A2D0000682D0000CC2E0000DF2EE8
:102520000000912F00009B2F00004C30000056301F
:1025300000000831000012310000C3310000CD312D
:1025400000007F32000089320000EC3300000034CC
:102550000000633500007735000028360000323671
:102560000000E4360000EE3600009F370000A93777
:1025700000005B38000065380000C8390000DC3915
:102580000000973A0000973A0000493B0000533B97
:102590000000B63C0000CA3C00007B3D0000853DC9
:1025A0000000373E0000413E0000A43F0000B83F5D
:1025B00000001B4100002F410000E0410000EA4103
:1025C00000009C420000A642000057430000614307
:1025D0000000C5440000D84400003C4600004F46BF
:1025E0000000014700000B470000BC470000C64741
:1025F00000007848000082480000334900003D494F
:102600000000EF490000F94900005C4B0000704BEE
:102610000000D34C0000E74C0000984D0000A24D94
:102620000000064F0000194F0000CB4F0000D54FAF
:102630000000385100004C510000FD5100000752CD
:102640000000B9520000C3520000265400003A5462
:102650000000EB540000F5540000A7550000B155F0
:10266000000014570000285700008B5800009F58A6
:102670000000505900005A5900000C5A0000165A28
:1026800000002C5C0000485C0000535C0000555CBE
:102690000000605C0000625C00006D5C0000705C2B
:1026A00000007A5C00007D5C0000885C00008A5CB1
:1026B0000000955C0000975C0000A25C0000A55C37
:1026C0000000B05C0000B25C0000BD5C0000BF5CBC
:1026D0000000CA5C0000CD5C0000D75C0000DA5C42
:1026E0000000E55C0000E85C0000F35C0000F45CC6
:1026F0000000FF5C0000025D00000D5D00000F5D4A
:1027000000001A5D00001C5D0000275D0000295DCF
:102710000000345D0000375D0000425D0000445D54
:1027200000004F5D0000515D00005C5D00005F5DDA
:1027300000006A5D00006C5D0000775D0000795D5F
:102740000000845D0000875D0000925D0000945DE4
:1027500000009F5D0000A15D0000BC5D0000BF5D4A
:10276000000087600000AD6000005F6100006961EB
:1027700000001A62000024620000D6620000E062DD
:102780000000436400005764000008650000126503
:102790000000C4650000CE6500007F660000896609
:1027A00000003B67000045670000F6670000006816
:1027B000000064690000776900003F6C0000656CF0
:1027C0000000176D0000216D0000D26D0000DC6D6F
:1027D00000008E6E0000986E0000FB6F00000F700E
:1027E0000000C0700000CA7000007C71000086719B
:1027F00000003772000041720000F3720000FD72A9
:102800000000AE730000B87300001C7500002F7547
:10281000000093760000A67600000A7800001D787C
:1028200000008179000094790000467A0000507A17
:102830000000B37B0000C77B0000787C0000827C36
:102840000000347D00003E7D0000EF7D0000F97D3A
:102850000000AB7E0000B57E0000667F0000707F48
:102860000000D4800000E7800000138500004C8544
:102870000000B0860000C386000027880000B189F0
:102880000000638A00006D8A00001E8B0000288B08
:102890000000DA8B0000E48B0000958C00009F8C18
:1028A0000000038E0000168E0000C88E0000D28E3D
:1028B0000000838F00008D8F000098900000A7908B
:1028C0000000B1910000C0910000719200007B9265
:1028D0000000DF930000F2930000A4940000AE9487
:1028E00000005F950000699500001B96000025968A
:1028F00000003B98000057980000BB990000CE995B
:102900000000809A00008A9A00003B9B0000459BD3
:102910000000509C00005F9C0000699D0000789DB5
:102920000000299E0000339E0000979F000098A29F
:1029300000004AA3000054A3000005A400000FA457
:102940000000C1A40000CBA4000045A8000074A8AA
:10295000000026A9000030A90000E1A90000EBA9B1
:1029600000009DAA0000A7AA000058AB000062ABBF
:10297000000014AC00001EAC0000CFAC0000D9ACCD
:1029800000003DAE000050AE000002AF00000CAFF2
:102990000000BDAF0000C7AF00008FB2000071B3F0
:1029A000000022B400002CB40000DEB40000E8B443
:1029B000000062B8000091B8000043B900004DB9B2
:1029C0000000FEB9000008BA0000BABA0000C4BA9C
:1029D000000075BB00007FBB0000E3BC0000F6BC3C
:1029E0000000A8BD0000B2BD000063BE00006DBEC7
:1029F000000078BF000087BF000091C00000A0C0A9
:102A0000000051C100005BC10000BFC20000D2C283
:102A1000000084C300008EC300003FC4000049C40E
:102A20000000FBC4000005C500001BC7000037C73D
:102A300000009BC80000AEC8000060C900006AC961
:102A400000001BCA000025CA000030CB00003FCBAD
:102A5000000049CC000058CC000009CD000013CD87
:102A6000000077CE00008ACE00003CCF000046CFA9
:102A70000000F7CF000078D100002AD2000034D245
:102A80000000E5D20000EFD200001BD7000054D7B1
:102A9000000006D8000010D80000C1D80000CBD834
:102AA00000007DD9000087D9000038DA000042DA42
:102AB0000000F4DA0000FEDA0000AFDB0000B9DB52
:102AC00000001DDD000030DD0000E2DD0000ECDD77
:102AD00000009DDE0000A7DE00006FE1000095E130
:102AE000000051E2000051E2000002E300000CE3AC
:102AF0000000BEE30000C8E3000042E7000071E709
:102B0000000023E800002DE80000DEE80000E8E80F
:102B100000009AE90000A4E9000055EA00005FEA1D
:102B20000000C3EB0000D6EB000088EC000092EC44
:102B3000000043ED00004DED000058EE000067EE90
:102B4000000071EF000080EF0000E3F00000F7F0FC
:102B50000000A8F10000B2F1000064F200006EF283
:102B600000001FF3000029F300008DF40000A0F422
:102B7000000004F6000017F60000C9F60000D3F6C6
:102B8000000084F700008EF7000040F800004AF8CB
:102B90000000FBF8000005F90000B7F90000C1F9DA
:102BA000000072FA000038FB00009BFC0000AFFC44
:102BB000000060FD00006AFD00001CFE000026FE13
:102BC0000000D7FE0000E1FE000093FF00009DFF23
:102BD00000004E000100580001000A01010014012C
:102BE0000100C5010100CF010100330301004603CC
:102BF0000100F803010002040100B3040100BD0458
:102C00000100C8050100D7050100E1060100F0063A
:102C1000010053080100670801001809010022099A
:102C20000100D4090100DE0901008F0A0100990AA0
:102C30000100FD0B0100100C0100740D0100870D57
:102C40000100390E0100430E0100F40E0100FE0EDA
:102C50000100B00F0100BA0F01006B1001007510E8
:102C600001002711010031110100E2110100A81239
:102C700001000B140100DA1401003715010096154C
:102C80000100F315010051160100AE1601000D17E9
:102C900001006A170100C81701002C1901003F1933
:102CA0000100F1190100FB190100AC1A0100B61A6C
:102CB0000100681B0100721B0100231C01002D1C78
:102CC0000100DF1C0100E91C01004C1E0100601E18
:102CD0000100C31F0100D71F0100882001009220BE
:102CE0000100442101004E210100FF2101000922C1
:102CF0000100BB220100C5220100282401003C2460
:102D00000100F7240100F7240100A9250100B325E3
:102D10000100162701002A270100DB270100E52713
:102D2000010097280100A1280100042A0100182AA7
:102D300001007B2B01008F2B0100402C01004A2C4D
:102D40000100FC2C0100062D0100B72D0100C12D52
:102D50000100252F0100382F01009C300100AF3009
:102D60000100613101006B3101001C32010026328B
:102D70000100D8320100E2320100933301009D339B
:102D800001004F34010059340100BC350100D03539
:102D900001003337010047370100F83701000238DE
:102DA000010066390100793901002B3A0100353AFA
:102DB0000100983B0100AC3B01005D3C0100673C19
:102DC0000100193D0100233D0100863E01009A3EAD
:102DD00001004B3F0100553F010007400100114039
:102DE00001007441010088410100EB420100FF42F3
:102DF0000100B0430100BA4301006C440100764475
:102E000001008C460100A8460100B3460100B5460A
:102E10000100C0460100C2460100CD460100D04677
:102E20000100DA460100DD460100E8460100EA46FD
:102E30000100F5460100F746010002470100054781
:102E4000010010470100124701001D4701001F4704
:102E500001002A4701002D470100374701003A478A
:102E6000010045470100484701005347010054470E
:102E700001005F470100624701006D4701006F4795
:102E800001007A4701007C4701008747010089471C
:102E900001009447010097470100A2470100A447A1
:102EA0000100AF470100B1470100BC470100BF4727
:102EB0000100CA470100CC470100D7470100D947AC
:102EC0000100E4470100E7470100F2470100F44731
:102ED0000100FF470100014801001C4801001F4894
:102EE0000100E74A01000D4B0100BF4B0100C94B37
:102EF00001007A4C0100844C0100364D0100404D28
:102F00000100A34E0100B74E0100684F0100724F4F
:102F10000100245001002E500100DF500100E95053
:102F200001009B510100A551010056520100605261
:102F30000100C4530100D75301009F560100C5563C
:102F400001007757010081570100325801003C58B9
:102F50000100EE580100F85801005B5A01006F5A59
:102F60000100205B01002A5B0100DC5B0100E65BE5
:102F70000100975C0100A15C0100535D01005D5DF3
:102F800001000E5E0100185E01007C5F01008F5F92
:102F90000100F3600100066101006A6201007D62C8
:102FA0000100E1630100F4630100A6640100B06464
:102FB00001001366010027660100D8660100E26681
:102FC0000100946701009E6701004F680100596885
:102FD00001000B69010015690100C6690100D06993
:102FE0000100346B0100476B0100736F0100AC6F8F
:102FF000010010710100237101008772010011743A
:103000000100C3740100CD7401007E750100887554
:1030100001003A76010044760100F5760100FF7662
:103020000100637801007678010028790100327987
:103030000100E3790100ED790100F87A0100077BD6
:103040000100117C0100207C0100D17C0100DB7CAF
:1030500001003F7E0100527E0100047F01000E7FCF
:103060000100BF7F0100C97F01007B8001008580D6
:1030700001009B820100B78201001B8401002E84A5
:103080000100E0840100EA8401009B850100A58520
:103090000100B0860100BF860100C9870100D88702
:1030A00001008988010093880100F78901000A8ADC
:1030B0000100BC8A0100C68A0100778B0100F88CF0
:1030C0000100AA8D0100B48D0100658E01006F8E94
:1030D0000100218F01002B8F0100A5920100D492E5
:1030E00001008693010090930100419401004B94EC
:1030F0000100FD94010007950100B8950100C295FB
:103100000100749601007E9601002F970100399707
:1031100001009D980100B0980100629901006C992E
:1031200001001D9A0100279A0100EF9C0100159DE6
:103130000100D19D0100D19D0100829E01008C9E65
:1031400001003E9F0100489F0100C2A20100F1A2C0
:103150000100A3A30100ADA301005EA4010068A4C7
:1031600001001AA5010024A50100D5A50100DFA5D5
:10317000010043A7010056A7010008A8010012A8FA
:103180000100C3A80100CDA80100D8A90100E7A94A
:103190000100F1AA010000AB0100B1AB0100BBAB23
:1031A00001001FAD010032AD0100E4AD0100EEAD44
:1031B00001009FAE0100A9AE01005BAF010065AF49
:1031C00001007BB1010097B10100FBB201000EB319
:1031D0000100C0B30100CAB301007BB4010085B493
:1031E000010090B501009FB50100A9B60100B8B675
:1031F000010069B7010073B70100D7B80100EAB850
:1032000001009CB90100A6B9010057BA0100D8BB62
:1032100001008ABC010094BC010045BD01004FBD06
:1032200001007BC10100B4C1010066C2010070C28F
:10323000010021C301002BC30100DDC30100E7C36E
:10324000010098C40100A2C4010054C501005EC57C
:1032500001000FC6010019C601007DC7010090C71B
:10326000010042C801004CC80100FDC8010007C9A7
:103270000100CFCB0100F5CB0100B1CC0100B1CCF6
:10328000010062CD01006CCD01001ECE010028CEF0
:103290000100A2D10100D1D1010083D201008DD261
:1032A00001003ED3010048D30100FAD3010004D449
:1032B0000100B5D40100BFD4010023D6010036D6E9
:1032C00001009AD70100ADD70100B8D80100C7D8D6
:1032D000010024D9010024D90100D6D90100E0D988
:1032E0000100F6DB010012DC010076DD010089DD62
:1032F0000100EDDE010000DF0100C8E10100EEE1A8
:10330000010052E3010065E301007BE5010098E55F
:103310000100FBE601000FE70100C0E70100CAE77A
:1033200001007CE8010086E8010037E9010041E97D
:103330000100F3E90100FDE90100AEEA0100B8EA8D
:1033400001006AEB010074EB010025EC0100A6ED21
:1033500001000AEF01001DEF010028F0010037F025
:10336000010094F0010094F0010046F1010050F1D9
:10337000010066F3010082F30100E6F40100F9F4B4
:1033800001005DF6010070F6010038F901005EF9F8
:103390000100C2FA0100D5FA0100EBFC010008FDB2
:1033A00001006BFE01007FFE010030FF01003AFFCB
:1033B0000100ECFF0100F6FF0100A7000200B100D0
:1033C0000200630102006D0102001E0202002802D9
:1033D0000200DA020200E4020200950302009F03E9
:1033E00002000305020016050200C8050200D2050E
:1033F0000200830602008D06020098070200A7075C
:103400000200B1080200C0080200230A0200370AC5
:103410000200E80A0200F20A0200A40B0200AE0B4E
:1034200002005F0C0200690C0200CD0D0200E00DED
:103430000200440F0200570F0200BB100200CE1022
:10344000020032120200451202005B1402007814DE
:103450000200DB150200EF150200A0160200AA16FA
:1034600002005C17020066170200171802002118FC
:103470000200D3180200DD1802008E19020098190C
:1034800002004A1A0200541A0200051B02000F1B18
:103490000200731C0200861C0200381D0200421D3F
:1034A0000200F31D0200FD1D0200081F0200171F8D
:1034B0000200212002003020020093210200A721F7
:1034C00002005822020062220200142302001E237E
:1034D0000200CF230200D92302003D25020050251F
:1034E0000200B4260200C72602002B2802003E2854
:1034F0000200F0280200FA280200AB290200B529D8
:103500000200672A0200712A0200D42B0200E82B75
:1035100002004B2D02005F2D0200102E02001A2E19
:103520000200CC2E0200D62E0200EC300200083140
:103530000200133102001531020020310200223155
:1035400002002D310200303102003A3102003D31DB
:103550000200483102004A31020055310200573161
:1035600002006231020065310200703102007231E6
:1035700002007D3102007F3102008A3102008D316C
:103580000200973102009A310200A5310200A831F1
:103590000200B3310200B4310200BF310200C23177
:1035A0000200CD310200CF310200DA310200DC31FD
:1035B0000200E7310200E9310200F4310200F73184
:1035C000020002320200043202000F320200113205
:1035D00002001C3202001F3202002A3202002C328A
:1035E0000200373202003932020044320200473210
:1035F000020052320200543202005F320200613295
:1036000002007C3202007F320200473502006D3535
:1036100002001F36020029360200DA360200E436C4
:10362000020096370200A037020003390200173962
:103630000200C8390200D2390200843A02008E3AF0
:1036400002003F3B0200493B0200FB3B0200053CFD
:103650000200B63C0200C03C0200243E0200373E9D
:103660000200FF40020025410200D7410200E14173
:103670000200924202009C4202004E430200584364
:103680000200BB440200CF440200804502008A458C
:1036900002003C46020046460200F746020001478F
:1036A0000200B3470200BD4702006E48020078489E
:1036B0000200DC490200EF490200534B0200664B56
:1036C0000200CA4C0200DD4C0200414E0200544E82
:1036D0000200064F0200104F020073500200875094
:1036E00002003851020042510200F4510200FE5122
:1036F0000200AF520200B95202006B530200755330
:103700000200265402003054020094550200A755CE
:103710000200D35902000C5A0200705B0200835B66
:103720000200E75C0200715E0200235F02002D5F71
:103730000200DE5F0200E85F02009A600200A460FF
:103740000200556102005F610200C3620200D6629E
:1037500002008863020092630200436402004D6429
:10376000020058650200676502007166020080660B
:103770000200316702003B6702009F680200B268E6
:103780000200646902006E6902001F6A0200296A71
:103790000200DB6A0200E56A0200966B0200A06B81
:1037A0000200526C02005C6C02000D6D0200176D8D
:1037B00002007B6E02008E6E0200406F02004A6FB4
:1037C0000200FB6F020005700200107102001F7101
:1037D00002002972020038720200E9720200F372DC
:1037E0000200577402006A7402001C7502002675FC
:1037F0000200D7750200E175020045770200587794
:1038000002000A78020014780200C5780200CF781E
:103810000200817902008B790200057D0200347D6F
:103820000200E67D0200F07D0200A17E0200AB7E78
:1038300002005D7F0200677F020018800200228084
:103840000200D4800200DE8002008F810200998194
:103850000200FD82020010830200C2830200CC83BA
:1038600002007D840200878402004F870200758772
:1038700002003188020031880200E2880200EC88F0
:1038800002009E890200A8890200228D0200518D4B
:103890000200038E02000D8E0200BE8E0200C88E52
:1038A00002007A8F0200848F0200359002003F9060
:1038B0000200A3910200B691020068920200729287
:1038C0000200239302002D930200389402004794D3
:1038D00002005195020060950200119602001B96AD
:1038E00002007F97020092970200449802004E98CF
:1038F0000200FF98020009990200BB990200C599D5
:103900000200769A0200809A0200329B02003C9BE1
:103910000200ED9B0200F79B02005B9D02006E9D82
:103920000200209E02002A9E0200DB9E0200E59E0D
:103930000200F09F0200FF9F020009A1020018A1EF
:103940000200C9A10200D3A1020037A302004AA3CA
:103950000200FCA3020006A40200B7A40200C1A456
:10396000020025A6020038A60200EAA60200F4A67C
:103970000200A5A70200AFA70200DBAB020014AC57
:103980000200C6AC0200D0AC020081AD02008BADDB
:1039900002003DAE020047AE0200F8AE020002AFE8
:1039A0000200B4AF0200BEAF02006FB0020079B0F7
:1039B0000200DDB10200F0B10200A2B20200ACB21E
:1039C00002005DB3020067B302002FB6020055B6D5
:1039D000020011B7020011B70200C2B70200CCB753
:1039E00002007EB8020088B8020002BC020031BCAE
:1039F0000200E3BC0200EDBC02009EBD0200A8BDB7
:103A000002005ABE020064BE020015BF02001FBFC2
:103A1000020083C0020096C0020048C1020052C1E9
:103A2000020003C202000DC202000DC2020018C350
:103A3000020018C3020027C3020031C40200B7C548
:103A4000020068C6020072C6020024C702002EC728
:103A50000200DFC70200E9C702009BC80200A5C838
:103A6000020056C9020060C9020060C9020012CA01
:103A7000020012CA02001CCA0200D7CA0200D7CA3A
:103A8000020089CB020093CB020044CC02004ECC52
:103A9000020000CD02000ACD0200BBCD0200C5CD60
:103AA000020077CE020081CE020032CF0200F8CFB2
:103AB00002005BD102006FD1020020D202002AD2A4
:103AC0000200DCD20200E6D2020097D30200A1D3AA
:103AD000020053D402005DD402000ED5020018D5B6
:103AE0000200CAD50200D4D5020085D602008FD6C6
:103AF0000200F3D7020006D80200B8D80200C2D8EC
:103B0000020073D902007DD9020088DA020097DA38
:103B10000200A1DB020027DD0200D8DD0200E2DDA9
:103B2000020094DE02009EDE02004FDF020059DF39
:103B300002000BE0020015E00200C6E00200D0E047
:103B4000020082E102008CE10200EFE2020003E3E6
:103B50000200B4E30200BEE3020070E402007AE473
:103B600002002BE5020035E50200E7E50200F1E581
:103B70000200A2E6020068E70200CBE802009AE930
:103B80000200F7E9020056EA0200B3EA020011EB74
:103B900002006EEB0200CDEB02002AEC020088EC82
:103BA0000200ECED0200FFED020021F9020000002E
:103BB000BA02BA02BA02BA02BA02BA020000BA02E1
:103BC0000000A403000016040000A4030000BA02D1
:103BD0000000BA020000BA020000A40300001604AC
:103BE00000000F030000A4030000BA0200006E02F0
:103BF0000000BA02700300000000370100005D0100
:103C00000000D20100004B0200000B020000D201B4
:103C10000000B80100005D0100005D010000D2015C
:103C200000000B020000D20100005D0100005D01F8
:103C300000005D010000D20100000B0200008701BE
:103C40000000D20100005D01000037010000B80152
:103C500000006E0200004B0200000B020000D201C7
:103C60000000B8010000D2010000D2010000D20122
:103C70000000B8010000D2010000D2010000B8012C
:103C80000000B8010000B8010000D2010000B80136
:103C90000000870100005D010000D2010000D20198
:103CA0000000B8010000D2010000D20100005D0157
:103CB00000005D0100000B0200000B020000D201B9
:103CC00000005D010000D2010000D2010000D2011D
:103CD0000000B8010000D2010000D2010000B801CC
:103CE0000000B8010000D2010000B8010000870107
:103CF00000005D010000D2010000D2010000B80107
:103D00000000D2010000D20100005D0100005D0151
:103D10000000D2010000B80100002D080000B70724
:103D2000000048070000E00600007D0600001F06B6
:103D30000000C70500007405000026050000DC0433
:103D40000000960400005404000016040000DB0389
:103D50000000A4030000700300003E0300000F03F6
:103D60000000E3020000BA020000930200006E02AD
:103D700000004B0200002A0200000B020000ED01CF
:103D80000000D2010000B8010000B8010000D2011B
:103D900000000B020000D20100005D01000087015D
:103DA0000000D20100000B0200004B0200005D0188
:103DB0000000710100007101000087010000710125
:103DC00000005D01000074050000DC0400009604A2
:103DD000000016040000A4030000D2010000B80196
:103DE00000005D0100005D0100005D010000870131
:103DF0000000AE000000C3000000E9000000050163
:103E00000000250100005D0100003701000087016E
:103E10000000B801000087010000B8010000870120
:103E20000000B80100005D010000E9000000D201BF
:103E300000000B020000D20100000B0200004B0248
:103E40000000370100002501000005010000E90025
:103E500000005D010000E9000000D2010000B8018F
:103E60000000D20100000B0200004B0200004B02D8
:103E70000000BA020000D20100000B020000B801ED
:103E80000000D2010000B8010000D201000087014B
:103E900000005D0100008701000087010000D201E1
:103EA00000005D010000250100005D010000D2015D
:103EB00000007405000096040000A4030000BA028C
:103EC00000005D010000E9000000D20100000B02CB
:103ED0000000D20100000B0200004B02000037017D
:103EE00000002501000005010000E90000005D015F
:103EF0000000E9000000D2010000B8010000D2017A
:103F000000000B0200004B020000370100002501F9
:103F100000004B020000BA0200000B020000D201B8
:103F20000000B8010000D2010000D20100008701AA
:103F300000005D0100008701000087010000D20140
:103F400000005D01000005010000250100005D0189
:103F50000000D20100007405000096040000A403D4
:103F60000000BA0200005D0100005D010000D20106
:103F700000000B020000D20100005D0100005D01A5
:103F800000005D010000D20100000B02000087016B
:103F90000000D2010000E90000005D0100002501E1
:103FA00000003701000025010000B80100003701C2
:103FB00000005D010000D20100004B0200000B0276
:103FC0000000D2010000B80100005D0100005D01A9
:103FD0000000D20100000B020000D20100005D01D0
:103FE00000005D0100005D010000D20100000B0235
:103FF000000087010000D2010000E90000005D011F
:104000000000250100003701000025010000B80173
:1040100000006E0200004B0200000B020000D20103
:104020000000B8010000D2010000D2010000D2015E
:104030000000B8010000D2010000D2010000B80168
:104040000000B8010000B8010000D2010000B80172
:104050000000870100005D010000D2010000D201D4
:104060000000B8010000D2010000D20100005D0193
:1040700000005D0100000B0200000B020000D201F5
:1040800000005D010000D2010000D2010000D20159
:104090000000B8010000D2010000D2010000B80108
:1040A0000000B8010000D2010000B8010000870143
:1040B00000005D010000D2010000D2010000B80143
:1040C0000000D2010000D20100005D0100005D018E
:1040D0000000D2010000B80100002D080000B70761
:1040E000000048070000E00600007D0600001F06F3
:1040F0000000C70500007405000026050000DC0470
:104100000000960400005404000016040000DB03C5
:104110000000A4030000700300003E0300000F0332
:104120000000E3020000BA020000930200006E02E9
:1041300000004B0200002A0200000B020000ED010B
:104140000000D2010000B8010000B8010000D20157
:1041500000000B020000D20100005D010000870199
:104160000000D20100000B0200004B0200005D01C4
:104170000000710100007101000087010000710161
:1041800000005D01000074050000DC0400009604DE
:10419000000016040000A4030000D2010000B801D2
:1041A00000005D0100005D0100005D01000087016D
:1041B0000000AE000000C3000000E900000005019F
:1041C0000000250100005D010000370100008701AB
:1041D0000000B801000087010000B801000087015D
:1041E0000000B80100005D010000E9000000D201FC
:1041F00000000B020000D20100000B0200004B0285
:104200000000370100002501000005010000E90061
:1042100000005D010000E9000000D2010000B801CB
:104220000000D20100000B0200004B020000370129
:104230000000250100004B020000BA020000D2017C
:1042400000000B020000B8010000D2010000B8011C
:104250000000D2010000870100005D01000087011D
:10426000000087010000D20100005D01000005018F
:104270000000250100005D010000D201000074056E
:10428000000096040000A4030000BA0200005D01D3
:104290000000E9000000D20100000B020000D20182
:1042A00000000B0200004B02000037010000250156
:1042B000000005010000E90000005D010000E900C8
:1042C0000000D2010000B8010000D20100000B0282
:1042D00000004B02000037010000250100004B02E6
:1042E0000000BA0200000B020000D2010000B80179
:1042F0000000D2010000D2010000870100005D0132
:1043000000008701000087010000D20100005D016C
:10431000000005010000250100005D010000D20140
:1043200000007405000096040000A4030000BA0217
:104330000000BA020000480700002D080000A40396
:1043400000004807000074050000480700002D0821
:1043500000004807000074050000DC04000096041B
:1043600000006E0200004B020000A403000096044F
:10437000000016040000A403000070030000A40362
:10438000000016040000D2010000A4030000BA02DD
:104390000000A40300001604000096040000BA0206
:1043A00000006E0200004B020000370100002501F2
:1043B0000000D20100004B0200000B020000D201FD
:1043C0000000B80100005D0100005D010000D201A5
:1043D00000000B020000D20100005D0100005D0141
:1043E00000005D010000D20100000B020000870107
:1043F0000000D20100005D0100003701000025012E
:1044000000003701000025010000D20100004B022E
:1044100000000B020000D2010000B80100005D01A5
:1044200000005D010000D20100000B020000D2017B
:1044300000005D0100005D0100005D010000D2018F
:1044400000000B02000087010000D20100005D01A6
:1044500000002501000037010000250100000501D2
:1044600000005D010000D2010000B80100002D082D
:104470000000B707000048070000E00600007D06C6
:1044800000001F060000C705000074050000260597
:104490000000DC0400009604000054040000160430
:1044A0000000DB030000A4030000700300003E03D3
:1044B00000000F030000E3020000BA0200009302B4
:1044C00000006E0200004B0200002A0200000B02F6
:1044D0000000ED010000D2010000B8010000B801A9
:1044E0000000D20100000B020000D20100005D01BB
:1044F000000087010000D20100000B0200004B0207
:1045000000005D01000071010000710100008701E1
:104510000000710100005D01000074050000DC0472
:1045200000009604000016040000A4030000D2015D
:104530000000B80100005D0100005D0100005D01A8
:10454000000087010000AE000000C3000000E90089
:10455000000005010000250100005D010000370199
:10456000000087010000B80100000F030000700385
:1045700000000F03000070030000BA020000D20127
:104580000000A403000016040000A40300001604A9
:104590000000960400006E0200004B0200000B02B7
:1045A0000000D20100000B0200005D010000BA0211
:1045B0000000D2010000A403000070030000A40367
:1045C000000016040000960400006E0200004B027A
:1045D00000000B0200009604000074050000A40314
:1045E00000001604000070030000A4030000700324
:1045F0000000A40300000F030000BA0200000F0334
:1046000000000F030000A4030000BA0200000B0228
:1046100000004B020000BA020000A4030000740571
:10462000000096040000A4030000BA020000BA02D1
:104630000000D2010000A403000016040000A4033F
:10464000000016040000960400006E0200004B02F9
:1046500000000B020000D20100000B0200005D010F
:104660000000BA020000D2010000A40300007003A1
:104670000000A403000016040000960400006E026F
:1046800000004B0200000B020000960400007405BD
:10469000000016040000A403000070030000A4033F
:1046A0000000A40300000F030000BA0200000F0383
:1046B00000000F030000A4030000BA0200000B0278
:1046C00000004B020000BA020000A40300007405C1
:1046D000000096040000A4030000BA0200005D017F
:1046E00000005D010000D20100005D010B0200002E
:1046F0000000D20100006E0200004B020000D20157
:1047000000000B020000D201000087014B020000F4
:104710000000D201000087010000E90000005D01F7
:104720000000250100003701000025010000B8014C
:104730000000D20100005D010000D201000025014F
:1047400000005D0100004B020000D20100005D018D
:1047500000005D010000D20100000B020000D20148
:1047600000006E0200004B020000D20100000B02AC
:104770000000D20100004B020000D2010000E9005D
:1047800000005D0100002501000037010000250147
:104790000000B80100006E0200004B0200000B0296
:1047A0000000D2010000B8010000D20100000000AA
:1047B0000000240027002A00000000002500280037
:1047C0002B00020100000000002300260029000445
:1047D00004040404040404020202020202030303A8
:1047E00003030301020408102040800102040810A2
:1047F000200102040810200000000800020100004F
:10480000030407000000000000000000712C1124C8
:104810001FBECFEFD8E0DEBFCDBF11E0A0E0B1E01A
:10482000EEECF9E502C005900D92A633B107D9F779
:1048300022E0A6E3B1E001C01D92A631B207E1F784
:1048400014E2C7E0D4E204C02197FE010E94DF2CED
:10485000C630D107C9F70E94F2270C94E52C0C94BE
:104860000000AF92BF92CF92DF92EF92FF920F9330
:104870001F93CF93DF936C017B018B01040F151FF6
:10488000EB015E01AE18BF08C017D10759F069915E
:10489000D601ED91FC910190F081E02DC6010995C2
:1048A000892B79F7C501DF91CF911F910F91FF906F
:1048B000EF90DF90CF90BF90AF900895FC01538DA3
:1048C000448D252F30E0842F90E0821B930B5417EA
:1048D00010F0CF96089501970895FC01918D828D77
:1048E000981761F0A28DAE0FBF2FB11D5D968C9110
:1048F000928D9F5F9F73928F90E008958FEF9FEF4F
:104900000895FC01918D828D981731F0828DE80F0A
:10491000F11D858D90E008958FEF9FEF0895FC01C4
:10492000918D228D892F90E0805C9F4F821B910991
:104930008F739927089589E791E00E948F2421E0E1
:10494000892B09F420E0822F089580E090E0892BE4
:1049500029F00E949B2481110C9400000895FC0111
:10496000A48DA80FB92FB11DA35ABF4F2C91848DD0
:1049700090E001968F739927848FA689B7892C932D
:10498000A089B1898C91837080648C93938D848D80
:10499000981306C00288F389E02D80818F7D808383
:1049A0000895EF92FF920F931F93CF93DF93EC0143
:1049B00081E0888F9B8D8C8D98131AC0E889F989C6
:1049C000808185FF15C09FB7F894EE89FF896083C9
:1049D000E889F98980818370806480839FBF81E04A
:1049E00090E0DF91CF911F910F91FF90EF9008958C
:1049F000F62E0B8D10E00F5F1F4F0F731127E02E67
:104A00008C8D8E110CC00FB607FCFACFE889F9899E
:104A1000808185FFF5CFCE010E94AF24F1CFEB8DD1
:104A2000EC0FFD2FF11DE35AFF4FF0829FB7F89472
:104A30000B8FEA89FB8980818062CFCFCF93DF9390
:104A4000EC01888D8823B9F0AA89BB89E889F989A6
:104A50008C9185FD03C0808186FD0DC00FB607FCDB
:104A6000F7CF8C9185FFF2CF808185FFEDCFCE010E
:104A70000E94AF24E9CFDF91CF910895833081F078
:104A800028F4813099F08230A9F008958730A9F098
:104A90008830C9F08430B1F4809180008F7D03C0EC
:104AA000809180008F7780938000089584B58F7700
:104AB00084BD089584B58F7DFBCF8091B0008F7742
:104AC0008093B00008958091B0008F7DF9CFCF938F
:104AD000DF93E7EFF7E48491E3EEF7E4D491EFECB2
:104AE000F7E4C491CC23A1F081110E943E25EC2F64
:104AF000F0E0EE0FFF1FEB53F84BA591B491EC9152
:104B0000ED2381E090E009F480E0DF91CF910895FA
:104B100080E090E0FACF1F93CF93DF93282F30E00F
:104B2000F901E950F84B8491F901ED51F84BD4911A
:104B3000F901E153F84BC491CC23A9F0162F811150
:104B40000E943E25EC2FF0E0EE0FFF1FE854F84BDB
:104B5000A591B4918FB7F894EC91111108C0D0953C
:104B6000DE23DC938FBFDF91CF911F910895DE2B61
:104B7000F8CFCF93DF9390E0FC01ED51F84B2491F7
:104B80008153984BFC0184918823D1F090E0880FE9
:104B9000991FFC01E255F84BA591B491FC01E85432
:104BA000F84BC591D491623071F49FB7F8943C9161
:104BB000822F809583238C93E8812E2B28839FBF9F
:104BC000DF91CF9108958FB7F894EC912E2B2C9311
:104BD0008FBFF6CF3FB7F89480913701909138019D
:104BE000A0913901B0913A0126B5A89B05C02F3F8D
:104BF00019F00196A11DB11D3FBFBA2FA92F982F03
:104C00008827BC01CD01620F711D811D911D42E0FD
:104C1000660F771F881F991F4A95D1F708950C9446
:104C2000EA25FC019181913069F0923089F091116F
:104C300005C090916E009D7F90936E0060E0808132
:104C40000C948B2590916F009D7F90936F00F6CF11
:104C5000909170009D7F90937000F0CFCF93DF9381
:104C6000FC0101900020E9F73197AF01481B590B77
:104C7000BC0189E791E00E943124EC0142E050E060
:104C800062E271E089E791E00E9431248C0F9D1F60
:104C9000DF91CF9108951F920F920FB60F921124BA
:104CA0002F933F934F935F936F937F938F939F9334
:104CB000AF93BF93EF93FF9389E791E00E94AF24F6
:104CC000FF91EF91BF91AF919F918F917F916F91E4
:104CD0005F914F913F912F910F900FBE0F901F90BA
:104CE00018951F920F920FB60F9211242F938F9346
:104CF0009F93EF93FF93E0918901F0918A01808166
:104D0000E0918F01F091900182FD1BC09081809114
:104D100092018F5F8F7320919301821741F0E09190
:104D20009201F0E0E758FE4F958F80939201FF913A
:104D3000EF919F918F912F910F900FBE0F901F9029
:104D400018958081F4CF1F920F920FB60F92112405
:104D50002F933F938F939F93AF93BF938091450180
:104D600090914601A0914701B091480130913601E0
:104D700023E0230F2D3758F50196A11DB11D209377
:104D800036018093450190934601A0934701B0936B
:104D900048018091370190913801A0913901B0917B
:104DA0003A010196A11DB11D8093370190933801FE
:104DB000A0933901B0933A01BF91AF919F918F9128
:104DC0003F912F910F900FBE0F901F90189526E8DE
:104DD000230F0296A11DB11DD2CF1F920F920FB6C5
:104DE0000F9211242F933F938F939F93AF93BF9371
:104DF000EF93FF938091490190914A01A0914B015B
:104E0000B0914C010097A105B10531F130913B0102
:104E1000E0913C01F0913D01208123272083181669
:104E200019061A061B061CF40197A109B109809303
:104E3000490190934A01A0934B01B0934C01FF911B
:104E4000EF91BF91AF919F918F913F912F910F90D3
:104E50000FBE0F901F901895209170002D7F20930A
:104E6000700020913B01E0913C01F0913D013081C7
:104E7000209523232083DBCF1F920F920FB60F9232
:104E800011248F939F93AF93BF93EF93FF938091E0
:104E90004D0190914E01A0914F01B0915001892B8D
:104EA0008A2B8B2BA1F190913E01E0913F01F09173
:104EB000400180818927808380914D0190914E012E
:104EC000A0914F01B0915001181619061A061B0641
:104ED0009CF480914D0190914E01A0914F01B091B1
:104EE00050010197A109B10980934D0190934E01A2
:104EF000A0934F01B0935001FF91EF91BF91AF91FB
:104F00009F918F910F900FBE0F901F9018958091D9
:104F10006F008D7F80936F0080913E01E0913F0193
:104F2000F09140019081809589238083E5CF1F9285
:104F30000F920FB60F9211248F939F93AF93BF934D
:104F4000EF93FF938091510190915201A0915301F1
:104F5000B0915401892B8A2B8B2BA1F190914101A7
:104F6000E0914201F0914301808189278083809103
:104F7000510190915201A0915301B0915401181622
:104F800019061A061B069CF480915101909152015A
:104F9000A0915301B09154010197A109B1098093E7
:104FA000510190935201A0935301B0935401FF918A
:104FB000EF91BF91AF919F918F910F900FBE0F9086
:104FC0001F90189580916E008D7F80936E00809168
:104FD0004101E0914201F091430190818095892344
:104FE0008083E5CFCF93DF93CDB7DEB72A970FB697
:104FF000F894DEBF0FBECDBF789484B5826084BDC7
:1050000084B5816084BD85B5826085BD85B58160CC
:1050100085BD80916E00816080936E00109281004A
:105020008091810082608093810080918100816005
:1050300080938100809180008160809380008091C6
:10504000B10084608093B1008091B0008160809352
:10505000B00080917A00846080937A0080917A0019
:10506000826080937A0080917A00816080937A00D8
:1050700080917A00806880937A001092C100E0915C
:105080008901F0918A0182E08083E0918501F091AD
:1050900086011082E0918701F09188018FEC808376
:1050A00010929101E0918D01F0918E0186E0808354
:1050B000E0918B01F0918C01808180618083E0918F
:1050C0008B01F0918C01808188608083E0918B015D
:1050D000F0918C01808180688083E0918B01F09158
:1050E0008C0180818F7D808362E080E00E94B92501
:1050F00061E08DE00E94B92561E089E00E94B92558
:1051000061E08AE00E94B925A5E5B1E005E711E07C
:1051100069E671E04DE651E029E531E082E1282EB3
:1051200081E0382EFF24FA94F10186819781F901FC
:1051300091838083FA011192119211921192AF0121
:10514000FB0111921192BF01F801119211928F018E
:10515000F101908180914401833008F01FC19C933C
:10516000E82FF0E0EE53F84BE4911196EC93119791
:105170008F5F80934401E13009F4C4C008F4A2C0F9
:10518000E23009F4E5C0F90180819181FC01E15030
:10519000F04CCF01880F991F880F991FF101C4802F
:1051A000D580F601E80FF91F4590559065907490F1
:1051B00080905D0190905E01A0905F01B0906001D1
:1051C00084149504A604B70410F45301420180929C
:1051D0005D0190925E01A0925F01B0926001F8E0E3
:1051E0002F0E311C2E5F3F4F129682E2281681E06F
:1051F000380609F099CF0E940F2660E08DE00E94EA
:105200008B2500E010E00E9467259C838B8301972B
:1052100011F00B831C830E9467259A838983892B55
:1052200009F0C0C0AB81BC81119709F0BBC061E03F
:105230008DE00E948B2585E291E00E942E2669E692
:1052400071E00DE6C02E01E0D02E45E751E0A2E16D
:10525000B1E01496ED90FC901597FA018081918150
:10526000FC01EE0FFF1FEE0FFF1FEE0DFF1D05915E
:10527000159125913491F6010083118322833383A4
:10528000FA012081318189010F5F1F4FC801880F0A
:10529000991F880F991F8E0D9F1DFC018590959079
:1052A000A590B490F60140805180628073804814CC
:1052B00059046A047B0409F078C0FA011183008361
:1052C000FC01D5CF14BC15BC84B5826084BD85B506
:1052D000816085BD8C9190E0FC01E153F84BE49135
:1052E000F0E0EE0FFF1FE854F84BC590D490D09239
:1052F0004301C0924201FC01ED51F84BE491E0936F
:10530000410141CF10928000109281008091810074
:10531000886080938100809181008160809381000A
:105320008C9190E0FC01E153F84BE491F0E0EE0F3A
:10533000FF1FE854F84BC590D490D0924001C09222
:105340003F01FC01ED51F84BE491E0933E011BCF8E
:105350001092B0001092B1008091B00082608093F2
:10536000B0008091B10081608093B1008C9190E099
:10537000FC01E153F84BE491F0E0EE0FFF1FE8541D
:10538000F84BC590D490D0923D01C0923C01FC01F5
:10539000ED51F84BE491E0933B01F5CE1196FC9270
:1053A0001197F1CE0B811C812ECF90E080E0121678
:1053B000130664F421503048220F331F1296ED91EA
:1053C000FC911397E20FF31F85919491FB01819358
:1053D0009193BF0118964E5F5F4FF4E0CF0ED11C42
:1053E00081E0A232B80709F034CF2FB7F89480914A
:1053F000450190914601A0914701B09148012FBF0E
:105400008093650190936601A0936701B093680152
:105410001E821D8240916101509162016091630181
:105420007091640180915D0190915E01A0915F0196
:10543000B091600184179507A607B70708F42AC240
:10544000AD81BE81119709F425C22FB7F8948091E0
:10545000450190914601A0914701B09148012FBFAD
:1054600040916501509166016091670170916801FA
:10547000841B950BA60BB70B80936101909362017F
:10548000A0936301B0936401E5E5F1E0FA87E98751
:105490007DE6272E71E0372E89E591E09C838B8392
:1054A000E5E7CE2EE1E0DE2EF12CE12CAB81BC81D4
:1054B0008D919D91BC83AB83F601208131812817AA
:1054C00039070CF0E2C10E946725019721F481E0C1
:1054D00090E09A8389830E946725892B61F4A981D2
:1054E000BA81119741F480E391E00E942E26E1E019
:1054F000F0E0FE83ED83C70187599E4F98878F8325
:10550000DC018D909C90181419040CF0B9C1E98548
:10551000FA85818187FD02C161E080810E94B92501
:10552000A985BA8511961C91092C000CAA08BB0804
:10553000812F8D7F09F052C160E072E18AE790E02F
:10554000A50194010E949E2C29013A01DA01C901AA
:105550000197A109B1098F3F9105A105B10509F096
:105560000CF4B8C060E472E48FE090E0A50194010F
:105570000E949E2C2150310941095109123009F035
:105580006AC082E02F3F31054105510509F00CF456
:105590005BC060E970ED83E090E0A50194010E949A
:1055A0009E2C215031094109510983E02F3F3105DB
:1055B0004105510509F00CF447C068E478EE81E03C
:1055C00090E0A50194010E949E2C215031094109CF
:1055D000510984E02F3F310541055105A9F1A4F19E
:1055E00064E274EF80E090E0A50194010E949E2C9B
:1055F000215031094109510985E02F3F310541050D
:10560000510511F108F162E17AE780E090E0A5012F
:1056100094010E949E2C215031094109510986E0D4
:105620002F3F31054105510579F070F09AE07594EE
:105630006794579447949A95D1F7A301920121500A
:1056400031094109510987E09091B100987F892B78
:105650008093B10047C02F3F31054105510509F046
:105660000CF4BAC068E478EE81E090E0A501940102
:105670000E949E2C215031094109510984E01111E9
:10568000BCCF83E02F3F31054105510539F134F19D
:1056900062E17AE780E090E0A50194010E949E2CEF
:1056A000215031094109510984E02F3F310541055D
:1056B0005105A1F098F08AE0759467945794479447
:1056C0008A95D1F7A301920121503109410951096D
:1056D00085E004C09C0181E01111B6CF95B5987F9B
:1056E000892B85BDE985FA858181813009F4A0C0C7
:1056F000823009F4B2C0811111C027BD8FEF9FEF36
:10570000DC018093510190935201A0935301B09317
:10571000540180916E00826080936E00D1014D91A2
:105720005D916D917C918091610190916201A09158
:105730006301B091640184179507A607B70708F4C1
:1057400037C0F60120813181C901019691838083A0
:10575000EB81FC813297408151818417950744F594
:10576000D701AA0FBB1FAA0FBB1FAE5EBE4F220FF1
:10577000331F1296ED91FC911397E20FF31F4591A1
:105780005491EF81F88551834083880F991F880FCA
:10579000991F1496ED91FC91E80FF91F45915591D1
:1057A00065917491D1014D935D936D937C931397A3
:1057B000B2E0CB0ED11CE4E02E0E311C89859A8517
:1057C00002969A87898792E0E90EF11CA4E0EA1616
:1057D000F10409F41FCE6ACE82E07ECF60E072E170
:1057E0008AE790E0A50194010E949E2C2150310986
:1057F0004109510991E021153105B1E04B075105EF
:105800006CF068E478EE81E090E0A50194010E94DC
:105810009E2C215031094109510993E0113009F0C2
:1058200061CF80918100887F892B809381005ACF3E
:1058300030938900209388008FEF9FEFDC018093E5
:105840004D0190934E01A0934F01B0935001809170
:105850006F00826080936F0061CF2093B3008FEF61
:105860009FEFDC018093490190934A01A0934B0183
:10587000B0934C01809170008260809370004ECF95
:1058800089859A850E94112649CF89859A850E942B
:1058900011268ECF10926101109262011092630165
:1058A00010926401109276011092750185E591E0E5
:1058B0000E941126109278011092770187E591E0FD
:1058C0000E9411260E940F2680E090E0892B09F4A7
:1058D00094CC0E949B24882309F48FCC0E94000062
:1058E0008CCCE9E7F1E01382128288EE93E0A0E02D
:1058F000B0E084839583A683B78384E091E09183AD
:10590000808385EC90E09587848784EC90E097878E
:10591000868780EC90E0918B808B81EC90E0938B7C
:10592000828B82EC90E0958B848B86EC90E0978B59
:10593000868B118E128E138E148E0895052E97FB72
:105940001EF400940E94B52C57FD07D00E94BD2C78
:1059500007FC03D04EF40C94B52C5095409530952F
:1059600021953F4F4F4F5F4F0895909580957095CB
:1059700061957F4F8F4F9F4F0895A1E21A2EAA1B6A
:10598000BB1BFD010DC0AA1FBB1FEE1FFF1FA217EF
:10599000B307E407F50720F0A21BB30BE40BF50BEC
:1059A000661F771F881F991F1A9469F76095709575
:1059B000809590959B01AC01BD01CF010895EE0F3C
:0E59C000FF1F0590F491E02D0994F894FFCF9D
:1059CE0000000000D12431245E241E258F246D2476
:1059DE0081240C00AE3BAE2300060900EC176800D4
:1059EE00E1050D0A00506C6179696E672E2E2E004E
:0659FE00736B69700000EC
:00000001FF
