:100000000C9434210C945C210C945C210C945C21A4
:100010000C945C210C945C210C945C210C941A24AB
:100020000C945C210C945C210C945C210C9469244C
:100030000C945C210C945C210C94C4240C945C21E1
:100040000C94D0230C945C210C949E230C94782364
:100050000C945C210C945C210C945C210C945C212C
:100060000C945C210C945C21000000000000000056
:100070007002000071020000E1040000E2040000D0
:100080008106000082060000F2080000F30800006C
:10009000630B0000640B0000340C0000350C000002
:1000A000040D0000050D0000750F0000760F000024
:1000B000E6110000E711000087130000881300001C
:1000C000F8150000F9150000691800006A18000012
:1000D000391900003A190000091A00000A1A000034
:1000E0007A1C00007B1C0000EB1E0000EC1E0000D0
:1000F0008C2000008D200000FD220000FE22000068
:100100006E2500006F2500000F270000102700005B
:100110008029000081290000F12B0000F22B000053
:10012000C12C0000C22C0000912D0000922D000077
:100130001434000015340000E4340000E5340000FD
:10014000B5350000B6350000853600008636000063
:1001500055370000563700002638000027380000C9
:10016000F6380000F7380000C6390000C739000033
:10017000973A0000983A0000673B0000683B000097
:10018000373C0000383C0000083D0000093D0000FD
:10019000D83D0000D93D0000793F00007A3F0000C3
:1001A000194100001A410000EA410000EB41000043
:1001B000BA420000BB4200008A4300008B430000AB
:1001C0005B4400005C4400002B4500002C4500000F
:1001D000FB450000FC450000CC460000CD46000079
:1001E0009C4700009D4700006C4800006D480000DF
:1001F0003D4900003E4900000D4A00000E4A000043
:10020000DD4A0000DE4A0000AE4B0000AF4B0000AC
:100210007E4C00007F4C00004E4D00004F4D000012
:100220001F4E0000204E0000EF4E0000F04E000078
:10023000BF4F0000C04F00009050000091500000E0
:100240006051000061510000985200009952000076
:10025000D1530000D2530000A1540000A25400006A
:1002600072550000735500004256000043560000CE
:100270001257000013570000E3570000E457000036
:100280004B5800004C580000B3580000B458000010
:100290001B5900001C5900008359000084590000BC
:1002A000EB590000EC590000545A0000555A000068
:1002B000BC5A0000BD5A0000245B0000255B000012
:1002C0008C5B00008D5B0000F45B0000F55B0000C0
:1002D0005C5C00005D5C0000C55C0000C65C00006A
:1002E0002D5D00002E5D0000955D0000965D000014
:1002F000FD5D0000FE5D0000655E0000665E0000C2
:10030000CD5E0000CE5E0000365F0000375F00006B
:100310009E5F00009F5F0000066000000760000015
:100320006E6000006F600000D6600000D7600000C3
:100330003E6100003F610000A7610000A86100006D
:100340000F62000010620000776200007862000017
:10035000DF620000E06200004763000048630000C5
:10036000AF630000B063000018640000196400006F
:100370008064000081640000E8640000E96400001B
:100380005065000051650000B8650000B9650000C7
:100390002066000021660000896600008A66000071
:1003A000F1660000F2660000596700005A6700001D
:1003B000C1670000C2670000296800002A680000C9
:1003C0009168000092680000FA680000FB68000075
:1003D0006269000063690000CA690000CB6900001F
:1003E000326A0000336A00009A6A00009B6A0000CB
:1003F000026B0000036B00006B6B00006C6B000075
:10040000D36B0000D46B00003B6C00003C6C000020
:10041000A36C0000A46C00000B6D00000C6D0000CC
:10042000736D0000746D0000DC6D0000DD6D000078
:10043000446E0000456E0000AC6E0000AD6E000022
:10044000146F0000156F00007C6F00007D6F0000CE
:10045000E46F0000E56F00004D700000EE710000D9
:100460005572000056720000BE720000BF7200009C
:1004700026730000277300008E73000030750000A3
:100480009775000098750000FF7500000076000069
:100490006776000068760000CF7600007178000073
:1004A000D8780000D9780000407900004179000038
:1004B000A8790000A9790000117A0000B27B000041
:1004C000197C00001A7C0000827C0000837C000004
:1004D000EA7C0000EB7C0000527D0000F47E00000E
:1004E0005B7F00005C7F0000C37F0000C47F0000D2
:1004F0002B8000002C8000009380000035820000DB
:100500009C8200009D82000004830000058300009F
:100510006C8300006D830000D583000076850000A9
:10052000DD850000DE85000046860000478600006D
:10053000AE860000AF86000016870000B888000075
:100540001F89000020890000878900008889000039
:10055000EF890000F0890000578A0000F98B000045
:10056000608C0000618C0000C88C0000C98C000009
:10057000308D0000318D0000998D00003A8F000011
:10058000A18F0000A28F00000A9000000B900000D5
:100590007290000073900000DA900000DB90000081
:1005A0004291000043910000AA910000AB9100002D
:1005B00012920000139200007B9200007C920000D7
:1005C000E3920000E49200004B9300004C93000083
:1005D000B3930000B49300001B9400001C9400002F
:1005E0008394000084940000EC940000ED940000DB
:1005F0005495000055950000BC950000BD95000085
:100600003F9C0000409C00000F9D0000109D0000DA
:10061000DF9D0000E09D0000B09E0000B19E000044
:10062000809F0000819F000050A0000051A00000AA
:1006300021A1000022A10000F1A10000F2A1000010
:10064000C1A20000C2A2000092A3000093A3000078
:1006500062A4000063A4000032A5000033A50000DE
:1006600003A6000004A60000D3A60000D4A6000044
:10067000A3A70000A4A7000074A8000075A80000AC
:1006800044A9000045A9000014AA000015AA000012
:10069000E5AA0000E6AA0000B5AB0000B6AB00007A
:1006A00085AC000086AC000056AD000057AD0000E0
:1006B00026AE000027AE0000F6AE0000F7AE000048
:1006C000C7AF0000C8AF000097B0000098B00000AE
:1006D00067B1000068B1000038B2000039B2000014
:1006E00008B3000009B30000D8B30000D9B300007C
:1006F000A9B40000AAB4000079B500007AB50000E2
:1007000049B600004AB600001AB700001BB7000047
:10071000EAB70000EBB70000BAB80000BBB80000B1
:100720008BB900008CB900005BBA00005CBA000015
:100730002BBB00002CBB0000FCBB0000FDBB00007D
:10074000CCBC0000CDBC00009CBD00009DBD0000E5
:100750006DBE00006EBE00003DBF00003EBF000049
:100760000DC000000EC00000DEC00000DFC00000B1
:10077000AEC10000AFC100007EC200007FC2000019
:100780004FC3000050C300001FC4000020C400007D
:10079000EFC40000F0C40000C0C50000C1C50000E7
:1007A00090C6000091C6000060C7000061C700004D
:1007B00031C8000032C8000001C9000002C90000B1
:1007C000D1C90000D2C90000A2CA0000A3CA00001B
:1007D00072CB000073CB000042CC000043CC000081
:1007E00013CD000014CD0000E3CD0000E4CD0000E7
:1007F000B3CE0000B4CE000084CF000085CF00004F
:1008000054D0000055D0000024D1000025D10000B4
:10081000F5D10000F6D10000C5D20000C6D200001C
:1008200095D3000096D3000066D4000067D4000082
:1008300036D5000037D5000006D6000007D60000E8
:10084000D7D60000D8D60000A7D70000A8D7000050
:1008500077D8000078D8000048D9000049D90000B6
:1008600018DA000019DA0000E8DA0000E9DA00001E
:10087000B9DB0000BADB000089DC00008ADC000084
:1008800059DD00005ADD00002ADE00002BDE0000EA
:10089000FADE0000FBDE0000CADF0000CBDF000054
:1008A0009BE000009CE000006BE100006CE10000B8
:1008B0003BE200003CE200000CE300000DE300001E
:1008C000DCE30000DDE30000ACE40000ADE4000088
:1008D0007DE500007EE500004DE600004EE60000EC
:1008E0001DE700001EE70000EEE70000EFE7000054
:1008F000BEE80000BFE800008EE900008FE90000BC
:100900005FEA000060EA00002FEB000030EB00001F
:10091000FFEB000000EC0000D0EC0000D1EC000088
:10092000A0ED0000A1ED000070EE000071EE0000EF
:1009300041EF000042EF000011F0000012F0000053
:10094000E1F00000E2F00000B2F10000B3F10000BD
:1009500082F2000083F2000052F3000053F3000023
:1009600023F4000024F40000F3F40000F4F4000089
:10097000C3F50000C4F5000094F6000095F60000F1
:1009800064F7000065F7000034F8000035F8000057
:1009900005F9000006F90000D5F90000D6F90000BD
:1009A000A5FA0000A6FA000076FB000077FB000025
:1009B00046FC000047FC000016FD000017FD00008B
:1009C000E7FD0000E8FD0000B7FE0000B8FE0000F3
:1009D00087FF000088FF0000580001005900010057
:1009E0002801010029010100F8010100F9010100BD
:1009F000C9020100CA020100690401006A04010081
:100A00003A0501003B0501000A0601000B06010042
:100A1000DA060100DB060100AB070100AC070100AC
:100A20007B0801007C0801004B0901004C09010012
:100A30001C0A01001D0A0100EC0A0100ED0A010078
:100A4000BC0B0100BD0B01008D0C01008E0C0100E0
:100A50005D0D01005E0D01002D0E01002E0E010046
:100A6000FE0E0100FF0E0100CE0F0100CF0F0100AE
:100A70009E1001009F1001006F1101007011010014
:100A80003F120100401201000F130100101301007A
:100A9000E0130100E1130100B0140100B1140100E2
:100AA0008015010081150100511601005216010048
:100AB0002117010022170100F1170100F2170100B0
:100AC000C2180100C3180100921901009319010016
:100AD000621A0100631A0100331B0100341B01007C
:100AE000031C0100041C0100D31C0100D41C0100E4
:100AF000A41D0100A51D0100741E0100751E01004A
:100B0000441F0100451F01001520010016200100AF
:100B1000E5200100E6200100B5210100B621010019
:100B2000862201008722010056230100572301007D
:100B30002624010027240100F7240100F8240100E5
:100B4000C7250100C825010097260100982601004D
:100B500068270100692701003828010039280100B1
:100B60000829010009290100D9290100DA29010019
:100B7000A92A0100AA2A0100792B01007A2B010081
:100B80004A2C01004B2C01001A2D01001B2D0100E5
:100B9000EA2D0100EB2D0100BB2E0100BC2E01004F
:100BA0008B2F01008C2F01005B3001005C300100B5
:100BB0002C3101002D310100FC310100FD3101001B
:100BC0006D3401006E340100DE360100DF360100B5
:100BD000AE370100AF3701007F380100203A010035
:100BE000883A0100883A0100F03A0100F13A010028
:100BF000583B0100593B0100C03B0100C13B0100D3
:100C0000283C0100293C0100903C0100913C01007E
:100C1000F93C0100F93C0100613D0100623D010029
:100C2000C93D0100CA3D0100313E0100323E0100D4
:100C3000993E01009A3E0100013F0100023F010080
:100C40006A3F01006A3F0100D23F0100D33F01002B
:100C50003A4001003B400100A2400100A3400100D6
:100C60000A4101000B410100724101007341010082
:100C7000DB410100DB41010043420100444201002D
:100C8000AB420100AC4201001343010014430100D8
:100C90007B4301007C430100E3430100E443010086
:100CA0004C4401004C440100B4440100B54401002F
:100CB0001C4501001D4501008445010085450100DA
:100CC000EC450100ED450100544601005546010088
:100CD000BD460100BD460100254701002647010031
:100CE0008D4701008E470100F5470100F6470100DE
:100CF0005D4801005E480100C5480100C64801008A
:100D00002E4901002E490100964901009749010032
:100D1000FE490100FF490100664A0100674A0100DF
:100D2000CE4A0100CF4A0100364B0100374B01008B
:100D30009F4B01009F4B0100074C0100084C010034
:100D40006F4C0100704C0100D74C0100D84C0100E1
:100D50003F4D0100404D0100A74D0100A84D01008D
:100D6000104E0100104E0100784E0100794E010036
:100D7000E04E0100E14E0100484F0100494F0100E3
:100D8000B04F0100B14F010018500100195001008F
:100D90008150010081500100E9500100EA5001003A
:100DA0005151010052510100B9510100BA510100E5
:100DB0002152010022520100895201008A52010091
:100DC000F2520100F25201005A5301005B5301003C
:100DD000C2530100C35301002A5401002B540100E7
:100DE0009254010093540100FA540100FB54010095
:100DF0006355010063550100CB550100CC5501003E
:100E000033560100345601009B5601009C560100E8
:100E100003570100045701006B5701006C57010094
:100E2000D4570100D45701003C5801003D5801003F
:100E3000A4580100A55801000C5901000D590100EA
:100E40007459010075590100DC590100DD59010098
:100E5000455A0100455A0100AD5A0100AE5A010041
:100E6000155B0100165B01007D5B01007E5B0100EC
:100E7000E55B0100E65B01004D5C01004E5C01009A
:100E8000B65C0100B65C01001E5D01001F5D010043
:100E9000865D0100875D0100EE5D0100EF5D0100F0
:100EA000565E0100575E0100BE5E0100BF5E01009C
:100EB000275F0100275F01008F5F0100905F010045
:100EC000F75F0100F85F01005F60010060600100F2
:100ED000C7600100C86001002F610100306101009E
:100EE0009861010098610100006201000162010047
:100EF0006862010069620100D0620100D1620100F4
:100F00003863010039630100A0630100A16301009F
:100F10000964010009640100716401007264010048
:100F2000D9640100DA6401004165010042650100F5
:100F3000A9650100AA6501001166010012660100A1
:100F40007A6601007A660100E2660100E36601004C
:100F50004A6701004B670100B2670100B3670100F7
:100F60001A6801001B6801008268010083680100A3
:100F7000EB680100EB68010053690100546901004E
:100F8000BB690100BC690100236A0100246A0100F9
:100F90008B6A01008C6A0100F36A0100F46A0100A7
:100FA0005C6B01005C6B0100C46B0100C56B010050
:100FB0002C6C01002D6C0100946C0100956C0100FB
:100FC000FC6C0100FD6C0100646D0100656D0100A9
:100FD000CD6D0100CD6D0100356E0100366E010052
:100FE0009D6E01009E6E0100056F0100066F0100FD
:100FF0006D6F01006E6F0100D56F0100D66F0100AB
:101000003E7001003E700100A6700100A770010053
:101010000E7101000F7101007671010077710100FE
:10102000DE710100DF7101004672010047720100AC
:10103000AF720100AF720100177301001873010055
:101040007F73010080730100E7730100E873010002
:101050004F74010050740100B7740100B8740100AE
:101060002075010020750100887501008975010057
:10107000F0750100F1750100587601005976010004
:10108000C0760100C17601002877010029770100B0
:101090009177010091770100F9770100FA7701005B
:1010A0006178010062780100C9780100CA78010006
:1010B0003179010032790100997901009A790100B2
:1010C000027A0100027A01006A7A01006B7A01005B
:1010D000D27A0100D37A01003A7B01003B7B010008
:1010E000A27B0100A37B01000A7C01000B7C0100B4
:1010F000737C0100737C0100DB7C0100DC7C01005F
:10110000437D0100447D0100AB7D0100AC7D010009
:10111000137E0100147E01007B7E01007C7E0100B5
:10112000E47E0100E47E01004C7F01004D7F010060
:10113000B47F0100B57F01001C8001001D8001000B
:101140008480010085800100EC800100ED800100B9
:101150005581010055810100BD810100BE81010062
:1011600025820100268201008D8201008E8201000D
:10117000F5820100F68201005D8301005E830100BB
:10118000C6830100C68301002E8401002F84010064
:101190009684010097840100FE840100FF84010011
:1011A0006685010067850100CE850100CF850100BD
:1011B00037860100378601009F860100A086010066
:1011C00007870100088701006F8701007087010011
:1011D000D7870100D88701003F88010040880100BF
:1011E000A8880100A8880100108901001189010068
:1011F0007889010079890100E0890100E189010015
:10120000488A0100498A0100B08A0100B18A0100C0
:10121000198B0100198B0100818B0100828B010069
:10122000E98B0100EA8B0100518C0100528C010016
:10123000B98C0100BA8C0100218D0100228D0100C2
:101240008A8D01008A8D0100F28D0100F38D01006D
:101250005A8E01005B8E0100C28E0100C38E010018
:101260002A8F01002B8F0100928F0100938F0100C4
:10127000FB8F0100FB8F010063900100649001006F
:10128000CB900100CC90010033910100349101001A
:101290009B9101009C9101000392010004920100C6
:1012A0006C9201006C920100D4920100D592010071
:1012B0003C9301003D930100A4930100A59301001C
:1012C0000C9401000D9401007494010075940100C8
:1012D000DD940100DD940100459501004695010073
:1012E000AD950100AE95010015960100169601001E
:1012F0007D9601007E960100E5960100E6960100CC
:101300004E9701004E970100B6970100B797010074
:101310001E9801001F98010086980100879801001F
:10132000EE980100EF9801005699010057990100CD
:10133000BF990100BF990100279A0100289A010076
:101340008F9A0100909A0100F79A0100F89A010023
:101350005F9B0100609B0100C79B0100C89B0100CF
:10136000309C0100309C0100989C0100999C010078
:10137000009D0100019D0100689D0100699D010023
:10138000D09D0100D19D0100389E0100399E0100D1
:10139000A19E0100A19E0100099F01000A9F01007A
:1013A000719F0100729F0100D99F0100DA9F010027
:1013B00041A0010042A00100A9A00100AAA00100D3
:1013C00012A1010012A101007AA101007BA101007C
:1013D000E2A10100E3A101004AA201004BA2010029
:1013E000B2A20100B3A201001AA301001BA30100D5
:1013F00083A3010083A30100EBA30100ECA3010080
:1014000053A4010054A40100BBA40100BCA401002A
:1014100023A5010024A501008BA501008CA50100D6
:10142000F4A50100F4A501005CA601005DA6010081
:10143000C4A60100C5A601002CA701002DA701002C
:1014400094A7010095A70100FCA70100FDA70100DA
:1014500065A8010065A80100CDA80100CEA8010083
:1014600035A9010036A901009DA901009EA901002E
:1014700005AA010006AA01006DAA01006EAA0100DA
:10148000D6AA0100D6AA01003EAB01003FAB010085
:10149000A6AB0100A7AB01000EAC01000FAC010030
:1014A00076AC010077AC0100DEAC0100DFAC0100DE
:1014B00047AD010047AD0100AFAD0100B0AD010087
:1014C00017AE010018AE01007FAE010080AE010032
:1014D000E7AE0100E8AE01004FAF010050AF0100E0
:1014E000B8AF0100B8AF010020B0010021B0010089
:1014F00088B0010089B00100F0B00100F1B0010036
:1015000058B1010059B10100C0B10100C1B10100E1
:1015100029B2010029B2010091B2010092B201008A
:10152000F9B20100FAB2010061B3010062B3010037
:10153000C9B30100CAB3010031B4010032B40100E3
:101540009AB401009AB4010002B5010003B501008C
:101550006AB501006BB50100D2B50100D3B5010039
:101560003AB601003BB60100A2B60100A3B60100E5
:101570000BB701000BB7010073B7010074B701008E
:10158000DBB70100DCB7010043B8010044B801003B
:10159000ABB80100ACB8010013B9010014B90100E7
:1015A0007CB901007CB90100E4B90100E5B9010092
:1015B0004CBA01004DBA0100B4BA0100B5BA01003D
:1015C0001CBB01001DBB010084BB010085BB0100E9
:1015D000EDBB0100EDBB010055BC010056BC010094
:1015E000BDBC0100BEBC010025BD010026BD01003F
:1015F0008DBD01008EBD0100F5BD0100F6BD0100ED
:101600005EBE01005EBE0100C6BE0100C7BE010095
:101610002EBF01002FBF010096BF010097BF010040
:10162000FEBF0100FFBF010066C0010067C00100EE
:10163000CFC00100CFC0010037C1010038C1010097
:101640009FC10100A0C1010007C2010008C2010042
:101650006FC2010070C20100D7C20100D8C20100F0
:1016600040C3010040C30100A8C30100A9C3010099
:1016700010C4010011C4010078C4010079C4010044
:10168000E0C40100E1C4010048C5010049C50100F2
:10169000B1C50100B1C5010019C601001AC601009B
:1016A00081C6010082C60100E9C60100EAC6010048
:1016B00051C7010052C70100B9C70100BAC70100F4
:1016C00022C8010022C801008AC801008BC801009D
:1016D000F2C80100F3C801005AC901005BC901004A
:1016E000C2C90100C3C901002ACA01002BCA0100F6
:1016F00093CA010093CA0100FBCA0100FCCA0100A1
:1017000063CB010064CB0100CBCB0100CCCB01004B
:1017100033CC010034CC01009BCC01009CCC0100F7
:1017200004CD010004CD01006CCD01006DCD0100A0
:10173000D4CD0100D5CD01003CCE01003DCE01004D
:10174000A4CE0100A5CE01000CCF01000DCF0100F9
:1017500075CF010075CF0100DDCF0100DECF0100A4
:1017600045D0010046D00100ADD00100AED001004F
:1017700015D1010016D101007DD101007ED10100FB
:10178000E6D10100E6D101004ED201004FD20100A6
:10179000B6D20100B7D201001ED301001FD3010051
:1017A00086D3010087D30100EED30100EFD30100FF
:1017B00057D4010057D40100BFD40100C0D40100A8
:1017C00027D5010028D501008FD5010090D5010053
:1017D000F7D50100F8D501005FD6010060D6010001
:1017E000C8D60100C8D6010030D7010031D70100AA
:1017F00098D7010099D7010000D8010001D8010055
:1018000068D8010069D80100D0D80100D1D8010002
:1018100039D9010039D90100A1D90100A2D90100AB
:1018200009DA01000ADA010071DA010072DA010056
:10183000D9DA0100DADA010041DB010042DB010004
:10184000AADB0100AADB010012DC010013DC0100AD
:101850007ADC01007BDC0100E2DC0100E3DC01005A
:101860004ADD01004BDD0100B2DD0100B3DD010006
:101870001BDE01001BDE010083DE010084DE0100AF
:10188000EBDE0100ECDE010053DF010054DF01005C
:10189000BBDF0100BCDF010023E0010024E0010008
:1018A0008CE001008CE00100F4E00100F5E00100B3
:1018B0005CE101005DE10100C4E10100C5E101005E
:1018C0002CE201002DE2010094E2010095E201000A
:1018D000FDE20100FDE2010065E3010066E30100B5
:1018E000CDE30100CEE3010035E4010036E4010060
:1018F0009DE401009EE4010005E5010006E501000C
:101900006EE501006EE50100D6E50100D7E50100B6
:101910003EE601003FE60100A6E60100A7E6010061
:101920000EE701000FE7010076E7010077E701000D
:10193000DFE70100DFE7010047E8010048E80100B8
:10194000AFE80100B0E8010017E9010018E9010063
:101950007FE9010080E90100E7E90100E8E9010011
:1019600050EA010050EA0100B8EA0100B9EA0100BA
:1019700020EB010021EB010088EB010089EB010065
:10198000F0EB0100F1EB010058EC010059EC010013
:10199000C1EC0100C1EC010029ED01002AED0100BC
:1019A00091ED010092ED0100F9ED0100FAED010069
:1019B00061EE010062EE0100C9EE0100CAEE010015
:1019C00032EF010032EF01009AEF01009BEF0100BE
:1019D00002F0010003F001006AF001006BF0010069
:1019E000D2F00100D3F001003AF101003BF1010017
:1019F000A3F10100A3F101000BF201000CF20100C0
:101A000073F2010074F20100DBF20100DCF201006C
:101A100043F3010044F30100ABF30100ACF3010018
:101A200014F4010014F401007CF401007DF40100C1
:101A3000E4F40100E5F401004CF501004DF501006E
:101A4000B4F50100B5F501001CF601001DF601001A
:101A500085F6010085F60100EDF60100EEF60100C5
:101A600055F7010056F70100BDF70100BEF7010070
:101A700025F8010026F801008DF801008EF801001C
:101A8000F6F80100F6F801005EF901005FF90100C7
:101A9000C6F90100C7F901002EFA01002FFA010072
:101AA00096FA010097FA0100FEFA0100FFFA010020
:101AB00067FB010067FB0100CFFB0100D0FB0100C9
:101AC00037FC010038FC01009FFC0100A0FC010074
:101AD00007FD010008FD01006FFD010070FD010020
:101AE000D8FD0100D8FD010040FE010041FE0100CB
:101AF000A8FE0100A9FE010010FF010011FF010076
:101B000078FF010079FF0100E0FF0100E1FF010023
:101B10004900020049000200B1000200B2000200C8
:101B2000190102001A010200810102008201020073
:101B3000E9010200EA010200510202005202020021
:101B4000BA020200BA0202002203020023030200CA
:101B50008A0302008B030200F2030200F303020077
:101B60005A0402005B040200C2040200C304020023
:101B70002B0502002B0502009305020094050200CC
:101B8000150C02000000C3000000C3000000CF00DD
:101B90000000C3000000C3000000CF000000AE0042
:101BA0000000C3000000C3000000CF000000C3001D
:101BB0000000C3000000CF000000AE000000CF0016
:101BC0000000CF000000CF000000E9000000E900A5
:101BD0000000E9000000C3000000C3000000CF00C7
:101BE0000000AE000000C300000082000000C3003F
:101BF0000000050100003701000074000000AE0085
:101C00000000E900000005010000670000009B00E3
:101C10000000CF000000E9000000CF000000E90054
:101C2000000082000000C300000005010000370131
:101C3000000074000000AE000000E9000000050193
:101C400000006E000000AE000000DC000000E900B3
:101C5000000005010000250100003701000005011A
:101C6000000057000000AE000000C30000000501A6
:101C70000000E9000000CF000000C30000004D009C
:101C800000009B000000AE000000E9000000E90039
:101C90000000AE0000009B000000920000007400F5
:101CA00000006700000057000000490000005700D6
:101CB0000000610000006700000082000000AE002C
:101CC0000000C3000000CF0000000501000061001B
:101CD0000000670000007400000092000000C300D4
:101CE0000000CF000000E9000000250100006700AF
:101CF000000074000000820000009B000000CF0084
:101D00000000E90000000501000037010000740038
:101D100000008200000092000000AE000000E90018
:101D2000000005010000250100005D0100008200A7
:101D30000000920000009B000000C30000000501AD
:101D4000000025010000370100008701000082002B
:101D50000000920000009B000000CF000000050181
:101D6000000025010000370100009F0100008200F3
:101D70000000920000009B000000DC0000008200D8
:101D80000000920000009B000000CF0000008200D5
:101D90000000920000009B000000C30000008200D1
:101DA0000000920000009B000000CF0000008200B5
:101DB0000000920000009B000000DC000000820098
:101DC0000000920000009B000000CF000000820095
:101DD0000000920000009B000000C3000000820091
:101DE0000000920000009B000000CF000000820075
:101DF0000000920000009B000000DC000000820058
:101E00000000920000009B000000CF000000820054
:101E10000000920000009B000000C30000000501CC
:101E2000000025010000370100008701000082004A
:101E30000000920000009B000000CF0000000501A0
:101E4000000025010000370100009F010000DC00B8
:101E5000000082000000C300000082000000C300F8
:101E6000000074000000AE00000074000000AE002E
:101E70000000670000009B000000670000009B005E
:101E80000000670000009B000000670000009B004E
:101E9000000082000000C300000082000000C300B8
:101EA000000074000000AE00000074000000AE00EE
:101EB00000006E000000AE0000006E000000AE00EA
:101EC00000006E000000AE0000006E000000AE00DA
:101ED0000000570000008200000057000000820050
:101EE0000000570000008200000057000000820040
:101EF00000004D000000740000004D000000740060
:101F000000004D000000740000004D00000074004F
:101F1000000057000000820000005700000082000F
:101F200000006100000092000000610000009200CB
:101F30000000670000009B000000670000009B009D
:101F4000000074000000AE00000074000000AE004D
:101F5000000082000000C3000000050100003701FE
:101F6000000074000000AE000000E9000000050160
:101F70000000670000009B000000CF00000005018A
:101F800000003701000005010000CF0000009B00A9
:101F9000000082000000C3000000050100003701BE
:101FA000000074000000AE000000E9000000050120
:101FB00000006E000000AE000000CF000000050130
:101FC00000005D01000005010000CF000000AE0030
:101FD000000057000000AE000000CF000000050127
:101FE00000005D01000005010000CF000000AE0010
:101FF00000004D0000009B000000C3000000E9004D
:10200000000037010000E9000000C30000009B0051
:102010000000570000006700000082000000AE00D2
:102020000000610000007400000092000000C30086
:10203000000067000000820000009B000000CF004D
:10204000000074000000AE000000C3000000AE00FD
:102050000000AE000000AE000000AE000000AE00C8
:102060000000AE000000AE000000AE000000C300A3
:102070000000C3000000C3000000C3000000C30054
:102080000000C3000000C3000000C3000000C30044
:102090000000C3000000C3000000C3000000C30034
:1020A0000000C3000000C3000000C3000000DC000B
:1020B0000000DC000000DC000000DC000000DC00B0
:1020C0000000DC000000DC000000DC000000AE00CE
:1020D0000000AE000000AE000000AE000000AE0048
:1020E0000000AE000000AE000000AE000000C30023
:1020F0000000C3000000C3000000C3000000C300D4
:102100000000C3000000C3000000C3000000C300C3
:102110000000C3000000C3000000C3000000C300B3
:102120000000C3000000C3000000C3000000DC008A
:102130000000DC000000DC000000DC0000007B0090
:1021400000007B000000B80000007B00000092004F
:102150000000B8000000DC000000B8000000DC0057
:1021600000009200000092000000F60000009200C3
:102170000000B8000000DC000000B8000000DC0037
:1021800000009200000092000000DC0000009200BD
:10219000000092000000DC000000920000009200AD
:1021A0000000DC0000009200000092000000DC0053
:1021B00000009200000092000000DC000000A4007B
:1021C0000000A4000000F6000000A4000000B80019
:1021D0000000B800000015010000B8000000150163
:1021E00000007101000015010000DC000000DC00AF
:1021F000000015010000B800000015010000DC001F
:10220000000015010000B800000015010000B80032
:102210000000DC00000015010000DC000000B80038
:10222000000015010000DC00000015010000B800EE
:10223000000015010000DC00000015010000B800DE
:10224000000015010000DC000000150100009B00EB
:102250000000F6000000CF000000F60000009B0028
:102260000000CF000000F6000000CF000000CF000B
:102270000000F6000000DC000000F6000000CF00C7
:102280000000F60000009B000000F60000009B002C
:102290000000F6000000B8000000F60000009B00FF
:1022A0000000B8000000F60000009B000000B8002D
:1022B0000000F60000009B000000F6000000B800DF
:1022C0000000F60000009B000000F60000009200F5
:1022D000000092000000DC0000009200000092006C
:1022E0000000B8000000DC00000092000000A40024
:1022F0000000CF000000F6000000CF000000F60054
:10230000000049010000F6000000CF000000B80006
:102310000000B800000015010000B8000000B8007F
:10232000000015010000B800000015010000B80011
:102330000000B800000015010000B8000000B8005F
:10234000000015010000A4000000F600000092004B
:102350000000B8000000DC000000B8000000DC0055
:1023600000009200000092000000F60000009200C1
:102370000000B8000000DC000000B8000000DC0035
:1023800000009200000092000000DC0000009200BB
:10239000000092000000DC000000920000009200AB
:1023A0000000DC0000009200000092000000DC0051
:1023B00000009200000092000000DC000000A40079
:1023C0000000A4000000F6000000A4000000B80017
:1023D0000000B800000015010000B8000000150161
:1023E00000007101000015010000DC000000DC00AD
:1023F000000015010000B800000015010000DC001D
:10240000000015010000B800000015010000B80030
:102410000000DC00000015010000DC000000B80036
:10242000000015010000DC00000015010000B800EC
:10243000000015010000DC00000015010000B800DC
:10244000000015010000DC000000150100009B00E9
:102450000000F6000000CF000000F60000009B0026
:102460000000CF000000F6000000CF000000CF0009
:102470000000F6000000DC000000F6000000CF00C5
:102480000000F60000009B000000F60000009B002A
:102490000000F6000000B8000000F60000009B00FD
:1024A0000000B8000000F60000009B000000B8002B
:1024B0000000F60000009B000000F6000000B800DD
:1024C0000000F60000009B000000F60000009200F3
:1024D000000092000000DC0000009200000092006A
:1024E0000000B8000000DC00000092000000A40022
:1024F0000000CF000000F6000000CF000000F60052
:10250000000049010000F6000000CF000000B80004
:102510000000B800000015010000B8000000B8007D
:10252000000015010000B800000015010000B8000F
:102530000000B800000015010000B8000000B8005D
:10254000000015010000A4000000F6000000920049
:102550000000B8000000DC000000B8000000DC0053
:1025600000009200000092000000F60000009200BF
:102570000000B8000000DC000000B8000000DC0033
:1025800000009200000092000000DC0000009200B9
:10259000000092000000DC000000920000009200A9
:1025A0000000DC0000009200000092000000DC004F
:1025B00000009200000092000000DC000000A40077
:1025C0000000A4000000F6000000A4000000B80015
:1025D0000000B800000015010000B800000015015F
:1025E00000007101000015010000DC000000DC00AB
:1025F000000015010000B800000015010000DC001B
:10260000000015010000B800000015010000B8002E
:102610000000DC00000015010000DC000000B80034
:10262000000015010000DC00000015010000B800EA
:10263000000015010000DC00000015010000B800DA
:10264000000015010000DC000000150100009B00E7
:102650000000F6000000CF000000F60000009B0024
:102660000000CF000000F6000000CF000000CF0007
:102670000000F6000000DC000000F6000000CF00C3
:102680000000F60000009B000000F60000009B0028
:102690000000F6000000B8000000F60000009B00FB
:1026A0000000B8000000F60000009B000000B80029
:1026B0000000F60000009B000000F6000000B800DB
:1026C0000000F60000009B000000F60000009200F1
:1026D000000092000000DC00000092000000920068
:1026E0000000B8000000DC00000092000000A40020
:1026F0000000CF000000F6000000CF000000F60050
:10270000000049010000F6000000CF000000B80002
:102710000000B800000015010000B8000000B8007B
:10272000000015010000B800000015010000B8000D
:102730000000B800000015010000B8000000B8005B
:10274000000015010000A4000000F6000000920047
:102750000000B8000000DC000000B8000000DC0051
:1027600000009200000092000000F60000009200BD
:102770000000B8000000DC000000B8000000DC0031
:1027800000009200000092000000DC0000009200B7
:10279000000092000000DC000000920000009200A7
:1027A0000000DC0000009200000092000000DC004D
:1027B00000009200000092000000DC000000A40075
:1027C0000000A4000000F6000000A4000000B80013
:1027D0000000B800000015010000B800000015015D
:1027E00000007101000015010000DC000000DC00A9
:1027F000000015010000B800000015010000DC0019
:10280000000015010000B800000015010000B8002C
:102810000000DC00000015010000DC000000B80032
:10282000000015010000DC00000015010000B800E8
:10283000000015010000DC00000015010000B800D8
:10284000000015010000DC000000150100009B00E5
:102850000000F6000000CF000000F60000009B0022
:102860000000CF000000F6000000CF000000CF0005
:102870000000F6000000DC000000F6000000CF00C1
:102880000000F60000009B000000F60000009B0026
:102890000000F6000000B8000000F60000009B00F9
:1028A0000000B8000000F60000009B000000B80027
:1028B0000000F60000009B000000F6000000B800D9
:1028C0000000F60000009B000000F60000009200EF
:1028D000000092000000DC00000092000000920066
:1028E0000000B8000000DC00000092000000A4001E
:1028F0000000CF000000F6000000CF000000F6004E
:10290000000049010000F6000000CF000000B80000
:1029100000000000000001000000030000000500AE
:10292000000006000000A001000040030000410379
:102930000000E1040000E2040000B1050000B2055F
:1029400000008106000023080000C3090000C4093C
:102950000000630B0000640B0000340C0000350C19
:102960000000040D0000A60E0000451000004610F7
:102970000000E6110000E7110000B6120000B712D7
:102980000000871300002815000098170000991711
:102990000000091A0000AB1B00004B1D00004C1D7D
:1029A0000000EB1E0000EC1E0000BC1F0000BD1F5D
:1029B00000008C2000002E220000CD230000CE233A
:1029C00000006E2500006F2500003E2600003F2617
:1029D00000000F270000B0280000502A0000512AF4
:1029E0000000F12B0000F22B0000C12C0000C22CD3
:1029F0000000912D0000922D0000A3310000A431B1
:102A0000000073320000743200004433000045338C
:102A100000001434000015340000853600008636AE
:102A200000005537000056370000C6390000C7398E
:102A30000000973A0000983A0000A83E0000A93E26
:102A40000000793F00007A3F0000494000004A4002
:102A50000000194100001A4100008A4300008B4326
:102A600000005B4400005C440000CC460000CD4602
:102A700000009C4700009D470000AE4B0000AF4B9C
:102A800000007E4C00007F4C00004E4D00004F4D7A
:102A900000001F4E0000204E0000BF4F0000C04F3E
:102AA0000000305200003152000001530000025378
:102AB0000000D1530000D2530000A1540000A254E2
:102AC00000004256000043560000B3580000B458BE
:102AD00000008359000084590000545A0000555AE0
:102AE0000000245B0000255B0000955D0000965D02
:102AF0000000655E0000665E0000D6600000D760E2
:102B00000000A7610000A8610000E8640000E9641B
:102B10000000296800002A6800003B6C00003C6C43
:102B20000000A36C0000A46C00000B6D00000C6D95
:102B30000000736D0000746D0000DC6D0000DD6D41
:102B40000000446E0000456E0000AC6E0000AD6EEB
:102B500000004D7000004E700000B5700000B670AF
:102B600000001D7100001E7100008571000086715B
:102B70000000ED7100008F730000F6730000F77322
:102B800000005E7400005F740000C6740000C7742B
:102B900000002F750000D0760000377700003877EE
:102BA0000000A0770000A1770000087800000978F5
:102BB000000070780000127A0000797A00007A7ABA
:102BC0000000E17A0000E27A0000497B00004A7BC5
:102BD0000000B17B0000537D0000BA7D0000BB7D8A
:102BE0000000227E0000237E00008A7E00008B7E93
:102BF0000000F37E000094800000FB800000FC8059
:102C000000006481000065810000CC810000CD815E
:102C1000000034820000D68300003D8400003E8422
:102C20000000A5840000A68400000D8500000E852C
:102C3000000075850000178700007E8700007F87F1
:102C40000000E6870000E78700004E8800004F88FC
:102C50000000B7880000588A0000BF8A0000C08AC0
:102C60000000288B0000298B0000908B0000918BC6
:102C70000000F88B00009A8D0000018E0000028E8B
:102C80000000698E00006A8E0000D18E0000D28E96
:102C90000000398F00003A8F00004B9300004C93E6
:102CA0000000B3930000B49300001B9400001C9438
:102CB00000008394000084940000EC940000ED94E4
:102CC00000005495000055950000BC950000BD958E
:102CD0000000CE990000CF9900009E9A00009F9AB4
:102CE00000006E9B00006F9B00003F9C0000409C1A
:102CF0000000B09E0000B19E0000809F0000819FF8
:102D00000000F1A10000F2A10000C1A20000C2A2D7
:102D10000000D3A60000D4A60000A3A70000A4A72B
:102D2000000074A8000075A8000044A9000045A98F
:102D30000000B5AB0000B6AB000085AC000086AC6F
:102D4000000056AD000057AD000026AE000027AED3
:102D50000000F6AE0000F7AE0000C7AF0000C8AF3D
:102D60000000D8B30000D9B30000A9B40000AAB491
:102D7000000079B500007AB5000049B600004AB6F7
:102D80000000EAB70000EBB700005BBA00005CBAD5
:102D900000002BBB00002CBB0000FCBB0000FDBBF7
:102DA0000000CCBC0000CDBC00006DBE00006EBEBB
:102DB0000000DEC00000DFC00000AEC10000AFC1F7
:102DC00000007EC200007FC200004FC3000050C35D
:102DD0000000C0C50000C1C5000090C6000091C63B
:102DE000000001C9000002C90000D1C90000D2C919
:102DF000000013CD000014CD0000E3CD0000E4CDB1
:102E00000000B3CE0000B4CE000084CF000085CF18
:102E1000000054D0000055D00000C5D20000C6D23A
:102E2000000095D3000096D3000006D6000007D618
:102E30000000D7D60000D8D60000E8DA0000E9DAB2
:102E40000000B9DB0000BADB000089DC00008ADC8E
:102E5000000059DD00005ADD0000CADF0000CBDFB2
:102E600000009BE000009CE000006BE100006CE1D2
:102E700000003BE200003CE200000CE300000DE338
:102E80000000DCE30000DDE30000EEE70000EFE718
:102E90000000BEE80000BFE800008EE900008FE9F6
:102EA00000005FEA000060EA0000FFEB000000ECB9
:102EB000000070EE000071EE000041EF000042EFF4
:102EC000000011F0000012F00000E1F00000E2F05C
:102ED000000082F2000083F20000F3F40000F4F43A
:102EE0000000C3F50000C4F5000094F6000095F65C
:102EF000000064F7000065F70000D5F90000D6F97E
:102F00000000A5FA0000A6FA000016FD000017FD5B
:102F10000000E7FD0000E8FD000028010100290194
:102F20000100C9020100CA020100990301009A03CD
:102F30000100690401006A0401003A0501003B0533
:102F400001000A0601000B060100DA060100DB069B
:102F50000100AB070100AC070100E3080100E40831
:102F600001001C0A01001D0A0100EC0A0100ED0A23
:102F70000100BC0B0100BD0B01008D0C01008E0C8B
:102F800001005D0D01005E0D01002D0E01002E0EF1
:102F90000100660F0100670F01009E1001009F10E5
:102FA00001009F1001006F1101006F1101007011ED
:102FB0000100A7120100A8120100E0130100E113B3
:102FC0000100B0140100B1140100E9150100E91578
:102FD00001002117010022170100F1170100F2176B
:102FE0000100D31C0100D41C0100A41D0100A51D7B
:102FF0000100741E0100751E0100441F0100451FE1
:1030000001001520010016200100E5200100E62046
:103010000100B5210100B6210100EE220100EF22DE
:1030200001002624010027240100F7240100F824D0
:103030000100C7250100C825010097260100982638
:10304000010068270100692701003828010039289C
:1030500001007129010071290100A92A0100AA2A91
:103060000100792B01007A2B0100B22C0100B32C56
:103070000100EA2D0100EB2D0100BB2E0100BC2E4A
:103080000100F32F0100F42F01002C3101002D313C
:103090000100FC310100FD3101006D3401006E348E
:1030A0000100DE360100DF360100AE370100AF3728
:1030B00001007F380100203A0100F03A0100F13AA6
:1030C0000100C03B0100C13B0100313E0100323E26
:1030D0000100013F0100023F01003A4001003B4076
:1030E000010072410100734101002547010026479C
:1030F0000100F5470100F6470100C5480100C64838
:103100000100364B0100374B0100074C0100084C11
:1031100001003F4D0100404D0100784E0100794E05
:1031200001002A5401002B540100FA540100FB5401
:103130000100CB550100CC5501003C5801003D5821
:1031400001000C5901000D590100455A0100455A72
:1031500001007D5B01007E5B01002F610100306199
:1031600001000062010001620100D0620100D16231
:103170000100A0630100A163010071640100726499
:103180000100416501004265010053690100546975
:103190000100356E0100366E0100056F0100066FFB
:1031A0000100D56F0100D66F010046720100477221
:1031B000010017730100187301004F74010050746F
:1031C000010088750100897501003A7B01003B7B95
:1031D00001000A7C01000B7C0100DB7C0100DC7C2F
:1031E00001004C7F01004D7F01001C8001001D800B
:1031F000010055810100558101008D8201008E8200
:1032000001003F88010040880100108901001189F8
:103210000100E0890100E1890100518C0100528C1C
:103220000100218D0100228D01005A8E01005B8E6C
:103230000100928F0100938F010045950100469592
:1032400001001596010016960100E5960100E6962C
:103250000100B6970100B797010086980100879892
:1032600001005699010057990100689D0100699D70
:103270000100A9A00100AAA0010012A1010012A151
:1032800001007AA101007BA10100E2A10100E3A1FC
:1032900001004AA201004BA201001AA301001BA3D6
:1032A000010083A3010083A30100EBA30100BCA4E0
:1032B00001008BA501008CA501005CA601005DA6A4
:1032C00001002CA701002DA7010094A7010095A7DC
:1032D0000100FCA70100FDA7010065A8010065A889
:1032E0000100CDA80100CEA8010035A9010036A932
:1032F00001009DA901009EA9010005AA010006AADE
:1033000001006DAA01006EAA0100F8AA0100F9AA45
:10331000010083AB010084AB01000EAC01000FACD7
:10332000010099AC01009AAC010024AD010025AD6B
:103330000100AFAD0100B0AD010017AE010018AE45
:1033400001007FAE010080AE0100E7AE0100E8AEF3
:1033500001004FAF010050AF0100B8AF0100B8AF9E
:10336000010020B0010021B0010088B0010089B047
:103370000100F0B00100F1B0010024B1010025B15D
:10338000010058B1010059B101008CB101008DB1AB
:103390000100C0B10100C1B1010029B2010029B290
:1033A00001005DB201005EB2010091B2010092B273
:1033B0000100F9B20100FAB2010061B3010062B389
:1033C0000100C9B30100CAB3010031B4010032B435
:1033D0000100CEB40100CFB401006AB501006BB5A5
:1033E0000100D2B50100D3B501006EB601006FB681
:1033F00001000BB701000BB7010073B7010074B7F0
:103400000100DBB70100DCB7010043B8010044B89C
:103410000100ABB80100ACB8010013B9010014B948
:103420000100E4B90100E5B90100B4BA0100B5BA80
:1034300001001CBB01001DBB010084BB010085BB5A
:103440000100EDBB0100EDBB010055BC010056BC05
:10345000010025BD010026BD01008DBD01008EBD0E
:103460000100F5BD0100F6BD01005EBE01005EBEBB
:103470000100C6BE0100C7BE01002EBF01002FBF64
:10348000010096BF010097BF0100FEBF0100FFBF12
:10349000010066C0010067C00100CFC00100CFC0BD
:1034A000010037C1010038C101009FC10100A0C166
:1034B000010007C2010008C201006FC2010070C212
:1034C0000100D7C20100D8C201000BC301000CC328
:1034D000010040C3010040C3010074C3010075C373
:1034E0000100A8C30100A9C3010010C4010011C458
:1034F000010078C4010079C40100E0C40100E1C406
:10350000010048C5010049C501007CC501007DC519
:103510000100B1C50100B1C50100E5C50100E6C566
:10352000010019C601001AC6010081C6010082C649
:103530000100E9C60100EAC6010051C7010052C7F7
:103540000100B9C70100BAC7010022C8010022C8A2
:1035500001008AC801008BC80100F2C80100F3C84D
:1035600001005AC901005BC90100C2C90100C3C9F9
:1035700001002ACA01002BCA010093CA010093CAA4
:103580000100FBCA0100FCCA010063CB010064CB4F
:103590000100CBCB0100CCCB010033CC010034CCFB
:1035A00001009BCC01009CCC010004CD010004CDA6
:1035B00001006CCD01006DCD01003CCE01003DCE7F
:1035C0000100A4CE0100A5CE01000CCF01000DCF5B
:1035D000010075CF010075CF0100DDCF0100DECF06
:1035E0000100ADD00100AED001007DD101007ED13F
:1035F0000100E6D10100E6D101004ED201004FD218
:103600000100B6D20100B7D201001ED301001FD3C2
:10361000010086D3010087D30100EED30100EFD370
:10362000010057D4010057D40100BFD40100C0D419
:10363000010027D5010028D501008FD5010090D5C4
:103640000100F7D50100F8D501005FD6010060D672
:103650000100C8D60100C8D6010030D7010031D71B
:10366000010098D7010099D7010000D80100D1D8F6
:103670000100A1D90100A2D9010071DA010072DABA
:10368000010041DB010042DB0100AADB0100AADBF3
:10369000010012DC010013DC01007ADC01007BDC9C
:1036A0000100E2DC0100E3DC01004ADD01004BDD4A
:1036B0000100B2DD0100B3DD01001BDE01001BDEF5
:1036C000010083DE010084DE01000EDF01000EDF59
:1036D000010099DF010099DF010023E0010024E0EF
:1036E0000100AEE00100AFE0010039E101003AE184
:1036F0000100C4E10100C5E101002CE201002DE25E
:10370000010094E2010095E20100FDE20100FDE20A
:10371000010065E3010066E30100CDE30100CEE3B3
:10372000010035E4010036E401009DE401009EE45F
:10373000010005E5010006E5010039E501003AE573
:1037400001006EE501006EE50100A2E50100A3E5C0
:103750000100D6E50100D7E501003EE601003FE6A5
:10376000010072E6010073E60100A6E60100A7E68B
:1037700001000EE701000FE7010076E7010077E79F
:103780000100DFE70100DFE7010047E8010048E84A
:103790000100E3E80100E4E801007FE9010080E9BD
:1037A0000100E7E90100E8E9010084EA010085EA97
:1037B000010020EB010021EB010088EB010089EB07
:1037C0000100F0EB0100F1EB010058EC010059ECB5
:1037D0000100C1EC0100C1EC010029ED01002AED5E
:1037E0000100F9ED0100FAED0100C9EE0100CAEE99
:1037F000010032EF010032EF01009AEF01009BEF70
:10380000010002F0010003F001006AF001006BF01A
:1038100001003AF101003BF10100A3F10100A3F125
:1038200001000BF201000CF2010073F2010074F2CE
:103830000100DBF20100DCF2010043F3010044F37C
:103840000100ABF30100ACF3010014F4010014F427
:1038500001007CF401007DF40100E4F40100E5F4D2
:1038600001004CF501004DF50100B4F50100B5F57E
:1038700001001CF601001DF6010085F6010085F629
:103880000100EDF60100EEF6010021F7010022F73C
:10389000010055F7010056F7010089F701008AF78A
:1038A0000100BDF70100BEF7010025F8010026F870
:1038B00001008DF801008EF80100F6F80100F6F81D
:1038C00001005EF901005FF9010092F9010093F92E
:1038D0000100C6F90100C7F90100FAF90100FBF97E
:1038E00001002EFA01002FFA010096FA010097FA62
:1038F0000100FEFA0100FFFA010067FB010067FB0F
:103900000100CFFB0100D0FB010037FC010038FCB7
:1039100001009FFC0100A0FC010007FD010008FD63
:1039200001006FFD010070FD0100D8FD0100D8FD10
:10393000010040FE010041FE0100A8FE0100A9FEB9
:10394000010010FF010011FF010078FF010079FF65
:103950000100E0FF0100E1FF010049000200490011
:103960000200B1000200B2000200190102001A01B7
:103970000200810102008201020051020200520293
:103980000200BA020200BA0202002203020023036C
:1039900002008A0302008B030200F2030200F30319
:1039A0000200C2040200C304020093050200940551
:1039B0000200150C020000000000000000000000E2
:1039C000870100006E0200004B0200005D01000054
:1039D000870100006E0200004B0200005D01000044
:1039E000870100006E0200004B0200005D01000034
:1039F000870100006E020000870100006E020000D7
:103A00004B0200005D010000870100006E02000013
:103A10004B0200005D010000870100006E02000003
:103A20004B0200005D0100008701000087010000DB
:103A30000B0200004B0200006E020000BA02000000
:103A40004B0200006E0200000B0200008701000024
:103A50000B0200004B0200006E020000BA020000E0
:103A60004B020000A40300000F0300000F0300003E
:103A7000A403000016040000BA020000BA0200000D
:103A8000BA0200000F030000A40300006E02000051
:103A90006E0200000B0200000B0200004B0200004F
:103AA0006E020000BA0200004B020000ED010000AF
:103AB0000B0200004B0200006E0200004B020000EF
:103AC0006E0200004B0200000B02000087010000A4
:103AD0009F010000B8010000050100002501000061
:103AE00037010000B80100000501000025010000B9
:103AF000370100009F0100000501000025010000C2
:103B000037010000870100000501000025010000C9
:103B1000370100009F0100000501000025010000A1
:103B200037010000B8010000050100002501000078
:103B3000370100009F010000050100002501000081
:103B40003701000087010000050100002501000089
:103B5000370100009F010000050100002501000061
:103B600037010000B8010000050100002501000038
:103B7000370100009F010000DC04000096040000F3
:103B800016040000A40300003E0300000F03000021
:103B9000BA02000070030000870100000B02000061
:103BA0004B0200006E020000BA0200004B0200004F
:103BB0006E0200000B020000870100000B020000F3
:103BC0004B0200006E020000BA0200004B0200002F
:103BD0000B020000D2010000A40300000F0300004C
:103BE0000F030000A403000016040000BA02000046
:103BF000BA020000BA0200000F030000A403000094
:103C00006E0200006E0200000B0200000B020000BA
:103C10004B0200006E020000BA0200004B020000DE
:103C2000ED0100000B0200004B0200006E020000DC
:103C30006E020000BA0200000F030000A40300009F
:103C4000BA0200000F0300006E0200006E020000C6
:103C50006E020000BA0200000F030000A40300007F
:103C6000A403000016040000A4030000A403000045
:103C7000700300007003000096040000DC040000E4
:103C80003E0300003E0300003E030000A4030000CA
:103C9000160400000F0300000F0300006E02000076
:103CA0006E020000BA0200000F030000A40300002F
:103CB000BA0200004B0200006E020000BA020000CF
:103CC000B80100000B0200004B0200000B020000D4
:103CD0004B0200000B0200004B020000BA02000081
:103CE000930200004B0200000B0200004B02000098
:103CF0000B0200004B020000700300000F0387015D
:103D000000000000BA020000930200004B02000015
:103D10002A020000B801000087010000B80100007D
:103D2000B80100000B0200004B0200000B02000073
:103D30004B0200000B0200004B020000BA02000020
:103D4000930200004B0200000B0200004B02000037
:103D50000B0200004B020000700300000F03000084
:103D6000BA020000930200004B0200009302000020
:103D7000BA0200000F03000070030000700300008F
:103D80007003000070030000E30200005404000010
:103D9000DB030000700300003E03000093020000FC
:103DA000E3020000E302000054040000DB03000013
:103DB000700300003E0300002605000054040000CC
:103DC000E302000054040000DB0300007003000065
:103DD0003E03000093020000E3020000E302000043
:103DE0003E030000700300003E0300009302000049
:103DF000E302000054040000E30200005404000049
:103E0000DB030000700300003E030000930200008B
:103E1000E3020000E302000054040000DB030000A2
:103E2000700300003E03000026050000540400005B
:103E3000E302000054040000DB03000070030000F4
:103E40003E03000093020000E3020000E3020000D2
:103E50003E030000700300003E03000093020000D8
:103E6000E302000054040000E302000070030000BD
:103E7000DB030000540400003E0300009302000036
:103E8000E302000093020000E30200003E03000092
:103E9000E3020000DB03000070030000DB0300000E
:103EA0003E030000DB030000E3020000700300009B
:103EB000E302000054040000DB030000E302000002
:103EC00054040000DB0300003E0300007003000008
:103ED000E30200003E0300007003000093020000B4
:103EE000E30200002A0200002A020000E3020000B0
:103EF0002A020000E30200002A020000ED01000097
:103F000093020000E3020000ED0100002A0200001D
:103F1000B8010000ED0100009F010000B8010000A1
:103F2000710100009F0100004901000071010000C3
:103F30004901000015010000490100007101000065
:103F40002A020000ED010000B80100009F010000FE
:103F50004901000071010000710100009F01000093
:103F6000710100009F010000B8010000ED01000098
:103F70002A02000093020000E30200002A0200006F
:103F80003E0300002A02000070030000DB03000073
:103F900070030000DB0300003E030000700300001C
:103FA000930200006E020000ED010000B801000065
:103FB00037010000710100009F010000B8010000FE
:103FC000ED010000B8010000ED0100006E020000EC
:103FD000930200003E03000070030000DB030000BA
:103FE000700300003E030000E302000093020000A3
:103FF000E3020000930200002A020000E302000036
:10400000930200002A020000E302000054040000B2
:10401000DB0300007003000054040000DB03000019
:104020003E0300002A020000B80100009F010000CA
:104030007101000015010000DC000000CF0000004D
:10404000B80000008A000000B8000000CF000000A7
:10405000DC00000015010000710100009F0100005C
:10406000B801000026050000C70500007D0600001D
:10407000C7050000B7070000E0060000B707000012
:10408000C7050000B707000026050000E006000095
:104090007D060000A9080000B70700007D060000AB
:1040A000A9080000B70700007D060000E006000038
:1040B000C70500007D060000E006000026050000A0
:1040C000C70500005404000054040000C7050000A8
:1040D00054040000C705000054040000DB03000086
:1040E00026050000C7050000DB03000054040000A3
:1040F00070030000DB0300003E03000070030000BB
:10410000E30200003E03000093020000E30200000F
:10411000930200002A02000093020000E302000064
:1041200054040000DB030000700300003E030000A5
:1041300093020000E3020000E30200003E030000DF
:10414000E30200003E03000070030000DB030000F8
:104150005404000026050000C705000054040000B8
:104160007D06000054040000E0060000B7070000D0
:10417000E0060000B70700007D060000E006000032
:1041800026050000DC040000DB03000070030000D3
:104190006E020000E30200003E0300007003000016
:1041A000DB03000070030000DB030000DC04000000
:1041B000260500007D060000E0060000B7070000AD
:1041C000E00600007D060000C7050000260500008F
:1041D000C70500002605000054040000C7050000C4
:1041E0002605000054040000C7050000A9080000CF
:1041F000B7070000E0060000A9080000B7070000AC
:104200007D060000E30200000000000024002700FB
:104210002A0000000000250028002B0002010000F9
:104220000000002300260029000404040404040400
:104230000402020202020203030303030301020455
:104240000810204080010204081020010204081018
:104250002000000008000201000003040700000025
:104260000000000000009E2911241FBECFEFD8E0FF
:10427000DEBFCDBF11E0A0E0B1E0E8E2F4E502C0AE
:1042800005900D92A633B107D9F722E0A6E3B1E07D
:1042900001C01D92A631B207E1F711E2C4E3D1E2F9
:1042A00004C02197FE010E940C2AC333D107C9F72D
:1042B0000E941F250C94122A0C940000AF92BF920A
:1042C000CF92DF92EF92FF920F931F93CF93DF93E2
:1042D0006C017B018B01040F151FEB015E01AE1811
:1042E000BF08C017D10759F06991D601ED91FC9133
:1042F0000190F081E02DC6010995892B79F7C50160
:10430000DF91CF911F910F91FF90EF90DF90CF90B1
:10431000BF90AF900895FC01538D448D252F30E060
:10432000842F90E0821B930B541710F0CF960895C2
:1043300001970895FC01918D828D981761F0A28DEF
:10434000AE0FBF2FB11D5D968C91928D9F5F9F73B5
:10435000928F90E008958FEF9FEF0895FC01918D6B
:10436000828D981731F0828DE80FF11D858D90E0D8
:1043700008958FEF9FEF0895FC01918D228D892F75
:1043800090E0805C9F4F821B91098F73992708955D
:1043900089E791E00E94BC2121E0892B09F420E00B
:1043A000822F089580E090E0892B29F00E94C82197
:1043B00081110C9400000895FC01A48DA80FB92F61
:1043C000B11DA35ABF4F2C91848D90E001968F733D
:1043D0009927848FA689B7892C93A089B1898C915C
:1043E000837080648C93938D848D981306C00288AB
:1043F000F389E02D80818F7D80830895EF92FF9275
:104400000F931F93CF93DF93EC0181E0888F9B8DF7
:104410008C8D98131AC0E889F989808185FF15C0B1
:104420009FB7F894EE89FF896083E889F9898081D4
:104430008370806480839FBF81E090E0DF91CF91A3
:104440001F910F91FF90EF900895F62E0B8D10E0C5
:104450000F5F1F4F0F731127E02E8C8D8E110CC034
:104460000FB607FCFACFE889F989808185FFF5CF7F
:10447000CE010E94DC21F1CFEB8DEC0FFD2FF11D61
:10448000E35AFF4FF0829FB7F8940B8FEA89FB89BC
:1044900080818062CFCFCF93DF93EC01888D88231A
:1044A000B9F0AA89BB89E889F9898C9185FD03C097
:1044B000808186FD0DC00FB607FCF7CF8C9185FF7C
:1044C000F2CF808185FFEDCFCE010E94DC21E9CFC4
:1044D000DF91CF910895833081F028F4813099F0F5
:1044E0008230A9F008958730A9F08830C9F084306F
:1044F000B1F4809180008F7D03C0809180008F7720
:1045000080938000089584B58F7784BD089584B525
:104510008F7DFBCF8091B0008F778093B00008959E
:104520008091B0008F7DF9CFCF93DF93E1E5F2E486
:104530008491EDE3F2E4D491E9E2F2E4C491CC2376
:10454000A1F081110E946B22EC2FF0E0EE0FFF1F13
:10455000E15EFD4BA591B491EC91ED2381E090E0FB
:1045600009F480E0DF91CF91089580E090E0FACFE8
:104570001F93CF93DF93282F30E0F901EF5AFD4BC3
:104580008491F901E35CFD4BD491F901E75DFD4BAA
:10459000C491CC23A9F0162F81110E946B22EC2F1D
:1045A000F0E0EE0FFF1FEE5EFD4BA591B4918FB7CB
:1045B000F894EC91111108C0D095DE23DC938FBFE5
:1045C000DF91CF911F910895DE2BF8CFCF93DF932A
:1045D00090E0FC01E35CFD4B2491875D9D4BFC0169
:1045E00084918823D1F090E0880F991FFC01E85F47
:1045F000FD4BA591B491FC01EE5EFD4BC591D491AC
:10460000623071F49FB7F8943C91822F8095832398
:104610008C93E8812E2B28839FBFDF91CF91089543
:104620008FB7F894EC912E2B2C938FBFF6CF3FB71A
:10463000F8948091370190913801A0913901B0919F
:104640003A0126B5A89B05C02F3F19F00196A11D80
:10465000B11D3FBFBA2FA92F982F8827BC01CD01CC
:10466000620F711D811D911D42E0660F771F881F2B
:10467000991F4A95D1F708950C941723FC01918155
:10468000913069F0923089F0911105C090916E00DF
:104690009D7F90936E0060E080810C94B822909191
:1046A0006F009D7F90936F00F6CF909170009D7F7B
:1046B00090937000F0CFCF93DF93FC010190002026
:1046C000E9F73197AF01481B590BBC0189E791E02D
:1046D0000E945E21EC0142E050E062E271E089E775
:1046E00091E00E945E218C0F9D1FDF91CF91089574
:1046F0001F920F920FB60F9211242F933F934F9357
:104700005F936F937F938F939F93AF93BF93EF9339
:10471000FF9389E791E00E94DC21FF91EF91BF9127
:10472000AF919F918F917F916F915F914F913F9149
:104730002F910F900FBE0F901F9018951F920F9200
:104740000FB60F9211242F938F939F93EF93FF93A4
:10475000E0918901F0918A018081E0918F01F091CF
:10476000900182FD1BC09081809192018F5F8F73B9
:1047700020919301821741F0E0919201F0E0E75817
:10478000FE4F958F80939201FF91EF919F918F91B2
:104790002F910F900FBE0F901F9018958081F4CF2E
:1047A0001F920F920FB60F9211242F933F938F9366
:1047B0009F93AF93BF938091450190914601A09143
:1047C0004701B09148013091360123E0230F2D3786
:1047D00058F50196A11DB11D209336018093450126
:1047E00090934601A0934701B0934801809137010F
:1047F00090913801A0913901B0913A010196A11D23
:10480000B11D8093370190933801A0933901B09383
:104810003A01BF91AF919F918F913F912F910F904E
:104820000FBE0F901F90189526E8230F0296A11D2A
:10483000B11DD2CF1F920F920FB60F9211242F935A
:104840003F938F939F93AF93BF93EF93FF93809189
:10485000490190914A01A0914B01B0914C01009700
:10486000A105B10531F130913B01E0913C01F0919E
:104870003D01208123272083181619061A061B06DE
:104880001CF40197A109B1098093490190934A0151
:10489000A0934B01B0934C01FF91EF91BF91AF9169
:1048A0009F918F913F912F910F900FBE0F901F906E
:1048B0001895209170002D7F2093700020913B016E
:1048C000E0913C01F0913D0130812095232320832C
:1048D000DBCF1F920F920FB60F9211248F939F93ED
:1048E000AF93BF93EF93FF9380914D0190914E0151
:1048F000A0914F01B0915001892B8A2B8B2BA1F1F4
:1049000090913E01E0913F01F09140018081892723
:10491000808380914D0190914E01A0914F01B09103
:104920005001181619061A061B069CF480914D01B9
:1049300090914E01A0914F01B09150010197A109B2
:10494000B10980934D0190934E01A0934F01B09314
:104950005001FF91EF91BF91AF919F918F910F9077
:104960000FBE0F901F90189580916F008D7F8093E0
:104970006F0080913E01E0913F01F09140019081F4
:10498000809589238083E5CF1F920F920FB60F92F7
:1049900011248F939F93AF93BF93EF93FF938091D5
:1049A000510190915201A0915301B0915401892B72
:1049B0008A2B8B2BA1F190914101E0914201F09162
:1049C0004301808189278083809151019091520118
:1049D000A0915301B0915401181619061A061B062E
:1049E0009CF48091510190915201A0915301B0919A
:1049F00054010197A109B10980935101909352018B
:104A0000A0935301B0935401FF91EF91BF91AF91E7
:104A10009F918F910F900FBE0F901F9018958091CE
:104A20006E008D7F80936E0080914101E091420184
:104A3000F09143019081809589238083E5CFCF93C6
:104A4000DF93CDB7DEB72A970FB6F894DEBF0FBE5F
:104A5000CDBF789484B5826084BD84B5816084BD07
:104A600085B5826085BD85B5816085BD80916E000C
:104A7000816080936E00109281008091810082603D
:104A8000809381008091810081608093810080917A
:104A900080008160809380008091B1008460809369
:104AA000B1008091B00081608093B00080917A0065
:104AB000846080937A0080917A00826080937A008B
:104AC00080917A00816080937A0080917A0080687A
:104AD00080937A001092C100E0918901F0918A01DF
:104AE00082E08083E0918501F09186011082E0915F
:104AF0008701F09188018FEC808310929101E09101
:104B00008D01F0918E0186E08083E0918B01F09120
:104B10008C01808180618083E0918B01F0918C0118
:104B2000808188608083E0918B01F0918C0180818D
:104B300080688083E0918B01F0918C0180818F7D72
:104B4000808362E080E00E94E62261E08DE00E94C6
:104B5000E62261E089E00E94E62261E08AE00E94AC
:104B6000E622A5E5B1E005E711E069E671E04DE672
:104B700051E029E531E082E1282E81E0382EFF2442
:104B8000FA94F10186819781F90191838083FA017A
:104B90001192119211921192AF01FB011192119297
:104BA000BF01F801119211928F01F1019081809162
:104BB0004401833008F01FC19C93E82FF0E0E45ECD
:104BC000FD4BE4911196EC9311978F5F8093440114
:104BD000E13009F4C4C008F4A2C0E23009F4E5C031
:104BE000F90180819181FC01E150F04CCF01880FE7
:104BF000991F880F991FF101C480D580F601E80F35
:104C0000F91F459055906590749080905D0190904B
:104C10005E01A0905F01B090600184149504A60429
:104C2000B70410F45301420180925D0190925E013D
:104C3000A0925F01B0926001F8E02F0E311C2E5F50
:104C40003F4F129682E2281681E0380609F099CF8C
:104C50000E943C2360E08DE00E94B82200E010E05A
:104C60000E9494229C838B83019711F00B831C83F9
:104C70000E9494229A838983892B09F0C0C0AB815A
:104C8000BC81119709F0BBC061E08DE00E94B822A1
:104C900085E291E00E945B2369E671E00DE6C02E9B
:104CA00001E0D02E45E751E0A2E1B1E01496ED908D
:104CB000FC901597FA0180819181FC01EE0FFF1F96
:104CC000EE0FFF1FEE0DFF1D0591159125913491FB
:104CD000F6010083118322833383FA01208131811D
:104CE00089010F5F1F4FC801880F991F880F991FF7
:104CF0008E0D9F1DFC0185909590A590B490F601B6
:104D00004080518062807380481459046A047B0497
:104D100009F078C0FA0111830083FC01D5CF14BCDF
:104D200015BC84B5826084BD85B5816085BD8C91DC
:104D300090E0FC01E75DFD4BE491F0E0EE0FFF1F1A
:104D4000EE5EFD4BC590D490D0924301C0924201DB
:104D5000FC01E35CFD4BE491E093410141CF1092F3
:104D60008000109281008091810088608093810092
:104D7000809181008160809381008C9190E0FC01A2
:104D8000E75DFD4BE491F0E0EE0FFF1FEE5EFD4BA3
:104D9000C590D490D0924001C0923F01FC01E35CE9
:104DA000FD4BE491E0933E011BCF1092B0001092B6
:104DB000B1008091B00082608093B0008091B1001A
:104DC00081608093B1008C9190E0FC01E75DFD4B28
:104DD000E491F0E0EE0FFF1FEE5EFD4BC590D49026
:104DE000D0923D01C0923C01FC01E35CFD4BE4919B
:104DF000E0933B01F5CE1196FC921197F1CE0B8119
:104E00001C812ECF90E080E01216130664F421502E
:104E10003048220F331F1296ED91FC911397E20F49
:104E2000F31F85919491FB0181939193BF01189693
:104E30004E5F5F4FF4E0CF0ED11C81E0A232B80785
:104E400009F034CF2FB7F894809145019091460135
:104E5000A0914701B09148012FBF809365019093C5
:104E60006601A0936701B09368011E821D82409184
:104E700061015091620160916301709164018091C0
:104E80005D0190915E01A0915F01B0916001841776
:104E90009507A607B70708F42AC2AD81BE8111970E
:104EA00009F425C22FB7F8948091450190914601ED
:104EB000A0914701B09148012FBF409165015091E9
:104EC00066016091670170916801841B950BA60BC8
:104ED000B70B8093610190936201A0936301B0933B
:104EE0006401E5E5F1E0FA87E9877DE6272E71E0C8
:104EF000372E89E591E09C838B83E5E7CE2EE1E0B8
:104F0000DE2EF12CE12CAB81BC818D919D91BC8377
:104F1000AB83F60120813181281739070CF0E2C1FB
:104F20000E949422019721F481E090E09A83898382
:104F30000E949422892B61F4A981BA81119741F4CE
:104F400080E391E00E945B23E1E0F0E0FE83ED83EB
:104F5000C70187599E4F98878F83DC018D909C9065
:104F6000181419040CF0B9C1E985FA85818187FD0F
:104F700002C161E080810E94E622A985BA8511966E
:104F80001C91092C000CAA08BB08812F8D7F09F009
:104F900052C160E072E18AE790E0A50194010E94AD
:104FA000CB2929013A01DA01C9010197A109B10907
:104FB0008F3F9105A105B10509F00CF4B8C060E47C
:104FC00072E48FE090E0A50194010E94CB2921506A
:104FD000310941095109123009F06AC082E02F3FBE
:104FE00031054105510509F00CF45BC060E970ED35
:104FF00083E090E0A50194010E94CB292150310962
:105000004109510983E02F3F31054105510509F060
:105010000CF447C068E478EE81E090E0A5019401CB
:105020000E94CB29215031094109510984E02F3FC9
:10503000310541055105A9F1A4F164E274EF80E066
:1050400090E0A50194010E94CB292150310941092A
:10505000510985E02F3F31054105510511F108F156
:1050600062E17AE780E090E0A50194010E94CB29FB
:10507000215031094109510986E02F3F3105410591
:10508000510579F070F09AE07594679457944794BD
:105090009A95D1F7A3019201215031094109510993
:1050A00087E09091B100987F892B8093B10047C031
:1050B0002F3F31054105510509F00CF4BAC068E4F1
:1050C00078EE81E090E0A50194010E94CB29215067
:1050D00031094109510984E01111BCCF83E02F3F10
:1050E00031054105510539F134F162E17AE780E09B
:1050F00090E0A50194010E94CB292150310941097A
:10510000510984E02F3F310541055105A1F098F088
:105110008AE075946794579447948A95D1F7A301D0
:105120009201215031094109510985E004C09C01D7
:1051300081E01111B6CF95B5987F892B85BDE985A2
:10514000FA858181813009F4A0C0823009F4B2C0AF
:10515000811111C027BD8FEF9FEFDC0180935101BA
:1051600090935201A0935301B093540180916E002B
:10517000826080936E00D1014D915D916D917C9123
:105180008091610190916201A0916301B0916401ED
:1051900084179507A607B70708F437C0F6012081E2
:1051A0003181C901019691838083EB81FC81329723
:1051B000408151818417950744F5D701AA0FBB1F81
:1051C000AA0FBB1FAE5EBE4F220F331F1296ED918A
:1051D000FC911397E20FF31F45915491EF81F885ED
:1051E00051834083880F991F880F991F1496ED9162
:1051F000FC91E80FF91F4591559165917491D1018A
:105200004D935D936D937C931397B2E0CB0ED11CBD
:10521000E4E02E0E311C89859A8502969A8789874B
:1052200092E0E90EF11CA4E0EA16F10409F41FCEA5
:105230006ACE82E07ECF60E072E18AE790E0A5016D
:1052400094010E94CB29215031094109510991E073
:1052500021153105B1E04B0751056CF068E478EE9B
:1052600081E090E0A50194010E94CB2921503109F1
:105270004109510993E0113009F061CF809181001B
:10528000887F892B809381005ACF309389002093A7
:1052900088008FEF9FEFDC0180934D0190934E01CA
:1052A000A0934F01B093500180916F008260809372
:1052B0006F0061CF2093B3008FEF9FEFDC018093ED
:1052C000490190934A01A0934B01B0934C01809106
:1052D00070008260809370004ECF89859A850E940D
:1052E0003E2349CF89859A850E943E238ECF109216
:1052F0006101109262011092630110926401109298
:1053000076011092750185E591E00E943E2310928E
:1053100078011092770187E591E00E943E230E9478
:105320003C2380E090E0892B09F494CC0E94C821B2
:10533000882309F48FCC0E9400008CCCE9E7F1E0CF
:105340001382128288EE93E0A0E0B0E0848395831C
:10535000A683B78384E091E09183808385EC90E01D
:105360009587848784EC90E09787868780EC90E02F
:10537000918B808B81EC90E0938B828B82EC90E020
:10538000958B848B86EC90E0978B868B118E128E9A
:10539000138E148E0895052E97FB1EF400940E9420
:1053A000E22957FD07D00E94EA2907FC03D04EF4FA
:1053B0000C94E22950954095309521953F4F4F4FE1
:1053C0005F4F089590958095709561957F4F8F4FB1
:1053D0009F4F0895A1E21A2EAA1BBB1BFD010DC011
:1053E000AA1FBB1FEE1FFF1FA217B307E407F50795
:1053F00020F0A21BB30BE40BF50B661F771F881F71
:10540000991F1A9469F760957095809590959B0106
:10541000AC01BD01CF010895EE0FFF1F0590F4917F
:08542000E02D0994F894FFCF80
:1054280000000000FE215E218B214B22BC219A2125
:10543800AE210C00B639122929040900841B680022
:10544800C7060D0A00506C6179696E672E2E2E0012
:06545800736B6970000097
:00000001FF
