:100000000C94851B0C94AD1B0C94AD1B0C94AD1B78
:100010000C94AD1B0C94AD1B0C94AD1B0C946B1E7F
:100020000C94AD1B0C94AD1B0C94AD1B0C94BA1E20
:100030000C94AD1B0C94AD1B0C94151F0C94AD1BB4
:100040000C94211E0C94AD1B0C94EF1D0C94C91D37
:100050000C94AD1B0C94AD1B0C94AD1B0C94AD1B00
:100060000C94AD1B0C94AD1B0000000000000000C0
:10007000900B00002C0C0000BD1700005918000068
:10008000E9230000862400004E2A00009D2A00007B
:10009000802D0000A82D0000042E0000092E000075
:1000A000652E00006B2E000095300000B33000007C
:1000B0006B310000763100002E3200003932000032
:1000C000F1320000FB320000B4330000BE33000008
:1000D00076340000813400003935000044350000DA
:1000E000FC35000007360000BF360000C9360000AE
:1000F000823700008C370000453800004F38000080
:100100000739000012390000CA390000D539000053
:100110008D3A0000973A0000503B00005A3B000027
:10012000133C00001D3C0000D53C0000E03C0000FA
:10013000983D0000A33D00005B3E0000663E0000CD
:100140001E3F0000283F0000E13F0000EB3F0000A1
:10015000A3400000AE400000664100007141000075
:100160002942000034420000EC420000F642000048
:10017000AF430000B9430000714400007C4400001C
:10018000344500003F450000F745000002460000EE
:10019000BA460000C44600007D47000087470000C3
:1001A0003F4800004A480000024900000D49000095
:1001B000C5490000D0490000884A0000924A00006A
:1001C0004B4B0000554B00000D4C0000184C00003C
:1001D000D04C0000DB4C0000934D00009E4D000011
:1001E000564E0000604E0000194F0000234F0000E3
:1001F000DB4F0000E64F00009E500000A9500000B9
:10020000615100006C510000245200002E52000089
:10021000E7520000F1520000A9530000B45300005F
:100220006C540000775400002F5500003A55000030
:10023000F2550000FC550000B5560000BF56000006
:1002400078570000825700003A58000045580000D7
:10025000FD58000008590000C0590000CA590000AC
:10026000835A00008D5A0000465B0000505B00007E
:10027000085C0000135C0000CB5C0000D65C000052
:100280008E5D0000995D0000515E00005B5E000025
:10029000145F00001E5F0000D65F0000E15F0000F9
:1002A00099600000A46000005C61000067610000CC
:1002B0001F62000029620000E2620000EC620000A0
:1002C000A4630000AF630000676400007264000074
:1002D0002A65000035650000ED650000F765000047
:1002E000B0660000BA660000726700007D6700001B
:1002F0003568000040680000F868000003690000ED
:10030000BB690000C56900007E6A0000886A0000C1
:10031000406B00004B6B0000036C00000E6C000093
:10032000C66C0000D16C0000896D0000936D000068
:100330004C6E0000566E00000E6F0000196F00003A
:10034000D16F0000DC6F0000947000009F7000000F
:1003500057710000617100001A72000024720000E1
:10036000DD720000E77200009F730000AA730000B6
:10037000627400006D740000257500002F75000088
:10038000E8750000F2750000AB760000B57600005D
:100390006D77000078770000307800003B7800002F
:1003A000F3780000FD780000B6790000C079000005
:1003B000797A0000837A00003B7B0000467B0000D6
:1003C000FE7B0000097C0000C17C0000CC7C0000AA
:1003D000847D00008E7D0000477E0000517E00007D
:1003E000097F0000147F0000CC7F0000D77F000051
:1003F0008F8000009A800000528100005C81000024
:10040000158200001F820000D7820000E2820000F7
:100410009A830000A58300005D84000068840000CA
:10042000208500002A850000E3850000ED8500009E
:10043000A5860000B0860000688700007387000072
:100440002B88000036880000EE880000F888000045
:10045000B1890000BB890000738A00007E8A000019
:10046000368B0000418B0000F98B0000048C0000EB
:10047000BC8C0000C68C00007F8D0000898D0000C0
:10048000418E00004C8E0000048F00000F8F000092
:10049000C78F0000D28F00008A9000009490000067
:1004A0004D91000057910000109200001A92000038
:1004B000D2920000DD92000095930000A09300000E
:1004C00058940000629400001B95000025950000E0
:1004D000DE950000E8950000A0960000AB960000B5
:1004E000639700006E970000269800003098000087
:1004F000E9980000F3980000AC990000B69900005C
:100500006E9A0000799A0000319B00003C9B00002D
:10051000F49B0000FF9B0000B79C0000C19C000002
:100520007A9D0000849D00003C9E0000479E0000D4
:10053000FF9E00000A9F0000C29F0000CD9F0000A8
:1005400085A000008FA0000048A1000052A100007B
:100550000AA2000015A20000CDA20000D8A200004F
:1005600090A300009BA3000053A400005DA4000022
:1005700016A5000020A50000D8A50000E3A50000F6
:100580009BA60000A6A600005EA7000069A70000C9
:1005900021A800002BA80000E4A80000EEA800009D
:1005A000A6A90000B1A9000069AA000074AA000071
:1005B0002CAB000037AB0000EFAB0000F9AB000044
:1005C000B2AC0000BCAC000074AD00007FAD000018
:1005D00037AE000042AE0000FAAE000005AF0000EA
:1005E000BDAF0000C7AF000080B000008AB00000BF
:1005F00043B100004DB1000005B2000010B2000090
:10060000C8B20000D3B200008BB3000095B3000065
:100610004EB4000058B4000011B500001BB5000036
:10062000D3B50000DEB5000096B60000A1B600000C
:1006300059B7000064B700001CB8000026B80000DD
:10064000DFB80000E9B80000A1B90000ACB90000B3
:1006500064BA00006FBA000027BB000032BB000084
:10066000EABB0000F4BB0000ADBC0000B7BC00005A
:100670006FBD00007ABD000032BE00003DBE00002C
:10068000F5BE000000BF0000B8BF0000C2BF000000
:100690007BC0000085C000003DC1000048C10000D3
:1006A000D9C100000BC200006CC200006CC2000087
:1006B000C8C20000CEC2000086C3000090C3000084
:1006C00049C4000053C400000BC5000016C500005B
:1006D000CEC50000D9C5000091C600009CC6000030
:1006E00054C700005EC70000F0C7000021C800002A
:1006F00083C8000083C80000DEC80000E4C8000012
:100700009CC90000A7C900005FCA00006ACA0000B7
:1007100022CB00002CCB0000E5CB0000EFCB00008B
:10072000A7CC0000B2CC00006ACD000075CD00005F
:100730002DCE000038CE0000F0CE0000FACE000032
:10074000B3CF0000BDCF000076D0000080D0000005
:1007500038D1000043D10000FBD1000006D20000D8
:10076000BED20000C8D2000081D300008BD30000AD
:1007700044D400004ED4000006D5000011D500007E
:10078000C9D50000D4D500008CD6000097D6000053
:100790004FD7000059D7000012D800001CD8000025
:1007A000D4D80000DFD8000097D90000A2D90000FB
:1007B0005ADA000065DA00001DDB000027DB0000CC
:1007C000E0DB0000EADB0000A2DC0000ADDC0000A2
:1007D00065DD000070DD000028DE000033DE000073
:1007E000EBDE0000F5DE0000AEDF0000B8DF000049
:1007F00070E000007BE0000033E100003EE100001B
:10080000F6E1000001E20000B9E20000C3E20000EE
:100810007CE3000086E300003EE4000049E40000C1
:1008200001E500000CE50000C4E50000CFE5000094
:1008300087E6000091E600004AE7000054E7000068
:100840000CE8000017E80000CFE80000DAE800003C
:1008500092E900009DE9000055EA00005FEA00000F
:1008600018EB000022EB0000DAEB0000E5EB0000E3
:100870009DEC0000A8EC000060ED00006BED0000B6
:1008800023EE00002DEE0000E6EE0000F0EE00008A
:10089000A9EF0000B3EF00006BF0000076F000005D
:1008A00038F1000039F100009AF100009AF10000DF
:1008B000FBF10000FBF10000B4F20000BEF200000A
:1008C00077F3000081F3000039F4000044F40000E5
:1008D000FCF4000007F50000BFF50000CAF50000B9
:1008E00082F600008CF6000045F700004FF700008C
:1008F00007F8000012F80000A3F80000D5F8000087
:1009000036F9000036F9000092F9000098F900006D
:1009100050FA00005AFA000013FB00001DFB000013
:10092000D5FB0000E0FB000098FC0000A3FC0000E9
:100930005BFD000066FD00001EFE000028FE0000BA
:10094000E1FE0000EBFE0000A3FF0000AEFF000090
:10095000660001007100010029010100340101005D
:10096000EC010100F6010100AF020100B902010033
:10097000710301007C030100340401003F04010005
:10098000F704010002050100BA050100C4050100D9
:100990007D060100870601003F0701004A070100AC
:1009A000020801000D080100C5080100D00801007F
:1009B0009209010092090100F4090100F409010003
:1009C000550A0100550A01000E0B0100180B010029
:1009D000D00B0100DB0B0100930C01009E0C010009
:1009E000560D0100600D0100190E0100230E0100DB
:1009F000DC0E0100E60E01009E0F0100A90F0100B0
:100A0000611001006C100100241101002E11010081
:100A1000E7110100F1110100AA120100B412010056
:100A20006C130100771301002F1401003A14010028
:100A3000F2140100FD140100B5150100BF150100FD
:100A400078160100821601003A17010045170100CF
:100A5000FD17010008180100C0180100CB180100A3
:100A6000831901008D190100461A0100501A010076
:100A7000081B0100131B0100CB1B0100D61B01004A
:100A80008E1C0100991C0100511D01005B1D01001D
:100A9000141E01001E1E0100E62301003524010082
:100AA000C52F010061300100F23B01008E3C0100C6
:100AB0001F480100BB480100834E0100D24E0100D7
:100AC000B5510100DD510100C0540100E85401009E
:100AD000A0550100AB550100635601006E560100A0
:100AE0002657010031570100E9570100F357010073
:100AF000AC580100B65801006E5901007959010047
:100B0000315A01003C5A0100F45A0100FF5A010019
:100B1000B75B0100C15B01007A5C0100845C0100ED
:100B20003C5D0100475D0100FF5D01000A5E0100C0
:100B3000C25E0100CD5E0100855F01008F5F010094
:100B400048600100526001000A6101001561010066
:100B5000CD610100D8610100906201009B6201003B
:100B6000536301005D63010016640100206401000D
:100B7000D8640100E36401009B650100A6650100E3
:100B80005E66010069660100216701002B670100B4
:100B9000E4670100EE670100A7680100B168010089
:100BA00069690100746901002C6A0100376A01005B
:100BB000EF6A0100F96A0100B26B0100BC6B010031
:100BC000756C01007F6C0100376D0100426D010002
:100BD000FA6D0100056E0100BD6E0100C86E0100D6
:100BE000806F01008A6F0100437001004D700100A9
:100BF0000571010010710100C8710100D37101007D
:100C00008B720100967201004E730100587301004F
:100C1000117401001B740100D3740100DE74010023
:100C200096750100A17501005976010064760100F6
:100C30001C77010026770100DF770100E9770100CA
:100C4000A1780100AC780100647901006F7901009E
:100C5000277A0100327A0100EA7A0100F47A010071
:100C6000AD7B0100B77B01006F7C01007A7C010045
:100C7000327D01003D7D0100F57D0100007E010017
:100C8000B87E0100C27E01007B7F0100857F0100EC
:100C90003D80010048800100008101000B810100BE
:100CA000C3810100CE810100868201009082010093
:100CB00049830100538301000B8401001684010065
:100CC000CE840100D984010091850100E4870100F0
:100CD0004088010045880100A1880100A788010023
:100CE0005F8901006A890100228A01002C8A0100C3
:100CF000E58A0100EF8A0100A88B0100B28B010098
:100D00006A8C0100758C01002D8D0100388D010069
:100D1000C98D0100FB8D01005C8E01005C8E01001D
:100D2000B88E0100BD8E0100768F0100808F01001A
:100D30003890010043900100FB90010006910100F2
:100D4000BE910100C9910100819201008B920100C6
:100D5000449301004E930100069401001194010098
:100D6000C9940100D49401008C950100979501006D
:100D70004F96010059960100129701001C9701003F
:100D8000D4970100DF97010097980100A298010015
:100D90005A990100659901001D9A0100279A0100E6
:100DA000E09A0100EA9A0100A29B0100AD9B0100BC
:100DB000659C0100709C0100289D0100339D01008D
:100DC000EB9D0100F59D0100AE9E0100B89E010063
:100DD000709F01007B9F010033A001003EA0010035
:100DE000F6A0010001A10100B9A10100C3A1010009
:100DF0007CA2010086A201003FA3010049A30100DB
:100E000001A401000CA40100C4A40100CFA40100AE
:100E100087A5010091A501004AA6010054A6010082
:100E20000DA7010017A70100CFA70100DAA7010055
:100E300092A801009DA8010055A901005FA9010029
:100E400018AA010022AA0100DBAA0100E5AA0100FC
:100E50009DAB0100A8AB010060AC01006BAC0100D0
:100E600023AD01002EAD0100E6AD0100F0AD0100A3
:100E7000A9AE0100B3AE01006BAF010076AF010077
:100E80002EB0010039B00100F1B00100FCB001004A
:100E9000B4B10100BEB1010077B2010081B201001E
:100EA00039B3010044B30100FCB3010007B40100F1
:100EB000BFB40100CAB4010082B501008CB50100C5
:100EC00045B601004FB6010011B7010012B701008D
:100ED00073B7010073B70100D5B70100D5B70100A2
:100EE0008DB8010098B8010050B901005AB901004D
:100EF00013BA01001DBA0100D5BA0100E0BA010021
:100F000098BB0100A3BB01005BBC010066BC0100F3
:100F10001EBD010028BD0100E1BD0100EBBD0100C7
:100F20007DBE0100AEBE01000FBF01000FBF01007A
:100F30006BBF010071BF010029C0010034C0010076
:100F4000ECC00100F6C00100AFC10100B9C1010051
:100F500072C201007CC2010034C301003FC3010022
:100F6000F7C3010002C40100BAC40100C4C40100F7
:100F70007DC5010087C5010040C601004AC60100C9
:100F800002C701000DC70100C5C70100D0C701009D
:100F900088C8010092C801004BC9010055C9010071
:100FA0000ECA010018CA0100D0CA0100DBCA010044
:100FB00093CB01009ECB010056CC010061CC010017
:100FC00019CD010023CD0100DCCD0100E6CD0100EB
:100FD0009ECE0100A9CE01006BCF01006CCF0100B5
:100FE000CDCF0100CDCF01002FD001002FD00100C7
:100FF000E7D00100F1D00100AAD10100B4D1010075
:101000006CD2010077D201002FD301003AD3010046
:10101000F2D30100FDD30100B5D40100BFD401001B
:1010200078D5010082D501003AD6010045D60100ED
:10103000FDD6010008D70100C0D70100CBD70100C1
:1010400083D801008DD8010046D9010050D9010094
:1010500008DA010013DA0100CBDA0100D6DA010068
:101060008EDB010099DB010051DC01005BDC01003B
:1010700014DD01001EDD0100D6DD0100E1DD01000F
:1010800099DE0100A4DE01005CDF010067DF0100E2
:101090001FE0010029E00100E2E00100ECE00100B6
:1010A000A5E10100AFE1010067E2010072E2010089
:1010B0002AE3010035E30100EDE30100F7E301005D
:1010C000BFE901000EEA0100C6EA0100D1EA010011
:1010D00089EB010094EB01004CEC010056EC01009F
:1010E0000FED010019ED0100D1ED0100DCED010073
:1010F00094EE01009FEE010030EF010062EF01006D
:10110000C3EF0100C3EF01001FF0010024F0010054
:10111000DDF00100E7F001009FF10100AAF10100FC
:1011200062F201006DF2010025F3010030F30100CD
:10113000E8F30100F2F30100ABF40100B5F40100A3
:101140006DF5010078F5010030F601003BF6010075
:10115000F3F60100FEF60100B6F70100C0F701004A
:1011600079F8010083F801003BF9010046F901001C
:10117000FEF9010009FA0100C1FA0100CCFA0100F0
:1011800084FB01008EFB010047FC010051FC0100C3
:1011900009FD010014FD0100CCFD0100D7FD010097
:1011A0008FFE01009AFE010052FF01005CFF01006A
:1011B000150002001F000200D8000200E200020039
:1011C0009A010200A50102005D020200680202000D
:1011D000200302002A030200E3030200ED030200E1
:1011E000A6040200B00402006805020073050200B4
:1011F0002B06020036060200EE060200F906020087
:10120000B1070200BB070200740802007E0802005A
:101210003609020041090200F9090200040A02002D
:10122000BC0A0200C70A02007F0B0200890B020001
:10123000420C02004C0C0200040D02000F0D0200D3
:10124000C70D0200D20D02008A0E0200950E0200A8
:101250004D0F0200570F0200101002001A1002007A
:10126000D2100200DD10020095110200A011020050
:1012700058120200631202001B1302002513020021
:10128000DE130200E8130200A0140200AB140200F7
:10129000631502006E1502002616020031160200C8
:1012A000E9160200F3160200AC170200B61702009E
:1012B0007818020079180200DA180200DA18020021
:1012C0003C1902003C190200F4190200FF19020047
:1012D000B71A0200C11A02007A1B0200841B020026
:1012E0003C1C0200471C0200FF1C02000A1D0200F9
:1012F000C21D0200CD1D0200851E02008F1E0200CD
:10130000481F0200521F0200E41F020015200200C5
:101310007620020076200200D2200200D8200200AF
:10132000902102009B210200532202005D22020054
:101330001623020020230200D9230200E323020027
:101340009B240200A62402005E25020069250200FB
:10135000212602002C260200E4260200EE260200CE
:10136000A7270200B12702006928020074280200A2
:101370002C29020037290200EF290200FA29020075
:10138000B22A0200BC2A0200752B02007F2B020049
:10139000372C0200422C0200FA2C0200052D02001C
:1013A000BD2D0200C82D0200802E02008A2E0200F0
:1013B000432F02004D2F02000530020010300200C2
:1013C000D2300200D3300200343102003431020046
:1013D00096310200963102004E320200583202006D
:1013E000113302001B330200D3330200DE3302004C
:1013F00096340200A134020059350200643502001F
:101400001C36020026360200DF360200E9360200F2
:10141000A1370200AC370200643802006F380200C6
:101420002739020032390200EA390200F439020099
:10143000AD3A0200B73A0200703B02007A3B02006C
:10144000323C02003D3C0200F53C0200003D02003F
:10145000B83D0200C23D02007B3E0200853E020014
:101460003E3F0200483F0200004002000B400200E5
:10147000C3400200CE4002008641020090410200BB
:1014800049420200534202000C430200164302008C
:10149000CE430200D9430200914402009C44020062
:1014A000544502005F450200D35302000000820051
:1014B0000000A40000008A000000820000008200FA
:1014C0000000A4000000AE000000C3000000AE0059
:1014D000000005010000C300000005010000CF006E
:1014E000000005010000E900000005010000AE0059
:1014F000000005010000C300000005010000CF004E
:10150000000005010000E900000005010000DC000A
:10151000000049010000F60000004901000005013B
:101520000000490100002501000049010000DC0025
:10153000000049010000F60000004901000005011B
:101540000000490100002501000049010000B80029
:10155000000015010000CF00000015010000DC00B4
:10156000000015010000F600000015010000B800A1
:10157000000015010000CF00000015010000DC0094
:10158000000015010000F600000015010000AE008B
:10159000000005010000C300000005010000CF00AD
:1015A000000005010000E900000005010000A400A2
:1015B000000005010000AE00000005010000C300AE
:1015C000000005010000CF00000005010000AE0092
:1015D000000005010000C300000005010000CF006D
:1015E000000005010000E900000005010000AE0058
:1015F000000005010000C300000005010000CF004D
:10160000000005010000E900000005010000DC0009
:10161000000049010000F60000004901000005013A
:101620000000490100002501000049010000DC0024
:10163000000049010000F60000004901000005011A
:101640000000490100002501000049010000B80028
:10165000000015010000CF00000015010000DC00B3
:10166000000015010000F600000015010000B800A0
:10167000000015010000CF00000015010000DC0093
:10168000000015010000F600000015010000AE008A
:10169000000005010000C300000005010000CF00AC
:1016A000000005010000E900000005010000A400A1
:1016B000000005010000AE00000005010000C300AD
:1016C000000005010000CF00000005010000AE0091
:1016D000000005010000C300000005010000CF006C
:1016E000000005010000E900000005010000AE0057
:1016F000000005010000C300000005010000CF004C
:10170000000005010000E900000005010000DC0008
:10171000000049010000F600000049010000050139
:101720000000490100002501000049010000DC0023
:10173000000049010000F600000049010000050119
:101740000000490100002501000049010000B80027
:10175000000015010000CF00000015010000DC00B2
:10176000000015010000F600000015010000B8009F
:10177000000015010000CF00000015010000DC0092
:10178000000015010000F600000015010000AE0089
:10179000000005010000C300000005010000CF00AB
:1017A000000005010000E900000005010000A400A0
:1017B000000005010000AE00000005010000C300AC
:1017C000000005010000CF000000050100008701B6
:1017D0000000570000008200000057000000820057
:1017E0000000570000008200000057000000820047
:1017F00000009F0100004D000000820000004D002D
:101800000000820000004D000000820000004D003A
:101810000000820000004900000074000000490040
:10182000000074000000490000007400000049003E
:10183000000074000000490000007400000049002E
:10184000000074000000490000007400000049001E
:101850000000740000004500000067000000450023
:101860000000670000004500000067000000450020
:101870000000670000004D000000740000004D00F3
:101880000000740000004D000000740000004D00D6
:1018900000007400000045000000670000004500E3
:1018A00000006700000045000000670000004500E0
:1018B00000006700000052000000740000005200A9
:1018C00000007400000052000000740000005D0180
:1018D000000052000000610000005700000082007C
:1018E0000000570000008200000057000000820046
:1018F000000057000000820000009F0100004D0022
:101900000000820000004D000000820000004D0039
:101910000000820000004D0000008200000049002D
:10192000000074000000490000007400000049003D
:10193000000074000000490000007400000049002D
:10194000000074000000490000007400000049001D
:101950000000740000005D010000490000007400F8
:1019600000003A000000570000003A000000570055
:1019700000003A000000570000003A000000570045
:101980000000410000006100000041000000610013
:101990000000410000006100000041000000610003
:1019A00000004500000067000000450000006700DF
:1019B00000004500000067000000450000006700CF
:1019C00000009B000000AE000000DC000000B8003A
:1019D0000000AE000000CF000000C3000000AE0019
:1019E000000005010000C300000005010000CF0059
:1019F000000005010000E900000005010000AE0044
:101A0000000005010000C300000005010000CF0038
:101A1000000005010000E900000005010000DC00F5
:101A2000000049010000F600000049010000050126
:101A30000000490100002501000049010000DC0010
:101A4000000049010000F600000049010000050106
:101A50000000490100002501000049010000B80014
:101A6000000015010000CF00000015010000DC009F
:101A7000000015010000F600000015010000B8008C
:101A8000000015010000CF00000015010000DC007F
:101A9000000015010000F600000015010000AE0076
:101AA000000005010000C300000005010000CF0098
:101AB000000005010000E900000005010000A4008D
:101AC000000005010000AE00000005010000C30099
:101AD000000005010000CF000000050100008701A3
:101AE0000000B801000061000000920000006100E9
:101AF0000000920000006100000092000000610000
:101B0000000092000000D201000057000000920087
:101B100000005700000092000000570000009200F3
:101B200000005700000092000000520000008200F8
:101B300000005200000082000000520000008200FD
:101B400000005200000082000000520000008200ED
:101B500000005200000082000000520000008200DD
:101B6000000052000000820000004D0000007400E0
:101B700000004D000000740000004D0000007400E3
:101B800000004D00000074000000570000008200BB
:101B90000000570000008200000057000000820093
:101BA000000057000000820000004D00000074009B
:101BB00000004D000000740000004D0000007400A3
:101BC00000004D000000740000005C000000820076
:101BD00000005C000000820000005C000000820049
:101BE0000000870100005C0000008200000061002E
:101BF00000009200000061000000920000006100FF
:101C00000000920000006100000092000000D2017C
:101C100000005700000092000000570000009200F2
:101C200000005700000092000000570000009200E2
:101C300000005200000082000000520000008200FC
:101C400000005200000082000000520000008200EC
:101C500000005200000082000000520000008200DC
:101C600000005200000082000000870100005200C6
:101C700000008200000041000000610000004100FF
:101C80000000610000004100000061000000410010
:101C9000000061000000490000006E0000004900E3
:101CA00000006E000000490000006E0000004900C6
:101CB00000006E0000004D000000740000004D00A8
:101CC0000000740000004D000000740000004D0092
:101CD0000000740000005700000061000000920046
:101CE000000061000000920000006100000092000E
:101CF00000006100000092000000D20100005700C7
:101D00000000920000005700000092000000570001
:101D100000009200000057000000920000005200F6
:101D2000000082000000520000008200000052000B
:101D300000008200000052000000820000005200FB
:101D400000008200000052000000820000005200EB
:101D500000008200000052000000820000004D00E0
:101D60000000740000004D000000740000004D00F1
:101D70000000740000004D000000740000005700D7
:101D800000008200000057000000820000005700A1
:101D900000008200000057000000820000004D009B
:101DA0000000740000004D000000740000004D00B1
:101DB0000000740000004D000000740000005C0092
:101DC0000000820000005C000000820000005C0057
:101DD000000082000000870100005C00000082001B
:101DE000000061000000920000006100000092000D
:101DF00000006100000092000000610000009200FD
:101E00000000D201000057000000920000005700BF
:101E100000009200000057000000920000005700F0
:101E200000009200000052000000820000005200FA
:101E300000008200000052000000820000005200FA
:101E400000008200000052000000820000005200EA
:101E500000008200000052000000820000008701A4
:101E600000005200000082000000410000006100FC
:101E7000000041000000610000004100000061001E
:101E800000004100000061000000490000006E00F9
:101E90000000490000006E000000490000006E00D4
:101EA0000000490000006E0000004D0000007400BA
:101EB00000004D000000740000004D0000007400A0
:101EC00000004D00000074000000570000000000FA
:101ED0000000000000000000000000000000000002
:101EE000000000000000000000005B000000610036
:101EF0000000BD000000C20000001E01000024011F
:101F000000007F01000085010000E1010000E70101
:101F100000004202000048020000A4020000A902E2
:101F20000000050300000B030000660300006C03C3
:101F30000000C8030000CE030000290400002F04A5
:101F400000008B04000090040000EC040000F20488
:101F500000004D05000053050000AF050000B50569
:101F6000000010060000160600007206000077064A
:101F70000000D3060000D9060000340700003A072D
:101F80000000960700009C070000F7070000FD070F
:101F90000000590800005E080000BA080000C008F0
:101FA00000001B090000210900007D0900008309D1
:101FB0000000DE090000E4090000400A0000450AB4
:101FC0000000A10A0000A70A0000020B0000080B95
:101FD0000000640B00006A0B0000C50B0000CB0B77
:101FE0000000270C00002C0C0000880C00008E0C58
:101FF0000000EA0C0000EF0C00004B0D0000510D3A
:102000000000AC0D0000B20D00000E0E0000130E1B
:1020100000006F0E0000750E0000D10E0000D60EFD
:102020000000320F0000380F0000930F0000990FDE
:102030000000F50F0000FA0F0000561000005C10C1
:102040000000B8100000BD100000191100001F11A1
:1020500000007A11000080110000DC110000E11185
:1020600000003D120000431200009F120000A41265
:102070000000001300000613000061130000671346
:102080000000C3130000C8130000241400002A1429
:102090000000861400008B140000E7140000ED140B
:1020A0000000481500004E150000AA150000AF15ED
:1020B00000000B160000111600006D1600007216CD
:1020C0000000CE160000D41600002F1700003517B0
:1020D00000009117000096170000F2170000F81793
:1020E00000005418000059180000B5180000BB1873
:1020F0000000161900001C190000781900007D1955
:102100000000D9190000DF1900003B1A0000401A36
:1021100000009C1A0000A21A0000FD1A0000031B18
:1021200000005F1B0000641B0000C01B0000C61BFA
:102130000000221C0000271C0000831C0000891CDA
:102140000000E41C0000EA1C0000461D00004B1DBE
:102150000000A71D0000AD1D0000091E00000E1E9E
:1021600000006A1E0000701E0000CB1E0000D11E81
:1021700000002D1F0000331F00008E1F0000941F61
:102180000000F01F0000F51F000051200000572044
:102190000000B2200000B8200000142100001A2125
:1021A0000000752100007B210000D7210000DC2108
:1021B0000000382200003E220000992200009F22E9
:1021C0000000FB220000012300005C2300006223CA
:1021D0000000BE230000C32300001F2400002524AC
:1021E00000008024000086240000E2240000E8248F
:1021F00000004325000049250000A5250000AA2570
:102200000000062600000C260000672600006D2650
:102210000000C9260000CF2600002A270000302732
:1022200000008C27000091270000ED270000F32715
:1022300000004E28000054280000B0280000B628F6
:1022400000001129000017290000732900007829D7
:102250000000D4290000DA290000352A00003B2ABA
:102260000000972A00009D2A0000F82A0000FE2A9C
:1022700000005A2B00005F2B0000BB2B0000C12B7D
:1022800000001D2C0000222C00007E2C0000842C5D
:102290000000DF2C0000E52C0000412D0000462D41
:1022A0000000A22D0000A82D0000392E0000CC2E29
:1022B0000000282F00002D2F0000892F00008F2FF5
:1022C0000000EB2F0000F02F00004C3000005230D7
:1022D0000000AD300000B33000006B3100007631FB
:1022E00000002E32000039320000F1320000FB32D3
:1022F0000000B4330000BE330000763400008134A7
:1023000000003935000044350000FC350000073678
:102310000000BF360000C9360000823700008C374D
:102320000000453800004F3800000739000012391E
:102330000000CA390000D53900008D3A0000973AF4
:102340000000503B00005A3B0000133C00001D3CC5
:102350000000D53C0000E03C0000983D0000A33D9B
:1023600000005B3E0000663E00001E3F0000283F6C
:102370000000E13F0000EB3F0000A3400000AE4042
:102380000000664100007141000029420000344213
:102390000000EC420000F6420000AF430000B943E9
:1023A0000000714400007C440000344500003F45BB
:1023B0000000F745000002460000BA460000C4468F
:1023C00000007D470000874700003F4800004A4862
:1023D0000000024900000D490000C5490000D04935
:1023E0000000884A0000924A00004B4B0000554B09
:1023F00000000D4C0000184C0000D04C0000DB4CDD
:102400000000934D00009E4D0000564E0000604EAF
:102410000000194F0000234F0000DB4F0000E64F83
:1024200000009E500000A9500000615100006C5156
:102430000000245200002E520000E7520000F1522A
:102440000000A9530000B45300006C5400007754FE
:1024500000002F5500003A550000F2550000FC55D1
:102460000000B5560000BF560000785700008257A4
:1024700000003A58000045580000FD580000085977
:102480000000C0590000CA590000835A00008D5A4C
:102490000000465B0000505B0000085C0000135C1D
:1024A0000000CB5C0000D65C00008E5D0000995DF2
:1024B0000000515E00005B5E0000145F00001E5FC4
:1024C0000000D65F0000E15F000099600000A4609A
:1024D00000005C610000676100004A6400007264F3
:1024E0000000E3650000F7650000696700007D6794
:1024F0000000606A0000886A00006C6D0000936D47
:102500000000777000009F70000082730000AA73C3
:1025100000008D760000B576000099790000C07942
:102520000000167E0000517E0000C27F0000D77FB1
:102530000000BA820000E2820000C5850000ED853F
:102540000000438A00007E8A0000618D0000898DB2
:102550000000FB8E00000F8F000080900000949020
:102560000000069200001A920000FE9400002595DB
:10257000000097960000AB9600001C980000309871
:102580000000149B00003C9B00001F9E0000479E23
:1025900000002AA1000052A1000036A400005DA4A2
:1025A000000041A7000069A700004CAA000074AA1F
:1025B0000000C9AE000005AF000076B000008AB090
:1025C00000006EB3000095B3000079B60000A1B61C
:1025D0000000F6BA000032BB000015BE00003DBE90
:1025E0000000AEBF0000C2BF000034C1000048C1FF
:1025F0000000B9C20000CEC2000023C7000021C8FD
:10260000000082C8000083C80000E4C80000E4C8DD
:102610000000C7CB0000EFCB0000D3CE0000FACE05
:102620000000A6D700001CD800008DD90000A2D958
:10263000000013DB000027DB00000BDE000033DEB0
:102640000000A4DF0000B8DF000029E100003EE147
:10265000000068E3000086E3000054E50000CFE5D9
:10266000000040E7000054E700007FE900009DE91A
:1026700000006AEB0000E5EB000056ED00006BED9A
:1026800000004EF0000076F000008BF100009AF19F
:102690000000AFF20000BEF2000077F3000081F30B
:1026A0000000D7F70000D5F8000035F9000036F932
:1026B000000098F9000098F900007BFC0000A3FCE2
:1026C000000086FF0000AEFF0000760501008706CF
:1026D00001003F0701004A070100BB080100D008C4
:1026E0000100E4090100F4090100090B0100180BC5
:1026F0000100D00B0100DB0B0100050E0100230ED1
:102700000100F10F01006C100100DD110100F11159
:1027100001001C1401003A14010008160100821681
:102720000100F317010008180100321A0100501AC5
:102730000100901D01001E1E01001E1E0100492007
:1027400001004920010067200100C2200100C820CB
:1027500001002421010029210100852101008B2194
:102760000100E7210100EC210100482201004E2276
:102770000100A9220100AF2201000B230100102358
:1027800001006C23010072230100CE230100D3233A
:1027900001002F24010035240100ED240100F7245D
:1027A0000100B0250100BA250100722601007D2636
:1027B00001003527010040270100F8270100032808
:1027C0000100BB280100C52801007E2901008829DD
:1027D0000100412A01004B2A0100032B01000E2BAE
:1027E0000100C62B0100D12B0100892C0100932C84
:1027F00001004C2D0100562D01000F2E0100192E55
:102800000100D12E0100DC2E0100942F01009F2F2A
:10281000010057300100613001001A3101002431FC
:102820000100DD310100E73101009F320100AA32D1
:102830000100623301006D330100253401003034A2
:102840000100E8340100F2340100AB350100B53578
:1028500001006D36010078360100303701003B374A
:102860000100F3370100FE370100B6380100C0381F
:10287000010079390100833901003B3A0100463AF1
:102880000100FE3A0100093B0100C13B0100CC3BC5
:102890000100843C01008E3C0100473D0100513D98
:1028A0000100093E0100143E0100CC3E0100D73E6C
:1028B00001008F3F01009A3F0100524001005C403F
:1028C0000100154101001F410100D7410100E24113
:1028D00001009A420100A54201005D4301006843E6
:1028E0000100204401002A440100E3440100ED44BA
:1028F0000100A5450100B04501006846010073468E
:1029000001002B47010036470100EE470100F84760
:102910000100B1480100BB480100744901007E4933
:102920000100364A0100414A0100F94A0100044B06
:102930000100BC4B0100C64B01007F4C0100894CDB
:102940000100424D01004C4D0100044E01000F4EAC
:102950000100C74E0100D24E01008A4F0100954F81
:1029600001004D50010057500100105101001A5153
:102970000100D2510100DD51010095520100A05229
:10298000010058530100635301001B5401002554FA
:102990000100DE540100E8540100A0550100AB55D0
:1029A0000100635601006E560100265701003157A1
:1029B0000100E9570100F3570100AC580100B65877
:1029C00001006E59010079590100315A01003C5A49
:1029D0000100F45A0100FF5A0100B75B0100C15B1E
:1029E00001007A5C0100845C01003C5D0100475DF0
:1029F0000100FF5D01000A5E0100C25E0100CD5EC4
:102A00000100855F01008F5F010048600100526096
:102A100001000A61010015610100CD610100D8616A
:102A20000100906201009B620100536301005D633D
:102A300001001664010020640100D8640100E36411
:102A400001009B650100A66501005E6601006966E4
:102A50000100216701002B670100E4670100EE67B8
:102A60000100A7680100B16801006969010074698B
:102A700001002C6A0100376A0100EF6A0100F96A5F
:102A80000100B26B0100BC6B0100756C01007F6C32
:102A90000100376D0100426D0100FA6D0100056E05
:102AA0000100BD6E0100C86E0100806F01008A6FD9
:102AB0000100437001004D700100057101001071AB
:102AC0000100C8710100D37101008B720100967280
:102AD00001004E73010058730100117401001B7452
:102AE0000100D3740100DE74010096750100A17528
:102AF000010059760100647601001C7701002677F9
:102B00000100DF770100E9770100A1780100AC78CE
:102B10000100647901006F790100277A0100327A9F
:102B20000100EA7A0100F47A0100AD7B0100B77B75
:102B300001006F7C01007A7C0100327D01003D7D47
:102B40000100F57D0100007E0100B87E0100C27E1B
:102B500001007B7F0100857F01003D8001004880EE
:102B60000100008101000B810100C3810100CE81C1
:102B70000100868201009082010049830100538395
:102B800001000B8401001684010087850100A788DD
:102B90000100FC8C0100FB8D01005B8E01005C8E4E
:102BA0000100BD8E0100BD8E0100A1910100C991FF
:102BB0000100AC940100D4940100809D0100F59DBA
:102BC0000100679F01007B9F0100ECA0010001A1B3
:102BD0000100E4A301000CA401007DA5010091A562
:102BE000010003A7010017A7010041A901005FA987
:102BF00001008AAB0100A8AB010019AD01002EADA8
:102C0000010058AF010076AF0100A0B10100BEB1D4
:102C1000010030B3010044B3010027B601004FB6F4
:102C2000010064B7010073B7010088B8010098B8CB
:102C3000010050B901005AB90100B0BD0100AEBE9B
:102C400001000FBF01000FBF010071BF010071BF84
:102C5000010054C201007CC2010060C5010087C5AB
:102C600001004FCB010061CC010019CD010023CD43
:102C7000010095CE0100A9CE0100BECF0100CDCF4D
:102C80000100E2D00100F1D00100AAD10100B4D1CD
:102C9000010082D30100FDD3010027D6010045D6F3
:102CA0000100B6D70100CBD70100F5D9010013DA36
:102CB00001003DDC01005BDC0100CDDD0100E1DD58
:102CC00001000BE0010029E00100C6E30100F7E389
:102CD000010022E6010040E601009CE60100A1E6B9
:102CE0000100FDE6010003E701005EE7010064E783
:102CF0000100C0E70100C6E7010021E8010027E864
:102D0000010083E8010088E80100E4E80100EAE846
:102D1000010045E901004BE90100A7E90100ADE927
:102D2000010008EA01000EEA010063EE010062EF13
:102D30000100C2EF0100C3EF010024F0010024F004
:102D4000010008F3010030F3010013F601003BF627
:102D50000100E7FE01005CFF0100CE000200E2007E
:102D6000020053020200680202004B0502007305D4
:102D70000200E4060200F90602006A0802007E086A
:102D80000200A90A0200C70A0200F10C02000F0D9E
:102D90000200800E0200950E0200BF100200DD103E
:102DA0000200071302002513020097140200AB145F
:102DB00002008E170200B6170200CB180200DA18C4
:102DC0000200EF190200FF190200B71A0200C11A2F
:102DD0000200171F02001520020076200200762054
:102DE0000200D8200200D8200200BB230200E32307
:102DF0000200C7260200EE260200B62C0200C82DF3
:102E00000200802E02008A2E0200FC2F02001030E9
:102E100002002531020034310200493202005832EA
:102E20000200DF340200643502008E370200AC3746
:102E300002001D390200323902005C3B02007A3B7D
:102E40000200A43D0200C23D0200343F0200483FA0
:102E5000020072410200904102002D4502005F45D0
:102E6000020089470200A747020003480200084801
:102E70000200644802006A480200C5480200CB48CC
:102E80000200274902002D490200884902008E49AC
:102E90000200EA490200EF4902004B4A0200514A8F
:102EA0000200AC4A0200B24A02000E4B0200144B70
:102EB00002006F4B02000000AE00AE00AE00AE009C
:102EC000AE00AE000000C3000000CF00000005010E
:102ED00000005D010000870100009F0100000B025F
:102EE0000000AE000000C3000000CF00000005019C
:102EF00000005D010000870100009F0100000B023F
:102F00000000AE000000C3000000CF00000005017B
:102F100000005D010000870100009F0100000B021E
:102F20000000AE000000C3000000CF00000005015B
:102F300000005D010000870100009F0100000B02FE
:102F40000000DC000000F60000000501000049015F
:102F50000000B8010000ED0100000B020000930228
:102F60000000DC000000F60000000501000049013F
:102F70000000B8010000ED0100000B020000930208
:102F80000000DC000000F60000000501000049011F
:102F90000000B8010000ED0100000B0200009302E8
:102FA0000000DC000000F6000000050100004901FF
:102FB0000000B8010000ED0100000B0200009302C8
:102FC0000000B8000000CF000000DC000000150188
:102FD0000000710100009F010000B80100002A02FA
:102FE0000000B8000000CF000000DC000000150168
:102FF0000000710100009F010000B80100002A02DA
:103000000000B8000000CF000000DC000000150147
:103010000000710100009F010000B80100002A02B9
:103020000000B8000000CF000000DC000000150127
:103030000000710100009F010000B80100002A0299
:103040000000AE000000C3000000CF00000005013A
:1030500000005D010000870100009F0100000B02DD
:103060000000AE000000C3000000CF00000005011A
:1030700000005D010000870100009F0100000B02BD
:103080000000A4000000AE000000C3000000050125
:103090000000490100005D010000870100000B02F3
:1030A0000000C300000005010000490100005D01AF
:1030B0000000870100000B020000160400000F034F
:1030C00000003E030000BA020000160400000F03D7
:1030D00000003E030000BA020000160400000F03C7
:1030E00000003E030000BA020000160400000F03B7
:1030F00000003E030000BA02000026050000DB03CA
:103100000000160400007003000026050000DB0329
:103110000000160400007003000026050000DB0319
:103120000000160400007003000026050000DB0309
:1031300000001604000070030000540400003E0369
:10314000000070030000E3020000540400003E038E
:10315000000070030000E3020000540400003E037E
:10316000000070030000E3020000540400003E036E
:10317000000070030000E302000074050000A403D7
:10318000000016040000BA02000074050000A40349
:10319000000016040000BA02000026050000A40387
:1031A0000000160400000F03000026050000A40321
:1031B0000000160400000F030000BA02000016040D
:1031C0000000A4030000160400007405000026059A
:1031D00000009604000016040000DB0300007003EA
:1031E00000003E030000E302000054040000160447
:1031F000000016040000A40300003E0300000F03BB
:103200000000BA02000016040000A4030000160427
:103210000000740500002605000096040000160456
:103220000000DB030000700300003E030000E30227
:103230000000540400001604000016040000A4035B
:1032400000003E0300000F0300009F010000870103
:1032500000009F010000D20100006E0200000B027E
:1032600000000B0200006E020000BA020000BA0269
:1032700000003E0300000F0300006E020000D201B8
:1032800000009F010000D20100000B020000870136
:103290000000870100009F010000D20100009F0193
:1032A0000000870100009F010000D20100006E02B3
:1032B0000000BA0200003E0300000F030000BA0243
:1032C00000000B0200006E0200006E0200002A02E5
:1032D0000000D201000093020000BA0200000F03B8
:1032E00000000F030000BA020000A4031F06000044
:1032F00000007D0600001F060000DC040000A4039F
:1033000000003E0300000F0300006E020000D20127
:1033100000009F010000870100000B0200008701F0
:1033200000009F0100005D0100000B02000087010A
:1033300000009F0100005D0100000B0200008701FA
:1033400000009F0100005D0100000B0200008701EA
:1033500000009F0100005D01000093020000ED01EC
:1033600000000B020000B801000093020000ED0114
:1033700000000B020000B801000093020000ED0104
:1033800000000B020000B801000093020000ED01F4
:1033900000000B020000B80100002A0200009F019B
:1033A0000000B8010000710100002A0200009F0126
:1033B0000000B8010000710100002A0200009F0116
:1033C0000000B8010000710100002A0200009F0106
:1033D0000000B801000071010000BA020000D20133
:1033E00000000B0200005D010000BA020000D201E3
:1033F00000000B0200005D01000093020000D201FA
:1034000000000B0200008701000093020000D201BF
:1034100000000B02000087010000160400000F03EB
:1034200000003E030000BA020000160400000F0373
:1034300000003E030000BA020000160400000F0363
:1034400000003E030000BA020000160400000F0353
:1034500000003E030000BA02000026050000DB0366
:103460000000160400007003000026050000DB03C6
:103470000000160400007003000026050000DB03B6
:103480000000160400007003000026050000DB03A6
:1034900000001604000070030000540400003E0306
:1034A000000070030000E3020000540400003E032B
:1034B000000070030000E3020000540400003E031B
:1034C000000070030000E3020000540400003E030B
:1034D000000070030000E302000074050000A40374
:1034E000000016040000BA02000074050000A403E6
:1034F000000016040000BA02000026050000A40324
:103500000000160400000F03000026050000A403BD
:10351000000016040000D2010000B8010000D20132
:1035200000000B020000BA0200004B0200004B0238
:103530000000BA0200000F0300000F030000A40304
:10354000000070030000BA0200000B020000D2016C
:1035500000000B0200004B020000B8010000B8019F
:103560000000D20100000B020000D2010000B801EF
:103570000000D20100000B020000BA0200000F039D
:103580000000A4030000700300000F0300004B02C2
:103590000000BA020000BA0200006E0200000B0236
:1035A0000000E30200000F0300007003000070033E
:1035B00000000F030000E006000048070000E006DE
:1035C00000001F06000016040000A40300007003A2
:1035D0000000BA0200000B020000D2010000B80196
:1035E0000000D2010000B8010000D20100000B026F
:1035F0000000BA0200004B0200004B020000BA02B9
:1036000000000F0300000F030000A403000070037C
:103610000000BA0200000B020000D20100000B0201
:1036200000004B020000B8010000B8010000D20108
:1036300000000B020000D2010000B8010000D2011E
:1036400000000B020000BA0200000F030000A403F8
:103650000000700300000F0300004B020000BA02DC
:1036600000006E0200000B020000E30200000F03E6
:10367000000070030000700300000F030000E0066C
:10368000000048070000E006000074050000160472
:103690000000A403000070030000BA0200000B0247
:1036A0000000D2010000B80100000000000024006A
:1036B00027002A0000000000250028002B0002013E
:1036C0000000000000230026002900040404040474
:1036D00004040402020202020203030303030301BF
:1036E0000204081020408001020408102001020496
:1036F0000810200000000800020100000304070079
:103700000000000000000000EF2311241FBECFEFD7
:10371000D8E0DEBFCDBF11E0A0E0B1E0EAECF8E414
:1037200002C005900D92A633B107D9F722E0A6E3B7
:10373000B1E001C01D92A631B207E1F71BE1C5E877
:10374000DBE104C02197FE010E945D24C438D1074B
:10375000C9F70E94701F0C9463240C940000AF9270
:10376000BF92CF92DF92EF92FF920F931F93CF936E
:10377000DF936C017B018B01040F151FEB015E01D0
:10378000AE18BF08C017D10759F06991D601ED9165
:10379000FC910190F081E02DC6010995892B79F704
:1037A000C501DF91CF911F910F91FF90EF90DF90B6
:1037B000CF90BF90AF900895FC01538D448D252F7D
:1037C00030E0842F90E0821B930B541710F0CF96BB
:1037D000089501970895FC01918D828D981761F0ED
:1037E000A28DAE0FBF2FB11D5D968C91928D9F5F04
:1037F0009F73928F90E008958FEF9FEF0895FC01E3
:10380000918D828D981731F0828DE80FF11D858D95
:1038100090E008958FEF9FEF0895FC01918D228D28
:10382000892F90E0805C9F4F821B91098F739927AD
:10383000089589E791E00E940D1C21E0892B09F48D
:1038400020E0822F089580E090E0892B29F00E94EB
:10385000191C81110C9400000895FC01A48DA80F7F
:10386000B92FB11DA35ABF4F2C91848D90E00196C2
:103870008F739927848FA689B7892C93A089B189E2
:103880008C91837080648C93938D848D981306C083
:103890000288F389E02D80818F7D80830895EF92E7
:1038A000FF920F931F93CF93DF93EC0181E0888FFA
:1038B0009B8D8C8D98131AC0E889F989808185FFCA
:1038C00015C09FB7F894EE89FF896083E889F9896C
:1038D00080818370806480839FBF81E090E0DF916E
:1038E000CF911F910F91FF90EF900895F62E0B8DC1
:1038F00010E00F5F1F4F0F731127E02E8C8D8E117C
:103900000CC00FB607FCFACFE889F989808185FFE2
:10391000F5CFCE010E942D1CF1CFEB8DEC0FFD2FCA
:10392000F11DE35AFF4FF0829FB7F8940B8FEA899D
:10393000FB8980818062CFCFCF93DF93EC01888DAC
:103940008823B9F0AA89BB89E889F9898C9185FD1A
:1039500003C0808186FD0DC00FB607FCF7CF8C91A8
:1039600085FFF2CF808185FFEDCFCE010E942D1C17
:10397000E9CFDF91CF910895833081F028F4813031
:1039800099F08230A9F008958730A9F08830C9F005
:103990008430B1F4809180008F7D03C080918000DD
:1039A0008F7780938000089584B58F7784BD0895C4
:1039B00084B58F7DFBCF8091B0008F778093B0006E
:1039C00008958091B0008F7DF9CFCF93DF93E3EF1F
:1039D000F6E38491EFEDF6E3D491EBECF6E3C491DA
:1039E000CC23A1F081110E94BC1CEC2FF0E0EE0F63
:1039F000FF1FEF53F94CA591B491EC91ED2381E0B9
:103A000090E009F480E0DF91CF91089580E090E0AC
:103A1000FACF1F93CF93DF93282F30E0F901ED50B9
:103A2000F94C8491F901E152F94CD491F901E55333
:103A3000F94CC491CC23A9F0162F81110E94BC1C13
:103A4000EC2FF0E0EE0FFF1FEC54F94CA591B49170
:103A50008FB7F894EC91111108C0D095DE23DC9358
:103A60008FBFDF91CF911F910895DE2BF8CFCF93B9
:103A7000DF9390E0FC01E152F94C24918553994C7D
:103A8000FC0184918823D1F090E0880F991FFC01FC
:103A9000E655F94CA591B491FC01EC54F94CC59153
:103AA000D491623071F49FB7F8943C91822F809545
:103AB00083238C93E8812E2B28839FBFDF91CF91A6
:103AC00008958FB7F894EC912E2B2C938FBFF6CFDF
:103AD0003FB7F8948091370190913801A091390156
:103AE000B0913A0126B5A89B05C02F3F19F0019669
:103AF000A11DB11D3FBFBA2FA92F982F8827BC0148
:103B0000CD01620F711D811D911D42E0660F771F6F
:103B1000881F991F4A95D1F708950C94681DFC01E0
:103B20009181913069F0923089F0911105C09091A6
:103B30006E009D7F90936E0060E080810C94091D63
:103B400090916F009D7F90936F00F6CF90917000E1
:103B50009D7F90937000F0CFCF93DF93FC01019095
:103B60000020E9F73197AF01481B590BBC0189E7E9
:103B700091E00E94AF1BEC0142E050E062E271E094
:103B800089E791E00E94AF1B8C0F9D1FDF91CF91C1
:103B900008951F920F920FB60F9211242F933F9307
:103BA0004F935F936F937F938F939F93AF93BF9345
:103BB000EF93FF9389E791E00E942D1CFF91EF9115
:103BC000BF91AF919F918F917F916F915F914F9135
:103BD0003F912F910F900FBE0F901F9018951F923D
:103BE0000F920FB60F9211242F938F939F93EF9301
:103BF000FF93E0918901F0918A018081E0918F012A
:103C0000F091900182FD1BC09081809192018F5FA5
:103C10008F7320919301821741F0E0919201F0E0BF
:103C2000E758FE4F958F80939201FF91EF919F91FE
:103C30008F912F910F900FBE0F901F90189580813C
:103C4000F4CF1F920F920FB60F9211242F933F9330
:103C50008F939F93AF93BF938091450190914601BD
:103C6000A0914701B09148013091360123E0230F24
:103C70002D3758F50196A11DB11D20933601809373
:103C8000450190934601A0934701B093480180916C
:103C9000370190913801A0913901B0913A01019614
:103CA000A11DB11D8093370190933801A093390174
:103CB000B0933A01BF91AF919F918F913F912F9116
:103CC0000F900FBE0F901F90189526E8230F0296B5
:103CD000A11DB11DD2CF1F920F920FB60F921124CA
:103CE0002F933F938F939F93AF93BF93EF93FF9344
:103CF0008091490190914A01A0914B01B0914C01F2
:103D00000097A105B10531F130913B01E0913C01F3
:103D1000F0913D01208123272083181619061A06E9
:103D20001B061CF40197A109B109809349019093E6
:103D30004A01A0934B01B0934C01FF91EF91BF91C9
:103D4000AF919F918F913F912F910F900FBE0F9048
:103D50001F901895209170002D7F20937000209166
:103D60003B01E0913C01F0913D01308120952323FE
:103D70002083DBCF1F920F920FB60F9211248F93E7
:103D80009F93AF93BF93EF93FF9380914D019091D9
:103D90004E01A0914F01B0915001892B8A2B8B2BA2
:103DA000A1F190913E01E0913F01F09140018081AD
:103DB0008927808380914D0190914E01A0914F0100
:103DC000B0915001181619061A061B069CF4809132
:103DD0004D0190914E01A0914F01B091500101977A
:103DE000A109B10980934D0190934E01A0934F0119
:103DF000B0935001FF91EF91BF91AF919F918F913F
:103E00000F900FBE0F901F90189580916F008D7FBF
:103E100080936F0080913E01E0913F01F09140015D
:103E20009081809589238083E5CF1F920F920FB6F2
:103E30000F9211248F939F93AF93BF93EF93FF93B0
:103E40008091510190915201A0915301B091540180
:103E5000892B8A2B8B2BA1F190914101E09142019A
:103E6000F091430180818927808380915101909155
:103E70005201A0915301B0915401181619061A0667
:103E80001B069CF48091510190915201A091530125
:103E9000B09154010197A109B10980935101909308
:103EA0005201A0935301B0935401FF91EF91BF9140
:103EB000AF919F918F910F900FBE0F901F9018950B
:103EC00080916E008D7F80936E0080914101E09122
:103ED0004201F09143019081809589238083E5CF51
:103EE000CF93DF93CDB7DEB72A970FB6F894DEBF36
:103EF0000FBECDBF789484B5826084BD84B58160E7
:103F000084BD85B5826085BD85B5816085BD8091A4
:103F10006E00816080936E0010928100809181001C
:103F20008260809381008091810081608093810014
:103F3000809180008160809380008091B1008460D6
:103F40008093B1008091B00081608093B000809137
:103F50007A00846080937A0080917A0082608093F6
:103F60007A0080917A00816080937A0080917A0053
:103F7000806880937A001092C100E0918901F091ED
:103F80008A0182E08083E0918501F09186011082B0
:103F9000E0918701F09188018FEC8083109291016C
:103FA000E0918D01F0918E0186E08083E0918B019C
:103FB000F0918C01808180618083E0918B01F09190
:103FC0008C01808188608083E0918B01F0918C016D
:103FD000808180688083E0918B01F0918C018081E9
:103FE0008F7D808362E080E00E94371D61E08DE07C
:103FF0000E94371D61E089E00E94371D61E08AE080
:104000000E94371DA5E5B1E005E711E069E671E022
:104010004DE651E029E531E082E1282E81E0382E9D
:10402000FF24FA94F10186819781F90191838083BD
:10403000FA011192119211921192AF01FB011192AA
:104040001192BF01F801119211928F01F10190813B
:1040500080914401833008F01FC19C93E82FF0E069
:10406000E254F94CE4911196EC9311978F5F809391
:104070004401E13009F4C4C008F4A2C0E23009F4FC
:10408000E5C0F90180819181FC01E150F04CCF0144
:10409000880F991F880F991FF101C480D580F60100
:1040A000E80FF91F459055906590749080905D01E0
:1040B00090905E01A0905F01B0906001841495041F
:1040C000A604B70410F45301420180925D0190925E
:1040D0005E01A0925F01B0926001F8E02F0E311CEA
:1040E0002E5F3F4F129682E2281681E0380609F0D3
:1040F00099CF0E948D1D60E08DE00E94091D00E0B7
:1041000010E00E94E51C9C838B83019711F00B83C8
:104110001C830E94E51C9A838983892B09F0C0C007
:10412000AB81BC81119709F0BBC061E08DE00E94BA
:10413000091D85E291E00E94AC1D69E671E00DE683
:10414000C02E01E0D02E45E751E0A2E1B1E0149687
:10415000ED90FC901597FA0180819181FC01EE0FA2
:10416000FF1FEE0FFF1FEE0DFF1D0591159125910D
:104170003491F6010083118322833383FA01208175
:10418000318189010F5F1F4FC801880F991F880F68
:10419000991F8E0D9F1DFC0185909590A590B49060
:1041A000F6014080518062807380481459046A048B
:1041B0007B0409F078C0FA0111830083FC01D5CF9C
:1041C00014BC15BC84B5826084BD85B5816085BD95
:1041D0008C9190E0FC01E553F94CE491F0E0EE0F96
:1041E000FF1FEC54F94CC590D490D0924301C0927B
:1041F0004201FC01E152F94CE491E093410141CFCD
:1042000010928000109281008091810088608093DC
:104210008100809181008160809381008C9190E089
:10422000FC01E553F94CE491F0E0EE0FFF1FEC5474
:10423000F94CC590D490D0924001C0923F01FC014E
:10424000E152F94CE491E0933E011BCF1092B00093
:104250001092B1008091B00082608093B000809194
:10426000B10081608093B1008C9190E0FC01E55336
:10427000F94CE491F0E0EE0FFF1FEC54F94CC590BF
:10428000D490D0923D01C0923C01FC01E152F94C26
:10429000E491E0933B01F5CE1196FC921197F1CE9B
:1042A0000B811C812ECF90E080E01216130664F47F
:1042B00021503048220F331F1296ED91FC91139735
:1042C000E20FF31F85919491FB0181939193BF01BC
:1042D00018964E5F5F4FF4E0CF0ED11C81E0A23202
:1042E000B80709F034CF2FB7F89480914501909129
:1042F0004601A0914701B09148012FBF809365010D
:1043000090936601A0936701B09368011E821D829D
:10431000409161015091620160916301709164016B
:1043200080915D0190915E01A0915F01B09160016B
:1043300084179507A607B70708F42AC2AD81BE8186
:10434000119709F425C22FB7F894809145019091F7
:104350004601A0914701B09148012FBF40916501EE
:10436000509166016091670170916801841B950B03
:10437000A60BB70B8093610190936201A093630138
:10438000B0936401E5E5F1E0FA87E9877DE6272E41
:1043900071E0372E89E591E09C838B83E5E7CE2E93
:1043A000E1E0DE2EF12CE12CAB81BC818D919D9161
:1043B000BC83AB83F60120813181281739070CF0CB
:1043C000E2C10E94E51C019721F481E090E09A830C
:1043D00089830E94E51C892B61F4A981BA81119718
:1043E00041F480E391E00E94AC1DE1E0F0E0FE8347
:1043F000ED83C70187599E4F98878F83DC018D908D
:104400009C90181419040CF0B9C1E985FA858181D2
:1044100087FD02C161E080810E94371DA985BA85B0
:1044200011961C91092C000CAA08BB08812F8D7FC6
:1044300009F052C160E072E18AE790E0A5019401C1
:104440000E941C2429013A01DA01C9010197A1093E
:10445000B1098F3F9105A105B10509F00CF4B8C071
:1044600060E472E48FE090E0A50194010E941C24B6
:104470002150310941095109123009F06AC082E026
:104480002F3F31054105510509F00CF45BC060E98F
:1044900070ED83E090E0A50194010E941C2421505E
:1044A00031094109510983E02F3F3105410551058B
:1044B00009F00CF447C068E478EE81E090E0A501D3
:1044C00094010E941C24215031094109510984E0C2
:1044D0002F3F310541055105A9F1A4F164E274EFC4
:1044E00080E090E0A50194010E941C242150310934
:1044F0004109510985E02F3F31054105510511F171
:1045000008F162E17AE780E090E0A50194010E9461
:104510001C24215031094109510986E02F3F310502
:104520004105510579F070F09AE0759467945794BD
:1045300047949A95D1F7A30192012150310941097D
:10454000510987E09091B100987F892B8093B10049
:1045500047C02F3F31054105510509F00CF4BAC0A1
:1045600068E478EE81E090E0A50194010E941C24AB
:10457000215031094109510984E01111BCCF83E078
:104580002F3F31054105510539F134F162E17AE7F8
:1045900080E090E0A50194010E941C242150310983
:1045A0004109510984E02F3F310541055105A1F032
:1045B00098F08AE075946794579447948A95D1F758
:1045C000A3019201215031094109510985E004C03C
:1045D0009C0181E01111B6CF95B5987F892B85BDDF
:1045E000E985FA858181813009F4A0C0823009F41F
:1045F000B2C0811111C027BD8FEF9FEFDC01809306
:10460000510190935201A0935301B09354018091B2
:104610006E00826080936E00D1014D915D916D912D
:104620007C918091610190916201A0916301B091B0
:10463000640184179507A607B70708F437C0F60189
:1046400020813181C901019691838083EB81FC81B6
:104650003297408151818417950744F5D701AA0FFD
:10466000BB1FAA0FBB1FAE5EBE4F220F331F129699
:10467000ED91FC911397E20FF31F45915491EF8157
:10468000F88551834083880F991F880F991F1496CE
:10469000ED91FC91E80FF91F459155916591749149
:1046A000D1014D935D936D937C931397B2E0CB0E44
:1046B000D11CE4E02E0E311C89859A8502969A87DA
:1046C000898792E0E90EF11CA4E0EA16F10409F4EE
:1046D0001FCE6ACE82E07ECF60E072E18AE790E092
:1046E000A50194010E941C2421503109410951095E
:1046F00091E021153105B1E04B0751056CF068E4FC
:1047000078EE81E090E0A50194010E941C242150E4
:1047100031094109510993E0113009F061CF8091CD
:104720008100887F892B809381005ACF3093890044
:10473000209388008FEF9FEFDC0180934D019093D1
:104740004E01A0934F01B093500180916F008260A1
:1047500080936F0061CF2093B3008FEF9FEFDC0158
:104760008093490190934A01A0934B01B0934C016F
:10477000809170008260809370004ECF89859A8509
:104780000E948F1D49CF89859A850E948F1D8ECFEB
:104790001092610110926201109263011092640103
:1047A000109276011092750185E591E00E948F1DAF
:1047B000109278011092770187E591E00E948F1D99
:1047C0000E948D1D80E090E0892B09F494CC0E941A
:1047D000191C882309F48FCC0E9400008CCCE9E7D7
:1047E000F1E01382128288EE93E0A0E0B0E08483CF
:1047F0009583A683B78384E091E09183808385ECE1
:1048000090E09587848784EC90E09787868780EC9A
:1048100090E0918B808B81EC90E0938B828B82EC8B
:1048200090E0958B848B86EC90E0978B868B118E35
:10483000128E138E148E0895052E97FB1EF400948D
:104840000E94332457FD07D00E943B2407FC03D06D
:104850004EF40C94332450954095309521953F4F5C
:104860004F4F5F4F089590958095709561957F4F5C
:104870008F4F9F4F0895A1E21A2EAA1BBB1BFD016B
:104880000DC0AA1FBB1FEE1FFF1FA217B307E4072F
:10489000F50720F0A21BB30BE40BF50B661F771F87
:1048A000881F991F1A9469F7609570958095909567
:1048B0009B01AC01BD01CF010895EE0FFF1F0590D4
:0A48C000F491E02D0994F894FFCF65
:1048CA00000000004F1CAF1BDC1B9C1C0D1CEB1BCB
:1048DA00FF1B0C00B62ECE1EFA030900AC146800AA
:1048EA0011050D0A00506C6179696E672E2E2E0033
:0648FA00736B6970000001
:00000001FF
