:100000000C942A0D0C94520D0C94520D0C94520D1C
:100010000C94520D0C94520D0C94520D0C94101023
:100020000C94520D0C94520D0C94520D0C945F10C4
:100030000C94520D0C94520D0C94BA100C94520D59
:100040000C94C60F0C94520D0C94940F0C946E0FDC
:100050000C94520D0C94520D0C94520D0C94520DA4
:100060000C94520D0C94520D000000000000000092
:10007000C5010000C60100008C0300008D030000D4
:100080005205000053050000190700001A07000080
:10009000DF080000E0080000A60A0000A70A000030
:1000A0006C0C00006D0C0000330E0000340E0000DC
:1000B000160F0000170F0000F90F0000FA0F0000E4
:1000C000DD100000DE100000C0110000C1110000B2
:1000D000A3120000A4120000871300008713000081
:1000E0006A1400006B1400004D1500004E1500004E
:1000F000301600003116000014170000151700001C
:10010000F7170000F8170000DA180000DB180000ED
:10011000BD190000BE190000A11A0000A21A0000BB
:10012000841B0000851B0000671C0000681C000089
:100130004B1D00004B1D00002E1E00002F1E000056
:10014000111F0000121F0000F41F0000F51F000027
:10015000D8200000D9200000BB210000BC210000F5
:100160009E2200009F2200008123000082230000C5
:100170006524000066240000482500004925000091
:100180002B2600002C2600000F2700000F27000060
:10019000F2270000F3270000D5280000D628000031
:1001A000B8290000B92900009C2A00009D2A0000FF
:1001B0007F2B0000802B0000622C0000632C0000CD
:1001C000452D0000462D0000292E00002A2E00009B
:1001D0000C2F00000D2F0000EF2F0000F02F00006B
:1001E000D3300000D3300000B6310000B73100003A
:1001F000993200009A3200007C3300007D33000009
:1002000060340000613400004335000044350000D4
:100210002636000027360000093700000A370000A4
:10022000ED370000EE370000D0380000D138000074
:10023000B3390000B4390000973A0000973A000043
:100240007A3B00007B3B00005D3C00005E3C000010
:10025000403D0000413D0000243E0000253E0000DE
:10026000073F0000083F0000EA3F0000EB3F0000AE
:10027000CD400000CE400000B1410000B24100007E
:10028000944200009542000077430000784300004C
:100290005B4400005B4400003E4500003F45000019
:1002A00021460000224600000447000005470000E8
:1002B000E8470000E9470000CB480000CC480000B8
:1002C000AE490000AF490000914A0000924A000088
:1002D000754B0000764B0000584C0000594C000054
:1002E0003B4D00003C4D00001F4E00001F4E000023
:1002F000024F0000034F0000E54F0000E64F0000F2
:10030000C8500000C9500000AC510000AD510000C1
:100310008F5200009052000072530000735300008F
:100320005554000056540000395500003A5500005D
:100330001C5600001D560000FF560000005700002C
:10034000E3570000E3570000C6580000C7580000FC
:10035000A9590000AA5900008C5A00008D5A0000CB
:10036000705B0000715B0000535C0000545C000097
:10037000365D0000375D0000195E00001A5E000067
:10038000FD5E0000FE5E0000E05F0000E15F000037
:10039000C3600000C4600000A7610000A761000006
:1003A0008A6200008B6200006D6300006E630000D3
:1003B00050640000516400003465000035650000A1
:1003C0001766000018660000FA660000FB66000071
:1003D000DD670000DE670000C1680000C268000041
:1003E000A4690000A5690000876A0000886A00000F
:1003F0006B6B00006B6B00004E6C00004F6C0000DC
:10040000316D0000326D0000146E0000156E0000AA
:10041000F86E0000F96E0000DB6F0000DC6F00007A
:10042000BE700000BF700000A1710000A27100004A
:100430008572000086720000687300006973000016
:100440004B7400004C7400002F7500002F750000E5
:100450001276000013760000F5760000F6760000B4
:10046000D8770000D9770000BC780000BD78000084
:100470009F790000A0790000827A0000837A000052
:10048000657B0000667B0000497C00004A7C000020
:100490002C7D00002D7D00000F7E0000107E0000EE
:1004A000F37E0000F37E0000D67F0000D77F0000BF
:1004B000B9800000BA8000009C8100009D8100008E
:1004C000808200008182000063830000648300005A
:1004D0004684000047840000298500002A8500002A
:1004E0000D8600000E860000F0860000F1860000F8
:1004F000D3870000D4870000B7880000B7880000C9
:100500009A8900009B8900007D8A00007E8A000095
:10051000608B0000618B0000448C0000458C000063
:10052000278D0000288D00000A8E00000B8E000031
:10053000ED8E0000EE8E0000D18F0000D28F000003
:10054000B4900000B59000009791000098910000D1
:100550007B9200007B9200005E9300005F9300009E
:10056000419400004294000024950000259500006D
:100570000896000009960000EB960000EC9600003B
:10058000CE970000CF970000B1980000B29800000D
:100590009599000096990000789A0000799A0000D9
:1005A0005B9B00005C9B00003F9C00003F9C0000A8
:1005B000229D0000239D0000059E0000069E000075
:1005C000E89E0000E99E0000CC9F0000CD9F000047
:1005D000AFA00000B0A0000092A1000093A1000015
:1005E00075A2000076A2000059A300005AA30000E3
:1005F0003CA400003DA400001FA5000020A50000B1
:1006000003A6000003A60000E6A60000E7A600007F
:10061000C9A70000CAA70000ACA80000ADA8000050
:1006200090A9000091A9000073AA000074AA00001C
:1006300056AB000057AB000039AC00003AAC0000EC
:100640001DAD00001EAD000000AE000001AE0000B8
:10065000E3AE0000E4AE0000C7AF0000C7AF00008B
:10066000AAB00000ABB000008DB100008EB1000058
:1006700070B2000071B2000054B3000055B3000026
:1006800037B4000038B400001AB500001BB50000F4
:10069000FDB50000FEB50000E1B60000E2B60000C6
:1006A000E2B60000A7B80000A7B8000000000501EE
:1006B0000000050100000501000005010000050122
:1006C00000000501000005010000050100005700C1
:1006D0000000AE00000061000000C30000005200F6
:1006E0000000A40000006E000000DC0000004900D3
:1006F00000009200000061000000C3000000410003
:10070000000082000000410000008200000057004D
:100710000000AE00000061000000C30000005200B5
:100720000000A40000006E000000DC000000490092
:1007300000009200000061000000C30000004100C2
:10074000000082000000410000008200000057000D
:100750000000AE00000061000000C3000000520075
:100760000000A40000006E000000DC000000490052
:1007700000009200000061000000C3000000410082
:1007800000008200000041000000820000005700CD
:100790000000AE00000061000000C3000000520035
:1007A0000000A40000006E000000DC000000490012
:1007B00000009200000061000000C3000000410042
:1007C0000000820000004100000082000000AE0036
:1007D0000000DC000000050100005D010000A40035
:1007E0000000C30000000501000049010000920064
:1007F0000000AE000000DC000000250100008200C7
:100800000000A4000000C300000005010000AE00CD
:100810000000DC000000050100005D010000A400F4
:100820000000C30000000501000049010000920023
:100830000000AE000000DC00000025010000820086
:100840000000A4000000C300000005010000AE008D
:100850000000DC000000050100005D010000A400B4
:100860000000C300000005010000490100009200E3
:100870000000AE000000DC00000025010000820046
:100880000000A4000000C300000005010000AE004D
:100890000000DC000000050100005D010000A40074
:1008A0000000C300000005010000490100009200A3
:1008B0000000AE000000DC00000025010000820006
:1008C0000000A4000000C300000005010000570064
:1008D0000000AE00000061000000C30000005200F4
:1008E0000000A40000006E000000DC0000004900D1
:1008F00000009200000061000000C3000000410001
:10090000000082000000410000008200000057004B
:100910000000AE00000061000000C30000005200B3
:100920000000A40000006E000000DC000000490090
:1009300000009200000061000000C30000004100C0
:10094000000082000000410000008200000057000B
:100950000000AE00000061000000C3000000520073
:100960000000A40000006E000000DC000000490050
:1009700000009200000061000000C3000000410080
:1009800000008200000041000000820000005700CB
:100990000000AE00000061000000C3000000520033
:1009A0000000A40000006E000000DC000000490010
:1009B00000009200000061000000C3000000410040
:1009C00000008200000082004100000000000000E2
:1009D000000000000000010000000300000005000E
:1009E0000000070000007000000071000000E2003D
:1009F0000000E3000000C5010000C6010000A802DD
:100A00000000A90200001A0300001B0300008C0371
:100A100000008D030000FD030000FE0300006F04D2
:100A2000000070040000E1040000E1040000520531
:100A3000000053050000C4050000C5050000350690
:100A4000000036060000190700001A070000FC0726
:100A50000000FD0700006E0800006F080000DF08BE
:100A60000000E0080000C3090000C3090000A60A56
:100A70000000A70A0000170B0000180B0000890BEC
:100A800000008A0B0000FB0B0000FC0B00006C0C4C
:100A900000006D0C0000DE0C0000DF0C0000500DAB
:100AA0000000510D0000C10D0000C20D0000330E0A
:100AB0000000340E0000160F0000170F0000F90FA1
:100AC0000000FA0F00006B1000006C1000004E11C7
:100AD00000004F110000C0110000C11100003212CF
:100AE000000033120000A3120000A41200008713BC
:100AF0000000871300006A1400006B1400004D15FD
:100B000000004E1500003016000031160000A2163D
:100B10000000A31600001417000015170000851729
:100B2000000086170000F7170000F817000069188A
:100B3000000069180000DA180000DB1800004C19EA
:100B400000004D190000BD190000BE1900002F1A49
:100B50000000301A0000A11A0000A21A0000121BA7
:100B60000000131B0000841B0000851B0000F61B07
:100B70000000F71B0000671C0000681C00004B1DF4
:100B800000004B1D00002E1E00002F1E00009F1EA7
:100B90000000A01E0000111F0000121F0000831F94
:100BA0000000841F0000F41F0000F51F00006620F5
:100BB000000067200000D8200000D9200000492153
:100BC00000004A210000BB210000BC2100002D22B2
:100BD00000002D2200009E2200009F220000102312
:100BE00000001123000081230000822300006524FF
:100BF000000066240000D6240000D7240000482509
:100C0000000049250000BA250000BB2500002B2666
:100C100000002C2600009D2600009E2600000F27C5
:100C200000000F2700008027000081270000F22726
:100C30000000F3270000D5280000D6280000B829BE
:100C40000000B92900009C2A00009D2A00007F2B8B
:100C50000000802B0000622C0000632C0000D42CCC
:100C60000000D52C0000B72D0000B82D0000292E63
:100C700000002A2E00009A2E00009B2E00000C2F50
:100C800000000D2F0000EF2F0000F02F0000D330E8
:100C90000000D3300000B6310000B73100009932B7
:100CA00000009A3200000B3300000C3300007C334C
:100CB00000007D330000EE330000EF3300006034AD
:100CC000000061340000D1340000D234000043350C
:100CD000000044350000B5350000B535000026366B
:100CE00000002736000098360000993600000937CA
:100CF00000000A3700007B3700007C370000ED372A
:100D00000000EE3700005E3800005F380000D03889
:100D10000000D1380000B3390000B4390000973A20
:100D20000000973A0000083B0000093B00007A3BB6
:100D300000007B3B0000EB3B0000EC3B00005D3C17
:100D400000005E3C0000CF3C0000D03C0000403D75
:100D50000000413D0000B23D0000B33D0000243ED4
:100D60000000253E0000953E0000963E0000073F33
:100D70000000083F0000793F0000793F0000EA3F93
:100D80000000EB3F0000CD400000CE4000003F419E
:100D9000000040410000B1410000B2410000224289
:100DA00000002342000094420000954200000643E8
:100DB0000000074300007743000078430000E94348
:100DC0000000EA4300005B4400005B4400003E4535
:100DD00000003F4500002146000022460000044775
:100DE000000005470000E8470000E94700005948B7
:100DF00000005A480000CB480000CC480000AE4933
:100E00000000AF490000204A0000214A0000914A3A
:100E10000000924A0000034B0000044B0000754B99
:100E20000000764B0000E64B0000E74B0000584CFA
:100E30000000594C0000CA4C0000CB4C00003B4D58
:100E400000003C4D0000AD4D0000AE4D00001F4EB7
:100E500000001F4E0000024F0000034F0000E54F4E
:100E60000000E64F00005750000058500000C850E6
:100E70000000C95000003A5100003B510000AC5145
:100E80000000AD5100001D5200001E5200008F52A4
:100E90000000905200000153000001530000725303
:100EA000000073530000E4530000E5530000555464
:100EB000000056540000C7540000C85400003955C3
:100EC00000003A5500001C5600001D5600008E56CA
:100ED00000008F560000FF56000000570000E35747
:100EE0000000E35700005458000055580000C65851
:100EF0000000C75800003759000038590000A959B0
:100F00000000AA5900001B5A00001C5A00008C5A0D
:100F100000008D5A0000FE5A0000FF5A0000705B6E
:100F20000000715B0000E15B0000E25B0000535CCD
:100F30000000545C0000365D0000375D0000A85DD5
:100F40000000A95D0000195E00001A5E00008B5EC3
:100F500000008C5E0000FD5E0000FE5E00006E5F23
:100F600000006F5F0000E05F0000E15F0000526082
:100F7000000053600000C3600000C46000003561E1
:100F8000000036610000A7610000A76100008A62CE
:100F900000008B6200006D6300006E63000050640F
:100FA000000051640000C2640000C36400003465A6
:100FB00000003565000017660000186600008966AD
:100FC000000089660000FA660000FB6600006C679E
:100FD00000006D670000DD670000DE6700004F68FD
:100FE000000050680000C1680000C268000032695B
:100FF000000033690000A4690000A5690000166ABA
:101000000000176A0000876A0000886A00006B6BA6
:1010100000006B6B00004E6C00004F6C0000BF6C5A
:101020000000C06C0000316D0000326D0000A36D47
:101030000000A46D0000146E0000156E0000866EA6
:101040000000876E0000F86E0000F96E0000696F06
:1010500000006A6F0000DB6F0000DC6F00004D7065
:1010600000004D700000BE700000BF7000003071C5
:10107000000031710000A1710000A27100008572B2
:10108000000086720000F6720000F77200006873BC
:101090000000697300004B7400004C740000BD74C4
:1010A0000000BE7400002F7500002F750000A075B1
:1010B0000000A17500001276000013760000837610
:1010C000000084760000F5760000F6760000677771
:1010D000000068770000D8770000D97700004A78D0
:1010E00000004B780000BC780000BD7800009F79BC
:1010F0000000A0790000117A0000117A0000827AC5
:101100000000837A0000F47A0000F57A0000657B25
:101110000000667B0000D77B0000D87B0000497C84
:1011200000004A7C0000BA7C0000BB7C00002C7DE3
:1011300000002D7D00009E7D00009F7D00000F7E41
:101140000000107E0000F37E0000F37E0000D67FDA
:101150000000D77F0000B9800000BA8000009C81A9
:1011600000009D8100000E8200000F820000F182CD
:101170000000F28200006383000064830000D583D6
:101180000000D583000046840000478400002985C4
:1011900000002A8500000D8600000E860000F08603
:1011A0000000F1860000D3870000D4870000458846
:1011B000000046880000B7880000B7880000288932
:1011C0000000298900009A8900009B8900000B8A91
:1011D00000000C8A00007D8A00007E8A0000EF8AF1
:1011E0000000F08A0000608B0000618B0000D28B51
:1011F0000000D38B0000448C0000458C0000B58CAF
:101200000000B68C0000278D0000288D0000998D0D
:101210000000998D00000A8E00000B8E0000ED8EFC
:101220000000EE8E0000D18F0000D28F00004290AF
:10123000000043900000B4900000B590000026919B
:1012400000002791000097910000989100000992FA
:1012500000000A9200007B9200007B920000EC925A
:101260000000ED9200005E9300005F930000CF93BA
:101270000000D09300004194000042940000B39419
:101280000000B49400002495000025950000089605
:10129000000009960000799600007A960000EB960F
:1012A0000000EC9600005D9700005D970000CE976F
:1012B0000000CF9700004098000041980000B198CE
:1012C0000000B2980000239900002499000095992D
:1012D000000096990000789A0000799A00005B9BC4
:1012E00000005C9B00003F9C00003F9C0000229D92
:1012F0000000239D0000059E0000069E0000779ED2
:101300000000789E00005A9F00005B9F0000CC9F69
:101310000000CD9F00003DA000003EA00000AFA057
:101320000000B0A0000092A1000093A1000075A2EF
:10133000000076A2000059A300005AA300003CA4BC
:1013400000003DA40000AEA40000AFA400001FA553
:10135000000020A5000091A5000092A5000003A6B2
:10136000000003A6000074A6000075A60000E6A613
:101370000000E7A6000057A7000058A70000C9A773
:101380000000CAA700003BA800003CA80000ACA8D1
:101390000000ADA800001EA900001FA9000090A930
:1013A000000091A9000001AA000002AA000073AA8F
:1013B000000074AA000056AB000057AB000039AC27
:1013C00000003AAC0000ABAC0000ACAC00001DADBE
:1013D00000001EAD00008EAD00008FAD000000AE1D
:1013E000000001AE000072AE000073AE0000E3AE7C
:1013F0000000E4AE000055AF000056AF0000C7AFDC
:101400000000C7AF000038B0000039B00000AAB03B
:101410000000ABB000001BB100001CB100008DB19A
:1014200000008EB1000070B2000071B20000E2B2A4
:101430000000E3B2000054B3000055B30000C5B390
:101440000000C6B3000037B4000038B40000A9B4EF
:101450000000A9B400001AB500001BB500008CB54F
:1014600000008DB50000FDB50000FEB50000E1B63E
:101470000000E2B60000E2B60000E2B60000E2B60C
:101480000000A7B80000A7B80000A7B80000A7B8E0
:101490000000000026052605260526052605000075
:1014A000740500001F0600002D080000260500003E
:1014B000740500001F0600002D0800002D09000023
:1014C0004D0A00002D090000B70700002D0800009C
:1014D0001F06000026050000740500001F0600001E
:1014E0002D0800002D090000B70700002D0800009E
:1014F0002D090000E90A00004D0A0000E90A000079
:101500002D0900000F03000070030000930200008B
:10151000930200000B0200006E0200004B0200006C
:101520000B0200000B0200004B0200006E020000E4
:101530006E0200004B0200000B0200004B02000094
:10154000930200000F0300007003000093020000EC
:101550000F0300004B020000930200000B0200008A
:101560004B0200000B020000930200000F0300007A
:1015700070030000930200000F0300004B02000004
:10158000930200000B0200006E02000093020000B4
:101590006E0200004B0200000B0200004B02000034
:1015A0006E0200000B0200004B02000093020000DC
:1015B0000F0300004B020000930200004B020000EA
:1015C0000B0200004B0200000B0200004B02000067
:1015D0000F0300007003000093020000930200005C
:1015E0000B0200006E0200004B0200000B02000024
:1015F0000B0200004B0200006E0200006E020000B1
:101600004B0200000B0200004B020000930200009E
:101610000F03000070030000930200000F0300009E
:101620004B020000930200000B0200004B0200007E
:101630000B020000930200000F0300007003000083
:10164000930200000F0300004B0200009302000011
:101650000B0200006E020000930200006E02000008
:101660004B0200000B0200004B0200006E02000063
:101670000B0200004B020000930200000F03000069
:101680004B020000930200004B0200000B0200001E
:101690004B0200000B0200004B0200000B02000096
:1016A00087010000B80100000B0200008701000064
:1016B000B80100000B0200004B0200009302000082
:1016C0000B020000BA02000093020000BA02000000
:1016D0000F0300000B0200000B0200008701000056
:1016E000B80100000B02000087010000BA020000F0
:1016F000930200004B0200000B0200008701000073
:10170000490100005D010000870100000B0200009C
:1017100087010000B80100000B02000087010000F3
:10172000B80100000B0200000B0200004B02000099
:10173000930200000B02000087010000B8010000C6
:10174000870100000B0200000B020000ED01000009
:101750000B02000087010000B80100000B0200002E
:10176000BA02000093020000BA0200000F0300005A
:101770000B020000ED0100000B02000087010000D9
:10178000B80100000B02000087010000B801000052
:101790000B0200004B020000930200000B0200004D
:1017A000BA02000093020000BA0200000F0300001A
:1017B0000B0200000B02000087010000B8010000CE
:1017C0000B02000087010000BA0200009302000033
:1017D0004B0200000B0200008701000049010000DD
:1017E0005D010000870100000B020000870100007E
:1017F000B80100000B02000087010000B8010000E2
:101800000B0200000B0200004B02000093020000DC
:101810000B02000087010000B801000087010000F2
:101820000B0200000B020000ED0100000B020000A3
:1018300087010000B80100000B020000BA0200009E
:1018400093020000BA0200000F0300000B02000028
:101850004B0200000F030000700300009302000021
:10186000930200000B0200006E0200004B02000019
:101870000B0200000B0200004B0200006E02000091
:101880006E0200004B0200000B0200004B02000041
:10189000930200000F030000700300009302000099
:1018A0000F0300004B020000930200000B02000037
:1018B0004B0200000B020000930200000F03000027
:1018C00070030000930200000F0300004B020000B1
:1018D000930200000B0200006E0200009302000061
:1018E0006E0200004B0200000B0200004B020000E1
:1018F0006E0200000B0200004B0200009302000089
:101900000F0300004B020000930200004B02000096
:101910000B0200004B0200000B0200004B02000013
:101920000F03000070030000930200009302000008
:101930000B0200006E0200004B0200000B020000D0
:101940000B0200004B0200006E0200006E0200005D
:101950004B0200000B0200004B020000930200004B
:101960000F03000070030000930200000F0300004B
:101970004B020000930200000B0200004B0200002B
:101980000B020000930200000F0300007003000030
:10199000930200000F0300004B02000093020000BE
:1019A0000B0200006E020000930200006E020000B5
:1019B0004B0200000B0200004B0200006E02000010
:1019C0000B0200004B020000930200000F03000016
:1019D0004B020000930200004B0200000B020000CB
:1019E0004B02000016040F0393020B0200000000DC
:1019F0000000000000000000240027002A00000072
:101A00000000250028002B00020100000000002338
:101A10000026002900040404040404040402020251
:101A2000020202030303030303010204081020401F
:101A300080010204081020010204081020000000A8
:101A4000080002010000030407000000000000007D
:101A50000000941511241FBECFEFD8E0DEBFCDBF2C
:101A600011E0A0E0B1E0E4E1FCE202C005900D92DB
:101A7000A633B107D9F722E0A6E3B1E001C01D9279
:101A8000A631B207E1F71DE0CAE2DDE004C021970C
:101A9000FE010E940216C932D107C9F70E94151132
:101AA0000C9408160C940000AF92BF92CF92DF9274
:101AB000EF92FF920F931F93CF93DF936C017B0103
:101AC0008B01040F151FEB015E01AE18BF08C01794
:101AD000D10759F06991D601ED91FC910190F08107
:101AE000E02DC6010995892B79F7C501DF91CF91CA
:101AF0001F910F91FF90EF90DF90CF90BF90AF902C
:101B00000895FC01538D448D252F30E0842F90E003
:101B1000821B930B541710F0CF96089501970895E8
:101B2000FC01918D828D981761F0A28DAE0FBF2FB1
:101B3000B11D5D968C91928D9F5F9F73928F90E007
:101B400008958FEF9FEF0895FC01918D828D981776
:101B500031F0828DE80FF11D858D90E008958FEFB3
:101B60009FEF0895FC01918D228D892F90E0805C7C
:101B70009F4F821B91098F739927089589E791E000
:101B80000E94B20D21E0892B09F420E0822F0895F4
:101B900080E090E0892B29F00E94BE0D81110C9409
:101BA00000000895FC01A48DA80FB92FB11DA35A00
:101BB000BF4F2C91848D90E001968F739927848F6D
:101BC000A689B7892C93A089B1898C918370806490
:101BD0008C93938D848D981306C00288F389E02D31
:101BE00080818F7D80830895EF92FF920F931F93E2
:101BF000CF93DF93EC0181E0888F9B8D8C8D9813C0
:101C00001AC0E889F989808185FF15C09FB7F894CB
:101C1000EE89FF896083E889F98980818370806417
:101C200080839FBF81E090E0DF91CF911F910F9162
:101C3000FF90EF900895F62E0B8D10E00F5F1F4F71
:101C40000F731127E02E8C8D8E110CC00FB607FC80
:101C5000FACFE889F989808185FFF5CFCE010E940E
:101C6000D20DF1CFEB8DEC0FFD2FF11DE35AFF4F9D
:101C7000F0829FB7F8940B8FEA89FB89808180629C
:101C8000CFCFCF93DF93EC01888D8823B9F0AA8959
:101C9000BB89E889F9898C9185FD03C0808186FD27
:101CA0000DC00FB607FCF7CF8C9185FFF2CF808176
:101CB00085FFEDCFCE010E94D20DE9CFDF91CF910C
:101CC0000895833081F028F4813099F08230A9F0B2
:101CD00008958730A9F08830C9F08430B1F480913C
:101CE00080008F7D03C0809180008F77809380007B
:101CF000089584B58F7784BD089584B58F7DFBCF1B
:101D00008091B0008F778093B00008958091B000EB
:101D10008F7DF9CFCF93DF93EDE3FAE18491E9E290
:101D2000FAE1D491E5E1FAE1C491CC23A1F081116B
:101D30000E94610EEC2FF0E0EE0FFF1FE55FF54E05
:101D4000A591B491EC91ED2381E090E009F480E05D
:101D5000DF91CF91089580E090E0FACF1F93CF9369
:101D6000DF93282F30E0F901E35CF54E8491F9010F
:101D7000E75DF54ED491F901EB5EF54EC491CC23AD
:101D8000A9F0162F81110E94610EEC2FF0E0EE0FEA
:101D9000FF1FE250F64EA591B4918FB7F894EC91E5
:101DA000111108C0D095DE23DC938FBFDF91CF9156
:101DB0001F910895DE2BF8CFCF93DF9390E0FC01C5
:101DC000E75DF54E24918B5E954EFC01849188234E
:101DD000D1F090E0880F991FFC01EC50F64EA591D0
:101DE000B491FC01E250F64EC591D491623071F489
:101DF0009FB7F8943C91822F809583238C93E88140
:101E00002E2B28839FBFDF91CF9108958FB7F89431
:101E1000EC912E2B2C938FBFF6CF3FB7F894809187
:101E2000370190913801A0913901B0913A0126B55E
:101E3000A89B05C02F3F19F00196A11DB11D3FBF02
:101E4000BA2FA92F982F8827BC01CD01620F711DD1
:101E5000811D911D42E0660F771F881F991F4A95CB
:101E6000D1F708950C940D0FFC019181913069F028
:101E7000923089F0911105C090916E009D7F9093F2
:101E80006E0060E080810C94AE0E90916F009D7F9B
:101E900090936F00F6CF909170009D7F90937000AB
:101EA000F0CFCF93DF93FC0101900020E9F7319749
:101EB000AF01481B590BBC0189E791E00E94540D0A
:101EC000EC0142E050E062E271E089E791E00E94BB
:101ED000540D8C0F9D1FDF91CF9108951F920F928B
:101EE0000FB60F9211242F933F934F935F936F93ED
:101EF0007F938F939F93AF93BF93EF93FF9389E764
:101F000091E00E94D20DFF91EF91BF91AF919F910F
:101F10008F917F916F915F914F913F912F910F9092
:101F20000FBE0F901F9018951F920F920FB60F9231
:101F300011242F938F939F93EF93FF93E091890147
:101F4000F0918A018081E0918F01F091900182FDF2
:101F50001BC09081809192018F5F8F7320919301BC
:101F6000821741F0E0919201F0E0E758FE4F958F23
:101F700080939201FF91EF919F918F912F910F90FC
:101F80000FBE0F901F9018958081F4CF1F920F9273
:101F90000FB60F9211242F933F938F939F93AF937C
:101FA000BF938091450190914601A0914701B09166
:101FB00048013091360123E0230F2D3758F5019663
:101FC000A11DB11D209336018093450190934601D8
:101FD000A0934701B0934801809137019091380157
:101FE000A0913901B0913A010196A11DB11D8093D4
:101FF000370190933801A0933901B0933A01BF9112
:10200000AF919F918F913F912F910F900FBE0F90A5
:102010001F90189526E8230F0296A11DB11DD2CF5F
:102020001F920F920FB60F9211242F933F938F930D
:102030009F93AF93BF93EF93FF938091490190914A
:102040004A01A0914B01B0914C010097A105B10547
:1020500031F130913B01E0913C01F0913D01208153
:1020600023272083181619061A061B061CF401974D
:10207000A109B1098093490190934A01A0934B01B2
:10208000B0934C01FF91EF91BF91AF919F918F91D0
:102090003F912F910F900FBE0F901F901895209198
:1020A00070002D7F2093700020913B01E0913C0156
:1020B000F0913D013081209523232083DBCF1F92B7
:1020C0000F920FB60F9211248F939F93AF93BF93EC
:1020D000EF93FF9380914D0190914E01A0914F019C
:1020E000B0915001892B8A2B8B2BA1F190913E014D
:1020F000E0913F01F09140018081892780838091A8
:102100004D0190914E01A0914F01B09150011816D0
:1021100019061A061B069CF480914D0190914E0100
:10212000A0914F01B09150010197A109B10980938D
:102130004D0190934E01A0934F01B0935001FF9138
:10214000EF91BF91AF919F918F910F900FBE0F9024
:102150001F90189580916F008D7F80936F00809104
:102160003E01E0913F01F0914001908180958923EB
:102170008083E5CF1F920F920FB60F9211248F9399
:102180009F93AF93BF93EF93FF93809151019091F1
:102190005201A0915301B0915401892B8A2B8B2BB2
:1021A000A1F190914101E0914201F09143018081C0
:1021B000892780838091510190915201A091530110
:1021C000B0915401181619061A061B069CF480914A
:1021D000510190915201A0915301B0915401019786
:1021E000A109B1098093510190935201A093530129
:1021F000B0935401FF91EF91BF91AF919F918F9157
:102200000F900FBE0F901F90189580916E008D7FDC
:1022100080936E0080914101E0914201F091430171
:102220009081809589238083E5CFCF93DF93CDB7CD
:10223000DEB72A970FB6F894DEBF0FBECDBF7894F5
:1022400084B5826084BD84B5816084BD85B58260BB
:1022500085BD85B5816085BD80916E00816080936C
:102260006E001092810080918100826080938100D5
:1022700080918100816080938100809180008160E5
:10228000809380008091B10084608093B100809140
:10229000B00081608093B00080917A008460809368
:1022A0007A0080917A00826080937A0080917A002F
:1022B000816080937A0080917A00806880937A00B0
:1022C0001092C100E0918901F0918A0182E080833F
:1022D000E0918501F09186011082E0918701F091F3
:1022E00088018FEC808310929101E0918D01F09133
:1022F0008E0186E08083E0918B01F0918C018081DA
:1023000080618083E0918B01F0918C0180818860F5
:102310008083E0918B01F0918C01808180688083C3
:10232000E0918B01F0918C0180818F7D808362E050
:1023300080E00E94DC0E61E08DE00E94DC0E61E036
:1023400089E00E94DC0E61E08AE00E94DC0EA5E5D7
:10235000B1E005E711E069E671E04DE651E029E5FD
:1023600031E082E1282E81E0382EFF24FA94F10139
:1023700086819781F90191838083FA0111921192EC
:1023800011921192AF01FB0111921192BF01F8015C
:10239000119211928F01F10190818091440183305B
:1023A00008F01FC19C93E82FF0E0E85FF54EE49140
:1023B0001196EC9311978F5F80934401E13009F4FB
:1023C000C4C008F4A2C0E23009F4E5C0F90180817C
:1023D0009181FC01E150F04CCF01880F991F880FCB
:1023E000991FF101C480D580F601E80FF91F4590CF
:1023F00055906590749080905D0190905E01A090E2
:102400005F01B090600184149504A604B70410F431
:102410005301420180925D0190925E01A0925F01A2
:10242000B0926001F8E02F0E311C2E5F3F4F1296E4
:1024300082E2281681E0380609F099CF0E94320F17
:1024400060E08DE00E94AE0E00E010E00E948A0E77
:102450009C838B83019711F00B831C830E948A0E4F
:102460009A838983892B09F0C0C0AB81BC81119705
:1024700009F0BBC061E08DE00E94AE0E85E291E004
:102480000E94510F69E671E00DE6C02E01E0D02EEA
:1024900045E751E0A2E1B1E01496ED90FC9015976C
:1024A000FA0180819181FC01EE0FFF1FEE0FFF1FEB
:1024B000EE0DFF1D0591159125913491F6010083D4
:1024C000118322833383FA012081318189010F5FD7
:1024D0001F4FC801880F991F880F991F8E0D9F1DD0
:1024E000FC0185909590A590B490F60140805180B4
:1024F00062807380481459046A047B0409F078C030
:10250000FA0111830083FC01D5CF14BC15BC84B53E
:10251000826084BD85B5816085BD8C9190E0FC01B1
:10252000EB5EF54EE491F0E0EE0FFF1FE250F64E49
:10253000C590D490D0924301C0924201FC01E75D66
:10254000F54EE491E093410141CF1092800010924A
:10255000810080918100886080938100809181005A
:102560008160809381008C9190E0FC01EB5EF54EE0
:10257000E491F0E0EE0FFF1FE250F64EC590D490CC
:10258000D0924001C0923F01FC01E75DF54EE4911D
:10259000E0933E011BCF1092B0001092B1008091E9
:1025A000B00082608093B0008091B1008160809320
:1025B000B1008C9190E0FC01EB5EF54EE491F0E00F
:1025C000EE0FFF1FE250F64EC590D490D0923D0121
:1025D000C0923C01FC01E75DF54EE491E0933B01C4
:1025E000F5CE1196FC921197F1CE0B811C812ECF66
:1025F00090E080E01216130664F421503048220F58
:10260000331F1296ED91FC911397E20FF31F859102
:102610009491FB0181939193BF0118964E5F5F4F98
:10262000F4E0CF0ED11C81E0A232B80709F034CF1C
:102630002FB7F8948091450190914601A0914701F0
:10264000B09148012FBF8093650190936601A093DC
:102650006701B09368011E821D8240916101509113
:102660006201609163017091640180915D019091BC
:102670005E01A0915F01B091600184179507A607E4
:10268000B70708F42AC2AD81BE81119709F425C2AB
:102690002FB7F8948091450190914601A091470190
:1026A000B09148012FBF4091650150916601609142
:1026B000670170916801841B950BA60BB70B809383
:1026C000610190936201A0936301B0936401E5E519
:1026D000F1E0FA87E9877DE6272E71E0372E89E55C
:1026E00091E09C838B83E5E7CE2EE1E0DE2EF12C9A
:1026F000E12CAB81BC818D919D91BC83AB83F601B4
:1027000020813181281739070CF0E2C10E948A0E1E
:10271000019721F481E090E09A8389830E948A0ED8
:10272000892B61F4A981BA81119741F480E391E08A
:102730000E94510FE1E0F0E0FE83ED83C70187596D
:102740009E4F98878F83DC018D909C9018141904FC
:102750000CF0B9C1E985FA85818187FD02C161E08C
:1027600080810E94DC0EA985BA8511961C91092CE6
:10277000000CAA08BB08812F8D7F09F052C160E0D0
:1027800072E18AE790E0A50194010E94C115290138
:102790003A01DA01C9010197A109B1098F3F9105F9
:1027A000A105B10509F00CF4B8C060E472E48FE053
:1027B00090E0A50194010E94C11521503109410901
:1027C0005109123009F06AC082E02F3F31054105FE
:1027D000510509F00CF45BC060E970ED83E090E016
:1027E000A50194010E94C1152150310941095109E7
:1027F00083E02F3F31054105510509F00CF447C036
:1028000068E478EE81E090E0A50194010E94C11592
:10281000215031094109510984E02F3F310541051B
:102820005105A9F1A4F164E274EF80E090E0A50104
:1028300094010E94C115215031094109510985E0D7
:102840002F3F31054105510511F108F162E17AE7A9
:1028500080E090E0A50194010E94C115215031094A
:102860004109510986E02F3F31054105510579F0B5
:1028700070F09AE075946794579447949A95D1F7BD
:10288000A3019201215031094109510987E090913A
:10289000B100987F892B8093B10047C02F3F31054D
:1028A0004105510509F00CF4BAC068E478EE81E006
:1028B00090E0A50194010E94C11521503109410900
:1028C000510984E01111BCCF83E02F3F3105410550
:1028D000510539F134F162E17AE780E090E0A50139
:1028E00094010E94C115215031094109510984E028
:1028F0002F3F310541055105A1F098F08AE075940C
:102900006794579447948A95D1F7A3019201215077
:1029100031094109510985E004C09C0181E0111190
:10292000B6CF95B5987F892B85BDE985FA858181DC
:10293000813009F4A0C0823009F4B2C0811111C005
:1029400027BD8FEF9FEFDC018093510190935201DF
:10295000A0935301B093540180916E0082608093E4
:102960006E00D1014D915D916D917C9180916101DD
:1029700090916201A0916301B09164018417950761
:10298000A607B70708F437C0F60120813181C901D5
:10299000019691838083EB81FC8132974081518144
:1029A0008417950744F5D701AA0FBB1FAA0FBB1FB9
:1029B000AE5EBE4F220F331F1296ED91FC9113971E
:1029C000E20FF31F45915491EF81F88551834083C5
:1029D000880F991F880F991F1496ED91FC91E80FAD
:1029E000F91F4591559165917491D1014D935D9376
:1029F0006D937C931397B2E0CB0ED11CE4E02E0EC6
:102A0000311C89859A8502969A87898792E0E90E1A
:102A1000F11CA4E0EA16F10409F41FCE6ACE82E0AC
:102A20007ECF60E072E18AE790E0A50194010E9408
:102A3000C115215031094109510991E02115310594
:102A4000B1E04B0751056CF068E478EE81E090E06E
:102A5000A50194010E94C115215031094109510974
:102A600093E0113009F061CF80918100887F892B3C
:102A7000809381005ACF30938900209388008FEF94
:102A80009FEFDC0180934D0190934E01A0934F0185
:102A9000B093500180916F00826080936F0061CF8E
:102AA0002093B3008FEF9FEFDC0180934901909357
:102AB0004A01A0934B01B0934C0180917000826059
:102AC000809370004ECF89859A850E94340F49CF3C
:102AD00089859A850E94340F8ECF109261011092E1
:102AE00062011092630110926401109276011092BB
:102AF000750185E591E00E94340F109278011092E3
:102B0000770187E591E00E94340F0E94320F80E048
:102B100090E0892B09F494CC0E94BE0D882309F41F
:102B20008FCC0E9400008CCCE9E7F1E01382128286
:102B300088EE93E0A0E0B0E084839583A683B7831A
:102B400084E091E09183808385EC90E09587848791
:102B500084EC90E09787868780EC90E0918B808B67
:102B600081EC90E0938B828B82EC90E0958B848B50
:102B700086EC90E0978B868B118E128E138E148EBE
:102B80000895052E97FB1EF400940E94D81557FD5A
:102B900007D00E94E01507FC03D04EF40C94D81522
:102BA00050954095309521953F4F4F4F5F4F089579
:102BB00090958095709561957F4F8F4F9F4F0895A9
:102BC000A1E21A2EAA1BBB1BFD010DC0AA1FBB1F31
:102BD000EE1FFF1FA217B307E407F50720F0A21BA3
:102BE000B30BE40BF50B661F771F881F991F1A9410
:102BF00069F760957095809590959B01AC01BD013A
:102C0000CF010895EE0FFF1F0590F491E02D099478
:042C1000F894FFCF66
:102C140000000000F40D540D810D410EB20D900D15
:102C2400A40D0C009214CE09B1020900AC06680090
:102C340091010D0A00506C6179696E672E2E2E0089
:062C4400736B69700000D3
:00000001FF
