:100000000C94320B0C945A0B0C945A0B0C945A0B04
:100010000C945A0B0C945A0B0C945A0B0C94180E0B
:100020000C945A0B0C945A0B0C945A0B0C94670EAC
:100030000C945A0B0C945A0B0C94C20E0C945A0B41
:100040000C94CE0D0C945A0B0C949C0D0C94760DC4
:100050000C945A0B0C945A0B0C945A0B0C945A0B8C
:100060000C945A0B0C945A0B00000000150200006F
:100070003202000095030000A90300005A040000AA
:10008000650400002C070000530700006809000009
:1000900085090000E80A0000FC0A0000AD0B000022
:1000A000B80B00007F0E0000A60E0000BB10000081
:1000B000D81000003B1200004F1200000013000097
:1000C0000B130000D2150000F91500000E180000F7
:1000D0002B1800008E190000A2190000531A00000E
:1000E0005E1A0000251D00004C1D0000611F00006D
:1000F0007E1F0000E1200000F5200000A621000086
:10010000B1210000782400009F240000B4260000E4
:10011000D12600003428000048280000F9280000FB
:1001200004290000CB2B0000F22B0000072E00005A
:10013000242E0000872F00009B2F00004C30000071
:10014000573000001E330000453300005A350000D0
:1001500077350000DA360000EE3600009F370000E9
:10016000AA370000713A0000983A0000493B0000AD
:10017000533B0000043C00000F3C0000C03C00006A
:10018000CA3C00007B3D0000863D0000373E000079
:10019000413E0000F23E0000FD3E0000AE3F000088
:1001A000B83F000069400000744000002541000095
:1001B0002F410000E0410000EB4100009C420000A4
:1001C000A6420000574300006243000013440000B1
:1001D0001D440000CE440000D94400008A450000C0
:1001E00094450000454600005046000001470000CD
:1001F0000B470000BC470000C747000078480000DC
:1002000082480000334900003E490000EF490000E9
:10021000F9490000AA4A0000B54A0000664B0000F8
:10022000704B0000214C00002C4C0000DD4C000005
:10023000E74C0000984D0000A34D0000544E000014
:100240005E4E00000F4F00001A4F0000CB4F000021
:10025000D54F000086500000915000004251000030
:100260004C510000FD51000008520000B95200003E
:10027000C3520000745300007F530000305400004C
:100280003A540000EB540000F6540000A75500005B
:10029000B1550000625600006D5600001E57000068
:1002A00028570000D9570000E45700009558000077
:1002B0009F580000505900005B5900000C5A000084
:1002C000165A0000C75A0000D25A0000835B000093
:1002D0008D5B00003E5C0000495C0000FA5C0000A1
:1002E000045D0000B55D0000C05D0000715E0000AF
:1002F0007B5E00002C5F0000375F0000E85F0000BD
:10030000F25F0000A3600000AE6000005F610000CB
:10031000696100001A62000025620000D6620000D8
:10032000E0620000916300009C6300004D640000E7
:10033000576400000865000013650000C4650000F4
:10034000CE6500007F6600008A6600003B67000003
:1003500045670000F667000001680000B268000011
:10036000BC6800006D69000078690000296A00001F
:10037000336A0000E46A0000EF6A0000A06B00002E
:10038000AA6B00005B6C0000666C0000176D00003B
:10039000216D0000D26D0000DD6D00008E6E00004A
:1003A000986E0000496F0000546F00000570000057
:1003B0000F700000C0700000CB7000007C71000066
:1003C000867100003772000042720000F372000074
:1003D000FD720000AE730000B97300006A74000083
:1003E000747400002575000030750000E175000090
:1003F000EB7500009C760000A7760000587700009F
:1004000062770000137800001E780000CF780000AB
:10041000D97800008A79000095790000467A0000BA
:10042000507A0000017B00000C7B0000BD7B0000C7
:10043000C77B0000787C0000837C0000347D0000D6
:100440003E7D0000EF7D0000FA7D0000AB7E0000E5
:10045000B57E0000667F0000717F000022800000F2
:100460002C800000DD800000E88000009981000001
:10047000A3810000548200005F820000108300000E
:100480001A830000CB830000D6830000878400001D
:1004900091840000428500004D850000FE8500002B
:1004A00008860000B9860000C48600007587000039
:1004B0007F870000308800003B880000EC88000047
:1004C000F6880000A7890000B2890000638A000056
:1004D0006D8A00001E8B0000298B0000DA8B000063
:1004E000E48B0000958C0000A08C0000518D000072
:1004F0005B8D00000C8E0000178E0000C88E00007F
:10050000D28E0000838F00008E8F00003F9000008D
:1005100049900000FA90000005910000B69100009B
:10052000C0910000719200007C9200002D930000A9
:1005300037930000E8930000F3930000A4940000B8
:10054000AE9400005F9500006A9500001B960000C5
:1005500025960000D6960000E196000092970000D4
:100560009C9700004D9800005898000009990000E1
:1005700013990000C4990000CF990000809A0000F0
:100580008A9A00003B9B0000469B0000F79B0000FE
:10059000019C0000B29C0000BD9C00006E9D00000C
:1005A000789D0000299E0000349E0000E59E00001A
:1005B000EF9E0000A09F0000AB9F00005CA0000029
:1005C00066A0000017A1000022A10000D3A1000036
:1005D000DDA100008EA2000099A200004AA3000045
:1005E00054A3000005A4000010A40000C1A4000052
:1005F000CBA400007CA5000087A5000038A6000061
:1006000042A60000F3A60000FEA60000AFA700006F
:10061000B9A700006AA8000075A8000026A900007C
:1006200030A90000E1A90000ECA900009DAA00008B
:10063000A7AA000058AB000063AB000014AC000098
:100640001EAC0000CFAC0000DAAC00008BAD0000A7
:1006500095AD000046AE000051AE000002AF0000B4
:100660000CAF0000BDAF0000C8AF000079B00000C3
:1006700083B0000034B100003FB10000F0B10000D1
:10068000FAB10000ABB20000B6B2000067B30000E0
:1006900071B3000022B400002DB40000DEB40000ED
:1006A000E8B4000099B50000A4B5000055B60000FC
:1006B0005FB6000010B700001BB70000CCB7000009
:1006C000D6B7000087B8000092B8000043B9000018
:1006D0004DB90000FEB9000009BA0000BABA000026
:1006E000C4BA000075BB000080BB000031BC000034
:1006F0003BBC0000ECBC0000F7BC0000A8BD000043
:10070000B2BD000063BE00006EBE00001FBF00004F
:1007100029BF0000DABF0000E5BF000096C000005E
:10072000A0C0000051C100005CC100000DC200006B
:1007300017C20000C8C20000D3C2000084C300007A
:100740008EC300003FC400004AC40000FBC4000088
:1007500005C50000B6C50000C1C5000072C6000096
:100760007CC600002DC7000074000000AE00000031
:10077000E90000008200000074000000AE000000EC
:10078000E90000009B00000074000000AE000000C3
:10079000E90000008200000074000000AE000000CC
:1007A000E90000009B0000005C0000008A000000DF
:1007B000AE000000820000005C0000008A00000023
:1007C000AE000000DC00000074000000AE0000007D
:1007D000E90000008200000074000000AE0000008C
:1007E000E90000009B00000074000000AE00000063
:1007F00074000000AE0000006E000000A4000000C5
:100800006E000000A400000082000000C300000091
:1008100082000000C30000007B000000B800000060
:100820007B000000B800000074000000AE00000073
:1008300074000000AE0000006E000000A400000084
:100840006E000000A400000082000000C300000051
:1008500082000000C30000007B000000B800000020
:100860007B000000B800000074000000AE00000033
:1008700074000000AE0000006E000000A400000044
:100880006E000000A400000082000000C300000011
:1008900082000000C30000007B000000B8000000E0
:1008A0007B000000B800000074000000AE000000F3
:1008B00074000000AE0000006E000000A400000004
:1008C0006E000000A400000082000000C3000000D1
:1008D00082000000C30000007B000000B8000000A0
:1008E0007B000000B80000005C0000008A000000EF
:1008F0005C0000008A000000670000009B00000010
:10090000670000009B00000074000000AE000000C3
:1009100074000000AE000000610000009B000000B9
:10092000610000009B0000005C0000008A000000E5
:100930005C0000008A000000670000009B000000CF
:10094000670000009B00000074000000AE00000083
:1009500074000000AE00000074000000AE00000053
:10096000670000009B0000005C0000008A0000009F
:100970005C0000008A000000670000009B0000008F
:10098000670000009B00000074000000AE00000043
:1009900074000000AE000000610000009B00000039
:1009A000610000009B0000005C0000008A00000065
:1009B0005C0000008A000000670000009B0000004F
:1009C000670000009B00000074000000AE00000003
:1009D00074000000AE00000074000000AE000000D3
:1009E00074000000AE0000005C0000008A000000FF
:1009F0005C0000008A000000670000009B0000000F
:100A0000670000009B00000074000000AE000000C2
:100A100074000000AE000000610000009B000000B8
:100A2000610000009B0000005C0000008A000000E4
:100A30005C0000008A000000670000009B000000CE
:100A4000670000009B00000074000000AE00000082
:100A500074000000AE00000074000000AE00000052
:100A6000670000009B0000005C0000008A0000009E
:100A70005C0000008A000000670000009B0000008E
:100A8000670000009B00000074000000AE00000042
:100A900074000000AE000000610000009B00000038
:100AA000610000009B0000005C0000008A00000064
:100AB0005C0000008A000000670000009B0000004E
:100AC000670000009B00000074000000AE00000002
:100AD00074000000AE00000074000000AE000000D2
:100AE00074000000AE0000000000000000000000E4
:100AF00000000000000000000000000000000000F6
:100B000000000000580000005D000000B60000007A
:100B1000BB0000001301000019010000710100007A
:100B200077010000CF010000D40100002D02000079
:100B3000320200008A02000090020000E802000079
:100B4000EE020000460300004B030000A403000077
:100B5000A903000001040000070400005F04000076
:100B6000650400006F0500007E0500008806000097
:100B7000970600004807000053070000AB0700007D
:100B8000B0070000090800000E0800006608000019
:100B90006C080000C4080000CA0800002209000018
:100BA000270900008009000085090000DD09000018
:100BB000E30900003B0A0000410A0000990A000016
:100BC0009E0A0000F70A0000FC0A0000540B000017
:100BD0005A0B0000B20B0000B80B0000C20C000062
:100BE000D10C0000DB0D0000EA0D00009B0E0000A0
:100BF000A60E0000FE0E0000030F00005C0F0000B8
:100C0000610F0000B90F0000BF0F000017100000B7
:100C10001D100000751000007A100000D3100000B5
:100C2000D810000030110000361100008E110000B5
:100C300094110000EC110000F11100004A120000B4
:100C40004F120000A7120000AD12000005130000B3
:100C50000B13000015140000241400002E150000D2
:100C60003D150000EE150000F915000051160000BA
:100C700056160000AF160000B41600000C17000056
:100C8000121700006A17000070170000C817000054
:100C9000CD170000261800002B1800008318000054
:100CA00089180000E1180000E71800003F19000053
:100CB000441900009D190000A2190000FA19000053
:100CC000001A0000581A00005E1A0000681B00009D
:100CD000771B0000811C0000901C0000411D0000DB
:100CE0004C1D0000A41D0000A91D0000021E0000F4
:100CF000071E00005F1E0000651E0000BD1E0000F4
:100D0000C31E00001B1F0000201F0000791F0000F1
:100D10007E1F0000D61F0000DC1F000034200000F2
:100D20003A2000009220000097200000F0200000F0
:100D3000F52000004D21000053210000AB210000F0
:100D4000B1210000BB220000CA220000D423000011
:100D5000E3230000942400009F240000F7240000F7
:100D6000FC240000552500005A250000B225000093
:100D7000B825000010260000162600006E26000090
:100D800073260000CC260000D12600002927000091
:100D90002F270000872700008D270000E52700008F
:100DA000EA2700004328000048280000A02800008F
:100DB000A6280000FE280000042900000E2A0000DA
:100DC0001D2A0000272B0000362B0000E72B000017
:100DD000F22B00004A2C00004F2C0000A82C000031
:100DE000AD2C0000052D00000B2D0000632D000030
:100DF000692D0000C12D0000C62D00001F2E00002F
:100E0000242E00007C2E0000822E0000DA2E00002E
:100E1000E02E0000382F00003D2F0000962F00002C
:100E20009B2F0000F32F0000F92F0000513000002D
:100E30005730000061310000703100007A3200004C
:100E4000893200003A330000453300009D33000032
:100E5000A2330000FB3300000034000058340000CF
:100E60005E340000B6340000BC34000014350000CD
:100E7000193500007235000077350000CF350000CD
:100E8000D53500002D360000333600008B360000CB
:100E900090360000E9360000EE36000046370000CC
:100EA0004C370000A4370000AA370000B438000017
:100EB000C3380000CD390000DC3900008D3A000055
:100EC000983A0000FB3B00000F3C0000723D000020
:100ED000863D0000E93E0000FD3E0000604000004D
:100EE00074400000D7410000EB4100004E43000079
:100EF00062430000C5440000D94400003C460000A5
:100F000050460000B3470000C74700002A490000D0
:100F10003E490000A14A0000B54A0000184C0000FC
:100F20002C4C00008F4D0000A34D0000064F000028
:100F30001A4F00007D50000008520000B952000016
:100F40007F530000E2540000F654000059560000A0
:100F50006D560000D0570000E457000047590000CC
:100F60005B590000BE5A0000D25A0000355C0000F8
:100F7000495C0000AC5D0000C05D0000235F000024
:100F8000375F00009A600000AE6000001162000050
:100F900025620000886300009C630000FF6400007D
:100FA00013650000766600008A6600005169000043
:100FB00078690000DB6A0000EF6A0000526C0000F4
:100FC000666C0000C96D0000DD6D0000406F000020
:100FD000546F0000B7700000CB7000007C710000FF
:100FE000867100003772000042720000A573000095
:100FF000B97300001C75000030750000E175000039
:10100000EB7500009C760000A77600005877000082
:1010100062770000137800001E780000CF7800008F
:10102000D978000031790000377900008F7900000D
:1010300095790000467A0000507A0000017B00009C
:101040000C7B0000BD7B0000C77B0000787C0000AB
:10105000837C0000347D00003E7D0000EF7D0000B9
:10106000FA7D00005D7F0000E88000004B820000F8
:101070005F820000C2830000D68300003985000033
:101080004D850000B0860000C4860000278800005F
:101090003B880000EC880000F6880000A78900006B
:1010A000B2890000158B0000298B00008C8C000099
:1010B000A08C0000518D00005B8D00000C8E0000A4
:1010C000178E0000C88E0000D28E0000838F0000B3
:1010D0008E8F00003F90000049900000A19000001A
:1010E000A7900000FF90000005910000B69100005D
:1010F000C0910000719200007C920000A796000051
:1011000058980000BB990000CF990000329B000066
:10111000469B0000A99C0000BD9C0000209E000092
:10112000349E0000979F0000AB9F00005CA0000071
:1011300066A0000017A1000022A1000085A2000007
:1011400099A20000FCA3000010A40000C1A40000AC
:10115000CBA400007CA5000087A5000038A60000F5
:1011600042A60000F3A60000FEA60000AFA7000004
:10117000B9A7000011A8000017A800006FA8000080
:1011800075A8000026A9000030A90000E1A9000010
:10119000ECA900009DAA0000A7AA000058AB00001F
:1011A00063AB000014AC00001EAC0000CFAC00002C
:1011B000DAAC00003DAE0000C8AF00002BB100006B
:1011C0003FB10000A2B20000B6B2000019B40000A6
:1011D0002DB4000090B50000A4B5000007B70000D2
:1011E0001BB70000CCB70000D6B7000087B80000DE
:1011F00092B80000F5B9000009BA00006CBB00000D
:1012000080BB000031BC00003BBC0000ECBC000017
:10121000F7BC0000A8BD0000B2BD000063BE000026
:101220006EBE00001FBF000029BF000081BF00008C
:1012300087BF0000DFBF0000E5BF000096C00000D0
:10124000A0C0000051C100005CC1000087C50000C3
:101250000000000000000000000000002A02000062
:10126000D20100005D0100002A020000D20100004E
:101270005D0100002A020000D20100005D010000B3
:101280002A020000D20100005D0100000B020000F4
:101290000B0200000B0200002A020000D201000035
:1012A0005D0100002A020000D20100005D01000083
:1012B0002A020000D20100005D0100002A020000A5
:1012C000D20100005D0100006E0200006E0200000D
:1012D0006E0200002A020000D20100005D01000041
:1012E0002A020000D20100005D0100002A02000075
:1012F000D20100005D0100002A020000D2010000BE
:101300005D0100000B0200000B0200000B02000058
:101310002A020000D20100005D0100002A02000044
:10132000D20100005D0100002A020000D20100008D
:101330005D0100002A020000D20100005D010000F2
:101340006E0200006E0200006E0200002A02000021
:10135000D20100005D0100002A020000D20100005D
:101360005D0100002A020000D20100005D010000C2
:101370002A020000D20100005D0100000B02000003
:101380000B0200000B0200002A020000D201000044
:101390005D0100002A020000D20100005D01000092
:1013A0002A020000D20100005D0100002A020000B4
:1013B000D20100005D0100006E0200006E0200001C
:1013C0006E0200002A020000D20100005D01000050
:1013D0002A020000D20100005D0100002A02000084
:1013E000D20100005D0100002A020000D2010000CD
:1013F0005D0100000B0200000B0200000B02000068
:101400002A020000D20100005D0100002A02000053
:10141000D20100005D0100002A020000D20100009C
:101420005D0100002A020000D20100005D01000001
:101430006E0200006E0200006E020000BA020000A0
:101440002A020000930200000B0200000F030000BC
:10145000930200006E020000E3020000BA020000E6
:101460002A020000930200000B0200000F0300009C
:10147000930200006E020000BA0200002A0200007F
:10148000930200000B0200000F0300009302000013
:101490006E020000E3020000BA0200002A0200000F
:1014A000930200000B0200000F03000093020000F3
:1014B0006E020000D2010000BA0200000B02000020
:1014C000BA0200002A0200006E020000BA02000008
:1014D0006E0200000F030000A4030000E3020000FE
:1014E0001604000054040000160400005404000018
:1014F00016040000A40300003E030000BA0200002E
:101500003E0300006E020000BA0200002A02000042
:10151000D2010000BA0200000B020000BA02000073
:101520002A0200006E020000BA0200006E020000F3
:101530000F030000A4030000E302000016040000F3
:1015400054040000160400005404000016040000B7
:10155000A40300003E030000A4030000D201000029
:10156000BA0200000B020000BA0200002A020000CA
:101570006E020000BA0200006E0200000F030000BD
:10158000A4030000E302000016040000540400005D
:10159000160400005404000016040000A403000018
:1015A0003E030000BA0200003E0300006E0200008D
:1015B000BA0200002A020000D2010000BA020000B4
:1015C0000B020000BA0200002A0200006E020000B6
:1015D000BA0200006E0200000F030000A403000026
:1015E000E30200001604000054040000160400008A
:1015F0005404000016040000A40300003E03000091
:10160000A403000000000000240027002A000000BE
:101610000000250028002B0002010000000000232C
:101620000026002900040404040404040402020245
:101630000202020303030303030102040810204013
:10164000800102040810200102040810200000009C
:101650000800020100000304070000000000000071
:1016600000009C1311241FBECFEFD8E0DEBFCDBF1A
:1016700011E0A0E0B1E0E4E2F8E202C005900D92D2
:10168000A633B107D9F722E0A6E3B1E001C01D926D
:10169000A631B207E1F71BE0C2E3DBE004C021970B
:1016A000FE010E940A14C133D107C9F70E941D0F21
:1016B0000C9410140C940000AF92BF92CF92DF9262
:1016C000EF92FF920F931F93CF93DF936C017B01F7
:1016D0008B01040F151FEB015E01AE18BF08C01788
:1016E000D10759F06991D601ED91FC910190F081FB
:1016F000E02DC6010995892B79F7C501DF91CF91BE
:101700001F910F91FF90EF90DF90CF90BF90AF901F
:101710000895FC01538D448D252F30E0842F90E0F7
:10172000821B930B541710F0CF96089501970895DC
:10173000FC01918D828D981761F0A28DAE0FBF2FA5
:10174000B11D5D968C91928D9F5F9F73928F90E0FB
:1017500008958FEF9FEF0895FC01918D828D98176A
:1017600031F0828DE80FF11D858D90E008958FEFA7
:101770009FEF0895FC01918D228D892F90E0805C70
:101780009F4F821B91098F739927089589E791E0F4
:101790000E94BA0B21E0892B09F420E0822F0895E2
:1017A00080E090E0892B29F00E94C60B81110C94F7
:1017B00000000895FC01A48DA80FB92FB11DA35AF4
:1017C000BF4F2C91848D90E001968F739927848F61
:1017D000A689B7892C93A089B1898C918370806484
:1017E0008C93938D848D981306C00288F389E02D25
:1017F00080818F7D80830895EF92FF920F931F93D6
:10180000CF93DF93EC0181E0888F9B8D8C8D9813B3
:101810001AC0E889F989808185FF15C09FB7F894BF
:10182000EE89FF896083E889F9898081837080640B
:1018300080839FBF81E090E0DF91CF911F910F9156
:10184000FF90EF900895F62E0B8D10E00F5F1F4F65
:101850000F731127E02E8C8D8E110CC00FB607FC74
:10186000FACFE889F989808185FFF5CFCE010E9402
:10187000DA0BF1CFEB8DEC0FFD2FF11DE35AFF4F8B
:10188000F0829FB7F8940B8FEA89FB898081806290
:10189000CFCFCF93DF93EC01888D8823B9F0AA894D
:1018A000BB89E889F9898C9185FD03C0808186FD1B
:1018B0000DC00FB607FCF7CF8C9185FFF2CF80816A
:1018C00085FFEDCFCE010E94DA0BE9CFDF91CF91FA
:1018D0000895833081F028F4813099F08230A9F0A6
:1018E00008958730A9F08830C9F08430B1F4809130
:1018F00080008F7D03C0809180008F77809380006F
:10190000089584B58F7784BD089584B58F7DFBCF0E
:101910008091B0008F778093B00008958091B000DF
:101920008F7DF9CFCF93DF93EDE4F6E18491E9E386
:10193000F6E1D491E5E2F6E1C491CC23A1F0811166
:101940000E94690CEC2FF0E0EE0FFF1FE55EF94EF0
:10195000A591B491EC91ED2381E090E009F480E051
:10196000DF91CF91089580E090E0FACF1F93CF935D
:10197000DF93282F30E0F901E35BF94E8491F90100
:10198000E75CF94ED491F901EB5DF94EC491CC239B
:10199000A9F0162F81110E94690CEC2FF0E0EE0FD8
:1019A000FF1FE25FF94EA591B4918FB7F894EC91C7
:1019B000111108C0D095DE23DC938FBFDF91CF914A
:1019C0001F910895DE2BF8CFCF93DF9390E0FC01B9
:1019D000E75CF94E24918B5D994EFC01849188233C
:1019E000D1F090E0880F991FFC01EC5FF94EA591B2
:1019F000B491FC01E25FF94EC591D491623071F46B
:101A00009FB7F8943C91822F809583238C93E88133
:101A10002E2B28839FBFDF91CF9108958FB7F89425
:101A2000EC912E2B2C938FBFF6CF3FB7F89480917B
:101A3000370190913801A0913901B0913A0126B552
:101A4000A89B05C02F3F19F00196A11DB11D3FBFF6
:101A5000BA2FA92F982F8827BC01CD01620F711DC5
:101A6000811D911D42E0660F771F881F991F4A95BF
:101A7000D1F708950C94150DFC019181913069F016
:101A8000923089F0911105C090916E009D7F9093E6
:101A90006E0060E080810C94B60C90916F009D7F89
:101AA00090936F00F6CF909170009D7F909370009F
:101AB000F0CFCF93DF93FC0101900020E9F731973D
:101AC000AF01481B590BBC0189E791E00E945C0BF8
:101AD000EC0142E050E062E271E089E791E00E94AF
:101AE0005C0B8C0F9D1FDF91CF9108951F920F9279
:101AF0000FB60F9211242F933F934F935F936F93E1
:101B00007F938F939F93AF93BF93EF93FF9389E757
:101B100091E00E94DA0BFF91EF91BF91AF919F91FD
:101B20008F917F916F915F914F913F912F910F9086
:101B30000FBE0F901F9018951F920F920FB60F9225
:101B400011242F938F939F93EF93FF93E09189013B
:101B5000F0918A018081E0918F01F091900182FDE6
:101B60001BC09081809192018F5F8F7320919301B0
:101B7000821741F0E0919201F0E0E758FE4F958F17
:101B800080939201FF91EF919F918F912F910F90F0
:101B90000FBE0F901F9018958081F4CF1F920F9267
:101BA0000FB60F9211242F933F938F939F93AF9370
:101BB000BF938091450190914601A0914701B0915A
:101BC00048013091360123E0230F2D3758F5019657
:101BD000A11DB11D209336018093450190934601CC
:101BE000A0934701B093480180913701909138014B
:101BF000A0913901B0913A010196A11DB11D8093C8
:101C0000370190933801A0933901B0933A01BF9105
:101C1000AF919F918F913F912F910F900FBE0F9099
:101C20001F90189526E8230F0296A11DB11DD2CF53
:101C30001F920F920FB60F9211242F933F938F9301
:101C40009F93AF93BF93EF93FF938091490190913E
:101C50004A01A0914B01B0914C010097A105B1053B
:101C600031F130913B01E0913C01F0913D01208147
:101C700023272083181619061A061B061CF4019741
:101C8000A109B1098093490190934A01A0934B01A6
:101C9000B0934C01FF91EF91BF91AF919F918F91C4
:101CA0003F912F910F900FBE0F901F90189520918C
:101CB00070002D7F2093700020913B01E0913C014A
:101CC000F0913D013081209523232083DBCF1F92AB
:101CD0000F920FB60F9211248F939F93AF93BF93E0
:101CE000EF93FF9380914D0190914E01A0914F0190
:101CF000B0915001892B8A2B8B2BA1F190913E0141
:101D0000E0913F01F091400180818927808380919B
:101D10004D0190914E01A0914F01B09150011816C4
:101D200019061A061B069CF480914D0190914E01F4
:101D3000A0914F01B09150010197A109B109809381
:101D40004D0190934E01A0934F01B0935001FF912C
:101D5000EF91BF91AF919F918F910F900FBE0F9018
:101D60001F90189580916F008D7F80936F008091F8
:101D70003E01E0913F01F0914001908180958923DF
:101D80008083E5CF1F920F920FB60F9211248F938D
:101D90009F93AF93BF93EF93FF93809151019091E5
:101DA0005201A0915301B0915401892B8A2B8B2BA6
:101DB000A1F190914101E0914201F09143018081B4
:101DC000892780838091510190915201A091530104
:101DD000B0915401181619061A061B069CF480913E
:101DE000510190915201A0915301B091540101977A
:101DF000A109B1098093510190935201A09353011D
:101E0000B0935401FF91EF91BF91AF919F918F914A
:101E10000F900FBE0F901F90189580916E008D7FD0
:101E200080936E0080914101E0914201F091430165
:101E30009081809589238083E5CFCF93DF93CDB7C1
:101E4000DEB72A970FB6F894DEBF0FBECDBF7894E9
:101E500084B5826084BD84B5816084BD85B58260AF
:101E600085BD85B5816085BD80916E008160809360
:101E70006E001092810080918100826080938100C9
:101E800080918100816080938100809180008160D9
:101E9000809380008091B10084608093B100809134
:101EA000B00081608093B00080917A00846080935C
:101EB0007A0080917A00826080937A0080917A0023
:101EC000816080937A0080917A00806880937A00A4
:101ED0001092C100E0918901F0918A0182E0808333
:101EE000E0918501F09186011082E0918701F091E7
:101EF00088018FEC808310929101E0918D01F09127
:101F00008E0186E08083E0918B01F0918C018081CD
:101F100080618083E0918B01F0918C0180818860E9
:101F20008083E0918B01F0918C01808180688083B7
:101F3000E0918B01F0918C0180818F7D808362E044
:101F400080E00E94E40C61E08DE00E94E40C61E01E
:101F500089E00E94E40C61E08AE00E94E40CA5E5BF
:101F6000B1E005E711E069E671E04DE651E029E5F1
:101F700031E082E1282E81E0382EFF24FA94F1012D
:101F800086819781F90191838083FA0111921192E0
:101F900011921192AF01FB0111921192BF01F80150
:101FA000119211928F01F10190818091440183304F
:101FB00008F01FC19C93E82FF0E0E85EF94EE49131
:101FC0001196EC9311978F5F80934401E13009F4EF
:101FD000C4C008F4A2C0E23009F4E5C0F901808170
:101FE0009181FC01E150F04CCF01880F991F880FBF
:101FF000991FF101C480D580F601E80FF91F4590C3
:1020000055906590749080905D0190905E01A090D5
:102010005F01B090600184149504A604B70410F425
:102020005301420180925D0190925E01A0925F0196
:10203000B0926001F8E02F0E311C2E5F3F4F1296D8
:1020400082E2281681E0380609F099CF0E943A0D05
:1020500060E08DE00E94B60C00E010E00E94920C5F
:102060009C838B83019711F00B831C830E94920C3D
:102070009A838983892B09F0C0C0AB81BC811197F9
:1020800009F0BBC061E08DE00E94B60C85E291E0F2
:102090000E94590D69E671E00DE6C02E01E0D02ED8
:1020A00045E751E0A2E1B1E01496ED90FC90159760
:1020B000FA0180819181FC01EE0FFF1FEE0FFF1FDF
:1020C000EE0DFF1D0591159125913491F6010083C8
:1020D000118322833383FA012081318189010F5FCB
:1020E0001F4FC801880F991F880F991F8E0D9F1DC4
:1020F000FC0185909590A590B490F60140805180A8
:1021000062807380481459046A047B0409F078C023
:10211000FA0111830083FC01D5CF14BC15BC84B532
:10212000826084BD85B5816085BD8C9190E0FC01A5
:10213000EB5DF94EE491F0E0EE0FFF1FE25FF94E28
:10214000C590D490D0924301C0924201FC01E75C5B
:10215000F94EE491E093410141CF1092800010923A
:10216000810080918100886080938100809181004E
:102170008160809381008C9190E0FC01EB5DF94ED1
:10218000E491F0E0EE0FFF1FE25FF94EC590D490AE
:10219000D0924001C0923F01FC01E75CF94EE4910E
:1021A000E0933E011BCF1092B0001092B1008091DD
:1021B000B00082608093B0008091B1008160809314
:1021C000B1008C9190E0FC01EB5DF94EE491F0E000
:1021D000EE0FFF1FE25FF94EC590D490D0923D0103
:1021E000C0923C01FC01E75CF94EE491E0933B01B5
:1021F000F5CE1196FC921197F1CE0B811C812ECF5A
:1022000090E080E01216130664F421503048220F4B
:10221000331F1296ED91FC911397E20FF31F8591F6
:102220009491FB0181939193BF0118964E5F5F4F8C
:10223000F4E0CF0ED11C81E0A232B80709F034CF10
:102240002FB7F8948091450190914601A0914701E4
:10225000B09148012FBF8093650190936601A093D0
:102260006701B09368011E821D8240916101509107
:102270006201609163017091640180915D019091B0
:102280005E01A0915F01B091600184179507A607D8
:10229000B70708F42AC2AD81BE81119709F425C29F
:1022A0002FB7F8948091450190914601A091470184
:1022B000B09148012FBF4091650150916601609136
:1022C000670170916801841B950BA60BB70B809377
:1022D000610190936201A0936301B0936401E5E50D
:1022E000F1E0FA87E9877DE6272E71E0372E89E550
:1022F00091E09C838B83E5E7CE2EE1E0DE2EF12C8E
:10230000E12CAB81BC818D919D91BC83AB83F601A7
:1023100020813181281739070CF0E2C10E94920C0C
:10232000019721F481E090E09A8389830E94920CC6
:10233000892B61F4A981BA81119741F480E391E07E
:102340000E94590DE1E0F0E0FE83ED83C70187595B
:102350009E4F98878F83DC018D909C9018141904F0
:102360000CF0B9C1E985FA85818187FD02C161E080
:1023700080810E94E40CA985BA8511961C91092CD4
:10238000000CAA08BB08812F8D7F09F052C160E0C4
:1023900072E18AE790E0A50194010E94C913290126
:1023A0003A01DA01C9010197A109B1098F3F9105ED
:1023B000A105B10509F00CF4B8C060E472E48FE047
:1023C00090E0A50194010E94C913215031094109EF
:1023D0005109123009F06AC082E02F3F31054105F2
:1023E000510509F00CF45BC060E970ED83E090E00A
:1023F000A50194010E94C9132150310941095109D5
:1024000083E02F3F31054105510509F00CF447C029
:1024100068E478EE81E090E0A50194010E94C91380
:10242000215031094109510984E02F3F310541050F
:102430005105A9F1A4F164E274EF80E090E0A501F8
:1024400094010E94C913215031094109510985E0C5
:102450002F3F31054105510511F108F162E17AE79D
:1024600080E090E0A50194010E94C9132150310938
:102470004109510986E02F3F31054105510579F0A9
:1024800070F09AE075946794579447949A95D1F7B1
:10249000A3019201215031094109510987E090912E
:1024A000B100987F892B8093B10047C02F3F310541
:1024B0004105510509F00CF4BAC068E478EE81E0FA
:1024C00090E0A50194010E94C913215031094109EE
:1024D000510984E01111BCCF83E02F3F3105410544
:1024E000510539F134F162E17AE780E090E0A5012D
:1024F00094010E94C913215031094109510984E016
:102500002F3F310541055105A1F098F08AE07594FF
:102510006794579447948A95D1F7A301920121506B
:1025200031094109510985E004C09C0181E0111184
:10253000B6CF95B5987F892B85BDE985FA858181D0
:10254000813009F4A0C0823009F4B2C0811111C0F9
:1025500027BD8FEF9FEFDC018093510190935201D3
:10256000A0935301B093540180916E0082608093D8
:102570006E00D1014D915D916D917C9180916101D1
:1025800090916201A0916301B09164018417950755
:10259000A607B70708F437C0F60120813181C901C9
:1025A000019691838083EB81FC8132974081518138
:1025B0008417950744F5D701AA0FBB1FAA0FBB1FAD
:1025C000AE5EBE4F220F331F1296ED91FC91139712
:1025D000E20FF31F45915491EF81F88551834083B9
:1025E000880F991F880F991F1496ED91FC91E80FA1
:1025F000F91F4591559165917491D1014D935D936A
:102600006D937C931397B2E0CB0ED11CE4E02E0EB9
:10261000311C89859A8502969A87898792E0E90E0E
:10262000F11CA4E0EA16F10409F41FCE6ACE82E0A0
:102630007ECF60E072E18AE790E0A50194010E94FC
:10264000C913215031094109510991E02115310582
:10265000B1E04B0751056CF068E478EE81E090E062
:10266000A50194010E94C913215031094109510962
:1026700093E0113009F061CF80918100887F892B30
:10268000809381005ACF30938900209388008FEF88
:102690009FEFDC0180934D0190934E01A0934F0179
:1026A000B093500180916F00826080936F0061CF82
:1026B0002093B3008FEF9FEFDC018093490190934B
:1026C0004A01A0934B01B0934C018091700082604D
:1026D000809370004ECF89859A850E943C0D49CF2A
:1026E00089859A850E943C0D8ECF109261011092CF
:1026F00062011092630110926401109276011092AF
:10270000750185E591E00E943C0D109278011092D0
:10271000770187E591E00E943C0D0E943A0D80E030
:1027200090E0892B09F494CC0E94C60B882309F40D
:102730008FCC0E9400008CCCE9E7F1E0138212827A
:1027400088EE93E0A0E0B0E084839583A683B7830E
:1027500084E091E09183808385EC90E09587848785
:1027600084EC90E09787868780EC90E0918B808B5B
:1027700081EC90E0938B828B82EC90E0958B848B44
:1027800086EC90E0978B868B118E128E138E148EB2
:102790000895052E97FB1EF400940E94E01357FD48
:1027A00007D00E94E81307FC03D04EF40C94E0130A
:1027B00050954095309521953F4F4F4F5F4F08956D
:1027C00090958095709561957F4F8F4F9F4F08959D
:1027D000A1E21A2EAA1BBB1BFD010DC0AA1FBB1F25
:1027E000EE1FFF1FA217B307E407F50720F0A21B97
:1027F000B30BE40BF50B661F771F881F991F1A9404
:1028000069F760957095809590959B01AC01BD012D
:10281000CF010895EE0FFF1F0590F491E02D09946C
:04282000F894FFCF5A
:1028240000000000FC0B5C0B890B490CBA0B980BE5
:10283400AC0B0C005012E80ADA01090068076800C2
:10284400C0010D0A00506C6179696E672E2E2E004E
:06285400736B69700000C7
:00000001FF
