:100000000C9457220C947F220C947F220C947F2214
:100010000C947F220C947F220C947F220C943D251B
:100020000C947F220C947F220C947F220C948C25BC
:100030000C947F220C947F220C94E7250C947F2251
:100040000C94F3240C947F220C94C1240C949B24D4
:100050000C947F220C947F220C947F220C947F229C
:100060000C947F220C947F2200000000000000000E
:1000700000000000AA000000A80C0000AA0C00006C
:10008000520D00005D0D0000100E0000120E000069
:10009000100F00001E0F00001F0F0000200F0000B7
:1000A0001E1000002C1000002D1000002E1000006B
:1000B0002C1100003A1100003B1100003C1100001F
:1000C0003A12000048120000491200004A120000D3
:1000D000F3120000FD120000B0130000B213000084
:1000E000B0140000BE140000BF140000C0140000D3
:1000F000BE150000CC150000CD150000CE15000087
:10010000CC160000DA160000DB160000DC1600003A
:10011000DA170000E9170000E9170000EA170000ED
:100120003E19000051190000511900005219000039
:10013000501A00005F1A00005F1A0000601A0000E9
:100140005E1B00006D1B00006D1B00006E1B00009D
:100150006C1C00007B1C00007A1D0000891D000043
:10016000891D00008A1D0000DE1E0000F11E000037
:10017000F21E0000F21E0000F11F0000FF1F000031
:100180000020000000200000FF2000000D210000E2
:100190000E2100000E2100000D2200001B22000095
:1001A0001B230000292300002A2300002A2300002B
:1001B0007E24000091240000E6250000F9250000BF
:1001C000A3260000AD260000AE260000AF260000EA
:1001D0000228000015280000BF280000C9280000E0
:1001E000CA280000CB2800001F2A0000312A000086
:1001F000DC2A0000E52A0000E62A0000E72A0000C9
:100200003B2C00004D2C0000F82C0000012D0000BC
:10021000022D0000032D0000572E0000692E000063
:100220006A2E00006B2E0000BF2F0000D22F0000AE
:100230007C30000086300000303100003A31000090
:10024000E4310000EE31000098320000A2320000DC
:100250004C33000056330000003400000A34000024
:100260000A3400000B3400005F35000072350000D6
:100270001C36000026360000D0360000DA360000BA
:10028000843700008E370000383800004238000004
:10029000EC380000F6380000A0390000AA39000050
:1002A000AB390000AB390000FF3A0000123B000000
:1002B000133B0000133B0000BC3B0000C63B0000AA
:1002C000C63B0000703C00007A3C0000243D00006A
:1002D0002E3D00002F3D0000303D00002E3F00006D
:1002E0004A3F00004B3F00004C3F00004B410000E4
:1002F000664100006741000068410000674300005C
:10030000824300008343000084430000D84400007F
:10031000EA440000EB440000EC44000040460000CA
:1003200052460000FD46000007470000B1470000AC
:10033000BB470000654800006F48000019490000F5
:1003400023490000CD490000D7490000814A000040
:100350008B4A00008B4A00008C4A0000E04B0000F2
:10036000F34B00009D4C0000A74C0000514D0000D5
:100370005B4D0000054E00000F4E0000B94E00001E
:10038000C34E00006D4F0000774F00002150000069
:100390002B5000002C5000002C5000008051000019
:1003A000935100003D52000047520000F1520000FE
:1003B000FB520000A5530000AF530000B0530000F3
:1003C000B1530000AF550000CB550000CC550000E4
:1003D000CD55000020570000335700003357000070
:1003E000DD570000E7570000E8570000E95700001C
:1003F0003D5900004F590000FA590000035A00000F
:10040000045A0000055A0000595B00006B5B0000B5
:100410006C5B00006D5B0000C15C0000D35C000001
:100420007E5D0000875D0000325E00003B5E0000E4
:10043000E65E0000F05E00009A5F0000A45F00002E
:100440004E60000058600000026100000C61000076
:100450000C6100000D610000616200007462000028
:100460001E63000028630000D2630000DC6300000C
:1004700086640000906400003A6500004465000056
:10048000EE650000F8650000A2660000AC660000A2
:10049000AD660000AD660000016800001468000051
:1004A000BE680000C8680000726900007C69000036
:1004B000266A0000306A0000316A0000316A0000DC
:1004C000306C00004C6C00004D6C00004E6C000065
:1004D0004C6E0000686E0000696E00006A6E0000DD
:1004E0006870000084700000857000008670000055
:1004F000DA710000EC710000ED710000EE71000097
:100500004273000054730000FF7300000874000081
:10051000B3740000BC7400006775000070750000C3
:100520001B76000024760000CF760000D97600000C
:10053000837700008D7700008D7700008E770000B4
:10054000E2780000F57800009F790000A9790000AA
:10055000537A00005D7A0000077B0000117B0000E9
:10056000BB7B0000C57B00006F7C0000797C000035
:10057000237D00002D7D00002E7D00002E7D0000DB
:10058000827E0000957E00003F7F0000497F0000D2
:10059000F37F0000FD7F0000FE7F0000A7800000C9
:1005A000B1800000B28000005B8100006581000026
:1005B000658100000F820000198200001A8200008D
:1005C000C3820000CD820000CF820000778300004C
:1005D00081830000818300002B84000035840000AB
:1005E00036840000DF840000E9840000EB84000012
:1005F000938500009D85000047860000518600001D
:10060000FB86000005870000AF870000B987000067
:10061000648800006D8800006E8800006F8800000C
:10062000188900002189000021890000CC89000080
:10063000D5890000D6890000D7890000808A000093
:10064000898A0000898A0000348B00003D8B0000FD
:100650003E8B0000E88B0000F18B0000F38B000064
:100660009C8C0000A58C0000A58C0000508D000023
:10067000598D00005A8D0000048E00000E8E00007F
:100680000F8E0000B88E0000C28E0000C28E0000E7
:100690006C8F0000768F0000768F000020900000A5
:1006A0002A9000002B900000D4900000DE90000003
:1006B00088910000929100003C9200004692000058
:1006C0004692000047920000F0920000FA9200006B
:1006D000FA920000A4930000AE930000AE930000D5
:1006E000AF93000058940000629400000C95000045
:1006F000169500001795000017950000C0950000A2
:10070000CA950000749600007E9600007F96000057
:10071000289700003297000033970000DC97000014
:10072000E6970000E6970000909800009A98000075
:10073000449900004E9900004F9900004F99000025
:10074000A39A0000B69A0000609B00006A9B00001C
:10075000149C00001E9C00001F9C0000209C0000B8
:10076000739D0000869D0000309E00003A9E0000B0
:10077000E49E0000EE9E0000EF9E0000F09E000050
:1007800044A0000056A0000001A100000AA1000042
:10079000B5A10000BEA1000069A2000072A2000085
:1007A0001DA3000026A30000D1A30000DAA30000CF
:1007B00085A400008EA400008FA4000090A4000077
:1007C0008FA60000ABA60000ABA6000055A7000056
:1007D0005FA700005FA7000060A70000B4A80000AA
:1007E000C7A800001CAA00002FAA00002FAA000022
:1007F00030AA000084AB000097AB000097AB00006C
:1008000041AC00004BAC0000F5AC0000FFAC0000B8
:10081000A9AD0000B3AD00005DAE000067AE000002
:1008200011AF00001BAF0000C5AF0000CFAF00004C
:10083000D0AF0000D0AF000024B1000037B10000FD
:1008400037B10000E1B10000EBB1000095B200004B
:100850009FB2000049B3000053B30000FDB3000095
:1008600007B40000B1B40000BBB4000065B50000DF
:100870006FB5000070B5000071B50000C4B600008F
:10088000D7B6000082B700008BB7000036B8000072
:100890003FB80000EAB80000F3B800009EB90000BD
:1008A000A7B9000052BA00005BBA000006BB000006
:1008B0000FBB000010BB000011BB000065BC0000B6
:1008C00077BC000077BC0000CDBD0000E0BD00009B
:1008D0008ABE000094BE00003EBF000048BF00007A
:1008E000F2BF0000FCBF0000A6C00000B0C00000C6
:1008F000B0C00000B1C0000005C2000018C2000076
:1009000018C20000C2C20000CCC2000076C30000C2
:1009100080C300002AC4000034C40000DEC400000C
:10092000E8C4000092C500009CC5000046C6000057
:1009300050C6000051C6000051C60000A5C7000007
:10094000B8C70000B8C7000062C800006CC800004B
:1009500016C9000020C90000CAC90000D4C900009F
:100960007ECA000088CA000032CB00003CCB0000E9
:10097000E6CB0000F0CB0000F1CB0000F2CB000092
:1009800045CD000058CD000058CD000002CE00003B
:100990000CCE000062CF000074CF00001FD000001A
:1009A00028D000007ED1000090D1000091D100003D
:1009B00092D10000E6D20000F8D20000F8D2000088
:1009C0004ED4000060D400000BD5000015D5000007
:1009D000BFD50000C9D500001ED7000031D70000E8
:1009E00031D7000032D7000086D8000099D8000027
:1009F00099D8000043D900004DD90000F7D9000074
:100A000001DA0000ABDA0000B5DA00005FDB0000BD
:100A100069DB000013DC00001DDC0000C7DC000007
:100A2000D1DC0000D2DC0000D2DC000026DE0000B9
:100A300039DE000039DE0000E3DE0000EDDE0000FC
:100A400097DF0000A1DF00004BE0000055E0000050
:100A5000FFE0000009E10000B3E10000BDE100009B
:100A600067E2000071E2000072E2000073E2000041
:100A7000C6E30000D9E3000083E400008DE4000039
:100A800037E5000041E50000EBE50000F5E500007A
:100A90009FE60000A9E6000054E700005DE70000C3
:100AA0005EE700005FE70000B3E80000C5E8000073
:100AB00070E9000079E90000CFEA0000E1EA0000F7
:100AC0008CEB000095EB000040EC000049EC0000CE
:100AD0009FED0000B2ED0000B2ED0000B3ED0000AC
:100AE00007EF00001AEF00001AEF0000C4EF00004B
:100AF000CEEF000078F0000082F000002CF1000042
:100B000036F10000E0F10000EAF1000094F200008C
:100B10009EF2000048F3000052F3000053F300007F
:100B200053F30000A7F40000BAF40000BAF4000088
:100B300064F500006EF50000C3F60000D6F6000074
:100B400080F700008AF70000DFF80000F2F80000EC
:100B5000F3F80000F4F80000F2FA00000EFB0000C9
:100B60000FFB000010FB00000EFD00002AFD00003E
:100B70002BFD00002CFD000080FE000092FE000016
:100B800093FE000094FE0000E8FF0000FAFF000062
:100B9000FAFF000050010100620101006301010041
:100BA00064010100B8020100CA020100CA0201008A
:100BB0002004010032040100330401003404010068
:100BC000880501009B0501009B0501009C050100B3
:100BD0009A060100A9060100A9060100AA06010063
:100BE000A8070100B7070100B7070100B807010017
:100BF000B6080100C5080100C5080100C6080100CB
:100C0000C4090100D3090100D3090100D40901007E
:100C1000280B01003B0B01003C0B01003C0B0100C9
:100C20003B0C0100490C01004A0C01004A0C010078
:100C3000490D0100570D0100580D0100580D01002C
:100C4000570E0100650E0100660E0100660E0100E0
:100C5000650F0100730F0100740F0100740F010094
:100C60007310010082100100DB100100DD10010093
:100C7000DB110100E9110100EA110100EB11010093
:100C8000E9120100F7120100F8120100F912010047
:100C9000F7130100051401000614010007140100F8
:100CA00005150100131501001415010015150100AB
:100CB00013160100221601007B1601007D160100AB
:100CC0007B170100891701008A1701008B170100AB
:100CD000891801009718010098180100991801005F
:100CE00097190100A5190100A6190100A719010013
:100CF000A51A0100B31A0100B41A0100B51A0100C7
:100D0000091C01001C1C01001C1C01001D1C010011
:100D10001B1D01002A1D01002A1D01002B1D0100C1
:100D2000291E0100381E0100381E0100391E010075
:100D3000371F0100461F0100461F0100471F010029
:100D400045200100542001005420010055200100DD
:100D5000A9210100BC210100BC220100CA2201001E
:100D6000CB220100CB220100CA230100D8230100BD
:100D7000D8240100E6240100E7240100E724010053
:100D8000E6250100F4250100F5250100F525010007
:100D9000492701005C2701005D2701005D27010054
:100DA0005C2801006A2801006B2801006C28010002
:100DB0006A29010078290100782A0100862A0100A9
:100DC000862B0100942B0100952B0100962B01002E
:100DD000E92C0100FC2C0100FC2D01000A2E010071
:100DE0000A2F0100182F01001830010026300100E1
:100DF00026310100053401005A3501006D3501002E
:100E00001736010021360100CB360100D53601002E
:100E1000D5360100D63601002A3801003D380100E0
:100E20003D3801003E380100E7380100F13801008B
:100E3000F13801009B390100A53901004F3A01004A
:100E4000593A01005A3A01005A3A0100593C01004E
:100E5000753C0100763C0100763C0100CA3D010072
:100E6000DD3D0100DD3D0100873E0100913E0100B6
:100E7000923E0100923E0100E63F0100F93F010071
:100E8000A3400100AD400100AE400100AF400100B1
:100E90000242010015420100164201001742010002
:100EA0006A4301007D4301002744010031440100F1
:100EB000DB440100E5440100904501009945010033
:100EC000444601004D460100F8460100014701007B
:100ED000AC470100B5470100B6470100B747010024
:100EE0000B4901001D490100C8490100D149010019
:100EF0007C4A0100854A0100304B0100394B01005A
:100F0000E44B0100EE4B0100984C0100A24C0100A3
:100F10004C4D0100564D0100564D0100574D01004A
:100F2000AB4E0100BE4E0100684F0100724F010040
:100F30001C50010026500100D0500100DA50010081
:100F4000DA500100DB500100DA520100F6520100D4
:100F5000F7520100F75201004B5401005E540100AA
:100F600008550100125501001355010013550100E9
:100F7000675601007A560100245701002E570100E0
:100F80002F5701002F570100835801009658010088
:100F90009758010098580100EB590100FE590100D3
:100FA000A85A0100B25A01005C5B0100665B0100B7
:100FB000105C01001A5C0100C45C0100CE5C010001
:100FC000795D0100825D01002D5E0100365E010049
:100FD000375E0100385E01008C5F01009E5F0100FA
:100FE0004960010052600100FD60010006610100DE
:100FF000B1610100BA610100656201006E62010029
:101000001963010023630100CD630100D763010070
:10101000D7630100D86301002C6501003F65010022
:10102000E9650100F36501009D660100A766010006
:10103000A7660100516701005B6701005C67010062
:10104000056801000F6801000F680100B968010020
:10105000C3680100C36801006D6901007769010080
:1010600078690100216A01002B6A01002B6A0100E6
:10107000D56A0100DF6A0100E06A0100896B0100A6
:10108000936B0100946B01003D6C0100476C010003
:10109000F16C0100FB6C0100A56D0100AF6D01005A
:1010A000B06D0100B06D0100596E0100636E01006A
:1010B000636E01000D6F0100176F0100186F0100D2
:1010C000196F01006C7001007F700100297101002F
:1010D00033710100DD710100E7710100E871010069
:1010E000917201009B7201009D7201004573010025
:1010F0004F7301004F730100F97301000374010085
:1011000004740100AD740100B7740100B9740100EA
:10111000627501006B750100167601001F760100F3
:10112000CA760100D37601007E770100877701003F
:10113000327801003B780100E6780100EF78010089
:101140009A790100A37901004E7A0100577A0100D3
:10115000587A0100597A0100AD7B0100C07B010083
:101160006A7C0100747C01001E7D0100287D010065
:10117000287D0100DD7D01007D7E0100907E010063
:10118000907E0100E57F0100F87F0100F87F0100FB
:10119000F97F01004D81010060810100B5820100ED
:1011A000C8820100728301007C8301002684010053
:1011B00030840100DA840100E48401008E8501009E
:1011C000988501009985010099850100ED8601004F
:1011D00000870100AA870100B48701005E88010032
:1011E00068880100698801001E890100BD8901002D
:1011F000D0890100D0890100258B0100388B0100C6
:10120000398B01003A8B0100E48D0100088E01004A
:10121000098E01000A8E0100B38E0100BC8E010010
:10122000BD900100D8900100D9900100DA90010032
:10123000D9920100F5920100F59201009F930100FF
:10124000A9930100FE94010011950100BB950100D6
:10125000C59501006F96010079960100799601000D
:101260007A960100CE970100E1970100E197010015
:101270003699010049990100F3990100FD99010097
:10128000529B0100659B01000F9C0100199C01000D
:101290001A9C01001A9C0100199E0100359E010054
:1012A000DF9E0100E99E01003EA0010051A0010067
:1012B000A6A10100B9A10100BAA10100BBA10100D2
:1012C0000EA3010021A3010021A3010077A40100C6
:1012D00089A4010034A501003DA50100E8A5010095
:1012E000F1A5010047A7010059A701005AA7010075
:1012F0005BA70100AFA80100C1A80100C1A80100BF
:101300006CA9010075A9010020AA01002AAA010008
:10131000D4AA0100DEAA010088AB010092AB010053
:101320003CAC010046AC0100F0AC0100FAAC01009D
:10133000FAAC0100FBAC01004FAE010062AE01004F
:1013400062AE01000CAF010016AF0100C0AF01009A
:10135000CAAF010074B001007EB0010028B10100E5
:1013600032B10100DCB10100E6B1010090B2010030
:101370009AB201009BB201009BB20100EFB30100E1
:1013800002B4010002B40100ACB40100B6B4010023
:101390000BB601001EB60100C8B60100D2B60100AE
:1013A00027B801003AB801003BB801003CB8010081
:1013B000E4B80100EEB80100EEB8010098B90100F0
:1013C000A2B90100F7BA01000ABB01000BBB010082
:1013D0000CBB0100B4BB0100BEBB0100BEBB0100E1
:1013E00069BC010072BC010073BC010074BC010047
:1013F000C8BD0100DABD0100DBBD0100DCBD01009C
:1014000030BF010042BF010042BF0100EDBF01003B
:10141000F6BF0100A1C00100AAC0010055C1010032
:101420005EC1010009C2010013C20100BDC201007A
:10143000C7C2010071C301007BC301007BC301006F
:101440007CC30100D0C40100E3C40100E3C4010077
:101450008DC5010097C5010041C601004BC60100C2
:10146000F5C60100FFC60100A9C70100B3C701000E
:101470005DC8010067C8010011C901001BC9010056
:101480001CC901001CC9010070CA010083CA010007
:101490002DCB010037CB0100E1CB0100EBCB0100EC
:1014A00095CC01009FCC010049CD010053CD010036
:1014B000FDCD010007CE010008CE010009CE0100DC
:1014C0005CCF01006FCF010019D0010023D00100D3
:1014D00078D101008BD1010035D201003FD201004B
:1014E000E9D20100F3D2010049D401005BD401002C
:1014F0005CD401005DD40100B1D50100C3D5010069
:10150000C3D501006ED6010077D6010022D70100B5
:101510002BD70100D6D70100DFD701008AD8010000
:1015200093D801003ED9010047D90100F2D901004A
:10153000FCD90100FCD90100FDD9010051DB0100FB
:1015400064DB010064DB01000EDC010018DC01003B
:101550006DDD010080DD01002ADE010034DE0100C6
:1015600089DF01009CDF01009DDF01009DDF01009C
:10157000F1E0010004E1010004E10100AEE101003D
:10158000B8E10100B9E10100B9E101000DE301009A
:1015900020E30100CAE30100D4E3010029E50100D2
:1015A0003CE501003DE501003EE5010091E601005A
:1015B000A4E60100A4E60100F9E701000CE801003F
:1015C0000DE801000EE8010061E9010074E9010085
:1015D000C9EA0100DCEA0100DDEA010068F501006A
:1015E000C3F50100C4F5010017F6010085F70100FD
:1015F00086F70100BDF70100C1F70100C1F7010046
:10160000F9F70100FDF7010035F8010039F8010094
:10161000E3F80100EDF80100EEF8010042FA0100E4
:1016200056FA0100000082008200000041004100E3
:10163000000000005200520000004D004D004D001F
:10164000000049004900490000003D003D003D0008
:101650000000410041004100000000005200520023
:1016600000004D004D004D000000490049004900B8
:1016700000003D003D003D000000410041004100F0
:10168000000052005200520000004D004D004D007D
:10169000000049004900490000003D0000004100F1
:1016A00041004100000052005200520000004D0075
:1016B0004D004D00000049004900490000003D0078
:1016C0000000410041004100000041000000820094
:1016D000000074007400740000003A0000008200F2
:1016E0008200820000004100000074007400740059
:1016F00000003A00000082008200820000006700C3
:10170000670067000000330000006700000033003E
:101710000000820000003300000067000000740039
:101720007400740000003A000000740000005700CC
:1017300000007400000092000000740000008200AD
:101740008200820000004100410041000000610071
:10175000610000008200000074007400740000004A
:101760008200820082000000740074007400000097
:1017700082008200820000006700670067000000AE
:10178000330000006700000033000000820000000A
:101790003300000067000000740074007400000053
:1017A0003A000000740000005700000074000000C0
:1017B000920000007400000082008200820000009D
:1017C000820000006100000041000000740074000D
:1017D000740000008200820082000000610061004D
:1017E000000074007400740000003A0000008200E1
:1017F000820082000000670067006700000033007D
:101800000000670000003300000082000000330089
:1018100000006700000074007400740000003A00CB
:1018200000007400000057000000740000009200E7
:10183000000074000000820082008200000082002C
:10184000000061000000410000007400740074009A
:1018500000008200820082000000740074007400A6
:1018600000008200820082000000670067006700BD
:101870000000330000006700000033000000820019
:101880000000330000006700000074007400740062
:1018900000003A00000074000000570000007400CF
:1018A00000009200000074000000820082008200AC
:1018B000000041000000820000003A003A000000F1
:1018C0007400740000003A003A00000074007400D4
:1018D00000003300330000006700670000003300A1
:1018E000330000006700670000003A000000740049
:1018F00000003A0000007400000041004100410077
:101900000000820082000000410041004100000010
:101910008200820000003A003A0000007400740067
:1019200000003A003A000000740074000000330028
:101930003300000067006700000033003300000040
:101940006700670000003A000000740000003A00E1
:101950003A003A00000074007400000041004100A9
:1019600041000000820000004100410041000000F1
:10197000820000004900490000009200920000002F
:1019800049004900000092000000A400A400A40047
:101990000000A40000007B00000092009200920072
:1019A0000000920000005C0000008A008A008A00AB
:1019B0000000450000008A0000004D0000009B0070
:1019C0000000740000004D000000A400A400A4006A
:1019D000000082008200000082008200820000007D
:1019E0004100000057005700570000002B002B005B
:1019F0000000570000002B000000670000002B00D3
:101A00000000670000004D004D004D0000004D003B
:101A10004D0000009B0000004D0000009B000000F6
:101A20004D00000074000000740074007400000099
:101A30003A000000740000003A000000920000002C
:101A40003A000000740000008A008A008A0000004A
:101A50008A008A000000820000006100000041004E
:101A600000002000000057005700570000002B0026
:101A70002B000000570000002B0000006700000052
:101A80002B000000670000004D004D004D000000DD
:101A90004D004D0000009B0000004D0000009B0029
:101AA00000004D0000007400000074007400740019
:101AB0000000570057000000920000007400000072
:101AC0003A0000008A008A008A0000008A008A002A
:101AD000000082000000610000008200000057004A
:101AE0005700570000002B002B000000570000009B
:101AF0002B000000670000002B00000067000000C2
:101B00004D004D004D0000004D004D0000009B00B9
:101B100000004D0000009B0000004D0000009B00F5
:101B2000000074007400740000003A0000005700C8
:101B300000007400000092000000740000008A00A1
:101B40008A008A00000067000000AE0000008200EA
:101B5000000061000000820000005700570057009D
:101B600000002B002B000000570000002B0000009D
:101B7000670000002B000000670000004D004D00D2
:101B80004D0000003A003A000000610000004D00E6
:101B90000000260000007400740074000000920031
:101BA00092009200000074007400740000008A002B
:101BB0008A008A0000004500450000008200820083
:101BC000820000008200820000005700570057008A
:101BD00000006E006E006E00000067006700670086
:101BE00000006100610061000000520052005200DC
:101BF000000057005700570000006E006E006E0096
:101C0000000067006700670000006100610061007C
:101C100000005200520052000000570057005700C9
:101C2000000000006E006E000000670067006700A3
:101C3000000061006100610000005200520052008B
:101C40000000570057005700000000006E006E00B3
:101C5000000067006700670000006100610061002C
:101C60000000520052005200000057005700570079
:101C700000006E006E006E000000670067006700E5
:101C8000000061006100610000005200520052003B
:101C9000000057005700570000006E00000067006A
:101CA000670067000000610000005200520052000F
:101CB000000057005700570000006E006E006E00D5
:101CC000000067006700670000006100000052002C
:101CD000000057005700570000006E00000067002A
:101CE00000006100000052000000490000004900AF
:101CF0000000370000006100610061000000610029
:101D0000610061000000490049000000300000004F
:101D1000570057005700000061006100610000009B
:101D200030003000000057005700570000002B0023
:101D3000000061006100610000004D004D004D0099
:101D40000000260000004D00000026000000610099
:101D50000000260000004D0000005700570057000B
:101D600000002B00000041000000570000006E0042
:101D700000005700000041000000610061006100A8
:101D80000000610000004900000030000000570022
:101D90005700570000006100610061000000610011
:101DA0000000570057005700000057000000610076
:101DB0006100610000004D004D004D000000260054
:101DC00000004D0000002600000061000000260019
:101DD00000004D00000057005700570000002B0086
:101DE000000041000000570000006E000000570096
:101DF000000041000000610061006100000030004F
:101E00000000610000002B002B000000570057006D
:101E100000002B002B000000570057000000260098
:101E2000260000006100610000002600260000007E
:101E30006100610000002B0000006E0000002B001C
:101E40002B002B00000057005700000061006100CC
:101E50006100000030000000610000002B002B003A
:101E600000005700570000002B002B000000570017
:101E70005700000026002600000061000000260038
:101E800000004D0000002B000000570000002B0058
:101E90000000570000006100610061000000610067
:101EA0000000490000006E006E006E0000006E0031
:101EB0006E0000007B007B007B0000007B000000C8
:101EC0006E0000005C0000006E0000005C0000007E
:101ED0006700670067000000670000004D00000019
:101EE00074007400740000007400740000007B0033
:101EF0007B007B0000006100610061000000610068
:101F0000000041004100410000004100410000008C
:101F10009B0000008200000061000000740074005B
:101F2000740000003A003A000000920000007400C3
:101F300000007400000057005700570000004100E7
:101F400000006E0000005700000067006700670097
:101F50000000670067000000610000004900000009
:101F600061000000410041004100000041004100CB
:101F7000000082000000410000009B0000004100C2
:101F800000009B00000074007400740000003A0020
:101F90003A000000740000003A00000092000000C7
:101FA0003A0000007400000057005700570000007E
:101FB0004100410000006E000000570000002B00AF
:101FC000000067006700670000004D004D00000042
:101FD00067000000610061006100000049004900E5
:101FE000000061006100610000004100410041000B
:101FF000000041004100000082000000410000009C
:102000009B000000410000009B0000007400740071
:10201000740000003A003A000000740000003A002A
:102020000000920000003A00000074000000570019
:1020300057005700000041000000570000006E00EC
:1020400000005700000041000000670067006700C3
:10205000000033000000670000006100000049003C
:10206000000061000000410041004100000041000B
:102070004100000082000000410000009B000000C1
:10208000410000009B000000740074007400000018
:1020900057005700000092000000740000003A0052
:1020A000000057005700570000005700570000007D
:1020B000AE00AE00AE000000570000002B00000094
:1020C00067006700670000006700670000006100AC
:1020D000610061000000610000004100410000005B
:1020E000610061000000410041000000300030004C
:1020F0000000290000002000000041004100000015
:1021000000000000000000000000000000000000CF
:102110000000000000000000000068010000BC0199
:102120000000C2010000160200001C0200001C0298
:1021300000007002000076020000CA020000D00217
:102140000000240300002A0300007E030000840333
:102150000000D8030000DE03000032040000380451
:1021600000008C04000092040000E6040000EC046F
:10217000000040050000460500009A050000A0058B
:102180000000F5050000FA0500004F0600005406A7
:102190000000A9060000AE060000030700000807C3
:1021A00000005D07000062070000B7070000BC07E1
:1021B000000011080000160800006B0800007008FD
:1021C0000000C5080000CA0800001F09000024091B
:1021D0000000790900007E090000D3090000D80939
:1021E00000002D0A0000320A0000870A00008C0A55
:1021F0000000E10A0000E60A00003B0B0000400B73
:102200000000950B00009A0B0000EF0B0000F40B90
:102210000000490C00004E0C0000A30C0000A80CAC
:102220000000A80C0000FD0C0000020D0000020DD3
:102230000000570D00005C0D0000B10D0000B60D50
:102240000000B60D00000B0E0000100E0000650E21
:1022500000006A0E00006A0E0000BF0E0000C40EEF
:102260000000190F00001E0F0000730F0000780F10
:102270000000780F0000CD0F0000D20F00002710E3
:1022800000002C1000008110000086100000861055
:102290000000DB100000E0100000351100003A11D2
:1022A00000008F1100009411000094110000E9114A
:1022B0000000EE11000043120000481200009D12C1
:1022C0000000A2120000A2120000F7120000FC128F
:1022D0000000511300005613000056130000AB130A
:1022E0000000B0130000051400000A1400000A14D6
:1022F00000005F14000064140000B9140000BE1454
:1023000000001315000018150000181500006D15C9
:10231000000072150000C7150000CC150000211642
:10232000000026160000261600007B16000080160E
:102330000000D5160000DA1600002F170000341731
:10234000000034170000891700008E170000E31703
:102350000000E9170000E91700003D1800004318CD
:10236000000043180000971800009D180000F118A5
:102370000000F71800004B19000051190000A519C2
:102380000000AB190000AB190000FF190000051A8E
:102390000000591A00005F1A0000B31A0000B91AB1
:1023A0000000B91A00000D1B0000131B0000671B82
:1023B00000006D1B0000C11B0000C71B0000C71BF5
:1023C00000001B1C0000211C0000751C00007B1C71
:1023D0000000CF1C0000D51C0000291D00002F1D8F
:1023E0000000831D0000891D0000DE1D0000E31DAC
:1023F0000000E31D0000381E00003D1E0000921E7C
:102400000000971E0000EC1E0000F11E0000461F99
:1024100000004B1F00004B1F0000A01F0000A51F65
:102420000000FA1F0000FF1F000054200000592088
:10243000000059200000AE200000B3200000082159
:1024400000000D21000062210000672100006721CB
:102450000000BC210000C1210000162200001B2248
:1024600000007022000075220000CA220000CF2266
:1024700000002423000029230000532300005623DA
:102480000000562300006A2300006C230000802314
:10249000000082230000972300009A230000AE234F
:1024A0000000AF230000C4230000C6230000DA238D
:1024B0000000DD230000F1230000F32300000724C7
:1024C0000000092400001E240000212400003524FF
:1024D0000000362400004B2400004D24000061243D
:1024E0000000642400008E24000091240000912646
:1024F0000000AD2600000228000015280000152865
:1025000000006E2800006F280000C8280000C928BD
:1025100000001F2A0000312A0000312A0000DC2AB6
:102520000000E52A0000992B0000E62C0000012D98
:102530000000572E0000692E0000692E0000BF2FFA
:102540000000D22F0000D22F00007C300000863027
:102550000000303100003A310000E4310000EE317B
:10256000000098320000A23200004C3300005633C5
:102570000000AF330000B0330000093400000A341B
:1025800000005F35000072350000723500001C3617
:10259000000026360000D0360000DA36000084370E
:1025A00000008E3700003838000042380000EC3858
:1025B0000000F6380000A0390000AA390000FF3AF8
:1025C0000000123B0000123B0000123D00002E3DB7
:1025D0000000833E0000963E0000963E0000EF3E65
:1025E0000000F03E0000493F00004A3F0000F43F79
:1025F0000000FE3F0000FE3F0000A8400000B24087
:1026000000005D41000066410000114200001A42D6
:1026100000001A420000C5420000CE42000079438B
:10262000000082430000D8440000EA440000EA446D
:102630000000404600005246000052460000A847F5
:102640000000BB470000654800006F4800001949C2
:10265000000023490000CD490000D7490000814A0D
:1026600000008B4A0000E04B0000F34B0000F34BEE
:1026700000009D4C0000A74C0000514D00005B4D38
:102680000000054E00000F4E0000B94E0000C34E82
:1026900000006D4F0000774F0000215000002B50CC
:1026A00000008051000093510000935100009353AB
:1026B0000000AF53000004550000175500001755E7
:1026C00000007055000071550000CA550000CB5540
:1026D0000000CB570000E75700009B580000E85966
:1026E0000000035A0000595B00006B5B00006B5B4D
:1026F0000000C15C0000D35C0000D35C00007E5D84
:102700000000875D0000325E00003B5E0000E65E78
:102710000000F05E00009A5F0000A45F00004E60C1
:10272000000058600000B1600000B26000000B6162
:1027300000000C61000061620000746200007462BD
:1027400000001E63000028630000D2630000DC6309
:10275000000086640000906400003A650000446553
:102760000000EE650000F8650000A2660000AC669F
:102770000000016800001468000014680000146A7A
:102780000000306A0000856B0000986B0000986BB9
:102790000000F16B0000F26B00004B6C00004C6C11
:1027A0000000F66C0000006D0000006D0000AA6DD6
:1027B0000000B46D00005E6E0000686E0000686E80
:1027C0000000126F0000126F00001C6F00001C6FF1
:1027D0000000C66F0000D06F00007B7000008470A6
:1027E000000084700000DA710000DA710000EC7102
:1027F0000000EC7100004273000054730000547339
:102800000000AA740000BC740000677500007075B9
:1028100000001B76000024760000CF760000D976F9
:10282000000032770000337700008C7700008D774E
:102830000000E7770000417800009B780000E27814
:102840000000F5780000F57800004F7900009F79CE
:102850000000A9790000A9790000037A0000537AEA
:1028600000005D7A00005D7A0000B77A0000077B07
:102870000000117B0000117B00006B7B0000BB7B24
:102880000000C57B0000C57B00001F7C0000797C38
:102890000000D37C00001A7D00002D7D00002D7DFE
:1028A0000000827E0000957E0000957E0000EA7F99
:1028B0000000B1800000B180000006820000CD82DF
:1028C0000000CD82000022840000E9840000E98439
:1028D00000009D850000E9860000058700005B88F8
:1028E00000006D880000C3890000D58900002B8B93
:1028F0000000F18B0000F18B0000478D00000E8E70
:1029000000000E8E0000638F00002A9000002A90C5
:102910000000DE9000002A920000469200009B9387
:102920000000AE930000C9930000E59300000194FD
:1029300000001D940000399400005494000070942D
:1029400000008C940000A8940000C3940000DF9461
:102950000000FB94000003950000169500001695FA
:102960000000329500004D950000699500008595A6
:102970000000A1950000BC950000D8950000F495DA
:102980000000109600002B9600004796000063960A
:1029900000006B9600007E96000032970000329790
:1029A0000000329900004E990000F8990000029A48
:1029B0000000029A0000AC9A0000B69A0000609BEA
:1029C00000006A9B0000149C00001E9C0000C89C34
:1029D0000000D29C0000D29C00007C9D0000869DDF
:1029E0000000309E00003A9E0000E49E0000EE9E33
:1029F000000044A0000056A0000056A00000ACA1BA
:102A0000000072A2000073A400008EA400003AA788
:102A100000005FA700005EA800006DA800006DA880
:102A200000007FA8000081A8000093A8000095A8DE
:102A30000000A7A80000A9A80000BBA80000BEA82D
:102A40000000D0A80000D2A80000E4A80000E6A87A
:102A50000000F8A80000FAA800000CA900000FA9C7
:102A6000000021A9000023A9000035A9000037A912
:102A7000000049A900004BA900005DA9000060A961
:102A8000000078A900007BA9000025AA00002FAA59
:102A90000000FFAC0000FFAC0000AAAF0000CFAF09
:102AA00000009FB200009FB200004AB500006FB561
:102AB0000000C4B60000D7B60000D7B600002DB89D
:102AC00000003FB80000EAB80000F3B8000049BABF
:102AD00000005BBA0000B2BD0000E0BD00008ABE8D
:102AE000000094BE0000B8BE0000BBBE0000DFBE08
:102AF0000000E2BE000006BF00000ABF00002EBFBB
:102B0000000032BF000056BF00005ABF00007EBF69
:102B1000000081BF0000A5BF0000A9BF0000CDBF1D
:102B20000000D1BF0000F7BF0000FCBF0000A6C03E
:102B30000000B0C0000007C6000050C6000051CA27
:102B4000000088CA0000DDCB0000F0CB0000F0CD13
:102B500000000CCE00000DD0000028D000007ED177
:102B6000000090D100003CD4000060D400000CD7DD
:102B7000000031D7000001DA000001DA0000ACDC0F
:102B80000000D1DC0000A1DF0000A1DF00004CE26A
:102B9000000071E20000C6E30000D9E30000D9E3C1
:102BA00000002EE5000041E50000EBE50000F5E542
:102BB00000004BE700005DE7000011E80000B4EA08
:102BC0000000E1EA00008DED0000B2ED000082F0AF
:102BD000000082F000002DF3000052F3000053F7D4
:102BE00000008AF70000DFF80000F2F80000F2FAB7
:102BF00000000EFB00000EFB0000C2FB00000EFDFB
:102C000000002AFD000080FE000092FE000092FEFF
:102C100000003E010100620101000E0401003204C7
:102C20000100870401008D0401008D040100E1040E
:102C30000100E70401003B05010041050100950585
:102C400001009B050100EF050100F5050100F505F8
:102C50000100490601004F060100A3060100A90674
:102C60000100FD06010003070100030701005707EB
:102C700001005D070100B1070100B70701000B0863
:102C800001001108010011080100650801006B082E
:102C90000100BF080100C5080100190901001F0952
:102CA00001001F0901007309010079090100CD0924
:102CB0000100D3090100270A01002D0A01002D0A95
:102CC0000100820A0100870A0100DC0A0100E10A12
:102CD0000100360B01003B0B0100900B0100950B2E
:102CE0000100950B0100EA0B0100EF0B0100440C01
:102CF0000100490C01009E0C0100A30C0100A30C73
:102D00000100F80C0100FD0C0100520D0100570DEF
:102D10000100AC0D0100B10D0100B10D0100060E66
:102D200001000B0E0100600E0100650E0100BA0EDD
:102D30000100BF0E0100BF0E0100140F0100190FAA
:102D400001006E0F0100730F0100C80F0100CD0FCD
:102D50000100CD0F010022100100271001007C109E
:102D6000010081100100D6100100DB100100DB1012
:102D700001003011010035110100351101008A11E7
:102D800001008F110100E4110100E91101003E1260
:102D900001004312010043120100981201009D122C
:102DA0000100F2120100F71201004C13010051134F
:102DB000010051130100A6130100AB130100001420
:102DC0000100051401005A1401005F1401005F1492
:102DD0000100B4140100B91401000E15010013150F
:102DE0000100681501006D1501006D150100C21587
:102DF0000100C71501001C160100211601007616FE
:102E000001007B1601007B160100D0160100D516CB
:102E10000100D51601002A1701002F1701008417A1
:102E2000010089170100DE170100E3170100E31715
:102E30000100381801003D18010092180100971890
:102E40000100EC180100F1180100F1180100461909
:102E500001004B190100A0190100A5190100FA1980
:102E60000100FF190100FF190100541A0100B31AF3
:102E70000100081B01000D1B01000D1B0100621B5E
:102E80000100671B0100BC1B0100C11B0100161CD7
:102E900001001C1C0100701C0100761C0100761C46
:102EA0000100CA1C0100D01C0100241D01002A1DC4
:102EB00001007E1D0100841D0100841D0100D81D3C
:102EC0000100DE1D0100321E0100381E01008C1EB3
:102ED0000100921E0100921E0100E61E0100EC1E80
:102EE0000100401F0100461F01009A1F0100A01FA2
:102EF0000100A01F0100F41F0100FA1F01004E2075
:102F0000010054200100A8200100AE200100AE20E5
:102F1000010002210100082101005C210100622161
:102F20000100B6210100BC2101001122010016227E
:102F300001006B22010070220100C5220100CA229B
:102F400001001F2301002423010024230100792311
:102F500001007E230100D3230100D82301002D248A
:102F6000010032240100872401008C240100E124A7
:102F70000100E62401003B25010040250100402519
:102F80000100952501009A250100EF250100F42597
:102F90000100492601004E2601004E260100A3260D
:102FA0000100A8260100FD26010002270100572785
:102FB00001005C270100B1270100B6270100B627F8
:102FC00001000B28010010280100652801006A2873
:102FD0000100BF280100C4280100C42801001929EC
:102FE00001001E2901007329010078290100CD2963
:102FF0000100D2290100272A01002C2A0100812A80
:103000000100862A0100DB2A0100E02A0100352B9D
:1030100001003A2B01008F2B0100942B0100E92BBA
:103020000100EE2B0100EE2B0100432C0100482C87
:1030300001009D2C0100A22C0100F72C0100FC2CAA
:103040000100512D0100562D0100AB2D0100B02DC6
:103050000100052E01000A2E01005F2E0100642EE2
:103060000100B92E0100BE2E0100132F0100182F00
:1030700001006D2F0100722F0100C72F0100CC2F1E
:10308000010021300100263001007B30010080303A
:103090000100D5300100DA3001002F310100343158
:1030A000010034310100353101006131010061312D
:1030B00001007D310100803101009C310100A0310F
:1030C0000100BB310100C0310100DC310100DF3102
:1030D0000100FA310100FE3101001A3201001E32F6
:1030E00001003A3201003D320100593201005D32E7
:1030F0000100783201007D320100993201009C32DA
:103100000100B7320100BB320100D7320100DB32CF
:103110000100F7320100FA320100163301001A33C0
:103120000100353301003A330100563301005933B1
:1031300001007433010078330100943301009833A7
:103140000100B4330100B7330100D3330100D7339A
:103150000100FF330100053401005A3501006D35CF
:1031600001006D3501001736010021360100CB3614
:103170000100D53601002A3801003D3801003D38F4
:1031800001003D3A0100593A0100AE3B0100C13B4C
:103190000100C13B01001A3C01001B3C0100743CD2
:1031A0000100753C0100753E0100913E0100453F64
:1031B000010091400100AD400100024201001542B2
:1031C0000100154201006A4301007D4301007D4377
:1031D00001002744010031440100DB440100E544C3
:1031E00001009045010099450100444601004D460B
:1031F0000100F8460100014701003D4701003D473D
:1032000001007947010079470100B5470100B54742
:1032100001000B4901001D4901001D490100C84979
:103220000100D14901007C4A0100854A0100304B70
:103230000100394B0100E44B0100EE4B0100984CBA
:103240000100A24C01004C4D0100564D0100AB4E57
:103250000100BE4E0100BE4E0100BE500100DA501A
:1032600001002F52010042520100425201009B52C4
:1032700001009C520100F5520100F6520100A053DA
:103280000100AA530100AA530100545401005E54E6
:1032900001000855010012550100BC550100C6553A
:1032A0000100C6550100705601007A5601002457EE
:1032B00001002E57010083580100965801009658CE
:1032C0000100EB590100FE590100FE590100535B5A
:1032D0000100665B0100105C01001A5C0100C45C27
:1032E0000100CE5C0100795D0100825D0100DC5DC2
:1032F0000100DC5D0100365E0100365E0100755E96
:103300000100B45E0100F35E0100315F0100705FF7
:1033100001008C5F01009E5F01009E5F0100AE5FB7
:103320000100ED5F01002B60010049600100496070
:103330000100526001006A600100A9600100E860BC
:103340000100FD6001000661010026610100656168
:103350000100A3610100B1610100BA610100E261F5
:103360000100206201005F620100656201006E627F
:1033700001009E620100DD6201001B6301005A63CF
:10338000010098630100C4630100D7630100D763A3
:1033900001002C6501003F6501003F650100946656
:1033A00001005B6701005B670100B068010077699D
:1033B000010077690100CC6A0100936B0100936BF7
:1033C0000100476C0100936D0100AF6D0100046FB7
:1033D0000100176F01006C7001007F7001007F70A9
:1033E0000100D47101009B7201009B720100F07317
:1033F0000100B7740100B7740100E4740100117595
:1034000001003E7501006B75010098750100C575DE
:103410000100F27501001F7601004C7601007976FB
:103420000100A6760100B8760100D3760100D376BC
:103430000100007701002D7701005A77010087779E
:103440000100B4770100E17701000E7801003B78BC
:1034500001006878010095780100C2780100D478F5
:103460000100EF780100EF7801001C790100497933
:10347000010076790100A3790100D0790100FD797E
:1034800001002A7A0100457A0100577A0100577A33
:103490000100AD7B0100C07B0100C07B0100157DF8
:1034A0000100DC7D0100DC7D0100DC7F0100F87F94
:1034B0000100A2800100AC800100AC8001005681B7
:1034C0000100608101000A82010014820100BE82B5
:1034D0000100C8820100728301007C830100268400
:1034E000010030840100DA840100E48401008E854B
:1034F000010098850100ED8601000087010000872A
:103500000100558801001C8901001C8901001C8BE9
:103510000100388B0100E48D0100088E0100088E47
:103520000100B38E0100BC8E0100BC8E0100D58E5F
:103530000100D78E0100F08E0100F28E01000B8F8A
:1035400001000D8F0100268F0100288F0100418F9F
:103550000100438F01005C8F01005E8F0100778FB7
:103560000100798F0100928F0100948F0100AD8FCF
:103570000100AF8F0100C88F0100CA8F0100E38FE7
:103580000100E58F0100FE8F0100009001002190F5
:10359000010024900100CF900100D8900100A99370
:1035A0000100A99301005496010079960100499900
:1035B000010049990100F49B0100199C01006E9DD6
:1035C0000100819D0100819D0100D69E0100E99EC0
:1035D0000100939F01009D9F0100F2A0010005A141
:1035E00001005CA4010089A4010035A7010059A7CE
:1035F00001002AAA01002AAA0100D5AC0100FAACF8
:10360000010016AF010016AF010032B1010032B166
:10361000010087B201009AB201009AB40100B6B469
:103620000100B6B60100D2B6010027B801003AB8D1
:103630000100E5BA01000ABB0100B6BD0100DABD18
:103640000100DABD0100AAC00100AAC0010056C3F2
:1036500001007BC301004BC601004BC60100F6C848
:1036600001001BC9010070CA010083CA010083CA9E
:103670000100D8CB0100EBCB010095CC01009FCC21
:103680000100F4CD010007CE0100BBCE01005DD1E9
:1036900001008BD1010037D401005BD40100B3D904
:1036A0000100FCD90100FDDD010034DE010089DFED
:1036B00001009CDF01009CE10100B8E101006CE227
:1036C0000100B8E30100D4E3010029E501003CE575
:1036D0000100E7E701000CE80100B6E80100C0E8DE
:1036E0000100C0E80100E3E80100E6E8010008E9A4
:1036F00001000CE901002EE9010033E9010055E960
:10370000010058E901007BE901007FE90100A1E91E
:103710000100A6E90100CBE90100CEE90100CEEAF3
:103720000100DCEA0100DCEA010031EB010036EBCC
:10373000010036EB01008BEB010090EB0100E5EBA3
:103740000100EAEB01003FEC010044EC010099ECC0
:1037500001009EEC0100F3EC0100F8EC01004DEDDE
:10376000010052ED0100A7ED0100ACED010001EEFA
:10377000010006EE01005BEE010060EE0100B5EE17
:103780000100BAEE01000FEF010014EF010069EF34
:1037900001006EEF0100C3EF0100C8EF01001DF052
:1037A000010022F0010077F001007CF00100D1F06F
:1037B0000100D6F001002BF1010031F1010085F18B
:1037C00001008BF10100DFF10100E5F1010039F2A8
:1037D00001003FF2010093F2010099F20100EDF2C5
:1037E0000100F3F2010047F301004DF30100A1F3E2
:1037F0000100A7F30100FBF3010001F4010055F4FF
:1038000001005BF40100AFF40100B5F4010009F51B
:1038100001000FF5010063F5010069F50100BDF538
:103820000100C3F5010017F601001DF601001DF6A9
:1038300001003FF6010042F6010065F6010068F65E
:1038400001008BF601008FF60100B2F60100B5F61B
:103850000100D7F60100DBF60100FEF6010002F7D9
:10386000010028F701002BF7010080F70100EDF8B7
:10387000010042FA010063FB010070FB0100BBFB89
:103880000100DAFB010024FD01000000000000003F
:103890000000000000000501000087010000710128
:1038A0007101000025010000B80100009F01000027
:1038B000490100008701000071010000250100009E
:1038C000710100005D010000150100005D010000B4
:1038D00049010000F600000005010000870100001A
:1038E0007101000025010000B80100009F010000E7
:1038F000490100008701000071010000250100005E
:10390000710100005D010000150100005D01000073
:1039100049010000F60000000501050100008701D3
:103920008701000071010000250125010000B80198
:1039300000009F019F010000490100008701000075
:1039400071017101000025010000710100005D019D
:103950005D010000150100005D0100004901490101
:103960000000F6000000050100008701870100004B
:1039700071010000250125010000B80100009F0130
:103980009F010000490100008701000071017101E1
:10399000000025010000710100005D015D010000D3
:1039A000150100005D010000490149010000F60019
:1039B00000000B020B0200000F030F030000E302E4
:1039C00000004B020000700300003E033E030000B5
:1039D000930200000F030000E302E30200004B0229
:1039E0000000E3020000BA02BA0200002A0200004E
:1039F000BA02000093020000ED010000160400006E
:103A00001F061F060000C705000096040000E00620
:103A100000007D067D060000260500001F06000050
:103A2000C705C705000096040000C705000074051F
:103A30007405000054040000740500002605000011
:103A4000DB030000160400007003700300000F0386
:103A50000000BA020000930200004B0200000B02BB
:103A60000000ED010000B8010000870100005D01C9
:103A700000004901000025010000050100000B02C3
:103A80000000D2010000870187010000D201000080
:103A90000B020000050105010000D201D201000067
:103AA0000B0200009F019F0100009F019F01000089
:103AB0005D010000D20100004B0200005D0100002A
:103AC0005D010000D20100006E0200005D015D0199
:103AD00000006E0200004B020000D20100008701CE
:103AE0000000D20100000B0200000B020B020000DC
:103AF0004B020000ED01ED0100000B0200006E0220
:103B000000004B024B0200006E0200004B0200005E
:103B1000D201D20100004B0200006E0200009F01A2
:103B20009F0100009F019F0100000B0200006E0238
:103B300000000B0200004B020000BA0200005D0111
:103B40005D0100006E0200004B020000D201000087
:103B500087010000D20100000B0200000B020B02E3
:103B60000000D2010000870187010000D20100009F
:103B70000B020000D201D20100000B0200009F01E5
:103B80009F0100009F019F0100005D010000D20124
:103B900000004B0200005D0100005D010000D20149
:103BA00000006E0200005D015D0100006E02000079
:103BB0004B020000D201000087010000D20100008A
:103BC0000B0200000B020B0200004B020000ED0193
:103BD000ED0100000B0200006E0200004B024B02E0
:103BE00000006E02000025014B0200000000D2011F
:103BF000D20100004B02000087016E0200000000AD
:103C00009F019F0100009F019F0100000B02000027
:103C10006E0200000B0200004B0200006E0200006A
:103C2000BA02BA02BA02BA0200005D015D015D018A
:103C300000006E026E026E0200004B024B024B024D
:103C40000000D201D201D20100005D015D015D01E1
:103C50005D015D01000037013701000037013701C8
:103C600000002501250100000501050100000501F6
:103C700005010501000025010000370100003701A2
:103C800000002501250100000501050100000501D6
:103C9000050105010000250100003701370137014A
:103CA0003701370137013701370137013701370154
:103CB000370137010000370137013701370137017C
:103CC0003701370137013701370137013701370134
:103CD0003701000000007101710100008701000040
:103CE00071017101000087010000710100004901AC
:103CF000000071017101000087010000B80100009F
:103D00005D0100005D015D01000087010000870189
:103D100000000B020000ED01ED010000B801000001
:103D2000870100005D01000049010000250100003D
:103D300005010000F6000000DC000000C3000000E8
:103D4000AE000000A400000092000000820000000D
:103D50009F010000CF0000000B02000037010000AF
:103D6000D20100004B024B02000093020000BA0295
:103D70000000BA020000930200004B0200000B0298
:103D80000000ED010000B8010000870100005D01A6
:103D90000000490100002501000005010000F600B7
:103DA0000000BA0200000B020000B8010000D201BE
:103DB00000005D010000D20100009F0100008701AA
:103DC00000009F010000CF0000000B020000050171
:103DD0000000D20100004B024B02000093020000E1
:103DE000BA020000BA02BA02000093020000BA024E
:103DF0000000050100000B020000B8010000D20124
:103E000000005D015D015D010000D20100009F0125
:103E10009F010000870100005D0100000B020B0202
:103E20000000ED010000870100004B0200002A02A3
:103E30002A020000B80100000B020000ED01ED01B4
:103E4000000087010000ED010000D201D201000056
:103E500071010000D2010000B801B8010000490161
:103E600000005D0100000B020B020000ED010000EC
:103E7000870100004B0200002A022A020000B8015C
:103E800000000B020000ED01ED01000087010000C1
:103E9000ED010000D201D201000071010000D20149
:103EA0000000B801B8010000490100005D010000F8
:103EB0000B020B020000ED010000870100004B0225
:103EC0004B0200002A022A020000B80100000B0287
:103ED0000000ED01ED01000087010000ED01000090
:103EE000D201D201000071010000D2010000B8012E
:103EF000B8010000490100005D0100000B020B0247
:103F00000000ED010000870100004B024B020000A1
:103F10002A022A020000B80100000B020000ED0195
:103F2000ED01000087010000ED010000D201D20187
:103F3000000071010000D2010000B801B8010000CA
:103F4000BA020000160416040000DB0300000F0391
:103F500000009604000054045404000070030000A4
:103F600016040000DB03DB0300000F030000DB038B
:103F70000000A403A4030000E3020000A403000067
:103F800070037003000093020000BA0200001604E0
:103F900016040000DB0300000F030000960400007D
:103FA000540400007003000016040000DB03DB0370
:103FB00000000F030000DB030000A4030000E30285
:103FC0000000A403000070037003000093020000CF
:103FD000BA020000160416040000DB0300000F0301
:103FE0000000960400005404540400007003000014
:103FF00016040000DB03DB0300000F030000DB03FB
:104000000000A4030000E3020000A403000070030A
:10401000000093020000740500002D082D08000028
:10402000B70700001F0600002D090000A9080000C6
:10403000E00600002D080000B70700001F06000082
:10404000B707000048070000C70500004807000048
:10405000E006000026050000A908A90800000000ED
:104060002D080000B7070000E00600001F06000052
:1040700074050000260500009604000016040000E8
:10408000DB030000700300000F030000BA02000011
:10409000930200004B0200000B020000ED01000043
:1040A000B8010000870100005D0100004901000027
:1040B00025010000050100004B024B020000BA027E
:1040C00000000F0300000F030F030000BA020000FE
:1040D0004B024B020000BA0200000F030000BA02BC
:1040E000BA0200000F0300006E026E0200006E02B2
:1040F0006E0200000B020000BA0200007003000014
:104100000B0200000B020000BA0200007003000066
:10411000A40300000B020B020000A40300007003C4
:104120000000BA0200004B020000BA0200000F03B8
:1041300000000F030F030000700300000F030F03C4
:10414000000070030000A40300000F030F03000031
:10415000A403000070030000BA02BA02000070035A
:104160000000A40300006E026E0200006E026E02E8
:1041700000000F030000A40300000F030000700301
:104180000000A40300001604160416041604160406
:10419000160400000F03160416041604160400008B
:1041A0000000700370037003700300000F030F031F
:1041B0000F030F030000BA02BA02BA02BA020000EB
:1041C0004B024B024B024B024B024B020000D2014E
:1041D000D2010000D201D2010000B801B8010000F4
:1041E0008701870100008701870187010000B8016E
:1041F0000000D2010000D201D2010000B801B801D4
:1042000000008701870187018701870187018701F6
:1042100087018701870187018701870100008701E6
:10422000870187018701870187018701870187014E
:1042300087018701870187010000B801B801B80133
:10424000B801B801B801B801B801B8010000D20145
:10425000D2010000D201D20100002A022A0200008D
:104260004B0200002A022A0200004B0200002A0230
:104270000000ED0100002A0200004B020000930242
:1042800000000B0200000B020B0200004B024B026D
:1042900000004B0200000F030F030000BA02BA0235
:1042A0000000930200004B0200000B020000ED0131
:1042B0000000B8010000870100005D010000490115
:1042C00000002501000005010000F6000000DC00F0
:1042D0000000C30000006E020000370100000F0361
:1042E000000025010000BA02000070037003000006
:1042F000DB0300001604000016040000DB030000CE
:1043000016040000370100000F0300000501000043
:1043100093020000BA0200000B020000BA02000083
:104320006E0200004B0200006E026E0200003701B8
:1043300000000F030000E9000000BA020000700353
:1043400070030000DB0300001604000016041604CE
:104350000000DB030000160400000F0300009302BE
:104360000000BA0200000B020B020000BA020000BB
:104370006E0200004B0200000B020B020000ED0178
:104380000000B8010000870100005D010000490144
:1043900000002501000005010000050105010000E5
:1043A0008701870100007101000025010000B801AC
:1043B00000009F0100004901000087010000710119
:1043C000000025010000710100005D0100001501E1
:1043D00000005D01000049010000F6000000050139
:1043E0000000870100007101000025010000B801F4
:1043F00000009F01000049010000870100007101D9
:10440000000025010000710100005D0100001501A0
:1044100000005D01000049010000F6000000DC0022
:10442000DC000000C3000000AE000000A40000009B
:1044300092000000820000007B0000006E0000007F
:104440000501000000002D0800002D0800000000FC
:104450000000240027002A0000000000250028009A
:104460002B000201000000000023002600290004A8
:10447000040404040404040202020202020303030B
:104480000303030102040810204080010204081005
:1044900020010204081020000000080002010000B2
:1044A000030407000000000000000000C12A1124DE
:1044B0001FBECFEFD8E0DEBFCDBF11E0A0E0B1E07E
:1044C000EEE6F6E502C005900D92A633B107D9F7E6
:1044D00022E0A6E3B1E001C01D92A631B207E1F7E8
:1044E00012E2C7E5D2E204C02197FE010E942F2B01
:1044F000C635D107C9F70E9442260C94352B0C947F
:104500000000AF92BF92CF92DF92EF92FF920F9393
:104510001F93CF93DF936C017B018B01040F151F59
:10452000EB015E01AE18BF08C017D10759F06991C1
:10453000D601ED91FC910190F081E02DC601099525
:10454000892B79F7C501DF91CF911F910F91FF90D2
:10455000EF90DF90CF90BF90AF900895FC01538D06
:10456000448D252F30E0842F90E0821B930B54174D
:1045700010F0CF96089501970895FC01918D828DDA
:10458000981761F0A28DAE0FBF2FB11D5D968C9173
:10459000928D9F5F9F73928F90E008958FEF9FEFB2
:1045A0000895FC01918D828D981731F0828DE80F6E
:1045B000F11D858D90E008958FEF9FEF0895FC0128
:1045C000918D228D892F90E0805C9F4F821B9109F5
:1045D0008F739927089589E791E00E94DF2221E0F7
:1045E000892B09F420E0822F089580E090E0892B48
:1045F00029F00E94EB2281110C9400000895FC0127
:10460000A48DA80FB92FB11DA35ABF4F2C91848D33
:1046100090E001968F739927848FA689B7892C9390
:10462000A089B1898C91837080648C93938D848DE3
:10463000981306C00288F389E02D80818F7D8083E6
:104640000895EF92FF920F931F93CF93DF93EC01A6
:1046500081E0888F9B8D8C8D98131AC0E889F98929
:10466000808185FF15C09FB7F894EE89FF8960832C
:10467000E889F98980818370806480839FBF81E0AD
:1046800090E0DF91CF911F910F91FF90EF900895EF
:10469000F62E0B8D10E00F5F1F4F0F731127E02ECA
:1046A0008C8D8E110CC00FB607FCFACFE889F98902
:1046B000808185FFF5CFCE010E94FF22F1CFEB8DE7
:1046C000EC0FFD2FF11DE35AFF4FF0829FB7F894D6
:1046D0000B8FEA89FB8980818062CFCFCF93DF93F4
:1046E000EC01888D8823B9F0AA89BB89E889F9890A
:1046F0008C9185FD03C0808186FD0DC00FB607FC3F
:10470000F7CF8C9185FFF2CF808185FFEDCFCE0171
:104710000E94FF22E9CFDF91CF910895833081F08D
:1047200028F4813099F08230A9F008958730A9F0FB
:104730008830C9F08430B1F4809180008F7D03C04F
:10474000809180008F7780938000089584B58F7763
:1047500084BD089584B58F7DFBCF8091B0008F77A5
:104760008093B00008958091B0008F7DF9CFCF93F2
:10477000DF93E7E9F4E48491E3E8F4E4D491EFE62D
:10478000F4E4C491CC23A1F081110E948E23EC2F7C
:10479000F0E0EE0FFF1FEB59FB4BA591B491EC91AC
:1047A000ED2381E090E009F480E0DF91CF9108955E
:1047B00080E090E0FACF1F93CF93DF93282F30E073
:1047C000F901E956FB4B8491F901ED57FB4BD4916C
:1047D000F901E159FB4BC491CC23A9F0162F8111AB
:1047E0000E948E23EC2FF0E0EE0FFF1FE85AFB4BE8
:1047F000A591B4918FB7F894EC91111108C0D095A0
:10480000DE23DC938FBFDF91CF911F910895DE2BC4
:10481000F8CFCF93DF9390E0FC01ED57FB4B249151
:1048200081599B4BFC0184918823D1F090E0880F43
:10483000991FFC01E25BFB4BA591B491FC01E85A86
:10484000FB4BC591D491623071F49FB7F8943C91C1
:10485000822F809583238C93E8812E2B28839FBF02
:10486000DF91CF9108958FB7F894EC912E2B2C9374
:104870008FBFF6CF3FB7F894809137019091380100
:10488000A0913901B0913A0126B5A89B05C02F3FF0
:1048900019F00196A11DB11D3FBFBA2FA92F982F66
:1048A0008827BC01CD01620F711D811D911D42E061
:1048B000660F771F881F991F4A95D1F708950C94AA
:1048C0003A24FC019181913069F0923089F0911184
:1048D00005C090916E009D7F90936E0060E0808196
:1048E0000C94DB2390916F009D7F90936F00F6CF27
:1048F000909170009D7F90937000F0CFCF93DF93E5
:10490000FC0101900020E9F73197AF01481B590BDA
:10491000BC0189E791E00E948122EC0142E050E075
:1049200062E271E089E791E00E9481228C0F9D1F75
:10493000DF91CF9108951F920F920FB60F9211241D
:104940002F933F934F935F936F937F938F939F9397
:10495000AF93BF93EF93FF9389E791E00E94FF220B
:10496000FF91EF91BF91AF919F918F917F916F9147
:104970005F914F913F912F910F900FBE0F901F901D
:1049800018951F920F920FB60F9211242F938F93A9
:104990009F93EF93FF93E0918901F0918A018081C9
:1049A000E0918F01F091900182FD1BC09081809178
:1049B00092018F5F8F7320919301821741F0E091F4
:1049C0009201F0E0E758FE4F958F80939201FF919E
:1049D000EF919F918F912F910F900FBE0F901F908D
:1049E00018958081F4CF1F920F920FB60F92112469
:1049F0002F933F938F939F93AF93BF9380914501E4
:104A000090914601A0914701B09148013091360143
:104A100023E0230F2D3758F50196A11DB11D2093DA
:104A200036018093450190934601A0934701B093CE
:104A300048018091370190913801A0913901B091DE
:104A40003A010196A11DB11D809337019093380161
:104A5000A0933901B0933A01BF91AF919F918F918B
:104A60003F912F910F900FBE0F901F90189526E841
:104A7000230F0296A11DB11DD2CF1F920F920FB628
:104A80000F9211242F933F938F939F93AF93BF93D4
:104A9000EF93FF938091490190914A01A0914B01BE
:104AA000B0914C010097A105B10531F130913B0166
:104AB000E0913C01F0913D012081232720831816CD
:104AC00019061A061B061CF40197A109B109809367
:104AD000490190934A01A0934B01B0934C01FF917F
:104AE000EF91BF91AF919F918F913F912F910F9037
:104AF0000FBE0F901F901895209170002D7F20936E
:104B0000700020913B01E0913C01F0913D0130812A
:104B1000209523232083DBCF1F920F920FB60F9295
:104B200011248F939F93AF93BF93EF93FF93809143
:104B30004D0190914E01A0914F01B0915001892BF0
:104B40008A2B8B2BA1F190913E01E0913F01F091D6
:104B5000400180818927808380914D0190914E0191
:104B6000A0914F01B0915001181619061A061B06A4
:104B70009CF480914D0190914E01A0914F01B09114
:104B800050010197A109B10980934D0190934E0105
:104B9000A0934F01B0935001FF91EF91BF91AF915E
:104BA0009F918F910F900FBE0F901F90189580913D
:104BB0006F008D7F80936F0080913E01E0913F01F7
:104BC000F09140019081809589238083E5CF1F92E9
:104BD0000F920FB60F9211248F939F93AF93BF93B1
:104BE000EF93FF938091510190915201A091530155
:104BF000B0915401892B8A2B8B2BA1F1909141010B
:104C0000E0914201F0914301808189278083809166
:104C1000510190915201A0915301B0915401181685
:104C200019061A061B069CF48091510190915201BD
:104C3000A0915301B09154010197A109B10980934A
:104C4000510190935201A0935301B0935401FF91ED
:104C5000EF91BF91AF919F918F910F900FBE0F90E9
:104C60001F90189580916E008D7F80936E008091CB
:104C70004101E0914201F0914301908180958923A7
:104C80008083E5CFCF93DF93CDB7DEB72A970FB6FA
:104C9000F894DEBF0FBECDBF789484B5826084BD2A
:104CA00084B5816084BD85B5826085BD85B5816030
:104CB00085BD80916E00816080936E0010928100AE
:104CC0008091810082608093810080918100816069
:104CD000809381008091800081608093800080912A
:104CE000B10084608093B1008091B00081608093B6
:104CF000B00080917A00846080937A0080917A007D
:104D0000826080937A0080917A00816080937A003B
:104D100080917A00806880937A001092C100E091BF
:104D20008901F0918A0182E08083E0918501F09110
:104D300086011082E0918701F09188018FEC8083D9
:104D400010929101E0918D01F0918E0186E08083B7
:104D5000E0918B01F0918C01808180618083E091F2
:104D60008B01F0918C01808188608083E0918B01C0
:104D7000F0918C01808180688083E0918B01F091BB
:104D80008C0180818F7D808362E080E00E94092415
:104D900061E08DE00E94092461E089E00E9409241D
:104DA00061E08AE00E940924A5E5B1E005E711E091
:104DB00069E671E04DE651E029E531E082E1282E17
:104DC00081E0382EFF24FA94F10186819781F90160
:104DD00091838083FA011192119211921192AF0185
:104DE000FB0111921192BF01F801119211928F01F2
:104DF000F101908180914401833008F01FC19C93A0
:104E0000E82FF0E0EE59FB4BE4911196EC931197EB
:104E10008F5F80934401E13009F4C4C008F4A2C05C
:104E2000E23009F4E5C0F90180819181FC01E15093
:104E3000F04CCF01880F991F880F991FF101C48092
:104E4000D580F601E80FF91F459055906590749054
:104E500080905D0190905E01A0905F01B090600134
:104E600084149504A604B70410F4530142018092FF
:104E70005D0190925E01A0925F01B0926001F8E046
:104E80002F0E311C2E5F3F4F129682E2281681E0D2
:104E9000380609F099CF0E945F2460E08DE00E94FF
:104EA000DB2300E010E00E94B7239C838B830197F3
:104EB00011F00B831C830E94B7239A838983892B6B
:104EC00009F0C0C0AB81BC81119709F0BBC061E0A3
:104ED0008DE00E94DB2385E291E00E947E2469E65A
:104EE00071E00DE6C02E01E0D02E45E751E0A2E1D1
:104EF000B1E01496ED90FC901597FA0180819181B4
:104F0000FC01EE0FFF1FEE0FFF1FEE0DFF1D0591C1
:104F1000159125913491F601008311832283338307
:104F2000FA012081318189010F5F1F4FC801880F6D
:104F3000991F880F991F8E0D9F1DFC0185909590DC
:104F4000A590B490F601408051806280738048142F
:104F500059046A047B0409F078C0FA0111830083C4
:104F6000FC01D5CF14BC15BC84B5826084BD85B569
:104F7000816085BD8C9190E0FC01E159FB4BE4918F
:104F8000F0E0EE0FFF1FE85AFB4BC590D490D09293
:104F90004301C0924201FC01ED57FB4BE491E093C9
:104FA000410141CF109280001092810080918100D8
:104FB000886080938100809181008160809381006E
:104FC0008C9190E0FC01E159FB4BE491F0E0EE0F95
:104FD000FF1FE85AFB4BC590D490D0924001C0927D
:104FE0003F01FC01ED57FB4BE491E0933E011BCFE9
:104FF0001092B0001092B1008091B0008260809356
:10500000B0008091B10081608093B1008C9190E0FC
:10501000FC01E159FB4BE491F0E0EE0FFF1FE85A71
:10502000FB4BC590D490D0923D01C0923C01FC0155
:10503000ED57FB4BE491E0933B01F5CE1196FC92CA
:105040001197F1CE0B811C812ECF90E080E01216DB
:10505000130664F421503048220F331F1296ED914D
:10506000FC911397E20FF31F85919491FB018193BB
:105070009193BF0118964E5F5F4FF4E0CF0ED11CA5
:1050800081E0A232B80709F034CF2FB7F8948091AD
:10509000450190914601A0914701B09148012FBF71
:1050A0008093650190936601A0936701B0936801B6
:1050B0001E821D82409161015091620160916301E5
:1050C0007091640180915D0190915E01A0915F01FA
:1050D000B091600184179507A607B70708F42AC2A4
:1050E000AD81BE81119709F425C22FB7F894809144
:1050F000450190914601A0914701B09148012FBF11
:10510000409165015091660160916701709168015D
:10511000841B950BA60BB70B8093610190936201E2
:10512000A0936301B0936401E5E5F1E0FA87E987B4
:105130007DE6272E71E0372E89E591E09C838B83F5
:10514000E5E7CE2EE1E0DE2EF12CE12CAB81BC8137
:105150008D919D91BC83AB83F6012081318128170D
:1051600039070CF0E2C10E94B723019721F481E0D6
:1051700090E09A8389830E94B723892B61F4A981E7
:10518000BA81119741F480E391E00E947E24E1E02E
:10519000F0E0FE83ED83C70187599E4F98878F8388
:1051A000DC018D909C90181419040CF0B9C1E985AC
:1051B000FA85818187FD02C161E080810E94092416
:1051C000A985BA8511961C91092C000CAA08BB0868
:1051D000812F8D7F09F052C160E072E18AE790E093
:1051E000A50194010E94EE2A29013A01DA01C901C0
:1051F0000197A109B1098F3F9105A105B10509F0FA
:105200000CF4B8C060E472E48FE090E0A501940172
:105210000E94EE2A2150310941095109123009F04A
:105220006AC082E02F3F31054105510509F00CF4B9
:105230005BC060E970ED83E090E0A50194010E94FD
:10524000EE2A215031094109510983E02F3F3105F0
:105250004105510509F00CF447C068E478EE81E09F
:1052600090E0A50194010E94EE2A215031094109E4
:10527000510984E02F3F310541055105A9F1A4F101
:1052800064E274EF80E090E0A50194010E94EE2AB0
:10529000215031094109510985E02F3F3105410570
:1052A000510511F108F162E17AE780E090E0A50193
:1052B00094010E94EE2A215031094109510986E0EA
:1052C0002F3F31054105510579F070F09AE0759452
:1052D0006794579447949A95D1F7A301920121506E
:1052E00031094109510987E09091B100987F892BDC
:1052F0008093B10047C02F3F31054105510509F0AA
:105300000CF4BAC068E478EE81E090E0A501940165
:105310000E94EE2A215031094109510984E01111FE
:10532000BCCF83E02F3F31054105510539F134F100
:1053300062E17AE780E090E0A50194010E94EE2A04
:10534000215031094109510984E02F3F31054105C0
:105350005105A1F098F08AE07594679457944794AA
:105360008A95D1F7A30192012150310941095109D0
:1053700085E004C09C0181E01111B6CF95B5987FFE
:10538000892B85BDE985FA858181813009F4A0C02A
:10539000823009F4B2C0811111C027BD8FEF9FEF99
:1053A000DC018093510190935201A0935301B0937B
:1053B000540180916E00826080936E00D1014D9106
:1053C0005D916D917C918091610190916201A091BC
:1053D0006301B091640184179507A607B70708F425
:1053E00037C0F60120813181C90101969183808304
:1053F000EB81FC813297408151818417950744F5F8
:10540000D701AA0FBB1FAA0FBB1FAE5EBE4F220F54
:10541000331F1296ED91FC911397E20FF31F459104
:105420005491EF81F88551834083880F991F880F2D
:10543000991F1496ED91FC91E80FF91F4591559134
:1054400065917491D1014D935D936D937C93139706
:10545000B2E0CB0ED11CE4E02E0E311C89859A857A
:1054600002969A87898792E0E90EF11CA4E0EA1679
:10547000F10409F41FCE6ACE82E07ECF60E072E1D3
:105480008AE790E0A50194010E94EE2A215031099B
:105490004109510991E021153105B1E04B07510552
:1054A0006CF068E478EE81E090E0A50194010E9440
:1054B000EE2A215031094109510993E0113009F0D8
:1054C00061CF80918100887F892B809381005ACFA2
:1054D00030938900209388008FEF9FEFDC01809349
:1054E0004D0190934E01A0934F01B09350018091D4
:1054F0006F00826080936F0061CF2093B3008FEFC5
:105500009FEFDC018093490190934A01A0934B01E6
:10551000B0934C01809170008260809370004ECFF8
:1055200089859A850E94612449CF89859A850E9440
:1055300061248ECF1092610110926201109263017A
:1055400010926401109276011092750185E591E048
:105550000E946124109278011092770187E591E012
:105560000E9461240E945F2480E090E0892B09F46E
:1055700094CC0E94EB22882309F48FCC0E94000077
:105580008CCCE9E7F1E01382128288EE93E0A0E090
:10559000B0E084839583A683B78384E091E0918310
:1055A000808385EC90E09587848784EC90E09787F2
:1055B000868780EC90E0918B808B81EC90E0938BE0
:1055C000828B82EC90E0958B848B86EC90E0978BBD
:1055D000868B118E128E138E148E0895052E97FBD6
:1055E0001EF400940E94052B57FD07D00E940D2B3E
:1055F00007FC03D04EF40C94052B50954095309544
:1056000021953F4F4F4F5F4F08959095809570952E
:1056100061957F4F8F4F9F4F0895A1E21A2EAA1BCD
:10562000BB1BFD010DC0AA1FBB1FEE1FFF1FA21752
:10563000B307E407F50720F0A21BB30BE40BF50B4F
:10564000661F771F881F991F1A9469F760957095D8
:10565000809590959B01AC01BD01CF010895EE0F9F
:0E566000FF1F0590F491E02D0994F894FFCF00
:10566E000000000021238122AE226E23DF22BD2204
:10567E00D1220C008A380221E205090024166800A6
:10568E006F050D0A00506C6179696E672E2E2E0023
:06569E00736B697000004F
:00000001FF
