:100000000C94542B0C947C2B0C947C2B0C947C2BFC
:100010000C947C2B0C947C2B0C947C2B0C943A2E03
:100020000C947C2B0C947C2B0C947C2B0C94892EA4
:100030000C947C2B0C947C2B0C94E42E0C947C2B39
:100040000C94F02D0C947C2B0C94BE2D0C94982DBC
:100050000C947C2B0C947C2B0C947C2B0C947C2B84
:100060000C947C2B0C947C2B000000009B00000067
:100070009C0000009C0000009C0000009C00000010
:100080009E0000009F000000A0000000A1000000F2
:10009000A1000000A2000000A3000000A4000000D6
:1000A000A5000000A6000000A6000000A7000000B8
:1000B000A8000000A9000000AA000000AB0000009A
:1000C000AB000000AC000000AC000000AC00000081
:1000D000AC000000B0000000B0000000B000000064
:1000E000B2000000B2000000B2000000B400000046
:1000F000B5000000B50000008C010000BF07000043
:10010000BF070000F10D0000F10D000024140000F5
:1001100024140000561A0000561A0000892000001E
:1001200089200000BC260000BC260000EE2C000048
:10013000EE2C0000073000000730000021330000E3
:10014000213300008433000084330000E7330000D3
:10015000E73300004A3400004A340000AD340000A8
:10016000AD34000011350000113500007435000079
:1001700074350000D7350000D73500003A3600004E
:100180003A3600009D3600009D3600000037000022
:10019000003700006337000063370000C7370000F6
:1001A000C73700002A3800002A3800008D380000C8
:1001B0008D380000F0380000F0380000533900009E
:1001C00053390000B6390000B63900001A3A000071
:1001D0001A3A00007D3A00007D3A0000E03A000043
:1001E000E03A0000433B0000433B0000A63B000018
:1001F000A63B0000093C0000093C00006D3C0000EB
:100200006D3C0000D03C0000D03C0000333D0000BD
:10021000333D0000963D0000963D0000F93D000092
:10022000F93D00005C3E00005C3E0000C03E000066
:10023000C03E0000233F0000233F0000863F000037
:10024000863F0000E93F0000E93F00004C4000000D
:100250004C400000AF400000AF40000012410000E1
:10026000124100007641000076410000D9410000B3
:10027000D94100003C4200003C4200009F42000087
:100280009F4200000243000002430000654300005B
:1002900065430000C9430000C94300002C4400002E
:1002A0002C4400008F4400008F440000F244000002
:1002B000F24400005545000055450000B8450000D7
:1002C000B84500001C4600001C4600007F460000A8
:1002D0007F460000E2460000E2460000454700007D
:1002E00045470000A8470000A84700000B48000051
:1002F0000B4800006F4800006F480000D248000023
:10030000D2480000354900003549000098490000F6
:1003100098490000FB490000FB4900005E4A0000CC
:100320005E4A0000C24A0000C24A0000254B00009D
:10033000254B0000884B0000884B0000EB4B000071
:10034000EB4B00004E4C00004E4C0000B14C000046
:10035000B14C0000144D0000144D0000784D000019
:10036000784D0000DB4D0000DB4D00003E4E0000EC
:100370003E4E0000A14E0000A14E0000044F0000C0
:10038000044F0000674F0000674F0000CB4F000094
:10039000CB4F00002E5000002E5000009150000066
:1003A00091500000F4500000F4500000575100003C
:1003B00057510000BA510000BA5100001E5200000F
:1003C0001E5200008152000081520000E4520000E1
:1003D000E45200004753000047530000AA530000B6
:1003E000AA5300000D5400000D5400007154000089
:1003F00071540000D4540000D4540000375500005C
:10040000375500009A5500009A550000FD55000030
:10041000FD5500006056000060560000C356000005
:10042000C356000027570000275700008A570000D6
:100430008A570000ED570000ED57000050580000AB
:1004400050580000B3580000B3580000165900007F
:10045000165900007A5900007A590000DD59000051
:10046000DD590000405A0000405A0000A35A000025
:10047000A35A0000065B0000065B0000695B0000F9
:10048000695B0000CD5B0000CD5B0000305C0000CC
:10049000305C0000935C0000935C0000F65C0000A0
:1004A000F65C0000595D0000595D0000BC5D000075
:1004B000BC5D0000205E0000205E0000835E000046
:1004C000835E0000E65E0000E65E0000495F00001B
:1004D000495F0000AC5F0000AC5F00000F600000EF
:1004E0000F6000007260000072600000D6600000C3
:1004F000D660000039610000396100009C61000095
:100500009C610000FF610000FF610000626200006A
:1005100062620000C5620000C5620000296300003D
:10052000296300008C6300008C630000EF6300000F
:10053000EF630000B5640000B564000018650000BA
:10054000186500007C6500007C650000DF65000028
:10055000DF6500004266000042660000A5660000FC
:10056000A566000008670000086700006B670000D0
:100570006B670000CF670000CF67000032680000A3
:10058000326800009568000095680000F868000077
:10059000F86800005B6900005B690000BE6900004C
:1005A000BE690000226A0000226A0000856A00001D
:1005B000856A0000E86A0000E86A00004B6B0000F2
:1005C0004B6B0000AE6B0000AE6B0000116C0000C6
:1005D000116C0000746C0000746C0000D86C00009A
:1005E000D86C00003B6D00003B6D00009E6D00006C
:1005F0009E6D0000016E0000016E0000646E000040
:10060000646E0000C76E0000C76E00002B6F000014
:100610002B6F00008E6F00008E6F0000F16F0000E6
:10062000F16F00005470000054700000B7700000BB
:10063000B77000001A7100001A7100007E7100008E
:100640007E710000E1710000E17100004472000061
:1006500044720000A7720000A77200000A73000035
:100660000A7300006D7300006D730000D173000009
:10067000D1730000347400003474000097740000DB
:1006800097740000FA740000FA7400005D750000B1
:100690005D750000C0750000C07500002376000085
:1006A000237600008776000087760000EA76000057
:1006B000EA7600004D7700004D770000B07700002B
:1006C000B0770000137800001378000076780000FF
:1006D00076780000DA780000DA7800003D790000D2
:1006E0003D790000A0790000A0790000037A0000A5
:1006F000037A0000667A0000667A0000C97A00007A
:10070000C97A00002D7B00002D7B0000907B00004B
:10071000907B0000F37B0000F37B0000567C000020
:10072000567C0000B97C0000B97C00001C7D0000F4
:100730001C7D0000807D0000807D0000E37D0000C6
:10074000E37D0000467E0000467E0000A97E00009A
:10075000A97E00000C7F00000C7F00006F7F00006E
:100760006F7F0000D37F0000D37F00003680000041
:10077000368000009980000099800000FC80000015
:10078000FC8000005F8100005F810000C2810000EA
:10079000C2810000258200002582000089820000BD
:1007A00089820000EC820000EC8200004F83000090
:1007B0004F830000B2830000B28300001584000064
:1007C000158400007884000078840000DC84000038
:1007D000DC8400003F8500003F850000A28500000A
:1007E000A2850000058600000586000068860000DE
:1007F00068860000CB860000CB8600002F870000B3
:100800002F8700009287000092870000F587000084
:10081000F58700005888000058880000BB88000059
:10082000BB8800001E8900001E890000828900002C
:1008300082890000E5890000E5890000488A0000FF
:10084000488A0000AB8A0000AB8A00000E8B0000D3
:100850000E8B0000718B0000718B0000D48B0000A8
:10086000D48B0000388C0000388C00009B8C00007A
:100870009B8C0000FE8C0000FE8C0000618D00004F
:10088000618D0000C48D0000C48D0000278E000023
:10089000278E00008B8E00008B8E0000EE8E0000F5
:1008A000EE8E0000518F0000518F0000B48F0000C9
:1008B000B48F000017900000179000007A9000009D
:1008C0007A900000DE900000DE9000004191000070
:1008D00041910000A4910000A49100000792000043
:1008E000079200006A9200006A920000CD92000018
:1008F000CD920000319300003193000094930000EA
:1009000094930000F7930000F79300005A940000BE
:100910005A940000BD940000BD9400002095000092
:100920002095000084950000849500004A96000000
:100930004A960000AD960000AD96000010970000AA
:10094000109700007397000073970000D69700007F
:10095000D69700003A9800003A9800009D98000051
:100960009D98000000990000009900006399000024
:1009700063990000C6990000C6990000299A0000FA
:10098000299A00008D9A00008D9A0000F09A0000CC
:10099000F09A0000539B0000539B0000B69B0000A0
:1009A000B69B0000199C0000199C00007C9C000074
:1009B0007C9C0000E09C0000E09C0000439D000047
:1009C000439D0000A69D0000A69D0000099E00001A
:1009D000099E00006C9E00006C9E0000CF9E0000EF
:1009E000CF9E0000339F0000339F0000969F0000C1
:1009F000969F0000F99F0000F99F00005CA0000096
:100A00005CA00000BFA00000BFA0000022A1000069
:100A100022A1000085A1000085A10000E9A100003D
:100A2000E9A100004CA200004CA20000AFA200000F
:100A3000AFA2000012A3000012A3000075A30000E3
:100A400075A30000D8A30000D8A300003CA40000B8
:100A50003CA400009FA400009FA4000002A5000089
:100A600002A5000065A5000065A50000C8A500005E
:100A7000C8A500002BA600002BA600008FA6000032
:100A80008FA60000F2A60000F2A6000055A7000005
:100A900055A70000B8A70000B8A700001BA80000D9
:100AA0001BA800007EA800007EA80000E2A80000AD
:100AB000E2A8000045A9000045A90000A8A900007F
:100AC000A8A900000BAA00000BAA00006EAA000053
:100AD0006EAA0000D1AA0000D1AA000034AB000029
:100AE00034AB000098AB000098AB0000FBAB0000FB
:100AF000FBAB00005EAC00005EAC0000C1AC0000CF
:100B0000C1AC000024AD000024AD000087AD0000A2
:100B100087AD0000EBAD0000EBAD00004EAE000075
:100B20004EAE0000B1AE0000B1AE000014AF000048
:100B300014AF000077AF000077AF0000DAAF00001D
:100B4000DAAF00003EB000003EB00000A1B00000EF
:100B5000A1B0000004B1000004B1000067B10000C2
:100B600067B10000CAB10000CAB100002DB2000098
:100B70002DB2000091B2000091B20000F4B200006A
:100B8000F4B2000057B3000057B30000BAB300003E
:100B9000BAB300001DB400001DB4000080B4000012
:100BA00080B40000E4B40000E4B4000047B50000E5
:100BB00047B50000AAB50000AAB500000DB60000B8
:100BC0000DB6000070B6000070B60000D3B600008D
:100BD000D3B6000036B7000036B700009AB7000061
:100BE0009AB70000FDB70000FDB7000060B8000034
:100BF00060B80000C3B80000C3B8000026B9000008
:100C000026B9000089B9000089B90000EDB90000DB
:100C1000EDB9000050BA000050BA0000B3BA0000AD
:100C200016BB000079BB000079BB0000DCBB0000F4
:100C3000DCBB000040BC000040BC0000A3BC0000C6
:100C4000A3BC000006BD000006BD000069BD000099
:100C500069BD0000CCBD0000CCBD00002FBE00006F
:100C60002FBE000093BE000093BE0000F6BE000041
:100C7000F6BE000059BF000059BF0000BCBF000015
:100C8000BCBF00001FC000001FC0000082C00000E9
:100C900082C00000E5C00000E5C0000049C10000BE
:100CA00049C10000ACC10000ACC100000FC200008F
:100CB0000FC2000072C2000072C20000D5C2000064
:100CC000D5C2000038C3000038C300009CC3000038
:100CD0009CC30000FFC30000C5C4000028C500007D
:100CE00028C500008BC500008BC50000EFC50000C3
:100CF000EFC5000052C6000052C60000B5C6000095
:100D0000B5C6000018C7000018C70000DEC7000005
:100D1000DEC7000042C8000042C80000A5C80000AD
:100D2000A5C8000008C9000008C900006BC9000080
:100D30006BC90000CEC90000CEC9000031CA000056
:100D400031CA000095CA000095CA0000F8CA000028
:100D5000F8CA00005BCB00005BCB0000BECB0000FC
:100D6000BECB000021CC000021CC000084CC0000D0
:100D700084CC00004BCD00004BCD000011CE000014
:100D800011CE000074CE000074CE0000D7CE00005B
:100D9000D7CE00003ACF00003ACF00009ECF00002F
:100DA0009ECF000001D0000001D0000064D0000000
:100DB00064D00000C7D00000C7D000002AD10000D6
:100DC0002AD100008DD100008DD10000F1D10000AA
:100DD000F1D1000054D2000054D20000B7D200007C
:100DE000B7D200001AD300001AD300007DD3000050
:100DF0007DD30000E0D30000E0D3000044D4000025
:100E000044D40000A7D40000A7D400000AD50000F5
:100E10000AD500006DD500006DD50000D0D50000CA
:100E2000D0D5000033D6000033D6000096D600009F
:100E300096D60000FAD60000FAD600005DD7000072
:100E40005DD70000C0D70000C0D7000023D8000045
:100E500023D8000086D8000086D80000E9D800001A
:100E6000E9D800004DD900004DD90000B0D90000EC
:100E7000B0D9000013DA000013DA000076DA0000BF
:100E800076DA0000D9DA0000D9DA00003CDB000095
:100E90003CDB0000A0DB0000A0DB000003DC000066
:100EA00003DC000066DC000066DC0000C9DC00003A
:100EB000C9DC00002CDD00002CDD00008FDD00000F
:100EC0008FDD0000F3DD0000F3DD000056DE0000E2
:100ED000B9DE00001CDF00001CDF00007FDF000027
:100EE0007FDF0000E2DF0000E2DF000046E00000FC
:100EF00046E00000A9E00000A9E000000CE10000CD
:100F00000CE100006FE100006FE10000D2E10000A1
:100F1000D2E1000035E2000035E2000098E2000076
:100F200098E20000FCE20000FCE200005FE3000049
:100F30005FE30000C2E30000C2E3000025E400001C
:100F400025E4000088E4000088E40000EBE40000F1
:100F5000EBE400004FE500004FE50000B2E50000C3
:100F6000B2E5000015E6000015E60000DBE6000033
:100F7000DBE600003EE700003EE70000A2E70000DD
:100F8000A2E7000005E8000005E8000068E80000AE
:100F900068E80000CBE80000CBE800002EE9000084
:100FA0002EE9000091E9000091E90000F5E9000058
:100FB00058EA0000BBEA0000BBEA00001EEB00009C
:100FC0001EEB000081EB000081EB0000E4EB000071
:100FD000E4EB000047EC000047EC0000ABEC000045
:100FE000ABEC00000EED00000EED000071ED000016
:100FF00071ED0000D4ED0000D4ED000037EE0000EC
:1010000037EE00009AEE00009AEE0000FEEE0000BF
:10101000FEEE000061EF000061EF0000C4EF000091
:10102000C4EF000027F0000027F000008AF0000065
:101030008AF00000EDF00000EDF0000051F100003A
:1010400051F10000B4F10000B4F1000017F200000B
:1010500017F200007AF200007AF20000DDF20000E0
:10106000DDF2000040F3000040F30000A4F30000B4
:10107000A4F3000007F4000007F400006AF4000085
:101080006AF40000CDF40000CDF4000030F500005B
:1010900030F5000093F500005AF60000BDF60000A0
:1010A000BDF6000020F7000020F7000083F70000E5
:1010B00083F70000E6F70000E6F7000049F80000BB
:1010C00049F80000ADF8000073F90000D6F90000FF
:1010D000D6F9000039FA000039FA00009CFA000045
:1010E0009CFA000000FB000000FB000063FB000016
:1010F00063FB0000C6FB0000C6FB000029FC0000EB
:1011000029FC00008CFC00008CFC0000EFFC0000BF
:10111000EFFC000053FD000053FD0000B6FD000091
:10112000B6FD000019FE000019FE00007CFE000064
:101130007CFE0000DFFE0000DFFE000042FF00003A
:1011400042FF0000A6FF0000A6FF0000090001000A
:10115000090001006C0001006C000100CF000100DB
:10116000CF000100320101003201010095010100B0
:1011700095010100F8010100F80101005C02010085
:101180005C020100BF020100BF0201002203010056
:10119000220301008503010085030100E80301002B
:1011A000E80301004B0401004B040100AF040100FF
:1011B000AF040100120501001205010075050100D0
:1011C00075050100D8050100D80501003B060100A6
:1011D0003B0601009E0601009E0601000207010079
:1011E000020701006507010065070100C80701004B
:1011F000C80701002B0801002B0801008E08010020
:101200008E080100F1080100F108010055090100F4
:1012100055090100B8090100B80901001B0A0100C5
:101220001B0A01007E0A01007E0A0100E10A01009A
:10123000E10A0100440B0100440B0100A70B01006F
:10124000A70B01000B0C01000B0C01006E0C010040
:101250006E0C0100D10C0100D10C0100340D010015
:10126000340D0100970D0100970D0100FA0D0100EA
:10127000FA0D01005E0E01005E0E0100C10E0100BC
:10128000240F0100870F0100870F0100EA0F010002
:101290004D100100B1100100B11001001411010046
:1012A00077110100DA110100DA1101003D1201008D
:1012B0003D120100A0120100A01201000413010060
:1012C00067130100CA130100CA1301002D140100A5
:1012D0002D1401009014010090140100F31401007A
:1012E000F31401005715010057150100BA1501004C
:1012F000BA1501001D1601001D160100801601001F
:1013000080160100E3160100E316010046170100F4
:1013100046170100A9170100A91701007018010064
:1013200070180100D3180100D3180100361901000C
:10133000361901009919010099190100FC190100E1
:10134000FC190100601A0100601A0100C31A0100B3
:10135000C31A0100261B0100261B0100891B010086
:10136000891B0100EC1B0100EC1B01004F1C01005C
:101370004F1C0100B31C0100B31C0100161D01002D
:10138000161D0100791D0100791D0100DC1D010001
:10139000DC1D01003F1E01003F1E0100A21E0100D6
:1013A000A21E0100691F0100691F0100CC1F01007E
:1013B000CC1F01002F2001002F200100F52001008B
:1013C000F5200100BC210100BC21010082220100A6
:1013D00082220100E5220100E522010048230100EC
:1013E000482301000F2401000F240100D52401002F
:1013F000D52401009B2501009B25010062260100E8
:10140000622601002827010028270100EE2701009D
:10141000EE270100B5280100B52801007B29010055
:101420007B290100412A0100412A0100082B01000B
:10143000082B0100CE2B0100CE2B0100312C010026
:10144000312C0100942C0100942C01005A2D010034
:101450005A2D0100212E0100212E0100E72E01004E
:10146000E72E0100AD2F0100AD2F01007430010007
:10147000743001003A3101003A31010000320100BC
:1014800000320100C7320100C73201008D33010074
:101490008D33010053340100533401001A3501002B
:1014A0001A350100E0350100E0350100A6360100E3
:1014B000A63601006D3701006D3701003338010099
:1014C000333801009638010096380100F9380100E0
:1014D000F9380100C0390100C0390100863A010025
:1014E000863A01004C3B01004C3B0100AF3B010040
:1014F000AF3B0100133C0100133C0100D93C01004B
:10150000D93C01009F3D01009F3D0100663E010066
:10151000663E01002C3F01002C3F0100F23F01001C
:10152000F23F0100B9400100B94001006F430100E2
:101530006F4301009844010098440100FB440100FE
:10154000FB4401005E4501005E45010025460100A7
:1015500025460100B9460100B9460100B147010026
:10156000B147010078480100784801003E49010078
:101570003E490100044A0100634A0100C64A0100D5
:10158000C64A0100294B0100294B01008C4B010088
:101590008C4B0100EF4B0100EF4B0100524C01005E
:1015A000524C0100B64C0100B64C0100194D01002F
:1015B000194D01007C4D01007C4D0100DF4D010003
:1015C000DF4D0100424E0100424E0100A54E0100D8
:1015D000A54E0100084F0100084F01006C4F0100AB
:1015E0006C4F0100CF4F0100CF4F0100325001007E
:1015F000325001009550010095500100F850010053
:10160000F85001005B5101005B510100BF51010026
:10161000BF510100225201002252010085520100F7
:1016200085520100E8520100E85201004B530100CD
:101630004B530100AE530100AE53010012540100A0
:10164000125401007554010075540100D854010072
:10165000D85401003B5501003B5501009E55010047
:101660009E5501000156010001560100655601001A
:1016700065560100C8560100C85601002B570100ED
:101680002B5701008E5701008E570100F1570100C2
:10169000F15701005458010054580100B858010096
:1016A000B85801001B5901001B5901007E59010067
:1016B0007E590100E1590100E1590100445A01003D
:1016C000445A0100A75A0100A75A01000A5B010011
:1016D0000A5B01006E5B01006E5B0100D15B0100E3
:1016E000D15B0100345C0100345C0100975C0100B7
:1016F000975C0100FA5C0100FA5C01005D5D01008D
:101700005D5D0100C15D0100C15D0100245E01005D
:10171000245E0100875E0100875E0100EA5E010031
:10172000EA5E01004D5F01004D5F0100B05F010006
:10173000B05F0100146001001460010077600100D7
:1017400077600100DA600100DA6001003D610100AC
:101750003D610100A0610100A06101000362010080
:10176000036201006762010067620100CA62010052
:10177000CA6201002D6301002D6301009063010026
:1017800090630100F3630100F363010056640100FC
:1017900056640100B9640100B96401001D650100CF
:1017A0001D6501008065010080650100E3650100A1
:1017B000E36501004666010046660100A966010076
:1017C000A96601000C6701000C6701007067010049
:1017D00070670100D3670100D3670100366801001C
:1017E000366801009968010099680100FC680100F1
:1017F000FC6801005F6901005F690100C3690100C5
:10180000C3690100266A0100266A0100896A010095
:10181000896A01004F6B01004F6B0100166C0100DB
:10182000166C0100DC6C0100DC6C0100A26D010093
:10183000A26D0100686E0100686E01002F6F01004B
:10184000667501008078010080780100997B0100B5
:10185000997B01003F8001003F800100CB810100A6
:10186000CB810100E5840100E5840100FE870100D1
:10187000FE870100178B0100178B0100318E0100DC
:10188000318E01004A9101004A91010063940100E8
:10189000639401000999010009990100969A0100D9
:1018A000969A0100AF9D0100AF9D0100C8A0010004
:1018B000C8A00100E2A30100E2A30100FBA6010011
:1018C000FBA6010014AA010014AA01002DAD01001D
:1018D0002DAD0100D3B10100D3B1010060B301000F
:1018E00060B3010079B6010079B6010093B9010037
:1018F00093B90100ACBC0100ACBC0100C5BF010044
:10190000C5BF0100DEC20100DEC20100F8C5010052
:10191000F8C501009ECA01009ECA01002ACC010040
:101920002ACC010044CF010044CF01005DD2010068
:101930005DD2010076D5010076D501008FD8010077
:101940008FD80100A9DB0100A9DB0100C2DE010084
:10195000C2DE010068E3010068E30100F5E4010074
:10196000F5E401000EE801000EE8010027EB01009C
:1019700027EB010040EE010040EE01005AF10100AA
:101980005AF1010073F4010073F401008CF70100B7
:101990008CF7010032FC010032FC0100BFFD0100A8
:1019A000BFFD0100D8000200D8000200F1030200D0
:1019B000F10302000B0702000B070200240A0200D9
:1019C000240A02003D0D02003D0D020057100200E6
:1019D00057100200FD140200FD14020089160200D7
:1019E00089160200A2190200A2190200BC1C020002
:1019F000BC1C0200D51F0200D51F0200EE2202000F
:101A0000EE22020008260200082602002129020018
:101A100021290200C72D0200C72D0200532F02000A
:101A2000532F02006D3202006D3202008635020033
:101A30008635020013370200133702009F38020078
:101A40009F380200B93B0200D23E0200EB41020087
:101A5000EB41020091460200914602001E4802003E
:101A60001E480200374B0200374B0200504E020066
:101A7000504E02006A5102006A5102008354020073
:101A8000835402009C5702009C570200B55A020082
:101A9000B55A02005B5F02005B5F0200E860020073
:101AA000E860020001640200016402001B6702009A
:101AB0001B670200346A0200346A02004D6D0200A6
:101AC0004D6D0200667002006670020080730200B5
:101AD000807302002678020026780200B2790200A4
:101AE000B2790200CC7C0200CC7C0200E57F0200CF
:101AF000E57F0200FE820200FE82020017860200DD
:101B00001786020031890200318902004A8C0200E6
:101B10004A8C0200F0900200F09002007D920200D8
:101B20007D9202009695020096950200AF98020001
:101B3000AF9802003C9A02003C9A0200C89B020047
:101B4000C89B0200E29E0200E29E020014A5020071
:101B500014A5020047AB020047AB020079B10200B6
:101B600079B10200ACB702000000000000000000E4
:101B70000000000000000000000000000000000065
:101B80000000000000000000000000000000000055
:101B90000000000000000000000000000000000045
:101BA0000000000000000000000000000000000035
:101BB000D2010000ED0100002A020000ED0100004A
:101BC0006E02000093020000E30200000F03000019
:101BD0000F0300009B000000CF000000E9000000A0
:101BE00015010000E9000000CF0000009B0000008C
:101BF000CF000000E900000015010000E90000002E
:101C0000CF0000009B000000CF000000E9000000B2
:101C100015010000370100009F010000D201000003
:101C20002A020000D20100009F01000037010000DD
:101C30009F010000D20100002A020000D201000032
:101C40009F0100009B000000CF000000E9000000A1
:101C500015010000E9000000CF0000009B0000001B
:101C6000CF000000E900000015010000E9000000BD
:101C7000CF0000009B000000CF000000E900000042
:101C800015010000370100009F010000D201000093
:101C90002A0200009B000000CF000000E9000000C5
:101CA00015010000E9000000CF0000009B000000CB
:101CB000CF000000E900000015010000E90000006D
:101CC000CF0000009B000000CF000000E9000000F2
:101CD00015010000370100009F010000D201000043
:101CE0002A020000D20100009F010000370100001D
:101CF0009F010000D20100002A020000D201000072
:101D00009F0100009B000000CF000000E9000000E0
:101D100015010000E9000000CF0000009B0000005A
:101D2000CF000000E90000001501000037010000AD
:101D30009F010000D20100002A0200006E02000094
:101D40003E030000A403000054040000DC04000073
:101D50007D060000520000005C00000067000000EB
:101D60007B000000A4000000B8000000CF000000CD
:101D7000F60000005C000000670000007400000036
:101D80008A000000B8000000CF000000E900000059
:101D90001501000067000000740000007B000000D7
:101DA0009B000000CF000000E9000000F6000000EA
:101DB000370100009F010000D2010000ED0100008A
:101DC0006E0200003E0300006E020000A40300004B
:101DD0006E020000DB03000054040000DC0400007D
:101DE000C7050000DC04000054040000DB03000011
:101DF0006E0200002A0200006E020000BA0200001B
:101E00003E030000BA0200006E0200002A02000039
:101E10009F010000E900000087010000D2010000DE
:101E20006E0200000F030000A40300000F03000077
:101E30006E020000D201000087010000370100009F
:101E4000E9000000C30000009B00000074000000D7
:101E50007B0000008A0000009B000000CF00000013
:101E6000F600000015010000370100009F0100008E
:101E70005C00000067000000740000009B00000090
:101E8000B8000000CF000000E900000037010000AA
:101E900057000000670000008A000000AE0000004C
:101EA000CF000000150100005D0100009F0100004F
:101EB00015010000490100009F010000150100000C
:101EC0003701000071010000D2010000370100005D
:101ED00049010000710100009F010000ED010000B8
:101EE00093020000ED0100003E030000ED01000040
:101EF000710100009F010000D20100002A020000D1
:101F0000D20100002A0200003E030000E3020000AC
:101F10003E0300006E0200000B020000D201000030
:101F20000B0200009F010000D201000037010000F9
:101F30009F0100000501000037010000E9000000DA
:101F400005010000CF000000E90000009B00000038
:101F5000520000005C000000670000007B000000F1
:101F6000A4000000B8000000CF000000F600000050
:101F70005C00000067000000740000008A000000A0
:101F8000B8000000CF000000E900000015010000CB
:101F900067000000740000007B0000009B00000050
:101FA000CF000000E9000000F6000000370100004B
:101FB0009F010000D2010000ED0100006E02000050
:101FC0003E0300006E020000A40300006E02000049
:101FD000DB03000054040000DC040000C70500001F
:101FE000DC04000054040000DB0300006E0200006B
:101FF0002A0200006E020000BA0200003E03000048
:10200000BA0200006E0200002A0200009F010000D8
:10201000E900000087010000D20100006E0200000C
:102020000F030000A40300000F0300006E02000075
:10203000D20100008701000037010000E900000024
:10204000C30000009B000000740000007B00000043
:102050008A0000009B000000CF000000F600000096
:1020600015010000370100009F0100005C00000026
:1020700067000000740000009B000000B800000032
:10208000CF000000E9000000370100005700000009
:10209000670000008A000000AE000000CF000000D2
:1020A000150100005D0100009F0100001501000006
:1020B000490100009F0100001501000037010000E8
:1020C00071010000D2010000370100004901000049
:1020D000710100009F010000ED010000930200006B
:1020E000ED0100003E030000ED0100007101000061
:1020F0009F010000D20100002A020000D20100006E
:102100002A0200003E030000E30200003E0300003C
:102110006E0200000B020000D20100000B02000062
:102120009F010000D2010000370100009F01000064
:102130000501000037010000E90000000501000072
:10214000CF0000009B000000520000005C00000077
:10215000670000007B000000A4000000B800000041
:10216000CF000000F60000005C00000067000000E7
:10217000740000008A000000B8000000CF000000DA
:10218000E900000015010000670000007400000075
:102190007B0000009B000000CF000000E900000071
:1021A0009F010000D2010000ED0100006E0200005E
:1021B0003E0300006E020000A40300006E02000057
:1021C000DB03000054040000DC040000C70500002D
:1021D000DC04000054040000DB0300006E02000079
:1021E0002A020000D20100009F01000071010000DE
:1021F0005D0100009F010000E90000008701000070
:10220000D20100009F0100000F030000A4030000A2
:102210000F03000087010000D201000087010000C9
:1022200037010000E9000000C30000009B0000002F
:10223000740000007B0000008A0000009B0000008A
:10224000CF000000F600000015010000370100007B
:102250009F0100005C0000006700000074000000A7
:102260009B000000B8000000CF000000E900000063
:102270003701000057000000670000008A000000DE
:10228000AE000000CF000000150100005D0100005D
:102290009F01000015010000490100001501000028
:1022A0003701000071010000D20100003701000079
:1022B00049010000710100009F010000ED010000D4
:1022C00093020000ED010000ED010000ED010000AF
:1022D000710100009F010000ED0100002A020000D2
:1022E000D20100002A020000710100009F010000DD
:1022F0006E0200000B020000D20100000B02000081
:102300009F010000D201000037010000050100001C
:1023100037010000E900000005010000CF000000C7
:10232000E90000009B000000520000005C0000007B
:10233000670000007B000000A4000000B80000005F
:10234000CF000000F60000005C0000006700000005
:10235000740000008A000000B8000000CF000000F8
:10236000E900000015010000670000007400000093
:102370007B0000009B000000CF000000E90000008F
:102380009F010000D2010000ED0100006E0200007C
:102390003E0300006E0200006E020000DB0300003E
:1023A00054040000DC040000C7050000DC04000049
:1023B00054040000DB0300006E0200002A0200004B
:1023C0006E020000BA0200003E030000BA020000E4
:1023D0006E0200002A0200009F010000E9000000D8
:1023E000D2010000D20100009F0100000F03000095
:1023F000A40300000F03000087010000D2010000C9
:102400008701000037010000E9000000C300000060
:102410009B000000740000007B0000008A000000A8
:102420009B000000CF000000F60000001501000036
:10243000370100009F0100005C0000006700000001
:10244000740000009B000000B8000000CF000000F6
:10245000E90000003701000057000000670000009D
:102460008A000000AE000000CF000000150100004F
:102470005D01000015010000490100001501000088
:1024800037010000D20100003701000049010000BF
:1024900071010000ED01000093020000ED01000059
:1024A000ED010000ED010000710100009F0100003E
:1024B000ED0100002A020000D20100002A02000003
:1024C000710100009F0100006E0200000B0200007D
:1024D000D20100000B0200009F010000D2010000A9
:1024E000370100009F0100000501000037010000D6
:1024F000E900000005010000CF000000E900000035
:102500009B000000ED010000D2010000ED01000081
:10251000D20100009F0100002A020000ED0100002E
:102520002A020000ED010000D2010000ED010000D0
:102530003E0300002A020000A40300006E02000017
:10254000DB0300002A020000A40300003E03000099
:10255000E30200003E030000E30200006E02000000
:102560002A020000ED0100002A020000E302000040
:102570006E0200009F0100002A0200009F0100007F
:10258000ED01000037010000D2010000370100001A
:102590009F010000710100009F0100007101000017
:1025A00037010000ED010000D2010000ED01000044
:1025B000D2010000710100009F0100002A0200000A
:1025C0006E020000E30200003E0300003E03000034
:1025D000E30200003E030000E30200006E02000080
:1025E000DB030000A40300003E0300000F03000013
:1025F0008A0000009B000000B80000009B00000063
:102600008A000000670000008A0000009B000000B4
:10261000B8000000CF0000001501000037010000E5
:10262000710100003701000015010000CF0000001B
:102630001501000037010000710100009F0100003A
:102640002A0200006E020000E30200006E02000099
:102650002A0200009F010000710100003701000004
:1026600015010000CF000000B80000009B00000032
:102670008A000000670000008A0000009B00000044
:10268000B80000009B0000008A0000006700000006
:102690008A0000009B000000B8000000CF0000008E
:1026A0001501000037010000710100003701000032
:1026B00015010000CF0000001501000037010000E7
:1026C000710100009F0100002A0200006E0200005C
:1026D000E30200006E0200002A0200009F010000D9
:1026E0002A0200006E020000E30200006E020000F9
:1026F0002A0200009F010000710100003701000064
:1027000015010000CF000000B800000067000000C5
:102710008A0000009B000000B8000000CF0000000D
:102720001501000037010000710100009F01000049
:102730002A0200006E020000E30200009F01000078
:102740002A0200006E020000E30200006E02000098
:102750002A020000C3000000DC000000F6000000B8
:10276000DC000000C3000000DC000000A40000004A
:10277000B8000000C3000000DC000000F60000000C
:10278000DC000000C3000000DC000000A40000002A
:10279000B8000000C3000000DC000000F6000000EC
:1027A000DC000000C3000000DC000000A40000000A
:1027B000B8000000C3000000DC000000F6000000CC
:1027C000DC000000C3000000DC000000A4000000EA
:1027D000B8000000CF000000E90000000501000083
:1027E000E9000000CF000000E9000000AE0000009A
:1027F000C3000000CF000000E90000000501000058
:10280000E9000000CF000000E9000000AE00000079
:10281000C3000000CF000000E90000000501000037
:10282000E9000000CF000000E9000000AE00000059
:10283000C3000000CF000000E90000000501000017
:10284000E9000000CF000000E9000000CF00000018
:10285000E900000005010000C3000000DC000000EA
:10286000C3000000AE000000C300000092000000A2
:10287000A4000000AE000000C3000000DC00000067
:10288000C3000000AE000000C30000009200000082
:10289000A4000000AE000000C3000000DC00000047
:1028A000C3000000AE000000C30000009200000062
:1028B000A4000000AE000000C3000000DC00000027
:1028C000C3000000AE000000C3000000AE00000026
:1028D000C3000000DC000000D2010000ED01000098
:1028E0002A020000ED010000000000009B00000033
:1028F0009C0000009C0000009E0000009F00000063
:10290000A0000000A1000000A1000000A200000043
:10291000A3000000A4000000A5000000A600000025
:10292000A6000000A7000000A8000000A900000009
:10293000AA000000AB000000AB000000AC000000EB
:10294000AC000000AC000000AC000000B0000000D3
:10295000B0000000B0000000B2000000B2000000B3
:10296000B2000000B4000000B5000000B500000097
:102970008C0100005202000052020000DF03000040
:10298000DF030000A5040000A504000032060000DB
:10299000320600009506000095060000F8060000CB
:1029A000F8060000BF070000BF0700008508000010
:1029B00085080000120A0000120A0000750A0000D3
:1029C000750A0000D80A0000D80A0000650C000053
:1029D000650C0000C80C0000C80C00002B0D0000A6
:1029E0002B0D00008E0D00008E0D0000F10D00007B
:1029F000F10D0000540E0000540E0000B80E00004F
:102A0000B80E000044100000441000000B1100003C
:102A10000B1100009712000097120000FA1200003C
:102A2000FA1200005E1300005E130000C1130000E4
:102A3000C11300002414000024140000EA14000054
:102A4000EA1400007716000077160000DA1600007E
:102A5000DA1600003D1700003D170000CA180000FC
:102A6000CA1800002D1900002D190000901900004F
:102A700090190000F3190000F3190000561A000025
:102A8000561A00001D1B00001D1B0000A91C0000A1
:102A9000A91C0000701D0000701D0000FC1E00003D
:102AA000FC1E0000601F0000601F0000C31F00002C
:102AB000C31F000089200000892000004F21000072
:102AC0004F210000DC220000DC2200003F23000038
:102AD0003F230000A2230000A22300002F250000B6
:102AE0002F2500009225000092250000F52500000A
:102AF000F52500005826000058260000BC260000DE
:102B0000BC2600001F2700001F27000082270000AE
:102B1000822700000F2900000F2900007229000001
:102B200072290000D5290000D5290000612B000082
:102B3000612B0000C52B0000C52B0000282C0000D5
:102B4000282C00008B2C00008B2C0000EE2C0000A9
:102B5000EE2C0000512D0000512D0000B42D00007E
:102B6000B42D0000182E0000182E0000412F000088
:102B7000412F0000A42F0000A42F00000730000008
:102B8000073000006B3000006B300000CE300000DA
:102B9000CE300000313100003131000094310000AE
:102BA00094310000F7310000F73100005A32000084
:102BB0005A320000BE320000BE3200002133000055
:102BC000213300008433000084330000E733000029
:102BD000E73300004A3400004A340000AD340000FE
:102BE000AD340000113500001135000074350000CF
:102BF00074350000D7350000D73500003A360000A4
:102C00003A3600009D3600009D3600000037000077
:102C1000003700006337000063370000C73700004B
:102C2000C73700002A3800002A3800008D3800001D
:102C30008D380000F0380000F038000053390000F3
:102C400053390000B6390000B63900001A3A0000C6
:102C50001A3A00007D3A00007D3A0000E03A000098
:102C6000E03A0000433B0000433B0000A63B00006D
:102C7000A63B0000093C0000093C00006D3C000040
:102C80006D3C0000D03C0000D03C0000333D000013
:102C9000333D0000963D0000963D0000F93D0000E8
:102CA000F93D00005C3E00005C3E0000C03E0000BC
:102CB000C03E0000233F0000233F0000863F00008D
:102CC000863F0000E93F0000E93F00004C40000063
:102CD0004C400000AF400000AF4000001241000037
:102CE000124100007641000076410000D941000009
:102CF000D94100003C4200003C4200009F420000DD
:102D00009F420000024300000243000065430000B0
:102D100065430000C9430000C94300002C44000083
:102D20002C4400008F4400008F440000F244000057
:102D3000F24400005545000055450000B84500002C
:102D4000B84500001C4600001C4600007F460000FD
:102D50007F460000E2460000E246000045470000D2
:102D600045470000A8470000A84700000B480000A6
:102D70000B4800006F4800006F480000D248000078
:102D8000D24800003549000035490000984900004C
:102D900098490000FB490000FB4900005E4A000022
:102DA0005E4A0000C24A0000C24A0000254B0000F3
:102DB000254B0000884B0000884B0000EB4B0000C7
:102DC000EB4B00004E4C00004E4C0000B14C00009C
:102DD000B14C0000144D0000144D0000784D00006F
:102DE000784D0000DB4D0000DB4D00003E4E000042
:102DF0003E4E0000A14E0000A14E0000044F000016
:102E0000044F0000674F0000674F0000CB4F0000E9
:102E1000CB4F00002E5000002E50000091500000BB
:102E200091500000F4500000F45000005751000091
:102E300057510000BA510000BA5100001E52000064
:102E40001E5200008152000081520000E452000036
:102E5000E45200004753000047530000AA5300000B
:102E6000AA5300000D5400000D54000071540000DE
:102E700071540000D4540000D454000037550000B1
:102E8000375500009A5500009A550000FD55000086
:102E9000FD5500006056000060560000C35600005B
:102EA000C3560000C35600002757000027570000F4
:102EB000275700008A5700008A5700008A570000F1
:102EC000ED570000ED570000ED570000505800008E
:102ED00050580000A35A0000A35A0000695B00008C
:102EE000695B0000305C0000305C0000935C000017
:102EF000935C0000F65C0000F65C0000BC5D000026
:102F0000BC5D0000835E0000835E0000296300005A
:102F100029630000EF630000EF630000B564000068
:102F2000B56400000867000008670000CF67000074
:102F3000CF6700009568000095680000F868000001
:102F4000F86800005B6900005B690000226A00000D
:102F5000226A0000E86A0000E86A00002B6F0000A7
:102F60008E6F000054700000547000001A71000051
:102F70001A7100006D7300006D730000347400005E
:102F800034740000FA740000FA7400005D750000EB
:102F90005D750000C0750000C075000087760000F8
:102FA000877600004D7700004D77000076780000AE
:102FB00076780000DA780000DA780000A079000066
:102FC000A0790000667A0000667A0000F37B0000BA
:102FD000F37B0000B97C0000B97C0000807D00001C
:102FE000807D0000D37F0000D37F00009980000027
:102FF000998000005F8100005F810000C2810000B5
:10300000C28100002582000025820000EC820000C1
:10301000EC820000B2830000B2830000F58700005C
:10302000588800001E8900001E890000E589000004
:10303000E5890000388C0000388C0000FE8C000010
:10304000FE8C0000C48D0000C48D0000278E00009F
:10305000278E00008B8E00008B8E0000518F0000A9
:10306000518F000017900000179000005A94000044
:10307000BD94000084950000849500004A960000ED
:103080004A9600009D9800009D98000063990000FA
:1030900063990000299A0000299A00008D9A000087
:1030A0008D9A0000F09A0000F09A0000B69B000094
:1030B000B69B00007C9C00007C9C0000BFA0000030
:1030C00022A10000E9A10000E9A10000AFA20000D8
:1030D000AFA2000002A5000002A50000C8A50000E4
:1030E000C8A500008FA600008FA60000F2A6000071
:1030F000F2A6000055A7000055A700001BA800007D
:103100001BA80000E2A80000E2A800000BAA000033
:103110000BAA00006EAA00006EAA000034AB0000EB
:1031200034AB0000FBAB0000FBAB000087AD000040
:1031300087AD00004EAE00004EAE000014AF0000A0
:1031400014AF000067B1000067B100002DB20000AD
:103150002DB20000F4B20000F4B2000057B300003A
:1031600057B30000BAB30000BAB3000080B4000047
:1031700080B4000047B5000047B5000089B90000E1
:10318000EDB90000B3BA0000B3BA000079BB00008B
:1031900079BB0000CCBD0000CCBD000093BE000098
:1031A00093BE000059BF000059BF0000BCBF000023
:1031B000BCBF00001FC000001FC00000E5C0000031
:1031C000E5C00000ACC10000ACC10000EFC50000CC
:1031D00052C6000018C7000018C70000DEC7000074
:1031E000DEC7000031CA000031CA0000F8CA000082
:1031F000F8CA0000BECB0000BECB000021CC00000E
:1032000021CC000084CC000084CC00004BCD000019
:103210004BCD000011CE000011CE000054D20000B2
:10322000B7D200007DD300007DD3000044D400005D
:1032300044D4000096D6000096D600005DD700006A
:103240005DD7000023D8000023D8000086D80000F6
:1032500086D80000E9D80000E9D80000B0D9000005
:10326000B0D9000076DA000076DA0000A0DB0000BA
:10327000A0DB000003DC000003DC0000C9DC000070
:10328000C9DC00008FDD00008FDD00001CDF0000C6
:103290001CDF0000E2DF0000E2DF0000A9E0000028
:1032A000A9E00000FCE20000FCE20000C2E3000034
:1032B000C2E3000088E4000088E40000EBE40000C2
:1032C000EBE400004FE500004FE5000015E60000CC
:1032D00015E60000DBE60000DBE600001EEB000068
:1032E00081EB000047EC000047EC00000EED000011
:1032F0000EED000061EF000061EF000027F000001C
:1033000027F00000EDF00000EDF0000051F10000AA
:1033100051F10000B4F10000B4F100007AF20000B5
:103320007AF2000040F3000040F3000083F7000051
:10333000E6F70000ADF80000ADF8000073F90000FA
:1033400073F90000C6FB0000C6FB00008CFC000007
:103350008CFC000053FD000053FD0000B6FD000092
:10336000B6FD000019FE000019FE0000DFFE00009F
:10337000DFFE0000A6FF0000A6FF0000E80301003A
:103380004B0401001205010012050100D8050100DF
:10339000D80501002B0801002B080100F1080100ED
:1033A000F1080100B8090100B80901001B0A010079
:1033B0001B0A01007E0A01007E0A0100440B010085
:1033C000440B01000B0C01000B0C0100340D01003B
:1033D000340D0100970D0100970D01005E0E0100F4
:1033E0005E0E0100240F0100240F0100B110010046
:1033F000B110010077110100771101003D120100A9
:103400003D120100901401009014010057150100B5
:10341000571501001D1601001D1601008016010040
:1034200080160100E3160100E3160100A917010050
:10343000A91701007018010070180100B31C0100E9
:10344000161D0100DC1D0100DC1D0100A21E010093
:10345000A21E0100691F0100691F0100CC1F0100AD
:10346000CC1F01002F2001002F200100F5200100BA
:10347000F5200100BC210100BC21010082220100D5
:1034800082220100E5220100E5220100482301001B
:10349000482301000F2401000F240100D52401005E
:1034A000D52401009B2501009B2501006226010017
:1034B000622601002827010028270100EE270100CD
:1034C000EE270100B5280100B52801007B29010085
:1034D0007B290100412A0100412A0100082B01003B
:1034E000082B0100CE2B0100CE2B0100312C010056
:1034F000312C0100942C0100942C01005A2D010064
:103500005A2D0100212E0100212E0100E72E01007D
:10351000E72E0100AD2F0100AD2F0100AD2F0100FE
:1035200011300100113001007430010074300100CD
:1035300074300100D7300100D73001003A3101006A
:103540003A3101009D3101009D310100003201003E
:10355000003201006432010064320100C732010010
:10356000C73201002A3301002A3301008D330100E4
:103570008D330100F0330100F033010053340100BA
:1035800053340100B7340100B73401001A3501008B
:103590001A3501007D3501007D350100E03501005F
:1035A000E0350100A6360100A63601006D370100A6
:1035B0006D370100D0370100D037010033380100EA
:1035C000333801009638010096380100F9380100BF
:1035D000F9380100C0390100C0390100233A010067
:1035E000233A0100863A0100863A0100E93A0100D7
:1035F000E93A01004C3B01004C3B0100AF3B0100AC
:10360000AF3B0100133C0100133C0100763C01007C
:10361000763C0100D93C0100D93C01003C3D010051
:103620003C3D01009F3D01009F3D0100023E010025
:10363000023E0100663E0100663E0100C93E0100F7
:10364000C93E01002C3F01002C3F01008F3F0100CB
:103650008F3F0100F23F0100F23F010055400100A1
:1036600055400100B9400100B94001004542010048
:1036700045420100A8420100A84201000B4301009D
:103680000B4301006F4301006F430100D24301006F
:10369000D243010035440100354401009844010043
:1036A00098440100FB440100FB4401005E45010019
:1036B0005E450100C2450100C245010025460100EA
:1036C000254601008846010088460100B9460100F0
:1036D000B9460100EB460100EB4601004E470100F0
:1036E0004E470100B1470100B147010015480100F4
:1036F000154801007848010078480100DB480100C6
:10370000DB4801003E4901003E490100A14901009A
:10371000A1490100044A0100044A0100CB4A01000A
:10372000CB4A0100914B0100914B0100574C010025
:10373000574C01001E4D01001E4D0100E44D0100DB
:10374000E44D0100AA4E0100AA4E0100714F010094
:10375000714F01003750010037500100FD5001004A
:10376000FD500100C4510100C45101008A52010002
:103770008A520100505301005053010017540100B8
:1037800017540100DD540100DD540100A355010070
:10379000A355010069560100695601003057010028
:1037A00030570100F6570100F6570100BC580100E0
:1037B000BC5801008359010083590100495A010096
:1037C000495A01000F5B01000F5B0100D65B01004D
:1037D000D65B01009C5C01009C5C0100625D010005
:1037E000625D0100295E0100295E0100EF5E0100BB
:1037F000EF5E0100B55F0100B55F01007C60010074
:103800007C60010042610100426101000862010028
:1038100008620100CF620100CF62010095630100E0
:10382000956301005B6401005B6401002265010097
:1038300022650100E8650100E8650100AE6601004F
:10384000AE66010075670100756701003B68010005
:103850003B6801000169010001690100C8690100BC
:10386000C86901008E6A01008E6A0100546B010074
:10387000546B01001A6C01001A6C0100E16C01002C
:10388000E16C0100A76D0100A76D01006D6E0100E4
:103890006D6E0100346F010066750100F376010062
:1038A000F3760100807801008078010046790100FC
:1038B000467901000C7A01000C7A0100D37A0100EC
:1038C000D37A0100997B0100997B0100EC7D010016
:1038D000EC7D0100B27E0100B27E0100CB810100CF
:1038E000CB81010058830100588301001E84010030
:1038F0001E840100AB850100AB85010071860100CB
:10390000718601003887010038870100C4880100F2
:10391000C48801008B8901008B890100518A010054
:10392000518A0100178B0100178B0100DE8B01000B
:10393000DE8B0100A48C0100A48C0100318E0100FB
:10394000318E0100BD8F0100BD8F01004A91010041
:103950004A9101001092010010920100D7920100DB
:10396000D79201009D9301009D9301006394010093
:1039700063940100B6960100B69601007C970100A1
:103980007C9701000999010009990100CF99010074
:10399000CF990100969A0100969A01005C9B010064
:1039A0005C9B0100BF9B0100BF9B0100229C0100AA
:1039B000229C0100869C0100869C0100E99C01007C
:1039C000E99C01004C9D01004C9D0100AF9D010050
:1039D000AF9D0100129E0100129E0100759E010024
:1039E000759E0100D99E0100D99E01003C9F0100F7
:1039F0003C9F01009F9F01009F9F010002A00100CA
:103A000002A0010065A0010065A00100C8A001009E
:103A1000C8A00100FBA60100FBA6010088A80100C8
:103A200088A8010014AA010014AA0100DBAA010061
:103A3000DBAA0100A1AB0100A1AB010067AC010052
:103A400067AC01002DAD01002DAD010080AF01007C
:103A500080AF010047B0010047B0010060B3010032
:103A600060B30100EDB40100EDB40100B3B5010095
:103A7000B3B5010040B7010040B7010006B801002E
:103A800006B80100CCB80100CCB8010059BA010059
:103A900059BA01001FBB01001FBB0100E6BB0100BA
:103AA000E6BB0100ACBC0100ACBC010072BD010072
:103AB00072BD010039BE010039BE0100C5BF010061
:103AC000C5BF010052C1010052C10100DEC20100A8
:103AD000DEC20100A5C30100A5C301006BC4010043
:103AE0006BC4010031C5010031C50100F8C50100FA
:103AF000F8C501004BC801004BC8010011C9010005
:103B000011C901009ECA01009ECA010064CB0100D8
:103B100064CB01002ACC01002ACC0100F1CC0100C9
:103B2000F1CC010054CD010054CD0100B7CD01000E
:103B3000B7CD01001ACE01001ACE01007DCE0100E2
:103B40007DCE0100E0CE0100E0CE010044CF0100B7
:103B500044CF0100A7CF0100A7CF01000AD0010088
:103B60000AD001006DD001006DD00100D0D001005D
:103B7000D0D0010033D1010033D1010097D1010031
:103B800097D10100FAD10100FAD101005DD2010004
:103B90005DD201008FD801008FD801001CDA01002E
:103BA0001CDA0100A9DB0100A9DB01006FDC0100C8
:103BB0006FDC010035DD010035DD0100FCDD0100B9
:103BC000FCDD0100C2DE0100C2DE010015E10100E2
:103BD00015E10100DBE10100DBE10100F5E401009A
:103BE000F5E4010081E6010081E6010048E70100FB
:103BF00048E70100D4E80100D4E801009BE9010096
:103C00009BE9010061EA010061EA0100EEEB0100BD
:103C1000EEEB0100B4EC0100B4EC01007AED010020
:103C20007AED010040EE010040EE010007EF0100D7
:103C300007EF0100CDEF0100CDEF01005AF10100C7
:103C40005AF10100E6F20100E6F2010073F401000E
:103C500073F4010039F5010039F5010000F60100A7
:103C600000F60100C6F60100C6F601008CF701005F
:103C70008CF70100DFF90100DFF90100A6FA01006D
:103C8000A6FA010032FC010032FC0100F9FC01003F
:103C9000F9FC0100BFFD0100BFFD010085FE010030
:103CA00085FE0100E8FE0100E8FE01004CFF010076
:103CB0004CFF0100AFFF0100AFFF01001200020046
:103CC000120002007500020075000200D800020018
:103CD000D80002003B0102003B0102009E010200ED
:103CE0009E010200020202000202020065020200BE
:103CF00065020200C8020200C80202002B03020093
:103D00002B0302008E0302008E030200F103020067
:103D1000F1030200240A0200240A0200B10B02008F
:103D2000B10B02003D0D02003D0D0200040E020029
:103D3000040E0200CA0E0200CA0E0200900F02001A
:103D4000900F02005710020057100200AA12020042
:103D5000AA120200701302007013020089160200FA
:103D6000891602001618020016180200DC1802005C
:103D7000DC180200691A0200691A02002F1B0200F7
:103D80002F1B0200F51B0200F51B0200821D020022
:103D9000821D0200481E0200481E02000F1F020082
:103DA0000F1F0200D51F0200D51F02009B2002003A
:103DB0009B2002006221020062210200EE2202002A
:103DC000EE2202007B2402007B240200082602006F
:103DD00008260200CE260200CE260200942702000A
:103DE000942702005B2802005B28020021290200C0
:103DF00021290200742B0200742B02003A2C0200CD
:103E00003A2C0200C72D0200C72D02008D2E0200A1
:103E10008D2E0200532F0200532F0200B93B0200E7
:103E2000B93B02001C3C02001C3C02007F3C02002B
:103E30007F3C0200E23C0200E23C0200453D020001
:103E4000453D0200A83D0200A83D02000C3E0200D4
:103E50000C3E02006F3E02006F3E0200D23E0200A6
:103E6000D23E0200353F0200353F0200983F02007B
:103E7000983F0200FB3F0200FB3F02005F40020050
:103E80005F400200C2400200C24002002541020021
:103E9000254102008841020088410200EB410200F6
:103EA000EB4102001D4202001D4202004E42020090
:103EB0004E4202008042020080420200B1420200F3
:103EC000B1420200E3420200E34202001543020055
:103ED00015430200464302004643020078430200B5
:103EE00078430200DB430200DB4302003E44020051
:103EF0003E440200A1440200A14402000445020025
:103F0000044502006845020068450200CB450200F6
:103F1000CB4502002E4602002E46020091460200CA
:103F200091460200F4460200F4460200E448020012
:103F3000E44802004749020047490200AA4902003A
:103F4000AA4902000E4A02000E4A0200714A02000B
:103F5000714A0200D44A0200D44A0200374B0200E0
:103F6000374B02009A4B02009A4B02009A4B020018
:103F7000FD4B0200FD4B0200FD4B02008A4D02008A
:103F80008A4D0200BC4D0200BC4D0200ED4D020006
:103F9000ED4D02001F4E02001F4E0200E54E0200D2
:103FA000E54E02007A4F02007A4F0200DD4F020018
:103FB000DD4F0200725002007250020006510200F2
:103FC0000651020038510200385102006A510200C5
:103FD0006A5102009B5102009B510200CD51020028
:103FE000CD510200FE510200FE510200305202008B
:103FF00030520200615202006152020093520200EC
:1040000093520200F6520200F65202005953020087
:1040100059530200BD530200BD5302002054020058
:10402000205402008354020083540200B45402005E
:10403000B4540200E6540200E6540200185502008F
:10404000185502004955020049550200AC550200BE
:10405000AC550200105602001056020073560200C2
:1040600073560200D6560200D65602003957020097
:10407000395702009C5702009C570200FF5702006C
:10408000FF570200625802006258020029590200DC
:1040900029590200295902008C5902008C5902004A
:1040A0008C590200EF590200EF590200525A0200E7
:1040B000525A0200B55A0200B55A0200195B0200BA
:1040C000195B02007C5B02007C5B0200DF5B02008C
:1040D000DF5B0200425C0200425C0200A55C020061
:1040E000A55C0200085D0200085D02006C5D020034
:1040F0006C5D0200CF5D0200CF5D0200325E020007
:10410000325E0200955E0200955E0200F85E0200DB
:10411000F85E02005B5F02005B5F0200BF5F0200AF
:10412000BF5F020085600200856002007D610200C1
:104130007D6102001162020011620200A6620200AB
:10414000A66202003B6302003B630200D0630200F0
:10415000D06302006464020064640200966402009A
:1041600096640200C8640200C8640200F964020098
:10417000F96402002B6502002B6502005C650200F9
:104180005C6502008E6502008E650200C06502005B
:10419000C0650200F1650200F165020023660200BD
:1041A000236602005466020054660200866602001E
:1041B00086660200B7660200B76602007E670200EC
:1041C0007E670200E1670200E167020044680200C6
:1041D00044680200A7680200A76802000A6902009A
:1041E0000A6902006E6902006E690200D16902006C
:1041F000D1690200346A0200346A0200976A020040
:10420000976A0200FA6A0200FA6A02005D6B020015
:104210005D6B0200C16B0200C16B0200246C0200E6
:10422000246C0200876C0200876C0200EA6C0200BA
:10423000EA6C02004D6D02004D6D0200B06D02008F
:10424000B06D0200136E0200136E0200776E020062
:10425000776E0200DA6E0200DA6E0200A06F0200D2
:10426000A06F02000370020003700200667002007B
:1042700066700200CA700200CA7002002D7102004E
:104280002D7102005672020056720200B9720200CD
:10429000B97202001D7302001D73020080730200D8
:1042A00080730200E3730200E373020046740200AD
:1042B00046740200A9740200A97402000C75020081
:1042C0000C7502007075020070750200D375020053
:1042D000D375020036760200367602009976020027
:1042E00099760200FC760200FC7602005F770200FD
:1042F0005F770200C2770200C277020026780200D0
:10430000267802008978020089780200EC780200A1
:10431000EC7802004F7902004F790200B279020076
:10432000B2790200797A0200797A0200DC7A02001E
:10433000DC7A02003F7B02003F7B0200A27B02008E
:10434000A27B0200057C0200057C0200687C020062
:10435000687C0200CC7C0200CC7C02002F7D020035
:104360002F7D0200927D0200927D0200F57D020009
:10437000F57D0200587E0200587E0200BB7E0200DE
:10438000BB7E02001F7F02001F7F0200827F0200AF
:10439000827F0200E57F0200E57F02004880020084
:1043A00048800200AB800200AB8002000E81020058
:1043B0000E8102007281020072810200D58102002A
:1043C000D581020038820200388202009B820200FE
:1043D0009B820200CD820200CD820200FE8202009A
:1043E000FE820200308302003083020061830200FB
:1043F000618302009383020093830200C48302005E
:10440000C483020028840200288402008B840200F6
:104410008B840200EE840200EE84020051850200CB
:1044200051850200B4850200B4850200178602009F
:1044300017860200A4870200A487020007880200F2
:10444000078802006A8802006A880200CE8802009B
:10445000CE8802003189020031890200948902006D
:1044600094890200F7890200F78902005A8A020043
:104470005A8A0200BD8A0200BD8A0200218B020016
:10448000218B0200848B0200848B0200E78B0200E8
:10449000E78B02004A8C02004A8C0200AD8C0200BD
:1044A000AD8C0200108D0200108D0200738D020091
:1044B000738D0200D78D0200D78D02003A8E020064
:1044C0003A8E02009D8E02009D8E0200008F020037
:1044D000008F0200638F0200638F0200C68F02000C
:1044E000C68F02002A9002002A9002008D900200DE
:1044F0008D900200F0900200F090020053910200B3
:1045000053910200B6910200B69102001992020086
:10451000199202007D9202007D920200E092020058
:10452000E09202004393020043930200A69302002C
:10453000A693020009940200099402006C94020000
:104540006C940200D0940200D094020033950200D3
:10455000339502009695020096950200F9950200A7
:10456000F99502005C9602005C960200BF9602007C
:10457000BF9602002297020022970200869702004F
:1045800086970200E9970200E99702004C98020022
:104590004C980200AF980200AF98020012990200F6
:1045A000129902007599020075990200D9990200CA
:1045B000D99902003C9A02003C9A02009F9A02009C
:1045C0009F9A0200029B0200029B0200659B020070
:1045D000659B0200C89B0200C89B02002C9C020045
:1045E0002C9C02008F9C02008F9C0200F29C020017
:1045F000F29C0200559D0200559D0200B89D0200EC
:10460000B89D02001B9E02001B9E02007F9E0200BE
:104610007F9E0200E29E0200E29E0200A89F02002E
:10462000A89F020035A1020035A10200FBA10200F3
:10463000FBA1020088A3020088A30200EBA30200F2
:10464000EBA302004EA402004EA4020014A5020037
:1046500014A50200DBA50200DBA5020067A702008B
:1046600067A70200CAA70200CAA702002EA802007C
:104670002EA80200BAA90200BAA902001DAA0200CF
:104680001DAA020081AA020081AA0200E4AA020077
:10469000E4AA020047AB020047AB0200AAAB02004B
:1046A000AAAB02000DAC02000DAC02009AAD0200F4
:1046B0009AAD020060AE020060AE0200EDAF0200F3
:1046C000EDAF020050B0020050B00200B3B00200E3
:1046D000B3B0020016B1020016B1020079B10200B7
:1046E00079B1020040B2020040B20200CCB3020035
:1046F000CCB3020030B4020030B4020093B4020024
:1047000093B402001FB602001FB6020083B6020077
:1047100083B60200E6B60200E6B6020049B7020020
:1047200049B70200ACB70200000000000000000022
:104730000000000000000000000000000000000079
:104740000000000000000000000000000000000069
:104750000000000000000000000000000000000059
:10476000000000000000000000000000D201000076
:10477000D2010000D2010000D2010000D2010000ED
:10478000D2010000D2010000ED010000ED010000A7
:10479000ED010000ED010000ED010000ED01000061
:1047A000ED010000ED010000ED0100002A02000013
:1047B0002A0200002A0200002A0200002A02000049
:1047C0002A0200002A0200002A0200002A02000039
:1047D000ED010000ED010000ED010000ED01000021
:1047E000ED010000ED010000ED010000ED01000011
:1047F000ED010000D2010000D2010000D201000052
:10480000D2010000D2010000D2010000D20100005C
:10481000ED010000ED010000ED010000ED010000E0
:10482000ED010000ED010000ED010000ED010000D0
:10483000ED0100002A0200002A0200002A02000006
:104840002A0200002A0200002A0200002A020000B8
:104850002A0200002A0200002A0200002A020000A8
:104860002A0200002A0200002A0200002A02000098
:104870002A0200006E0200006E0200006E020000BC
:104880006E0200006E0200006E0200006E02000068
:104890006E0200009B000000CF000000E900000055
:1048A00015010000E9000000CF0000009B0000009F
:1048B000CF000000E900000015010000E900000041
:1048C000CF0000009B000000CF000000E9000000C6
:1048D00015010000370100009F010000D201000017
:1048E0002A020000D20100009F01000037010000F1
:1048F0009F010000D20100002A020000D201000046
:104900009F0100009B000000CF000000E9000000B4
:1049100015010000E9000000CF0000009B0000002E
:10492000CF000000E900000015010000E9000000D0
:10493000CF0000009B000000CF000000E900000055
:1049400015010000370100009F010000D2010000A6
:104950002A0200009B000000CF000000E9000000D8
:1049600015010000E9000000CF0000009B000000DE
:10497000CF000000E900000015010000E900000080
:10498000CF0000009B000000CF000000E900000005
:1049900015010000370100009F010000D201000056
:1049A0002A020000D20100009F0100003701000030
:1049B0009F010000D20100002A020000D201000085
:1049C0009F0100009B000000CF000000E9000000F4
:1049D00015010000E9000000CF0000009B0000006E
:1049E000CF000000E90000001501000037010000C1
:1049F0009F010000D20100002A0200006E020000A8
:104A00003E030000A403370100000000540400002E
:104A1000DC047101000000007D0600009F01000021
:104A2000ED010000D2010000ED010000D201000004
:104A30009F0100007101000037010000ED0100003E
:104A40002A0200006E020000E3020000BA02000029
:104A5000E3020000BA0200006E0200002A02000019
:104A60006E0200006E020000E30200003E03000040
:104A7000E30200006E020000E30200006E0200008C
:104A80002A020000ED0100002A0200006E02000070
:104A9000ED010000D20100009F010000370100007D
:104AA000710100009F010000ED010000D201000033
:104AB000ED010000D20100009F0100007101000023
:104AC0009F01000037010000710100009F010000FC
:104AD000ED010000D2010000ED010000D201000054
:104AE0009F0100007101000037010000ED0100008E
:104AF0002A0200006E020000E3020000BA02000079
:104B0000E3020000BA0200006E0200002A02000068
:104B10006E0200006E020000E30200003E0300008F
:104B2000E30200006E020000E30200006E020000DB
:104B30002A020000ED0100002A0200006E020000BF
:104B4000ED010000D20100009F01000037010000CC
:104B5000710100009F010000ED010000D201000082
:104B6000ED010000D20100009F0100007101000072
:104B70009F01000037010000710100009F0100004B
:104B8000ED010000D2010000ED010000D2010000A3
:104B90009F0100007101000037010000ED010000DD
:104BA0002A0200006E020000E3020000BA020000C8
:104BB000E3020000BA0200006E0200002A020000B8
:104BC0006E0200006E020000E30200003E030000DF
:104BD000E30200006E020000E30200006E0200002B
:104BE0002A020000ED0100002A0200006E0200000F
:104BF000ED010000D20100009F010000370100001C
:104C0000710100009F010000ED010000D2010000D1
:104C1000ED010000D20100009F01000071010000C1
:104C20009F01000037010000710100009F0100009A
:104C3000ED010000D2010000ED010000D2010000F2
:104C40009F0100007101000037010000ED0100002C
:104C50002A0200006E020000E3020000BA02000017
:104C6000E3020000BA0200006E0200002A02000007
:104C70006E0200006E020000E30200003E0300002E
:104C8000E30200006E020000E30200006E0200007A
:104C90002A020000ED0100002A0200006E0200005E
:104CA000ED010000D20100009F010000370100006B
:104CB000710100009F010000ED010000D201000021
:104CC000ED010000D20100009F0100007101000011
:104CD0009F010000CF000000E9000000ED0100008E
:104CE000D2010000ED010000D20100009F01000090
:104CF0002A020000ED0100002A020000ED01000080
:104D0000D2010000ED0100003E0300002A02000075
:104D1000A40300006E020000DB0300002A02000072
:104D2000A40300003E030000E30200003E03000075
:104D3000E30200006E0200002A020000ED01000004
:104D40002A02ED010000D20100000000E302000091
:104D50009F0100006E020000150100009F0100008D
:104D6000370100002A020000710100009F010000CD
:104D7000ED010000ED010000150100003701000009
:104D800071010000D2010000370100009F01000006
:104D900015010000710100009F0100007101000079
:104DA000370100009F010000ED0100001501000027
:104DB000D2010000ED010000ED010000D201000071
:104DC0009F010000710100009F010000F60000003B
:104DD0002A020000D20100006E0200009F010000C4
:104DE000E30200006E0200003E0300006E020000BD
:104DF000E30200003E0300003E03000093020000B7
:104E00003E030000DB0300003E0300003E03000001
:104E1000DB03000093020000DB030000DB03000063
:104E2000A4030000540400001F060000A4030000B7
:104E3000540400001F060000A40300001F06000029
:104E40003E03000054040000DC040000C70500001D
:104E5000DC040000540400003E0300005404000081
:104E6000DC040000C7050000DC040000540400005E
:104E70003E03000054040000DC040000C7050000ED
:104E8000DC040000540400003E0300005404000051
:104E9000DC040000C7050000DC040000540400002E
:104EA0003E03000054040000DC040000C7050000BD
:104EB000DC040000540400003E0300005404000021
:104EC000DC040000C7050000DC04000054040000FE
:104ED0003E03000054040000DC040000C70500008D
:104EE000DC040000540400003E03000054040000F1
:104EF000DC040000C7050000DC04000054040000CE
:104F0000ED01000093020000E302000093020000A4
:104F1000ED01000093020000E30200000F03000017
:104F20000F03000093020000DB0300007003000089
:104F30000F030000E30200000F030000E302000083
:104F4000930200004B020000ED0100004B02000044
:104F5000B8010000ED01000093020000E302000030
:104F600093020000ED01000093020000E302000044
:104F70000F0300000F0300000F0300007003000088
:104F8000DB030000540400009604000054040000F9
:104F90007003000093020000E3020000ED01000036
:104FA000E302000093020000B80100009302000039
:104FB0004B020000B80100004B020000ED010000B0
:104FC000ED01000093020000E302000093020000E4
:104FD000ED01000093020000E30200000F03000057
:104FE0000F03000093020000DB03000070030000C9
:104FF0000F030000E30200000F030000E3020000C3
:10500000930200004B020000ED0100004B02000083
:10501000B8010000ED01000093020000E30200006F
:1050200093020000ED01000093020000E302000083
:105030000F0300000F0300000F03000070030000C7
:10504000DB03000054040000960400005404000038
:105050007003000093020000E3020000ED01000075
:10506000E302000093020000B80100009302000078
:105070004B020000B80100004B020000ED010000EF
:105080000B020000BA0200000F030000BA02000089
:105090000B020000BA0200000F0300003E030000F4
:1050A0003E030000BA02000016040000A403000042
:1050B0003E0300000F0300003E0300000F0300004A
:1050C000BA0200006E0200000B0200006E02000037
:1050D000D20100000B020000BA0200000F03000022
:1050E000BA0200000B020000BA0200000F03000029
:1050F0003E0300003E0300003E030000A403000046
:105100001604000096040000DC0400009604000071
:10511000A4030000BA0200000F0300000B0200000D
:105120000F030000BA020000D2010000BA02000022
:105130006E020000D20100006E0200000B020000AF
:105140000B020000BA0200000F030000BA020000C8
:105150000B020000BA0200000F0300003E03000033
:105160003E030000BA02000016040000A403000081
:105170003E0300000F0300003E0300000F03000089
:10518000BA0200006E0200000B0200006E02000076
:10519000D20100000B020000BA0200000F03000061
:1051A000BA0200000B020000BA0200000F03000068
:1051B0003E0300003E0300003E030000A403000085
:1051C00016040000B80100004B020000930200002A
:1051D000BA0200000B020000700300000F03000081
:1051E00093020000BA020000B80100009302000020
:1051F000870100004B0200005D0100000B0200006F
:1052000049010000B8010000BA020000930200004A
:105210004B020000B8010000870100005D010000A2
:105220004901000025010000B80100005D010000F7
:1052300049010000050100005D0100004901000076
:1052400005010000E9000000BA020000BA020000F7
:10525000B80100004B020000B801000093020000FA
:10526000BA020000700300002605BA020000000028
:10527000740500007003000096040000260500007D
:10528000740500007003000074050000260500008E
:105290000F030000BA020000930200000B0200009E
:1052A0004B020000B8010000870100005D01000012
:1052B0004901000025010000B80100005D01000067
:1052C00049010000250100005D01000049010000C6
:1052D0002501000005010000DC00000005010000C0
:1052E00025010000DC000000490100005D01000014
:1052F000DC000000870100005D0100007003B801C0
:1053000000000000740500002605000016040000DF
:10531000BA020000B801000087010000BA020000D4
:10532000B80100008701000070030000B801000010
:105330000F03000087010000BA0200005D010000B9
:105340009302000049010000960400007003000071
:10535000BA020000160400000F03000093020000D0
:1053600074050000260500009604000016040000E5
:1053700070030000160400000F030000700300001B
:10538000BA0200000F03000093020000BA020000FE
:10539000960400007003000074050000260500005C
:1053A0000F0300002605000096040000BA0200006A
:1053B0009604000016040000930200004B02000057
:1053C000700300000F030000BA0200009302000007
:1053D0004B020000B801000087010000B801000086
:1053E0004B0200004B020000B801000087010000E2
:1053F00093020000BA0200000F030000BA0200008E
:10540000930200004B0200000B020000B8010000F4
:105410000B02000087010000B8010000BA02000082
:10542000B80100000F030000B8010000BA0200003C
:10543000B801000093020000B8010000BA020000A9
:10544000B80100000F030000700300001604000004
:10545000960400007003000026050000740500009B
:1054600070030000160400007003000096040000A2
:1054700070030000260500007003000074050000A2
:10548000700300001F060000700300007405000098
:105490007003000026050000700300007405000082
:1054A0002605000096040000700300000F030000B2
:1054B0007003000016040000700300000F030000DA
:1054C00070030000BA0200000F0300007003000028
:1054D0000F030000BA0200004B0200000B020000A4
:1054E0004B020000B8010000700300000F03000031
:1054F000BA0200000F0300004B020000BA020000D5
:105500004B02000093020000B801000016040000E6
:1055100070030000960400007003000026050000E0
:1055200070030000740500001F06000074050000F1
:105530002605000016040000960400007003000019
:10554000BA020000960400009604000096040000D1
:10555000BA020000BA02000096040000BA0200007D
:105560000F0300000F0300002605000026050000C1
:105570000F0300000F030000260500000F030000CA
:10558000BA020000BA0200007405000074050000B1
:105590000F0300000F0300001F0600001F0600009D
:1055A00070030000E0060000E0060000E0060000D6
:1055B000E0060000E0060000E006000048070000EA
:1055C000D2010000D2010000D2010000D20100008F
:1055D000D2010000D2010000D2010000ED01000064
:1055E000ED010000ED010000ED010000ED01000003
:1055F000ED010000ED010000ED010000ED010000F3
:105600002A0200002A0200002A0200002A020000EA
:105610002A0200002A0200002A0200002A020000DA
:105620002A020000ED010000ED010000ED01000084
:10563000ED010000ED010000ED010000ED010000B2
:10564000ED010000ED010000000000002400270033
:105650002A0000000000250028002B0002010000A5
:1056600000000023002600290004040404040404AC
:105670000402020202020203030303030301020401
:1056800008102040800102040810200102040810C4
:1056900020000000080002010000030407000000D1
:1056A000000000000000BE3311241FBECFEFD8E081
:1056B000DEBFCDBF11E0A0E0B1E0E8E6F8E602C051
:1056C00005900D92A633B107D9F722E0A6E3B1E029
:1056D00001C01D92A631B207E1F71BE2C4E5DBE28F
:1056E00004C02197FE010E942C34C335D107C9F7AD
:1056F0000E943F2F0C9432340C940000AF92BF9262
:10570000CF92DF92EF92FF920F931F93CF93DF938D
:105710006C017B018B01040F151FEB015E01AE18BC
:10572000BF08C017D10759F06991D601ED91FC91DE
:105730000190F081E02DC6010995892B79F7C5010B
:10574000DF91CF911F910F91FF90EF90DF90CF905D
:10575000BF90AF900895FC01538D448D252F30E00C
:10576000842F90E0821B930B541710F0CF9608956E
:1057700001970895FC01918D828D981761F0A28D9B
:10578000AE0FBF2FB11D5D968C91928D9F5F9F7361
:10579000928F90E008958FEF9FEF0895FC01918D17
:1057A000828D981731F0828DE80FF11D858D90E084
:1057B00008958FEF9FEF0895FC01918D228D892F21
:1057C00090E0805C9F4F821B91098F739927089509
:1057D00089E791E00E94DC2B21E0892B09F420E08D
:1057E000822F089580E090E0892B29F00E94E82B19
:1057F00081110C9400000895FC01A48DA80FB92F0D
:10580000B11DA35ABF4F2C91848D90E001968F73E8
:105810009927848FA689B7892C93A089B1898C9107
:10582000837080648C93938D848D981306C0028856
:10583000F389E02D80818F7D80830895EF92FF9220
:105840000F931F93CF93DF93EC0181E0888F9B8DA3
:105850008C8D98131AC0E889F989808185FF15C05D
:105860009FB7F894EE89FF896083E889F989808180
:105870008370806480839FBF81E090E0DF91CF914F
:105880001F910F91FF90EF900895F62E0B8D10E071
:105890000F5F1F4F0F731127E02E8C8D8E110CC0E0
:1058A0000FB607FCFACFE889F989808185FFF5CF2B
:1058B000CE010E94FC2BF1CFEB8DEC0FFD2FF11DE3
:1058C000E35AFF4FF0829FB7F8940B8FEA89FB8968
:1058D00080818062CFCFCF93DF93EC01888D8823C6
:1058E000B9F0AA89BB89E889F9898C9185FD03C043
:1058F000808186FD0DC00FB607FCF7CF8C9185FF28
:10590000F2CF808185FFEDCFCE010E94FC2BE9CF45
:10591000DF91CF910895833081F028F4813099F0A0
:105920008230A9F008958730A9F08830C9F084301A
:10593000B1F4809180008F7D03C0809180008F77CB
:1059400080938000089584B58F7784BD089584B5D1
:105950008F7DFBCF8091B0008F778093B00008954A
:105960008091B0008F7DF9CFCF93DF93E1E9F6E529
:105970008491EDE7F6E5D491E9E6F6E5C491CC2310
:10598000A1F081110E948B2CEC2FF0E0EE0FFF1F95
:10599000E15AF94AA591B491EC91ED2381E090E0B0
:1059A00009F480E0DF91CF91089580E090E0FACF94
:1059B0001F93CF93DF93282F30E0F901EF56F94A78
:1059C0008491F901E358F94AD491F901E759F94A68
:1059D000C491CC23A9F0162F81110E948B2CEC2F9F
:1059E000F0E0EE0FFF1FEE5AF94AA591B4918FB780
:1059F000F894EC91111108C0D095DE23DC938FBF91
:105A0000DF91CF911F910895DE2BF8CFCF93DF93D5
:105A100090E0FC01E358F94A24918759994AFC0126
:105A200084918823D1F090E0880F991FFC01E85BF6
:105A3000F94AA591B491FC01EE5AF94AC591D49165
:105A4000623071F49FB7F8943C91822F8095832344
:105A50008C93E8812E2B28839FBFDF91CF910895EF
:105A60008FB7F894EC912E2B2C938FBFF6CF3FB7C6
:105A7000F8948091370190913801A0913901B0914B
:105A80003A0126B5A89B05C02F3F19F00196A11D2C
:105A9000B11D3FBFBA2FA92F982F8827BC01CD0178
:105AA000620F711D811D911D42E0660F771F881FD7
:105AB000991F4A95D1F708950C94372DFC019181D7
:105AC000913069F0923089F0911105C090916E008B
:105AD0009D7F90936E0060E080810C94D82C909113
