:100000000C948B330C94B3330C94B3330C94B33300
:100010000C94B3330C94B3330C94B3330C94713607
:100020000C94B3330C94B3330C94B3330C94C036A8
:100030000C94B3330C94B3330C941B370C94B3333C
:100040000C9427360C94B3330C94F5350C94CF35BF
:100050000C94B3330C94B3330C94B3330C94B33388
:100060000C94B3330C94B333500600004F090000D6
:1000700078090000770C0000A00C00009F0F000022
:10008000C80F0000C7120000F0120000EF150000BA
:100090001816000017190000401900003F1C00004E
:1000A000681C0000FC1D0000FC1D0000FE1D00007F
:1000B0005C1E0000611E0000C11E0000C61E000084
:1000C000261F00002B1F00008B1F0000901F000048
:1000D000911F0000921F0000F01F0000F51F00009C
:1000E000552000005A200000BA200000C020000067
:1000F0001F21000025210000842100008A2100002A
:10010000E9210000EF2100004E22000054220000EF
:10011000B3220000B9220000B9220000BA22000078
:10012000182300001E2300007D230000832300000D
:10013000E2230000E8230000472400004D240000D3
:10014000AC240000B2240000112500001725000097
:10015000762500007C250000DB250000E12500005D
:10016000E2250000E22500004026000046260000AF
:10017000A5260000AB2600000A270000102700007B
:100180006F27000075270000D4270000DA27000041
:10019000392800003F2800009E280000A428000005
:1001A00003290000092900000A2900000A2900008B
:1001B000682900006E290000CD290000D329000025
:1001C000322A0000382A0000972A00009D2A0000E9
:1001D000FC2A0000022B0000612B0000672B0000AE
:1001E000C62B0000CC2B00002B2C0000312C000073
:1001F000322C0000332C0000902C0000962C0000C4
:10020000F52C0000FB2C00005A2D0000602D000092
:10021000BF2D0000C52D0000242E00002A2E000056
:10022000892E00008F2E0000EE2E0000F42E00001C
:10023000532F0000592F00005A2F00005B2F0000A1
:10024000B82F0000BE2F00001D300000233000003A
:100250008230000088300000E7300000ED30000000
:100260004C31000052310000B1310000B7310000C4
:10027000163200001C3200007B3200008132000088
:100280008232000083320000E0320000E6320000DB
:10029000453300004B330000AA330000B0330000A8
:1002A0000F34000015340000743400007A3400006C
:1002B000D9340000DF3400003E3500004435000032
:1002C000A3350000A9350000AA350000AB350000B9
:1002D000083600000E3600006D3600007336000050
:1002E000D2360000D8360000373700003D37000016
:1002F0009C370000A23700000138000007380000DA
:10030000663800006C380000CB380000D13800009F
:10031000D2380000D33800003039000036390000F0
:10032000953900009B390000FA390000003A0000BE
:100330005F3A0000653A0000C43A0000CA3A000083
:10034000293B00002F3B00008E3B0000943B000047
:10035000F33B0000F93B0000FA3B0000FB3B0000D0
:10036000583C00005E3C0000BD3C0000C33C000067
:10037000223D0000283D0000873D00008D3D00002B
:10038000ED3D0000F23D0000523E0000573E0000EF
:10039000B73E0000BC3E00001C3F0000213F0000B3
:1003A000223F0000233F0000813F0000863F000005
:1003B000E63F0000EB3F00004B40000050400000D3
:1003C000B0400000B5400000154100001B41000096
:1003D0007A41000080410000DF410000E54100005B
:1003E000444200004A4200004A4200004B420000E2
:1003F000A9420000AF4200000E4300001443000079
:100400007343000079430000D8430000DE4300003E
:100410003D44000043440000A2440000A844000002
:10042000074500000D4500006C45000072450000C6
:100430007245000073450000D1450000D74500001B
:10044000364600003C4600009B460000A1460000E6
:100450000047000006470000654700006B470000AA
:10046000CA470000D04700002F4800003548000070
:10047000944800009A4800009B4800009B480000F8
:10048000F9480000FF4800005E4900006449000090
:10049000C3490000C9490000284A00002E4A000054
:1004A0008D4A0000934A0000F24A0000F84A00001A
:1004B000574B00005D4B0000BC4B0000C24B0000DE
:1004C000C34B0000C44B0000214C0000274C00002F
:1004D000864C00008C4C0000EB4C0000F14C0000FE
:1004E000504D0000564D0000B54D0000BB4D0000C2
:1004F0001A4E0000204E00007F4E0000854E000086
:10050000E44E0000EA4E0000EB4E0000EC4E00000E
:10051000494F00004F4F0000AE4F0000B44F0000A5
:1005200013500000195000007850000012520000D3
:1005300014520000D1520000DC5200009B53000016
:10054000A65300006554000070540000CF54000012
:10055000D5540000345500003A5500003B550000CA
:100560003C550000995500009F550000FE550000C5
:1005700004560000C3560000CE5600008D57000000
:1005800098570000F7570000FD5700005C58000026
:1005900062580000635800006458000021590000B0
:1005A0002C590000EB590000F6590000B55A000024
:1005B000C05A00001F5B0000255B0000845B000048
:1005C0008A5B00008B5B00008C5B0000E95B000035
:1005D000EF5B00004E5C0000545C0000135D000007
:1005E0001E5D0000DD5D0000E85D0000485E00006B
:1005F0004D5E0000AD5E0000B25E0000B35E000024
:10060000B45E0000715F00007C5F00003C60000091
:10061000466000000661000010610000706100008B
:1006200075610000D5610000DB610000DB61000046
:10063000DC6100003A620000406200009F6200003E
:10064000A5620000646300006F6300002E64000078
:1006500039640000986400009E640000FD6400009E
:10066000036500000365000004650000C26500002A
:10067000CD6500008C66000097660000566700009C
:1006800061670000C0670000C667000025680000C1
:100690002B6800002C6800002C6800008A680000AD
:1006A00090680000EF680000F5680000B469000081
:1006B000BF6900007E6A0000896A0000E86A0000E5
:1006C000EE6A00004D6B0000536B0000546B00009D
:1006D000546B0000126C00001D6C0000DC6C00000C
:1006E000E76C0000A66D0000B16D0000106E000008
:1006F000166E0000756E00007B6E00007C6E0000C0
:100700007D6E0000DA6E0000E06E00003F6F0000BA
:10071000456F0000047000000F700000CE700000F4
:10072000D9700000387100003E7100009D7100001A
:10073000A3710000A4710000A571000062720000A6
:100740006D7200002C73000037730000F673000018
:10075000017400006074000066740000C57400003D
:10076000CB740000CC740000CD7400002A7500002A
:10077000307500008F7500009575000054760000FC
:100780005F7600001E770000297700008877000060
:100790008E770000ED770000F3770000F47700001B
:1007A000F5770000B2780000BD7800007C79000089
:1007B00087790000467A0000517A0000B07A000084
:1007C000B67A0000157B00001B7B00001C7B00003C
:1007D0001D7B00007A7B0000807B0000DF7B000037
:1007E000E57B0000A47C0000AF7C00006E7D000073
:1007F000797D0000D87D0000DE7D00003D7E000098
:10080000437E0000447E0000457E0000027F000021
:100810000D7F0000CC7F0000D77F00009780000094
:10082000A1800000018100000681000066810000B7
:100830006B8100006C8100006D810000CB810000A5
:10084000D08100003082000036820000F582000076
:1008500000830000BF830000CA83000029840000D9
:100860002F8400008E840000948400009484000093
:1008700095840000538500005E8500001D86000001
:1008800028860000E7860000F286000051870000FD
:1008900057870000B6870000BC870000BD870000B6
:1008A000BD8700001B8800002188000080880000B0
:1008B0008688000045890000508900000F8A0000EA
:1008C0001A8A0000798A00007F8A0000DE8A000010
:1008D000E48A0000E58A0000E58A0000A38B00009E
:1008E000AE8B00006D8C0000788C0000378D00000E
:1008F000428D0000A18D0000A78D0000068E000033
:100900000C8E00000D8E00000E8E00006B8E00001D
:10091000718E0000D08E0000D68E0000958F0000F2
:10092000A08F00005F9000006A900000C990000056
:10093000CF9000002E91000034910000359100000E
:1009400036910000F3910000FE910000BD9200007E
:10095000C89200008793000092930000F19300007A
:10096000F7930000569400005C9400005D94000032
:100970005E940000BB940000C1940000209500002C
:1009800026950000E5950000F0950000AF96000068
:10099000BA960000199700001F9700007E9700008C
:1009A0008497000085970000869700004398000018
:1009B0004E9800000D99000018990000D79900008A
:1009C000E2990000419A0000479A0000A69A0000B0
:1009D000AC9A0000AD9A0000AE9A00000B9B00009C
:1009E000119B0000709B0000769B0000359C00006E
:1009F000409C0000FF9C00000A9D0000699D0000D3
:100A00006F9D0000CE9D0000D49D0000D59D00008C
:100A1000D69D0000939E00009E9E00005D9F0000FA
:100A2000689F000027A0000032A0000092A00000F4
:100A300097A00000F7A00000FCA00000FDA00000AF
:100A4000FEA000005CA1000061A10000C1A10000A7
:100A5000C6A1000086A2000090A2000050A30000E2
:100A60005BA30000BAA3000025A4000025A4000099
:100A700026A40000E4A40000EFA40000AEA500003E
:100A8000B9A5000078A6000083A60000E2A6000039
:100A9000E8A6000047A700004DA700004DA70000F2
:100AA0004EA70000ACA70000B2A7000011A80000EC
:100AB00017A80000D6A80000E1A80000A0A9000027
:100AC000ABA900000AAA000010AA00006FAA00004B
:100AD00075AA000076AA000076AA000034AB0000D8
:100AE0003FAB0000FEAB000009AC0000C8AC00004A
:100AF000D3AC000032AD000038AD000097AD00006F
:100B00009DAD00009EAD00009FAD0000FCAD00005B
:100B100002AE000061AE000067AE000026AF00002C
:100B200031AF0000F0AF0000FBAF00005AB0000092
:100B300060B00000BFB00000C5B00000C6B000004B
:100B4000C6B00000C7B0000084B100008FB1000043
:100B50004EB2000059B2000018B3000023B30000E9
:100B600082B3000088B30000E7B30000EDB30000DB
:100B7000EEB30000EFB300004CB4000052B400002C
:100B8000B1B40000B7B4000076B5000081B5000034
:100B900040B600004BB60000AAB60000B0B6000098
:100BA0000FB7000015B7000016B7000065BD0000C4
:100BB00065BD0000E4C1000021C2000023C20000A6
:100BC00081C2000086C20000E6C20000EBC2000045
:100BD0004BC3000051C30000B0C30000B6C3000007
:100BE000B7C3000015C400001BC400007AC4000095
:100BF00080C400003FC500004AC50000A9C5000030
:100C0000AFC500000EC6000014C6000073C6000089
:100C100079C60000D8C60000DEC600003DC700004F
:100C200043C70000A2C70000A8C7000067C80000B3
:100C300072C80000D1C80000D7C8000036C9000043
:100C40003CC90000FBC9000006CA000007CA00003A
:100C500007CA000065CA00006BCA0000CACA0000CB
:100C6000D0CA00008FCB00009ACB0000F9CB000067
:100C7000FFCB00005ECC000064CC000023CD000060
:100C80002ECD00008DCD000093CD0000F2CD0000F0
:100C9000F8CD0000B7CE0000C2CE000021CF00008A
:100CA00027CF000086CF00008CCF00004BD0000083
:100CB00056D0000057D0000058D00000B5D000003A
:100CC000BBD000001AD1000020D10000DFD100000D
:100CD000EAD1000049D200004FD20000AED200009D
:100CE000B4D2000073D300007ED30000DDD3000037
:100CF000E3D3000042D4000048D40000A7D4000091
:100D0000ADD400000CD5000012D5000071D5000054
:100D100077D50000D6D50000DCD500009BD60000BA
:100D2000A6D6000005D700000BD700006AD7000048
:100D300070D700002FD800003AD8000099D80000E2
:100D40009FD80000FED8000004D90000C3D90000DD
:100D5000CED900002DDA000033DA000092DA00006C
:100D600098DA000057DB000062DB0000C1DB000006
:100D7000C7DB000026DC00002CDC0000EBDC000000
:100D8000F6DC0000F7DC0000F8DC000055DD0000B8
:100D90005BDD0000BADD0000C0DD00007FDE00008A
:100DA0008ADE0000E9DE0000EFDE00004EDF00001A
:100DB00054DF0000B3DF0000B9DF000018E00000DE
:100DC0001EE000007EE0000083E00000E3E00000A1
:100DD000E8E00000A7E10000B2E1000012E200003C
:100DE00017E2000077E200007CE200003CE3000034
:100DF00046E3000047E3000048E30000A6E30000EC
:100E0000ABE300000BE4000011E40000D0E40000BC
:100E1000DBE400003AE5000040E500009FE500004B
:100E2000A5E5000064E600006FE60000CEE60000E5
:100E3000D4E6000033E7000039E70000F8E70000DF
:100E400003E8000062E8000068E80000C7E800006E
:100E5000CDE800008CE9000097E9000098E9000067
:100E600098E90000F6E90000FCE900005BEA0000F8
:100E700061EA000020EB00002BEB00008AEB000091
:100E800090EB0000EFEB0000F5EB0000B4EC00008D
:100E9000BFEC00001EED000024ED000083ED00001B
:100EA00089ED0000E8ED0000EEED00004DEE0000E1
:100EB00053EE0000B2EE0000B8EE000017EF0000A5
:100EC0001DEF0000DCEF0000E7EF0000E8EF00009E
:100ED000E9EF000046F000004CF00000ABF000002D
:100EE000B1F0000070F100007BF10000DAF10000C9
:100EF000E0F100003FF2000045F2000004F30000C2
:100F00000FF3000010F3000011F300006EF3000077
:100F100074F30000D3F30000D9F3000038F40000AC
:100F20003EF400009DF40000A3F4000002F5000070
:100F300008F5000067F500006DF500002CF60000D4
:100F400037F6000038F6000039F6000096F600008B
:100F50009CF60000FBF6000001F70000C0F700005F
:100F6000CBF700002AF8000030F800008FF80000EE
:100F700095F80000F4F80000FAF8000059F90000B4
:100F80005FF90000BEF90000C4F9000023FA000078
:100F900029FA0000E8FA0000F3FA000052FB000012
:100FA00058FB0000B7FB0000BDFB00007CFC00000C
:100FB00087FC000088FC000089FC0000E6FC0000C3
:100FC000ECFC00004BFD000051FD000010FE000095
:100FD0001BFE00007AFE000080FE0000DFFE000025
:100FE000E5FE0000A4FF0000AFFF00000E000100BE
:100FF00014000100730001007900010038010100B4
:1010000043010100A3010100A80101000802010041
:101010000D020100CD020100D7020100D80201003B
:10102000D9020100370301003C0301009C030100C9
:10103000A1030100610401006C040100CB04010064
:10104000D10401003005010036050100F50501005D
:10105000000601005F06010065060100C4060100EC
:10106000CA0601008907010094070100F307010087
:10107000F9070100580801005E0801001D09010080
:10108000F2090100510A0100570A0100B60A0100E5
:10109000BC0A01001B0B0100210B0100800B0100A9
:1010A000860B0100E50B0100EB0B01004A0C01006F
:1010B000500C0100AF0C0100B50C0100140D010033
:1010C0001A0D0100D90D0100E40D0100430E0100CD
:1010D000490E0100A80E0100AE0E01006D0F0100C7
:1010E000780F0100790F01007A0F0100D70F01007E
:1010F000DD0F01003C100100421001000111010050
:101100000C1101006B11010071110100D0110100DF
:10111000D6110100351201003B1201009A120100A4
:10112000A0120100FF120100051301006413010069
:101130006A13010029140100341401009314010002
:1011400099140100F8140100FE140100BD150100FE
:10115000C8150100C9150100CA15010027160100B4
:101160002D1601008C160100921601005117010086
:101170005C170100BB170100C11701002018010016
:1011800026180100E5180100F01801004F190100B0
:1011900055190100B4190100BA190100791A0100AA
:1011A000841A0100E31A0100E91A0100481B01003A
:1011B0004E1B01000D1C0100181C0100191C010030
:1011C0001A1C010017220100682201006725010096
:1011D00091250100902601009E2601009D27010017
:1011E000AB270100AA280100BA280100E829010064
:1011F000472A01004D2A01007C2A01007F2A0100B4
:10120000AE2A0100B22A0100E12A0100E42A01000D
:10121000132B0100172B0100462B0100492B010065
:10122000782B01007C2B0100AB2B0100AE2B0100C1
:10123000DD2B0100E12B0100E02E0100092F010050
:101240000832010031320100B0360100ED360100F4
:101250006C38010081380100803B0100A93B01008E
:10126000A83E0100D13E0100504301008D43010022
:101270000C45010021450100234501008145010085
:1012800087450100E6450100EC4501004B460100A1
:1012900051460100B0460100B64601007547010005
:1012A000804701003F4801004A4801004A480100C8
:1012B0004B480100A9480100AF4801000E49010058
:1012C000144901007349010079490100D84901001E
:1012D000DE4901003D4A0100434A0100A24A0100E3
:1012E000A84A0100074B01000D4B01006C4B0100A7
:1012F000724B0100734B0100734B0100D14B010095
:10130000D74B0100364C01003C4C01009B4C0100C6
:10131000A14C0100004D0100064D0100C54D01002A
:10132000D04D01008F4E01009A4E01009B4E0100EE
:101330009B4E0100F94E0100FF4E01005E4F01007F
:10134000644F0100235001002E5001008D50010018
:1013500093500100F2500100F8500100B751010014
:10136000C2510100C3510100C451010021520100CA
:1013700027520100865201008C5201004B5301009C
:1013800056530100B5530100BB5301001A5401002C
:1013900020540100DF540100EA540100EB54010025
:1013A000EC540100495501004F550100AE550100B4
:1013B000B45501001356010019560100785601007A
:1013C0007E560100DD560100E35601004257010040
:1013D00048570100A7570100AD5701000C58010004
:1013E00012580100135801001458010071580100EF
:1013F00077580100D6580100DC5801003B59010024
:1014000041590100A0590100A6590100055A0100E7
:101410000B5A01006A5A0100705A0100CF5A0100AC
:10142000D55A0100345B01003A5B0100995B010071
:101430009F5B0100FE5B0100045C0100635C010036
:10144000695C0100C85C0100CE5C01002D5D0100FB
:10145000335D0100925D0100985D0100F75D0100C0
:10146000FD5D01005C5E0100625E0100635E0100E3
:10147000645E0100C15E0100C75E0100265F0100DD
:101480002C5F01008B5F0100915F0100F05F0100A4
:10149000F65F0100B5600100C06001007F610100DE
:1014A0008A6101008B6101008C610100E96101002A
:1014B000EF6101004E62010054620100B46201005C
:1014C000B9620100196301001E6301007E6301001F
:1014D00083630100E3630100E863010048640100E5
:1014E0004D640100AD640100B2640100B364010009
:1014F000B464010012650100176501007765010001
:101500007C650100DC650100E165010041660100C8
:10151000476601000667010011670100D0670100FE
:10152000DB670100DB670100DC6701003A6801004E
:10153000406801009F680100A5680100646901001E
:101540006F690100CE690100D4690100336A0100AE
:10155000396A0100F86A0100036B0100036B0100A6
:10156000046B0100626B0100686B0100C76B010036
:10157000CD6B01008C6C0100976C0100F66C0100D2
:10158000FC6C01005B6D0100616D0100206E0100CB
:101590002B6E01002C6E01002C6E01008A6E010082
:1015A000906E0100EF6E0100F56E0100546F0100B6
:1015B0005A6F0100B96F0100BF6F01001E7001007A
:1015C000247001008370010089700100E87001003F
:1015D000EE7001004D710100537101005471010062
:1015E0005471010055710100B2710100B871010020
:1015F000177201001D7201007C72010082720100ED
:10160000E1720100E7720100467301004C730100B2
:10161000AB730100B1730100107401001674010076
:10162000757401007B740100DA740100E07401003C
:101630003F75010045750100A4750100AA75010000
:10164000097601000F7601006E76010074760100C4
:10165000D3760100D9760100387701003E7701008A
:101660009D770100A3770100A4770100A577010011
:101670000278010008780100677801006D780100A8
:10168000CC780100D278010031790100377901006E
:10169000F6790100017A0100C07A0100CB7A0100DD
:1016A000CC7A0100CD7A01002A7B0100307B010059
:1016B0008F7B0100957B0100F47B0100FA7B010028
:1016C000597C01005F7C0100BE7C0100C47C0100EC
:1016D000237D0100297D0100887D01008E7D0100B0
:1016E000ED7D0100F37D0100F47D0100F57D010039
:1016F000527E0100587E0100B77E0100BD7E0100D0
:101700001C7F0100227F0100817F0100877F010093
:101710004680010051800100108101001B81010001
:101720001C8101001D8101007A810100808101007E
:10173000DF810100E5810100A4820100AF82010088
:101740000F83010014830100748301007983010079
:101750003884010043840100448401004584010071
:10176000A3840100A8840100088501000D85010003
:10177000CD850100D7850100378601003C86010038
:101780009C860100A2860100618701006C87010030
:101790006C8701006D870100CB870100D1870100B4
:1017A0003088010036880100958801009B8801007F
:1017B000FA880100008901005F8901006589010044
:1017C000C4890100CA890100298A01002F8A010009
:1017D0008E8A0100948A0100948A0100958A010092
:1017E000F38A0100F98A0100588B01005E8B010029
:1017F000BD8B0100C38B0100228C0100288C0100ED
:10180000878C01008D8C0100EC8C0100F28C0100B2
:10181000518D0100578D0100B68D0100BC8D010076
:101820001B8E0100218E0100808E0100868E01003A
:10183000E58E0100EB8E01004A8F0100508F010000
:10184000AF8F0100B58F0100149001001A900100C4
:10185000799001007F900100DE900100E49001008A
:10186000E5900100E69001004391010049910100DB
:10187000A8910100AE9101000D92010013920100A8
:1018800072920100789201003793010042930100A7
:10189000019401000C9401000D9401000E940100CC
:1018A0006B94010071940100D0940100D694010062
:1018B000359501003B9501009A950100A095010026
:1018C000FF95010005960100649601006A960100EB
:1018D000C9960100CF9601002E97010034970100B0
:1018E0003597010036970100939701009997010001
:1018F000F8970100FE9701005D98010063980100D0
:10190000C2980100C89801008799010092990100CE
:10191000519A01005C9A01005D9A01005E9A0100F3
:10192000BB9A0100C19A0100209B0100269B010087
:10193000E59B0100F09B01004F9C0100559C0100BC
:10194000B49C0100BA9C0100799D0100849D0100B6
:10195000859D0100869D0100E39D0100E99D010038
:10196000489E01004E9E01000D9F0100189F01003E
:10197000779F01007D9F0100DC9F0100E29F010035
:10198000A1A00100ACA00100ADA00100AEA001002B
:101990000BA1010011A1010070A1010076A10100BD
:1019A000D5A10100DBA101003AA2010040A2010083
:1019B0009FA20100A5A2010004A301000AA3010047
:1019C00069A301006FA30100CFA30100D4A301000C
:1019D000D5A30100D6A3010034A4010039A401005D
:1019E00099A401009EA40100FEA4010003A501002A
:1019F00063A5010068A50100C8A50100CDA50100EF
:101A00002DA6010032A6010092A6010097A60100B2
:101A1000F7A60100FCA601005CA7010062A7010077
:101A2000C1A70100C7A7010026A801002CA801003A
:101A30008BA8010091A80100F0A80100F6A8010000
:101A400055A901005BA90100BAA90100C0A90100C4
:101A50001FAA010025AA010025AA010025AA01004C
:101A600026AA010084AA01008AAA0100E9AA0100AD
:101A7000EFAA01004EAB010054AB0100B3AB010073
:101A8000B9AB010078AC010083AC010042AD0100AC
:101A90004DAD01004EAD01004EAD0100ACAD0100F9
:101AA000B2AD010011AE010017AE010076AE01002B
:101AB0007CAE0100DBAE0100E1AE010040AF0100F1
:101AC00046AF0100A5AF0100ABAF01000AB00100B5
:101AD00010B001006FB0010075B0010076B00100D8
:101AE00076B00100D4B00100DAB0010039B10100D4
:101AF0003FB101009EB10100A4B1010003B2010099
:101B000009B20100C8B20100D3B2010092B30100D2
:101B10009DB301009EB301009FB30100FCB301001F
:101B200002B4010061B4010067B4010026B50100F0
:101B300031B5010090B5010096B50100F5B5010081
:101B4000FBB50100BAB60100C5B60100C6B601007A
:101B5000C7B6010024B701002AB7010089B7010008
:101B60008FB701004EB8010059B80100B8B80100A4
:101B7000BEB801001DB9010023B90100E2B901009E
:101B8000EDB90100EEB90100EFB901004CBA010056
:101B900052BA0100B1BA0100B7BA010016BB010088
:101BA0001CBB01007BBB010081BB0100E0BB01004D
:101BB000E6BB010045BC01004BBC0100AABC010012
:101BC000B0BC01000FBD010015BD010016BD010034
:101BD00016BD010017BD010074BD01007ABD0100F2
:101BE000D9BD0100DFBD01003EBE010044BE0100C1
:101BF000A3BE0100A9BE010008BF01000EBF010085
:101C00006DBF010073BF0100D2BF0100D8BF01004A
:101C100037C001003DC001009CC00100A2C001000E
:101C200001C1010007C1010066C101006CC10100D2
:101C3000CBC10100D1C10100D2C10100D3C101005B
:101C400030C2010036C2010095C201009BC20100F2
:101C5000FAC2010000C301005FC3010065C30100B7
:101C600066C3010067C30100C4C30100CAC3010009
:101C70002AC401002FC401008FC4010094C40100D4
:101C8000F4C40100F9C40100B8C50100C3C50100D6
:101C900083C601008DC601008EC601008FC60100FB
:101CA000EDC60100F2C6010052C7010057C701008E
:101CB000B7C70100BDC701001CC8010022C8010050
:101CC00081C8010087C80100E6C80100ECC8010016
:101CD0004BC9010051C90100B0C90100B6C90100DA
:101CE000B6C90100B7C9010015CA01001BCA01002D
:101CF0007ACA010080CA0100DFCA0100E5CA0100FA
:101D000044CB01004ACB010009CC010014CC0100F6
:101D1000D3CC0100DECC0100DFCC0100DFCC010020
:101D20003DCD010043CD0100A2CD0100A8CD0100B1
:101D300067CE010072CE0100D1CE0100D7CE0100E6
:101D400036CF01003CCF0100FBCF010006D00100DF
:101D500007D0010007D0010065D001006BD0010061
:101D6000CAD00100D0D001008FD101009AD101006A
:101D7000F9D10100FFD101005ED2010064D201005F
:101D800023D301002ED301002FD3010030D3010053
:101D90008DD3010093D30100F2D30100F8D30100E9
:101DA00057D401005DD40100BCD40100C2D40100AD
:101DB00021D5010027D5010086D501008CD5010071
:101DC000EBD50100F1D5010050D6010056D6010037
:101DD00057D6010058D60100B5D60100BBD6010088
:101DE0001AD7010020D701007FD7010085D7010055
:101DF000E4D70100EAD7010049D801004FD801001B
:101E0000AED80100B4D8010013D9010019D90100DE
:101E100078D901007ED90100DDD90100E3D90100A4
:101E200042DA010048DA0100A7DA0100ADDA010068
:101E30000CDB010012DB010071DB010077DB01002C
:101E4000D6DB0100DCDB01003BDC010041DC0100F2
:101E5000A0DC0100A6DC0100A7DC0100A7DC01007A
:101E6000A8DC010005DD01000BDD01006ADD0100D9
:101E700070DD0100CFDD0100D5DD010034DE0100A1
:101E80003ADE0100F9DE010004DF0100C3DF0100DA
:101E9000CEDF0100CFDF0100D0DF01002DE0010027
:101EA00033E0010092E0010098E00100F7E001005A
:101EB000FDE001005CE1010062E10100C1E101001F
:101EC000C7E1010026E201002CE201008BE20100E3
:101ED00091E20100F0E20100F6E20100F7E2010008
:101EE000F8E2010055E301005BE30100BAE3010001
:101EF000C0E301001FE4010025E4010084E40100C7
:101F00008AE4010049E5010054E5010013E60100FF
:101F10001EE601001FE6010020E601007EE601004A
:101F200083E60100E3E60100E8E60100A8E701001E
:101F3000B2E7010012E8010017E8010077E80100AC
:101F40007DE801003CE9010047E9010047E90100A3
:101F500048E90100A6E90100ACE901000BEA010033
:101F600011EA0100D0EA0100DBEA01003AEB0100CE
:101F700040EB01009FEB0100A5EB010064EC0100C8
:101F80006FEC01006FEC010070EC0100CEEC010081
:101F9000D4EC010033ED010039ED010098ED0100B2
:101FA0009EED0100FDED010003EE010062EE010077
:101FB00068EE0100C7EE0100CDEE01002CEF01003C
:101FC00032EF010091EF010097EF010098EF01005F
:101FD00098EF010098EF0100F6EF0100FCEF01001F
:101FE0005BF0010061F00100C0F00100C6F00100EB
:101FF00025F101002BF101008AF1010090F10100AF
:10200000EFF10100F5F1010054F201005AF2010074
:10201000B9F20100BFF201001EF3010024F3010038
:1020200083F3010089F30100E8F30100EEF30100FE
:102030004DF4010053F4010054F4010055F4010083
:10204000B2F40100B8F4010017F501001DF501001C
:102050007CF5010082F50100E1F50100E7F50100E2
:10206000E8F50100E9F5010046F601004CF6010033
:10207000ABF60100B1F6010010F7010016F7010000
:1020800075F701007BF701003AF8010045F80100FF
:1020900004F901000FF9010010F9010011F9010024
:1020A0006EF9010074F90100D3F90100D9F90100BA
:1020B00038FA01003EFA01009DFA0100A3FA01007E
:1020C00002FB010008FB010067FB01006DFB010042
:1020D000CCFB0100D2FB010031FC010037FC010008
:1020E00038FC010039FC010096FC01009CFC010059
:1020F000FBFC010001FD010060FD010066FD010027
:10210000C5FD0100CBFD01008AFE010095FE010026
:1021100054FF01005FFF010060FF010061FF01004B
:10212000BEFF0100C4FF01002300020029000200DD
:10213000E8000200F3000200520102005801020010
:10214000B7010200BD0102007C020200870202000A
:102150008802020089020200E6020200EC0202008C
:102160004B03020051030200100402001B04020092
:102170007A04020080040200DF040200E504020089
:10218000A4050200AF050200B0050200B10502007F
:102190000F0602001406020074060200790602000F
:1021A000D9060200DE0602003E07020043070200D5
:1021B000A3070200A8070200080802000D08020099
:1021C0006D08020072080200D2080200D80802005E
:1021D000D8080200D9080200370902003D090200B0
:1021E0009C090200A2090200010A0200070A02007B
:1021F000660A02006C0A0200CB0A0200D10A020041
:10220000300B0200360B0200950B02009B0B020004
:10221000FA0B0200000C02005F0C0200650C0200C9
:10222000C40C0200CA0C0200290D02002F0D02008E
:102230008E0D0200940D0200F30D0200F90D020054
:10224000580E02005E0E0200BD0E0200C30E020018
:10225000220F0200280F0200290F0200290F02009E
:10226000290F0200870F02008D0F0200EC0F020001
:10227000F20F02005110020057100200B6100200C7
:10228000BC1002007B110200861102004512020000
:10229000501202005112020051120200AF1202004D
:1022A000B5120200141302001A130200791302007F
:1022B0007F130200DE130200E41302004314020045
:1022C00049140200A8140200AE1402000D15020009
:1022D000131502007215020078150200791502002C
:1022E0007A150200D7150200DD1502003C16020027
:1022F00042160200A1160200A716020006170200ED
:102300000C170200CB170200D61702009518020026
:10231000A0180200A1180200A2180200FF18020073
:1023200005190200641902006A190200291A020044
:10233000341A0200931A0200991A0200F81A0200D5
:10234000FE1A0200BD1B0200C81B0200C91B0200CE
:10235000C91B0200CA1B0200271C02002D1C020020
:102360008C1C0200921C0200511D02005C1D020028
:10237000BB1D0200C11D0200201E0200261E02001D
:10238000E51E0200F01E0200F11E0200F21E020015
:102390004F1F0200551F0200B41F0200BA1F0200A7
:1023A000192002001F2002007E200200842002006B
:1023B000E3200200E9200200482102004E21020031
:1023C000AD210200B32102001222020018220200F5
:1023D000192202001A220200772202007D22020046
:1023E000DC220200E2220200412302004723020015
:1023F000A6230200AC2302000B24020011240200D9
:102400007024020076240200D5240200DB2402009E
:102410003A250200402502009F250200A525020062
:10242000052602000A2602006A2602006F26020024
:10243000CF260200D42602003427020039270200EA
:10244000992702009E270200FE27020003280200AF
:102450006328020068280200692802006A28020036
:10246000C8280200CD2802002D29020032290200CE
:102470009229020098290200F7290200FD29020092
:102480005C2A0200622A0200C12A0200C72A020056
:10249000262B02002C2B02008B2B0200912B02001A
:1024A000912B0200922B0200F02B0200F62B02006F
:1024B000552C02005B2C0200BA2C0200C02C02003A
:1024C0001F2D0200252D0200842D02008A2D0200FE
:1024D000E92D0200EF2D02004E2E0200542E0200C4
:1024E000B32E0200B92E0200BA2E0200BA2E02004C
:1024F000182F02001E2F02007D2F0200832F0200E2
:10250000E22F0200E82F0200473002004D300200A7
:10251000AC300200B230020011310200173102006B
:10252000763102007C310200DB310200E131020031
:10253000E2310200E2310200403202004632020083
:10254000A5320200AB3202000A330200103302004F
:102550006F33020075330200D4330200DA33020015
:10256000393402003F3402009E340200A4340200D9
:1025700003350200093502000A3502000B3502005E
:10258000683502006E350200CD350200D3350200F9
:102590003236020038360200973602009D360200BD
:1025A000FC36020002370200613702006737020082
:1025B000C6370200CC3702002B3802003138020047
:1025C0003238020033380200903802009638020098
:1025D000F5380200FB3802005A3902006039020067
:1025E000BF390200C5390200243A02002A3A02002B
:1025F000893A02008F3A0200EE3A0200F43A0200F1
:10260000533B0200593B02005A3B02005B3B020075
:10261000B83B0200BE3B02001D3C0200233C02000E
:10262000823C0200883C0200E73C0200ED3C0200D4
:102630004C3D0200523D0200B13D0200B73D020098
:10264000163E02001C3E02007B3E0200813E02005C
:10265000823E0200833E0200E03E0200E63E0200AF
:10266000453F02004B3F0200AA3F0200B03F02007C
:102670000F40020015400200744002007A40020040
:10268000D9400200DF4002003E4102004441020006
:10269000A3410200A9410200AA410200AA4102008E
:1026A000AB410200084202000E4202006D420200ED
:1026B00073420200D2420200D842020037430200B5
:1026C0003D4302009C430200A24302000144020079
:1026D00007440200664402006C440200CB4402003E
:1026E000D1440200D2440200D3440200304502002B
:1026F00036450200954502009B450200FA4502005E
:10270000004602006046020065460200C54602001F
:10271000CA4602002A4702002F4702008F470200E4
:1027200094470200F4470200F9470200FA4702000A
:10273000FB470200594802005E480200BE48020002
:10274000C3480200234902002849020088490200C8
:102750008D490200ED490200F3490200524A02008D
:10276000584A0200B74A0200BD4A02001C4B020050
:10277000224B0200224B0200234B0200814B02003D
:10278000874B0200E64B0200EC4B02004B4C020070
:10279000514C0200B04C0200B64C0200154D020034
:1027A0001B4D02007A4D0200804D0200DF4D0200F9
:1027B000E54D0200444E02004A4E02004A4E02001D
:1027C0004B4E0200A94E0200AF4E02000E4F020017
:1027D000144F0200734F0200794F0200D84F0200DD
:1027E000DE4F02003D50020043500200A2500200A2
:1027F000A8500200075102000D5102006C51020066
:10280000725102007351020073510200D151020053
:10281000D7510200365202003C5202009B52020085
:10282000A152020000530200065302006553020049
:102830006B530200CA530200D05302002F5402000F
:1028400035540200945402009A5402009B54020032
:102850009C540200F9540200FF5402005E5502002D
:1028600064550200C3550200C955020028560200F3
:102870002E5602008D56020093560200F2560200B8
:10288000F8560200575702005D570200BC5702007D
:10289000C2570200C3570200C45702002158020069
:1028A00027580200865802008C580200EB5802009C
:1028B000F15802005059020056590200B559020061
:1028C000BB5902001A5A0200205A02007F5A020025
:1028D000855A0200E45A0200EA5A0200EB5A02004A
:1028E000A95B0200B45B0200735C02007E5C020024
:1028F0003D5D0200485D0200075E0200125E0200BC
:10290000D15E0200DC5E02009B5F0200A65F020057
:1029100065600200706002002F6102003A610200EF
:10292000F961020004620200C3620200CE6202008A
:102930008D63020098630200576402006264020023
:10294000216502002C650200EB650200F6650200BD
:10295000B5660200C06602007F6702008A67020057
:102960004968020054680200146902001E690200EE
:10297000DE690200E8690200A86A0200B36A020088
:10298000726B02007D6B02003C6C0200476C02001F
:10299000066D0200116D0200D06D0200DB6D0200B9
:1029A0009A6E0200A56E0200646F02006F6F020053
:1029B0002E70020039700200F870020003710200EC
:1029C000C2710200CD7102008C7202009772020087
:1029D0005673020061730200207402002B7402001F
:1029E000EA740200F5740200B4750200BF750200BB
:1029F0007E76020089760200487702005377020053
:102A0000127802001D780200DC780200E7780200EC
:102A1000A6790200B1790200707A02007B7A020086
:102A20003A7B0200457B0200047C02000F7C02001E
:102A3000CE7C0200D97C0200987D0200A37D0200BA
:102A4000627E02006D7E02002C7F0200377F020052
:102A5000F67F020001800200C0800200CB800200ED
:102A60008A81020095810200548202005F82020086
:102A70001E83020029830200E8830200F383020020
:102A8000B2840200BD8402007C85020087850200BA
:102A90004686020051860200108702001B87020052
:102AA000DA870200E5870200A4880200AF880200EE
:102AB0006F89020079890200398A0200438A020084
:102AC000038B02000E8B0200CD8B0200D88B02001C
:102AD000978C0200A28C0200618D02006C8D0200B6
:102AE0006C8D02006C8D02006C8D02006C8D0200FA
:102AF0006D8D02002B8E0200368E0200F58E0200D4
:102B0000008F0200BF8F0200CA8F020029900200CE
:102B10002F9002008E900200949002009590020087
:102B200095900200F3900200F99002005891020083
:102B30005E9102001D92020028920200E7920200BC
:102B4000F29202005193020057930200B6930200E2
:102B5000BC930200BD930200BD9302007B9402006F
:102B60008694020045950200509502000F960200DF
:102B70001A960200799602007F960200DE96020005
:102B8000E4960200E5960200E696020043970200F2
:102B900049970200A8970200AE9702006D980200C4
:102BA000789802003799020042990200A199020028
:102BB000A7990200069A02000C9A02000D9A0200E0
:102BC0000E9A0200CB9A0200D69A0200959B020050
:102BD000A09B02005F9C02006A9C0200C99C02004C
:102BE000CF9C02002E9D0200349D0200359D020004
:102BF000369D0200939D0200999D0200F89D0200FF
:102C0000FE9D0200BD9E0200C89E0200879F02003A
:102C1000929F0200F19F0200F79F020056A002005F
:102C20005CA002005DA002005EA002001BA10200E9
:102C300026A10200E5A10200F0A10200AFA202005D
:102C4000BAA2020019A302001FA302007EA3020081
:102C500084A3020085A3020086A30200E3A302006E
:102C6000E9A3020048A402004EA402000DA5020040
:102C700018A50200D7A50200E2A5020041A60200A5
:102C800047A60200A6A60200ACA60200ADA602005E
:102C9000AEA602006BA7020076A7020035A80200CC
:102CA00040A80200FFA802000AA902006AA90200C7
:102CB0006FA90200CFA90200D4A90200D5A9020081
:102CC000D6A9020034AA020039AA020099AA020079
:102CD0009EAA02005EAB020068AB020028AC0200B4
:102CE00033AC020092AC0200FDAC0200FDAC02006D
:102CF000FEAC0200BCAD0200C7AD020086AE020011
:102D000091AE020050AF02005BAF0200BAAF02000A
:102D1000C0AF02001FB0020025B0020025B00200C3
:102D200026B0020084B002008AB00200E9B00200BE
:102D3000EFB00200AEB10200B9B1020078B20200F9
:102D400083B20200E2B20200E8B2020047B302001E
:102D50004DB302004EB302004EB302000CB40200A9
:102D600017B40200D6B40200E1B40200A0B502001C
:102D7000ABB502000AB6020010B602006FB6020040
:102D800075B6020076B6020077B60200D4B602002D
:102D9000DAB6020039B702003FB70200FEB7020000
:102DA00009B80200C8B80200D3B8020032B9020064
:102DB00038B9020097B902009DB902009EB902001D
:102DC0009EB902009FB902005CBA020067BA020015
:102DD00026BB020031BB0200F0BB0200FBBB0200BD
:102DE0005ABC020060BC0200BFBC0200C5BC0200AD
:102DF000C6BC0200C7BC020024BD02002ABD0200FE
:102E000089BD02008FBD02004EBE020059BE020005
:102E100018BF020023BF020082BF020088BF020069
:102E2000E7BF0200CF000000E9000000C30000007F
:102E3000CF000000AE000000C3000000CF00000083
:102E4000E9000000670067000000740000008200D5
:102E500000009B000000AE00AE00AE0000008A0043
:102E600000009B000000820000006700000061007D
:102E700000004D00000057000000C300C300C30065
:102E80000000CF000000E90000009B000000AE0041
:102E90000000C30000006100000067000000820025
:102EA0008200820000009B000000AE000000820053
:102EB0000000C30000009B000000670000007400D9
:102EC0000000670067006700000061000000450027
:102ED00000004D0000005700000067000000610086
:102EE00000004D000000570057005700000082000E
:102EF000000074000000820000009B0000008200BF
:102F000000007400000082000000610061006100A8
:102F100000009B000000820000009B000000AE004B
:102F200000009B000000820000009B0000008A005F
:102F30008A008A000000CF000000C3000000CF001C
:102F4000000015010000CF000000AE000000CF001F
:102F500000009B009B009B000000E9000000CF00E8
:102F60000000E900000037010000E9000000C30094
:102F70000000E90000005D015D015D0100000B0241
:102F80000000D20100000B020000BA0200000B0298
:102F90000000D20100000B0200005D015D015D0137
:102FA00000002A0200000B0200002A020000BA0200
:102FB00000002A0200000B0200002A0200005D014E
:102FC0005D015D0100004B0200002A0200004B027F
:102FD0000000BA0200004B0200002A0200004B026F
:102FE00000005D015D015D0100002A0200000B028E
:102FF00000002A020000BA0200002A0200000B02B0
:1030000000002A0200005D015D015D0100000B026D
:103010000000D20100000B020000BA0200000B0207
:103020000000D20100000B0200005D015D015D01A6
:1030300000002A0200000B0200002A020000BA026F
:1030400000002A0200000B0200002A0200005D01BD
:103050005D015D0100004B0200002A0200004B02EE
:103060000000BA0200004B0200002A0200004B02DE
:1030700000005D015D015D010000BA0200000F0368
:1030800000003E0300008A008A000000CF0000001C
:103090008A000000AE0000008A0000008A008A005A
:1030A0008A0000009B000000E90000009B00000077
:1030B000E90000009B000000820082008200000006
:1030C000C300000082000000C30000008200000076
:1030D00082008200820000008A000000CF00000011
:1030E0008A000000CF0000008A0000007400740015
:1030F00074000000AE00000074000000AE0000008C
:10310000740000007400740074000000820000006D
:10311000C300000082000000C30000008200000025
:103120008A008A008A000000CF0000008A000000A8
:10313000CF0000008A0000008A008A008A00000098
:10314000A4000000E9000000A4000000E900000065
:10315000C30000008A008A008A000000CF0000003F
:103160008A000000CF0000008A0000008A008A0068
:103170008A0000009B000000E90000009B000000A6
:10318000E90000009B000000820082008200000035
:10319000C300000082000000C300000082000000A5
:1031A00082008200820000008A000000CF00000040
:1031B0008A000000CF0000008A0000007400740044
:1031C00074000000AE00000074000000AE000000BB
:1031D000740000007400740074000000820000009D
:1031E000C300000082000000C30000008200000055
:1031F0008A008A008A000000CF0000008A000000D8
:10320000CF0000008A0000008A008A008A000000C7
:103210009B000000E90000009B000000E9000000A6
:10322000C30000008A008A008A000000CF0000006E
:103230008A000000CF0000008A0000008A008A0097
:103240008A0000009B000000E90000009B000000D5
:10325000E90000009B000000820082008200000064
:10326000C300000082000000C300000082000000D4
:1032700082008200820000008A000000CF0000006F
:103280008A000000CF0000008A0000007400740073
:1032900074000000AE00000074000000AE000000EA
:1032A00074000000740074007400000082000000CC
:1032B000C300000082000000C30000008200000084
:1032C0008A008A008A000000CF0000008A00000007
:1032D000CF0000008A0000008A008A008A000000F7
:1032E000A4000000E9000000A4000000E9000000C4
:1032F000C30000008A008A008A000000CF0000009E
:103300008A000000CF0000008A0000008A008A00C6
:103310008A0000009B000000E90000009B00000004
:10332000E90000008200820082000000C30000006B
:1033300082000000C30000008200000082008200C2
:10334000820000008A000000CF0000008A00000018
:10335000CF0000008A0000007400740074000000B8
:10336000AE00000074000000AE0000007400000019
:10337000740074007400000082000000C3000000AC
:1033800082000000C3000000820000008A008A0062
:103390008A008A000000CF0000008A000000CF00F1
:1033A00000008A0000008A008A008A0000009B005A
:1033B0000000E90000009B000000E9000000C300DD
:1033C0000000CF00CF00000057000000570057005A
:1033D0000000670000008200000057000000570056
:1033E0005700000082000000AE00000082000000D4
:1033F000AE0000009B000000AE0000009B0000003B
:10340000AE00000067000000AE0000009B0000005E
:10341000AE0000004D004D004D00000074000000A3
:103420009B00000061000000740000009B00000091
:103430008A0000009B000000610000009B0000006B
:103440008A0000009B000000570057005700000052
:10345000670000008A000000820000008A0000006F
:1034600067000000820000008A0000006700000082
:103470008A000000820000008A000000670000004F
:1034800067000000820000008A0000008200000047
:103490008A00000067000000820000008A0000002F
:1034A000670000008A000000820000008A0000001F
:1034B000570057005700000082000000AE000000D7
:1034C00082000000AE0000009B000000AE00000083
:1034D0009B000000AE00000067000000AE0000008E
:1034E0009B000000AE0000004D004D004D000000AC
:1034F000740000009B0000006100000074000000E8
:103500009B0000008A0000009B000000610000009A
:103510009B0000008A0000009B0000004900490059
:103520004900000074000000920000008A000000C2
:1035300092000000740000008A0000009200000069
:10354000740000008A000000920000007400000077
:1035500092000000450045004500000067000000A3
:103560008A000000820000008A000000670000005E
:103570008A008A008A0000009B00000061000000B1
:10358000820000008A000000740000008200000039
:103590004500450045000000820000008A00000050
:1035A000820000008A000000670000008A0000001E
:1035B000820000008A000000670000008A0000000E
:1035C000670000008A0000004D004D004D00000023
:1035D000740000009B000000610000007400000007
:1035E0009B0000008A0000009B00000061000000BA
:1035F0009B0000008A0000009B000000570057005D
:103600005700000082000000AE0000009B00000098
:10361000AE000000820000009B000000AE00000031
:1036200082000000AE0000009B000000AE00000021
:103630009B000000AE0000009B000000AE000000F8
:103640009B000000820000009B0000008200000040
:10365000AE000000AE0000009B000000AE000000C5
:10366000570057005700000082000000AE00000025
:1036700082000000AE0000009B000000AE000000D1
:103680009B000000AE00000067000000AE000000DC
:103690009B000000AE0000004D004D004D000000FA
:1036A000740000009B000000610000007400000036
:1036B0009B0000008A0000009B00000074000000D6
:1036C0009B0000008A0000009B000000AE00AE00DE
:1036D000AE000000820000008200000082000000B6
:1036E000820000000000820000006100000067000E
:1036F00000007400000082000000AE000000CF0057
:103700000000050100005D010000710100009F0143
:103710000000D20100009F010000710100009F0124
:103720000000D20100009F0100005C005C0000006E
:1037300067000000740000008A0000005C000000C8
:103740008A0000008A008A008A0000009B000000B6
:1037500067000000820000009B000000CF00000016
:103760009B000000CF000000740074007400000093
:10377000AE0000009B000000AE000000E900000069
:10378000AE000000CF00CF00CF000000E900000035
:1037900074000000CF000000E90000007400000089
:1037A0008A008A008A000000B8000000CF000000F4
:1037B00015010000B8000000E90000006700670084
:1037C000670000009B000000CF00000037010000F0
:1037D0001501000037010000E900000005010000AC
:1037E0003A003A003A0000004100000045000000A5
:1037F0005700000074000000820000008A000000F2
:10380000AE000000E9000000050100001501000005
:103810005D0100001501000005010000E900000045
:10382000AE0000005C005C005C000000670000006F
:10383000740000008A0000005C0000008A000000A4
:103840008A008A008A0000009B00000067000000D8
:10385000820000009B000000CF0000009B000000E1
:10386000CF0000007400740074000000AE0000007F
:103870009B000000AE000000E9000000AE00000068
:10388000CF00CF00CF000000E9000000740000006E
:10389000CF000000E9000000740000008A008A00E8
:1038A0008A000000B8000000CF00000015010000F1
:1038B000B8000000E9000000670067006700000032
:1038C0009B000000CF000000370100001501000040
:1038D00037010000E9000000050100003A003A004D
:1038E0003A003A0000004100000045000000570087
:1038F000000074000000820000008A000000AE009A
:103900000000E900000005010000150100005D0154
:1039100000001501000005010000E9000000AE00F4
:1039200000005C005C005C000000670000007400A8
:1039300000008A0000005C0000008A0000008A008D
:103940008A008A0000009B000000670000008200DF
:1039500000009B000000CF0000009B000000CF0093
:1039600000007400740074000000AE0000009B00B2
:103970000000AE000000E9000000AE000000CF0033
:10398000CF00CF000000E900000074000000CF006D
:103990000000E9000000740000008A008A008A002C
:1039A0000000B8000000CF00000015010000B800C2
:1039B0000000E900000067006700670000009B004E
:1039C0000000CF00000037010000150100003701A2
:1039D0000000E9000000050100003A003A003A004A
:1039E0000000410000004500000057000000740086
:1039F0000000820000008A000000AE000000E90024
:103A0000000005010000150100005D010000150126
:103A1000000005010000E9000000AE0000005C00AD
:103A20005C005C00000067000000740000008A0079
:103A300000005C0000008A0000008A008A008A0002
:103A400000009B00000067000000820000009B0057
:103A50000000CF0000009B000000CF0000007400B9
:103A6000740074000000AE0000009B000000AE0077
:103A70000000E9000000AE000000CF00CF00CF0042
:103A80000000E900000074000000CF000000E90021
:103A900000007400000045004500450000005C0087
:103AA0000000670000008A0000005C000000740055
:103AB000000033003300330000004D0000006700B9
:103AC00000009B0000008A0000009B0000007400C2
:103AD0000000820000003A003A003A000000410075
:103AE0000000450000005700000074000000820044
:103AF00000008A000000AE000000E900000005019F
:103B00000000150100005D01000015010000050125
:103B10000000E9000000AE0000005C005C005C00FA
:103B20005C00000067000000740000008A000000D4
:103B30005C0000008A0000008A008A008A00000001
:103B40009B00000067000000820000009B00000056
:103B5000CF0000009B000000CF0000007400740044
:103B600074000000AE0000009B000000AE000000EA
:103B7000E9000000AE000000CF00CF00CF00000041
:103B8000E900000074000000CF000000E900000020
:103B90007400000045004500450000005C00000086
:103BA000670000008A0000005C0000007400000054
:103BB00033003300330000004D00000067000000B8
:103BC0009B0000008A0000009B00000074000000C1
:103BD000820000003A003A003A003A00000041003A
:103BE0000000450000005700000074000000820043
:103BF00000008A000000AE000000E900000005019E
:103C00000000150100005D010000150115011501FE
:103C1000000005010000E9000000AE0000006100A6
:103C20006100610000006E0000007B000000920057
:103C300000006100000092000000920092009200DB
:103C40000000A40000006E0000008A000000A40034
:103C50000000DC000000A4000000DC0000007B008D
:103C60007B007B000000B8000000A4000000B8004A
:103C70000000F6000000B8000000DC00DC00DC0002
:103C80000000F60000007B000000DC000000F600F1
:103C900000007B000000490049004900000061006D
:103CA00000006E00000092000000610000007B0038
:103CB00000003700370037000000520000006E009F
:103CC0000000A400000092000000A40000007B009F
:103CD00000008A0000003D003D003D00000045005E
:103CE0000000490000005C0000007B0000008A002A
:103CF000000092000000B8000000F600000015016E
:103D000000002501000071010000250100001501DF
:103D10000000F6000000B8000000610061006100D2
:103D2000610000006E0000007B00000092000000B7
:103D300061000000920000009200920092000000DA
:103D4000A40000006E0000008A000000A400000033
:103D5000DC000000A4000000DC0000007B007B0011
:103D60007B000000B8000000A4000000B8000000C4
:103D7000F6000000B8000000DC00DC00DC00000001
:103D8000F60000007B000000DC000000F6000000F0
:103D90007B0000004900490049000000610000006C
:103DA0006E00000092000000610000007B00000037
:103DB0003700370037000000520000006E0000009E
:103DC000A400000092000000A40000007B0000009E
:103DD0008A0000003D003D003D003D000000450020
:103DE0000000490000005C0000007B0000008A0029
:103DF000000092000000B8000000F600000015016D
:103E000000002501000071010000250125012501A8
:103E1000000015010000F6000000B800000061007D
:103E20006100610000006E0000007B000000920055
:103E300000006100000092000000920092009200D9
:103E40000000A40000006E0000008A000000A40032
:103E50000000DC000000A4000000DC0000007B008B
:103E60007B007B000000B8000000A4000000B80048
:103E70000000F6000000B8000000DC00DC00DC0000
:103E80000000F60000007B000000DC000000F600EF
:103E900000007B0000009200920092000000C3002E
:103EA0000000DC00000025010000C3000000F60057
:103EB00000006E006E006E000000A4000000DC0038
:103EC0000000490100002501000049010000F60042
:103ED0000000150100003D003D003D0000004500D0
:103EE0000000490000005C0000007B0000008A0028
:103EF000000092000000B8000000F600000015016C
:103F000000002501000071010000250100001501DD
:103F10000000F6000000B8000000610061006100D0
:103F2000610000006E0000007B00000092000000B5
:103F300061000000920000009200920092000000D8
:103F4000A40000006E0000008A000000A400000031
:103F5000DC000000A4000000DC0000007B007B000F
:103F60007B000000B8000000A4000000B8000000C2
:103F7000F6000000B8000000DC00DC00DC000000FF
:103F8000F60000007B000000DC000000F6000000EE
:103F90007B00000092009200920092000000C3009B
:103FA0000000DC00000025010000C3000000F60056
:103FB00000006E006E006E000000A4000000DC0037
:103FC0000000490100002501000049010000F60041
:103FD0000000150100003D003D003D0000004500CF
:103FE0000000490000005C0000007B0000008A0027
:103FF000000092000000B8000000F600000015016B
:1040000000002501000071010000250100001501DC
:104010000000F6000000B8000000670067006700BD
:1040200000009B0000008A0000009B000000CF0001
:1040300000009B0000008A0000009B000000670059
:10404000670067000000A40000009B000000A400BF
:104050000000CF000000A40000009B000000A400AE
:1040600000006700670067000000AE000000A400C9
:104070000000AE000000CF000000AE000000A40071
:104080000000AE0000006700670067000000A400A9
:1040900000009B000000A4000000CF000000A4006E
:1040A00000009B000000A40000006700670067009C
:1040B00000009B0000008A0000009B000000CF0071
:1040C00000009B0000008A0000009B0000006700C9
:1040D000670067000000A40000009B000000A4002F
:1040E0000000CF000000A40000009B000000A4001E
:1040F00000006700670067000000AE000000A40039
:104100000000AE000000CF000000AE000000A400E0
:104110000000AE0000006700670067000000A40018
:1041200000009B000000A4000000CF000000A400DD
:1041300000009B000000A40000006700670067000B
:10414000670000009B0000008A0000009B00000048
:10415000CF0000009B0000008A0000009B000000D0
:104160006700670067000000A40000009B000000DB
:10417000A4000000CF000000A40000009B0000008D
:10418000A40000006700670067000000AE000000A8
:10419000A4000000AE000000CF000000AE00000050
:1041A000A4000000AE000000670067006700000088
:1041B000A40000009B000000A4000000CF0000004D
:1041C000A40000009B000000A4000000670067003E
:1041D000670000009B0000008A0000009B000000B8
:1041E000CF0000009B0000008A0000009B00000040
:1041F0006700670067000000A40000009B0000004B
:10420000A4000000CF000000A40000009B000000FC
:10421000A40000006700670067000000AE00000017
:10422000A4000000AE000000CF000000AE000000BF
:10423000A4000000AE0000006700670067000000F7
:10424000B8000000AE000000B8000000CF00000081
:10425000B8000000AE000000B80000005700570092
:10426000000082000000570000008200000057009C
:1042700000008A000000570000008A00000057007C
:10428000000092000000570000009200000057005C
:1042900000008A000000570000008A00000057005C
:1042A000000082000000570000008200000057005C
:1042B00000008A000000570000008A00000057003C
:1042C000000092000000570000009200000057001C
:1042D00000008A000000570000008A00000057001C
:1042E000000082000000570000008200000057001C
:1042F00000008A000000570000008A0000005700FC
:1043000000009200000057000000920000005700DB
:1043100000008A000000570000008A0000005700DB
:1043200000008200000057000000820000005700DB
:1043300000008A000000570000008A0000005700BB
:10434000000092000000570000009200000057009B
:1043500000009B000000570000009B0000008A0046
:104360008A008A008A008A008A000000CF000000CC
:104370008A000000CF0000008A0000008A008A0046
:104380008A0000009B000000E90000009B00000084
:10439000E90000009B000000820082008200000013
:1043A000C300000082000000C30000008200000083
:1043B00082008200820000008A000000CF0000001E
:1043C0008A000000CF0000008A0000007400740022
:1043D00074000000AE00000074000000AE00000099
:1043E000740000007400740074000000820000007B
:1043F000C300000082000000C30000008200000033
:104400008A008A008A000000CF0000008A000000B5
:10441000CF0000008A0000008A008A008A000000A5
:10442000A4000000E9000000A4000000E900000072
:10443000C30000008A008A008A000000CF0000004C
:104440008A000000CF0000008A0000008A008A0075
:104450008A0000009B000000E90000009B000000B3
:10446000E90000008200820082000000C30000001A
:1044700082000000C3000000820000008200820071
:10448000820000008A000000CF0000008A000000C7
:10449000CF0000008A000000740074007400000067
:1044A000AE00000074000000AE00000074000000C8
:1044B000740074007400000082000000C30000005B
:1044C00082000000C3000000820000008A008A0011
:1044D0008A008A000000CF0000008A000000CF00A0
:1044E00000008A0000008A008A008A0000009B0009
:1044F0000000E90000009B000000E9000000C3008C
:1045000000000000000000000000000000000000AB
:104510000000000000000000000028030000A704C5
:104520000000BC0400003B060000500600004F09DC
:10453000000078090000770C0000A00C0000DF0EDE
:104540000000FE0E0000BD0F0000C80F0000471164
:1045500000005C1100001B12000026120000E51292
:104560000000F01200006F140000841400004315D6
:1045700000004E1500000D16000018160000D7169A
:104580000000E2160000A1170000AC1700006B1835
:104590000000761800003519000040190000BF1A0D
:1045A0000000D41A0000531C0000681C0000E71D26
:1045B0000000FC1D0000BC1E0000C61E0000861F7F
:1045C0000000901F00008F220000B9220000B725D4
:1045D0000000E1250000202800003F280000FE2800
:1045E000000009290000882A00009D2A00005C2B99
:1045F0000000672B0000262C0000312C0000B02D9D
:104600000000C52D0000842E00008F2E00004E2FCC
:104610000000592F00001830000023300000E23065
:104620000000ED300000AC310000B7310000763200
:1046300000008132000080350000A93500002837D5
:1046400000003D370000BC380000D1380000CF44E6
:1046500000007E5000003D5100004851000007520C
:10466000000012520000115500003A550000395860
:10467000000062580000A15A0000C05A00007F5B91
:1046800000008A5B0000095D00001E5D0000DD5D2A
:104690000000E85D0000A75E0000B25E000031602F
:1046A0000000466000000661000010610000D0615B
:1046B0000000DB6100009A620000A56200006463F4
:1046C00000006F6300002E64000039640000F8648D
:1046D000000003650000826600009766000016680F
:1046E00000002B680000AA690000BF6900007E6A14
:1046F0000000896A0000486B0000536B0000526E96
:1047000000007B6E00007A710000A3710000E2736C
:10471000000001740000C0740000CB7400004A76F1
:1047200000005F7600001E77000029770000E87720
:104730000000F37700007279000087790000467A64
:104740000000517A0000107B00001B7B0000DA7B28
:104750000000E57B0000A47C0000AF7C00006E7DC3
:104760000000797D0000387E0000437E0000C28298
:10477000000000830000BF830000CA83000089841A
:1047800000009484000092870000BC870000BB8A70
:104790000000E48A0000238D0000428D0000018E9D
:1047A00000000C8E00008B8F0000A08F00005F9037
:1047B00000006A9000002991000034910000B3923B
:1047C0000000C8920000879300009293000051946B
:1047D00000005C9400001B95000026950000E59504
:1047E0000000F0950000AF960000BA96000079979F
:1047F0000000849700000399000018990000979A20
:104800000000AC9A00002B9C0000409C0000FF9C24
:1048100000000A9D0000C99D0000D49D0000D3A0A7
:104820000000FCA00000FBA3000025A4000063A67C
:10483000000083A6000042A700004DA70000CCA8FE
:104840000000E1A80000A0A90000ABA900006AAA2E
:10485000000075AA0000F4AB000009AC0000C8AC71
:104860000000D3AC000092AD00009DAD00005CAE36
:10487000000067AE000026AF000031AF0000F0AFCF
:104880000000FBAF0000BAB00000C5B00000C4B328
:104890000000EDB300006CB5000081B5000000B76A
:1048A000000015B7000093C10000B6C30000B6C3F6
:1048B0000000B7C3000075C4000080C400003FC5FD
:1048C00000004AC5000009C6000014C60000D3C697
:1048D0000000DEC600009DC70000A8C7000067C832
:1048E000000072C8000031C900003CC90000FBC9CB
:1048F000000006CA000007CA000007CA0000C5CAB7
:104900000000D0CA00008FCB00009ACB000059CC29
:10491000000064CC000023CD00002ECD0000EDCDC2
:104920000000F8CD0000B7CE0000C2CE000081CF5D
:1049300000008CCF00004BD0000056D0000057D0B4
:10494000000058D0000015D1000020D10000DFD1B8
:104950000000EAD10000A9D20000B4D2000073D355
:1049600000007ED300003DD4000048D4000007D5ED
:10497000000012D50000D1D50000DCD500005BD7C7
:10498000000070D700002FD800003AD80000F9D8F6
:10499000000004D90000C3D90000CED900008DDA90
:1049A000000098DA000057DB000062DB000021DC29
:1049B00000002CDC0000EBDC0000F6DC0000F7DC83
:1049C0000000F8DC0000B5DD0000C0DD00007FDE87
:1049D00000008ADE000049DF000054DF000013E021
:1049E00000001EE00000DDE00000E8E00000A7E1BC
:1049F0000000B2E1000072E200007CE200003CE353
:104A0000000046E3000047E3000048E3000006E43E
:104A1000000011E40000D0E40000DBE400009AE5AF
:104A20000000A5E5000064E600006FE600002EE748
:104A3000000039E70000F8E7000003E80000C2E8E2
:104A40000000CDE800008CE9000097E9000098E93B
:104A5000000098E9000056EA000061EA000020EB3F
:104A600000002BEB0000EAEB0000F5EB0000B4ECDB
:104A70000000BFEC00007EED000089ED000048EE74
:104A8000000053EE000012EF00001DEF00009CF04C
:104A90000000B1F0000070F100007BF100003AF27C
:104AA000000045F2000004F300000FF30000CEF315
:104AB0000000D9F3000098F40000A3F4000062F5B0
:104AC00000006DF500002CF6000037F6000038F607
:104AD000000039F60000F6F6000001F70000C0F70C
:104AE0000000CBF700008AF8000095F8000054F9A8
:104AF00000005FF900001EFA000029FA0000E8FA41
:104B00000000F3FA0000B2FB0000BDFB00007CFCDB
:104B1000000087FC000088FC000089FC000046FDC6
:104B2000000051FD000010FE00001BFE0000DAFE38
:104B30000000E5FE0000A4FF0000AFFF00006E00D3
:104B40000100790001003801010043010100020267
:104B500001000D020100CD020100D7020100D702C1
:104B60000100D8020100D902010097030100970358
:104B70000100A1030100610401006C0401002B0588
:104B8000010036050100F505010000060100BF0621
:104B90000100CA06010089070100940701005308BB
:104BA00001005E080100DD090100F2090100B10AFF
:104BB0000100BC0A01007B0B0100860B0100450CC3
:104BC0000100500C01000F0D01001A0D0100D90D5C
:104BD0000100E40D0100A30E0100AE0E01006D0FF7
:104BE0000100780F0100790F01007A0F01003710E2
:104BF000010042100100011101000C110100CB1154
:104C00000100D611010095120100A01201005F13EE
:104C100001006A1301002914010034140100F31487
:104C20000100FE140100BD150100C8150100C915E1
:104C30000100CA15010087160100921601005117E4
:104C400001005C1701001B18010026180100E5187F
:104C50000100F0180100AF190100BA190100791A1A
:104C60000100841A0100431B01004E1B01000D1CB2
:104C70000100181C0100191C0100162501009125D6
:104C80000100902601009E2601009D270100AB2710
:104C90000100AA280100E12B0100E22B0100602D98
:104CA0000100752D0100F42E0100092F01000A2FCB
:104CB00001000A2F0100883001009D3001001C32E4
:104CC0000100313201003232010033320100F03292
:104CD0000100FB320100BA330100C5330100843406
:104CE00001008F3401004E350100593501005A355D
:104CF00001005B3501001836010023360100E23661
:104D00000100ED3601006C38010081380100823865
:104D1000010083380100003A0100153A0100943B7C
:104D20000100A93B0100AA3B0100AB3B0100283D6B
:104D300001003D3D0100FC3D0100073E0100C63E73
:104D40000100D13E0100D23E0100D33E0100903F60
:104D500001009B3F01005A400100654001002441D1
:104D600001002F4101008E41010094410100F441F6
:104D70000100F9410100FA410100FB4101005942E3
:104D800001005E420100BE420100C3420100234314
:104D9000010028430100884301008D430100ED43D9
:104DA0000100F2430100524401005744010017453D
:104DB00001002145010022450100A0460100B64640
:104DC0000100354801004A480100C9490100DE4997
:104DD00001005D4B0100724B0100314C01003C4C65
:104DE0000100FB4C0100064D0100C54D0100D04DF6
:104DF00001008F4E01009A4E0100594F0100644F8F
:104E00000100235001002E500100AD510100C2519C
:104E100001004153010056530100D5540100EA54EA
:104E20000100695601007E5601003D5701004857B8
:104E300001000758010012580100115E0100625E76
:104E40000100E15F0100F65F0100756101008A6108
:104E50000100096301001E6301009D640100B2644A
:104E60000100726501007C6501003C660100476637
:104E700001000667010011670100D0670100DB67D0
:104E800001009A680100A5680100646901006F696A
:104E90000100EE6A0100036B0100826C0100976C57
:104EA0000100166E01002B6E0100AA6F0100BF6F9A
:104EB00001007E700100897001004871010053718A
:104EC0000100127201001D720100DC720100E77224
:104ED0000100A6730100B173010010740100167483
:104EE0000100757401007B740100DA740100E07444
:104EF00001003F75010045750100A4750100AA7508
:104F00000100097601000F7601006E7601007476CB
:104F10000100D3760100D976010098770100A377CC
:104F200001002279010037790100B67A0100CB7ABD
:104F300001004A7C01005F7C0100DE7D0100F37D01
:104F40000100B27E0100BD7E01007C7F0100877FF1
:104F500001004680010051800100108101001B8189
:104F60000100DA810100E5810100A4820100AF8225
:104F700001002E84010043840100C2850100D78511
:104F80000100568701006C870100EB880100008951
:104F90000100BF890100CA890100898A0100948A41
:104FA000010092900100E490010063920100789268
:104FB0000100F79301000C9401008B950100A0956E
:104FC00001001F9701003497010053980100639876
:104FD00001008299010092990100519A01005C9AA6
:104FE00001001B9B0100269B0100E59B0100F09B3B
:104FF00001006F9D010025AA0100A4AB0100B9AB1F
:10500000010038AD01004DAD0100CCAE0100E1AEB4
:10501000010060B0010075B0010094B10100A4B1BD
:105020000100C3B20100D3B2010092B301009DB3ED
:1050300001005CB4010067B4010026B5010031B580
:105040000100B0B6010015BD010014C001003DC053
:1050500001003CC3010065C30100E4C40100F9C4C0
:10506000010078C601008DC601000CC8010022C8ED
:105070000100A1C90100B6C90100D5CA0100E5CAF5
:10508000010004CC010014CC0100D3CC0100DECC23
:1050900001009DCD0100A8CD010067CE010072CEB8
:1050A0000100F1CF0100A6DC010025DE01003ADE9F
:1050B0000100B9DF0100CEDF01004DE1010062E136
:1050C0000100E1E20100F6E2010015E4010025E43F
:1050D000010044E5010054E5010013E601001EE66D
:1050E0000100DEE60100E8E60100A8E70100B2E702
:1050F000010031E9010097EF010096F20100BFF2D3
:105100000100BEF50100E7F5010066F701007BF73D
:105110000100FAF801000FF901008EFA010037FCD6
:10512000010056FD010066FD010085FE010095FEAF
:10513000010054FF01005FFF01001E000200290072
:105140000200E8000200F30002007202020087027F
:105150000200060402001B0402009A050200AF05CB
:1051600002002E07020043070200030802000D0898
:105170000200CD080200D808020097090200A20927
:105180000200610A02006C0A02002B0B0200360BBF
:105190000200950B02009B0B0200FA0B0200000CB0
:1051A00002005F0C0200650C0200C40C0200CA0C75
:1051B0000200290D02002F0D02008E0D0200940D39
:1051C0000200F30D0200F90D0200580E02005E0EFF
:1051D00002001D0F0200280F0200A7100200BC10E1
:1051E00002003B12020050120200CF130200E4132F
:1051F0000200631502007815020097160200A71638
:105200000200C6170200D617020095180200A01867
:1052100002005F1902006A190200291A0200341AFA
:105220000200B31B0200C81B0200471D02005C1DE8
:105230000200DB1E0200F01E02006F20020084202C
:105240000200432102004E2102000D22020018221A
:10525000020017250200402502003F2802006828AE
:10526000020066340200093502000B350200683581
:1052700002006E350200CD350200D3350200323611
:10528000020038360200973602009D360200FC36D6
:105290000200023702006137020067370200C6379A
:1052A0000200CC3702002B380200313802003238BD
:1052B0000200333802009038020096380200F538B8
:1052C0000200FB3802005A39020060390200BF397F
:1052D0000200C5390200243A02002A3A0200893A43
:1052E00002008F3A0200EE3A0200F43A0200533B09
:1052F0000200593B02005A3B02005B3B0200B83BF4
:105300000200BE3B02001D3C0200233C0200823C26
:105310000200883C0200E73C0200ED3C02004C3DEC
:105320000200523D0200B13D0200B73D0200163EB0
:1053300002001C3E02007B3E0200813E0200823ED3
:105340000200833E0200E03E0200E63E0200453FCE
:1053500002004B3F0200AA3F0200B03F02000F4094
:10536000020015400200744002007A400200D94059
:105370000200DF4002003E41020044410200A3411E
:105380000200A9410200AA410200AB41020008420A
:1053900002000E4202006D42020073420200D2423D
:1053A0000200D8420200374302003D4302009C4302
:1053B0000200A243020001440200074402006644C6
:1053C00002006C440200CB440200D1440200D244EB
:1053D0000200D344020030450200364502009545E4
:1053E00002009B450200FA450200004602006046AA
:1053F000020065460200C5460200CA4602002A476E
:1054000002002F4702008F47020094470200F44732
:105410000200F9470200FA470200FB470200594820
:1054200002005E480200BE480200C3480200234951
:10543000020028490200884902008D490200ED4916
:105440000200F3490200524A0200584A0200B74AD9
:105450000200BD4A02001C4B0200224B0200224BFC
:105460000200234B0200814B0200874B0200E64BF7
:105470000200EC4B02004B4C0200514C0200B04CBD
:105480000200B64C0200154D02001B4D02007A4D81
:105490000200804D0200DF4D0200E54D0200444E47
:1054A00002004A4E02004A4E02004B4E0200A94E34
:1054B0000200AF4E02000E4F0200144F0200734F65
:1054C0000200794F0200D84F0200DE4F02003D502B
:1054D000020043500200A2500200A85002000751EF
:1054E00002000D5102006C51020072510200735112
:1054F000020073510200D1510200D751020036520E
:1055000002003C5202009B520200A15202000053D2
:10551000020006530200655302006B530200CA5397
:105520000200D05302002F5402003554020094545C
:1055300002009A5402009B5402009C540200F95449
:105540000200FF5402005E55020064550200C3557C
:105550000200C9550200285602002E5602008D5640
:10556000020093560200F2560200F8560200575706
:1055700002005D570200BC570200C2570200C35729
:105580000200C45702002158020027580200865822
:1055900002008C580200EB580200F15802005059EA
:1055A000020056590200B5590200BB5902001A5AAE
:1055B0000200205A02007F5A0200855A0200E45A73
:1055C0000200EA5A0200EC5A0200495B02004F5BFB
:1055D0000200AE5B0200B45B0200135C0200195CC7
:1055E0000200785C02007E5C0200DD5C0200E35C8D
:1055F0000200425D0200485D0200A75D0200AD5D51
:1056000002000C5E0200125E0200135E0200145ED5
:105610000200715E0200775E0200D65E0200DC5E70
:1056200002003B5F0200415F0200A05F0200A65F34
:105630000200056002000B6002006A6002007060F8
:105640000200CF600200D5600200346102003A61BE
:1056500002003B6102003C610200996102009F610F
:105660000200FE61020004620200636202006962DD
:105670000200C8620200CE6202002D6302003363A2
:1056800002009263020098630200F7630200FD6368
:1056900002005C64020062640200636402006464ED
:1056A0000200C1640200C7640200266502002C6586
:1056B00002008B65020091650200F0650200F6654C
:1056C0000200556602005B660200BA660200C06610
:1056D00002002067020025670200856702008A67D2
:1056E00002008B6702008C670200EA670200EF6726
:1056F00002004F68020054680200B4680200B968F2
:105700000200196902001E6902007E6902008369B5
:105710000200E3690200E8690200486A02004D6A7B
:105720000200AD6A0200B36A0200B36A0200B46A02
:105730000200126B0200186B0200776B02007D6B97
:105740000200DC6B0200E26B0200416C0200476C5D
:105750000200A66C0200AC6C02000B6D0200116D21
:105760000200706D0200766D0200D56D0200DB6DE7
:105770000200DB6D0200DC6D02003A6E0200406E3A
:1057800002009F6E0200A56E0200046F02000A6F05
:105790000200696F02006F6F0200CE6F0200D46FCB
:1057A00002003370020039700200987002009E708F
:1057B0000200FD7002000371020004710200047116
:1057C00002006271020068710200C7710200CD71AF
:1057D00002002C7202003272020091720200977273
:1057E0000200F6720200FC7202005B730200617339
:1057F0000200C0730200C6730200257402002B74FD
:1058000002002C7402002C7402002C7402008A74B2
:10581000020090740200EF740200F57402005475E7
:1058200002005A750200B9750200BF7502001E76AB
:105830000200247602008376020089760200E87670
:105840000200EE7602004D77020053770200547793
:10585000020055770200B2770200B877020017788D
:1058600002001D7802007C78020082780200E17854
:105870000200E7780200467902004C790200AB7919
:105880000200B1790200107A0200167A0200757ADD
:1058900002007B7A02007C7A02007D7A0200DA7ACA
:1058A0000200E07A02003F7B0200457B0200A47BFD
:1058B0000200AA7B0200097C02000F7C02006E7CC1
:1058C0000200747C0200D37C0200D97C0200387D87
:1058D00002003E7D02009D7D0200A37D0200A47DAA
:1058E0000200A57D0200027E0200087E0200677EA3
:1058F00002006D7E0200CC7E0200D27E0200317F6B
:105900000200377F0200967F02009C7F0200FB7F2F
:105910000200018002006080020066800200C580F3
:105920000200CB800200CC800200CD8002002A81E0
:105930000200308102008F81020095810200F48113
:105940000200FA810200598202005F820200BE82D8
:105950000200C4820200238302002983020088839C
:1059600002008E830200ED830200F3830200F483C1
:105970000200F58302005284020058840200B784BA
:105980000200BD8402001C85020022850200818580
:10599000020087850200E6850200EC8502004B8646
:1059A000020051860200B0860200B686020015870A
:1059B00002001B8702001C8702001C8702001C8754
:1059C00002001D8702001D8702001D8702007B87E1
:1059D000020080870200E0870200E5870200458818
:1059E00002004A880200AA880200AF8802000F89DC
:1059F0000200148902007489020079890200D989A1
:105A00000200DE8902003E8A0200438A0200448AC4
:105A10000200448A0200448A0200458A0200458A44
:105A20000200458A0200A38A0200A88A0200088BAD
:105A300002000E8B02006D8B0200738B0200D28B72
:105A40000200D88B0200978C0200A28C0200618DAC
:105A500002006C8D02006A90020094900200939301
:105A60000200BC930200FB9502001A960200D99630
:105A70000200E496020063980200789802003799C9
:105A8000020042990200019A02000C9A02008B9BCC
:105A90000200A09B02005F9C02006A9C0200299DFC
:105AA0000200349D0200F39D0200FE9D0200BD9E97
:105AB0000200C89E0200879F0200929F020051A030
:105AC00002005CA00200DBA10200F0A102006FA3B3
:105AD000020084A3020003A5020018A50200D7A5B6
