:100000000C94BC1D0C94E41D0C94E41D0C94E41D94
:100010000C94E41D0C94E41D0C94E41D0C949A20A3
:100020000C94E41D0C94E41D0C94E41D0C94E92044
:100030000C94E41D0C94E41D0C9444210C94E41DD8
:100040000C9450200C94E41D0C941E200C94F81F6A
:100050000C94E41D0C94E41D0C94E41D0C94E41D1C
:100060000C94E41D0C94E41D00000000030000004B
:10007000AA000000B1000000570100005701000075
:10008000FA010000FB0100009F020000470300008E
:10009000E7030000EC0300008A0400009004000065
:1000A0002C05000036050000DE050000E705000015
:1000B0008C0600008C0600003007000030070000AE
:1000C000D40700007C0800001D0900002109000081
:1000D000BF090000C5090000610A00006C0A0000A9
:1000E000130B00001C0B0000C10B0000C10B000033
:1000F000650C0000660C00000A0D00000C0D0000ED
:10010000AF0D0000B20D0000520E0000560E0000B0
:10011000F50E0000FA0E0000960F0000A10F00007F
:100120004810000051100000F7100000F710000008
:100130009A1100009B1100003F120000E71200001E
:10014000871300008C130000D6140000D6140000A2
:100150007E150000871500002C1600002C160000EC
:10016000D0160000D0160000741700001C18000004
:10017000BD180000C11800005F19000065190000DB
:10018000011A00000C1A0000B31A0000BC1A00008B
:10019000611B0000611B0000051C0000061C000024
:1001A000AA1C0000521D0000F21D0000F61D0000F8
:1001B000951E00009A1E0000361F00003F1F000021
:1001C000D9210000DA210000742400007624000008
:1001D0001E25000027250000CC250000CC250000AE
:1001E000702600007026000014270000AA290000D5
:1001F000DF2E0000862F00002C3000002D30000084
:10020000D3300000D3300000793100007A31000093
:100210002032000015340000AF360000AF36000079
:10022000493900004A390000313D00007F3E00009E
:10023000194100001A410000B4430000B54300001A
:100240004F4600004F460000E9480000374A0000D2
:10025000844B0000D24C00001F4E0000565300009B
:10026000FD53000007540000AC540000AC540000E3
:100270005055000050550000F4550000F6550000A0
:100280009A5600009C5600003D5700003D57000064
:10029000E3570000E3570000895800008B58000026
:1002A000335900003C590000E1590000E1590000B9
:1002B000855A0000865A00002A5B00002C5B000073
:1002C000CF5B0000D25B0000725C0000725C00003B
:1002D000185D0000195D0000BF5D0000C15D0000F9
:1002E000685E0000715E0000165F0000165F00008F
:1002F000BA5F0000BB5F00005F600000616000004B
:100300000461000007610000A7610000A761000010
:100310004D6200004E620000F4620000F6620000D0
:100320009D630000A76300004C6400004C64000063
:10033000F0640000F0640000946500009665000021
:100340003A6600003C660000DD660000E1660000E1
:100350007F67000085670000216800002B680000AF
:10036000D3680000DC68000081690000816900003A
:10037000256A0000266A0000CA6A0000CC6A0000F4
:100380006F6B0000726B0000126C0000126C0000BA
:10039000B86C0000B96C00005F6D0000616D00007A
:1003A000086E0000116E0000B66E0000B66E000010
:1003B0005A6F00005B6F0000FF6F000001700000CB
:1003C000A4700000A7700000477100004C7100008D
:1003D000EA710000EF7100008C720000967200005C
:1003E0003D73000046730000EC730000EC730000E6
:1003F00090740000907400003475000036750000A1
:10040000DA750000DC7500007D7600007D76000066
:100410002377000023770000C9770000CA77000027
:10042000707800007C7800002179000021790000BC
:10043000C5790000C67900006A7A00006C7A000075
:100440000F7B0000127B0000B27B0000B67B000037
:10045000557C00005A7C0000F67C0000017D000005
:10046000A87D0000B17D0000567E0000567E000091
:10047000FA7E0000FB7E00009F7F0000A17F00004D
:100480004480000047800000E7800000E780000013
:100490008D8100008E8100003482000036820000D1
:1004A000DD820000E68200008C8300008C83000067
:1004B0003084000030840000D4840000D684000022
:1004C0007A8500007C8500001D86000021860000E2
:1004D000BF860000C5860000618700006B870000B2
:1004E000138800001C880000C1880000C18800003B
:1004F00065890000668900000A8A00000C8A0000F5
:10050000AF8A0000B28A0000528B0000568B0000B8
:10051000F58B0000FA8B0000968C0000A18C000087
:10052000488D0000518D0000F68D0000F68D000012
:100530009A8E00009B8E00003F8F0000418F0000CC
:10054000E48F0000E78F0000879000008C9000008F
:100550002A9100002F910000CC910000D69100005C
:100560007D920000869200002C9300002C930000E6
:10057000D0930000D09300007494000076940000A3
:10058000199500001C950000BD950000BD95000068
:100590006396000063960000099700000B97000027
:1005A000B3970000BC9700006198000061980000BC
:1005B0000599000006990000AA990000AC99000076
:1005C0004F9A0000529A0000F29A0000F69A00003A
:1005D000959B00009A9B0000369C00003F9C000009
:1005E000929C0000939C0000E59C0000399D000057
:1005F0008C9D00008D9D0000DF9D0000339E00005B
:10060000869E0000879E0000D99E0000819F00000A
:1006100027A0000027A00000CDA00000CEA0000071
:1006200074A1000075A100001BA200001BA2000025
:10063000C1A20000C2A2000068A3000070A30000D5
:10064000C1A30000C1A3000016A40000ABA60000D7
:1006500053A700005CA7000001A8000001A800004B
:10066000A5A80000A6A800004AA900004CA9000007
:10067000EFA90000F2A9000092AA000096AA0000CB
:1006800034AB00003AAB0000D6AB0000E1AB000099
:1006900088AC000091AC000036AD000036AD000023
:1006A000DAAD0000DBAD00007FAE000081AE0000DF
:1006B00024AF000027AF0000C7AF0000CBAF0000A1
:1006C0006AB000006FB000000CB1000016B100006D
:1006D000BDB10000C6B100006CB200006CB20000F9
:1006E00010B3000010B30000B4B30000B6B30000B4
:1006F00059B400005CB40000FDB4000001B5000076
:100700009FB50000A5B5000041B600004BB6000043
:10071000F3B60000FCB6000097B7000097B70000E2
:100720003DB8000046B80000EAB80000ECB8000090
:100730008FB9000092B9000032BA000036BA00004A
:10074000D4BA0000DABA000076BB000081BB00001A
:1007500028BC000031BC0000D6BC0000D6BC0000A4
:100760007ABD00007BBD00001FBE000021BE00005E
:10077000C4BE0000C7BE000067BF00006BBF000022
:100780000AC000000FC00000ACC00000B6C00000EE
:100790005DC1000066C100000CC200000CC2000078
:1007A000B0C20000B0C2000054C3000056C3000035
:1007B000F9C30000FCC300009DC40000A1C40000F8
:1007C0003FC5000045C50000E1C50000EBC50000C5
:1007D00091C6000091C6000037C7000037C700006F
:1007E000DDC70000DEC7000084C8000085C8000027
:1007F0002BC900002BC90000D1C90000D2C90000DC
:1008000078CA000079CA00001FCB000021CB00008D
:10081000C8CB0000D1CB000076CC000076CC000025
:1008200013CD000013CD0000B9CD0000BACD0000FB
:1008300060CE000061CE000007CF000007CF0000AF
:10084000ADCF0000AECF000054D0000056D0000065
:10085000FDD0000006D10000ACD10000ACD10000FA
:1008600050D2000050D20000F4D20000F6D20000B6
:1008700099D300009CD300003DD4000041D4000077
:10088000DFD40000E5D4000081D500008BD5000046
:1008900033D600003CD60000E1D60000E1D60000CF
:1008A00085D7000086D7000029D800002CD800008A
:1008B000CFD80000D2D8000072D9000076D900004D
:1008C00014DA00001ADA0000B6DA0000C1DA00001B
:1008D00068DB000071DB000016DC000016DC0000A5
:1008E000BADC0000BBDC00005FDD000061DD000061
:1008F00004DE000007DE0000A7DE0000ABDE000023
:100900004ADF00004FDF0000ECDF0000F6DF0000F0
:100910009DE00000A6E0000042E1000042E100008E
:10092000E8E10000F0E1000094E2000096E200003F
:1009300039E300003CE30000DDE30000E1E30000F8
:100940007FE4000085E4000021E500002AE50000C6
:1009500094EF000095EF000088F1000090F1000096
:100960002FF200002FF2000023F4000025F4000015
:10097000C1F40000CAF40000BDF60000BEF600009D
:1009800064F7000065F700005EF80000FFF9000062
:1009900040FD000047FD0000E7FD0000EBFD00000A
:1009A0008AFE00008FFE00002CFF000035FF0000D3
:1009B00029010100290101001D0301001D0301009F
:1009C000690401006A040100AB070100B1070100DE
:1009D0005208010056080100F4080100FA0801005D
:1009E0009F0901009F090100870D01008B0D010087
:1009F000D50E0100D50E0100151201001C120100D8
:100A0000BD120100BD120100091401000A14010009
:100A1000FD150100FE150100A4160100A516010038
:100A2000F1170100F21701003F1901003F19010001
:100A3000D91B0100DA1B0100741E0100751E0100A4
:100A40000F2101000F210100A9230100AB230100A8
:100A5000532401005C24010001250100012501004F
:100A60009E2501009E250100442601004B26010021
:100A7000EF260100F12601009227010096270100D0
:100A8000342801003A280100D6280100E12801009D
:100A90008829010091290100362A0100362A010027
:100AA000DA2A0100DB2A01007F2B0100812B0100E3
:100AB000242C0100272C0100C72C0100CB2C0100A5
:100AC0006A2D01006F2D01000B2E0100162E010072
:100AD000BD2E0100C62E01006C2F01006C2F0100FD
:100AE0000930010009300100AE300100B6300100CC
:100AF000593101005C310100FD310100013201007A
:100B00009F320100A5320100413301004B33010047
:100B1000F1330100F13301009634010097340100F4
:100B20003D3501003E350100E4350100EB350100A3
:100B30008F3601009136010032370100363701004F
:100B4000D4370100DA37010076380100813801001E
:100B50002839010031390100D6390100D6390100A8
:100B6000733A0100733A0100193B0100213B010077
:100B7000C43B0100C73B0100673C01006B3C010026
:100B80000A3D01000F3D0100AB3D0100B63D0100F3
:100B90005B3E01005B3E0100013F01000C3F010094
:100BA000AF3F0100B03F010054400100564001003A
:100BB000F9400100FC4001009D410100A1410100FC
:100BC0003F42010045420100E1420100EB420100C9
:100BD000934301009C430100414401004144010052
:100BE000E5440100E5440100894501008B45010011
:100BF0002F46010031460100D2460100D6460100D1
:100C0000744701007A47010016480100214801009D
:100C1000C8480100D14801006C4901006C4901003D
:100C2000124A01001B4A0100BF4A0100C14A0100EB
:100C3000644B0100674B0100074C01000B4C0100A5
:100C4000AA4C0100AF4C01004B4D0100564D010074
:100C5000FD4D0100064E0100AC4E0100AC4E0100FE
:100C6000484F0100484F0100EE4F0100F64F0100D0
:100C7000995001009C5001003C510100415101007C
:100C8000DF510100E5510100815201008B5201004A
:100C9000335301003C530100E1530100E1530100D3
:100CA0008554010085540100295501002B55010090
:100CB000CF550100D1550100725601007656010052
:100CC000145701001A570100B6570100C15701001F
:100CD00068580100715801001659010016590100A9
:100CE000B3590100B3590100595A0100615A01007A
:100CF000045B0100075B0100A75B0100AB5B010027
:100D00004A5C01004F5C0100EB5C0100F65C0100F5
:100D10009B5D01009B5D0100415E0100425E0100A0
:100D2000E85E0100E85E01008E5F0100965F010051
:100D3000396001003C600100DC600100E1600100FD
:100D40007F61010085610100216201002B620100C9
:100D5000D3620100DC620100816301008163010054
:100D60001E6401001E640100C4640100CB64010024
:100D70006F650100716501001266010016660100D1
:100D8000B4660100BA6601005667010061670100A0
:100D90000868010011680100B6680100B66801002A
:100DA0005A6901005B690100FF690100016A0100E5
:100DB000A46A0100A76A0100476B01004B6B0100A8
:100DC000EA6B0100EF6B01008B6C0100E26D01002A
:100DD0002E6F01007C700100C971010001770100D4
:100DE000A8770100B177010056780100567801001C
:100DF000FA780100FB7801009F790100A1790100D8
:100E0000447A0100477A0100E77A0100E77A01009D
:100E10008D7B01008E7B0100347C0100367C01005B
:100E2000DD7C0100E67C01008B7D01008B7D0100F3
:100E30002F7E0100307E0100D47E0100D67E0100AD
:100E4000797F01007C7F01001C800100218001006E
:100E5000BF800100C4800100618101006B8101003D
:100E6000138201001C820100C1820100C1820100C5
:100E70006583010065830100098401000B84010082
:100E8000AF840100B1840100528501005285010048
:100E9000F8850100F88501009E860100A08601000A
:100EA0004887010051870100F6870100F68701009D
:100EB0009A8801009B8801003F8901004189010057
:100EC000E4890100E7890100878A01008B8A01001B
:100ED0002A8B01002F8B0100CB8B0100D68B0100E8
:100EE0007D8C0100868C01002B8D01002B8D010073
:100EF000CF8D0100D08D0100748E0100768E01002F
:100F0000198F01001C8F0100BC8F0100BC8F0100F4
:100F10006290010063900100099101000B910100B2
:100F2000B3910100BC910100619201006192010046
:100F30000593010005930100A9930100AB93010003
:100F40004F94010051940100F2940100F6940100C5
:100F5000949501009A950100369601004096010093
:100F6000E8960100F196010096970100969701001E
:100F70003A9801003B980100DF980100E1980100D8
:100F80008499010087990100279A0100279A01009E
:100F9000CD9A0100CE9A0100749B0100749B010060
:100FA0001A9C0100269C0100CB9C0100CB9C0100F7
:100FB0006F9D0100709D0100149E0100169E0100AE
:100FC000B99E0100BC9E01005C9F0100619F010071
:100FD000FF9F010004A00100A1A00100ABA001003F
:100FE00052A101005CA1010001A2010001A20100C7
:100FF000A5A20100A5A2010049A301004BA3010085
:10100000EFA30100F1A3010092A4010092A401004A
:1010100038A5010038A50100DEA50100E0A501000A
:1010200088A6010091A6010036A7010036A701009D
:10103000DAA70100DBA701007FA8010081A8010059
:1010400024A9010027A90100C7A90100CBA901001B
:101050006AAA01006FAA01000BAB010016AB0100E8
:10106000BDAB0100C6AB01006BAC01006BAC010075
:101070000FAD010010AD0100B4AD0100B6AD01002F
:1010800059AE01005CAE0100FCAE0100FCAE0100F7
:10109000A2AF0100A3AF010049B001004BB00100B5
:1010A000F2B00100FCB00100A1B10100A1B101004A
:1010B00045B2010045B20100E9B20100EBB2010006
:1010C0008FB3010091B3010032B4010036B40100C6
:1010D000D4B40100DAB4010076B5010080B5010096
:1010E00028B6010031B60100D6B60100D6B601001F
:1010F0007AB701007BB701001FB8010021B80100D9
:10110000C4B80100C7B8010067B9010067B90100A0
:101110000DBA01000EBA0100B4BA0100B6BA01005E
:101120005DBB010066BB01000BBC01000BBC0100F4
:10113000AFBC0100B0BC010054BD010056BD0100B0
:10114000F9BD0100FCBD01009CBE0100A1BE010073
:101150003FBF010044BF0100E1BF0100EABF010041
:101160003CC001003DC0010090C00100E4C001008E
:1011700036C1010037C101008AC10100DEC1010092
:1011800030C2010031C2010084C201002BC3010042
:10119000D1C30100D2C3010078C4010078C40100AA
:1011A0001EC501001FC50100C5C50100C6C501005F
:1011B0006CC601006CC6010012C701001BC701000C
:1011C0006BC701006BC70100C0C701000000DC0055
:1011D0000000E9000000F600000005010000050124
:1011E0000000F6000000E9000000DC000000E9005B
:1011F0000000F60000000501000005010000F600F7
:101200000000E9000000AE000000C3000000CF00B5
:101210000000DC000000E9000000050100002501DD
:101220000000E9000000490100002501000005015F
:101230000000C30000000501000005010000DC0003
:101240000000E9000000F6000000050100000501B3
:101250000000F600000005010000D2010000B80106
:10126000000087010000B8010000250100004901CD
:101270000000710100008701000087010000B80133
:1012800000009F010000870100005D010000DC00FC
:1012900000004B020000BA02000070030000960438
:1012A00000005D01000049010000490100009200BA
:1012B0000000820000007B0000006100000074005C
:1012C00000008200000049000000AE00000049005C
:1012D0000000AE00000049000000AE000000490020
:1012E0000000AE00000049000000AE000000490010
:1012F0000000AE00000049000000AE000000490000
:101300000000AE00000049000000AE0000004900EF
:101310000000AE00000049000000AE0000004900DF
:101320000000AE00000049000000AE0000004900CF
:101330000000AE00000049000000AE0000004100C7
:101340000000A40000003A000000920000003A00F3
:101350000000920000003A000000920000003A00F5
:101360000000920000003A000000920000003A00E5
:101370000000920000003A000000920000003A00D5
:101380000000920000003A000000920000003A00C5
:101390000000920000003A000000920000003A00B5
:1013A00000009200000037000000820000003700BB
:1013B00000008200000041000000820000004500A3
:1013C00000008A00000049000000AE000000490053
:1013D0000000AE00000049000000AE00000049001F
:1013E0000000AE00000049000000AE00000049000F
:1013F0000000AE00000049000000AE0000004900FF
:101400000000AE00000049000000AE0000004900EE
:101410000000AE00000049000000AE0000004900DE
:101420000000AE00000049000000AE0000004900CE
:101430000000AE00000049000000AE0000004100C6
:101440000000A40000003A000000920000003A00F2
:101450000000920000003A000000920000003A00F4
:101460000000920000003A000000920000003A00E4
:101470000000920000003A000000920000003A00D4
:101480000000920000009B0000009B000000920002
:101490000000920000008200000082000000920024
:1014A00000009B00000082000000920000009200FB
:1014B000000092000000820000009200000049003D
:1014C0000000AE00000049000000AE00000049002E
:1014D0000000AE00000049000000AE000000370030
:1014E000000082000000370000008200000037008A
:1014F00000008200000037000000820000003A0077
:101500000000920000003A000000920000003A0043
:101510000000920000003A0000009200000041002C
:101520000000A400000041000000A40000004100F1
:101530000000A400000041000000A40000004900D9
:101540000000AE00000049000000AE0000004900AD
:101550000000AE00000049000000AE0000003700AF
:101560000000820000003700000082000000370009
:1015700000008200000037000000820000003A00F6
:101580000000920000003A000000920000004100BC
:101590000000A400000041000000A4000000490079
:1015A0000000B800000049000000B8000000490039
:1015B0000000B800000049000000B8000000490029
:1015C0000000AE00000049000000AE00000049002D
:1015D0000000AE00000049000000AE00000037002F
:1015E0000000820000003700000082000000370089
:1015F00000008200000037000000820000003A0076
:101600000000920000003A000000920000003A0042
:101610000000920000003A0000009200000041002B
:101620000000A400000041000000A40000004100F0
:101630000000A400000041000000A400000092008F
:1016400000007400000074000000820000008200AE
:101650000000490100002501000025010000610093
:101660000000300000006100000030000000370082
:1016700000006E000000370000003D0000007B000D
:1016800000003D0000002E0000005C0000005C0037
:101690000000610000003000000061000000520006
:1016A00000005200000052000000520000006E00D6
:1016B00000006E0000006E0000006E000000490097
:1016C0000000AE00000049000000AE00000049002C
:1016D0000000AE00000049000000AE00000049001C
:1016E0000000AE00000049000000AE00000049000C
:1016F0000000AE00000049000000AE0000003A000B
:101700000000920000003A0000009200000041003A
:101710000000A400000041000000A4000000370009
:1017200000008A000000370000008A000000370037
:1017300000008A000000370000008A000000490015
:101740000000AE00000049000000AE0000004100B3
:101750000000A400000041000000A40000003D00C3
:101760000000920000003D000000920000003000E8
:1017700000007B000000300000007B0000003A0009
:101780000000920000003A000000920000004100BA
:101790000000A400000041000000A4000000490077
:1017A0000000B800000049000000B8000000490037
:1017B0000000B800000049000000B8000000490027
:1017C0000000AE00000049000000AE00000049002B
:1017D0000000AE00000049000000AE00000049001B
:1017E0000000AE00000049000000AE00000049000B
:1017F0000000AE00000049000000AE0000003A000A
:101800000000920000003A00000092000000410039
:101810000000A400000041000000A4000000370008
:1018200000008A000000370000008A000000370036
:1018300000008A000000370000008A000000490014
:101840000000AE00000049000000AE0000004100B2
:101850000000A400000041000000A40000003D00C2
:101860000000920000003D000000920000003000E7
:1018700000007B000000300000007B0000007400CE
:1018800000008200000049000000AE000000490096
:101890000000AE00000049000000AE00000049005A
:1018A0000000AE00000049000000AE00000049004A
:1018B0000000AE00000049000000AE00000049003A
:1018C0000000AE00000049000000AE00000049002A
:1018D0000000AE00000049000000AE00000049001A
:1018E0000000AE00000049000000AE00000049000A
:1018F0000000AE00000049000000AE000000410002
:101900000000A40000003A000000920000003A002D
:101910000000920000003A000000920000003A002F
:101920000000920000003A000000920000003A001F
:101930000000920000003A000000920000003A000F
:101940000000920000003A000000920000003A00FF
:101950000000920000003A000000920000003A00EF
:1019600000009200000037000000820000003700F5
:1019700000008200000041000000820000004500DD
:1019800000008A00000049000000AE00000049008D
:101990000000AE00000049000000AE000000490059
:1019A0000000AE00000049000000AE000000490049
:1019B0000000AE00000049000000AE000000490039
:1019C0000000AE00000049000000AE000000490029
:1019D0000000AE00000049000000AE000000490019
:1019E0000000AE00000049000000AE000000490009
:1019F0000000AE00000049000000AE000000410001
:101A00000000A40000003A000000920000003A002C
:101A10000000920000003A000000920000003A002E
:101A20000000920000003A000000920000003A001E
:101A30000000920000003A000000920000003A000E
:101A40000000920000009B0000009B00000092003C
:101A5000000092000000820000008200000092005E
:101A600000009B0000008200000092000000920035
:101A700000009200000082000000920000000000C0
:101A8000000001000000020000000300000004004C
:101A9000000005000000AA000000B100000057018E
:101AA000000057010000FA010000FB0100009F0246
:101AB000000047030000E7030000EC0300008A0475
:101AC0000000900400002C05000036050000DE0533
:101AD0000000E70500008C0600008C0600003007BF
:101AE000000030070000D40700007C0800001D093A
:101AF000000021090000BF090000C5090000610ABB
:101B000000006C0A0000130B00001C0B0000C10B4E
:101B10000000C10B0000650C0000660C00000A0DFF
:101B200000000C0D0000AF0D0000B20D0000520EC1
:101B30000000560E0000F50E0000FA0E0000960F91
:101B40000000A10F00004810000051100000F71025
:101B50000000F71000009A1100009B1100003F12D6
:101B60000000D61400007E150000871500002C161A
:101B700000002C160000D0160000D01600007417CC
:101B800000001C180000BD180000C11800005F19FB
:101B9000000065190000011A00000C1A0000B31AB9
:101BA0000000BC1A0000611B0000611B0000051C46
:101BB0000000061C0000AA1C0000521D0000F21DBF
:101BC0000000F61D0000951E00009A1E0000361F42
:101BD0000000411F0000E81F0000F11F00009720D7
:101BE0000000972000003A2100003B210000DA218C
:101BF0000000DA2100008022000087220000272355
:101C000000002C230000CA230000D02300006C2415
:101C10000000762400001E25000027250000CC25AA
:101C20000000CC250000702600007026000014275C
:101C30000000B62700005C2800005D280000032992
:101C4000000003290000A9290000AA2900009D2BFB
:101C500000009E2B0000442C00004C2C0000EF2CB8
:101C60000000F22C0000922D0000962D0000352E71
:101C700000003A2E0000D62E0000E12E0000882F32
:101C8000000027320000C7320000CC3200006A3367
:101C90000000703300000C340000153400000836DA
:101CA000000009360000AF360000AF36000055379F
:101CB00000005C370000FD370000013800009F384D
:101CC0000000A5380000413900004B390000F3390D
:101CD0000000FC3900004D3A00004D3A0000A13AE6
:101CE0000000A13A0000F53A0000F53A0000463B3A
:101CF0000000463B0000963B0000963B0000EB3B9B
:101D00000000EC3B00008F3C0000323D00007F3EB5
:101D100000007F3E00007340000073400000194146
:101D200000001A410000C0410000C74100006742A6
:101D300000006C4200000A4300000F430000AC4367
:101D40000000B64300005E44000067440000B34456
:101D50000000B8440000064500000C450000B045F6
:101D60000000B04500004F4600004F460000F54619
:101D70000000FC4600009D470000A14700003F48CE
:101D8000000045480000E1480000EB48000093498E
:101D900000009C490000414A0000414A0000E54A19
:101DA0000000E64A00008A4B00008C4B00002F4CDC
:101DB0000000324C0000D24C0000D64C0000754DA3
:101DC00000007A4D0000164E00001F4E00006C4FC0
:101DD00000006D4F0000B9500000C1500000645178
:101DE000000067510000075200000C520000AA5288
:101DF000000056530000FD53000007540000AC548F
:101E00000000AC54000049550000495500009556AB
:101E100000009C5600003D570000415700009457B9
:101E2000000094570000E4570000E55700003258C6
:101E3000000036580000855800008B5800003359C8
:101E400000003C590000E1590000E15900007E5AB1
:101E500000007E5A0000CB5B0000D25B0000725C89
:101E60000000765C0000155D00001A5D0000B65DA4
:101E70000000C15D0000685E0000715E0000165F3A
:101E80000000165F0000B35F0000B35F0000006158
:101E9000000007610000A7610000AC610000FE6166
:101EA0000000FF6100004F6200004F6200009D6271
:101EB0000000A1620000EF620000F66200009D6376
:101EC0000000A76300004C6400004C640000E9645B
:101ED0000000E9640000356600003C660000DD6635
:101EE0000000E16600007F67000085670000216850
:101EF00000002B680000D3680000DC6800008169E6
:101F00000000816900001E6A00001E6A00006B6B01
:101F10000000726B0000126C0000166C0000696C0F
:101F200000006A6C0000B96C0000BA6C0000076D1C
:101F300000000B6D00005A6D0000616D0000086E1E
:101F40000000116E0000B66E0000B66E0000536F08
:101F50000000536F0000A0700000A77000004771E0
:101F600000004C710000EA710000EF7100008C72FB
:101F70000000967200003D73000046730000EC7391
:101F80000000EC7300008974000089740000D575AE
:101F90000000DC7500007D76000081760000D476BC
:101FA0000000D476000024770000257700007277C7
:101FB000000076770000C4770000CA7700001D7823
:101FC00000001D780000707800007178000017791B
:101FD000000021790000C5790000C67900006A7A06
:101FE00000006C7A00000F7B0000127B0000B27BC7
:101FF0000000B67B0000557C00005A7C0000F67C97
:102000000000017D0000A87D0000B17D0000567E2B
:102010000000567E0000F37E0000F37E000040804A
:10202000000047800000E7800000EC8000003E8157
:1020300000003F8100008F8100008F810000DD8162
:102040000000E18100002F82000036820000DD8266
:102050000000E68200008C8300008C83000029844D
:10206000000029840000758500007C8500001D8625
:10207000000021860000BF860000C5860000618741
:1020800000006B870000138800001C880000C188D6
:102090000000C18800005E8900005E890000AB8AF4
:1020A0000000B28A0000528B0000568B0000A98B02
:1020B0000000AA8B0000F98B0000FA8B0000478C0F
:1020C00000004B8C00009A8C0000A18C0000488D11
:1020D0000000518D0000F68D0000F68D0000938EFB
:1020E0000000938E0000E08F0000E78F00008790D3
:1020F00000008C9000002A9100002F910000CC91EC
:102100000000D69100007D920000869200002C9382
:1021100000002C930000C9930000C993000015959E
:1021200000001C950000BD950000C19500001396AD
:102130000000149600006496000065960000B296B8
:102140000000B6960000049700000B970000B397BC
:102150000000BC9700006198000061980000FE98A4
:102160000000FE9800004B9A0000529A0000F29A7C
:102170000000F69A0000959B00009A9B0000369C98
:1021800000003F9C0000929C0000939C0000E59C96
:102190000000399D00008C9D00008D9D0000DF9D9A
:1021A0000000339E0000869E0000879E0000D99E9E
:1021B0000000819F000027A0000027A00000CDA004
:1021C0000000CEA0000074A1000075A100001BA2B9
:1021D00000001BA20000C1A20000C2A2000068A370
:1021E000000070A30000C1A30000C1A3000016A45A
:1021F000000061A50000FFA50000AAA6000050A7EE
:10220000000051A70000F7A70000F7A700009DA855
:102210000000A6A8000045A9000045A90000DFAB0A
:102220000000DFAB000085AC000086AC00002CADE8
:1022300000002DAD0000D3AD0000DBAD00007AAE94
:1022400000007AAE000014B1000015B10000BBB16F
:102250000000BBB1000061B2000062B2000008B330
:10226000000010B30000AFB30000AFB30000FCB437
:10227000000001B500009FB50000A5B5000041B603
:1022800000004AB6000097B7000097B70000E4B816
:102290000000E5B800007FBB00007FBB000025BC4C
:1022A000000026BC0000CCBC0000CDBC000073BD0B
:1022B00000007BBD00001ABE00001ABE0000B4C0C2
:1022C0000000B5C000005BC100005BC1000001C29E
:1022D000000002C20000A8C20000B0C200004FC34C
:1022E00000004FC30000E9C50000EBC5000091C627
:1022F000000091C6000037C7000037C70000DDC7E7
:102300000000DEC7000084C8000085C800002BC99B
:1023100000002BC90000D1C90000D2C9000078CA52
:10232000000079CA00001FCB00001FCB000013CDB6
:10233000000013CD0000B9CD0000C1CD000016CEC5
:10234000000016CE000061CE000061CE0000B3CECA
:102350000000B7CE000009CF00000BCF00005BCF1C
:1023600000005BCF0000ADCF0000AFCF0000FCCF7E
:10237000000001D000004FD0000055D00000FBD07D
:102380000000FBD00000A1D10000A2D1000048D283
:10239000000050D20000EFD20000EFD200003CD489
:1023A00000003DD4000089D500008AD5000030D659
:1023B000000031D60000D7D60000D7D600007DD768
:1023C000000086D7000025D8000025D8000071D96C
:1023D000000072D90000BFDA0000BFDA000065DB40
:1023E000000066DB00000CDC00000DDC0000B3DC4C
:1023F0000000BBDC00005ADD00005ADD0000A7DE53
:102400000000ABDE00004ADF00004FDF0000ECDF21
:102410000000F5DF000041E1000042E100008FE232
:1024200000008FE2000029E500002AE500007DE5BC
:1024300000007DE50000D0E50000D1E5000023E6C6
:10244000000024E6000077E6000077E60000CAE618
:102450000000CBE600001DE700001EE7000071E76A
:10246000000071E70000C4E70000C5E7000017E8BE
:10247000000018E800006BE800006BE80000BEE810
:102480000000BFE8000011E9000012E9000065E962
:10249000000065E90000B8E90000B9E900000BEAB6
:1024A00000000CEA00005FEA00005FEA0000B2EA08
:1024B0000000B3EA000005EB000006EB000059EB5A
:1024C000000059EB0000ACEB0000ADEB000053EC5A
:1024D000000053EC0000F9EC000001ED0000A4ED59
:1024E0000000A7ED000047EE00004BEE000096EF65
:1024F000000096EF00003DF0000046F00000ECF018
:102500000000ECF0000090F1000090F1000034F2C7
:10251000000036F20000D9F20000DCF200007DF38A
:10252000000081F300001FF4000025F40000C1F456
:102530000000CBF400001DF500001DF5000070F553
:1025400000007CF50000CDF50000CDF5000021F67F
:10255000000021F6000075F6000075F60000BEF6DA
:102560000000BEF6000011F7000016F700006BF740
:1025700000006CF70000C1F70000C1F7000011F87F
:10258000000011F8000062F8000062F80000B6F8E0
:102590000000B6F8000009F9000009F9000059F937
:1025A00000005AF90000A7F90000ABF90000FAF9A1
:1025B000000001FA0000A8FA0000B1FA000056FB82
:1025C000000056FB0000F3FB0000F3FB000034FFAB
:1025D000000036FF0000DDFF0000E6FF00008C0079
:1025E00001008C00010030010100300101007A027D
:1025F00001007C0201001D03010021030100BF0353
:102600000100C5030100610401006B040100130512
:1026100001001C050100C1050100C10501005E06A5
:1026200001005E0601009F090100A1090100480A9E
:102630000100510A0100F60A0100F60A01009A0B96
:1026400001009B0B0100E50C0100E70C0100870D68
:1026500001008B0D0100D60E0100D60E01007D0F8A
:102660000100860F01002C1001002C100100CF107A
:102670000100D01001001A1201001C120100BD124D
:102680000100BD1201006313010065130100011474
:1026900001000A1401005715010057150100A41686
:1026A0000100A5160100F1170100F21701003F1902
:1026B00001004819010071190100711901009B19ED
:1026C00001009B190100C5190100C5190100EE198F
:1026D0000100EE190100181A0100181A0100421A2F
:1026E0000100421A01006B1A01006B1A0100951AD1
:1026F0000100951A0100BF1A0100BF1A0100E81A73
:102700000100E81A0100121B0100121B01003C1B12
:1027100001003C1B0100651B0100651B01008F1BB4
:1027200001008F1B0100E21B0100E21B01000C1CD9
:1027300001000C1C0100361C0100361C01005F1C4E
:1027400001005F1C0100891C0100891C0100B31CF1
:102750000100B31C0100DC1C0100DC1C0100061D93
:102760000100061D0100301D0100301D0100591D32
:102770000100591D0100831D0100831D0100AD1DD5
:102780000100AD1D0100D61D0100D61D0100001E77
:102790000100001E01002A1E01002A1E0100841EE5
:1027A0000100A41E0100CE1E0100CE1E0100F81E75
:1027B0000100F81E0100211F0100211F01004B1F15
:1027C00001004B1F0100751F0100751F01009E1FB6
:1027D00001009E1F0100C81F0100C81F0100F21F59
:1027E0000100F21F01001B2001001B2001004520F9
:1027F0000100452001006F2001006F20010098209A
:10280000010098200100C2200100C22001000F2118
:102810000100BC2101005D22010061220100FF22B4
:10282000010005230100A1230100AA2301009D2529
:1028300001009E250100442601004B260100EF26E1
:102840000100F1260100922701009627010034289B
:1028500001003A280100D6280100E128010088295A
:10286000010091290100362A0100362A0100DA2AE6
:102870000100DB2A01007F2B0100812B0100242CA9
:102880000100272C0100C72C0100CB2C01006A2D70
:1028900001006F2D01000B2E0100152E01000830E4
:1028A000010009300100AE300100B630010059319D
:1028B00001005C310100FD310100013201009F3255
:1028C0000100A5320100413301004B330100F33315
:1028D0000100FC3301004D3401004D340100A134EE
:1028E0000100A1340100F5340100F5340100453543
:1028F0000100453501009635010096350100E535AA
:102900000100E535010031370100323701007E3822
:1029100001007F380100723A0100733A0100193B4F
:102920000100213B0100C43B0100C73B0100673CA3
:1029300001006B3C01000A3D01000F3D0100AB3D71
:102940000100663E0100B33E0100B83E0100053FB4
:1029500001000C3F0100AF3F0100B03F01005440B7
:10296000010056400100F9400100FC4001009D417A
:102970000100A14101003F42010045420100E14246
:102980000100EB420100934301009C4301004144DC
:10299000010041440100E5440100E544010089458E
:1029A00001008B4501002F46010031460100D2464F
:1029B0000100D6460100744701007A47010016481D
:1029C00001001F4801006C4901006C490100B94A2F
:1029D0000100C14A0100644B0100674B0100074C34
:1029E00001000B4C0100AA4C0100AF4C01004B4D03
:1029F0000100544D0100484F0100484F0100EE4FC7
:102A00000100EF4F0100955001009C5001003C5126
:102A1000010041510100DF510100E55101008152E7
:102A200001008A520100305301003C530100E15380
:102A30000100E1530100855401008554010029552E
:102A400001002B550100CF550100D15501007256F0
:102A5000010076560100145701001A570100B657BD
:102A60000100BF570100B2590100B3590100595A82
:102A70000100615A0100045B0100075B0100A75BD4
:102A80000100AB5B01004A5C01004F5C0100EB5CA4
:102A90000100F65C01009D5D0100A65D0100EE5D98
:102AA0000100EE5D0100415E01004C5E0100A05E90
:102AB0000100A05E0100F05E0100F05E0100415FD8
:102AC0000100415F01008F5F01008F5F0100DC604A
:102AD0000100DC600100296201002A6201001D641E
:102AE00001001E640100C4640100CB6401006F6535
:102AF0000100716501001266010016660100B466EE
:102B00000100B86601005E6701005F6701000568AB
:102B1000010006680100AC680100AC680100526960
:102B2000010053690100F9690100016A0100A46A0A
:102B30000100A76A0100476B01004B6B0100EA6BC3
:102B40000100EF6B01008B6C0100966C01003D6D84
:102B50000100466D0100EC6D0100EC6D01008F6E0F
:102B60000100906E0100346F0100366F0100D96FD3
:102B70000100DC6F01007C700100817001001F7199
:102B8000010025710100C1710100CB710100737258
:102B900001007C720100CD720100CD720100217331
:102BA000010021730100C5730100C5730100697440
:102BB00001006B7401000F75010011750100B27501
:102BC0000100C7750100DB750100DB750100F075C0
:102BD0000100F07501000476010005760100197608
:102BE00001001A7601002E7601002F76010043764F
:102BF00001004476010058760100587601006D7698
:102C000001006D76010081760100827601009676E2
:102C1000010097760100AB760100AC760100C0762A
:102C20000100C1760100D5760100D5760100FE765F
:102C3000010001770100A8770100B1770100567803
:102C4000010056780100F3780100F3780100407A22
:102C50000100477A0100E77A0100EB7A01003E7B30
:102C600001003F7B01008E7B01008F7B0100DC7B3C
:102C70000100E07B01002F7C0100367C0100DD7C3F
:102C80000100E67C01008B7D01008B7D0100287E28
:102C90000100287E0100757F01007C7F01001C80FF
:102CA000010021800100BF800100C480010061811A
:102CB00001006B810100138201001C820100C182AE
:102CC0000100C18201005E8301005E830100AA84CD
:102CD0000100B18401005285010056850100A985DB
:102CE0000100A9850100F9850100FA8501004786E8
:102CF00001004B8601009A860100A08601004887EA
:102D0000010051870100F6870100F68701009388D2
:102D1000010093880100E0890100E7890100878AAA
:102D200001008B8A01002A8B01002F8B0100CB8BC5
:102D30000100D68B01007D8C0100868C01002B8D5B
:102D400001002B8D0100C88D0100C88D0100158F79
:102D500001001C8F0100BC8F0100C18F0100139086
:102D60000100149001006490010064900100B29091
:102D70000100B6900100049101000B910100B39194
:102D80000100BC9101006192010061920100FE927C
:102D90000100FE9201004A94010051940100F29456
:102DA0000100F6940100949501009A950100369671
:102DB000010040960100E8960100F1960100969707
:102DC0000100969701003398010033980100809923
:102DD000010087990100279A01002B9A01007E9A31
:102DE00001007F9A0100CE9A0100CF9A01001C9B3E
:102DF0000100209B01006F9B0100749B0100C79B99
:102E00000100C89B01001A9C01001B9C0100C19C91
:102E10000100C29C0100689D0100689D01000E9E9A
:102E20000100169E0100B99E0100BC9E01005C9F3E
:102E30000100619F0100FF9F010004A00100A1A00B
:102E40000100ABA0010052A101005CA1010001A2A0
:102E5000010001A201009EA201009EA20100EAA3BE
:102E60000100F1A3010092A4010096A40100E9A4CD
:102E70000100E9A4010039A501003AA5010087A5D8
:102E800001008BA50100DAA50100E0A5010088A6DC
:102E9000010091A6010036A7010036A70100D3A7C3
:102EA0000100D3A7010020A9010027A90100C7A99B
:102EB0000100CBA901006AAA01006FAA01000BABB7
:102EC000010016AB0100BDAB0100C6AB01006BAC4D
:102ED00001006BAC010008AD010008AD010055AE6A
:102EE00001005CAE0100FCAE010001AF010053AF78
:102EF000010054AF0100A4AF0100A4AF0100F2AF84
:102F00000100F6AF010044B001004BB00100F2B087
:102F10000100FCB00100A1B10100A1B101003EB26D
:102F200001003EB201008AB3010091B3010032B446
:102F3000010036B40100D4B40100DAB4010076B562
:102F4000010080B5010028B6010031B60100D6B6F7
:102F50000100D6B6010073B7010073B70100C0B815
:102F60000100C7B8010067B901006BB90100BEB923
:102F70000100BFB901000EBA01000FBA01005CBA2E
:102F8000010060BA0100AFBA0100B6BA01005DBB32
:102F9000010066BB01000BBC01000BBC0100A8BC1A
:102FA0000100A8BC0100F5BD0100FCBD01009CBEF4
:102FB0000100A1BE01003FBF010044BF0100E1BF0D
:102FC0000100EABF01003CC001003DC0010090C00B
:102FD0000100E4C0010036C1010037C101008AC10F
:102FE0000100DEC1010030C2010031C2010084C213
:102FF00001002BC30100D1C30100D2C3010078C47A
:10300000010078C401001EC501001FC50100C5C52F
:103010000100C6C501006CC601006CC6010012C7E4
:1030200001001BC701006BC701006BC70100C0C7CF
:1030300001000BC90100AAC9010000000000000046
:10304000B801B801B8010000D2010000ED01000094
:103050000B0200000B020000ED010000D201000095
:10306000B8010000D2010000ED0100000B020000D9
:103070000B020000ED010000D2010000B8010000C9
:10308000D2010000ED0100000B0200004B02000025
:1030900093020000BA0200004B0200000F03000080
:1030A000BA020000930200000B020000B801000009
:1030B000D2010000ED0100000B0200000B02000035
:1030C000ED0100000B0200004B0200009302000023
:1030D000BA02000070030000700300000F0300003C
:1030E00070030000A403000070030000A4030000AC
:1030F0000F030000930200004B0200009302000047
:103100000B020000BA020000BA02000093020000A5
:10311000BA02000025010000490100005D01000025
:10312000B8010000B80100005D010000B801000016
:103130005D0100004901000025010000250100009B
:103140005D010000B80100004B0200004B020000CE
:103150000B0200004B0200000B0200008701000080
:10316000B80100002A020000D2010000B8010000EE
:10317000D2010000B801000087010000B801000082
:1031800049010000BA020000BA02000093020000E8
:10319000BA02000070030000930200000F03000059
:1031A0000F0300000F0300000F0300000F030000D7
:1031B000E30200000F030000E30200000F03000021
:1031C000E30200000F0300003E0300007003000054
:1031D00070030000A4030000DB03000016040000DD
:1031E00070030000BA020000BA020000740500007B
:1031F000740500004B0200000B0200004B020000AF
:10320000BA0200004B020000B80100009F0100005C
:10321000870100005D0100004B0200000B0200006E
:103220004B020000BA0200000F0300004B02000036
:103230000B0200004B0200000B0200004B020000DA
:10324000BA0200004B020000B80100009F0100001C
:10325000870100005D0100004B0200000B0200002E
:103260004B02000070030000700300000F03000019
:103270000F0300004B0200000B0200004B02000095
:10328000BA0200004B020000B80100009F010000DC
:10329000870100005D0100004B0200000B020000EE
:1032A0004B020000BA0200000F0300004B020000B6
:1032B0000B0200004B0200000B0200004B0200005A
:1032C000BA0200004B020000B80100009F0100009C
:1032D000870100005D010000700300007003000022
:1032E000700300007003000070030000160400006B
:1032F0003E0300000F030000BA0200004B02000072
:103300000B0200004B020000BA0200004B0200005A
:10331000B80100009F010000870100005D0100006E
:103320004B0200000B0200004B020000BA0200003A
:103330000F0300004B0200000B0200004B020000D4
:103340000B0200004B020000BA0200004B0200001A
:10335000B80100009F010000870100005D0100002E
:103360004B0200000B0200004B0200007003000043
:10337000700300000F0300000F0300004B02000069
:103380000B0200004B020000BA0200004B020000DA
:10339000B80100009F010000870100005D010000EE
:1033A0004B0200000B0200004B020000BA020000BA
:1033B0000F0300004B0200000B020000DC040000C1
:1033C000DC040000960400009604000016040000CF
:1033D0001604000096040000DC04000096040000BF
:1033E00096040000960400009604000016040000F5
:1033F000960400002D0900002501000025010000B1
:10340000250100005D010000B801000087010000F7
:10341000870100008701000049010000050100004C
:10342000E9000000E9000000E900000025010000BB
:103430005D010000490100005D01000087010000FE
:1034400049010000050100002501000025010000E0
:10345000250100005D010000B801000087010000A7
:1034600087010000870100004901000005010000FC
:103470005D01000025010000E90000005D01000081
:103480004901000005010000C300000049010000DF
:103490004901000071010000DC000000250100006E
:1034A00071010000B8010000250100007101000059
:1034B000B80100004B0200002501000025010000BA
:1034C000250100005D010000B8010000700300004C
:1034D000870100008701000087010000490100000A
:1034E0000501000005010000E9000000E9000000FE
:1034F000E9000000250100005D0100004901000015
:103500005D01000087010000490100000501000085
:103510002501000025010000250100002501000013
:1035200025010000250100004901000049010000BB
:103530005D0100005D0100005D0100005D01000013
:103540005D0100005D0100008701000087010000AF
:10355000B8010000B8010000B8010000B801000087
:10356000B8010000B801000087010000B8010000A8
:10357000B80100005D01000025010000E900000025
:103580005D0100004901000005010000C3000000CA
:1035900049010000E0060000C70500002605000004
:1035A0009604000070030000E30200009302000094
:1035B0004B020000B8010000710100004901000049
:1035C00025010000DC000000B8000000A40000009D
:1035D00092000000F6000000DC000000F600000091
:1035E00025010000F6000000DC000000F6000000ED
:1035F0002501000049010000F6000000DC00000089
:10360000F6000000DC000000F600000025010000CC
:10361000F6000000DC000000F60000007101000070
:103620007101000049010000F6000000DC0000000C
:10363000F60000002501000025010000F600000052
:10364000DC00000071010000710100009F0100001A
:103650009F010000B8010000ED0100000B02000016
:103660004B02000093020000BA0200000F030000AA
:1036700070030000DB030000160400009604000045
:1036800026050000740500001F060000E00600008B
:1036900070030000DB030000160400009604000025
:1036A00026050000740500001F060000E00600006B
:1036B000B70700002D0800002D0900004D0A00008A
:1036C000E90A00003F0C0000C00D00001F060000CA
:1036D0007405000026050000960400001604000092
:1036E000DB030000700300000F030000BA020000BB
:1036F000930200004B0200000B020000ED010000ED
:10370000B80100004B02000093020000BA02000062
:103710007003000070030000BA0200007003000094
:10372000BA020000930200004B0200009604000061
:1037300074050000E00600002D0900004B020000A7
:10374000BA02000070030000960400009604000016
:103750001604000096040000160400000F03000089
:103760007003000054040000A40300007003000074
:10377000A4030000700300000F03000070030000AA
:1037800093020000BA020000BA0200009302000097
:10379000BA020000700300004B0200000F0300009B
:1037A0000F0300000F0300000F0300000F030000D1
:1037B000700300000F0300004B020000BA0200007B
:1037C0004B020000D2010000BA0200009302000088
:1037D0000B02000087010000930200004B02000072
:1037E00093020000E30200004B020000930200007D
:1037F000BA0200007003000070030000BA0200006B
:1038000070030000BA020000930200004B020000A7
:103810009604000074050000E00600002D09000079
:103820004B020000BA020000700300009604000082
:103830009604000016040000960400001604000020
:103840000F0300007003000054040000A4030000F4
:1038500070030000A4030000700300000F030000C9
:103860007003000093020000BA020000BA020000D8
:1038700093020000BA020000700300004B02000037
:103880000F0300000F0300000F0300000F030000F0
:10389000E30200000F030000E30200000F0300003A
:1038A000E30200000F0300003E030000700300006D
:1038B00070030000A4030000DB03000016040000F6
:1038C000960400002D090000E00600001F0600001D
:1038D0007405000026050000160400002D080000F5
:1038E000B7070000E00600001F0600007405000096
:1038F000260500009604000016040000DB0300000B
:10390000700300000F030000BA02000093020000E1
:103910004B0200004B0200000B0200004B020000B3
:10392000BA0200004B020000B80100009F01000035
:10393000870100005D0100004B0200000B02000047
:103940004B020000BA0200000F0300004B0200000F
:103950000B0200004B0200000B0200004B020000B3
:10396000BA0200004B020000B80100009F010000F5
:10397000870100005D0100004B0200000B02000007
:103980004B02000070030000700300000F030000F2
:103990000F0300004B0200000B0200004B0200006E
:1039A000BA0200004B020000B80100009F010000B5
:1039B000870100005D0100004B0200000B020000C7
:1039C0004B020000BA0200000F0300004B0200008F
:1039D0000B0200004B0200000B0200004B02000033
:1039E000BA0200004B020000B80100009F01000075
:1039F000870100005D0100007003000070030000FB
:103A00007003000070030000700300001604000043
:103A10003E0300000F030000BA0200004B0200004A
:103A20000B0200004B020000BA0200004B02000033
:103A3000B80100009F010000870100005D01000047
:103A40004B0200000B0200004B020000BA02000013
:103A50000F0300004B0200000B0200004B020000AD
:103A60000B0200004B020000BA0200004B020000F3
:103A7000B80100009F010000870100005D01000007
:103A80004B0200000B0200004B020000700300001C
:103A9000700300000F0300000F0300004B02000042
:103AA0000B0200004B020000BA0200004B020000B3
:103AB000B80100009F010000870100005D010000C7
:103AC0004B0200000B0200004B020000BA02000093
:103AD0000F0300004B0200000B020000DC0400009A
:103AE000DC040000960400009604000016040000A8
:103AF0001604000096040000DC0400009604000098
:103B000096040000960400009604000016040000CD
:103B1000960400002D09000000000000240027008A
:103B20002A000201000000000023002600290000F6
:103B3000000000250028002B0004040404040404F1
:103B4000040202020202020303030303030102044C
:103B5000081020408001020408102001020408100F
:103B6000200000000800020100000304070000001C
:103B7000000000000000F42511241FBECFEFD8E0A4
:103B8000DEBFCDBF11E0A0E0B1E0E4EDFCE402C097
:103B900005900D92A633B107D9F722E0A6E3B1E074
:103BA00001C01D92A631B207E1F71DE1CCEBDDE1CA
:103BB00004C02197FE010E946226CB3BD107C9F7C2
:103BC0000E949F210C9468260C940000AF92BF9233
:103BD000CF92DF92EF92FF920F931F93CF93DF93D9
:103BE0006C017B018B01040F151FEB015E01AE1808
:103BF000BF08C017D10759F06991D601ED91FC912A
:103C00000190F081E02DC6010995892B79F7C50156
:103C1000DF91CF911F910F91FF90EF90DF90CF90A8
:103C2000BF90AF900895FC01538D448D252F30E057
:103C3000842F90E0821B930B541710F0CF960895B9
:103C400001970895FC01918D828D981761F0A28DE6
:103C5000AE0FBF2FB11D5D968C91928D9F5F9F73AC
:103C6000928F90E008958FEF9FEF0895FC01918D62
:103C7000828D981731F0828DE80FF11D858D90E0CF
:103C800008958FEF9FEF0895FC01918D228D892F6C
:103C900090E0805C9F4F821B91098F739927089554
:103CA00089E791E00E94441E21E0892B09F420E07D
:103CB000822F089580E090E0892B29F00E94501E09
:103CC00081110C9400000895FC01A48DA80FB92F58
:103CD000B11DA35ABF4F2C91848D90E001968F7334
:103CE0009927848FA689B7892C93A089B1898C9153
:103CF000837080648C93938D848D981306C00288A2
:103D0000F389E02D80818F7D80830895EF92FF926B
:103D10000F931F93CF93DF93EC0181E0888F9B8DEE
:103D20008C8D98131AC0E889F989808185FF15C0A8
:103D30009FB7F894EE89FF896083E889F9898081CB
:103D40008370806480839FBF81E090E0DF91CF919A
:103D50001F910F91FF90EF900895F62E0B8D10E0BC
:103D60000F5F1F4F0F731127E02E8C8D8E110CC02B
:103D70000FB607FCFACFE889F989808185FFF5CF76
:103D8000CE010E94641EF1CFEB8DEC0FFD2FF11DD3
:103D9000E35AFF4FF0829FB7F8940B8FEA89FB89B3
:103DA00080818062CFCFCF93DF93EC01888D882311
:103DB000B9F0AA89BB89E889F9898C9185FD03C08E
:103DC000808186FD0DC00FB607FCF7CF8C9185FF73
:103DD000F2CF808185FFEDCFCE010E94641EE9CF36
:103DE000DF91CF910895833081F028F4813099F0EC
:103DF0008230A9F008958730A9F08830C9F0843066
:103E0000B1F4809180008F7D03C0809180008F7716
:103E100080938000089584B58F7784BD089584B51C
:103E20008F7DFBCF8091B0008F778093B000089595
:103E30008091B0008F7DF9CFCF93DF93282F30E0B2
:103E4000F901EF59F44C8491F901E35BF44CD491FE
:103E5000F901E75CF44CC491CC2391F081110E94EC
:103E6000F31EEC2FF0E0EE0FFF1FE15DF44CA59187
:103E7000B4918FB7F894EC91D095DE23DC938FBF8B
:103E8000DF91CF910895CF93DF93E1E6FBE3849137
:103E9000EDE4FBE3D491E9E3FBE3C491CC23A1F08F
:103EA00081110E94F31EEC2FF0E0EE0FFF1FEB5D7F
:103EB000F44CA591B491EC91ED2381E090E009F4EC
:103EC00080E0DF91CF91089580E090E0FACFCF932A
:103ED000DF9390E0FC01E35BF44C2491875C944C0D
:103EE000FC0184918823D1F090E0880F991FFC0198
:103EF000E85EF44CA591B491FC01E15DF44CC591F0
:103F0000D491623071F49FB7F8943C91822F8095E0
:103F100083238C93E8812E2B28839FBFDF91CF9141
:103F200008958FB7F894EC912E2B2C938FBFF6CF7A
:103F30003FB7F8948091370190913801A0913901F1
:103F4000B0913A0126B5A89B05C02F3F19F0019604
:103F5000A11DB11D3FBFBA2FA92F982F8827BC01E3
:103F6000CD01620F711D811D911D42E0660F771F0B
:103F7000881F991F4A95D1F708950C94981FFC014A
:103F80009181913061F0923081F0911105C0909152
:103F90006E009D7F90936E0080810C941C1F909109
:103FA0006F009D7F90936F00F7CF909170009D7F81
:103FB00090937000F1CFCF93DF93FC01019000202C
:103FC000E9F73197AF01481B590BBC0189E791E034
:103FD0000E94E61DEC0142E050E062E271E089E7F8
:103FE00091E00E94E61D8C0F9D1FDF91CF910895F7
:103FF0001F920F920FB60F9211242F933F934F935E
:104000005F936F937F938F939F93AF93BF93EF9340
:10401000FF9389E791E00E94641EFF91EF91BF91A9
:10402000AF919F918F917F916F915F914F913F9150
:104030002F910F900FBE0F901F9018951F920F9207
:104040000FB60F9211242F938F939F93EF93FF93AB
:10405000E0918901F0918A018081E0918F01F091D6
:10406000900182FD1BC09081809192018F5F8F73C0
:1040700020919301821741F0E0919201F0E0E7581E
:10408000FE4F958F80939201FF91EF919F918F91B9
:104090002F910F900FBE0F901F9018958081F4CF35
:1040A0001F920F920FB60F9211242F933F938F936D
:1040B0009F93AF93BF938091450190914601A0914A
:1040C0004701B09148013091360123E0230F2D378D
:1040D00058F50196A11DB11D20933601809345012D
:1040E00090934601A0934701B09348018091370116
:1040F00090913801A0913901B0913A010196A11D2A
:10410000B11D8093370190933801A0933901B0938A
:104110003A01BF91AF919F918F913F912F910F9055
:104120000FBE0F901F90189526E8230F0296A11D31
:10413000B11DD2CF1F920F920FB60F9211242F9361
:104140003F938F939F93AF93BF93EF93FF93809190
:10415000490190914A01A0914B01B0914C01009707
:10416000A105B10531F130913B01E0913C01F091A5
:104170003D01208123272083181619061A061B06E5
:104180001CF40197A109B1098093490190934A0158
:10419000A0934B01B0934C01FF91EF91BF91AF9170
:1041A0009F918F913F912F910F900FBE0F901F9075
:1041B0001895209170002D7F2093700020913B0175
:1041C000E0913C01F0913D01308120952323208333
:1041D000DBCF1F920F920FB60F9211248F939F93F4
:1041E000AF93BF93EF93FF9380914D0190914E0158
:1041F000A0914F01B0915001892B8A2B8B2BA1F1FB
:1042000090913E01E0913F01F0914001808189272A
:10421000808380914D0190914E01A0914F01B0910A
:104220005001181619061A061B069CF480914D01C0
:1042300090914E01A0914F01B09150010197A109B9
:10424000B10980934D0190934E01A0934F01B0931B
:104250005001FF91EF91BF91AF919F918F910F907E
:104260000FBE0F901F90189580916F008D7F8093E7
:104270006F0080913E01E0913F01F09140019081FB
:10428000809589238083E5CF1F920F920FB60F92FE
:1042900011248F939F93AF93BF93EF93FF938091DC
:1042A000510190915201A0915301B0915401892B79
:1042B0008A2B8B2BA1F190914101E0914201F09169
:1042C000430180818927808380915101909152011F
:1042D000A0915301B0915401181619061A061B0635
:1042E0009CF48091510190915201A0915301B091A1
:1042F00054010197A109B109809351019093520192
:10430000A0935301B0935401FF91EF91BF91AF91EE
:104310009F918F910F900FBE0F901F9018958091D5
:104320006E008D7F80936E0080914101E09142018B
:10433000F09143019081809589238083E5CFCF93CD
:10434000DF93CDB7DEB729970FB6F894DEBF0FBE67
:10435000CDBF789484B5826084BD84B5816084BD0E
:1043600085B5826085BD85B5816085BD80916E0013
:10437000816080936E001092810080918100826044
:104380008093810080918100816080938100809181
:1043900080008160809380008091B1008460809370
:1043A000B1008091B00081608093B00080917A006C
:1043B000846080937A0080917A00826080937A0092
:1043C00080917A00816080937A0080917A00806881
:1043D00080937A001092C100E0918901F0918A01E6
:1043E00082E08083E0918501F09186011082E09166
:1043F0008701F09188018FEC808310929101E09108
:104400008D01F0918E0186E08083E0918B01F09127
:104410008C01808180618083E0918B01F0918C011F
:10442000808188608083E0918B01F0918C01808194
:1044300080688083E0918B01F0918C0180818F7D79
:10444000808362E080E00E94671F61E08DE00E944F
:10445000671F61E089E00E94671F61E08AE00E94B7
:10446000671FA5E5B1E005E711E069E671E04DE6FB
:1044700051E029E531E082E1282E81E0382EFF2449
:10448000FA94F10186819781F90191838083FA0181
:104490001192119211921192AF01FB01119211929E
:1044A000BF01F801119211928F01F1019081809169
:1044B0004401833008F004C19C93E82FF0E0EE5DE6
:1044C000F44CE4911196EC9311978F5F8093440123
:1044D000E13009F4A9C008F487C0E23009F4CAC089
:1044E000F90180819181FC01E150F04CCF01880FEE
:1044F000991F880F991FF101C480D580F601E80F3C
:10450000F91F459055906590749080905D01909052
:104510005E01A0905F01B090600184149504A60430
:10452000B70410F45301420180925D0190925E0144
:10453000A0925F01B0926001F8E02F0E311C2E5F57
:104540003F4F129682E2281681E0380609F099CF93
:104550000E94BD1F8DE00E941C1F85E291E00E9419
:10456000DB1F69E671E00DE6C02E01E0D02E45E7C5
:1045700051E0A2E1B1E01496ED90FC901597FA019C
:1045800080819181FC01EE0FFF1FEE0FFF1FEE0DEA
:10459000FF1D0591159125913491F601008311833A
:1045A00022833383FA012081318189010F5F1F4FFC
:1045B000C801880F991F880F991F8E0D9F1DFC0140
:1045C00085909590A590B490F601408051806280CE
:1045D0007380481459046A047B0409F075C0FA0119
:1045E00011830083FC01D5CF14BC15BC84B5826057
:1045F00084BD85B5816085BD8C9190E0FC01E75C50
:10460000F44CE491F0E0EE0FFF1FE15DF44CC59037
:10461000D490D0924301C0924201FC01E35BF44C80
:10462000E491E09341015CCF1092800010928100F0
:1046300080918100886080938100809181008160F9
:10464000809381008C9190E0FC01E75CF44CE49154
:10465000F0E0EE0FFF1FE15DF44CC590D490D092D6
:104660004001C0923F01FC01E35BF44CE491E09314
:104670003E0136CF1092B0001092B1008091B00090
:1046800082608093B0008091B10081608093B1001E
:104690008C9190E0FC01E75CF44CE491F0E0EE0FCB
:1046A000FF1FE15DF44CC590D490D0923D01C092C3
:1046B0003C01FC01E35BF44CE491E0933B0110CF3F
:1046C0001196FC9211970CCF90E080E01216130621
:1046D00064F421503048220F331F1296ED91FC9163
:1046E0001397E20FF31F85919491FB0181939193AE
:1046F000BF0118964E5F5F4FF4E0CF0ED11C81E0F2
:10470000A232B80709F037CF2FB7F894809145014E
:1047100090914601A0914701B09148012FBF80932D
:10472000650190936601A0936701B0936801E2E18F
:10473000CE2EEAE7DE2EE12CF12C40916101509162
:104740006201609163017091640180915D019091BB
:104750005E01A0915F01B091600184179507A607E3
:10476000B70708F41AC22FB7F894809145019091C9
:104770004601A0914701B09148012FBF40916501CA
:10478000509166016091670170916801841B950BDF
:10479000A60BB70B8093610190936201A093630114
:1047A000B0936401ADE6B1E0BB83AA83E5E5F1E037
:1047B000F987E88789E591E09D838C8375E7272E4B
:1047C00071E0372E10E000E0AC81BD818D919D91AC
:1047D000BD83AC83F10120813181281739070CF0AA
:1047E000D7C10E94431F0E94431F892B21F480E3FD
:1047F00091E00E94DB1FC80187599E4F9F838E83E3
:10480000DC018D909C90181419040CF0BCC1E88553
:10481000F985818187FD02C161E080810E94671F67
:10482000A885B9851196BC91B983092C000CAA08FA
:10483000BB088B2F8D7F09F053C160E072E18AE7DE
:1048400090E0A50194010E94212629013A01DA0194
:10485000C9010197A109B1098F3F9105A105B105D2
:1048600009F00CF4B6C060E472E48FE090E0A501BA
:1048700094010E9421262150310941095109E98101
:10488000E23009F068C082E02F3F31054105510553
:1048900009F00CF459C060E970ED83E090E0A501E7
:1048A00094010E942126215031094109510983E0D8
:1048B0002F3F31054105510509F00CF445C068E46E
:1048C00078EE81E090E0A50194010E94212621501C
:1048D00031094109510984E02F3F31054105510556
:1048E00099F194F164E274EF80E090E0A501940105
:1048F0000E942126215031094109510985E02F3FAD
:1049000031054105510501F1F8F0C701B601A501D6
:1049100094010E942126215031094109510986E064
:104920002F3F31054105510579F070F08AE075940B
:104930006794579447948A95D1F7A3019201215027
:1049400031094109510987E09091B100987F892B85
:104950008093B10047C02F3F31054105510509F053
:104960000CF4BCC068E478EE81E090E0A50194010D
:104970000E9421262150310941095109F98184E021
:10498000F111BDCF83E02F3F31054105510531F1D4
:104990002CF1C701B601A50194010E9421262150E6
:1049A00031094109510984E02F3F31054105510585
:1049B000A9F0A0F09AE075946794579447949A955B
:1049C000D1F7A3019201215031094109510985E034
:1049D00005C09C0181E099819111B6CF95B5987F72
:1049E000892B85BDE885F9858181813009F4A3C0D3
:1049F000823009F4B5C0811111C027BD8FEF9FEF40
:104A0000DC018093510190935201A0935301B09324
:104A1000540180916E00826080936E00AA81BB81F8
:104A20004D915D916D917C918091610190916201B8
:104A3000A0916301B091640184179507A607B70799
:104A400008F438C0F10120813181C90101969183B8
:104A50008083EC81FD8132974081518184179507D5
:104A60004CF5D801AA0FBB1FAA0FBB1FAE5EBE4FED
:104A7000220F331F1296ED91FC911397E20FF31F53
:104A800045915491EE81FF8151834083880F991F96
:104A9000880F991F1496ED91FC91E80FF91F45912D
:104AA000559165917491AA81BB814D935D936D93EE
:104AB0007C931397B2E02B0E311CE885F985329672
:104AC000F987E8878A819B8104969B838A830E5F9E
:104AD0001F4F0430110509F077CE2FCE82E07BCF37
:104AE00060E072E18AE790E0A50194010E9421262E
:104AF000215031094109510991E021153105A1E009
:104B00004A0751056CF068E478EE81E090E0A50179
:104B100094010E942126215031094109510993E055
:104B2000B981B13009F05ECF80918100887F892BF7
:104B30008093810057CF30938900209388008FEFB6
:104B40009FEFDC0180934D0190934E01A0934F01A4
:104B5000B093500180916F00826080936F005ECFB0
:104B60002093B3008FEF9FEFDC0180934901909376
:104B70004A01A0934B01B0934C0180917000826078
:104B8000809370004BCF888599850E94BF1F46CFC8
:104B9000888599850E94BF1F8DCF10926101109268
:104BA00062011092630110926401109276011092DA
:104BB000750185E591E00E94BF1F10927801109267
:104BC000770187E591E00E94BF1F0E94BD1F80E032
:104BD00090E0892B09F4BECC0E94501E882309F472
:104BE000B9CC0E940000B6CCE9E7F1E01382128252
:104BF00088EE93E0A0E0B0E084839583A683B7833A
:104C000084E091E09183808385EC90E095878487B0
:104C100084EC90E09787868780EC90E0918B808B86
:104C200081EC90E0938B828B82EC90E0958B848B6F
:104C300086EC90E0978B868B118E128E138E148EDD
:104C40000895052E97FB1EF400940E94382657FD08
:104C500007D00E94402607FC03D04EF40C9438265F
:104C600050954095309521953F4F4F4F5F4F089598
:104C700090958095709561957F4F8F4F9F4F0895C8
:104C8000A1E21A2EAA1BBB1BFD010DC0AA1FBB1F50
:104C9000EE1FFF1FA217B307E407F50720F0A21BC2
:104CA000B30BE40BF50B661F771F881F991F1A942F
:104CB00069F760957095809590959B01AC01BD0159
:104CC000CF010895EE0FFF1F0590F491E02D099498
:044CD000F894FFCF86
:104CD40000000000861EE61D131ED31E441E221E65
:104CE400361E09003A307E1A6F050C00CC1168009C
:104CF40059040D0A00506C6179696E672E2E2E00DE
:064D0400736B69700000F2
:00000001FF
